{
  "_format": "hh-sol-artifact-1",
  "contractName": "AssetUserAllowList",
  "sourceName": "contracts/core/AssetUserAllowList.sol",
  "abi": [
    {
      "inputs": [],
      "stateMutability": "nonpayable",
      "type": "constructor"
    },
    {
      "inputs": [],
      "name": "AccessControlBadConfirmation",
      "type": "error"
    },
    {
      "inputs": [
        {
          "internalType": "address",
          "name": "account",
          "type": "address"
        },
        {
          "internalType": "bytes32",
          "name": "neededRole",
          "type": "bytes32"
        }
      ],
      "name": "AccessControlUnauthorizedAccount",
      "type": "error"
    },
    {
      "inputs": [
        {
          "internalType": "address",
          "name": "caller",
          "type": "address"
        }
      ],
      "name": "OnlyAuthorizedCaller",
      "type": "error"
    },
    {
      "anonymous": false,
      "inputs": [
        {
          "indexed": true,
          "internalType": "address",
          "name": "caller",
          "type": "address"
        },
        {
          "indexed": false,
          "internalType": "bool",
          "name": "authorized",
          "type": "bool"
        }
      ],
      "name": "AuthorizedCallerUpdated",
      "type": "event"
    },
    {
      "anonymous": false,
      "inputs": [
        {
          "indexed": true,
          "internalType": "bytes32",
          "name": "role",
          "type": "bytes32"
        },
        {
          "indexed": true,
          "internalType": "bytes32",
          "name": "previousAdminRole",
          "type": "bytes32"
        },
        {
          "indexed": true,
          "internalType": "bytes32",
          "name": "newAdminRole",
          "type": "bytes32"
        }
      ],
      "name": "RoleAdminChanged",
      "type": "event"
    },
    {
      "anonymous": false,
      "inputs": [
        {
          "indexed": true,
          "internalType": "bytes32",
          "name": "role",
          "type": "bytes32"
        },
        {
          "indexed": true,
          "internalType": "address",
          "name": "account",
          "type": "address"
        },
        {
          "indexed": true,
          "internalType": "address",
          "name": "sender",
          "type": "address"
        }
      ],
      "name": "RoleGranted",
      "type": "event"
    },
    {
      "anonymous": false,
      "inputs": [
        {
          "indexed": true,
          "internalType": "bytes32",
          "name": "role",
          "type": "bytes32"
        },
        {
          "indexed": true,
          "internalType": "address",
          "name": "account",
          "type": "address"
        },
        {
          "indexed": true,
          "internalType": "address",
          "name": "sender",
          "type": "address"
        }
      ],
      "name": "RoleRevoked",
      "type": "event"
    },
    {
      "anonymous": false,
      "inputs": [
        {
          "indexed": true,
          "internalType": "address",
          "name": "user",
          "type": "address"
        },
        {
          "indexed": false,
          "internalType": "bool",
          "name": "allowed",
          "type": "bool"
        }
      ],
      "name": "UserAllowlistUpdated",
      "type": "event"
    },
    {
      "inputs": [],
      "name": "DEFAULT_ADMIN_ROLE",
      "outputs": [
        {
          "internalType": "bytes32",
          "name": "",
          "type": "bytes32"
        }
      ],
      "stateMutability": "view",
      "type": "function"
    },
    {
      "inputs": [
        {
          "internalType": "bytes32",
          "name": "role",
          "type": "bytes32"
        }
      ],
      "name": "getRoleAdmin",
      "outputs": [
        {
          "internalType": "bytes32",
          "name": "",
          "type": "bytes32"
        }
      ],
      "stateMutability": "view",
      "type": "function"
    },
    {
      "inputs": [
        {
          "internalType": "bytes32",
          "name": "role",
          "type": "bytes32"
        },
        {
          "internalType": "address",
          "name": "account",
          "type": "address"
        }
      ],
      "name": "grantRole",
      "outputs": [],
      "stateMutability": "nonpayable",
      "type": "function"
    },
    {
      "inputs": [
        {
          "internalType": "bytes32",
          "name": "role",
          "type": "bytes32"
        },
        {
          "internalType": "address",
          "name": "account",
          "type": "address"
        }
      ],
      "name": "hasRole",
      "outputs": [
        {
          "internalType": "bool",
          "name": "",
          "type": "bool"
        }
      ],
      "stateMutability": "view",
      "type": "function"
    },
    {
      "inputs": [
        {
          "internalType": "address",
          "name": "caller",
          "type": "address"
        }
      ],
      "name": "isAuthorizedCaller",
      "outputs": [
        {
          "internalType": "bool",
          "name": "",
          "type": "bool"
        }
      ],
      "stateMutability": "view",
      "type": "function"
    },
    {
      "inputs": [
        {
          "internalType": "address",
          "name": "user",
          "type": "address"
        }
      ],
      "name": "isUserAllowed",
      "outputs": [
        {
          "internalType": "bool",
          "name": "",
          "type": "bool"
        }
      ],
      "stateMutability": "view",
      "type": "function"
    },
    {
      "inputs": [
        {
          "internalType": "bytes32",
          "name": "role",
          "type": "bytes32"
        },
        {
          "internalType": "address",
          "name": "callerConfirmation",
          "type": "address"
        }
      ],
      "name": "renounceRole",
      "outputs": [],
      "stateMutability": "nonpayable",
      "type": "function"
    },
    {
      "inputs": [
        {
          "internalType": "bytes32",
          "name": "role",
          "type": "bytes32"
        },
        {
          "internalType": "address",
          "name": "account",
          "type": "address"
        }
      ],
      "name": "revokeRole",
      "outputs": [],
      "stateMutability": "nonpayable",
      "type": "function"
    },
    {
      "inputs": [
        {
          "internalType": "address",
          "name": "caller",
          "type": "address"
        },
        {
          "internalType": "bool",
          "name": "authorized",
          "type": "bool"
        }
      ],
      "name": "setAuthorizedCaller",
      "outputs": [],
      "stateMutability": "nonpayable",
      "type": "function"
    },
    {
      "inputs": [
        {
          "internalType": "address",
          "name": "user",
          "type": "address"
        },
        {
          "internalType": "bool",
          "name": "allowed",
          "type": "bool"
        }
      ],
      "name": "setUserAllowed",
      "outputs": [],
      "stateMutability": "nonpayable",
      "type": "function"
    },
    {
      "inputs": [
        {
          "internalType": "address[]",
          "name": "users",
          "type": "address[]"
        },
        {
          "internalType": "bool[]",
          "name": "allowed",
          "type": "bool[]"
        }
      ],
      "name": "setUsersAllowed",
      "outputs": [],
      "stateMutability": "nonpayable",
      "type": "function"
    },
    {
      "inputs": [
        {
          "internalType": "bytes4",
          "name": "interfaceId",
          "type": "bytes4"
        }
      ],
      "name": "supportsInterface",
      "outputs": [
        {
          "internalType": "bool",
          "name": "",
          "type": "bool"
        }
      ],
      "stateMutability": "view",
      "type": "function"
    }
  ],
  "bytecode": "0x6080604052346100225761001233610027565b5060405161080c90816100b88239f35b600080fd5b6001600160a01b031660008181527fad3228b676f7d3cd4284a5443f17f1962b36e491b30a40b2405849e597ba5fb5602052604081205490919060ff166100b357818052816020526040822081835260205260408220600160ff1982541617905533917f2f8788117e7eff1d82e926ec794901d17c78024a50270940304540a733656f0d8180a4600190565b509056fe608060408181526004908136101561001657600080fd5b600092833560e01c90816301ffc9a71461057357508063248a9ca3146105495780632f2ff15d1461052157806336568abe146104da5780633a47c26b1461034c578063454bbd291461027257806359d14b411461023457806391d14854146101ee578063a217fddf146101d3578063a52ba4e81461017a578063d1a81a8d146100e85763d547741f146100a857600080fd5b346100e457806003193601126100e4576100e091356100db60016100ca6105c7565b938387528660205286200154610658565b61071a565b5080f35b8280fd5b5090346100e4576100f836610629565b91338552600260205260ff84862054161561016357506001600160a01b031680845260016020908152838520805460ff191660ff8515151617905590927fea2c57f30100fac2e0e343554923481a9e3da2adeaa81495b6ff46feeb216ead92905b519015158152a280f35b602490845190635fd2804d60e01b82523390820152fd5b509190346101cf5760203660031901126101cf576101966105e2565b90338352600260205260ff848420541615610163576001600160a01b03821683526001602090815284842054855160ff90911615158152f35b5080fd5b8382346101cf57816003193601126101cf5751908152602090f35b5090346100e457816003193601126100e4578160209360ff9261020f6105c7565b903582528186528282206001600160a01b039091168252855220549151911615158152f35b8382346101cf5760203660031901126101cf5760209160ff9082906001600160a01b0361025f6105e2565b1681526002855220541690519015158152f35b50346100e45761028136610629565b91908480528460205281852033865260205260ff82862054161561032f576001600160a01b03169283156102f457507fad857fa38c9319cb80848f1ef2f924383b90297eb5d71755738ff037d100faa19160209184865260028352610159828288209060ff801983541691151516179055565b6020606492519162461bcd60e51b83528201526016602482015275496e76616c69642063616c6c6572206164647265737360501b6044820152fd5b815163e2517d3f60e01b8152338186015260248101869052604490fd5b50346100e457806003193601126100e45767ffffffffffffffff9180358381116104d65761037d90369083016105f8565b909260249485359081116104d25761039890369085016105f8565b9290923388526020936002855260ff848a205416156104bd5781830361048257885b898482106103c55780f35b7fea2c57f30100fac2e0e343554923481a9e3da2adeaa81495b6ff46feeb216ead8761044561042285898e6104408d610407610402868f8f61078f565b6107b5565b6001600160a01b039a9091908b61042761042289898961078f565b6107c2565b16815260018a52209060ff801983541691151516179055565b61078f565b9261045461040286898961078f565b93895194151585521692a26000198114610470576001016103ba565b634e487b7160e01b8a5260118752888afd5b835162461bcd60e51b81528087018690526016818a015275082e4e4c2f2e640d8cadccee8d040dad2e6dac2e8c6d60531b6044820152606490fd5b8351635fd2804d60e01b815233818801528890fd5b8680fd5b8480fd5b508290346101cf57806003193601126101cf576104f56105c7565b90336001600160a01b0383160361051257506100e091923561071a565b5163334bd91960e11b81528390fd5b50346100e457806003193601126100e4576100e0913561054460016100ca6105c7565b61069c565b5090346100e45760203660031901126100e457816020936001923581528085522001549051908152f35b849084346100e45760203660031901126100e4573563ffffffff60e01b81168091036100e45760209250637965db0b60e01b81149081156105b6575b5015158152f35b6301ffc9a760e01b149050836105af565b602435906001600160a01b03821682036105dd57565b600080fd5b600435906001600160a01b03821682036105dd57565b9181601f840112156105dd5782359167ffffffffffffffff83116105dd576020808501948460051b0101116105dd57565b60409060031901126105dd576004356001600160a01b03811681036105dd579060243580151581036105dd5790565b80600052600060205260406000203360005260205260ff604060002054161561067e5750565b6044906040519063e2517d3f60e01b82523360048301526024820152fd5b9060009180835282602052604083209160018060a01b03169182845260205260ff6040842054161560001461071557808352826020526040832082845260205260408320600160ff198254161790557f2f8788117e7eff1d82e926ec794901d17c78024a50270940304540a733656f0d339380a4600190565b505090565b9060009180835282602052604083209160018060a01b03169182845260205260ff6040842054166000146107155780835282602052604083208284526020526040832060ff1981541690557ff6391f5c32d9c69d2a47ea670b442974b53935d1edc7fd64eb21e047a839171b339380a4600190565b919081101561079f5760051b0190565b634e487b7160e01b600052603260045260246000fd5b3580151581036105dd5790565b356001600160a01b03811681036105dd579056fea2646970667358221220bd416329eb4069b47a0f5f515abcc9a470be2a51cd0ec5443eb7fc05e5a917d664736f6c63430008140033",
  "linkReferences": {},
  "deployedLinkReferences": {}
}