{
  "_format": "hh-sol-artifact-1",
  "contractName": "AssetUserAllowList",
  "sourceName": "contracts/core/AssetUserAllowList.sol",
  "abi": [
    {
      "inputs": [],
      "stateMutability": "nonpayable",
      "type": "constructor"
    },
    {
      "inputs": [],
      "name": "AccessControlBadConfirmation",
      "type": "error"
    },
    {
      "inputs": [
        {
          "internalType": "address",
          "name": "account",
          "type": "address"
        },
        {
          "internalType": "bytes32",
          "name": "neededRole",
          "type": "bytes32"
        }
      ],
      "name": "AccessControlUnauthorizedAccount",
      "type": "error"
    },
    {
      "inputs": [
        {
          "internalType": "address",
          "name": "caller",
          "type": "address"
        }
      ],
      "name": "OnlyAuthorizedCaller",
      "type": "error"
    },
    {
      "anonymous": false,
      "inputs": [
        {
          "indexed": true,
          "internalType": "address",
          "name": "caller",
          "type": "address"
        },
        {
          "indexed": false,
          "internalType": "bool",
          "name": "authorized",
          "type": "bool"
        }
      ],
      "name": "AuthorizedCallerUpdated",
      "type": "event"
    },
    {
      "anonymous": false,
      "inputs": [
        {
          "indexed": true,
          "internalType": "bytes32",
          "name": "role",
          "type": "bytes32"
        },
        {
          "indexed": true,
          "internalType": "bytes32",
          "name": "previousAdminRole",
          "type": "bytes32"
        },
        {
          "indexed": true,
          "internalType": "bytes32",
          "name": "newAdminRole",
          "type": "bytes32"
        }
      ],
      "name": "RoleAdminChanged",
      "type": "event"
    },
    {
      "anonymous": false,
      "inputs": [
        {
          "indexed": true,
          "internalType": "bytes32",
          "name": "role",
          "type": "bytes32"
        },
        {
          "indexed": true,
          "internalType": "address",
          "name": "account",
          "type": "address"
        },
        {
          "indexed": true,
          "internalType": "address",
          "name": "sender",
          "type": "address"
        }
      ],
      "name": "RoleGranted",
      "type": "event"
    },
    {
      "anonymous": false,
      "inputs": [
        {
          "indexed": true,
          "internalType": "bytes32",
          "name": "role",
          "type": "bytes32"
        },
        {
          "indexed": true,
          "internalType": "address",
          "name": "account",
          "type": "address"
        },
        {
          "indexed": true,
          "internalType": "address",
          "name": "sender",
          "type": "address"
        }
      ],
      "name": "RoleRevoked",
      "type": "event"
    },
    {
      "anonymous": false,
      "inputs": [
        {
          "indexed": true,
          "internalType": "address",
          "name": "user",
          "type": "address"
        },
        {
          "indexed": false,
          "internalType": "bool",
          "name": "allowed",
          "type": "bool"
        }
      ],
      "name": "UserAllowlistUpdated",
      "type": "event"
    },
    {
      "inputs": [],
      "name": "DEFAULT_ADMIN_ROLE",
      "outputs": [
        {
          "internalType": "bytes32",
          "name": "",
          "type": "bytes32"
        }
      ],
      "stateMutability": "view",
      "type": "function"
    },
    {
      "inputs": [
        {
          "internalType": "bytes32",
          "name": "role",
          "type": "bytes32"
        }
      ],
      "name": "getRoleAdmin",
      "outputs": [
        {
          "internalType": "bytes32",
          "name": "",
          "type": "bytes32"
        }
      ],
      "stateMutability": "view",
      "type": "function"
    },
    {
      "inputs": [
        {
          "internalType": "bytes32",
          "name": "role",
          "type": "bytes32"
        },
        {
          "internalType": "address",
          "name": "account",
          "type": "address"
        }
      ],
      "name": "grantRole",
      "outputs": [],
      "stateMutability": "nonpayable",
      "type": "function"
    },
    {
      "inputs": [
        {
          "internalType": "bytes32",
          "name": "role",
          "type": "bytes32"
        },
        {
          "internalType": "address",
          "name": "account",
          "type": "address"
        }
      ],
      "name": "hasRole",
      "outputs": [
        {
          "internalType": "bool",
          "name": "",
          "type": "bool"
        }
      ],
      "stateMutability": "view",
      "type": "function"
    },
    {
      "inputs": [
        {
          "internalType": "address",
          "name": "caller",
          "type": "address"
        }
      ],
      "name": "isAuthorizedCaller",
      "outputs": [
        {
          "internalType": "bool",
          "name": "",
          "type": "bool"
        }
      ],
      "stateMutability": "view",
      "type": "function"
    },
    {
      "inputs": [
        {
          "internalType": "address",
          "name": "user",
          "type": "address"
        }
      ],
      "name": "isUserAllowed",
      "outputs": [
        {
          "internalType": "bool",
          "name": "",
          "type": "bool"
        }
      ],
      "stateMutability": "view",
      "type": "function"
    },
    {
      "inputs": [
        {
          "internalType": "bytes32",
          "name": "role",
          "type": "bytes32"
        },
        {
          "internalType": "address",
          "name": "callerConfirmation",
          "type": "address"
        }
      ],
      "name": "renounceRole",
      "outputs": [],
      "stateMutability": "nonpayable",
      "type": "function"
    },
    {
      "inputs": [
        {
          "internalType": "bytes32",
          "name": "role",
          "type": "bytes32"
        },
        {
          "internalType": "address",
          "name": "account",
          "type": "address"
        }
      ],
      "name": "revokeRole",
      "outputs": [],
      "stateMutability": "nonpayable",
      "type": "function"
    },
    {
      "inputs": [
        {
          "internalType": "address",
          "name": "caller",
          "type": "address"
        },
        {
          "internalType": "bool",
          "name": "authorized",
          "type": "bool"
        }
      ],
      "name": "setAuthorizedCaller",
      "outputs": [],
      "stateMutability": "nonpayable",
      "type": "function"
    },
    {
      "inputs": [
        {
          "internalType": "address",
          "name": "user",
          "type": "address"
        },
        {
          "internalType": "bool",
          "name": "allowed",
          "type": "bool"
        }
      ],
      "name": "setUserAllowed",
      "outputs": [],
      "stateMutability": "nonpayable",
      "type": "function"
    },
    {
      "inputs": [
        {
          "internalType": "address[]",
          "name": "users",
          "type": "address[]"
        },
        {
          "internalType": "bool[]",
          "name": "allowed",
          "type": "bool[]"
        }
      ],
      "name": "setUsersAllowed",
      "outputs": [],
      "stateMutability": "nonpayable",
      "type": "function"
    },
    {
      "inputs": [
        {
          "internalType": "bytes4",
          "name": "interfaceId",
          "type": "bytes4"
        }
      ],
      "name": "supportsInterface",
      "outputs": [
        {
          "internalType": "bool",
          "name": "",
          "type": "bool"
        }
      ],
      "stateMutability": "view",
      "type": "function"
    }
  ],
  "bytecode": "0x608060405234801561001057600080fd5b5061001c600033610022565b506100ce565b6000828152602081815260408083206001600160a01b038516845290915281205460ff166100c4576000838152602081815260408083206001600160a01b03861684529091529020805460ff1916600117905561007c3390565b6001600160a01b0316826001600160a01b0316847f2f8788117e7eff1d82e926ec794901d17c78024a50270940304540a733656f0d60405160405180910390a45060016100c8565b5060005b92915050565b61097f806100dd6000396000f3fe608060405234801561001057600080fd5b50600436106100b45760003560e01c806359d14b411161007157806359d14b411461016057806391d148541461018c578063a217fddf1461019f578063a52ba4e8146101a7578063d1a81a8d146101ba578063d547741f146101cd57600080fd5b806301ffc9a7146100b9578063248a9ca3146100e15780632f2ff15d1461011257806336568abe146101275780633a47c26b1461013a578063454bbd291461014d575b600080fd5b6100cc6100c7366004610757565b6101e0565b60405190151581526020015b60405180910390f35b6101046100ef366004610788565b60009081526020819052604090206001015490565b6040519081526020016100d8565b6101256101203660046107b8565b610217565b005b6101256101353660046107b8565b610242565b610125610148366004610830565b61027a565b61012561015b3660046108ac565b610422565b6100cc61016e3660046108d6565b6001600160a01b031660009081526002602052604090205460ff1690565b6100cc61019a3660046107b8565b6104dc565b610104600081565b6100cc6101b53660046108d6565b610505565b6101256101c83660046108ac565b61055a565b6101256101db3660046107b8565b6105eb565b60006001600160e01b03198216637965db0b60e01b148061021157506301ffc9a760e01b6001600160e01b03198316145b92915050565b60008281526020819052604090206001015461023281610610565b61023c838361061d565b50505050565b6001600160a01b038116331461026b5760405163334bd91960e11b815260040160405180910390fd5b61027582826106af565b505050565b3360009081526002602052604090205460ff166102b157604051635fd2804d60e01b81523360048201526024015b60405180910390fd5b8281146102f95760405162461bcd60e51b8152602060048201526016602482015275082e4e4c2f2e640d8cadccee8d040dad2e6dac2e8c6d60531b60448201526064016102a8565b60005b8381101561041b57828282818110610316576103166108f1565b905060200201602081019061032b9190610907565b60016000878785818110610341576103416108f1565b905060200201602081019061035691906108d6565b6001600160a01b031681526020810191909152604001600020805460ff1916911515919091179055848482818110610390576103906108f1565b90506020020160208101906103a591906108d6565b6001600160a01b03167fea2c57f30100fac2e0e343554923481a9e3da2adeaa81495b6ff46feeb216ead8484848181106103e1576103e16108f1565b90506020020160208101906103f69190610907565b604051901515815260200160405180910390a28061041381610922565b9150506102fc565b5050505050565b600061042d81610610565b6001600160a01b03831661047c5760405162461bcd60e51b8152602060048201526016602482015275496e76616c69642063616c6c6572206164647265737360501b60448201526064016102a8565b6001600160a01b038316600081815260026020908152604091829020805460ff191686151590811790915591519182527fad857fa38c9319cb80848f1ef2f924383b90297eb5d71755738ff037d100faa1910160405180910390a2505050565b6000918252602082815260408084206001600160a01b0393909316845291905290205460ff1690565b3360009081526002602052604081205460ff1661053757604051635fd2804d60e01b81523360048201526024016102a8565b506001600160a01b03811660009081526001602052604090205460ff165b919050565b3360009081526002602052604090205460ff1661058c57604051635fd2804d60e01b81523360048201526024016102a8565b6001600160a01b038216600081815260016020908152604091829020805460ff191685151590811790915591519182527fea2c57f30100fac2e0e343554923481a9e3da2adeaa81495b6ff46feeb216ead910160405180910390a25050565b60008281526020819052604090206001015461060681610610565b61023c83836106af565b61061a813361071a565b50565b600061062983836104dc565b6106a7576000838152602081815260408083206001600160a01b03861684529091529020805460ff1916600117905561065f3390565b6001600160a01b0316826001600160a01b0316847f2f8788117e7eff1d82e926ec794901d17c78024a50270940304540a733656f0d60405160405180910390a4506001610211565b506000610211565b60006106bb83836104dc565b156106a7576000838152602081815260408083206001600160a01b0386168085529252808320805460ff1916905551339286917ff6391f5c32d9c69d2a47ea670b442974b53935d1edc7fd64eb21e047a839171b9190a4506001610211565b61072482826104dc565b6107535760405163e2517d3f60e01b81526001600160a01b0382166004820152602481018390526044016102a8565b5050565b60006020828403121561076957600080fd5b81356001600160e01b03198116811461078157600080fd5b9392505050565b60006020828403121561079a57600080fd5b5035919050565b80356001600160a01b038116811461055557600080fd5b600080604083850312156107cb57600080fd5b823591506107db602084016107a1565b90509250929050565b60008083601f8401126107f657600080fd5b50813567ffffffffffffffff81111561080e57600080fd5b6020830191508360208260051b850101111561082957600080fd5b9250929050565b6000806000806040858703121561084657600080fd5b843567ffffffffffffffff8082111561085e57600080fd5b61086a888389016107e4565b9096509450602087013591508082111561088357600080fd5b50610890878288016107e4565b95989497509550505050565b8035801515811461055557600080fd5b600080604083850312156108bf57600080fd5b6108c8836107a1565b91506107db6020840161089c565b6000602082840312156108e857600080fd5b610781826107a1565b634e487b7160e01b600052603260045260246000fd5b60006020828403121561091957600080fd5b6107818261089c565b60006001820161094257634e487b7160e01b600052601160045260246000fd5b506001019056fea26469706673582212201a3dd606673a59f4add10b79397df4273ba9c4f92cb4955121641b344347271d64736f6c63430008140033",
  "linkReferences": {},
  "deployedLinkReferences": {}
}