{
  "_format": "hh-sol-artifact-1",
  "contractName": "MockChainlinkAggregator",
  "sourceName": "contracts/mocks/MockChainlinkAggregator.sol",
  "abi": [
    {
      "inputs": [
        {
          "internalType": "int256",
          "name": "initialAnswer",
          "type": "int256"
        },
        {
          "internalType": "uint8",
          "name": "decimals_",
          "type": "uint8"
        }
      ],
      "stateMutability": "nonpayable",
      "type": "constructor"
    },
    {
      "inputs": [],
      "name": "decimals",
      "outputs": [
        {
          "internalType": "uint8",
          "name": "",
          "type": "uint8"
        }
      ],
      "stateMutability": "view",
      "type": "function"
    },
    {
      "inputs": [],
      "name": "description",
      "outputs": [
        {
          "internalType": "string",
          "name": "",
          "type": "string"
        }
      ],
      "stateMutability": "pure",
      "type": "function"
    },
    {
      "inputs": [
        {
          "internalType": "uint80",
          "name": "",
          "type": "uint80"
        }
      ],
      "name": "getRoundData",
      "outputs": [
        {
          "internalType": "uint80",
          "name": "",
          "type": "uint80"
        },
        {
          "internalType": "int256",
          "name": "",
          "type": "int256"
        },
        {
          "internalType": "uint256",
          "name": "",
          "type": "uint256"
        },
        {
          "internalType": "uint256",
          "name": "",
          "type": "uint256"
        },
        {
          "internalType": "uint80",
          "name": "",
          "type": "uint80"
        }
      ],
      "stateMutability": "view",
      "type": "function"
    },
    {
      "inputs": [],
      "name": "latestRoundData",
      "outputs": [
        {
          "internalType": "uint80",
          "name": "",
          "type": "uint80"
        },
        {
          "internalType": "int256",
          "name": "",
          "type": "int256"
        },
        {
          "internalType": "uint256",
          "name": "",
          "type": "uint256"
        },
        {
          "internalType": "uint256",
          "name": "",
          "type": "uint256"
        },
        {
          "internalType": "uint80",
          "name": "",
          "type": "uint80"
        }
      ],
      "stateMutability": "view",
      "type": "function"
    },
    {
      "inputs": [
        {
          "internalType": "int256",
          "name": "newAnswer",
          "type": "int256"
        }
      ],
      "name": "updateAnswer",
      "outputs": [],
      "stateMutability": "nonpayable",
      "type": "function"
    },
    {
      "inputs": [],
      "name": "version",
      "outputs": [
        {
          "internalType": "uint256",
          "name": "",
          "type": "uint256"
        }
      ],
      "stateMutability": "pure",
      "type": "function"
    }
  ],
  "bytecode": "0x608060405234801561001057600080fd5b5060405161035f38038061035f83398101604081905261002f9161005b565b600091909155600180546001600160581b03191660ff9092169190911761010017905542600255610091565b6000806040838503121561006e57600080fd5b82519150602083015160ff8116811461008657600080fd5b809150509250929050565b6102bf806100a06000396000f3fe608060405234801561001057600080fd5b50600436106100625760003560e01c8063313ce5671461006757806354fd4d50146100815780637284e416146100905780639a6fc8f5146100cf578063a87a20ce14610134578063feaf968c14610149575b600080fd5b60015460405160ff90911681526020015b60405180910390f35b60405160018152602001610078565b604080518082018252601981527f4d6f636b20436861696e6c696e6b2041676772656761746f72000000000000006020820152905161007891906101bd565b6101006100dd36600461020b565b506001546000546002546101009092046001600160501b03169290919081908490565b604080516001600160501b03968716815260208101959095528401929092526060830152909116608082015260a001610078565b61014761014236600461023b565b610169565b005b6001546000546002546101009092046001600160501b0316918083610100565b6000819055600180548190819061018f90829061010090046001600160501b0316610254565b92506101000a8154816001600160501b0302191690836001600160501b031602179055504260028190555050565b600060208083528351808285015260005b818110156101ea578581018301518582016040015282016101ce565b506000604082860101526040601f19601f8301168501019250505092915050565b60006020828403121561021d57600080fd5b81356001600160501b038116811461023457600080fd5b9392505050565b60006020828403121561024d57600080fd5b5035919050565b6001600160501b0381811683821601908082111561028257634e487b7160e01b600052601160045260246000fd5b509291505056fea2646970667358221220cf25e8a799aaa731d53e600f9164459005389662d5c340bb54f17f4a091b299a64736f6c63430008140033",
  "linkReferences": {},
  "deployedLinkReferences": {}
}