{
  "_format": "hh-sol-artifact-1",
  "contractName": "MockChainlinkAggregator",
  "sourceName": "contracts/mocks/MockChainlinkAggregator.sol",
  "abi": [
    {
      "inputs": [
        {
          "internalType": "int256",
          "name": "initialAnswer",
          "type": "int256"
        },
        {
          "internalType": "uint8",
          "name": "decimals_",
          "type": "uint8"
        }
      ],
      "stateMutability": "nonpayable",
      "type": "constructor"
    },
    {
      "inputs": [],
      "name": "decimals",
      "outputs": [
        {
          "internalType": "uint8",
          "name": "",
          "type": "uint8"
        }
      ],
      "stateMutability": "view",
      "type": "function"
    },
    {
      "inputs": [],
      "name": "description",
      "outputs": [
        {
          "internalType": "string",
          "name": "",
          "type": "string"
        }
      ],
      "stateMutability": "pure",
      "type": "function"
    },
    {
      "inputs": [
        {
          "internalType": "uint80",
          "name": "",
          "type": "uint80"
        }
      ],
      "name": "getRoundData",
      "outputs": [
        {
          "internalType": "uint80",
          "name": "",
          "type": "uint80"
        },
        {
          "internalType": "int256",
          "name": "",
          "type": "int256"
        },
        {
          "internalType": "uint256",
          "name": "",
          "type": "uint256"
        },
        {
          "internalType": "uint256",
          "name": "",
          "type": "uint256"
        },
        {
          "internalType": "uint80",
          "name": "",
          "type": "uint80"
        }
      ],
      "stateMutability": "view",
      "type": "function"
    },
    {
      "inputs": [],
      "name": "latestRoundData",
      "outputs": [
        {
          "internalType": "uint80",
          "name": "",
          "type": "uint80"
        },
        {
          "internalType": "int256",
          "name": "",
          "type": "int256"
        },
        {
          "internalType": "uint256",
          "name": "",
          "type": "uint256"
        },
        {
          "internalType": "uint256",
          "name": "",
          "type": "uint256"
        },
        {
          "internalType": "uint80",
          "name": "",
          "type": "uint80"
        }
      ],
      "stateMutability": "view",
      "type": "function"
    },
    {
      "inputs": [
        {
          "internalType": "int256",
          "name": "newAnswer",
          "type": "int256"
        }
      ],
      "name": "updateAnswer",
      "outputs": [],
      "stateMutability": "nonpayable",
      "type": "function"
    },
    {
      "inputs": [],
      "name": "version",
      "outputs": [
        {
          "internalType": "uint256",
          "name": "",
          "type": "uint256"
        }
      ],
      "stateMutability": "pure",
      "type": "function"
    }
  ],
  "bytecode": "0x60803461007a57601f61034238819003918201601f19168301916001600160401b0383118484101761007f57808492604094855283398101031261007a576020815191015160ff811680910361007a576101009160005560018060581b0319600154161717600155426002556040516102ac90816100968239f35b600080fd5b634e487b7160e01b600052604160045260246000fdfe60806040818152600436101561001457600080fd5b600091823560e01c908163313ce567146102575750806354fd4d501461023c5780637284e4161461018b5780639a6fc8f514610144578063a87a20ce146100d05763feaf968c1461006457600080fd5b346100cc57816003193601126100cc576001546000546002546100c8939260081c6001600160501b0316919080835b94516001600160501b0394851681526020810193909352604083019190915260608201529116608082015290819060a0820190565b0390f35b5080fd5b82346101415760203660031901126101415760043581556001546001600160501b036001818360081c160190811161012d576affffffffffffffffffff009060081b16906affffffffffffffffffff001916176001554260025580f35b634e487b7160e01b83526011600452602483fd5b80fd5b50346100cc5760203660031901126100cc576004356001600160501b038116036100cc576001546000546002546100c8939260081c6001600160501b031691908083610093565b50346100cc57816003193601126100cc57805181810181811067ffffffffffffffff821117610228578252601981526020907f4d6f636b20436861696e6c696e6b2041676772656761746f72000000000000008282015282519382859384528251928382860152825b84811061021257505050828201840152601f01601f19168101030190f35b81810183015188820188015287955082016101f4565b634e487b7160e01b84526041600452602484fd5b50346100cc57816003193601126100cc576020905160018152f35b8390346100cc57816003193601126100cc5760209060ff600154168152f3fea264697066735822122044c1705f31ab8e4b5d0ab2158b3cdfe47f839758aeea74e499f185b474d2b14f64736f6c63430008140033",
  "linkReferences": {},
  "deployedLinkReferences": {}
}