{
  "_format": "hh-sol-artifact-1",
  "contractName": "AssetShares",
  "sourceName": "contracts/core/AssetShares.sol",
  "abi": [
    {
      "inputs": [
        {
          "internalType": "address",
          "name": "_usdcAddress",
          "type": "address"
        },
        {
          "internalType": "address",
          "name": "_assetVault",
          "type": "address"
        },
        {
          "internalType": "address",
          "name": "_userAllowList",
          "type": "address"
        },
        {
          "internalType": "string",
          "name": "uri",
          "type": "string"
        }
      ],
      "stateMutability": "nonpayable",
      "type": "constructor"
    },
    {
      "inputs": [],
      "name": "AccessControlBadConfirmation",
      "type": "error"
    },
    {
      "inputs": [
        {
          "internalType": "address",
          "name": "account",
          "type": "address"
        },
        {
          "internalType": "bytes32",
          "name": "neededRole",
          "type": "bytes32"
        }
      ],
      "name": "AccessControlUnauthorizedAccount",
      "type": "error"
    },
    {
      "inputs": [
        {
          "internalType": "address",
          "name": "sender",
          "type": "address"
        },
        {
          "internalType": "uint256",
          "name": "balance",
          "type": "uint256"
        },
        {
          "internalType": "uint256",
          "name": "needed",
          "type": "uint256"
        },
        {
          "internalType": "uint256",
          "name": "tokenId",
          "type": "uint256"
        }
      ],
      "name": "ERC1155InsufficientBalance",
      "type": "error"
    },
    {
      "inputs": [
        {
          "internalType": "address",
          "name": "approver",
          "type": "address"
        }
      ],
      "name": "ERC1155InvalidApprover",
      "type": "error"
    },
    {
      "inputs": [
        {
          "internalType": "uint256",
          "name": "idsLength",
          "type": "uint256"
        },
        {
          "internalType": "uint256",
          "name": "valuesLength",
          "type": "uint256"
        }
      ],
      "name": "ERC1155InvalidArrayLength",
      "type": "error"
    },
    {
      "inputs": [
        {
          "internalType": "address",
          "name": "operator",
          "type": "address"
        }
      ],
      "name": "ERC1155InvalidOperator",
      "type": "error"
    },
    {
      "inputs": [
        {
          "internalType": "address",
          "name": "receiver",
          "type": "address"
        }
      ],
      "name": "ERC1155InvalidReceiver",
      "type": "error"
    },
    {
      "inputs": [
        {
          "internalType": "address",
          "name": "sender",
          "type": "address"
        }
      ],
      "name": "ERC1155InvalidSender",
      "type": "error"
    },
    {
      "inputs": [
        {
          "internalType": "address",
          "name": "operator",
          "type": "address"
        },
        {
          "internalType": "address",
          "name": "owner",
          "type": "address"
        }
      ],
      "name": "ERC1155MissingApprovalForAll",
      "type": "error"
    },
    {
      "inputs": [],
      "name": "EnforcedPause",
      "type": "error"
    },
    {
      "inputs": [],
      "name": "ExpectedPause",
      "type": "error"
    },
    {
      "inputs": [],
      "name": "ReentrancyGuardReentrantCall",
      "type": "error"
    },
    {
      "anonymous": false,
      "inputs": [
        {
          "indexed": true,
          "internalType": "address",
          "name": "account",
          "type": "address"
        },
        {
          "indexed": true,
          "internalType": "address",
          "name": "operator",
          "type": "address"
        },
        {
          "indexed": false,
          "internalType": "bool",
          "name": "approved",
          "type": "bool"
        }
      ],
      "name": "ApprovalForAll",
      "type": "event"
    },
    {
      "anonymous": false,
      "inputs": [
        {
          "indexed": true,
          "internalType": "uint256",
          "name": "assetId",
          "type": "uint256"
        },
        {
          "indexed": false,
          "internalType": "uint256",
          "name": "totalShares",
          "type": "uint256"
        },
        {
          "indexed": false,
          "internalType": "uint256",
          "name": "sharePrice",
          "type": "uint256"
        },
        {
          "indexed": false,
          "internalType": "uint256",
          "name": "createdAt",
          "type": "uint256"
        }
      ],
      "name": "AssetSharesCreated",
      "type": "event"
    },
    {
      "anonymous": false,
      "inputs": [
        {
          "indexed": true,
          "internalType": "address",
          "name": "from",
          "type": "address"
        },
        {
          "indexed": true,
          "internalType": "address",
          "name": "to",
          "type": "address"
        },
        {
          "indexed": true,
          "internalType": "uint256",
          "name": "tokenId",
          "type": "uint256"
        },
        {
          "indexed": false,
          "internalType": "uint256",
          "name": "amount",
          "type": "uint256"
        }
      ],
      "name": "ForcedTransfer",
      "type": "event"
    },
    {
      "anonymous": false,
      "inputs": [
        {
          "indexed": true,
          "internalType": "address",
          "name": "user",
          "type": "address"
        },
        {
          "indexed": true,
          "internalType": "uint256",
          "name": "tokenId",
          "type": "uint256"
        },
        {
          "indexed": false,
          "internalType": "uint256",
          "name": "amount",
          "type": "uint256"
        }
      ],
      "name": "Frozen",
      "type": "event"
    },
    {
      "anonymous": false,
      "inputs": [
        {
          "indexed": false,
          "internalType": "address",
          "name": "account",
          "type": "address"
        }
      ],
      "name": "Paused",
      "type": "event"
    },
    {
      "anonymous": false,
      "inputs": [
        {
          "indexed": true,
          "internalType": "address",
          "name": "pauser",
          "type": "address"
        }
      ],
      "name": "PauserSet",
      "type": "event"
    },
    {
      "anonymous": false,
      "inputs": [
        {
          "indexed": true,
          "internalType": "bytes32",
          "name": "role",
          "type": "bytes32"
        },
        {
          "indexed": true,
          "internalType": "bytes32",
          "name": "previousAdminRole",
          "type": "bytes32"
        },
        {
          "indexed": true,
          "internalType": "bytes32",
          "name": "newAdminRole",
          "type": "bytes32"
        }
      ],
      "name": "RoleAdminChanged",
      "type": "event"
    },
    {
      "anonymous": false,
      "inputs": [
        {
          "indexed": true,
          "internalType": "bytes32",
          "name": "role",
          "type": "bytes32"
        },
        {
          "indexed": true,
          "internalType": "address",
          "name": "account",
          "type": "address"
        },
        {
          "indexed": true,
          "internalType": "address",
          "name": "sender",
          "type": "address"
        }
      ],
      "name": "RoleGranted",
      "type": "event"
    },
    {
      "anonymous": false,
      "inputs": [
        {
          "indexed": true,
          "internalType": "bytes32",
          "name": "role",
          "type": "bytes32"
        },
        {
          "indexed": true,
          "internalType": "address",
          "name": "account",
          "type": "address"
        },
        {
          "indexed": true,
          "internalType": "address",
          "name": "sender",
          "type": "address"
        }
      ],
      "name": "RoleRevoked",
      "type": "event"
    },
    {
      "anonymous": false,
      "inputs": [
        {
          "indexed": true,
          "internalType": "uint256",
          "name": "assetId",
          "type": "uint256"
        },
        {
          "indexed": false,
          "internalType": "uint256",
          "name": "oldPrice",
          "type": "uint256"
        },
        {
          "indexed": false,
          "internalType": "uint256",
          "name": "newPrice",
          "type": "uint256"
        },
        {
          "indexed": false,
          "internalType": "uint256",
          "name": "updatedAt",
          "type": "uint256"
        }
      ],
      "name": "SharePriceUpdated",
      "type": "event"
    },
    {
      "anonymous": false,
      "inputs": [
        {
          "indexed": true,
          "internalType": "address",
          "name": "buyer",
          "type": "address"
        },
        {
          "indexed": true,
          "internalType": "uint256",
          "name": "assetId",
          "type": "uint256"
        },
        {
          "indexed": false,
          "internalType": "uint256",
          "name": "amount",
          "type": "uint256"
        },
        {
          "indexed": false,
          "internalType": "uint256",
          "name": "pricePerShare",
          "type": "uint256"
        },
        {
          "indexed": false,
          "internalType": "uint256",
          "name": "totalCost",
          "type": "uint256"
        }
      ],
      "name": "SharesPurchased",
      "type": "event"
    },
    {
      "anonymous": false,
      "inputs": [
        {
          "indexed": true,
          "internalType": "address",
          "name": "seller",
          "type": "address"
        },
        {
          "indexed": true,
          "internalType": "address",
          "name": "buyer",
          "type": "address"
        },
        {
          "indexed": true,
          "internalType": "uint256",
          "name": "assetId",
          "type": "uint256"
        },
        {
          "indexed": false,
          "internalType": "uint256",
          "name": "amount",
          "type": "uint256"
        },
        {
          "indexed": false,
          "internalType": "uint256",
          "name": "pricePerShare",
          "type": "uint256"
        }
      ],
      "name": "SharesTraded",
      "type": "event"
    },
    {
      "anonymous": false,
      "inputs": [
        {
          "indexed": true,
          "internalType": "uint256",
          "name": "assetId",
          "type": "uint256"
        },
        {
          "indexed": false,
          "internalType": "bool",
          "name": "enabled",
          "type": "bool"
        }
      ],
      "name": "TradingStatusChanged",
      "type": "event"
    },
    {
      "anonymous": false,
      "inputs": [
        {
          "indexed": true,
          "internalType": "address",
          "name": "operator",
          "type": "address"
        },
        {
          "indexed": true,
          "internalType": "address",
          "name": "from",
          "type": "address"
        },
        {
          "indexed": true,
          "internalType": "address",
          "name": "to",
          "type": "address"
        },
        {
          "indexed": false,
          "internalType": "uint256[]",
          "name": "ids",
          "type": "uint256[]"
        },
        {
          "indexed": false,
          "internalType": "uint256[]",
          "name": "values",
          "type": "uint256[]"
        }
      ],
      "name": "TransferBatch",
      "type": "event"
    },
    {
      "anonymous": false,
      "inputs": [
        {
          "indexed": true,
          "internalType": "address",
          "name": "operator",
          "type": "address"
        },
        {
          "indexed": true,
          "internalType": "address",
          "name": "from",
          "type": "address"
        },
        {
          "indexed": true,
          "internalType": "address",
          "name": "to",
          "type": "address"
        },
        {
          "indexed": false,
          "internalType": "uint256",
          "name": "id",
          "type": "uint256"
        },
        {
          "indexed": false,
          "internalType": "uint256",
          "name": "value",
          "type": "uint256"
        }
      ],
      "name": "TransferSingle",
      "type": "event"
    },
    {
      "anonymous": false,
      "inputs": [
        {
          "indexed": false,
          "internalType": "string",
          "name": "value",
          "type": "string"
        },
        {
          "indexed": true,
          "internalType": "uint256",
          "name": "id",
          "type": "uint256"
        }
      ],
      "name": "URI",
      "type": "event"
    },
    {
      "anonymous": false,
      "inputs": [
        {
          "indexed": false,
          "internalType": "address",
          "name": "account",
          "type": "address"
        }
      ],
      "name": "Unpaused",
      "type": "event"
    },
    {
      "inputs": [],
      "name": "ASSET_MANAGER_ROLE",
      "outputs": [
        {
          "internalType": "bytes32",
          "name": "",
          "type": "bytes32"
        }
      ],
      "stateMutability": "view",
      "type": "function"
    },
    {
      "inputs": [],
      "name": "COMPLIANCE_OFFICER_ROLE",
      "outputs": [
        {
          "internalType": "bytes32",
          "name": "",
          "type": "bytes32"
        }
      ],
      "stateMutability": "view",
      "type": "function"
    },
    {
      "inputs": [],
      "name": "DEFAULT_ADMIN_ROLE",
      "outputs": [
        {
          "internalType": "bytes32",
          "name": "",
          "type": "bytes32"
        }
      ],
      "stateMutability": "view",
      "type": "function"
    },
    {
      "inputs": [],
      "name": "MINTER_ROLE",
      "outputs": [
        {
          "internalType": "bytes32",
          "name": "",
          "type": "bytes32"
        }
      ],
      "stateMutability": "view",
      "type": "function"
    },
    {
      "inputs": [],
      "name": "PAUSER_ROLE",
      "outputs": [
        {
          "internalType": "bytes32",
          "name": "",
          "type": "bytes32"
        }
      ],
      "stateMutability": "view",
      "type": "function"
    },
    {
      "inputs": [],
      "name": "USDC",
      "outputs": [
        {
          "internalType": "contract IERC20",
          "name": "",
          "type": "address"
        }
      ],
      "stateMutability": "view",
      "type": "function"
    },
    {
      "inputs": [],
      "name": "assetVault",
      "outputs": [
        {
          "internalType": "address",
          "name": "",
          "type": "address"
        }
      ],
      "stateMutability": "view",
      "type": "function"
    },
    {
      "inputs": [
        {
          "internalType": "address",
          "name": "account",
          "type": "address"
        },
        {
          "internalType": "uint256",
          "name": "id",
          "type": "uint256"
        }
      ],
      "name": "balanceOf",
      "outputs": [
        {
          "internalType": "uint256",
          "name": "",
          "type": "uint256"
        }
      ],
      "stateMutability": "view",
      "type": "function"
    },
    {
      "inputs": [
        {
          "internalType": "address[]",
          "name": "accounts",
          "type": "address[]"
        },
        {
          "internalType": "uint256[]",
          "name": "ids",
          "type": "uint256[]"
        }
      ],
      "name": "balanceOfBatch",
      "outputs": [
        {
          "internalType": "uint256[]",
          "name": "",
          "type": "uint256[]"
        }
      ],
      "stateMutability": "view",
      "type": "function"
    },
    {
      "inputs": [
        {
          "internalType": "address",
          "name": "user",
          "type": "address"
        },
        {
          "internalType": "uint256",
          "name": "tokenId",
          "type": "uint256"
        },
        {
          "internalType": "uint256",
          "name": "amount",
          "type": "uint256"
        }
      ],
      "name": "canTransact",
      "outputs": [
        {
          "internalType": "bool",
          "name": "",
          "type": "bool"
        }
      ],
      "stateMutability": "view",
      "type": "function"
    },
    {
      "inputs": [
        {
          "internalType": "address",
          "name": "from",
          "type": "address"
        },
        {
          "internalType": "address",
          "name": "to",
          "type": "address"
        },
        {
          "internalType": "uint256",
          "name": "tokenId",
          "type": "uint256"
        },
        {
          "internalType": "uint256",
          "name": "amount",
          "type": "uint256"
        }
      ],
      "name": "canTransfer",
      "outputs": [
        {
          "internalType": "bool",
          "name": "",
          "type": "bool"
        }
      ],
      "stateMutability": "view",
      "type": "function"
    },
    {
      "inputs": [
        {
          "internalType": "uint256",
          "name": "assetId",
          "type": "uint256"
        },
        {
          "internalType": "uint256",
          "name": "totalSupply_",
          "type": "uint256"
        },
        {
          "internalType": "uint256",
          "name": "sharePrice_",
          "type": "uint256"
        }
      ],
      "name": "createAssetShares",
      "outputs": [],
      "stateMutability": "nonpayable",
      "type": "function"
    },
    {
      "inputs": [
        {
          "internalType": "address",
          "name": "from",
          "type": "address"
        },
        {
          "internalType": "address",
          "name": "to",
          "type": "address"
        },
        {
          "internalType": "uint256",
          "name": "tokenId",
          "type": "uint256"
        },
        {
          "internalType": "uint256",
          "name": "amount",
          "type": "uint256"
        }
      ],
      "name": "forcedTransfer",
      "outputs": [],
      "stateMutability": "nonpayable",
      "type": "function"
    },
    {
      "inputs": [
        {
          "internalType": "uint256",
          "name": "assetId",
          "type": "uint256"
        }
      ],
      "name": "getAssetShares",
      "outputs": [
        {
          "internalType": "uint256",
          "name": "totalSupply_",
          "type": "uint256"
        },
        {
          "internalType": "uint256",
          "name": "availableSupply_",
          "type": "uint256"
        },
        {
          "internalType": "uint256",
          "name": "sharePrice_",
          "type": "uint256"
        },
        {
          "internalType": "bool",
          "name": "tradingEnabled_",
          "type": "bool"
        }
      ],
      "stateMutability": "view",
      "type": "function"
    },
    {
      "inputs": [
        {
          "internalType": "address",
          "name": "user",
          "type": "address"
        },
        {
          "internalType": "uint256",
          "name": "tokenId",
          "type": "uint256"
        }
      ],
      "name": "getFrozenTokens",
      "outputs": [
        {
          "internalType": "uint256",
          "name": "",
          "type": "uint256"
        }
      ],
      "stateMutability": "view",
      "type": "function"
    },
    {
      "inputs": [
        {
          "internalType": "bytes32",
          "name": "role",
          "type": "bytes32"
        }
      ],
      "name": "getRoleAdmin",
      "outputs": [
        {
          "internalType": "bytes32",
          "name": "",
          "type": "bytes32"
        }
      ],
      "stateMutability": "view",
      "type": "function"
    },
    {
      "inputs": [
        {
          "internalType": "address",
          "name": "user",
          "type": "address"
        },
        {
          "internalType": "uint256",
          "name": "assetId",
          "type": "uint256"
        }
      ],
      "name": "getUserShares",
      "outputs": [
        {
          "internalType": "uint256",
          "name": "totalSupply_",
          "type": "uint256"
        },
        {
          "internalType": "uint256",
          "name": "availableSupply_",
          "type": "uint256"
        },
        {
          "internalType": "uint256",
          "name": "sharePrice_",
          "type": "uint256"
        },
        {
          "internalType": "bool",
          "name": "tradingEnabled_",
          "type": "bool"
        },
        {
          "internalType": "uint256",
          "name": "balance_",
          "type": "uint256"
        },
        {
          "internalType": "uint256",
          "name": "frozen_",
          "type": "uint256"
        },
        {
          "internalType": "uint256",
          "name": "unfrozen_",
          "type": "uint256"
        },
        {
          "internalType": "uint256",
          "name": "recordedPurchasePrice_",
          "type": "uint256"
        }
      ],
      "stateMutability": "view",
      "type": "function"
    },
    {
      "inputs": [
        {
          "internalType": "bytes32",
          "name": "role",
          "type": "bytes32"
        },
        {
          "internalType": "address",
          "name": "account",
          "type": "address"
        }
      ],
      "name": "grantRole",
      "outputs": [],
      "stateMutability": "nonpayable",
      "type": "function"
    },
    {
      "inputs": [
        {
          "internalType": "bytes32",
          "name": "role",
          "type": "bytes32"
        },
        {
          "internalType": "address",
          "name": "account",
          "type": "address"
        }
      ],
      "name": "hasRole",
      "outputs": [
        {
          "internalType": "bool",
          "name": "",
          "type": "bool"
        }
      ],
      "stateMutability": "view",
      "type": "function"
    },
    {
      "inputs": [
        {
          "internalType": "address",
          "name": "account",
          "type": "address"
        },
        {
          "internalType": "address",
          "name": "operator",
          "type": "address"
        }
      ],
      "name": "isApprovedForAll",
      "outputs": [
        {
          "internalType": "bool",
          "name": "",
          "type": "bool"
        }
      ],
      "stateMutability": "view",
      "type": "function"
    },
    {
      "inputs": [
        {
          "internalType": "address",
          "name": "user",
          "type": "address"
        }
      ],
      "name": "isUserAllowed",
      "outputs": [
        {
          "internalType": "bool",
          "name": "",
          "type": "bool"
        }
      ],
      "stateMutability": "view",
      "type": "function"
    },
    {
      "inputs": [
        {
          "internalType": "address",
          "name": "",
          "type": "address"
        },
        {
          "internalType": "address",
          "name": "",
          "type": "address"
        },
        {
          "internalType": "uint256[]",
          "name": "",
          "type": "uint256[]"
        },
        {
          "internalType": "uint256[]",
          "name": "",
          "type": "uint256[]"
        },
        {
          "internalType": "bytes",
          "name": "",
          "type": "bytes"
        }
      ],
      "name": "onERC1155BatchReceived",
      "outputs": [
        {
          "internalType": "bytes4",
          "name": "",
          "type": "bytes4"
        }
      ],
      "stateMutability": "pure",
      "type": "function"
    },
    {
      "inputs": [
        {
          "internalType": "address",
          "name": "",
          "type": "address"
        },
        {
          "internalType": "address",
          "name": "",
          "type": "address"
        },
        {
          "internalType": "uint256",
          "name": "",
          "type": "uint256"
        },
        {
          "internalType": "uint256",
          "name": "",
          "type": "uint256"
        },
        {
          "internalType": "bytes",
          "name": "",
          "type": "bytes"
        }
      ],
      "name": "onERC1155Received",
      "outputs": [
        {
          "internalType": "bytes4",
          "name": "",
          "type": "bytes4"
        }
      ],
      "stateMutability": "pure",
      "type": "function"
    },
    {
      "inputs": [],
      "name": "pause",
      "outputs": [],
      "stateMutability": "nonpayable",
      "type": "function"
    },
    {
      "inputs": [],
      "name": "paused",
      "outputs": [
        {
          "internalType": "bool",
          "name": "",
          "type": "bool"
        }
      ],
      "stateMutability": "view",
      "type": "function"
    },
    {
      "inputs": [],
      "name": "pauser",
      "outputs": [
        {
          "internalType": "address",
          "name": "",
          "type": "address"
        }
      ],
      "stateMutability": "view",
      "type": "function"
    },
    {
      "inputs": [
        {
          "internalType": "address",
          "name": "",
          "type": "address"
        },
        {
          "internalType": "uint256",
          "name": "",
          "type": "uint256"
        }
      ],
      "name": "purchasePrice",
      "outputs": [
        {
          "internalType": "uint256",
          "name": "",
          "type": "uint256"
        }
      ],
      "stateMutability": "view",
      "type": "function"
    },
    {
      "inputs": [
        {
          "internalType": "uint256",
          "name": "assetId",
          "type": "uint256"
        },
        {
          "internalType": "uint256",
          "name": "amount",
          "type": "uint256"
        }
      ],
      "name": "purchaseShares",
      "outputs": [],
      "stateMutability": "nonpayable",
      "type": "function"
    },
    {
      "inputs": [
        {
          "internalType": "bytes32",
          "name": "role",
          "type": "bytes32"
        },
        {
          "internalType": "address",
          "name": "callerConfirmation",
          "type": "address"
        }
      ],
      "name": "renounceRole",
      "outputs": [],
      "stateMutability": "nonpayable",
      "type": "function"
    },
    {
      "inputs": [
        {
          "internalType": "bytes32",
          "name": "role",
          "type": "bytes32"
        },
        {
          "internalType": "address",
          "name": "account",
          "type": "address"
        }
      ],
      "name": "revokeRole",
      "outputs": [],
      "stateMutability": "nonpayable",
      "type": "function"
    },
    {
      "inputs": [
        {
          "internalType": "address",
          "name": "from",
          "type": "address"
        },
        {
          "internalType": "address",
          "name": "to",
          "type": "address"
        },
        {
          "internalType": "uint256[]",
          "name": "ids",
          "type": "uint256[]"
        },
        {
          "internalType": "uint256[]",
          "name": "values",
          "type": "uint256[]"
        },
        {
          "internalType": "bytes",
          "name": "data",
          "type": "bytes"
        }
      ],
      "name": "safeBatchTransferFrom",
      "outputs": [],
      "stateMutability": "nonpayable",
      "type": "function"
    },
    {
      "inputs": [
        {
          "internalType": "address",
          "name": "from",
          "type": "address"
        },
        {
          "internalType": "address",
          "name": "to",
          "type": "address"
        },
        {
          "internalType": "uint256",
          "name": "id",
          "type": "uint256"
        },
        {
          "internalType": "uint256",
          "name": "value",
          "type": "uint256"
        },
        {
          "internalType": "bytes",
          "name": "data",
          "type": "bytes"
        }
      ],
      "name": "safeTransferFrom",
      "outputs": [],
      "stateMutability": "nonpayable",
      "type": "function"
    },
    {
      "inputs": [
        {
          "internalType": "address",
          "name": "operator",
          "type": "address"
        },
        {
          "internalType": "bool",
          "name": "approved",
          "type": "bool"
        }
      ],
      "name": "setApprovalForAll",
      "outputs": [],
      "stateMutability": "nonpayable",
      "type": "function"
    },
    {
      "inputs": [
        {
          "internalType": "address",
          "name": "user",
          "type": "address"
        },
        {
          "internalType": "uint256",
          "name": "tokenId",
          "type": "uint256"
        },
        {
          "internalType": "uint256",
          "name": "amount",
          "type": "uint256"
        }
      ],
      "name": "setFrozenTokens",
      "outputs": [],
      "stateMutability": "nonpayable",
      "type": "function"
    },
    {
      "inputs": [
        {
          "internalType": "address",
          "name": "_pauser",
          "type": "address"
        }
      ],
      "name": "setPauser",
      "outputs": [],
      "stateMutability": "nonpayable",
      "type": "function"
    },
    {
      "inputs": [
        {
          "internalType": "uint256",
          "name": "assetId",
          "type": "uint256"
        },
        {
          "internalType": "bool",
          "name": "enabled",
          "type": "bool"
        }
      ],
      "name": "setTradingEnabled",
      "outputs": [],
      "stateMutability": "nonpayable",
      "type": "function"
    },
    {
      "inputs": [
        {
          "internalType": "address",
          "name": "user",
          "type": "address"
        },
        {
          "internalType": "bool",
          "name": "allowed",
          "type": "bool"
        }
      ],
      "name": "setUserAllowed",
      "outputs": [],
      "stateMutability": "nonpayable",
      "type": "function"
    },
    {
      "inputs": [
        {
          "internalType": "uint256",
          "name": "",
          "type": "uint256"
        }
      ],
      "name": "shareInfo",
      "outputs": [
        {
          "internalType": "uint256",
          "name": "totalSupply",
          "type": "uint256"
        },
        {
          "internalType": "uint256",
          "name": "availableSupply",
          "type": "uint256"
        },
        {
          "internalType": "uint256",
          "name": "sharePrice",
          "type": "uint256"
        },
        {
          "internalType": "bool",
          "name": "tradingEnabled",
          "type": "bool"
        },
        {
          "internalType": "uint256",
          "name": "createdAt",
          "type": "uint256"
        },
        {
          "internalType": "uint256",
          "name": "updatedAt",
          "type": "uint256"
        }
      ],
      "stateMutability": "view",
      "type": "function"
    },
    {
      "inputs": [
        {
          "internalType": "bytes4",
          "name": "interfaceId",
          "type": "bytes4"
        }
      ],
      "name": "supportsInterface",
      "outputs": [
        {
          "internalType": "bool",
          "name": "",
          "type": "bool"
        }
      ],
      "stateMutability": "view",
      "type": "function"
    },
    {
      "inputs": [
        {
          "internalType": "uint256",
          "name": "assetId",
          "type": "uint256"
        },
        {
          "internalType": "address",
          "name": "seller",
          "type": "address"
        },
        {
          "internalType": "uint256",
          "name": "amount",
          "type": "uint256"
        },
        {
          "internalType": "uint256",
          "name": "pricePerShare",
          "type": "uint256"
        }
      ],
      "name": "tradeShares",
      "outputs": [],
      "stateMutability": "nonpayable",
      "type": "function"
    },
    {
      "inputs": [],
      "name": "unpause",
      "outputs": [],
      "stateMutability": "nonpayable",
      "type": "function"
    },
    {
      "inputs": [
        {
          "internalType": "uint256",
          "name": "assetId",
          "type": "uint256"
        },
        {
          "internalType": "uint256",
          "name": "newPrice",
          "type": "uint256"
        }
      ],
      "name": "updateSharePrice",
      "outputs": [],
      "stateMutability": "nonpayable",
      "type": "function"
    },
    {
      "inputs": [
        {
          "internalType": "uint256",
          "name": "",
          "type": "uint256"
        }
      ],
      "name": "uri",
      "outputs": [
        {
          "internalType": "string",
          "name": "",
          "type": "string"
        }
      ],
      "stateMutability": "view",
      "type": "function"
    },
    {
      "inputs": [],
      "name": "userAllowList",
      "outputs": [
        {
          "internalType": "contract AssetUserAllowList",
          "name": "",
          "type": "address"
        }
      ],
      "stateMutability": "view",
      "type": "function"
    }
  ],
  "bytecode": "0x60e06040523480156200001157600080fd5b50604051620036a2380380620036a2833981016040819052620000349162000302565b8062000040816200020a565b5060016004556001600160a01b038416620000a25760405162461bcd60e51b815260206004820152601460248201527f496e76616c69642055534443206164647265737300000000000000000000000060448201526064015b60405180910390fd5b6001600160a01b038316620000fa5760405162461bcd60e51b815260206004820152601960248201527f496e76616c69642070726f706572747920636f6e747261637400000000000000604482015260640162000099565b6001600160a01b038216620001525760405162461bcd60e51b815260206004820152601960248201527f496e76616c696420616c6c6f776c697374206164647265737300000000000000604482015260640162000099565b6001600160a01b0380851660805283811660a052821660c052620001786000336200021c565b50620001a57fb1fadd3142ab2ad7f1337ea4d97112bcc8337fc11ce5b20cb04ad038adf99819336200021c565b50620001d27fb6f0283bd1ed00c6aa7e988a7516070240f3610a34d167391359b648eb37cefc336200021c565b50620001ff7f9f2df0fed2c77648de5860a4cc508cd0818c85b8b8a1ab4ceeef8d981c8956a6846200021c565b50505050506200056a565b60026200021882826200049e565b5050565b60008281526003602090815260408083206001600160a01b038516845290915281205460ff16620002c55760008381526003602090815260408083206001600160a01b03861684529091529020805460ff191660011790556200027c3390565b6001600160a01b0316826001600160a01b0316847f2f8788117e7eff1d82e926ec794901d17c78024a50270940304540a733656f0d60405160405180910390a4506001620002c9565b5060005b92915050565b80516001600160a01b0381168114620002e757600080fd5b919050565b634e487b7160e01b600052604160045260246000fd5b600080600080608085870312156200031957600080fd5b6200032485620002cf565b9350602062000335818701620002cf565b93506200034560408701620002cf565b60608701519093506001600160401b03808211156200036357600080fd5b818801915088601f8301126200037857600080fd5b8151818111156200038d576200038d620002ec565b604051601f8201601f19908116603f01168101908382118183101715620003b857620003b8620002ec565b816040528281528b86848701011115620003d157600080fd5b600093505b82841015620003f55784840186015181850187015292850192620003d6565b600086848301015280965050505050505092959194509250565b600181811c908216806200042457607f821691505b6020821081036200044557634e487b7160e01b600052602260045260246000fd5b50919050565b601f8211156200049957600081815260208120601f850160051c81016020861015620004745750805b601f850160051c820191505b81811015620004955782815560010162000480565b5050505b505050565b81516001600160401b03811115620004ba57620004ba620002ec565b620004d281620004cb84546200040f565b846200044b565b602080601f8311600181146200050a5760008415620004f15750858301515b600019600386901b1c1916600185901b17855562000495565b600085815260208120601f198616915b828110156200053b578886015182559484019460019091019084016200051a565b50858210156200055a5787850151600019600388901b60f8161c191681555b5050505050600190811b01905550565b60805160a05160c0516130c2620005e0600039600081816102c601528181610acc01528181610b9e0152818161130a0152818161144b015281816114de015281816115e3015281816119ac0152611a320152600061076101526000818161045d01528181610ebc0152611c1501526130c26000f3fe608060405234801561001057600080fd5b50600436106102735760003560e01c8063a02ff68511610151578063d1a81a8d116100c3578063e63ab1e911610087578063e63ab1e914610702578063e985e9c514610717578063f23a6e611461072a578063f242432a14610749578063f61ebc361461075c578063ff6e708c1461078357600080fd5b8063d1a81a8d14610654578063d2bcdc6014610667578063d53913931461067a578063d547741f146106a1578063ddd9d045146106b457600080fd5b8063adacd48711610115578063adacd48714610512578063aeedb37914610588578063b62100af1461059b578063bc197c81146105ae578063bd456f5c146105e6578063bf59d29b146105f957600080fd5b8063a02ff685146104aa578063a217fddf146104bd578063a22cb465146104c5578063a4b32de8146104d8578063a52ba4e8146104ff57600080fd5b80632f2ff15d116101ea5780636b5e796b116101ae5780636b5e796b146104125780636d720c061461043d5780638456cb591461045057806389a302711461045857806391d148541461047f5780639fd0506d1461049257600080fd5b80632f2ff15d146103b957806336568abe146103cc5780633f4ba83a146103df5780634e1273f4146103e75780635c975abb1461040757600080fd5b8063198596b51161023c578063198596b5146103355780631b1da1af1461034a57806320fa6e061461035d578063248a9ca3146103705780632d88af4a146103935780632eb2c2d6146103a657600080fd5b8062fdd58e1461027857806301ffc9a71461029e5780630ad5b98c146102c15780630e89341c1461030057806318d308d014610320575b600080fd5b61028b61028636600461283f565b6107b9565b6040519081526020015b60405180910390f35b6102b16102ac36600461287f565b6107e1565b6040519015158152602001610295565b6102e87f000000000000000000000000000000000000000000000000000000000000000081565b6040516001600160a01b039091168152602001610295565b61031361030e36600461289c565b6107fb565b60405161029591906128fb565b61033361032e36600461290e565b61088f565b005b61028b60008051602061304d83398151915281565b610333610358366004612950565b61097f565b61033361036b366004612972565b610aa7565b61028b61037e36600461289c565b60009081526003602052604090206001015490565b6103336103a1366004612998565b610fff565b6103336103b4366004612af9565b61112c565b6103336103c7366004612ba3565b611193565b6103336103da366004612ba3565b6111b8565b6103336111f0565b6103fa6103f5366004612bcf565b611213565b6040516102959190612cca565b60055460ff166102b1565b61028b61042036600461283f565b600860209081526000928352604080842090915290825290205481565b6102b161044b366004612cdd565b6112e8565b6103336113de565b6102e87f000000000000000000000000000000000000000000000000000000000000000081565b6102b161048d366004612ba3565b6113fe565b6005546102e89061010090046001600160a01b031681565b6102b16104b836600461290e565b611429565b61028b600081565b6103336104d3366004612d1e565b6115b2565b61028b7fb1fadd3142ab2ad7f1337ea4d97112bcc8337fc11ce5b20cb04ad038adf9981981565b6102b161050d366004612998565b6115c1565b61055961052036600461289c565b60066020526000908152604090208054600182015460028301546003840154600485015460059095015493949293919260ff9091169186565b6040805196875260208701959095529385019290925215156060840152608083015260a082015260c001610295565b610333610596366004612d55565b611650565b6103336105a9366004612d81565b611845565b6105cd6105bc366004612af9565b63bc197c8160e01b95945050505050565b6040516001600160e01b03199091168152602001610295565b6103336105f4366004612cdd565b6118f5565b61063261060736600461289c565b6000908152600660205260409020805460018201546002830154600390930154919390929160ff1690565b6040805194855260208501939093529183015215156060820152608001610295565b610333610662366004612d1e565b61196d565b610333610675366004612950565b611a0d565b61028b7f9f2df0fed2c77648de5860a4cc508cd0818c85b8b8a1ab4ceeef8d981c8956a681565b6103336106af366004612ba3565b611d7b565b6106c76106c236600461283f565b611da0565b604080519889526020890197909752958701949094529115156060860152608085015260a084015260c083015260e082015261010001610295565b61028b60008051602061306d83398151915281565b6102b1610725366004612da6565b611e84565b6105cd610738366004612dd0565b63f23a6e6160e01b95945050505050565b610333610757366004612dd0565b611eb2565b6102e87f000000000000000000000000000000000000000000000000000000000000000081565b61028b61079136600461283f565b6001600160a01b03919091166000908152600760209081526040808320938352929052205490565b6000818152602081815260408083206001600160a01b03861684529091529020545b92915050565b60006107ec82611f11565b806107db57506107db82611f61565b60606002805461080a90612e35565b80601f016020809104026020016040519081016040528092919081815260200182805461083690612e35565b80156108835780601f1061085857610100808354040283529160200191610883565b820191906000526020600020905b81548152906001019060200180831161086657829003601f168201915b50505050509050919050565b60008051602061304d8339815191526108a781611f86565b6108af611f90565b816108ba86856107b9565b10156109045760405162461bcd60e51b8152602060048201526014602482015273496e73756666696369656e742062616c616e636560601b60448201526064015b60405180910390fd5b6109208585858560405180602001604052806000815250611fba565b82846001600160a01b0316866001600160a01b03167fa7f01abbf5b7ec7bac7fb74feb5c1f54af9e430f18a33681c1b9149875339a458560405161096691815260200190565b60405180910390a46109786001600455565b5050505050565b7fb1fadd3142ab2ad7f1337ea4d97112bcc8337fc11ce5b20cb04ad038adf998196109a981611f86565b6000838152600660205260409020546109d45760405162461bcd60e51b81526004016108fb90612e6f565b600083815260066020526040902060020154808303610a465760405162461bcd60e51b815260206004820152602860248201527f4e6577207072696365206d757374206469666665722066726f6d2063757272656044820152676e7420707269636560c01b60648201526084016108fb565b6000848152600660209081526040918290206002018590558151838152908101859052429181019190915284907f3180bc850607139589b517b4f1480820c2973c955706dcf81d3a20de03670ddc906060015b60405180910390a250505050565b610aaf611f90565b610ab761203f565b6040516314a5749d60e31b81523360048201527f00000000000000000000000000000000000000000000000000000000000000006001600160a01b03169063a52ba4e890602401602060405180830381865afa158015610b1b573d6000803e3d6000fd5b505050506040513d601f19601f82011682018060405250810190610b3f9190612e9d565b610b7f5760405162461bcd60e51b8152602060048201526011602482015270109d5e595c881b9bdd08185b1b1bddd959607a1b60448201526064016108fb565b6040516314a5749d60e31b81526001600160a01b0384811660048301527f0000000000000000000000000000000000000000000000000000000000000000169063a52ba4e890602401602060405180830381865afa158015610be5573d6000803e3d6000fd5b505050506040513d601f19601f82011682018060405250810190610c099190612e9d565b610c4a5760405162461bcd60e51b815260206004820152601260248201527114d95b1b195c881b9bdd08185b1b1bddd95960721b60448201526064016108fb565b600084815260066020526040902054610c755760405162461bcd60e51b81526004016108fb90612e6f565b60008481526006602052604090206003015460ff16610ce15760405162461bcd60e51b815260206004820152602260248201527f54726164696e67206e6f7420656e61626c656420666f72207468697320617373604482015261195d60f21b60648201526084016108fb565b60008211610d315760405162461bcd60e51b815260206004820181905260248201527f416d6f756e74206d7573742062652067726561746572207468616e207a65726f60448201526064016108fb565b336001600160a01b03841603610d895760405162461bcd60e51b815260206004820152601a60248201527f43616e6e6f74207472616465207769746820796f757273656c6600000000000060448201526064016108fb565b81610d9484866107b9565b1015610de25760405162461bcd60e51b815260206004820152601f60248201527f53656c6c65722068617320696e73756666696369656e742062616c616e63650060448201526064016108fb565b6000610dee84866107b9565b6001600160a01b0385166000908152600760209081526040808320898452909152902054909150610e1f8482612ed0565b821015610e6e5760405162461bcd60e51b815260206004820152601d60248201527f496e73756666696369656e7420756e66726f7a656e2062616c616e636500000060448201526064016108fb565b6000670de0b6b3a7640000610e838587612ee3565b610e8d9190612efa565b6040516323b872dd60e01b81523360048201526001600160a01b038881166024830152604482018390529192507f0000000000000000000000000000000000000000000000000000000000000000909116906323b872dd906064016020604051808303816000875af1158015610f07573d6000803e3d6000fd5b505050506040513d601f19601f82011682018060405250810190610f2b9190612e9d565b610f6e5760405162461bcd60e51b81526020600482015260146024820152731554d110c81d1c985b9cd9995c8819985a5b195960621b60448201526064016108fb565b610f8a8633898860405180602001604052806000815250611fba565b3360008181526008602090815260408083208b845282529182902087905581518881529081018790528992916001600160a01b038a16917fed79e7d218bfdfe7b0612476b5e4ded4715d3a29544095b7692131998870add0910160405180910390a4505050610ff96001600455565b50505050565b600061100a81611f86565b600554600160a81b900460ff16156110595760405162461bcd60e51b815260206004820152601260248201527114185d5cd95c88185b1c9958591e481cd95d60721b60448201526064016108fb565b6001600160a01b0382166110a85760405162461bcd60e51b8152602060048201526016602482015275496e76616c696420706175736572206164647265737360501b60448201526064016108fb565b60058054610100600160a81b0319166101006001600160a01b038516021790556110e060008051602061306d83398151915283612065565b506005805460ff60a81b1916600160a81b1790556040516001600160a01b038316907fd11d57c2c7468878b1035df11c670bcd0091aa840bf8aa166365397622237bea90600090a25050565b336001600160a01b038616811480159061114d575061114b8682611e84565b155b1561117e5760405163711bec9160e11b81526001600160a01b038083166004830152871660248201526044016108fb565b61118b86868686866120f9565b505050505050565b6000828152600360205260409020600101546111ae81611f86565b610ff98383612065565b6001600160a01b03811633146111e15760405163334bd91960e11b815260040160405180910390fd5b6111eb8282612159565b505050565b60008051602061306d83398151915261120881611f86565b6112106121c6565b50565b606081518351146112445781518351604051635b05999160e01b8152600481019290925260248201526044016108fb565b6000835167ffffffffffffffff811115611260576112606129b3565b604051908082528060200260200182016040528015611289578160200160208202803683370190505b50905060005b84518110156112e0576020808202860101516112b3906020808402870101516107b9565b8282815181106112c5576112c5612f1c565b60209081029190910101526112d981612f32565b905061128f565b509392505050565b6040516314a5749d60e31b81526001600160a01b0384811660048301526000917f00000000000000000000000000000000000000000000000000000000000000009091169063a52ba4e890602401602060405180830381865afa158015611353573d6000803e3d6000fd5b505050506040513d601f19601f820116820180604052508101906113779190612e9d565b1580611385575060055460ff165b15611392575060006113d7565b600061139e85856107b9565b6001600160a01b03861660009081526007602090815260408083208884529091529020549091506113cf8482612ed0565b821015925050505b9392505050565b60008051602061306d8339815191526113f681611f86565b611210612218565b60009182526003602090815260408084206001600160a01b0393909316845291905290205460ff1690565b6040516314a5749d60e31b81526001600160a01b0385811660048301526000917f00000000000000000000000000000000000000000000000000000000000000009091169063a52ba4e890602401602060405180830381865afa158015611494573d6000803e3d6000fd5b505050506040513d601f19601f820116820180604052508101906114b89190612e9d565b158061154b57506040516314a5749d60e31b81526001600160a01b0385811660048301527f0000000000000000000000000000000000000000000000000000000000000000169063a52ba4e890602401602060405180830381865afa158015611525573d6000803e3d6000fd5b505050506040513d601f19601f820116820180604052508101906115499190612e9d565b155b80611558575060055460ff165b15611565575060006115aa565b600061157186856107b9565b6001600160a01b03871660009081526007602090815260408083208884529091529020549091506115a28482612ed0565b821015925050505b949350505050565b6115bd338383612255565b5050565b6040516314a5749d60e31b81526001600160a01b0382811660048301526000917f00000000000000000000000000000000000000000000000000000000000000009091169063a52ba4e890602401602060405180830381865afa15801561162c573d6000803e3d6000fd5b505050506040513d601f19601f820116820180604052508101906107db9190612e9d565b7f9f2df0fed2c77648de5860a4cc508cd0818c85b8b8a1ab4ceeef8d981c8956a661167a81611f86565b600084815260066020526040902054156116d65760405162461bcd60e51b815260206004820152601a60248201527f41737365742073686172657320616c726561647920657869737400000000000060448201526064016108fb565b600083116117355760405162461bcd60e51b815260206004820152602660248201527f546f74616c20737570706c79206d7573742062652067726561746572207468616044820152656e207a65726f60d01b60648201526084016108fb565b600082116117935760405162461bcd60e51b815260206004820152602560248201527f5368617265207072696365206d7573742062652067726561746572207468616e604482015264207a65726f60d81b60648201526084016108fb565b6040805160c081018252848152602080820186815282840186815260006060808601828152426080880181815260a089018581528e865260068952948a90209851895595516001890155935160028801555160038701805460ff1916911515919091179055925160048601555160059094019390935583518781529182018690529281019190915285917fb82c0453feace24ee6cfe34b821e767fcc527f2dba6c452e541f3e1ead521f009101610a99565b7fb1fadd3142ab2ad7f1337ea4d97112bcc8337fc11ce5b20cb04ad038adf9981961186f81611f86565b60008381526006602052604090205461189a5760405162461bcd60e51b81526004016108fb90612e6f565b600083815260066020908152604091829020600301805460ff1916851515908117909155915191825284917fb06427d72192ff6da61bdacc300260b0da7a3e456feeb9c376297a9f5bea1907910160405180910390a2505050565b60008051602061304d83398151915261190d81611f86565b6001600160a01b038416600081815260076020908152604080832087845282529182902085905590518481528592917f7b0c29e799ed468266b4d070c03070137a95cb869c5eb7c18063fb7b1a7a09c5910160405180910390a350505050565b60008051602061304d83398151915261198581611f86565b60405163d1a81a8d60e01b81526001600160a01b03848116600483015283151560248301527f0000000000000000000000000000000000000000000000000000000000000000169063d1a81a8d90604401600060405180830381600087803b1580156119f057600080fd5b505af1158015611a04573d6000803e3d6000fd5b50505050505050565b611a15611f90565b611a1d61203f565b6040516314a5749d60e31b81523360048201527f00000000000000000000000000000000000000000000000000000000000000006001600160a01b03169063a52ba4e890602401602060405180830381865afa158015611a81573d6000803e3d6000fd5b505050506040513d601f19601f82011682018060405250810190611aa59190612e9d565b611ae45760405162461bcd60e51b815260206004820152601060248201526f155cd95c881b9bdd08185b1b1bddd95960821b60448201526064016108fb565b600082815260066020526040902054611b0f5760405162461bcd60e51b81526004016108fb90612e6f565b60008111611b5f5760405162461bcd60e51b815260206004820181905260248201527f416d6f756e74206d7573742062652067726561746572207468616e207a65726f60448201526064016108fb565b600082815260066020526040902060010154811115611bc05760405162461bcd60e51b815260206004820152601d60248201527f496e73756666696369656e7420617661696c61626c6520737570706c7900000060448201526064016108fb565b60008281526006602052604081206002015490670de0b6b3a7640000611be68385612ee3565b611bf09190612efa565b6040516323b872dd60e01b8152336004820152306024820152604481018290529091507f00000000000000000000000000000000000000000000000000000000000000006001600160a01b0316906323b872dd906064016020604051808303816000875af1158015611c66573d6000803e3d6000fd5b505050506040513d601f19601f82011682018060405250810190611c8a9190612e9d565b611ccd5760405162461bcd60e51b81526020600482015260146024820152731554d110c81d1c985b9cd9995c8819985a5b195960621b60448201526064016108fb565b611cea600033611cdc876122eb565b611ce5876122eb565b612336565b60008481526006602052604081206001018054859290611d0b908490612f4b565b909155505033600081815260086020908152604080832088845282529182902085905581518681529081018590529081018390528591907f0d098aab4683aec3730d1b27a72fac136f51288c5ffc2586171a08fb568a6b3a9060600160405180910390a350506115bd6001600455565b600082815260036020526040902060010154611d9681611f86565b610ff98383612159565b6000818152600660205260408120819081908190819081908190819081611dc78c8c6107b9565b6001600160a01b038d1660009081526007602090815260408083208f8452909152812054919250818311611dfc576000611e06565b611e068284612f4b565b905083600001549b5083600101549a50836002015499508360030160009054906101000a900460ff169850829750819650809550600860008f6001600160a01b03166001600160a01b0316815260200190815260200160002060008e8152602001908152602001600020549450505050509295985092959890939650565b6001600160a01b03918216600090815260016020908152604080832093909416825291909152205460ff1690565b336001600160a01b0386168114801590611ed35750611ed18682611e84565b155b15611f045760405163711bec9160e11b81526001600160a01b038083166004830152871660248201526044016108fb565b61118b8686868686611fba565b60006001600160e01b03198216636cdb3d1360e11b1480611f4257506001600160e01b031982166303a24d0760e21b145b806107db57506301ffc9a760e01b6001600160e01b03198316146107db565b60006001600160e01b03198216637965db0b60e01b14806107db57506107db82611f11565b611210813361234a565b600260045403611fb357604051633ee5aeb560e01b815260040160405180910390fd5b6002600455565b6001600160a01b038416611fe457604051632bfa23e760e11b8152600060048201526024016108fb565b6001600160a01b03851661200d57604051626a0d4560e21b8152600060048201526024016108fb565b60408051600180825260208201869052818301908152606082018590526080820190925290611a048787848487612383565b60055460ff16156120635760405163d93c066560e01b815260040160405180910390fd5b565b600061207183836113fe565b6120f15760008381526003602090815260408083206001600160a01b03861684529091529020805460ff191660011790556120a93390565b6001600160a01b0316826001600160a01b0316847f2f8788117e7eff1d82e926ec794901d17c78024a50270940304540a733656f0d60405160405180910390a45060016107db565b5060006107db565b6001600160a01b03841661212357604051632bfa23e760e11b8152600060048201526024016108fb565b6001600160a01b03851661214c57604051626a0d4560e21b8152600060048201526024016108fb565b6109788585858585612383565b600061216583836113fe565b156120f15760008381526003602090815260408083206001600160a01b0386168085529252808320805460ff1916905551339286917ff6391f5c32d9c69d2a47ea670b442974b53935d1edc7fd64eb21e047a839171b9190a45060016107db565b6121ce6123d6565b6005805460ff191690557f5db9ee0a495bf2e6ff9c91a7834c1ba4fdd244a5e8aa4e537bd38aeae4b073aa335b6040516001600160a01b03909116815260200160405180910390a1565b61222061203f565b6005805460ff191660011790557f62e78cea01bee320cd4e420270b5ea74000d11b0c9f74754ebdbfc544b05a2586121fb3390565b6001600160a01b03821661227e5760405162ced3e160e81b8152600060048201526024016108fb565b6001600160a01b03838116600081815260016020908152604080832094871680845294825291829020805460ff191686151590811790915591519182527f17307eab39ab6107e8899845ad3d59bd9653f200f220920489ca2b5937696c31910160405180910390a3505050565b6040805160018082528183019092526060916000919060208083019080368337019050509050828160008151811061232557612325612f1c565b602090810291909101015292915050565b61233e61203f565b610ff9848484846123f9565b61235482826113fe565b6115bd5760405163e2517d3f60e01b81526001600160a01b0382166004820152602481018390526044016108fb565b61238f85858585612336565b6001600160a01b0384161561097857825133906001036123c857602084810151908401516123c1838989858589612616565b505061118b565b61118b81878787878761273a565b60055460ff1661206357604051638dfc202b60e01b815260040160405180910390fd5b80518251146124285781518151604051635b05999160e01b8152600481019290925260248201526044016108fb565b3360005b8351811015612537576020818102858101820151908501909101516001600160a01b038816156124df576000828152602081815260408083206001600160a01b038c168452909152902054818110156124b8576040516303dee4c560e01b81526001600160a01b038a1660048201526024810182905260448101839052606481018490526084016108fb565b6000838152602081815260408083206001600160a01b038d16845290915290209082900390555b6001600160a01b03871615612524576000828152602081815260408083206001600160a01b038b1684529091528120805483929061251e908490612ed0565b90915550505b50508061253090612f32565b905061242c565b5082516001036125b85760208301516000906020840151909150856001600160a01b0316876001600160a01b0316846001600160a01b03167fc3d58168c5ae7397731d063d5bbf3d657854427343f4c083240f7aacaa2d0f6285856040516125a9929190918252602082015260400190565b60405180910390a45050610978565b836001600160a01b0316856001600160a01b0316826001600160a01b03167f4a39dc06d4c0dbc64b70af90fd698a233a518aa5d07e595d983b8c0526c8f7fb8686604051612607929190612f5e565b60405180910390a45050505050565b6001600160a01b0384163b1561118b5760405163f23a6e6160e01b81526001600160a01b0385169063f23a6e619061265a9089908990889088908890600401612f8c565b6020604051808303816000875af1925050508015612695575060408051601f3d908101601f1916820190925261269291810190612fd1565b60015b6126fe573d8080156126c3576040519150601f19603f3d011682016040523d82523d6000602084013e6126c8565b606091505b5080516000036126f657604051632bfa23e760e11b81526001600160a01b03861660048201526024016108fb565b805160208201fd5b6001600160e01b0319811663f23a6e6160e01b14611a0457604051632bfa23e760e11b81526001600160a01b03861660048201526024016108fb565b6001600160a01b0384163b1561118b5760405163bc197c8160e01b81526001600160a01b0385169063bc197c819061277e9089908990889088908890600401612fee565b6020604051808303816000875af19250505080156127b9575060408051601f3d908101601f191682019092526127b691810190612fd1565b60015b6127e7573d8080156126c3576040519150601f19603f3d011682016040523d82523d6000602084013e6126c8565b6001600160e01b0319811663bc197c8160e01b14611a0457604051632bfa23e760e11b81526001600160a01b03861660048201526024016108fb565b80356001600160a01b038116811461283a57600080fd5b919050565b6000806040838503121561285257600080fd5b61285b83612823565b946020939093013593505050565b6001600160e01b03198116811461121057600080fd5b60006020828403121561289157600080fd5b81356113d781612869565b6000602082840312156128ae57600080fd5b5035919050565b6000815180845260005b818110156128db576020818501810151868301820152016128bf565b506000602082860101526020601f19601f83011685010191505092915050565b6020815260006113d760208301846128b5565b6000806000806080858703121561292457600080fd5b61292d85612823565b935061293b60208601612823565b93969395505050506040820135916060013590565b6000806040838503121561296357600080fd5b50508035926020909101359150565b6000806000806080858703121561298857600080fd5b8435935061293b60208601612823565b6000602082840312156129aa57600080fd5b6113d782612823565b634e487b7160e01b600052604160045260246000fd5b604051601f8201601f1916810167ffffffffffffffff811182821017156129f2576129f26129b3565b604052919050565b600067ffffffffffffffff821115612a1457612a146129b3565b5060051b60200190565b600082601f830112612a2f57600080fd5b81356020612a44612a3f836129fa565b6129c9565b82815260059290921b84018101918181019086841115612a6357600080fd5b8286015b84811015612a7e5780358352918301918301612a67565b509695505050505050565b600082601f830112612a9a57600080fd5b813567ffffffffffffffff811115612ab457612ab46129b3565b612ac7601f8201601f19166020016129c9565b818152846020838601011115612adc57600080fd5b816020850160208301376000918101602001919091529392505050565b600080600080600060a08688031215612b1157600080fd5b612b1a86612823565b9450612b2860208701612823565b9350604086013567ffffffffffffffff80821115612b4557600080fd5b612b5189838a01612a1e565b94506060880135915080821115612b6757600080fd5b612b7389838a01612a1e565b93506080880135915080821115612b8957600080fd5b50612b9688828901612a89565b9150509295509295909350565b60008060408385031215612bb657600080fd5b82359150612bc660208401612823565b90509250929050565b60008060408385031215612be257600080fd5b823567ffffffffffffffff80821115612bfa57600080fd5b818501915085601f830112612c0e57600080fd5b81356020612c1e612a3f836129fa565b82815260059290921b84018101918181019089841115612c3d57600080fd5b948201945b83861015612c6257612c5386612823565b82529482019490820190612c42565b96505086013592505080821115612c7857600080fd5b50612c8585828601612a1e565b9150509250929050565b600081518084526020808501945080840160005b83811015612cbf57815187529582019590820190600101612ca3565b509495945050505050565b6020815260006113d76020830184612c8f565b600080600060608486031215612cf257600080fd5b612cfb84612823565b95602085013595506040909401359392505050565b801515811461121057600080fd5b60008060408385031215612d3157600080fd5b612d3a83612823565b91506020830135612d4a81612d10565b809150509250929050565b600080600060608486031215612d6a57600080fd5b505081359360208301359350604090920135919050565b60008060408385031215612d9457600080fd5b823591506020830135612d4a81612d10565b60008060408385031215612db957600080fd5b612dc283612823565b9150612bc660208401612823565b600080600080600060a08688031215612de857600080fd5b612df186612823565b9450612dff60208701612823565b93506040860135925060608601359150608086013567ffffffffffffffff811115612e2957600080fd5b612b9688828901612a89565b600181811c90821680612e4957607f821691505b602082108103612e6957634e487b7160e01b600052602260045260246000fd5b50919050565b602080825260149082015273105cdcd95d08191bd95cc81b9bdd08195e1a5cdd60621b604082015260600190565b600060208284031215612eaf57600080fd5b81516113d781612d10565b634e487b7160e01b600052601160045260246000fd5b808201808211156107db576107db612eba565b80820281158282048414176107db576107db612eba565b600082612f1757634e487b7160e01b600052601260045260246000fd5b500490565b634e487b7160e01b600052603260045260246000fd5b600060018201612f4457612f44612eba565b5060010190565b818103818111156107db576107db612eba565b604081526000612f716040830185612c8f565b8281036020840152612f838185612c8f565b95945050505050565b6001600160a01b03868116825285166020820152604081018490526060810183905260a060808201819052600090612fc6908301846128b5565b979650505050505050565b600060208284031215612fe357600080fd5b81516113d781612869565b6001600160a01b0386811682528516602082015260a06040820181905260009061301a90830186612c8f565b828103606084015261302c8186612c8f565b9050828103608084015261304081856128b5565b9897505050505050505056feb6f0283bd1ed00c6aa7e988a7516070240f3610a34d167391359b648eb37cefc65d7a28e3265b37a6474929f336521b332c1681b933f6cb9f3376673440d862aa26469706673582212204c47744d69d98133bcf9540195162f28e312483858b256d1a0774ccb9908afc864736f6c63430008140033",
  "linkReferences": {},
  "deployedLinkReferences": {}
}