{"contracts/core/AssetShares.sol":{"AssetShares":{"abi":[{"inputs":[{"internalType":"address","name":"_usdcAddress","type":"address"},{"internalType":"address","name":"_assetVault","type":"address"},{"internalType":"address","name":"_userAllowList","type":"address"},{"internalType":"string","name":"uri","type":"string"}],"stateMutability":"nonpayable","type":"constructor"},{"inputs":[],"name":"AccessControlBadConfirmation","type":"error"},{"inputs":[{"internalType":"address","name":"account","type":"address"},{"internalType":"bytes32","name":"neededRole","type":"bytes32"}],"name":"AccessControlUnauthorizedAccount","type":"error"},{"inputs":[{"internalType":"address","name":"sender","type":"address"},{"internalType":"uint256","name":"balance","type":"uint256"},{"internalType":"uint256","name":"needed","type":"uint256"},{"internalType":"uint256","name":"tokenId","type":"uint256"}],"name":"ERC1155InsufficientBalance","type":"error"},{"inputs":[{"internalType":"address","name":"approver","type":"address"}],"name":"ERC1155InvalidApprover","type":"error"},{"inputs":[{"internalType":"uint256","name":"idsLength","type":"uint256"},{"internalType":"uint256","name":"valuesLength","type":"uint256"}],"name":"ERC1155InvalidArrayLength","type":"error"},{"inputs":[{"internalType":"address","name":"operator","type":"address"}],"name":"ERC1155InvalidOperator","type":"error"},{"inputs":[{"internalType":"address","name":"receiver","type":"address"}],"name":"ERC1155InvalidReceiver","type":"error"},{"inputs":[{"internalType":"address","name":"sender","type":"address"}],"name":"ERC1155InvalidSender","type":"error"},{"inputs":[{"internalType":"address","name":"operator","type":"address"},{"internalType":"address","name":"owner","type":"address"}],"name":"ERC1155MissingApprovalForAll","type":"error"},{"inputs":[],"name":"EnforcedPause","type":"error"},{"inputs":[],"name":"ExpectedPause","type":"error"},{"inputs":[],"name":"ReentrancyGuardReentrantCall","type":"error"},{"anonymous":false,"inputs":[{"indexed":true,"internalType":"address","name":"account","type":"address"},{"indexed":true,"internalType":"address","name":"operator","type":"address"},{"indexed":false,"internalType":"bool","name":"approved","type":"bool"}],"name":"ApprovalForAll","type":"event"},{"anonymous":false,"inputs":[{"indexed":true,"internalType":"uint256","name":"assetId","type":"uint256"},{"indexed":false,"internalType":"uint256","name":"totalShares","type":"uint256"},{"indexed":false,"internalType":"uint256","name":"sharePrice","type":"uint256"},{"indexed":false,"internalType":"uint256","name":"createdAt","type":"uint256"}],"name":"AssetSharesCreated","type":"event"},{"anonymous":false,"inputs":[{"indexed":true,"internalType":"address","name":"from","type":"address"},{"indexed":true,"internalType":"address","name":"to","type":"address"},{"indexed":true,"internalType":"uint256","name":"tokenId","type":"uint256"},{"indexed":false,"internalType":"uint256","name":"amount","type":"uint256"}],"name":"ForcedTransfer","type":"event"},{"anonymous":false,"inputs":[{"indexed":true,"internalType":"address","name":"user","type":"address"},{"indexed":true,"internalType":"uint256","name":"tokenId","type":"uint256"},{"indexed":false,"internalType":"uint256","name":"amount","type":"uint256"}],"name":"Frozen","type":"event"},{"anonymous":false,"inputs":[{"indexed":false,"internalType":"address","name":"account","type":"address"}],"name":"Paused","type":"event"},{"anonymous":false,"inputs":[{"indexed":true,"internalType":"address","name":"pauser","type":"address"}],"name":"PauserSet","type":"event"},{"anonymous":false,"inputs":[{"indexed":true,"internalType":"bytes32","name":"role","type":"bytes32"},{"indexed":true,"internalType":"bytes32","name":"previousAdminRole","type":"bytes32"},{"indexed":true,"internalType":"bytes32","name":"newAdminRole","type":"bytes32"}],"name":"RoleAdminChanged","type":"event"},{"anonymous":false,"inputs":[{"indexed":true,"internalType":"bytes32","name":"role","type":"bytes32"},{"indexed":true,"internalType":"address","name":"account","type":"address"},{"indexed":true,"internalType":"address","name":"sender","type":"address"}],"name":"RoleGranted","type":"event"},{"anonymous":false,"inputs":[{"indexed":true,"internalType":"bytes32","name":"role","type":"bytes32"},{"indexed":true,"internalType":"address","name":"account","type":"address"},{"indexed":true,"internalType":"address","name":"sender","type":"address"}],"name":"RoleRevoked","type":"event"},{"anonymous":false,"inputs":[{"indexed":true,"internalType":"uint256","name":"assetId","type":"uint256"},{"indexed":false,"internalType":"uint256","name":"oldPrice","type":"uint256"},{"indexed":false,"internalType":"uint256","name":"newPrice","type":"uint256"},{"indexed":false,"internalType":"uint256","name":"updatedAt","type":"uint256"}],"name":"SharePriceUpdated","type":"event"},{"anonymous":false,"inputs":[{"indexed":true,"internalType":"address","name":"buyer","type":"address"},{"indexed":true,"internalType":"uint256","name":"assetId","type":"uint256"},{"indexed":false,"internalType":"uint256","name":"amount","type":"uint256"},{"indexed":false,"internalType":"uint256","name":"pricePerShare","type":"uint256"},{"indexed":false,"internalType":"uint256","name":"totalCost","type":"uint256"}],"name":"SharesPurchased","type":"event"},{"anonymous":false,"inputs":[{"indexed":true,"internalType":"address","name":"seller","type":"address"},{"indexed":true,"internalType":"address","name":"buyer","type":"address"},{"indexed":true,"internalType":"uint256","name":"assetId","type":"uint256"},{"indexed":false,"internalType":"uint256","name":"amount","type":"uint256"},{"indexed":false,"internalType":"uint256","name":"pricePerShare","type":"uint256"}],"name":"SharesTraded","type":"event"},{"anonymous":false,"inputs":[{"indexed":true,"internalType":"uint256","name":"assetId","type":"uint256"},{"indexed":false,"internalType":"bool","name":"enabled","type":"bool"}],"name":"TradingStatusChanged","type":"event"},{"anonymous":false,"inputs":[{"indexed":true,"internalType":"address","name":"operator","type":"address"},{"indexed":true,"internalType":"address","name":"from","type":"address"},{"indexed":true,"internalType":"address","name":"to","type":"address"},{"indexed":false,"internalType":"uint256[]","name":"ids","type":"uint256[]"},{"indexed":false,"internalType":"uint256[]","name":"values","type":"uint256[]"}],"name":"TransferBatch","type":"event"},{"anonymous":false,"inputs":[{"indexed":true,"internalType":"address","name":"operator","type":"address"},{"indexed":true,"internalType":"address","name":"from","type":"address"},{"indexed":true,"internalType":"address","name":"to","type":"address"},{"indexed":false,"internalType":"uint256","name":"id","type":"uint256"},{"indexed":false,"internalType":"uint256","name":"value","type":"uint256"}],"name":"TransferSingle","type":"event"},{"anonymous":false,"inputs":[{"indexed":false,"internalType":"string","name":"value","type":"string"},{"indexed":true,"internalType":"uint256","name":"id","type":"uint256"}],"name":"URI","type":"event"},{"anonymous":false,"inputs":[{"indexed":false,"internalType":"address","name":"account","type":"address"}],"name":"Unpaused","type":"event"},{"inputs":[],"name":"ASSET_MANAGER_ROLE","outputs":[{"internalType":"bytes32","name":"","type":"bytes32"}],"stateMutability":"view","type":"function"},{"inputs":[],"name":"COMPLIANCE_OFFICER_ROLE","outputs":[{"internalType":"bytes32","name":"","type":"bytes32"}],"stateMutability":"view","type":"function"},{"inputs":[],"name":"DEFAULT_ADMIN_ROLE","outputs":[{"internalType":"bytes32","name":"","type":"bytes32"}],"stateMutability":"view","type":"function"},{"inputs":[],"name":"MINTER_ROLE","outputs":[{"internalType":"bytes32","name":"","type":"bytes32"}],"stateMutability":"view","type":"function"},{"inputs":[],"name":"PAUSER_ROLE","outputs":[{"internalType":"bytes32","name":"","type":"bytes32"}],"stateMutability":"view","type":"function"},{"inputs":[],"name":"USDC","outputs":[{"internalType":"contract IERC20","name":"","type":"address"}],"stateMutability":"view","type":"function"},{"inputs":[],"name":"assetVault","outputs":[{"internalType":"address","name":"","type":"address"}],"stateMutability":"view","type":"function"},{"inputs":[{"internalType":"address","name":"account","type":"address"},{"internalType":"uint256","name":"id","type":"uint256"}],"name":"balanceOf","outputs":[{"internalType":"uint256","name":"","type":"uint256"}],"stateMutability":"view","type":"function"},{"inputs":[{"internalType":"address[]","name":"accounts","type":"address[]"},{"internalType":"uint256[]","name":"ids","type":"uint256[]"}],"name":"balanceOfBatch","outputs":[{"internalType":"uint256[]","name":"","type":"uint256[]"}],"stateMutability":"view","type":"function"},{"inputs":[{"internalType":"address","name":"user","type":"address"},{"internalType":"uint256","name":"tokenId","type":"uint256"},{"internalType":"uint256","name":"amount","type":"uint256"}],"name":"canTransact","outputs":[{"internalType":"bool","name":"","type":"bool"}],"stateMutability":"view","type":"function"},{"inputs":[{"internalType":"address","name":"from","type":"address"},{"internalType":"address","name":"to","type":"address"},{"internalType":"uint256","name":"tokenId","type":"uint256"},{"internalType":"uint256","name":"amount","type":"uint256"}],"name":"canTransfer","outputs":[{"internalType":"bool","name":"","type":"bool"}],"stateMutability":"view","type":"function"},{"inputs":[{"internalType":"uint256","name":"assetId","type":"uint256"},{"internalType":"uint256","name":"totalSupply_","type":"uint256"},{"internalType":"uint256","name":"sharePrice_","type":"uint256"}],"name":"createAssetShares","outputs":[],"stateMutability":"nonpayable","type":"function"},{"inputs":[{"internalType":"address","name":"from","type":"address"},{"internalType":"address","name":"to","type":"address"},{"internalType":"uint256","name":"tokenId","type":"uint256"},{"internalType":"uint256","name":"amount","type":"uint256"}],"name":"forcedTransfer","outputs":[],"stateMutability":"nonpayable","type":"function"},{"inputs":[{"internalType":"uint256","name":"assetId","type":"uint256"}],"name":"getAssetShares","outputs":[{"internalType":"uint256","name":"totalSupply_","type":"uint256"},{"internalType":"uint256","name":"availableSupply_","type":"uint256"},{"internalType":"uint256","name":"sharePrice_","type":"uint256"},{"internalType":"bool","name":"tradingEnabled_","type":"bool"}],"stateMutability":"view","type":"function"},{"inputs":[{"internalType":"address","name":"user","type":"address"},{"internalType":"uint256","name":"tokenId","type":"uint256"}],"name":"getFrozenTokens","outputs":[{"internalType":"uint256","name":"","type":"uint256"}],"stateMutability":"view","type":"function"},{"inputs":[{"internalType":"bytes32","name":"role","type":"bytes32"}],"name":"getRoleAdmin","outputs":[{"internalType":"bytes32","name":"","type":"bytes32"}],"stateMutability":"view","type":"function"},{"inputs":[{"internalType":"address","name":"user","type":"address"},{"internalType":"uint256","name":"assetId","type":"uint256"}],"name":"getUserShares","outputs":[{"internalType":"uint256","name":"totalSupply_","type":"uint256"},{"internalType":"uint256","name":"availableSupply_","type":"uint256"},{"internalType":"uint256","name":"sharePrice_","type":"uint256"},{"internalType":"bool","name":"tradingEnabled_","type":"bool"},{"internalType":"uint256","name":"balance_","type":"uint256"},{"internalType":"uint256","name":"frozen_","type":"uint256"},{"internalType":"uint256","name":"unfrozen_","type":"uint256"},{"internalType":"uint256","name":"recordedPurchasePrice_","type":"uint256"}],"stateMutability":"view","type":"function"},{"inputs":[{"internalType":"bytes32","name":"role","type":"bytes32"},{"internalType":"address","name":"account","type":"address"}],"name":"grantRole","outputs":[],"stateMutability":"nonpayable","type":"function"},{"inputs":[{"internalType":"bytes32","name":"role","type":"bytes32"},{"internalType":"address","name":"account","type":"address"}],"name":"hasRole","outputs":[{"internalType":"bool","name":"","type":"bool"}],"stateMutability":"view","type":"function"},{"inputs":[{"internalType":"address","name":"account","type":"address"},{"internalType":"address","name":"operator","type":"address"}],"name":"isApprovedForAll","outputs":[{"internalType":"bool","name":"","type":"bool"}],"stateMutability":"view","type":"function"},{"inputs":[{"internalType":"address","name":"user","type":"address"}],"name":"isUserAllowed","outputs":[{"internalType":"bool","name":"","type":"bool"}],"stateMutability":"view","type":"function"},{"inputs":[{"internalType":"address","name":"","type":"address"},{"internalType":"address","name":"","type":"address"},{"internalType":"uint256[]","name":"","type":"uint256[]"},{"internalType":"uint256[]","name":"","type":"uint256[]"},{"internalType":"bytes","name":"","type":"bytes"}],"name":"onERC1155BatchReceived","outputs":[{"internalType":"bytes4","name":"","type":"bytes4"}],"stateMutability":"pure","type":"function"},{"inputs":[{"internalType":"address","name":"","type":"address"},{"internalType":"address","name":"","type":"address"},{"internalType":"uint256","name":"","type":"uint256"},{"internalType":"uint256","name":"","type":"uint256"},{"internalType":"bytes","name":"","type":"bytes"}],"name":"onERC1155Received","outputs":[{"internalType":"bytes4","name":"","type":"bytes4"}],"stateMutability":"pure","type":"function"},{"inputs":[],"name":"pause","outputs":[],"stateMutability":"nonpayable","type":"function"},{"inputs":[],"name":"paused","outputs":[{"internalType":"bool","name":"","type":"bool"}],"stateMutability":"view","type":"function"},{"inputs":[],"name":"pauser","outputs":[{"internalType":"address","name":"","type":"address"}],"stateMutability":"view","type":"function"},{"inputs":[{"internalType":"uint256","name":"assetId","type":"uint256"},{"internalType":"uint256","name":"amount","type":"uint256"}],"name":"purchaseAssetShares","outputs":[],"stateMutability":"nonpayable","type":"function"},{"inputs":[{"internalType":"address","name":"","type":"address"},{"internalType":"uint256","name":"","type":"uint256"}],"name":"purchasePrice","outputs":[{"internalType":"uint256","name":"","type":"uint256"}],"stateMutability":"view","type":"function"},{"inputs":[{"internalType":"bytes32","name":"role","type":"bytes32"},{"internalType":"address","name":"callerConfirmation","type":"address"}],"name":"renounceRole","outputs":[],"stateMutability":"nonpayable","type":"function"},{"inputs":[{"internalType":"bytes32","name":"role","type":"bytes32"},{"internalType":"address","name":"account","type":"address"}],"name":"revokeRole","outputs":[],"stateMutability":"nonpayable","type":"function"},{"inputs":[{"internalType":"address","name":"from","type":"address"},{"internalType":"address","name":"to","type":"address"},{"internalType":"uint256[]","name":"ids","type":"uint256[]"},{"internalType":"uint256[]","name":"values","type":"uint256[]"},{"internalType":"bytes","name":"data","type":"bytes"}],"name":"safeBatchTransferFrom","outputs":[],"stateMutability":"nonpayable","type":"function"},{"inputs":[{"internalType":"address","name":"from","type":"address"},{"internalType":"address","name":"to","type":"address"},{"internalType":"uint256","name":"id","type":"uint256"},{"internalType":"uint256","name":"value","type":"uint256"},{"internalType":"bytes","name":"data","type":"bytes"}],"name":"safeTransferFrom","outputs":[],"stateMutability":"nonpayable","type":"function"},{"inputs":[{"internalType":"address","name":"operator","type":"address"},{"internalType":"bool","name":"approved","type":"bool"}],"name":"setApprovalForAll","outputs":[],"stateMutability":"nonpayable","type":"function"},{"inputs":[{"internalType":"address","name":"user","type":"address"},{"internalType":"uint256","name":"tokenId","type":"uint256"},{"internalType":"uint256","name":"amount","type":"uint256"}],"name":"setFrozenTokens","outputs":[],"stateMutability":"nonpayable","type":"function"},{"inputs":[{"internalType":"address","name":"_pauser","type":"address"}],"name":"setPauser","outputs":[],"stateMutability":"nonpayable","type":"function"},{"inputs":[{"internalType":"uint256","name":"assetId","type":"uint256"},{"internalType":"bool","name":"enabled","type":"bool"}],"name":"setTradingEnabled","outputs":[],"stateMutability":"nonpayable","type":"function"},{"inputs":[{"internalType":"address","name":"user","type":"address"},{"internalType":"bool","name":"allowed","type":"bool"}],"name":"setUserAllowed","outputs":[],"stateMutability":"nonpayable","type":"function"},{"inputs":[{"internalType":"uint256","name":"","type":"uint256"}],"name":"shareInfo","outputs":[{"internalType":"uint256","name":"totalSupply","type":"uint256"},{"internalType":"uint256","name":"availableSupply","type":"uint256"},{"internalType":"uint256","name":"sharePrice","type":"uint256"},{"internalType":"bool","name":"tradingEnabled","type":"bool"},{"internalType":"uint256","name":"createdAt","type":"uint256"},{"internalType":"uint256","name":"updatedAt","type":"uint256"}],"stateMutability":"view","type":"function"},{"inputs":[{"internalType":"bytes4","name":"interfaceId","type":"bytes4"}],"name":"supportsInterface","outputs":[{"internalType":"bool","name":"","type":"bool"}],"stateMutability":"view","type":"function"},{"inputs":[{"internalType":"uint256","name":"assetId","type":"uint256"},{"internalType":"address","name":"seller","type":"address"},{"internalType":"uint256","name":"amount","type":"uint256"},{"internalType":"uint256","name":"pricePerShare","type":"uint256"}],"name":"tradeShares","outputs":[],"stateMutability":"nonpayable","type":"function"},{"inputs":[],"name":"unpause","outputs":[],"stateMutability":"nonpayable","type":"function"},{"inputs":[{"internalType":"uint256","name":"assetId","type":"uint256"},{"internalType":"uint256","name":"newPrice","type":"uint256"}],"name":"updateSharePrice","outputs":[],"stateMutability":"nonpayable","type":"function"},{"inputs":[{"internalType":"uint256","name":"","type":"uint256"}],"name":"uri","outputs":[{"internalType":"string","name":"","type":"string"}],"stateMutability":"view","type":"function"},{"inputs":[],"name":"userAllowList","outputs":[{"internalType":"contract AssetUserAllowList","name":"","type":"address"}],"stateMutability":"view","type":"function"}],"evm":{"bytecode":{"linkReferences":{},"object":"604060e0815234620003d0576200364090813803806200001f81620003d5565b9384398201608083820312620003d0576200003a83620003fb565b926020936200004b858301620003fb565b9262000059858401620003fb565b606084015190936001600160401b039190828211620003d0570191601f818185011215620003d057835193838511620003a657601f1994620000a183820187168c01620003d5565b938185528b8284010111620003d0578a9160005b828110620003bc57505090600091840101528151928311620003a657600254916001948584811c941680156200039b575b8b851014620003855783838695116200032a575b508a928411600114620002c35750600092620002b7575b5050600019600383901b1c191690821b176002555b6004556001600160a01b039081169182156200027357818416156200022f5716908115620001eb57620001899394506080528160a05260c0526200016a3362000410565b50620001763362000491565b50620001823362000534565b50620005d2565b5051612faf9081620006718239608051818181610a440152818161120c015261173b015260a05181611d77015260c05181818161042d015281816108680152818161143401528181611664015281816119de0152818161291101526129f20152f35b835162461bcd60e51b815260048101869052601960248201527f496e76616c696420616c6c6f776c6973742061646472657373000000000000006044820152606490fd5b845162461bcd60e51b815260048101879052601960248201527f496e76616c69642070726f706572747920636f6e7472616374000000000000006044820152606490fd5b845162461bcd60e51b815260048101879052601460248201527f496e76616c6964205553444320616464726573730000000000000000000000006044820152606490fd5b01519050388062000111565b8594929192169160026000528a6000209260005b8c828210620003135750508411620002f9575b505050811b0160025562000126565b015160001960f88460031b161c19169055388080620002ea565b8385015186558897909501949384019301620002d7565b909192935060026000528a6000208480870160051c8201928d88106200037b575b9187968992969594930160051c01915b8281106200036b575050620000fa565b600081558796508891016200035b565b925081926200034b565b634e487b7160e01b600052602260045260246000fd5b93607f1693620000e6565b634e487b7160e01b600052604160045260246000fd5b8181018401518682018501528301620000b5565b600080fd5b6040519190601f01601f191682016001600160401b03811183821017620003a657604052565b51906001600160a01b0382168203620003d057565b6001600160a01b031660008181527f3617319a054d772f909f7c479a2cebe5066e836a939412e32403c99029b92eff602052604081205490919060ff166200048d5781805260036020526040822081835260205260408220600160ff198254161790553391600080516020620036208339815191528180a4600190565b5090565b6001600160a01b031660008181527fd4f4ae7e0f1d6ef3e8290f298fbe252931b59dd183524e1af76274726da1e66360205260408120549091907fb1fadd3142ab2ad7f1337ea4d97112bcc8337fc11ce5b20cb04ad038adf998199060ff166200052f5780835260036020526040832082845260205260408320600160ff1982541617905560008051602062003620833981519152339380a4600190565b505090565b6001600160a01b031660008181527ffca98a0144180c5ff9cc8eb43249ff58e5a9edc28ccc383a25775f69580acd2060205260408120549091907fb6f0283bd1ed00c6aa7e988a7516070240f3610a34d167391359b648eb37cefc9060ff166200052f5780835260036020526040832082845260205260408320600160ff1982541617905560008051602062003620833981519152339380a4600190565b6001600160a01b031660008181527f5562e70da342db81569f3094d36be279beaca7ad8e08f434ea188e79d2bfe10c60205260408120549091907f9f2df0fed2c77648de5860a4cc508cd0818c85b8b8a1ab4ceeef8d981c8956a69060ff166200052f5780835260036020526040832082845260205260408320600160ff1982541617905560008051602062003620833981519152339380a460019056fe6080604052600436101561001257600080fd5b60003560e01c8062fdd58e146102d657806301ffc9a7146102d15780630ad5b98c146102cc5780630e89341c146102c757806318d308d0146102c2578063198596b5146102bd5780631b1da1af146102b857806320fa6e06146102b3578063248a9ca3146102ae5780632d88af4a146102a95780632eb2c2d6146102a45780632f2ff15d1461029f57806336568abe1461029a5780633f4ba83a146102955780634e1273f4146102905780635c975abb1461028b5780636b5e796b146102865780636d720c06146102815780638456cb591461027c57806389a302711461027757806391d14854146102725780639fd0506d1461026d578063a02ff68514610268578063a217fddf14610263578063a22cb4651461025e578063a4b32de814610259578063a52ba4e814610254578063adacd4871461024f578063aeedb3791461024a578063b25d2d0714610245578063b62100af14610240578063bc197c811461023b578063bd456f5c14610236578063bf59d29b14610231578063d1a81a8d1461022c578063d539139314610227578063d547741f14610222578063ddd9d0451461021d578063e63ab1e914610218578063e985e9c514610213578063f23a6e611461020e578063f242432a14610209578063f61ebc36146102045763ff6e708c146101ff57600080fd5b611da6565b611d61565b611cdf565b611cbb565b611c14565b611bd9565b611ac7565b611a88565b611a4d565b6119a2565b61194f565b6118ea565b6118c6565b611833565b611617565b611501565b611499565b6113f3565b6113b8565b6112fc565b6112d6565b6112ba565b61128d565b61123b565b6111f6565b61119c565b611179565b611107565b6110e4565b61102a565b610f7b565b610f34565b610ef5565b610e38565b610b8c565b610b5d565b610816565b610715565b6106da565b6105ef565b6104b0565b610417565b61037f565b610320565b600435906001600160a01b03821682036102f157565b600080fd5b602435906001600160a01b03821682036102f157565b35906001600160a01b03821682036102f157565b346102f15760403660031901126102f157602061036461033e6102db565b6024356000526000835260406000209060018060a01b0316600052602052604060002090565b54604051908152f35b6001600160e01b03198116036102f157565b346102f15760203660031901126102f157602060043561039e8161036d565b6001600160e01b031916636cdb3d1360e11b81148015610407575b80156103f7575b809181156103d5575b50506040519015158152f35b637965db0b60e01b14915081156103ef575b5038806103c9565b9050386103e7565b506301ffc9a760e01b81146103c0565b506303a24d0760e21b81146103b9565b346102f15760003660031901126102f1576040517f00000000000000000000000000000000000000000000000000000000000000006001600160a01b03168152602090f35b919082519283825260005b848110610488575050826000602080949584010152601f8019910116010190565b602081830181015184830182015201610467565b9060206104ad92818152019061045c565b90565b346102f1576020806003193601126102f1576040519060009060025460019181831c928083169283156105ac575b8285108414610598578487526020870193908115610579575060011461051f575b61051b8661050f81880382610c9e565b6040519182918261049c565b0390f35b6002600090815294509192917f405787fa12a823e0f2b7631cc41b3ba8828b3321ca811111fa75cd3aa3bb5ace5b838610610568575050509101905061050f8261051b386104ff565b80548587015294820194810161054d565b60ff1916845250505090151560051b01905061050f8261051b386104ff565b634e487b7160e01b86526022600452602486fd5b93607f16936104de565b60809060031901126102f1576001600160a01b039060043582811681036102f1579160243590811681036102f157906044359060643590565b346102f1576105fd366105b6565b909291610608611dee565b610610612ae5565b6000848152602081815260408083206001600160a01b038716845290915290208290541061069e5761068f7fa7f01abbf5b7ec7bac7fb74feb5c1f54af9e430f18a33681c1b9149875339a4591610671610668612546565b8588848961229b565b6040519384526001600160a01b039081169416929081906020820190565b0390a461069c6001600455565b005b60405162461bcd60e51b8152602060048201526014602482015273496e73756666696369656e742062616c616e636560601b6044820152606490fd5b346102f15760003660031901126102f15760206040517fb6f0283bd1ed00c6aa7e988a7516070240f3610a34d167391359b648eb37cefc8152f35b346102f15760403660031901126102f157602435600435610734611e6a565b600091818352600660205261074e60408420541515612c0b565b818352600660205260026040842001548082146107c057817f3180bc850607139589b517b4f1480820c2973c955706dcf81d3a20de03670ddc92600261079e866000526006602052604060002090565b0155604080519283526020830191909152429082015280606081015b0390a280f35b60405162461bcd60e51b815260206004820152602860248201527f4e6577207072696365206d757374206469666665722066726f6d2063757272656044820152676e7420707269636560c01b6064820152608490fd5b346102f15760803660031901126102f1576004356108326102f6565b6044359060643590610842612ae5565b61084a612762565b6040516314a5749d60e31b8082523360048301526001600160a01b037f000000000000000000000000000000000000000000000000000000000000000081169460209493909285826024818a5afa918215610b1e5786926108b391600091610b40575b50612dbd565b6040519081526001600160a01b038516600482015295869060249082905afa948515610b1e57610a4060009261099089610988886109718e6109016109619e8e9a8c91610b23575b50612dfd565b610920610918826000526006602052604060002090565b541515612c0b565b610949610944600361093c846000526006602052604060002090565b015460ff1690565b612e3e565b610954851515612c8d565b8683169d8e331415612e95565b6000526000602052604060002090565b9060018060a01b0316600052602052604060002090565b541015612ee1565b6109ec8a6109e58b6109df6109b38b610971866000526000602052604060002090565b546001600160a01b038c1660009081526007602052604090209094905b90600052602052604060002090565b5461289f565b1115612f2d565b610a076109f9868b612d24565b670de0b6b3a7640000900490565b6040516323b872dd60e01b81523360048201526001600160a01b0388166024820152604481019190915293849283919082906064820190565b03927f0000000000000000000000000000000000000000000000000000000000000000165af1928315610b1e57610aa961068f94610abb937fed79e7d218bfdfe7b0612476b5e4ded4715d3a29544095b7692131998870add097600092610af1575b5050612d37565b8688610ab3612546565b92339061229b565b3360009081526008602052604090208190610ad79088906109d0565b556040805195865260208601919091523394918291820190565b610b109250803d10610b17575b610b088183610c9e565b8101906128d1565b3880610aa2565b503d610afe565b61253a565b610b3a91508b3d8d11610b1757610b088183610c9e565b386108fb565b610b579150843d8611610b1757610b088183610c9e565b386108ad565b346102f15760203660031901126102f15760043560005260036020526020600160406000200154604051908152f35b346102f15760203660031901126102f157610ba56102db565b610bad611ec2565b60ff60055460a81c16610c35576001600160a01b03811690610bfa90610bd483151561271d565b60058054610100600160a81b031916600883901b610100600160a81b0316179055611feb565b506005805460ff60a81b1916600160a81b1790557fd11d57c2c7468878b1035df11c670bcd0091aa840bf8aa166365397622237bea600080a2005b60405162461bcd60e51b815260206004820152601260248201527114185d5cd95c88185b1c9958591e481cd95d60721b6044820152606490fd5b634e487b7160e01b600052604160045260246000fd5b67ffffffffffffffff8111610c9957604052565b610c6f565b90601f8019910116810190811067ffffffffffffffff821117610c9957604052565b6040519060c0820182811067ffffffffffffffff821117610c9957604052565b67ffffffffffffffff8111610c995760051b60200190565b81601f820112156102f157803591610d0f83610ce0565b92610d1d6040519485610c9e565b808452602092838086019260051b8201019283116102f1578301905b828210610d47575050505090565b81358152908301908301610d39565b67ffffffffffffffff8111610c9957601f01601f191660200190565b81601f820112156102f157803590610d8982610d56565b92610d976040519485610c9e565b828452602083830101116102f157816000926020809301838601378301015290565b60a06003198201126102f1576001600160a01b039160043583811681036102f1579260243590811681036102f1579167ffffffffffffffff916044358381116102f15782610e0991600401610cf8565b926064358181116102f15783610e2191600401610cf8565b926084359182116102f1576104ad91600401610d72565b346102f157610e4636610db9565b929091906001600160a01b03858116903382141580610ed1575b610eaa57821615610e915715610e795761069c946122e3565b604051626a0d4560e21b815260006004820152602490fd5b604051632bfa23e760e11b815260006004820152602490fd5b60405163711bec9160e11b81523360048201526001600160a01b0388166024820152604490fd5b50600082815260016020908152604080832033845290915290205460ff1615610e60565b346102f15760403660031901126102f15761069c600435610f146102f6565b90806000526003602052610f2f600160406000200154611fca565b6120b6565b346102f15760403660031901126102f157610f4d6102f6565b336001600160a01b03821603610f695761069c906004356120e2565b60405163334bd91960e11b8152600490fd5b346102f15760003660031901126102f157610f94611f1a565b60055460ff811615610fd35760ff19166005557f5db9ee0a495bf2e6ff9c91a7834c1ba4fdd244a5e8aa4e537bd38aeae4b073aa6020604051338152a1005b604051638dfc202b60e01b8152600490fd5b90815180825260208080930193019160005b828110611005575050505090565b835185529381019392810192600101610ff7565b9060206104ad928181520190610fe5565b346102f15760403660031901126102f15760043567ffffffffffffffff8082116102f157366023830112156102f157816004013561106781610ce0565b926110756040519485610c9e565b81845260209160248386019160051b830101913683116102f157602401905b8282106110cd57856024358681116102f15761051b916110bb6110c1923690600401610cf8565b906121fa565b60405191829182611019565b8380916110d98461030c565b815201910190611094565b346102f15760003660031901126102f157602060ff600554166040519015158152f35b346102f15760403660031901126102f1576001600160a01b036111286102db565b16600052600860205260406000206024356000526020526020604060002054604051908152f35b60609060031901126102f1576004356001600160a01b03811681036102f157906024359060443590565b346102f157602061119261118c3661114f565b916128e6565b6040519015158152f35b346102f15760003660031901126102f1576111b5611f1a565b6111bd612762565b600160ff1960055416176005557f62e78cea01bee320cd4e420270b5ea74000d11b0c9f74754ebdbfc544b05a2586020604051338152a1005b346102f15760003660031901126102f1576040517f00000000000000000000000000000000000000000000000000000000000000006001600160a01b03168152602090f35b346102f15760403660031901126102f157602060ff61128161125b6102f6565b6004356000526003845260406000209060018060a01b0316600052602052604060002090565b54166040519015158152f35b346102f15760003660031901126102f15760055460405160089190911c6001600160a01b03168152602090f35b346102f15760206111926112cd366105b6565b929190916129cd565b346102f15760003660031901126102f157602060405160008152f35b801515036102f157565b346102f15760403660031901126102f1576113156102db565b602435611321816112f2565b6001600160a01b0382169182156113a0578161135f6113709233600052600160205260406000209060018060a01b0316600052602052604060002090565b9060ff801983541691151516179055565b60405190151581527f17307eab39ab6107e8899845ad3d59bd9653f200f220920489ca2b5937696c3160203392a3005b60405162ced3e160e81b815260006004820152602490fd5b346102f15760003660031901126102f15760206040517fb1fadd3142ab2ad7f1337ea4d97112bcc8337fc11ce5b20cb04ad038adf998198152f35b346102f15760203660031901126102f157602460206114106102db565b6040516314a5749d60e31b81526001600160a01b03918216600482015292839182907f0000000000000000000000000000000000000000000000000000000000000000165afa8015610b1e5761051b9160009161147b575b5060405190151581529081906020820190565b611493915060203d8111610b1757610b088183610c9e565b38611468565b346102f15760203660031901126102f157600435600052600660205260c06040600020805490600181015490600281015460ff6003830154169060056004840154930154936040519586526020860152604085015215156060840152608083015260a0820152f35b346102f15760603660031901126102f157602435600435604435611523611f72565b600092828452600660205260408420546115d2577fb82c0453feace24ee6cfe34b821e767fcc527f2dba6c452e541f3e1ead521f0091611564821515612b08565b61156f811515612b63565b6115b461157a610cc0565b8381528360208201528260408201528660608201524260808201528660a08201526115af866000526006602052604060002090565b612bbd565b604080519283526020830191909152429082015280606081016107ba565b60405162461bcd60e51b815260206004820152601a60248201527f41737365742073686172657320616c72656164792065786973740000000000006044820152606490fd5b346102f15760403660031901126102f157600435602435611636612ae5565b61163e612762565b6040516314a5749d60e31b81523360048201526001600160a01b039060209081816024817f000000000000000000000000000000000000000000000000000000000000000087165afa8015610b1e5761169f91600091611816575b50612c4e565b6116b6610918856000526006602052604060002090565b6116c1831515612c8d565b6116e48360016116db876000526006602052604060002090565b01541015612cd8565b60026116fa856000526006602052604060002090565b01546117096109f98286612d24565b6040516323b872dd60e01b815233600482015230602482015260448101829052939092908190859060649082906000907f0000000000000000000000000000000000000000000000000000000000000000165af18015610b1e577f0d098aab4683aec3730d1b27a72fac136f51288c5ffc2586171a08fb568a6b3a9461179792600092610af1575050612d37565b6117b36117a386612d87565b6117ac86612d87565b9033612780565b60016117c9866000526006602052604060002090565b016117d5858254612d7a565b905533600090815260086020526040902081906117f39087906109d0565b556040805194855260208501919091528301523391606090a361069c6001600455565b61182d9150833d8511610b1757610b088183610c9e565b38611699565b346102f15760403660031901126102f157602435600435611853826112f2565b61185b611e6a565b7fb06427d72192ff6da61bdacc300260b0da7a3e456feeb9c376297a9f5bea190760206000938385526006825261189760408620541515612c0b565b838552600682526118ba81600360408820019060ff801983541691151516179055565b6040519015158152a280f35b346102f1576118d436610db9565b5050505050602060405163bc197c8160e01b8152f35b346102f1576118f83661114f565b91611901611dee565b60018060a01b03167f7b0c29e799ed468266b4d070c03070137a95cb869c5eb7c18063fb7b1a7a09c5602060009483865260078252604086208587528252806040872055604051908152a380f35b346102f15760203660031901126102f15760043560005260066020526080604060002080549060018101549060ff6003600283015492015416916040519384526020840152604083015215156060820152f35b346102f15760006040366003190112611a4a576119bd6102db565b81602435916119cb836112f2565b6119d3611dee565b6001600160a01b03907f0000000000000000000000000000000000000000000000000000000000000000821690813b15611a465783604492604051968795869463d1a81a8d60e01b8652166004850152151560248401525af18015610b1e57611a3a575080f35b611a4390610c85565b80f35b8380fd5b80fd5b346102f15760003660031901126102f15760206040517f9f2df0fed2c77648de5860a4cc508cd0818c85b8b8a1ab4ceeef8d981c8956a68152f35b346102f15760403660031901126102f15761069c600435611aa76102f6565b90806000526003602052611ac2600160406000200154611fca565b6120e2565b346102f15760403660031901126102f157611ae06102db565b6024359061051b60008381526006602052604081209080602052611b1984604083209060018060a01b0316600052602052604060002090565b546001600160a01b038516825260076020908152604080842060008981529252902054909181831115611bd35750611b518183612d7a565b915b835495611b916001860154986109d0611b75600360028a015499015460ff1690565b6001600160a01b03909416600090815260086020526040902090565b54946040519889988994919260e0969399989794919961010087019a87526020870152604086015215156060850152608084015260a083015260c08201520152565b91611b53565b346102f15760003660031901126102f15760206040517f65d7a28e3265b37a6474929f336521b332c1681b933f6cb9f3376673440d862a8152f35b346102f15760403660031901126102f157602060ff611281611c346102db565b611c3c6102f6565b6001600160a01b0391821660009081526001865260408082209290931681526020919091522090565b60a06003198201126102f1576001600160a01b039160043583811681036102f1579260243590811681036102f1579160443591606435916084359067ffffffffffffffff82116102f1576104ad91600401610d72565b346102f157611cc936611c65565b5050505050602060405163f23a6e6160e01b8152f35b346102f157611ced36611c65565b929091906001600160a01b038516338114159081611d3b575b50611d145761069c9461229b565b60405163711bec9160e11b81523360048201526001600160a01b0386166024820152604490fd5b6000908152600160209081526040808320338452909152902060ff915054161538611d06565b346102f15760003660031901126102f1576040517f00000000000000000000000000000000000000000000000000000000000000006001600160a01b03168152602090f35b346102f15760403660031901126102f1576001600160a01b03611dc76102db565b16600052600760205260406000206024356000526020526020604060002054604051908152f35b3360009081527ffca98a0144180c5ff9cc8eb43249ff58e5a9edc28ccc383a25775f69580acd20602052604090207fb6f0283bd1ed00c6aa7e988a7516070240f3610a34d167391359b648eb37cefc9060ff905b541615611e4c5750565b6044906040519063e2517d3f60e01b82523360048301526024820152fd5b3360009081527fd4f4ae7e0f1d6ef3e8290f298fbe252931b59dd183524e1af76274726da1e663602052604090207fb1fadd3142ab2ad7f1337ea4d97112bcc8337fc11ce5b20cb04ad038adf998199060ff90611e42565b3360009081527f3617319a054d772f909f7c479a2cebe5066e836a939412e32403c99029b92eff602052604090205460ff1615611efb57565b60405163e2517d3f60e01b815233600482015260006024820152604490fd5b3360009081527f30adeb818ef77f204f5a603c30fa5332397b6e28fb3b7f9d937ae6a6914716de602052604090207f65d7a28e3265b37a6474929f336521b332c1681b933f6cb9f3376673440d862a9060ff90611e42565b3360009081527f5562e70da342db81569f3094d36be279beaca7ad8e08f434ea188e79d2bfe10c602052604090207f9f2df0fed2c77648de5860a4cc508cd0818c85b8b8a1ab4ceeef8d981c8956a69060ff90611e42565b6000818152600360209081526040808320338452909152902060ff90611e42565b6001600160a01b03811660009081527f30adeb818ef77f204f5a603c30fa5332397b6e28fb3b7f9d937ae6a6914716de602052604081207f65d7a28e3265b37a6474929f336521b332c1681b933f6cb9f3376673440d862a9060ff905b54166120b0578082526003602090815260408084206001600160a01b038616600090815292529020805460ff1916600117905533926001600160a01b0316917f2f8788117e7eff1d82e926ec794901d17c78024a50270940304540a733656f0d9080a4600190565b50905090565b600090808252600360205260ff61204884604085209060018060a01b0316600052602052604060002090565b600090808252600360205260ff61210e84604085209060018060a01b0316600052602052604060002090565b5416156120b0578082526003602090815260408084206001600160a01b038616600090815292529020805460ff1916905533926001600160a01b0316917ff6391f5c32d9c69d2a47ea670b442974b53935d1edc7fd64eb21e047a839171b9080a4600190565b9061217e82610ce0565b61218b6040519182610c9e565b828152809261219c601f1991610ce0565b0190602036910137565b634e487b7160e01b600052601160045260246000fd5b60001981146121cb5760010190565b6121a6565b80518210156121e45760209160051b010190565b634e487b7160e01b600052603260045260246000fd5b919091805183518082036122795750506122148151612174565b90600090815b8151811015612271578061225b61226c9260051b85602080808489010151938c010151825252604086209060018060a01b0316600052602052604060002090565b5461226682876121d0565b526121bc565b61221a565b509193505050565b604051635b05999160e01b815260048101919091526024810191909152604490fd5b939291906001600160a01b0380821615610e9157851615610e79576122e194604051926001845260208401526040830193600185526060840152608083016040526122e3565b565b949190916122ef612762565b815184519081810361227957505060005b82518110156123fc57600581901b83810160209081015191870101516001600160a01b03929186908a8516612375575b612343948216612348575b5050506121bc565b612300565b61236b91610971612363926000526000602052604060002090565b91825461289f565b905538858161233b565b91929390506123928a610971846000526000602052604060002090565b548381106123c55791879184612343969594036123bd8d610971856000526000602052604060002090565b559450612330565b6040516303dee4c560e01b81526001600160a01b038c16600482015260248101919091526044810184905260648101839052608490fd5b5094919392909360018551146000146124a7576020858101518382015160408051928352928201526001600160a01b03838116929086169133917fc3d58168c5ae7397731d063d5bbf3d657854427343f4c083240f7aacaa2d0f6291a45b6001600160a01b038116612470575b5050505050565b84516001036124965760208061248c960151920151923361259a565b3880808080612469565b6124a2949192336126e6565b61248c565b6040516001600160a01b03828116919085169033907f4a39dc06d4c0dbc64b70af90fd698a233a518aa5d07e595d983b8c0526c8f7fb90806124ea888c836128ac565b0390a461245a565b908160209103126102f157516104ad8161036d565b91926104ad95949160a094600180871b03809216855216602084015260408301526060820152816080820152019061045c565b6040513d6000823e3d90fd5b604051906020820182811067ffffffffffffffff821117610c995760405260008252565b3d15612595573d9061257b82610d56565b916125896040519384610c9e565b82523d6000602084013e565b606090565b939290949194853b6125af575b505050505050565b6125d2602093604051958694859463f23a6e6160e01b998a875260048701612507565b038160006001600160a01b0388165af160009181612668575b5061262a57826125f961256a565b805191908261262357604051632bfa23e760e11b81526001600160a01b0383166004820152602490fd5b6020915001fd5b6001600160e01b0319160361264557503880808080806125a7565b604051632bfa23e760e11b81526001600160a01b03919091166004820152602490fd5b61268a91925060203d8111612691575b6126828183610c9e565b8101906124f2565b90386125eb565b503d612678565b93906104ad95936126ca916126d89460018060a01b03809216885216602087015260a0604087015260a0860190610fe5565b908482036060860152610fe5565b91608081840391015261045c565b939290949194853b6126fa57505050505050565b6125d2602093604051958694859463bc197c8160e01b998a875260048701612698565b1561272457565b60405162461bcd60e51b8152602060048201526016602482015275496e76616c696420706175736572206164647265737360501b6044820152606490fd5b60ff6005541661276e57565b60405163d93c066560e01b8152600490fd5b91909161278b612762565b825182519081810361227957505060005b83518110156127ff57600581901b84810160209081015191850101516127d5929184906001600160a01b0382166127da575050506121bc565b61279c565b6127f591610971612363926000526000602052604060002090565b905538838161233b565b50916001815114600014612860576020908101519181015160408051938452918301526001600160a01b039092169160009133917fc3d58168c5ae7397731d063d5bbf3d657854427343f4c083240f7aacaa2d0f629190819081015b0390a4565b7f4a39dc06d4c0dbc64b70af90fd698a233a518aa5d07e595d983b8c0526c8f7fb61285b6000939460405191829160018060a01b0316963395836128ac565b919082018092116121cb57565b90916128c36104ad93604084526040840190610fe5565b916020818403910152610fe5565b908160209103126102f157516104ad816112f2565b6040516314a5749d60e31b81526001600160a01b0382166004820152909290602081806024810103817f00000000000000000000000000000000000000000000000000000000000000006001600160a01b03165afa908115610b1e576000916129af575b501580156129a3575b61299b576109df826109d061297986610971612996976000526000602052604060002090565b546001600160a01b03909616600090815260076020526040902090565b111590565b505050600090565b5060055460ff16612953565b6129c7915060203d8111610b1757610b088183610c9e565b3861294a565b6040516314a5749d60e31b8082526001600160a01b03838116600484015292959390927f00000000000000000000000000000000000000000000000000000000000000001691602091908281602481875afa908115610b1e57600091612ac8575b5015928315612a6a575b50505080915090156129a35761299b576109df826109d061297986610971612996976000526000602052604060002090565b6040519485526001600160a01b03919091166004850152909291508290829060249082905afa918215610b1e57600092612aab575b50501580388080612a38565b612ac19250803d10610b1757610b088183610c9e565b3880612a9f565b612adf9150833d8511610b1757610b088183610c9e565b38612a2e565b600260045414612af6576002600455565b604051633ee5aeb560e01b8152600490fd5b15612b0f57565b60405162461bcd60e51b815260206004820152602660248201527f546f74616c20737570706c79206d7573742062652067726561746572207468616044820152656e207a65726f60d01b6064820152608490fd5b15612b6a57565b60405162461bcd60e51b815260206004820152602560248201527f5368617265207072696365206d7573742062652067726561746572207468616e604482015264207a65726f60d81b6064820152608490fd5b9060a0600591805184556020810151600185015560408101516002850155612bfa60608201511515600386019060ff801983541691151516179055565b608081015160048501550151910155565b15612c1257565b60405162461bcd60e51b8152602060048201526014602482015273105cdcd95d08191bd95cc81b9bdd08195e1a5cdd60621b6044820152606490fd5b15612c5557565b60405162461bcd60e51b815260206004820152601060248201526f155cd95c881b9bdd08185b1b1bddd95960821b6044820152606490fd5b15612c9457565b606460405162461bcd60e51b815260206004820152602060248201527f416d6f756e74206d7573742062652067726561746572207468616e207a65726f6044820152fd5b15612cdf57565b60405162461bcd60e51b815260206004820152601d60248201527f496e73756666696369656e7420617661696c61626c6520737570706c790000006044820152606490fd5b818102929181159184041417156121cb57565b15612d3e57565b60405162461bcd60e51b81526020600482015260146024820152731554d110c81d1c985b9cd9995c8819985a5b195960621b6044820152606490fd5b919082039182116121cb57565b604051906040820182811067ffffffffffffffff821117610c9957604052600182526020820160203682378251156121e4575290565b15612dc457565b60405162461bcd60e51b8152602060048201526011602482015270109d5e595c881b9bdd08185b1b1bddd959607a1b6044820152606490fd5b15612e0457565b60405162461bcd60e51b815260206004820152601260248201527114d95b1b195c881b9bdd08185b1b1bddd95960721b6044820152606490fd5b15612e4557565b60405162461bcd60e51b815260206004820152602260248201527f54726164696e67206e6f7420656e61626c656420666f72207468697320617373604482015261195d60f21b6064820152608490fd5b15612e9c57565b60405162461bcd60e51b815260206004820152601a60248201527f43616e6e6f74207472616465207769746820796f757273656c660000000000006044820152606490fd5b15612ee857565b60405162461bcd60e51b815260206004820152601f60248201527f53656c6c65722068617320696e73756666696369656e742062616c616e6365006044820152606490fd5b15612f3457565b60405162461bcd60e51b815260206004820152601d60248201527f496e73756666696369656e7420756e66726f7a656e2062616c616e63650000006044820152606490fdfea264697066735822122057585e37bd58428b6561e6b8cdc6c90a0491c1afe989d0025b1e0dd3032ecd7264736f6c634300081400332f8788117e7eff1d82e926ec794901d17c78024a50270940304540a733656f0d","opcodes":"PUSH1 0x40 PUSH1 0xE0 DUP2 MSTORE CALLVALUE PUSH3 0x3D0 JUMPI PUSH3 0x3640 SWAP1 DUP2 CODESIZE SUB DUP1 PUSH3 0x1F DUP2 PUSH3 0x3D5 JUMP JUMPDEST SWAP4 DUP5 CODECOPY DUP3 ADD PUSH1 0x80 DUP4 DUP3 SUB SLT PUSH3 0x3D0 JUMPI PUSH3 0x3A DUP4 PUSH3 0x3FB JUMP JUMPDEST SWAP3 PUSH1 0x20 SWAP4 PUSH3 0x4B DUP6 DUP4 ADD PUSH3 0x3FB JUMP JUMPDEST SWAP3 PUSH3 0x59 DUP6 DUP5 ADD PUSH3 0x3FB JUMP JUMPDEST PUSH1 0x60 DUP5 ADD MLOAD SWAP1 SWAP4 PUSH1 0x1 PUSH1 0x1 PUSH1 0x40 SHL SUB SWAP2 SWAP1 DUP3 DUP3 GT PUSH3 0x3D0 JUMPI ADD SWAP2 PUSH1 0x1F DUP2 DUP2 DUP6 ADD SLT ISZERO PUSH3 0x3D0 JUMPI DUP4 MLOAD SWAP4 DUP4 DUP6 GT PUSH3 0x3A6 JUMPI PUSH1 0x1F NOT SWAP5 PUSH3 0xA1 DUP4 DUP3 ADD DUP8 AND DUP13 ADD PUSH3 0x3D5 JUMP JUMPDEST SWAP4 DUP2 DUP6 MSTORE DUP12 DUP3 DUP5 ADD ADD GT PUSH3 0x3D0 JUMPI DUP11 SWAP2 PUSH1 0x0 JUMPDEST DUP3 DUP2 LT PUSH3 0x3BC JUMPI POP POP SWAP1 PUSH1 0x0 SWAP2 DUP5 ADD ADD MSTORE DUP2 MLOAD SWAP3 DUP4 GT PUSH3 0x3A6 JUMPI PUSH1 0x2 SLOAD SWAP2 PUSH1 0x1 SWAP5 DUP6 DUP5 DUP2 SHR SWAP5 AND DUP1 ISZERO PUSH3 0x39B JUMPI JUMPDEST DUP12 DUP6 LT EQ PUSH3 0x385 JUMPI DUP4 DUP4 DUP7 SWAP6 GT PUSH3 0x32A JUMPI JUMPDEST POP DUP11 SWAP3 DUP5 GT PUSH1 0x1 EQ PUSH3 0x2C3 JUMPI POP PUSH1 0x0 SWAP3 PUSH3 0x2B7 JUMPI JUMPDEST POP POP PUSH1 0x0 NOT PUSH1 0x3 DUP4 SWAP1 SHL SHR NOT AND SWAP1 DUP3 SHL OR PUSH1 0x2 SSTORE JUMPDEST PUSH1 0x4 SSTORE PUSH1 0x1 PUSH1 0x1 PUSH1 0xA0 SHL SUB SWAP1 DUP2 AND SWAP2 DUP3 ISZERO PUSH3 0x273 JUMPI DUP2 DUP5 AND ISZERO PUSH3 0x22F JUMPI AND SWAP1 DUP2 ISZERO PUSH3 0x1EB JUMPI PUSH3 0x189 SWAP4 SWAP5 POP PUSH1 0x80 MSTORE DUP2 PUSH1 0xA0 MSTORE PUSH1 0xC0 MSTORE PUSH3 0x16A CALLER PUSH3 0x410 JUMP JUMPDEST POP PUSH3 0x176 CALLER PUSH3 0x491 JUMP JUMPDEST POP PUSH3 0x182 CALLER PUSH3 0x534 JUMP JUMPDEST POP PUSH3 0x5D2 JUMP JUMPDEST POP MLOAD PUSH2 0x2FAF SWAP1 DUP2 PUSH3 0x671 DUP3 CODECOPY PUSH1 0x80 MLOAD DUP2 DUP2 DUP2 PUSH2 0xA44 ADD MSTORE DUP2 DUP2 PUSH2 0x120C ADD MSTORE PUSH2 0x173B ADD MSTORE PUSH1 0xA0 MLOAD DUP2 PUSH2 0x1D77 ADD MSTORE PUSH1 0xC0 MLOAD DUP2 DUP2 DUP2 PUSH2 0x42D ADD MSTORE DUP2 DUP2 PUSH2 0x868 ADD MSTORE DUP2 DUP2 PUSH2 0x1434 ADD MSTORE DUP2 DUP2 PUSH2 0x1664 ADD MSTORE DUP2 DUP2 PUSH2 0x19DE ADD MSTORE DUP2 DUP2 PUSH2 0x2911 ADD MSTORE PUSH2 0x29F2 ADD MSTORE RETURN JUMPDEST DUP4 MLOAD PUSH3 0x461BCD PUSH1 0xE5 SHL DUP2 MSTORE PUSH1 0x4 DUP2 ADD DUP7 SWAP1 MSTORE PUSH1 0x19 PUSH1 0x24 DUP3 ADD MSTORE PUSH32 0x496E76616C696420616C6C6F776C697374206164647265737300000000000000 PUSH1 0x44 DUP3 ADD MSTORE PUSH1 0x64 SWAP1 REVERT JUMPDEST DUP5 MLOAD PUSH3 0x461BCD PUSH1 0xE5 SHL DUP2 MSTORE PUSH1 0x4 DUP2 ADD DUP8 SWAP1 MSTORE PUSH1 0x19 PUSH1 0x24 DUP3 ADD MSTORE PUSH32 0x496E76616C69642070726F706572747920636F6E747261637400000000000000 PUSH1 0x44 DUP3 ADD MSTORE PUSH1 0x64 SWAP1 REVERT JUMPDEST DUP5 MLOAD PUSH3 0x461BCD PUSH1 0xE5 SHL DUP2 MSTORE PUSH1 0x4 DUP2 ADD DUP8 SWAP1 MSTORE PUSH1 0x14 PUSH1 0x24 DUP3 ADD MSTORE PUSH32 0x496E76616C696420555344432061646472657373000000000000000000000000 PUSH1 0x44 DUP3 ADD MSTORE PUSH1 0x64 SWAP1 REVERT JUMPDEST ADD MLOAD SWAP1 POP CODESIZE DUP1 PUSH3 0x111 JUMP JUMPDEST DUP6 SWAP5 SWAP3 SWAP2 SWAP3 AND SWAP2 PUSH1 0x2 PUSH1 0x0 MSTORE DUP11 PUSH1 0x0 KECCAK256 SWAP3 PUSH1 0x0 JUMPDEST DUP13 DUP3 DUP3 LT PUSH3 0x313 JUMPI POP POP DUP5 GT PUSH3 0x2F9 JUMPI JUMPDEST POP POP POP DUP2 SHL ADD PUSH1 0x2 SSTORE PUSH3 0x126 JUMP JUMPDEST ADD MLOAD PUSH1 0x0 NOT PUSH1 0xF8 DUP5 PUSH1 0x3 SHL AND SHR NOT AND SWAP1 SSTORE CODESIZE DUP1 DUP1 PUSH3 0x2EA JUMP JUMPDEST DUP4 DUP6 ADD MLOAD DUP7 SSTORE DUP9 SWAP8 SWAP1 SWAP6 ADD SWAP5 SWAP4 DUP5 ADD SWAP4 ADD PUSH3 0x2D7 JUMP JUMPDEST SWAP1 SWAP2 SWAP3 SWAP4 POP PUSH1 0x2 PUSH1 0x0 MSTORE DUP11 PUSH1 0x0 KECCAK256 DUP5 DUP1 DUP8 ADD PUSH1 0x5 SHR DUP3 ADD SWAP3 DUP14 DUP9 LT PUSH3 0x37B JUMPI JUMPDEST SWAP2 DUP8 SWAP7 DUP10 SWAP3 SWAP7 SWAP6 SWAP5 SWAP4 ADD PUSH1 0x5 SHR ADD SWAP2 JUMPDEST DUP3 DUP2 LT PUSH3 0x36B JUMPI POP POP PUSH3 0xFA JUMP JUMPDEST PUSH1 0x0 DUP2 SSTORE DUP8 SWAP7 POP DUP9 SWAP2 ADD PUSH3 0x35B JUMP JUMPDEST SWAP3 POP DUP2 SWAP3 PUSH3 0x34B JUMP JUMPDEST PUSH4 0x4E487B71 PUSH1 0xE0 SHL PUSH1 0x0 MSTORE PUSH1 0x22 PUSH1 0x4 MSTORE PUSH1 0x24 PUSH1 0x0 REVERT JUMPDEST SWAP4 PUSH1 0x7F AND SWAP4 PUSH3 0xE6 JUMP JUMPDEST PUSH4 0x4E487B71 PUSH1 0xE0 SHL PUSH1 0x0 MSTORE PUSH1 0x41 PUSH1 0x4 MSTORE PUSH1 0x24 PUSH1 0x0 REVERT JUMPDEST DUP2 DUP2 ADD DUP5 ADD MLOAD DUP7 DUP3 ADD DUP6 ADD MSTORE DUP4 ADD PUSH3 0xB5 JUMP JUMPDEST PUSH1 0x0 DUP1 REVERT JUMPDEST PUSH1 0x40 MLOAD SWAP2 SWAP1 PUSH1 0x1F ADD PUSH1 0x1F NOT AND DUP3 ADD PUSH1 0x1 PUSH1 0x1 PUSH1 0x40 SHL SUB DUP2 GT DUP4 DUP3 LT OR PUSH3 0x3A6 JUMPI PUSH1 0x40 MSTORE JUMP JUMPDEST MLOAD SWAP1 PUSH1 0x1 PUSH1 0x1 PUSH1 0xA0 SHL SUB DUP3 AND DUP3 SUB PUSH3 0x3D0 JUMPI JUMP JUMPDEST PUSH1 0x1 PUSH1 0x1 PUSH1 0xA0 SHL SUB AND PUSH1 0x0 DUP2 DUP2 MSTORE PUSH32 0x3617319A054D772F909F7C479A2CEBE5066E836A939412E32403C99029B92EFF PUSH1 0x20 MSTORE PUSH1 0x40 DUP2 KECCAK256 SLOAD SWAP1 SWAP2 SWAP1 PUSH1 0xFF AND PUSH3 0x48D JUMPI DUP2 DUP1 MSTORE PUSH1 0x3 PUSH1 0x20 MSTORE PUSH1 0x40 DUP3 KECCAK256 DUP2 DUP4 MSTORE PUSH1 0x20 MSTORE PUSH1 0x40 DUP3 KECCAK256 PUSH1 0x1 PUSH1 0xFF NOT DUP3 SLOAD AND OR SWAP1 SSTORE CALLER SWAP2 PUSH1 0x0 DUP1 MLOAD PUSH1 0x20 PUSH3 0x3620 DUP4 CODECOPY DUP2 MLOAD SWAP2 MSTORE DUP2 DUP1 LOG4 PUSH1 0x1 SWAP1 JUMP JUMPDEST POP SWAP1 JUMP JUMPDEST PUSH1 0x1 PUSH1 0x1 PUSH1 0xA0 SHL SUB AND PUSH1 0x0 DUP2 DUP2 MSTORE PUSH32 0xD4F4AE7E0F1D6EF3E8290F298FBE252931B59DD183524E1AF76274726DA1E663 PUSH1 0x20 MSTORE PUSH1 0x40 DUP2 KECCAK256 SLOAD SWAP1 SWAP2 SWAP1 PUSH32 0xB1FADD3142AB2AD7F1337EA4D97112BCC8337FC11CE5B20CB04AD038ADF99819 SWAP1 PUSH1 0xFF AND PUSH3 0x52F JUMPI DUP1 DUP4 MSTORE PUSH1 0x3 PUSH1 0x20 MSTORE PUSH1 0x40 DUP4 KECCAK256 DUP3 DUP5 MSTORE PUSH1 0x20 MSTORE PUSH1 0x40 DUP4 KECCAK256 PUSH1 0x1 PUSH1 0xFF NOT DUP3 SLOAD AND OR SWAP1 SSTORE PUSH1 0x0 DUP1 MLOAD PUSH1 0x20 PUSH3 0x3620 DUP4 CODECOPY DUP2 MLOAD SWAP2 MSTORE CALLER SWAP4 DUP1 LOG4 PUSH1 0x1 SWAP1 JUMP JUMPDEST POP POP SWAP1 JUMP JUMPDEST PUSH1 0x1 PUSH1 0x1 PUSH1 0xA0 SHL SUB AND PUSH1 0x0 DUP2 DUP2 MSTORE PUSH32 0xFCA98A0144180C5FF9CC8EB43249FF58E5A9EDC28CCC383A25775F69580ACD20 PUSH1 0x20 MSTORE PUSH1 0x40 DUP2 KECCAK256 SLOAD SWAP1 SWAP2 SWAP1 PUSH32 0xB6F0283BD1ED00C6AA7E988A7516070240F3610A34D167391359B648EB37CEFC SWAP1 PUSH1 0xFF AND PUSH3 0x52F JUMPI DUP1 DUP4 MSTORE PUSH1 0x3 PUSH1 0x20 MSTORE PUSH1 0x40 DUP4 KECCAK256 DUP3 DUP5 MSTORE PUSH1 0x20 MSTORE PUSH1 0x40 DUP4 KECCAK256 PUSH1 0x1 PUSH1 0xFF NOT DUP3 SLOAD AND OR SWAP1 SSTORE PUSH1 0x0 DUP1 MLOAD PUSH1 0x20 PUSH3 0x3620 DUP4 CODECOPY DUP2 MLOAD SWAP2 MSTORE CALLER SWAP4 DUP1 LOG4 PUSH1 0x1 SWAP1 JUMP JUMPDEST PUSH1 0x1 PUSH1 0x1 PUSH1 0xA0 SHL SUB AND PUSH1 0x0 DUP2 DUP2 MSTORE PUSH32 0x5562E70DA342DB81569F3094D36BE279BEACA7AD8E08F434EA188E79D2BFE10C PUSH1 0x20 MSTORE PUSH1 0x40 DUP2 KECCAK256 SLOAD SWAP1 SWAP2 SWAP1 PUSH32 0x9F2DF0FED2C77648DE5860A4CC508CD0818C85B8B8A1AB4CEEEF8D981C8956A6 SWAP1 PUSH1 0xFF AND PUSH3 0x52F JUMPI DUP1 DUP4 MSTORE PUSH1 0x3 PUSH1 0x20 MSTORE PUSH1 0x40 DUP4 KECCAK256 DUP3 DUP5 MSTORE PUSH1 0x20 MSTORE PUSH1 0x40 DUP4 KECCAK256 PUSH1 0x1 PUSH1 0xFF NOT DUP3 SLOAD AND OR SWAP1 SSTORE PUSH1 0x0 DUP1 MLOAD PUSH1 0x20 PUSH3 0x3620 DUP4 CODECOPY DUP2 MLOAD SWAP2 MSTORE CALLER SWAP4 DUP1 LOG4 PUSH1 0x1 SWAP1 JUMP INVALID PUSH1 0x80 PUSH1 0x40 MSTORE PUSH1 0x4 CALLDATASIZE LT ISZERO PUSH2 0x12 JUMPI PUSH1 0x0 DUP1 REVERT JUMPDEST PUSH1 0x0 CALLDATALOAD PUSH1 0xE0 SHR DUP1 PUSH3 0xFDD58E EQ PUSH2 0x2D6 JUMPI DUP1 PUSH4 0x1FFC9A7 EQ PUSH2 0x2D1 JUMPI DUP1 PUSH4 0xAD5B98C EQ PUSH2 0x2CC JUMPI DUP1 PUSH4 0xE89341C EQ PUSH2 0x2C7 JUMPI DUP1 PUSH4 0x18D308D0 EQ PUSH2 0x2C2 JUMPI DUP1 PUSH4 0x198596B5 EQ PUSH2 0x2BD JUMPI DUP1 PUSH4 0x1B1DA1AF EQ PUSH2 0x2B8 JUMPI DUP1 PUSH4 0x20FA6E06 EQ PUSH2 0x2B3 JUMPI DUP1 PUSH4 0x248A9CA3 EQ PUSH2 0x2AE JUMPI DUP1 PUSH4 0x2D88AF4A EQ PUSH2 0x2A9 JUMPI DUP1 PUSH4 0x2EB2C2D6 EQ PUSH2 0x2A4 JUMPI DUP1 PUSH4 0x2F2FF15D EQ PUSH2 0x29F JUMPI DUP1 PUSH4 0x36568ABE EQ PUSH2 0x29A JUMPI DUP1 PUSH4 0x3F4BA83A EQ PUSH2 0x295 JUMPI DUP1 PUSH4 0x4E1273F4 EQ PUSH2 0x290 JUMPI DUP1 PUSH4 0x5C975ABB EQ PUSH2 0x28B JUMPI DUP1 PUSH4 0x6B5E796B EQ PUSH2 0x286 JUMPI DUP1 PUSH4 0x6D720C06 EQ PUSH2 0x281 JUMPI DUP1 PUSH4 0x8456CB59 EQ PUSH2 0x27C JUMPI DUP1 PUSH4 0x89A30271 EQ PUSH2 0x277 JUMPI DUP1 PUSH4 0x91D14854 EQ PUSH2 0x272 JUMPI DUP1 PUSH4 0x9FD0506D EQ PUSH2 0x26D JUMPI DUP1 PUSH4 0xA02FF685 EQ PUSH2 0x268 JUMPI DUP1 PUSH4 0xA217FDDF EQ PUSH2 0x263 JUMPI DUP1 PUSH4 0xA22CB465 EQ PUSH2 0x25E JUMPI DUP1 PUSH4 0xA4B32DE8 EQ PUSH2 0x259 JUMPI DUP1 PUSH4 0xA52BA4E8 EQ PUSH2 0x254 JUMPI DUP1 PUSH4 0xADACD487 EQ PUSH2 0x24F JUMPI DUP1 PUSH4 0xAEEDB379 EQ PUSH2 0x24A JUMPI DUP1 PUSH4 0xB25D2D07 EQ PUSH2 0x245 JUMPI DUP1 PUSH4 0xB62100AF EQ PUSH2 0x240 JUMPI DUP1 PUSH4 0xBC197C81 EQ PUSH2 0x23B JUMPI DUP1 PUSH4 0xBD456F5C EQ PUSH2 0x236 JUMPI DUP1 PUSH4 0xBF59D29B EQ PUSH2 0x231 JUMPI DUP1 PUSH4 0xD1A81A8D EQ PUSH2 0x22C JUMPI DUP1 PUSH4 0xD5391393 EQ PUSH2 0x227 JUMPI DUP1 PUSH4 0xD547741F EQ PUSH2 0x222 JUMPI DUP1 PUSH4 0xDDD9D045 EQ PUSH2 0x21D JUMPI DUP1 PUSH4 0xE63AB1E9 EQ PUSH2 0x218 JUMPI DUP1 PUSH4 0xE985E9C5 EQ PUSH2 0x213 JUMPI DUP1 PUSH4 0xF23A6E61 EQ PUSH2 0x20E JUMPI DUP1 PUSH4 0xF242432A EQ PUSH2 0x209 JUMPI DUP1 PUSH4 0xF61EBC36 EQ PUSH2 0x204 JUMPI PUSH4 0xFF6E708C EQ PUSH2 0x1FF JUMPI PUSH1 0x0 DUP1 REVERT JUMPDEST PUSH2 0x1DA6 JUMP JUMPDEST PUSH2 0x1D61 JUMP JUMPDEST PUSH2 0x1CDF JUMP JUMPDEST PUSH2 0x1CBB JUMP JUMPDEST PUSH2 0x1C14 JUMP JUMPDEST PUSH2 0x1BD9 JUMP JUMPDEST PUSH2 0x1AC7 JUMP JUMPDEST PUSH2 0x1A88 JUMP JUMPDEST PUSH2 0x1A4D JUMP JUMPDEST PUSH2 0x19A2 JUMP JUMPDEST PUSH2 0x194F JUMP JUMPDEST PUSH2 0x18EA JUMP JUMPDEST PUSH2 0x18C6 JUMP JUMPDEST PUSH2 0x1833 JUMP JUMPDEST PUSH2 0x1617 JUMP JUMPDEST PUSH2 0x1501 JUMP JUMPDEST PUSH2 0x1499 JUMP JUMPDEST PUSH2 0x13F3 JUMP JUMPDEST PUSH2 0x13B8 JUMP JUMPDEST PUSH2 0x12FC JUMP JUMPDEST PUSH2 0x12D6 JUMP JUMPDEST PUSH2 0x12BA JUMP JUMPDEST PUSH2 0x128D JUMP JUMPDEST PUSH2 0x123B JUMP JUMPDEST PUSH2 0x11F6 JUMP JUMPDEST PUSH2 0x119C JUMP JUMPDEST PUSH2 0x1179 JUMP JUMPDEST PUSH2 0x1107 JUMP JUMPDEST PUSH2 0x10E4 JUMP JUMPDEST PUSH2 0x102A JUMP JUMPDEST PUSH2 0xF7B JUMP JUMPDEST PUSH2 0xF34 JUMP JUMPDEST PUSH2 0xEF5 JUMP JUMPDEST PUSH2 0xE38 JUMP JUMPDEST PUSH2 0xB8C JUMP JUMPDEST PUSH2 0xB5D JUMP JUMPDEST PUSH2 0x816 JUMP JUMPDEST PUSH2 0x715 JUMP JUMPDEST PUSH2 0x6DA JUMP JUMPDEST PUSH2 0x5EF JUMP JUMPDEST PUSH2 0x4B0 JUMP JUMPDEST PUSH2 0x417 JUMP JUMPDEST PUSH2 0x37F JUMP JUMPDEST PUSH2 0x320 JUMP JUMPDEST PUSH1 0x4 CALLDATALOAD SWAP1 PUSH1 0x1 PUSH1 0x1 PUSH1 0xA0 SHL SUB DUP3 AND DUP3 SUB PUSH2 0x2F1 JUMPI JUMP JUMPDEST PUSH1 0x0 DUP1 REVERT JUMPDEST PUSH1 0x24 CALLDATALOAD SWAP1 PUSH1 0x1 PUSH1 0x1 PUSH1 0xA0 SHL SUB DUP3 AND DUP3 SUB PUSH2 0x2F1 JUMPI JUMP JUMPDEST CALLDATALOAD SWAP1 PUSH1 0x1 PUSH1 0x1 PUSH1 0xA0 SHL SUB DUP3 AND DUP3 SUB PUSH2 0x2F1 JUMPI JUMP JUMPDEST CALLVALUE PUSH2 0x2F1 JUMPI PUSH1 0x40 CALLDATASIZE PUSH1 0x3 NOT ADD SLT PUSH2 0x2F1 JUMPI PUSH1 0x20 PUSH2 0x364 PUSH2 0x33E PUSH2 0x2DB JUMP JUMPDEST PUSH1 0x24 CALLDATALOAD PUSH1 0x0 MSTORE PUSH1 0x0 DUP4 MSTORE PUSH1 0x40 PUSH1 0x0 KECCAK256 SWAP1 PUSH1 0x1 DUP1 PUSH1 0xA0 SHL SUB AND PUSH1 0x0 MSTORE PUSH1 0x20 MSTORE PUSH1 0x40 PUSH1 0x0 KECCAK256 SWAP1 JUMP JUMPDEST SLOAD PUSH1 0x40 MLOAD SWAP1 DUP2 MSTORE RETURN JUMPDEST PUSH1 0x1 PUSH1 0x1 PUSH1 0xE0 SHL SUB NOT DUP2 AND SUB PUSH2 0x2F1 JUMPI JUMP JUMPDEST CALLVALUE PUSH2 0x2F1 JUMPI PUSH1 0x20 CALLDATASIZE PUSH1 0x3 NOT ADD SLT PUSH2 0x2F1 JUMPI PUSH1 0x20 PUSH1 0x4 CALLDATALOAD PUSH2 0x39E DUP2 PUSH2 0x36D JUMP JUMPDEST PUSH1 0x1 PUSH1 0x1 PUSH1 0xE0 SHL SUB NOT AND PUSH4 0x6CDB3D13 PUSH1 0xE1 SHL DUP2 EQ DUP1 ISZERO PUSH2 0x407 JUMPI JUMPDEST DUP1 ISZERO PUSH2 0x3F7 JUMPI JUMPDEST DUP1 SWAP2 DUP2 ISZERO PUSH2 0x3D5 JUMPI JUMPDEST POP POP PUSH1 0x40 MLOAD SWAP1 ISZERO ISZERO DUP2 MSTORE RETURN JUMPDEST PUSH4 0x7965DB0B PUSH1 0xE0 SHL EQ SWAP2 POP DUP2 ISZERO PUSH2 0x3EF JUMPI JUMPDEST POP CODESIZE DUP1 PUSH2 0x3C9 JUMP JUMPDEST SWAP1 POP CODESIZE PUSH2 0x3E7 JUMP JUMPDEST POP PUSH4 0x1FFC9A7 PUSH1 0xE0 SHL DUP2 EQ PUSH2 0x3C0 JUMP JUMPDEST POP PUSH4 0x3A24D07 PUSH1 0xE2 SHL DUP2 EQ PUSH2 0x3B9 JUMP JUMPDEST CALLVALUE PUSH2 0x2F1 JUMPI PUSH1 0x0 CALLDATASIZE PUSH1 0x3 NOT ADD SLT PUSH2 0x2F1 JUMPI PUSH1 0x40 MLOAD PUSH32 0x0 PUSH1 0x1 PUSH1 0x1 PUSH1 0xA0 SHL SUB AND DUP2 MSTORE PUSH1 0x20 SWAP1 RETURN JUMPDEST SWAP2 SWAP1 DUP3 MLOAD SWAP3 DUP4 DUP3 MSTORE PUSH1 0x0 JUMPDEST DUP5 DUP2 LT PUSH2 0x488 JUMPI POP POP DUP3 PUSH1 0x0 PUSH1 0x20 DUP1 SWAP5 SWAP6 DUP5 ADD ADD MSTORE PUSH1 0x1F DUP1 NOT SWAP2 ADD AND ADD ADD SWAP1 JUMP JUMPDEST PUSH1 0x20 DUP2 DUP4 ADD DUP2 ADD MLOAD DUP5 DUP4 ADD DUP3 ADD MSTORE ADD PUSH2 0x467 JUMP JUMPDEST SWAP1 PUSH1 0x20 PUSH2 0x4AD SWAP3 DUP2 DUP2 MSTORE ADD SWAP1 PUSH2 0x45C JUMP JUMPDEST SWAP1 JUMP JUMPDEST CALLVALUE PUSH2 0x2F1 JUMPI PUSH1 0x20 DUP1 PUSH1 0x3 NOT CALLDATASIZE ADD SLT PUSH2 0x2F1 JUMPI PUSH1 0x40 MLOAD SWAP1 PUSH1 0x0 SWAP1 PUSH1 0x2 SLOAD PUSH1 0x1 SWAP2 DUP2 DUP4 SHR SWAP3 DUP1 DUP4 AND SWAP3 DUP4 ISZERO PUSH2 0x5AC JUMPI JUMPDEST DUP3 DUP6 LT DUP5 EQ PUSH2 0x598 JUMPI DUP5 DUP8 MSTORE PUSH1 0x20 DUP8 ADD SWAP4 SWAP1 DUP2 ISZERO PUSH2 0x579 JUMPI POP PUSH1 0x1 EQ PUSH2 0x51F JUMPI JUMPDEST PUSH2 0x51B DUP7 PUSH2 0x50F DUP2 DUP9 SUB DUP3 PUSH2 0xC9E JUMP JUMPDEST PUSH1 0x40 MLOAD SWAP2 DUP3 SWAP2 DUP3 PUSH2 0x49C JUMP JUMPDEST SUB SWAP1 RETURN JUMPDEST PUSH1 0x2 PUSH1 0x0 SWAP1 DUP2 MSTORE SWAP5 POP SWAP2 SWAP3 SWAP2 PUSH32 0x405787FA12A823E0F2B7631CC41B3BA8828B3321CA811111FA75CD3AA3BB5ACE JUMPDEST DUP4 DUP7 LT PUSH2 0x568 JUMPI POP POP POP SWAP2 ADD SWAP1 POP PUSH2 0x50F DUP3 PUSH2 0x51B CODESIZE PUSH2 0x4FF JUMP JUMPDEST DUP1 SLOAD DUP6 DUP8 ADD MSTORE SWAP5 DUP3 ADD SWAP5 DUP2 ADD PUSH2 0x54D JUMP JUMPDEST PUSH1 0xFF NOT AND DUP5 MSTORE POP POP POP SWAP1 ISZERO ISZERO PUSH1 0x5 SHL ADD SWAP1 POP PUSH2 0x50F DUP3 PUSH2 0x51B CODESIZE PUSH2 0x4FF JUMP JUMPDEST PUSH4 0x4E487B71 PUSH1 0xE0 SHL DUP7 MSTORE PUSH1 0x22 PUSH1 0x4 MSTORE PUSH1 0x24 DUP7 REVERT JUMPDEST SWAP4 PUSH1 0x7F AND SWAP4 PUSH2 0x4DE JUMP JUMPDEST PUSH1 0x80 SWAP1 PUSH1 0x3 NOT ADD SLT PUSH2 0x2F1 JUMPI PUSH1 0x1 PUSH1 0x1 PUSH1 0xA0 SHL SUB SWAP1 PUSH1 0x4 CALLDATALOAD DUP3 DUP2 AND DUP2 SUB PUSH2 0x2F1 JUMPI SWAP2 PUSH1 0x24 CALLDATALOAD SWAP1 DUP2 AND DUP2 SUB PUSH2 0x2F1 JUMPI SWAP1 PUSH1 0x44 CALLDATALOAD SWAP1 PUSH1 0x64 CALLDATALOAD SWAP1 JUMP JUMPDEST CALLVALUE PUSH2 0x2F1 JUMPI PUSH2 0x5FD CALLDATASIZE PUSH2 0x5B6 JUMP JUMPDEST SWAP1 SWAP3 SWAP2 PUSH2 0x608 PUSH2 0x1DEE JUMP JUMPDEST PUSH2 0x610 PUSH2 0x2AE5 JUMP JUMPDEST PUSH1 0x0 DUP5 DUP2 MSTORE PUSH1 0x20 DUP2 DUP2 MSTORE PUSH1 0x40 DUP1 DUP4 KECCAK256 PUSH1 0x1 PUSH1 0x1 PUSH1 0xA0 SHL SUB DUP8 AND DUP5 MSTORE SWAP1 SWAP2 MSTORE SWAP1 KECCAK256 DUP3 SWAP1 SLOAD LT PUSH2 0x69E JUMPI PUSH2 0x68F PUSH32 0xA7F01ABBF5B7EC7BAC7FB74FEB5C1F54AF9E430F18A33681C1B9149875339A45 SWAP2 PUSH2 0x671 PUSH2 0x668 PUSH2 0x2546 JUMP JUMPDEST DUP6 DUP9 DUP5 DUP10 PUSH2 0x229B JUMP JUMPDEST PUSH1 0x40 MLOAD SWAP4 DUP5 MSTORE PUSH1 0x1 PUSH1 0x1 PUSH1 0xA0 SHL SUB SWAP1 DUP2 AND SWAP5 AND SWAP3 SWAP1 DUP2 SWAP1 PUSH1 0x20 DUP3 ADD SWAP1 JUMP JUMPDEST SUB SWAP1 LOG4 PUSH2 0x69C PUSH1 0x1 PUSH1 0x4 SSTORE JUMP JUMPDEST STOP JUMPDEST PUSH1 0x40 MLOAD PUSH3 0x461BCD PUSH1 0xE5 SHL DUP2 MSTORE PUSH1 0x20 PUSH1 0x4 DUP3 ADD MSTORE PUSH1 0x14 PUSH1 0x24 DUP3 ADD MSTORE PUSH20 0x496E73756666696369656E742062616C616E6365 PUSH1 0x60 SHL PUSH1 0x44 DUP3 ADD MSTORE PUSH1 0x64 SWAP1 REVERT JUMPDEST CALLVALUE PUSH2 0x2F1 JUMPI PUSH1 0x0 CALLDATASIZE PUSH1 0x3 NOT ADD SLT PUSH2 0x2F1 JUMPI PUSH1 0x20 PUSH1 0x40 MLOAD PUSH32 0xB6F0283BD1ED00C6AA7E988A7516070240F3610A34D167391359B648EB37CEFC DUP2 MSTORE RETURN JUMPDEST CALLVALUE PUSH2 0x2F1 JUMPI PUSH1 0x40 CALLDATASIZE PUSH1 0x3 NOT ADD SLT PUSH2 0x2F1 JUMPI PUSH1 0x24 CALLDATALOAD PUSH1 0x4 CALLDATALOAD PUSH2 0x734 PUSH2 0x1E6A JUMP JUMPDEST PUSH1 0x0 SWAP2 DUP2 DUP4 MSTORE PUSH1 0x6 PUSH1 0x20 MSTORE PUSH2 0x74E PUSH1 0x40 DUP5 KECCAK256 SLOAD ISZERO ISZERO PUSH2 0x2C0B JUMP JUMPDEST DUP2 DUP4 MSTORE PUSH1 0x6 PUSH1 0x20 MSTORE PUSH1 0x2 PUSH1 0x40 DUP5 KECCAK256 ADD SLOAD DUP1 DUP3 EQ PUSH2 0x7C0 JUMPI DUP2 PUSH32 0x3180BC850607139589B517B4F1480820C2973C955706DCF81D3A20DE03670DDC SWAP3 PUSH1 0x2 PUSH2 0x79E DUP7 PUSH1 0x0 MSTORE PUSH1 0x6 PUSH1 0x20 MSTORE PUSH1 0x40 PUSH1 0x0 KECCAK256 SWAP1 JUMP JUMPDEST ADD SSTORE PUSH1 0x40 DUP1 MLOAD SWAP3 DUP4 MSTORE PUSH1 0x20 DUP4 ADD SWAP2 SWAP1 SWAP2 MSTORE TIMESTAMP SWAP1 DUP3 ADD MSTORE DUP1 PUSH1 0x60 DUP2 ADD JUMPDEST SUB SWAP1 LOG2 DUP1 RETURN JUMPDEST PUSH1 0x40 MLOAD PUSH3 0x461BCD PUSH1 0xE5 SHL DUP2 MSTORE PUSH1 0x20 PUSH1 0x4 DUP3 ADD MSTORE PUSH1 0x28 PUSH1 0x24 DUP3 ADD MSTORE PUSH32 0x4E6577207072696365206D757374206469666665722066726F6D206375727265 PUSH1 0x44 DUP3 ADD MSTORE PUSH8 0x6E74207072696365 PUSH1 0xC0 SHL PUSH1 0x64 DUP3 ADD MSTORE PUSH1 0x84 SWAP1 REVERT JUMPDEST CALLVALUE PUSH2 0x2F1 JUMPI PUSH1 0x80 CALLDATASIZE PUSH1 0x3 NOT ADD SLT PUSH2 0x2F1 JUMPI PUSH1 0x4 CALLDATALOAD PUSH2 0x832 PUSH2 0x2F6 JUMP JUMPDEST PUSH1 0x44 CALLDATALOAD SWAP1 PUSH1 0x64 CALLDATALOAD SWAP1 PUSH2 0x842 PUSH2 0x2AE5 JUMP JUMPDEST PUSH2 0x84A PUSH2 0x2762 JUMP JUMPDEST PUSH1 0x40 MLOAD PUSH4 0x14A5749D PUSH1 0xE3 SHL DUP1 DUP3 MSTORE CALLER PUSH1 0x4 DUP4 ADD MSTORE PUSH1 0x1 PUSH1 0x1 PUSH1 0xA0 SHL SUB PUSH32 0x0 DUP2 AND SWAP5 PUSH1 0x20 SWAP5 SWAP4 SWAP1 SWAP3 DUP6 DUP3 PUSH1 0x24 DUP2 DUP11 GAS STATICCALL SWAP2 DUP3 ISZERO PUSH2 0xB1E JUMPI DUP7 SWAP3 PUSH2 0x8B3 SWAP2 PUSH1 0x0 SWAP2 PUSH2 0xB40 JUMPI JUMPDEST POP PUSH2 0x2DBD JUMP JUMPDEST PUSH1 0x40 MLOAD SWAP1 DUP2 MSTORE PUSH1 0x1 PUSH1 0x1 PUSH1 0xA0 SHL SUB DUP6 AND PUSH1 0x4 DUP3 ADD MSTORE SWAP6 DUP7 SWAP1 PUSH1 0x24 SWAP1 DUP3 SWAP1 GAS STATICCALL SWAP5 DUP6 ISZERO PUSH2 0xB1E JUMPI PUSH2 0xA40 PUSH1 0x0 SWAP3 PUSH2 0x990 DUP10 PUSH2 0x988 DUP9 PUSH2 0x971 DUP15 PUSH2 0x901 PUSH2 0x961 SWAP15 DUP15 SWAP11 DUP13 SWAP2 PUSH2 0xB23 JUMPI JUMPDEST POP PUSH2 0x2DFD JUMP JUMPDEST PUSH2 0x920 PUSH2 0x918 DUP3 PUSH1 0x0 MSTORE PUSH1 0x6 PUSH1 0x20 MSTORE PUSH1 0x40 PUSH1 0x0 KECCAK256 SWAP1 JUMP JUMPDEST SLOAD ISZERO ISZERO PUSH2 0x2C0B JUMP JUMPDEST PUSH2 0x949 PUSH2 0x944 PUSH1 0x3 PUSH2 0x93C DUP5 PUSH1 0x0 MSTORE PUSH1 0x6 PUSH1 0x20 MSTORE PUSH1 0x40 PUSH1 0x0 KECCAK256 SWAP1 JUMP JUMPDEST ADD SLOAD PUSH1 0xFF AND SWAP1 JUMP JUMPDEST PUSH2 0x2E3E JUMP JUMPDEST PUSH2 0x954 DUP6 ISZERO ISZERO PUSH2 0x2C8D JUMP JUMPDEST DUP7 DUP4 AND SWAP14 DUP15 CALLER EQ ISZERO PUSH2 0x2E95 JUMP JUMPDEST PUSH1 0x0 MSTORE PUSH1 0x0 PUSH1 0x20 MSTORE PUSH1 0x40 PUSH1 0x0 KECCAK256 SWAP1 JUMP JUMPDEST SWAP1 PUSH1 0x1 DUP1 PUSH1 0xA0 SHL SUB AND PUSH1 0x0 MSTORE PUSH1 0x20 MSTORE PUSH1 0x40 PUSH1 0x0 KECCAK256 SWAP1 JUMP JUMPDEST SLOAD LT ISZERO PUSH2 0x2EE1 JUMP JUMPDEST PUSH2 0x9EC DUP11 PUSH2 0x9E5 DUP12 PUSH2 0x9DF PUSH2 0x9B3 DUP12 PUSH2 0x971 DUP7 PUSH1 0x0 MSTORE PUSH1 0x0 PUSH1 0x20 MSTORE PUSH1 0x40 PUSH1 0x0 KECCAK256 SWAP1 JUMP JUMPDEST SLOAD PUSH1 0x1 PUSH1 0x1 PUSH1 0xA0 SHL SUB DUP13 AND PUSH1 0x0 SWAP1 DUP2 MSTORE PUSH1 0x7 PUSH1 0x20 MSTORE PUSH1 0x40 SWAP1 KECCAK256 SWAP1 SWAP5 SWAP1 JUMPDEST SWAP1 PUSH1 0x0 MSTORE PUSH1 0x20 MSTORE PUSH1 0x40 PUSH1 0x0 KECCAK256 SWAP1 JUMP JUMPDEST SLOAD PUSH2 0x289F JUMP JUMPDEST GT ISZERO PUSH2 0x2F2D JUMP JUMPDEST PUSH2 0xA07 PUSH2 0x9F9 DUP7 DUP12 PUSH2 0x2D24 JUMP JUMPDEST PUSH8 0xDE0B6B3A7640000 SWAP1 DIV SWAP1 JUMP JUMPDEST PUSH1 0x40 MLOAD PUSH4 0x23B872DD PUSH1 0xE0 SHL DUP2 MSTORE CALLER PUSH1 0x4 DUP3 ADD MSTORE PUSH1 0x1 PUSH1 0x1 PUSH1 0xA0 SHL SUB DUP9 AND PUSH1 0x24 DUP3 ADD MSTORE PUSH1 0x44 DUP2 ADD SWAP2 SWAP1 SWAP2 MSTORE SWAP4 DUP5 SWAP3 DUP4 SWAP2 SWAP1 DUP3 SWAP1 PUSH1 0x64 DUP3 ADD SWAP1 JUMP JUMPDEST SUB SWAP3 PUSH32 0x0 AND GAS CALL SWAP3 DUP4 ISZERO PUSH2 0xB1E JUMPI PUSH2 0xAA9 PUSH2 0x68F SWAP5 PUSH2 0xABB SWAP4 PUSH32 0xED79E7D218BFDFE7B0612476B5E4DED4715D3A29544095B7692131998870ADD0 SWAP8 PUSH1 0x0 SWAP3 PUSH2 0xAF1 JUMPI JUMPDEST POP POP PUSH2 0x2D37 JUMP JUMPDEST DUP7 DUP9 PUSH2 0xAB3 PUSH2 0x2546 JUMP JUMPDEST SWAP3 CALLER SWAP1 PUSH2 0x229B JUMP JUMPDEST CALLER PUSH1 0x0 SWAP1 DUP2 MSTORE PUSH1 0x8 PUSH1 0x20 MSTORE PUSH1 0x40 SWAP1 KECCAK256 DUP2 SWAP1 PUSH2 0xAD7 SWAP1 DUP9 SWAP1 PUSH2 0x9D0 JUMP JUMPDEST SSTORE PUSH1 0x40 DUP1 MLOAD SWAP6 DUP7 MSTORE PUSH1 0x20 DUP7 ADD SWAP2 SWAP1 SWAP2 MSTORE CALLER SWAP5 SWAP2 DUP3 SWAP2 DUP3 ADD SWAP1 JUMP JUMPDEST PUSH2 0xB10 SWAP3 POP DUP1 RETURNDATASIZE LT PUSH2 0xB17 JUMPI JUMPDEST PUSH2 0xB08 DUP2 DUP4 PUSH2 0xC9E JUMP JUMPDEST DUP2 ADD SWAP1 PUSH2 0x28D1 JUMP JUMPDEST CODESIZE DUP1 PUSH2 0xAA2 JUMP JUMPDEST POP RETURNDATASIZE PUSH2 0xAFE JUMP JUMPDEST PUSH2 0x253A JUMP JUMPDEST PUSH2 0xB3A SWAP2 POP DUP12 RETURNDATASIZE DUP14 GT PUSH2 0xB17 JUMPI PUSH2 0xB08 DUP2 DUP4 PUSH2 0xC9E JUMP JUMPDEST CODESIZE PUSH2 0x8FB JUMP JUMPDEST PUSH2 0xB57 SWAP2 POP DUP5 RETURNDATASIZE DUP7 GT PUSH2 0xB17 JUMPI PUSH2 0xB08 DUP2 DUP4 PUSH2 0xC9E JUMP JUMPDEST CODESIZE PUSH2 0x8AD JUMP JUMPDEST CALLVALUE PUSH2 0x2F1 JUMPI PUSH1 0x20 CALLDATASIZE PUSH1 0x3 NOT ADD SLT PUSH2 0x2F1 JUMPI PUSH1 0x4 CALLDATALOAD PUSH1 0x0 MSTORE PUSH1 0x3 PUSH1 0x20 MSTORE PUSH1 0x20 PUSH1 0x1 PUSH1 0x40 PUSH1 0x0 KECCAK256 ADD SLOAD PUSH1 0x40 MLOAD SWAP1 DUP2 MSTORE RETURN JUMPDEST CALLVALUE PUSH2 0x2F1 JUMPI PUSH1 0x20 CALLDATASIZE PUSH1 0x3 NOT ADD SLT PUSH2 0x2F1 JUMPI PUSH2 0xBA5 PUSH2 0x2DB JUMP JUMPDEST PUSH2 0xBAD PUSH2 0x1EC2 JUMP JUMPDEST PUSH1 0xFF PUSH1 0x5 SLOAD PUSH1 0xA8 SHR AND PUSH2 0xC35 JUMPI PUSH1 0x1 PUSH1 0x1 PUSH1 0xA0 SHL SUB DUP2 AND SWAP1 PUSH2 0xBFA SWAP1 PUSH2 0xBD4 DUP4 ISZERO ISZERO PUSH2 0x271D JUMP JUMPDEST PUSH1 0x5 DUP1 SLOAD PUSH2 0x100 PUSH1 0x1 PUSH1 0xA8 SHL SUB NOT AND PUSH1 0x8 DUP4 SWAP1 SHL PUSH2 0x100 PUSH1 0x1 PUSH1 0xA8 SHL SUB AND OR SWAP1 SSTORE PUSH2 0x1FEB JUMP JUMPDEST POP PUSH1 0x5 DUP1 SLOAD PUSH1 0xFF PUSH1 0xA8 SHL NOT AND PUSH1 0x1 PUSH1 0xA8 SHL OR SWAP1 SSTORE PUSH32 0xD11D57C2C7468878B1035DF11C670BCD0091AA840BF8AA166365397622237BEA PUSH1 0x0 DUP1 LOG2 STOP JUMPDEST PUSH1 0x40 MLOAD PUSH3 0x461BCD PUSH1 0xE5 SHL DUP2 MSTORE PUSH1 0x20 PUSH1 0x4 DUP3 ADD MSTORE PUSH1 0x12 PUSH1 0x24 DUP3 ADD MSTORE PUSH18 0x14185D5CD95C88185B1C9958591E481CD95D PUSH1 0x72 SHL PUSH1 0x44 DUP3 ADD MSTORE PUSH1 0x64 SWAP1 REVERT JUMPDEST PUSH4 0x4E487B71 PUSH1 0xE0 SHL PUSH1 0x0 MSTORE PUSH1 0x41 PUSH1 0x4 MSTORE PUSH1 0x24 PUSH1 0x0 REVERT JUMPDEST PUSH8 0xFFFFFFFFFFFFFFFF DUP2 GT PUSH2 0xC99 JUMPI PUSH1 0x40 MSTORE JUMP JUMPDEST PUSH2 0xC6F JUMP JUMPDEST SWAP1 PUSH1 0x1F DUP1 NOT SWAP2 ADD AND DUP2 ADD SWAP1 DUP2 LT PUSH8 0xFFFFFFFFFFFFFFFF DUP3 GT OR PUSH2 0xC99 JUMPI PUSH1 0x40 MSTORE JUMP JUMPDEST PUSH1 0x40 MLOAD SWAP1 PUSH1 0xC0 DUP3 ADD DUP3 DUP2 LT PUSH8 0xFFFFFFFFFFFFFFFF DUP3 GT OR PUSH2 0xC99 JUMPI PUSH1 0x40 MSTORE JUMP JUMPDEST PUSH8 0xFFFFFFFFFFFFFFFF DUP2 GT PUSH2 0xC99 JUMPI PUSH1 0x5 SHL PUSH1 0x20 ADD SWAP1 JUMP JUMPDEST DUP2 PUSH1 0x1F DUP3 ADD SLT ISZERO PUSH2 0x2F1 JUMPI DUP1 CALLDATALOAD SWAP2 PUSH2 0xD0F DUP4 PUSH2 0xCE0 JUMP JUMPDEST SWAP3 PUSH2 0xD1D PUSH1 0x40 MLOAD SWAP5 DUP6 PUSH2 0xC9E JUMP JUMPDEST DUP1 DUP5 MSTORE PUSH1 0x20 SWAP3 DUP4 DUP1 DUP7 ADD SWAP3 PUSH1 0x5 SHL DUP3 ADD ADD SWAP3 DUP4 GT PUSH2 0x2F1 JUMPI DUP4 ADD SWAP1 JUMPDEST DUP3 DUP3 LT PUSH2 0xD47 JUMPI POP POP POP POP SWAP1 JUMP JUMPDEST DUP2 CALLDATALOAD DUP2 MSTORE SWAP1 DUP4 ADD SWAP1 DUP4 ADD PUSH2 0xD39 JUMP JUMPDEST PUSH8 0xFFFFFFFFFFFFFFFF DUP2 GT PUSH2 0xC99 JUMPI PUSH1 0x1F ADD PUSH1 0x1F NOT AND PUSH1 0x20 ADD SWAP1 JUMP JUMPDEST DUP2 PUSH1 0x1F DUP3 ADD SLT ISZERO PUSH2 0x2F1 JUMPI DUP1 CALLDATALOAD SWAP1 PUSH2 0xD89 DUP3 PUSH2 0xD56 JUMP JUMPDEST SWAP3 PUSH2 0xD97 PUSH1 0x40 MLOAD SWAP5 DUP6 PUSH2 0xC9E JUMP JUMPDEST DUP3 DUP5 MSTORE PUSH1 0x20 DUP4 DUP4 ADD ADD GT PUSH2 0x2F1 JUMPI DUP2 PUSH1 0x0 SWAP3 PUSH1 0x20 DUP1 SWAP4 ADD DUP4 DUP7 ADD CALLDATACOPY DUP4 ADD ADD MSTORE SWAP1 JUMP JUMPDEST PUSH1 0xA0 PUSH1 0x3 NOT DUP3 ADD SLT PUSH2 0x2F1 JUMPI PUSH1 0x1 PUSH1 0x1 PUSH1 0xA0 SHL SUB SWAP2 PUSH1 0x4 CALLDATALOAD DUP4 DUP2 AND DUP2 SUB PUSH2 0x2F1 JUMPI SWAP3 PUSH1 0x24 CALLDATALOAD SWAP1 DUP2 AND DUP2 SUB PUSH2 0x2F1 JUMPI SWAP2 PUSH8 0xFFFFFFFFFFFFFFFF SWAP2 PUSH1 0x44 CALLDATALOAD DUP4 DUP2 GT PUSH2 0x2F1 JUMPI DUP3 PUSH2 0xE09 SWAP2 PUSH1 0x4 ADD PUSH2 0xCF8 JUMP JUMPDEST SWAP3 PUSH1 0x64 CALLDATALOAD DUP2 DUP2 GT PUSH2 0x2F1 JUMPI DUP4 PUSH2 0xE21 SWAP2 PUSH1 0x4 ADD PUSH2 0xCF8 JUMP JUMPDEST SWAP3 PUSH1 0x84 CALLDATALOAD SWAP2 DUP3 GT PUSH2 0x2F1 JUMPI PUSH2 0x4AD SWAP2 PUSH1 0x4 ADD PUSH2 0xD72 JUMP JUMPDEST CALLVALUE PUSH2 0x2F1 JUMPI PUSH2 0xE46 CALLDATASIZE PUSH2 0xDB9 JUMP JUMPDEST SWAP3 SWAP1 SWAP2 SWAP1 PUSH1 0x1 PUSH1 0x1 PUSH1 0xA0 SHL SUB DUP6 DUP2 AND SWAP1 CALLER DUP3 EQ ISZERO DUP1 PUSH2 0xED1 JUMPI JUMPDEST PUSH2 0xEAA JUMPI DUP3 AND ISZERO PUSH2 0xE91 JUMPI ISZERO PUSH2 0xE79 JUMPI PUSH2 0x69C SWAP5 PUSH2 0x22E3 JUMP JUMPDEST PUSH1 0x40 MLOAD PUSH3 0x6A0D45 PUSH1 0xE2 SHL DUP2 MSTORE PUSH1 0x0 PUSH1 0x4 DUP3 ADD MSTORE PUSH1 0x24 SWAP1 REVERT JUMPDEST PUSH1 0x40 MLOAD PUSH4 0x2BFA23E7 PUSH1 0xE1 SHL DUP2 MSTORE PUSH1 0x0 PUSH1 0x4 DUP3 ADD MSTORE PUSH1 0x24 SWAP1 REVERT JUMPDEST PUSH1 0x40 MLOAD PUSH4 0x711BEC91 PUSH1 0xE1 SHL DUP2 MSTORE CALLER PUSH1 0x4 DUP3 ADD MSTORE PUSH1 0x1 PUSH1 0x1 PUSH1 0xA0 SHL SUB DUP9 AND PUSH1 0x24 DUP3 ADD MSTORE PUSH1 0x44 SWAP1 REVERT JUMPDEST POP PUSH1 0x0 DUP3 DUP2 MSTORE PUSH1 0x1 PUSH1 0x20 SWAP1 DUP2 MSTORE PUSH1 0x40 DUP1 DUP4 KECCAK256 CALLER DUP5 MSTORE SWAP1 SWAP2 MSTORE SWAP1 KECCAK256 SLOAD PUSH1 0xFF AND ISZERO PUSH2 0xE60 JUMP JUMPDEST CALLVALUE PUSH2 0x2F1 JUMPI PUSH1 0x40 CALLDATASIZE PUSH1 0x3 NOT ADD SLT PUSH2 0x2F1 JUMPI PUSH2 0x69C PUSH1 0x4 CALLDATALOAD PUSH2 0xF14 PUSH2 0x2F6 JUMP JUMPDEST SWAP1 DUP1 PUSH1 0x0 MSTORE PUSH1 0x3 PUSH1 0x20 MSTORE PUSH2 0xF2F PUSH1 0x1 PUSH1 0x40 PUSH1 0x0 KECCAK256 ADD SLOAD PUSH2 0x1FCA JUMP JUMPDEST PUSH2 0x20B6 JUMP JUMPDEST CALLVALUE PUSH2 0x2F1 JUMPI PUSH1 0x40 CALLDATASIZE PUSH1 0x3 NOT ADD SLT PUSH2 0x2F1 JUMPI PUSH2 0xF4D PUSH2 0x2F6 JUMP JUMPDEST CALLER PUSH1 0x1 PUSH1 0x1 PUSH1 0xA0 SHL SUB DUP3 AND SUB PUSH2 0xF69 JUMPI PUSH2 0x69C SWAP1 PUSH1 0x4 CALLDATALOAD PUSH2 0x20E2 JUMP JUMPDEST PUSH1 0x40 MLOAD PUSH4 0x334BD919 PUSH1 0xE1 SHL DUP2 MSTORE PUSH1 0x4 SWAP1 REVERT JUMPDEST CALLVALUE PUSH2 0x2F1 JUMPI PUSH1 0x0 CALLDATASIZE PUSH1 0x3 NOT ADD SLT PUSH2 0x2F1 JUMPI PUSH2 0xF94 PUSH2 0x1F1A JUMP JUMPDEST PUSH1 0x5 SLOAD PUSH1 0xFF DUP2 AND ISZERO PUSH2 0xFD3 JUMPI PUSH1 0xFF NOT AND PUSH1 0x5 SSTORE PUSH32 0x5DB9EE0A495BF2E6FF9C91A7834C1BA4FDD244A5E8AA4E537BD38AEAE4B073AA PUSH1 0x20 PUSH1 0x40 MLOAD CALLER DUP2 MSTORE LOG1 STOP JUMPDEST PUSH1 0x40 MLOAD PUSH4 0x8DFC202B PUSH1 0xE0 SHL DUP2 MSTORE PUSH1 0x4 SWAP1 REVERT JUMPDEST SWAP1 DUP2 MLOAD DUP1 DUP3 MSTORE PUSH1 0x20 DUP1 DUP1 SWAP4 ADD SWAP4 ADD SWAP2 PUSH1 0x0 JUMPDEST DUP3 DUP2 LT PUSH2 0x1005 JUMPI POP POP POP POP SWAP1 JUMP JUMPDEST DUP4 MLOAD DUP6 MSTORE SWAP4 DUP2 ADD SWAP4 SWAP3 DUP2 ADD SWAP3 PUSH1 0x1 ADD PUSH2 0xFF7 JUMP JUMPDEST SWAP1 PUSH1 0x20 PUSH2 0x4AD SWAP3 DUP2 DUP2 MSTORE ADD SWAP1 PUSH2 0xFE5 JUMP JUMPDEST CALLVALUE PUSH2 0x2F1 JUMPI PUSH1 0x40 CALLDATASIZE PUSH1 0x3 NOT ADD SLT PUSH2 0x2F1 JUMPI PUSH1 0x4 CALLDATALOAD PUSH8 0xFFFFFFFFFFFFFFFF DUP1 DUP3 GT PUSH2 0x2F1 JUMPI CALLDATASIZE PUSH1 0x23 DUP4 ADD SLT ISZERO PUSH2 0x2F1 JUMPI DUP2 PUSH1 0x4 ADD CALLDATALOAD PUSH2 0x1067 DUP2 PUSH2 0xCE0 JUMP JUMPDEST SWAP3 PUSH2 0x1075 PUSH1 0x40 MLOAD SWAP5 DUP6 PUSH2 0xC9E JUMP JUMPDEST DUP2 DUP5 MSTORE PUSH1 0x20 SWAP2 PUSH1 0x24 DUP4 DUP7 ADD SWAP2 PUSH1 0x5 SHL DUP4 ADD ADD SWAP2 CALLDATASIZE DUP4 GT PUSH2 0x2F1 JUMPI PUSH1 0x24 ADD SWAP1 JUMPDEST DUP3 DUP3 LT PUSH2 0x10CD JUMPI DUP6 PUSH1 0x24 CALLDATALOAD DUP7 DUP2 GT PUSH2 0x2F1 JUMPI PUSH2 0x51B SWAP2 PUSH2 0x10BB PUSH2 0x10C1 SWAP3 CALLDATASIZE SWAP1 PUSH1 0x4 ADD PUSH2 0xCF8 JUMP JUMPDEST SWAP1 PUSH2 0x21FA JUMP JUMPDEST PUSH1 0x40 MLOAD SWAP2 DUP3 SWAP2 DUP3 PUSH2 0x1019 JUMP JUMPDEST DUP4 DUP1 SWAP2 PUSH2 0x10D9 DUP5 PUSH2 0x30C JUMP JUMPDEST DUP2 MSTORE ADD SWAP2 ADD SWAP1 PUSH2 0x1094 JUMP JUMPDEST CALLVALUE PUSH2 0x2F1 JUMPI PUSH1 0x0 CALLDATASIZE PUSH1 0x3 NOT ADD SLT PUSH2 0x2F1 JUMPI PUSH1 0x20 PUSH1 0xFF PUSH1 0x5 SLOAD AND PUSH1 0x40 MLOAD SWAP1 ISZERO ISZERO DUP2 MSTORE RETURN JUMPDEST CALLVALUE PUSH2 0x2F1 JUMPI PUSH1 0x40 CALLDATASIZE PUSH1 0x3 NOT ADD SLT PUSH2 0x2F1 JUMPI PUSH1 0x1 PUSH1 0x1 PUSH1 0xA0 SHL SUB PUSH2 0x1128 PUSH2 0x2DB JUMP JUMPDEST AND PUSH1 0x0 MSTORE PUSH1 0x8 PUSH1 0x20 MSTORE PUSH1 0x40 PUSH1 0x0 KECCAK256 PUSH1 0x24 CALLDATALOAD PUSH1 0x0 MSTORE PUSH1 0x20 MSTORE PUSH1 0x20 PUSH1 0x40 PUSH1 0x0 KECCAK256 SLOAD PUSH1 0x40 MLOAD SWAP1 DUP2 MSTORE RETURN JUMPDEST PUSH1 0x60 SWAP1 PUSH1 0x3 NOT ADD SLT PUSH2 0x2F1 JUMPI PUSH1 0x4 CALLDATALOAD PUSH1 0x1 PUSH1 0x1 PUSH1 0xA0 SHL SUB DUP2 AND DUP2 SUB PUSH2 0x2F1 JUMPI SWAP1 PUSH1 0x24 CALLDATALOAD SWAP1 PUSH1 0x44 CALLDATALOAD SWAP1 JUMP JUMPDEST CALLVALUE PUSH2 0x2F1 JUMPI PUSH1 0x20 PUSH2 0x1192 PUSH2 0x118C CALLDATASIZE PUSH2 0x114F JUMP JUMPDEST SWAP2 PUSH2 0x28E6 JUMP JUMPDEST PUSH1 0x40 MLOAD SWAP1 ISZERO ISZERO DUP2 MSTORE RETURN JUMPDEST CALLVALUE PUSH2 0x2F1 JUMPI PUSH1 0x0 CALLDATASIZE PUSH1 0x3 NOT ADD SLT PUSH2 0x2F1 JUMPI PUSH2 0x11B5 PUSH2 0x1F1A JUMP JUMPDEST PUSH2 0x11BD PUSH2 0x2762 JUMP JUMPDEST PUSH1 0x1 PUSH1 0xFF NOT PUSH1 0x5 SLOAD AND OR PUSH1 0x5 SSTORE PUSH32 0x62E78CEA01BEE320CD4E420270B5EA74000D11B0C9F74754EBDBFC544B05A258 PUSH1 0x20 PUSH1 0x40 MLOAD CALLER DUP2 MSTORE LOG1 STOP JUMPDEST CALLVALUE PUSH2 0x2F1 JUMPI PUSH1 0x0 CALLDATASIZE PUSH1 0x3 NOT ADD SLT PUSH2 0x2F1 JUMPI PUSH1 0x40 MLOAD PUSH32 0x0 PUSH1 0x1 PUSH1 0x1 PUSH1 0xA0 SHL SUB AND DUP2 MSTORE PUSH1 0x20 SWAP1 RETURN JUMPDEST CALLVALUE PUSH2 0x2F1 JUMPI PUSH1 0x40 CALLDATASIZE PUSH1 0x3 NOT ADD SLT PUSH2 0x2F1 JUMPI PUSH1 0x20 PUSH1 0xFF PUSH2 0x1281 PUSH2 0x125B PUSH2 0x2F6 JUMP JUMPDEST PUSH1 0x4 CALLDATALOAD PUSH1 0x0 MSTORE PUSH1 0x3 DUP5 MSTORE PUSH1 0x40 PUSH1 0x0 KECCAK256 SWAP1 PUSH1 0x1 DUP1 PUSH1 0xA0 SHL SUB AND PUSH1 0x0 MSTORE PUSH1 0x20 MSTORE PUSH1 0x40 PUSH1 0x0 KECCAK256 SWAP1 JUMP JUMPDEST SLOAD AND PUSH1 0x40 MLOAD SWAP1 ISZERO ISZERO DUP2 MSTORE RETURN JUMPDEST CALLVALUE PUSH2 0x2F1 JUMPI PUSH1 0x0 CALLDATASIZE PUSH1 0x3 NOT ADD SLT PUSH2 0x2F1 JUMPI PUSH1 0x5 SLOAD PUSH1 0x40 MLOAD PUSH1 0x8 SWAP2 SWAP1 SWAP2 SHR PUSH1 0x1 PUSH1 0x1 PUSH1 0xA0 SHL SUB AND DUP2 MSTORE PUSH1 0x20 SWAP1 RETURN JUMPDEST CALLVALUE PUSH2 0x2F1 JUMPI PUSH1 0x20 PUSH2 0x1192 PUSH2 0x12CD CALLDATASIZE PUSH2 0x5B6 JUMP JUMPDEST SWAP3 SWAP2 SWAP1 SWAP2 PUSH2 0x29CD JUMP JUMPDEST CALLVALUE PUSH2 0x2F1 JUMPI PUSH1 0x0 CALLDATASIZE PUSH1 0x3 NOT ADD SLT PUSH2 0x2F1 JUMPI PUSH1 0x20 PUSH1 0x40 MLOAD PUSH1 0x0 DUP2 MSTORE RETURN JUMPDEST DUP1 ISZERO ISZERO SUB PUSH2 0x2F1 JUMPI JUMP JUMPDEST CALLVALUE PUSH2 0x2F1 JUMPI PUSH1 0x40 CALLDATASIZE PUSH1 0x3 NOT ADD SLT PUSH2 0x2F1 JUMPI PUSH2 0x1315 PUSH2 0x2DB JUMP JUMPDEST PUSH1 0x24 CALLDATALOAD PUSH2 0x1321 DUP2 PUSH2 0x12F2 JUMP JUMPDEST PUSH1 0x1 PUSH1 0x1 PUSH1 0xA0 SHL SUB DUP3 AND SWAP2 DUP3 ISZERO PUSH2 0x13A0 JUMPI DUP2 PUSH2 0x135F PUSH2 0x1370 SWAP3 CALLER PUSH1 0x0 MSTORE PUSH1 0x1 PUSH1 0x20 MSTORE PUSH1 0x40 PUSH1 0x0 KECCAK256 SWAP1 PUSH1 0x1 DUP1 PUSH1 0xA0 SHL SUB AND PUSH1 0x0 MSTORE PUSH1 0x20 MSTORE PUSH1 0x40 PUSH1 0x0 KECCAK256 SWAP1 JUMP JUMPDEST SWAP1 PUSH1 0xFF DUP1 NOT DUP4 SLOAD AND SWAP2 ISZERO ISZERO AND OR SWAP1 SSTORE JUMP JUMPDEST PUSH1 0x40 MLOAD SWAP1 ISZERO ISZERO DUP2 MSTORE PUSH32 0x17307EAB39AB6107E8899845AD3D59BD9653F200F220920489CA2B5937696C31 PUSH1 0x20 CALLER SWAP3 LOG3 STOP JUMPDEST PUSH1 0x40 MLOAD PUSH3 0xCED3E1 PUSH1 0xE8 SHL DUP2 MSTORE PUSH1 0x0 PUSH1 0x4 DUP3 ADD MSTORE PUSH1 0x24 SWAP1 REVERT JUMPDEST CALLVALUE PUSH2 0x2F1 JUMPI PUSH1 0x0 CALLDATASIZE PUSH1 0x3 NOT ADD SLT PUSH2 0x2F1 JUMPI PUSH1 0x20 PUSH1 0x40 MLOAD PUSH32 0xB1FADD3142AB2AD7F1337EA4D97112BCC8337FC11CE5B20CB04AD038ADF99819 DUP2 MSTORE RETURN JUMPDEST CALLVALUE PUSH2 0x2F1 JUMPI PUSH1 0x20 CALLDATASIZE PUSH1 0x3 NOT ADD SLT PUSH2 0x2F1 JUMPI PUSH1 0x24 PUSH1 0x20 PUSH2 0x1410 PUSH2 0x2DB JUMP JUMPDEST PUSH1 0x40 MLOAD PUSH4 0x14A5749D PUSH1 0xE3 SHL DUP2 MSTORE PUSH1 0x1 PUSH1 0x1 PUSH1 0xA0 SHL SUB SWAP2 DUP3 AND PUSH1 0x4 DUP3 ADD MSTORE SWAP3 DUP4 SWAP2 DUP3 SWAP1 PUSH32 0x0 AND GAS STATICCALL DUP1 ISZERO PUSH2 0xB1E JUMPI PUSH2 0x51B SWAP2 PUSH1 0x0 SWAP2 PUSH2 0x147B JUMPI JUMPDEST POP PUSH1 0x40 MLOAD SWAP1 ISZERO ISZERO DUP2 MSTORE SWAP1 DUP2 SWAP1 PUSH1 0x20 DUP3 ADD SWAP1 JUMP JUMPDEST PUSH2 0x1493 SWAP2 POP PUSH1 0x20 RETURNDATASIZE DUP2 GT PUSH2 0xB17 JUMPI PUSH2 0xB08 DUP2 DUP4 PUSH2 0xC9E JUMP JUMPDEST CODESIZE PUSH2 0x1468 JUMP JUMPDEST CALLVALUE PUSH2 0x2F1 JUMPI PUSH1 0x20 CALLDATASIZE PUSH1 0x3 NOT ADD SLT PUSH2 0x2F1 JUMPI PUSH1 0x4 CALLDATALOAD PUSH1 0x0 MSTORE PUSH1 0x6 PUSH1 0x20 MSTORE PUSH1 0xC0 PUSH1 0x40 PUSH1 0x0 KECCAK256 DUP1 SLOAD SWAP1 PUSH1 0x1 DUP2 ADD SLOAD SWAP1 PUSH1 0x2 DUP2 ADD SLOAD PUSH1 0xFF PUSH1 0x3 DUP4 ADD SLOAD AND SWAP1 PUSH1 0x5 PUSH1 0x4 DUP5 ADD SLOAD SWAP4 ADD SLOAD SWAP4 PUSH1 0x40 MLOAD SWAP6 DUP7 MSTORE PUSH1 0x20 DUP7 ADD MSTORE PUSH1 0x40 DUP6 ADD MSTORE ISZERO ISZERO PUSH1 0x60 DUP5 ADD MSTORE PUSH1 0x80 DUP4 ADD MSTORE PUSH1 0xA0 DUP3 ADD MSTORE RETURN JUMPDEST CALLVALUE PUSH2 0x2F1 JUMPI PUSH1 0x60 CALLDATASIZE PUSH1 0x3 NOT ADD SLT PUSH2 0x2F1 JUMPI PUSH1 0x24 CALLDATALOAD PUSH1 0x4 CALLDATALOAD PUSH1 0x44 CALLDATALOAD PUSH2 0x1523 PUSH2 0x1F72 JUMP JUMPDEST PUSH1 0x0 SWAP3 DUP3 DUP5 MSTORE PUSH1 0x6 PUSH1 0x20 MSTORE PUSH1 0x40 DUP5 KECCAK256 SLOAD PUSH2 0x15D2 JUMPI PUSH32 0xB82C0453FEACE24EE6CFE34B821E767FCC527F2DBA6C452E541F3E1EAD521F00 SWAP2 PUSH2 0x1564 DUP3 ISZERO ISZERO PUSH2 0x2B08 JUMP JUMPDEST PUSH2 0x156F DUP2 ISZERO ISZERO PUSH2 0x2B63 JUMP JUMPDEST PUSH2 0x15B4 PUSH2 0x157A PUSH2 0xCC0 JUMP JUMPDEST DUP4 DUP2 MSTORE DUP4 PUSH1 0x20 DUP3 ADD MSTORE DUP3 PUSH1 0x40 DUP3 ADD MSTORE DUP7 PUSH1 0x60 DUP3 ADD MSTORE TIMESTAMP PUSH1 0x80 DUP3 ADD MSTORE DUP7 PUSH1 0xA0 DUP3 ADD MSTORE PUSH2 0x15AF DUP7 PUSH1 0x0 MSTORE PUSH1 0x6 PUSH1 0x20 MSTORE PUSH1 0x40 PUSH1 0x0 KECCAK256 SWAP1 JUMP JUMPDEST PUSH2 0x2BBD JUMP JUMPDEST PUSH1 0x40 DUP1 MLOAD SWAP3 DUP4 MSTORE PUSH1 0x20 DUP4 ADD SWAP2 SWAP1 SWAP2 MSTORE TIMESTAMP SWAP1 DUP3 ADD MSTORE DUP1 PUSH1 0x60 DUP2 ADD PUSH2 0x7BA JUMP JUMPDEST PUSH1 0x40 MLOAD PUSH3 0x461BCD PUSH1 0xE5 SHL DUP2 MSTORE PUSH1 0x20 PUSH1 0x4 DUP3 ADD MSTORE PUSH1 0x1A PUSH1 0x24 DUP3 ADD MSTORE PUSH32 0x41737365742073686172657320616C7265616479206578697374000000000000 PUSH1 0x44 DUP3 ADD MSTORE PUSH1 0x64 SWAP1 REVERT JUMPDEST CALLVALUE PUSH2 0x2F1 JUMPI PUSH1 0x40 CALLDATASIZE PUSH1 0x3 NOT ADD SLT PUSH2 0x2F1 JUMPI PUSH1 0x4 CALLDATALOAD PUSH1 0x24 CALLDATALOAD PUSH2 0x1636 PUSH2 0x2AE5 JUMP JUMPDEST PUSH2 0x163E PUSH2 0x2762 JUMP JUMPDEST PUSH1 0x40 MLOAD PUSH4 0x14A5749D PUSH1 0xE3 SHL DUP2 MSTORE CALLER PUSH1 0x4 DUP3 ADD MSTORE PUSH1 0x1 PUSH1 0x1 PUSH1 0xA0 SHL SUB SWAP1 PUSH1 0x20 SWAP1 DUP2 DUP2 PUSH1 0x24 DUP2 PUSH32 0x0 DUP8 AND GAS STATICCALL DUP1 ISZERO PUSH2 0xB1E JUMPI PUSH2 0x169F SWAP2 PUSH1 0x0 SWAP2 PUSH2 0x1816 JUMPI JUMPDEST POP PUSH2 0x2C4E JUMP JUMPDEST PUSH2 0x16B6 PUSH2 0x918 DUP6 PUSH1 0x0 MSTORE PUSH1 0x6 PUSH1 0x20 MSTORE PUSH1 0x40 PUSH1 0x0 KECCAK256 SWAP1 JUMP JUMPDEST PUSH2 0x16C1 DUP4 ISZERO ISZERO PUSH2 0x2C8D JUMP JUMPDEST PUSH2 0x16E4 DUP4 PUSH1 0x1 PUSH2 0x16DB DUP8 PUSH1 0x0 MSTORE PUSH1 0x6 PUSH1 0x20 MSTORE PUSH1 0x40 PUSH1 0x0 KECCAK256 SWAP1 JUMP JUMPDEST ADD SLOAD LT ISZERO PUSH2 0x2CD8 JUMP JUMPDEST PUSH1 0x2 PUSH2 0x16FA DUP6 PUSH1 0x0 MSTORE PUSH1 0x6 PUSH1 0x20 MSTORE PUSH1 0x40 PUSH1 0x0 KECCAK256 SWAP1 JUMP JUMPDEST ADD SLOAD PUSH2 0x1709 PUSH2 0x9F9 DUP3 DUP7 PUSH2 0x2D24 JUMP JUMPDEST PUSH1 0x40 MLOAD PUSH4 0x23B872DD PUSH1 0xE0 SHL DUP2 MSTORE CALLER PUSH1 0x4 DUP3 ADD MSTORE ADDRESS PUSH1 0x24 DUP3 ADD MSTORE PUSH1 0x44 DUP2 ADD DUP3 SWAP1 MSTORE SWAP4 SWAP1 SWAP3 SWAP1 DUP2 SWAP1 DUP6 SWAP1 PUSH1 0x64 SWAP1 DUP3 SWAP1 PUSH1 0x0 SWAP1 PUSH32 0x0 AND GAS CALL DUP1 ISZERO PUSH2 0xB1E JUMPI PUSH32 0xD098AAB4683AEC3730D1B27A72FAC136F51288C5FFC2586171A08FB568A6B3A SWAP5 PUSH2 0x1797 SWAP3 PUSH1 0x0 SWAP3 PUSH2 0xAF1 JUMPI POP POP PUSH2 0x2D37 JUMP JUMPDEST PUSH2 0x17B3 PUSH2 0x17A3 DUP7 PUSH2 0x2D87 JUMP JUMPDEST PUSH2 0x17AC DUP7 PUSH2 0x2D87 JUMP JUMPDEST SWAP1 CALLER PUSH2 0x2780 JUMP JUMPDEST PUSH1 0x1 PUSH2 0x17C9 DUP7 PUSH1 0x0 MSTORE PUSH1 0x6 PUSH1 0x20 MSTORE PUSH1 0x40 PUSH1 0x0 KECCAK256 SWAP1 JUMP JUMPDEST ADD PUSH2 0x17D5 DUP6 DUP3 SLOAD PUSH2 0x2D7A JUMP JUMPDEST SWAP1 SSTORE CALLER PUSH1 0x0 SWAP1 DUP2 MSTORE PUSH1 0x8 PUSH1 0x20 MSTORE PUSH1 0x40 SWAP1 KECCAK256 DUP2 SWAP1 PUSH2 0x17F3 SWAP1 DUP8 SWAP1 PUSH2 0x9D0 JUMP JUMPDEST SSTORE PUSH1 0x40 DUP1 MLOAD SWAP5 DUP6 MSTORE PUSH1 0x20 DUP6 ADD SWAP2 SWAP1 SWAP2 MSTORE DUP4 ADD MSTORE CALLER SWAP2 PUSH1 0x60 SWAP1 LOG3 PUSH2 0x69C PUSH1 0x1 PUSH1 0x4 SSTORE JUMP JUMPDEST PUSH2 0x182D SWAP2 POP DUP4 RETURNDATASIZE DUP6 GT PUSH2 0xB17 JUMPI PUSH2 0xB08 DUP2 DUP4 PUSH2 0xC9E JUMP JUMPDEST CODESIZE PUSH2 0x1699 JUMP JUMPDEST CALLVALUE PUSH2 0x2F1 JUMPI PUSH1 0x40 CALLDATASIZE PUSH1 0x3 NOT ADD SLT PUSH2 0x2F1 JUMPI PUSH1 0x24 CALLDATALOAD PUSH1 0x4 CALLDATALOAD PUSH2 0x1853 DUP3 PUSH2 0x12F2 JUMP JUMPDEST PUSH2 0x185B PUSH2 0x1E6A JUMP JUMPDEST PUSH32 0xB06427D72192FF6DA61BDACC300260B0DA7A3E456FEEB9C376297A9F5BEA1907 PUSH1 0x20 PUSH1 0x0 SWAP4 DUP4 DUP6 MSTORE PUSH1 0x6 DUP3 MSTORE PUSH2 0x1897 PUSH1 0x40 DUP7 KECCAK256 SLOAD ISZERO ISZERO PUSH2 0x2C0B JUMP JUMPDEST DUP4 DUP6 MSTORE PUSH1 0x6 DUP3 MSTORE PUSH2 0x18BA DUP2 PUSH1 0x3 PUSH1 0x40 DUP9 KECCAK256 ADD SWAP1 PUSH1 0xFF DUP1 NOT DUP4 SLOAD AND SWAP2 ISZERO ISZERO AND OR SWAP1 SSTORE JUMP JUMPDEST PUSH1 0x40 MLOAD SWAP1 ISZERO ISZERO DUP2 MSTORE LOG2 DUP1 RETURN JUMPDEST CALLVALUE PUSH2 0x2F1 JUMPI PUSH2 0x18D4 CALLDATASIZE PUSH2 0xDB9 JUMP JUMPDEST POP POP POP POP POP PUSH1 0x20 PUSH1 0x40 MLOAD PUSH4 0xBC197C81 PUSH1 0xE0 SHL DUP2 MSTORE RETURN JUMPDEST CALLVALUE PUSH2 0x2F1 JUMPI PUSH2 0x18F8 CALLDATASIZE PUSH2 0x114F JUMP JUMPDEST SWAP2 PUSH2 0x1901 PUSH2 0x1DEE JUMP JUMPDEST PUSH1 0x1 DUP1 PUSH1 0xA0 SHL SUB AND PUSH32 0x7B0C29E799ED468266B4D070C03070137A95CB869C5EB7C18063FB7B1A7A09C5 PUSH1 0x20 PUSH1 0x0 SWAP5 DUP4 DUP7 MSTORE PUSH1 0x7 DUP3 MSTORE PUSH1 0x40 DUP7 KECCAK256 DUP6 DUP8 MSTORE DUP3 MSTORE DUP1 PUSH1 0x40 DUP8 KECCAK256 SSTORE PUSH1 0x40 MLOAD SWAP1 DUP2 MSTORE LOG3 DUP1 RETURN JUMPDEST CALLVALUE PUSH2 0x2F1 JUMPI PUSH1 0x20 CALLDATASIZE PUSH1 0x3 NOT ADD SLT PUSH2 0x2F1 JUMPI PUSH1 0x4 CALLDATALOAD PUSH1 0x0 MSTORE PUSH1 0x6 PUSH1 0x20 MSTORE PUSH1 0x80 PUSH1 0x40 PUSH1 0x0 KECCAK256 DUP1 SLOAD SWAP1 PUSH1 0x1 DUP2 ADD SLOAD SWAP1 PUSH1 0xFF PUSH1 0x3 PUSH1 0x2 DUP4 ADD SLOAD SWAP3 ADD SLOAD AND SWAP2 PUSH1 0x40 MLOAD SWAP4 DUP5 MSTORE PUSH1 0x20 DUP5 ADD MSTORE PUSH1 0x40 DUP4 ADD MSTORE ISZERO ISZERO PUSH1 0x60 DUP3 ADD MSTORE RETURN JUMPDEST CALLVALUE PUSH2 0x2F1 JUMPI PUSH1 0x0 PUSH1 0x40 CALLDATASIZE PUSH1 0x3 NOT ADD SLT PUSH2 0x1A4A JUMPI PUSH2 0x19BD PUSH2 0x2DB JUMP JUMPDEST DUP2 PUSH1 0x24 CALLDATALOAD SWAP2 PUSH2 0x19CB DUP4 PUSH2 0x12F2 JUMP JUMPDEST PUSH2 0x19D3 PUSH2 0x1DEE JUMP JUMPDEST PUSH1 0x1 PUSH1 0x1 PUSH1 0xA0 SHL SUB SWAP1 PUSH32 0x0 DUP3 AND SWAP1 DUP2 EXTCODESIZE ISZERO PUSH2 0x1A46 JUMPI DUP4 PUSH1 0x44 SWAP3 PUSH1 0x40 MLOAD SWAP7 DUP8 SWAP6 DUP7 SWAP5 PUSH4 0xD1A81A8D PUSH1 0xE0 SHL DUP7 MSTORE AND PUSH1 0x4 DUP6 ADD MSTORE ISZERO ISZERO PUSH1 0x24 DUP5 ADD MSTORE GAS CALL DUP1 ISZERO PUSH2 0xB1E JUMPI PUSH2 0x1A3A JUMPI POP DUP1 RETURN JUMPDEST PUSH2 0x1A43 SWAP1 PUSH2 0xC85 JUMP JUMPDEST DUP1 RETURN JUMPDEST DUP4 DUP1 REVERT JUMPDEST DUP1 REVERT JUMPDEST CALLVALUE PUSH2 0x2F1 JUMPI PUSH1 0x0 CALLDATASIZE PUSH1 0x3 NOT ADD SLT PUSH2 0x2F1 JUMPI PUSH1 0x20 PUSH1 0x40 MLOAD PUSH32 0x9F2DF0FED2C77648DE5860A4CC508CD0818C85B8B8A1AB4CEEEF8D981C8956A6 DUP2 MSTORE RETURN JUMPDEST CALLVALUE PUSH2 0x2F1 JUMPI PUSH1 0x40 CALLDATASIZE PUSH1 0x3 NOT ADD SLT PUSH2 0x2F1 JUMPI PUSH2 0x69C PUSH1 0x4 CALLDATALOAD PUSH2 0x1AA7 PUSH2 0x2F6 JUMP JUMPDEST SWAP1 DUP1 PUSH1 0x0 MSTORE PUSH1 0x3 PUSH1 0x20 MSTORE PUSH2 0x1AC2 PUSH1 0x1 PUSH1 0x40 PUSH1 0x0 KECCAK256 ADD SLOAD PUSH2 0x1FCA JUMP JUMPDEST PUSH2 0x20E2 JUMP JUMPDEST CALLVALUE PUSH2 0x2F1 JUMPI PUSH1 0x40 CALLDATASIZE PUSH1 0x3 NOT ADD SLT PUSH2 0x2F1 JUMPI PUSH2 0x1AE0 PUSH2 0x2DB JUMP JUMPDEST PUSH1 0x24 CALLDATALOAD SWAP1 PUSH2 0x51B PUSH1 0x0 DUP4 DUP2 MSTORE PUSH1 0x6 PUSH1 0x20 MSTORE PUSH1 0x40 DUP2 KECCAK256 SWAP1 DUP1 PUSH1 0x20 MSTORE PUSH2 0x1B19 DUP5 PUSH1 0x40 DUP4 KECCAK256 SWAP1 PUSH1 0x1 DUP1 PUSH1 0xA0 SHL SUB AND PUSH1 0x0 MSTORE PUSH1 0x20 MSTORE PUSH1 0x40 PUSH1 0x0 KECCAK256 SWAP1 JUMP JUMPDEST SLOAD PUSH1 0x1 PUSH1 0x1 PUSH1 0xA0 SHL SUB DUP6 AND DUP3 MSTORE PUSH1 0x7 PUSH1 0x20 SWAP1 DUP2 MSTORE PUSH1 0x40 DUP1 DUP5 KECCAK256 PUSH1 0x0 DUP10 DUP2 MSTORE SWAP3 MSTORE SWAP1 KECCAK256 SLOAD SWAP1 SWAP2 DUP2 DUP4 GT ISZERO PUSH2 0x1BD3 JUMPI POP PUSH2 0x1B51 DUP2 DUP4 PUSH2 0x2D7A JUMP JUMPDEST SWAP2 JUMPDEST DUP4 SLOAD SWAP6 PUSH2 0x1B91 PUSH1 0x1 DUP7 ADD SLOAD SWAP9 PUSH2 0x9D0 PUSH2 0x1B75 PUSH1 0x3 PUSH1 0x2 DUP11 ADD SLOAD SWAP10 ADD SLOAD PUSH1 0xFF AND SWAP1 JUMP JUMPDEST PUSH1 0x1 PUSH1 0x1 PUSH1 0xA0 SHL SUB SWAP1 SWAP5 AND PUSH1 0x0 SWAP1 DUP2 MSTORE PUSH1 0x8 PUSH1 0x20 MSTORE PUSH1 0x40 SWAP1 KECCAK256 SWAP1 JUMP JUMPDEST SLOAD SWAP5 PUSH1 0x40 MLOAD SWAP9 DUP10 SWAP9 DUP10 SWAP5 SWAP2 SWAP3 PUSH1 0xE0 SWAP7 SWAP4 SWAP10 SWAP9 SWAP8 SWAP5 SWAP2 SWAP10 PUSH2 0x100 DUP8 ADD SWAP11 DUP8 MSTORE PUSH1 0x20 DUP8 ADD MSTORE PUSH1 0x40 DUP7 ADD MSTORE ISZERO ISZERO PUSH1 0x60 DUP6 ADD MSTORE PUSH1 0x80 DUP5 ADD MSTORE PUSH1 0xA0 DUP4 ADD MSTORE PUSH1 0xC0 DUP3 ADD MSTORE ADD MSTORE JUMP JUMPDEST SWAP2 PUSH2 0x1B53 JUMP JUMPDEST CALLVALUE PUSH2 0x2F1 JUMPI PUSH1 0x0 CALLDATASIZE PUSH1 0x3 NOT ADD SLT PUSH2 0x2F1 JUMPI PUSH1 0x20 PUSH1 0x40 MLOAD PUSH32 0x65D7A28E3265B37A6474929F336521B332C1681B933F6CB9F3376673440D862A DUP2 MSTORE RETURN JUMPDEST CALLVALUE PUSH2 0x2F1 JUMPI PUSH1 0x40 CALLDATASIZE PUSH1 0x3 NOT ADD SLT PUSH2 0x2F1 JUMPI PUSH1 0x20 PUSH1 0xFF PUSH2 0x1281 PUSH2 0x1C34 PUSH2 0x2DB JUMP JUMPDEST PUSH2 0x1C3C PUSH2 0x2F6 JUMP JUMPDEST PUSH1 0x1 PUSH1 0x1 PUSH1 0xA0 SHL SUB SWAP2 DUP3 AND PUSH1 0x0 SWAP1 DUP2 MSTORE PUSH1 0x1 DUP7 MSTORE PUSH1 0x40 DUP1 DUP3 KECCAK256 SWAP3 SWAP1 SWAP4 AND DUP2 MSTORE PUSH1 0x20 SWAP2 SWAP1 SWAP2 MSTORE KECCAK256 SWAP1 JUMP JUMPDEST PUSH1 0xA0 PUSH1 0x3 NOT DUP3 ADD SLT PUSH2 0x2F1 JUMPI PUSH1 0x1 PUSH1 0x1 PUSH1 0xA0 SHL SUB SWAP2 PUSH1 0x4 CALLDATALOAD DUP4 DUP2 AND DUP2 SUB PUSH2 0x2F1 JUMPI SWAP3 PUSH1 0x24 CALLDATALOAD SWAP1 DUP2 AND DUP2 SUB PUSH2 0x2F1 JUMPI SWAP2 PUSH1 0x44 CALLDATALOAD SWAP2 PUSH1 0x64 CALLDATALOAD SWAP2 PUSH1 0x84 CALLDATALOAD SWAP1 PUSH8 0xFFFFFFFFFFFFFFFF DUP3 GT PUSH2 0x2F1 JUMPI PUSH2 0x4AD SWAP2 PUSH1 0x4 ADD PUSH2 0xD72 JUMP JUMPDEST CALLVALUE PUSH2 0x2F1 JUMPI PUSH2 0x1CC9 CALLDATASIZE PUSH2 0x1C65 JUMP JUMPDEST POP POP POP POP POP PUSH1 0x20 PUSH1 0x40 MLOAD PUSH4 0xF23A6E61 PUSH1 0xE0 SHL DUP2 MSTORE RETURN JUMPDEST CALLVALUE PUSH2 0x2F1 JUMPI PUSH2 0x1CED CALLDATASIZE PUSH2 0x1C65 JUMP JUMPDEST SWAP3 SWAP1 SWAP2 SWAP1 PUSH1 0x1 PUSH1 0x1 PUSH1 0xA0 SHL SUB DUP6 AND CALLER DUP2 EQ ISZERO SWAP1 DUP2 PUSH2 0x1D3B JUMPI JUMPDEST POP PUSH2 0x1D14 JUMPI PUSH2 0x69C SWAP5 PUSH2 0x229B JUMP JUMPDEST PUSH1 0x40 MLOAD PUSH4 0x711BEC91 PUSH1 0xE1 SHL DUP2 MSTORE CALLER PUSH1 0x4 DUP3 ADD MSTORE PUSH1 0x1 PUSH1 0x1 PUSH1 0xA0 SHL SUB DUP7 AND PUSH1 0x24 DUP3 ADD MSTORE PUSH1 0x44 SWAP1 REVERT JUMPDEST PUSH1 0x0 SWAP1 DUP2 MSTORE PUSH1 0x1 PUSH1 0x20 SWAP1 DUP2 MSTORE PUSH1 0x40 DUP1 DUP4 KECCAK256 CALLER DUP5 MSTORE SWAP1 SWAP2 MSTORE SWAP1 KECCAK256 PUSH1 0xFF SWAP2 POP SLOAD AND ISZERO CODESIZE PUSH2 0x1D06 JUMP JUMPDEST CALLVALUE PUSH2 0x2F1 JUMPI PUSH1 0x0 CALLDATASIZE PUSH1 0x3 NOT ADD SLT PUSH2 0x2F1 JUMPI PUSH1 0x40 MLOAD PUSH32 0x0 PUSH1 0x1 PUSH1 0x1 PUSH1 0xA0 SHL SUB AND DUP2 MSTORE PUSH1 0x20 SWAP1 RETURN JUMPDEST CALLVALUE PUSH2 0x2F1 JUMPI PUSH1 0x40 CALLDATASIZE PUSH1 0x3 NOT ADD SLT PUSH2 0x2F1 JUMPI PUSH1 0x1 PUSH1 0x1 PUSH1 0xA0 SHL SUB PUSH2 0x1DC7 PUSH2 0x2DB JUMP JUMPDEST AND PUSH1 0x0 MSTORE PUSH1 0x7 PUSH1 0x20 MSTORE PUSH1 0x40 PUSH1 0x0 KECCAK256 PUSH1 0x24 CALLDATALOAD PUSH1 0x0 MSTORE PUSH1 0x20 MSTORE PUSH1 0x20 PUSH1 0x40 PUSH1 0x0 KECCAK256 SLOAD PUSH1 0x40 MLOAD SWAP1 DUP2 MSTORE RETURN JUMPDEST CALLER PUSH1 0x0 SWAP1 DUP2 MSTORE PUSH32 0xFCA98A0144180C5FF9CC8EB43249FF58E5A9EDC28CCC383A25775F69580ACD20 PUSH1 0x20 MSTORE PUSH1 0x40 SWAP1 KECCAK256 PUSH32 0xB6F0283BD1ED00C6AA7E988A7516070240F3610A34D167391359B648EB37CEFC SWAP1 PUSH1 0xFF SWAP1 JUMPDEST SLOAD AND ISZERO PUSH2 0x1E4C JUMPI POP JUMP JUMPDEST PUSH1 0x44 SWAP1 PUSH1 0x40 MLOAD SWAP1 PUSH4 0xE2517D3F PUSH1 0xE0 SHL DUP3 MSTORE CALLER PUSH1 0x4 DUP4 ADD MSTORE PUSH1 0x24 DUP3 ADD MSTORE REVERT JUMPDEST CALLER PUSH1 0x0 SWAP1 DUP2 MSTORE PUSH32 0xD4F4AE7E0F1D6EF3E8290F298FBE252931B59DD183524E1AF76274726DA1E663 PUSH1 0x20 MSTORE PUSH1 0x40 SWAP1 KECCAK256 PUSH32 0xB1FADD3142AB2AD7F1337EA4D97112BCC8337FC11CE5B20CB04AD038ADF99819 SWAP1 PUSH1 0xFF SWAP1 PUSH2 0x1E42 JUMP JUMPDEST CALLER PUSH1 0x0 SWAP1 DUP2 MSTORE PUSH32 0x3617319A054D772F909F7C479A2CEBE5066E836A939412E32403C99029B92EFF PUSH1 0x20 MSTORE PUSH1 0x40 SWAP1 KECCAK256 SLOAD PUSH1 0xFF AND ISZERO PUSH2 0x1EFB JUMPI JUMP JUMPDEST PUSH1 0x40 MLOAD PUSH4 0xE2517D3F PUSH1 0xE0 SHL DUP2 MSTORE CALLER PUSH1 0x4 DUP3 ADD MSTORE PUSH1 0x0 PUSH1 0x24 DUP3 ADD MSTORE PUSH1 0x44 SWAP1 REVERT JUMPDEST CALLER PUSH1 0x0 SWAP1 DUP2 MSTORE PUSH32 0x30ADEB818EF77F204F5A603C30FA5332397B6E28FB3B7F9D937AE6A6914716DE PUSH1 0x20 MSTORE PUSH1 0x40 SWAP1 KECCAK256 PUSH32 0x65D7A28E3265B37A6474929F336521B332C1681B933F6CB9F3376673440D862A SWAP1 PUSH1 0xFF SWAP1 PUSH2 0x1E42 JUMP JUMPDEST CALLER PUSH1 0x0 SWAP1 DUP2 MSTORE PUSH32 0x5562E70DA342DB81569F3094D36BE279BEACA7AD8E08F434EA188E79D2BFE10C PUSH1 0x20 MSTORE PUSH1 0x40 SWAP1 KECCAK256 PUSH32 0x9F2DF0FED2C77648DE5860A4CC508CD0818C85B8B8A1AB4CEEEF8D981C8956A6 SWAP1 PUSH1 0xFF SWAP1 PUSH2 0x1E42 JUMP JUMPDEST PUSH1 0x0 DUP2 DUP2 MSTORE PUSH1 0x3 PUSH1 0x20 SWAP1 DUP2 MSTORE PUSH1 0x40 DUP1 DUP4 KECCAK256 CALLER DUP5 MSTORE SWAP1 SWAP2 MSTORE SWAP1 KECCAK256 PUSH1 0xFF SWAP1 PUSH2 0x1E42 JUMP JUMPDEST PUSH1 0x1 PUSH1 0x1 PUSH1 0xA0 SHL SUB DUP2 AND PUSH1 0x0 SWAP1 DUP2 MSTORE PUSH32 0x30ADEB818EF77F204F5A603C30FA5332397B6E28FB3B7F9D937AE6A6914716DE PUSH1 0x20 MSTORE PUSH1 0x40 DUP2 KECCAK256 PUSH32 0x65D7A28E3265B37A6474929F336521B332C1681B933F6CB9F3376673440D862A SWAP1 PUSH1 0xFF SWAP1 JUMPDEST SLOAD AND PUSH2 0x20B0 JUMPI DUP1 DUP3 MSTORE PUSH1 0x3 PUSH1 0x20 SWAP1 DUP2 MSTORE PUSH1 0x40 DUP1 DUP5 KECCAK256 PUSH1 0x1 PUSH1 0x1 PUSH1 0xA0 SHL SUB DUP7 AND PUSH1 0x0 SWAP1 DUP2 MSTORE SWAP3 MSTORE SWAP1 KECCAK256 DUP1 SLOAD PUSH1 0xFF NOT AND PUSH1 0x1 OR SWAP1 SSTORE CALLER SWAP3 PUSH1 0x1 PUSH1 0x1 PUSH1 0xA0 SHL SUB AND SWAP2 PUSH32 0x2F8788117E7EFF1D82E926EC794901D17C78024A50270940304540A733656F0D SWAP1 DUP1 LOG4 PUSH1 0x1 SWAP1 JUMP JUMPDEST POP SWAP1 POP SWAP1 JUMP JUMPDEST PUSH1 0x0 SWAP1 DUP1 DUP3 MSTORE PUSH1 0x3 PUSH1 0x20 MSTORE PUSH1 0xFF PUSH2 0x2048 DUP5 PUSH1 0x40 DUP6 KECCAK256 SWAP1 PUSH1 0x1 DUP1 PUSH1 0xA0 SHL SUB AND PUSH1 0x0 MSTORE PUSH1 0x20 MSTORE PUSH1 0x40 PUSH1 0x0 KECCAK256 SWAP1 JUMP JUMPDEST PUSH1 0x0 SWAP1 DUP1 DUP3 MSTORE PUSH1 0x3 PUSH1 0x20 MSTORE PUSH1 0xFF PUSH2 0x210E DUP5 PUSH1 0x40 DUP6 KECCAK256 SWAP1 PUSH1 0x1 DUP1 PUSH1 0xA0 SHL SUB AND PUSH1 0x0 MSTORE PUSH1 0x20 MSTORE PUSH1 0x40 PUSH1 0x0 KECCAK256 SWAP1 JUMP JUMPDEST SLOAD AND ISZERO PUSH2 0x20B0 JUMPI DUP1 DUP3 MSTORE PUSH1 0x3 PUSH1 0x20 SWAP1 DUP2 MSTORE PUSH1 0x40 DUP1 DUP5 KECCAK256 PUSH1 0x1 PUSH1 0x1 PUSH1 0xA0 SHL SUB DUP7 AND PUSH1 0x0 SWAP1 DUP2 MSTORE SWAP3 MSTORE SWAP1 KECCAK256 DUP1 SLOAD PUSH1 0xFF NOT AND SWAP1 SSTORE CALLER SWAP3 PUSH1 0x1 PUSH1 0x1 PUSH1 0xA0 SHL SUB AND SWAP2 PUSH32 0xF6391F5C32D9C69D2A47EA670B442974B53935D1EDC7FD64EB21E047A839171B SWAP1 DUP1 LOG4 PUSH1 0x1 SWAP1 JUMP JUMPDEST SWAP1 PUSH2 0x217E DUP3 PUSH2 0xCE0 JUMP JUMPDEST PUSH2 0x218B PUSH1 0x40 MLOAD SWAP2 DUP3 PUSH2 0xC9E JUMP JUMPDEST DUP3 DUP2 MSTORE DUP1 SWAP3 PUSH2 0x219C PUSH1 0x1F NOT SWAP2 PUSH2 0xCE0 JUMP JUMPDEST ADD SWAP1 PUSH1 0x20 CALLDATASIZE SWAP2 ADD CALLDATACOPY JUMP JUMPDEST PUSH4 0x4E487B71 PUSH1 0xE0 SHL PUSH1 0x0 MSTORE PUSH1 0x11 PUSH1 0x4 MSTORE PUSH1 0x24 PUSH1 0x0 REVERT JUMPDEST PUSH1 0x0 NOT DUP2 EQ PUSH2 0x21CB JUMPI PUSH1 0x1 ADD SWAP1 JUMP JUMPDEST PUSH2 0x21A6 JUMP JUMPDEST DUP1 MLOAD DUP3 LT ISZERO PUSH2 0x21E4 JUMPI PUSH1 0x20 SWAP2 PUSH1 0x5 SHL ADD ADD SWAP1 JUMP JUMPDEST PUSH4 0x4E487B71 PUSH1 0xE0 SHL PUSH1 0x0 MSTORE PUSH1 0x32 PUSH1 0x4 MSTORE PUSH1 0x24 PUSH1 0x0 REVERT JUMPDEST SWAP2 SWAP1 SWAP2 DUP1 MLOAD DUP4 MLOAD DUP1 DUP3 SUB PUSH2 0x2279 JUMPI POP POP PUSH2 0x2214 DUP2 MLOAD PUSH2 0x2174 JUMP JUMPDEST SWAP1 PUSH1 0x0 SWAP1 DUP2 JUMPDEST DUP2 MLOAD DUP2 LT ISZERO PUSH2 0x2271 JUMPI DUP1 PUSH2 0x225B PUSH2 0x226C SWAP3 PUSH1 0x5 SHL DUP6 PUSH1 0x20 DUP1 DUP1 DUP5 DUP10 ADD ADD MLOAD SWAP4 DUP13 ADD ADD MLOAD DUP3 MSTORE MSTORE PUSH1 0x40 DUP7 KECCAK256 SWAP1 PUSH1 0x1 DUP1 PUSH1 0xA0 SHL SUB AND PUSH1 0x0 MSTORE PUSH1 0x20 MSTORE PUSH1 0x40 PUSH1 0x0 KECCAK256 SWAP1 JUMP JUMPDEST SLOAD PUSH2 0x2266 DUP3 DUP8 PUSH2 0x21D0 JUMP JUMPDEST MSTORE PUSH2 0x21BC JUMP JUMPDEST PUSH2 0x221A JUMP JUMPDEST POP SWAP2 SWAP4 POP POP POP JUMP JUMPDEST PUSH1 0x40 MLOAD PUSH4 0x5B059991 PUSH1 0xE0 SHL DUP2 MSTORE PUSH1 0x4 DUP2 ADD SWAP2 SWAP1 SWAP2 MSTORE PUSH1 0x24 DUP2 ADD SWAP2 SWAP1 SWAP2 MSTORE PUSH1 0x44 SWAP1 REVERT JUMPDEST SWAP4 SWAP3 SWAP2 SWAP1 PUSH1 0x1 PUSH1 0x1 PUSH1 0xA0 SHL SUB DUP1 DUP3 AND ISZERO PUSH2 0xE91 JUMPI DUP6 AND ISZERO PUSH2 0xE79 JUMPI PUSH2 0x22E1 SWAP5 PUSH1 0x40 MLOAD SWAP3 PUSH1 0x1 DUP5 MSTORE PUSH1 0x20 DUP5 ADD MSTORE PUSH1 0x40 DUP4 ADD SWAP4 PUSH1 0x1 DUP6 MSTORE PUSH1 0x60 DUP5 ADD MSTORE PUSH1 0x80 DUP4 ADD PUSH1 0x40 MSTORE PUSH2 0x22E3 JUMP JUMPDEST JUMP JUMPDEST SWAP5 SWAP2 SWAP1 SWAP2 PUSH2 0x22EF PUSH2 0x2762 JUMP JUMPDEST DUP2 MLOAD DUP5 MLOAD SWAP1 DUP2 DUP2 SUB PUSH2 0x2279 JUMPI POP POP PUSH1 0x0 JUMPDEST DUP3 MLOAD DUP2 LT ISZERO PUSH2 0x23FC JUMPI PUSH1 0x5 DUP2 SWAP1 SHL DUP4 DUP2 ADD PUSH1 0x20 SWAP1 DUP2 ADD MLOAD SWAP2 DUP8 ADD ADD MLOAD PUSH1 0x1 PUSH1 0x1 PUSH1 0xA0 SHL SUB SWAP3 SWAP2 DUP7 SWAP1 DUP11 DUP6 AND PUSH2 0x2375 JUMPI JUMPDEST PUSH2 0x2343 SWAP5 DUP3 AND PUSH2 0x2348 JUMPI JUMPDEST POP POP POP PUSH2 0x21BC JUMP JUMPDEST PUSH2 0x2300 JUMP JUMPDEST PUSH2 0x236B SWAP2 PUSH2 0x971 PUSH2 0x2363 SWAP3 PUSH1 0x0 MSTORE PUSH1 0x0 PUSH1 0x20 MSTORE PUSH1 0x40 PUSH1 0x0 KECCAK256 SWAP1 JUMP JUMPDEST SWAP2 DUP3 SLOAD PUSH2 0x289F JUMP JUMPDEST SWAP1 SSTORE CODESIZE DUP6 DUP2 PUSH2 0x233B JUMP JUMPDEST SWAP2 SWAP3 SWAP4 SWAP1 POP PUSH2 0x2392 DUP11 PUSH2 0x971 DUP5 PUSH1 0x0 MSTORE PUSH1 0x0 PUSH1 0x20 MSTORE PUSH1 0x40 PUSH1 0x0 KECCAK256 SWAP1 JUMP JUMPDEST SLOAD DUP4 DUP2 LT PUSH2 0x23C5 JUMPI SWAP2 DUP8 SWAP2 DUP5 PUSH2 0x2343 SWAP7 SWAP6 SWAP5 SUB PUSH2 0x23BD DUP14 PUSH2 0x971 DUP6 PUSH1 0x0 MSTORE PUSH1 0x0 PUSH1 0x20 MSTORE PUSH1 0x40 PUSH1 0x0 KECCAK256 SWAP1 JUMP JUMPDEST SSTORE SWAP5 POP PUSH2 0x2330 JUMP JUMPDEST PUSH1 0x40 MLOAD PUSH4 0x3DEE4C5 PUSH1 0xE0 SHL DUP2 MSTORE PUSH1 0x1 PUSH1 0x1 PUSH1 0xA0 SHL SUB DUP13 AND PUSH1 0x4 DUP3 ADD MSTORE PUSH1 0x24 DUP2 ADD SWAP2 SWAP1 SWAP2 MSTORE PUSH1 0x44 DUP2 ADD DUP5 SWAP1 MSTORE PUSH1 0x64 DUP2 ADD DUP4 SWAP1 MSTORE PUSH1 0x84 SWAP1 REVERT JUMPDEST POP SWAP5 SWAP2 SWAP4 SWAP3 SWAP1 SWAP4 PUSH1 0x1 DUP6 MLOAD EQ PUSH1 0x0 EQ PUSH2 0x24A7 JUMPI PUSH1 0x20 DUP6 DUP2 ADD MLOAD DUP4 DUP3 ADD MLOAD PUSH1 0x40 DUP1 MLOAD SWAP3 DUP4 MSTORE SWAP3 DUP3 ADD MSTORE PUSH1 0x1 PUSH1 0x1 PUSH1 0xA0 SHL SUB DUP4 DUP2 AND SWAP3 SWAP1 DUP7 AND SWAP2 CALLER SWAP2 PUSH32 0xC3D58168C5AE7397731D063D5BBF3D657854427343F4C083240F7AACAA2D0F62 SWAP2 LOG4 JUMPDEST PUSH1 0x1 PUSH1 0x1 PUSH1 0xA0 SHL SUB DUP2 AND PUSH2 0x2470 JUMPI JUMPDEST POP POP POP POP POP JUMP JUMPDEST DUP5 MLOAD PUSH1 0x1 SUB PUSH2 0x2496 JUMPI PUSH1 0x20 DUP1 PUSH2 0x248C SWAP7 ADD MLOAD SWAP3 ADD MLOAD SWAP3 CALLER PUSH2 0x259A JUMP JUMPDEST CODESIZE DUP1 DUP1 DUP1 DUP1 PUSH2 0x2469 JUMP JUMPDEST PUSH2 0x24A2 SWAP5 SWAP2 SWAP3 CALLER PUSH2 0x26E6 JUMP JUMPDEST PUSH2 0x248C JUMP JUMPDEST PUSH1 0x40 MLOAD PUSH1 0x1 PUSH1 0x1 PUSH1 0xA0 SHL SUB DUP3 DUP2 AND SWAP2 SWAP1 DUP6 AND SWAP1 CALLER SWAP1 PUSH32 0x4A39DC06D4C0DBC64B70AF90FD698A233A518AA5D07E595D983B8C0526C8F7FB SWAP1 DUP1 PUSH2 0x24EA DUP9 DUP13 DUP4 PUSH2 0x28AC JUMP JUMPDEST SUB SWAP1 LOG4 PUSH2 0x245A JUMP JUMPDEST SWAP1 DUP2 PUSH1 0x20 SWAP2 SUB SLT PUSH2 0x2F1 JUMPI MLOAD PUSH2 0x4AD DUP2 PUSH2 0x36D JUMP JUMPDEST SWAP2 SWAP3 PUSH2 0x4AD SWAP6 SWAP5 SWAP2 PUSH1 0xA0 SWAP5 PUSH1 0x1 DUP1 DUP8 SHL SUB DUP1 SWAP3 AND DUP6 MSTORE AND PUSH1 0x20 DUP5 ADD MSTORE PUSH1 0x40 DUP4 ADD MSTORE PUSH1 0x60 DUP3 ADD MSTORE DUP2 PUSH1 0x80 DUP3 ADD MSTORE ADD SWAP1 PUSH2 0x45C JUMP JUMPDEST PUSH1 0x40 MLOAD RETURNDATASIZE PUSH1 0x0 DUP3 RETURNDATACOPY RETURNDATASIZE SWAP1 REVERT JUMPDEST PUSH1 0x40 MLOAD SWAP1 PUSH1 0x20 DUP3 ADD DUP3 DUP2 LT PUSH8 0xFFFFFFFFFFFFFFFF DUP3 GT OR PUSH2 0xC99 JUMPI PUSH1 0x40 MSTORE PUSH1 0x0 DUP3 MSTORE JUMP JUMPDEST RETURNDATASIZE ISZERO PUSH2 0x2595 JUMPI RETURNDATASIZE SWAP1 PUSH2 0x257B DUP3 PUSH2 0xD56 JUMP JUMPDEST SWAP2 PUSH2 0x2589 PUSH1 0x40 MLOAD SWAP4 DUP5 PUSH2 0xC9E JUMP JUMPDEST DUP3 MSTORE RETURNDATASIZE PUSH1 0x0 PUSH1 0x20 DUP5 ADD RETURNDATACOPY JUMP JUMPDEST PUSH1 0x60 SWAP1 JUMP JUMPDEST SWAP4 SWAP3 SWAP1 SWAP5 SWAP2 SWAP5 DUP6 EXTCODESIZE PUSH2 0x25AF JUMPI JUMPDEST POP POP POP POP POP POP JUMP JUMPDEST PUSH2 0x25D2 PUSH1 0x20 SWAP4 PUSH1 0x40 MLOAD SWAP6 DUP7 SWAP5 DUP6 SWAP5 PUSH4 0xF23A6E61 PUSH1 0xE0 SHL SWAP10 DUP11 DUP8 MSTORE PUSH1 0x4 DUP8 ADD PUSH2 0x2507 JUMP JUMPDEST SUB DUP2 PUSH1 0x0 PUSH1 0x1 PUSH1 0x1 PUSH1 0xA0 SHL SUB DUP9 AND GAS CALL PUSH1 0x0 SWAP2 DUP2 PUSH2 0x2668 JUMPI JUMPDEST POP PUSH2 0x262A JUMPI DUP3 PUSH2 0x25F9 PUSH2 0x256A JUMP JUMPDEST DUP1 MLOAD SWAP2 SWAP1 DUP3 PUSH2 0x2623 JUMPI PUSH1 0x40 MLOAD PUSH4 0x2BFA23E7 PUSH1 0xE1 SHL DUP2 MSTORE PUSH1 0x1 PUSH1 0x1 PUSH1 0xA0 SHL SUB DUP4 AND PUSH1 0x4 DUP3 ADD MSTORE PUSH1 0x24 SWAP1 REVERT JUMPDEST PUSH1 0x20 SWAP2 POP ADD REVERT JUMPDEST PUSH1 0x1 PUSH1 0x1 PUSH1 0xE0 SHL SUB NOT AND SUB PUSH2 0x2645 JUMPI POP CODESIZE DUP1 DUP1 DUP1 DUP1 DUP1 PUSH2 0x25A7 JUMP JUMPDEST PUSH1 0x40 MLOAD PUSH4 0x2BFA23E7 PUSH1 0xE1 SHL DUP2 MSTORE PUSH1 0x1 PUSH1 0x1 PUSH1 0xA0 SHL SUB SWAP2 SWAP1 SWAP2 AND PUSH1 0x4 DUP3 ADD MSTORE PUSH1 0x24 SWAP1 REVERT JUMPDEST PUSH2 0x268A SWAP2 SWAP3 POP PUSH1 0x20 RETURNDATASIZE DUP2 GT PUSH2 0x2691 JUMPI JUMPDEST PUSH2 0x2682 DUP2 DUP4 PUSH2 0xC9E JUMP JUMPDEST DUP2 ADD SWAP1 PUSH2 0x24F2 JUMP JUMPDEST SWAP1 CODESIZE PUSH2 0x25EB JUMP JUMPDEST POP RETURNDATASIZE PUSH2 0x2678 JUMP JUMPDEST SWAP4 SWAP1 PUSH2 0x4AD SWAP6 SWAP4 PUSH2 0x26CA SWAP2 PUSH2 0x26D8 SWAP5 PUSH1 0x1 DUP1 PUSH1 0xA0 SHL SUB DUP1 SWAP3 AND DUP9 MSTORE AND PUSH1 0x20 DUP8 ADD MSTORE PUSH1 0xA0 PUSH1 0x40 DUP8 ADD MSTORE PUSH1 0xA0 DUP7 ADD SWAP1 PUSH2 0xFE5 JUMP JUMPDEST SWAP1 DUP5 DUP3 SUB PUSH1 0x60 DUP7 ADD MSTORE PUSH2 0xFE5 JUMP JUMPDEST SWAP2 PUSH1 0x80 DUP2 DUP5 SUB SWAP2 ADD MSTORE PUSH2 0x45C JUMP JUMPDEST SWAP4 SWAP3 SWAP1 SWAP5 SWAP2 SWAP5 DUP6 EXTCODESIZE PUSH2 0x26FA JUMPI POP POP POP POP POP POP JUMP JUMPDEST PUSH2 0x25D2 PUSH1 0x20 SWAP4 PUSH1 0x40 MLOAD SWAP6 DUP7 SWAP5 DUP6 SWAP5 PUSH4 0xBC197C81 PUSH1 0xE0 SHL SWAP10 DUP11 DUP8 MSTORE PUSH1 0x4 DUP8 ADD PUSH2 0x2698 JUMP JUMPDEST ISZERO PUSH2 0x2724 JUMPI JUMP JUMPDEST PUSH1 0x40 MLOAD PUSH3 0x461BCD PUSH1 0xE5 SHL DUP2 MSTORE PUSH1 0x20 PUSH1 0x4 DUP3 ADD MSTORE PUSH1 0x16 PUSH1 0x24 DUP3 ADD MSTORE PUSH22 0x496E76616C6964207061757365722061646472657373 PUSH1 0x50 SHL PUSH1 0x44 DUP3 ADD MSTORE PUSH1 0x64 SWAP1 REVERT JUMPDEST PUSH1 0xFF PUSH1 0x5 SLOAD AND PUSH2 0x276E JUMPI JUMP JUMPDEST PUSH1 0x40 MLOAD PUSH4 0xD93C0665 PUSH1 0xE0 SHL DUP2 MSTORE PUSH1 0x4 SWAP1 REVERT JUMPDEST SWAP2 SWAP1 SWAP2 PUSH2 0x278B PUSH2 0x2762 JUMP JUMPDEST DUP3 MLOAD DUP3 MLOAD SWAP1 DUP2 DUP2 SUB PUSH2 0x2279 JUMPI POP POP PUSH1 0x0 JUMPDEST DUP4 MLOAD DUP2 LT ISZERO PUSH2 0x27FF JUMPI PUSH1 0x5 DUP2 SWAP1 SHL DUP5 DUP2 ADD PUSH1 0x20 SWAP1 DUP2 ADD MLOAD SWAP2 DUP6 ADD ADD MLOAD PUSH2 0x27D5 SWAP3 SWAP2 DUP5 SWAP1 PUSH1 0x1 PUSH1 0x1 PUSH1 0xA0 SHL SUB DUP3 AND PUSH2 0x27DA JUMPI POP POP POP PUSH2 0x21BC JUMP JUMPDEST PUSH2 0x279C JUMP JUMPDEST PUSH2 0x27F5 SWAP2 PUSH2 0x971 PUSH2 0x2363 SWAP3 PUSH1 0x0 MSTORE PUSH1 0x0 PUSH1 0x20 MSTORE PUSH1 0x40 PUSH1 0x0 KECCAK256 SWAP1 JUMP JUMPDEST SWAP1 SSTORE CODESIZE DUP4 DUP2 PUSH2 0x233B JUMP JUMPDEST POP SWAP2 PUSH1 0x1 DUP2 MLOAD EQ PUSH1 0x0 EQ PUSH2 0x2860 JUMPI PUSH1 0x20 SWAP1 DUP2 ADD MLOAD SWAP2 DUP2 ADD MLOAD PUSH1 0x40 DUP1 MLOAD SWAP4 DUP5 MSTORE SWAP2 DUP4 ADD MSTORE PUSH1 0x1 PUSH1 0x1 PUSH1 0xA0 SHL SUB SWAP1 SWAP3 AND SWAP2 PUSH1 0x0 SWAP2 CALLER SWAP2 PUSH32 0xC3D58168C5AE7397731D063D5BBF3D657854427343F4C083240F7AACAA2D0F62 SWAP2 SWAP1 DUP2 SWAP1 DUP2 ADD JUMPDEST SUB SWAP1 LOG4 JUMP JUMPDEST PUSH32 0x4A39DC06D4C0DBC64B70AF90FD698A233A518AA5D07E595D983B8C0526C8F7FB PUSH2 0x285B PUSH1 0x0 SWAP4 SWAP5 PUSH1 0x40 MLOAD SWAP2 DUP3 SWAP2 PUSH1 0x1 DUP1 PUSH1 0xA0 SHL SUB AND SWAP7 CALLER SWAP6 DUP4 PUSH2 0x28AC JUMP JUMPDEST SWAP2 SWAP1 DUP3 ADD DUP1 SWAP3 GT PUSH2 0x21CB JUMPI JUMP JUMPDEST SWAP1 SWAP2 PUSH2 0x28C3 PUSH2 0x4AD SWAP4 PUSH1 0x40 DUP5 MSTORE PUSH1 0x40 DUP5 ADD SWAP1 PUSH2 0xFE5 JUMP JUMPDEST SWAP2 PUSH1 0x20 DUP2 DUP5 SUB SWAP2 ADD MSTORE PUSH2 0xFE5 JUMP JUMPDEST SWAP1 DUP2 PUSH1 0x20 SWAP2 SUB SLT PUSH2 0x2F1 JUMPI MLOAD PUSH2 0x4AD DUP2 PUSH2 0x12F2 JUMP JUMPDEST PUSH1 0x40 MLOAD PUSH4 0x14A5749D PUSH1 0xE3 SHL DUP2 MSTORE PUSH1 0x1 PUSH1 0x1 PUSH1 0xA0 SHL SUB DUP3 AND PUSH1 0x4 DUP3 ADD MSTORE SWAP1 SWAP3 SWAP1 PUSH1 0x20 DUP2 DUP1 PUSH1 0x24 DUP2 ADD SUB DUP2 PUSH32 0x0 PUSH1 0x1 PUSH1 0x1 PUSH1 0xA0 SHL SUB AND GAS STATICCALL SWAP1 DUP2 ISZERO PUSH2 0xB1E JUMPI PUSH1 0x0 SWAP2 PUSH2 0x29AF JUMPI JUMPDEST POP ISZERO DUP1 ISZERO PUSH2 0x29A3 JUMPI JUMPDEST PUSH2 0x299B JUMPI PUSH2 0x9DF DUP3 PUSH2 0x9D0 PUSH2 0x2979 DUP7 PUSH2 0x971 PUSH2 0x2996 SWAP8 PUSH1 0x0 MSTORE PUSH1 0x0 PUSH1 0x20 MSTORE PUSH1 0x40 PUSH1 0x0 KECCAK256 SWAP1 JUMP JUMPDEST SLOAD PUSH1 0x1 PUSH1 0x1 PUSH1 0xA0 SHL SUB SWAP1 SWAP7 AND PUSH1 0x0 SWAP1 DUP2 MSTORE PUSH1 0x7 PUSH1 0x20 MSTORE PUSH1 0x40 SWAP1 KECCAK256 SWAP1 JUMP JUMPDEST GT ISZERO SWAP1 JUMP JUMPDEST POP POP POP PUSH1 0x0 SWAP1 JUMP JUMPDEST POP PUSH1 0x5 SLOAD PUSH1 0xFF AND PUSH2 0x2953 JUMP JUMPDEST PUSH2 0x29C7 SWAP2 POP PUSH1 0x20 RETURNDATASIZE DUP2 GT PUSH2 0xB17 JUMPI PUSH2 0xB08 DUP2 DUP4 PUSH2 0xC9E JUMP JUMPDEST CODESIZE PUSH2 0x294A JUMP JUMPDEST PUSH1 0x40 MLOAD PUSH4 0x14A5749D PUSH1 0xE3 SHL DUP1 DUP3 MSTORE PUSH1 0x1 PUSH1 0x1 PUSH1 0xA0 SHL SUB DUP4 DUP2 AND PUSH1 0x4 DUP5 ADD MSTORE SWAP3 SWAP6 SWAP4 SWAP1 SWAP3 PUSH32 0x0 AND SWAP2 PUSH1 0x20 SWAP2 SWAP1 DUP3 DUP2 PUSH1 0x24 DUP2 DUP8 GAS STATICCALL SWAP1 DUP2 ISZERO PUSH2 0xB1E JUMPI PUSH1 0x0 SWAP2 PUSH2 0x2AC8 JUMPI JUMPDEST POP ISZERO SWAP3 DUP4 ISZERO PUSH2 0x2A6A JUMPI JUMPDEST POP POP POP DUP1 SWAP2 POP SWAP1 ISZERO PUSH2 0x29A3 JUMPI PUSH2 0x299B JUMPI PUSH2 0x9DF DUP3 PUSH2 0x9D0 PUSH2 0x2979 DUP7 PUSH2 0x971 PUSH2 0x2996 SWAP8 PUSH1 0x0 MSTORE PUSH1 0x0 PUSH1 0x20 MSTORE PUSH1 0x40 PUSH1 0x0 KECCAK256 SWAP1 JUMP JUMPDEST PUSH1 0x40 MLOAD SWAP5 DUP6 MSTORE PUSH1 0x1 PUSH1 0x1 PUSH1 0xA0 SHL SUB SWAP2 SWAP1 SWAP2 AND PUSH1 0x4 DUP6 ADD MSTORE SWAP1 SWAP3 SWAP2 POP DUP3 SWAP1 DUP3 SWAP1 PUSH1 0x24 SWAP1 DUP3 SWAP1 GAS STATICCALL SWAP2 DUP3 ISZERO PUSH2 0xB1E JUMPI PUSH1 0x0 SWAP3 PUSH2 0x2AAB JUMPI JUMPDEST POP POP ISZERO DUP1 CODESIZE DUP1 DUP1 PUSH2 0x2A38 JUMP JUMPDEST PUSH2 0x2AC1 SWAP3 POP DUP1 RETURNDATASIZE LT PUSH2 0xB17 JUMPI PUSH2 0xB08 DUP2 DUP4 PUSH2 0xC9E JUMP JUMPDEST CODESIZE DUP1 PUSH2 0x2A9F JUMP JUMPDEST PUSH2 0x2ADF SWAP2 POP DUP4 RETURNDATASIZE DUP6 GT PUSH2 0xB17 JUMPI PUSH2 0xB08 DUP2 DUP4 PUSH2 0xC9E JUMP JUMPDEST CODESIZE PUSH2 0x2A2E JUMP JUMPDEST PUSH1 0x2 PUSH1 0x4 SLOAD EQ PUSH2 0x2AF6 JUMPI PUSH1 0x2 PUSH1 0x4 SSTORE JUMP JUMPDEST PUSH1 0x40 MLOAD PUSH4 0x3EE5AEB5 PUSH1 0xE0 SHL DUP2 MSTORE PUSH1 0x4 SWAP1 REVERT JUMPDEST ISZERO PUSH2 0x2B0F JUMPI JUMP JUMPDEST PUSH1 0x40 MLOAD PUSH3 0x461BCD PUSH1 0xE5 SHL DUP2 MSTORE PUSH1 0x20 PUSH1 0x4 DUP3 ADD MSTORE PUSH1 0x26 PUSH1 0x24 DUP3 ADD MSTORE PUSH32 0x546F74616C20737570706C79206D757374206265206772656174657220746861 PUSH1 0x44 DUP3 ADD MSTORE PUSH6 0x6E207A65726F PUSH1 0xD0 SHL PUSH1 0x64 DUP3 ADD MSTORE PUSH1 0x84 SWAP1 REVERT JUMPDEST ISZERO PUSH2 0x2B6A JUMPI JUMP JUMPDEST PUSH1 0x40 MLOAD PUSH3 0x461BCD PUSH1 0xE5 SHL DUP2 MSTORE PUSH1 0x20 PUSH1 0x4 DUP3 ADD MSTORE PUSH1 0x25 PUSH1 0x24 DUP3 ADD MSTORE PUSH32 0x5368617265207072696365206D7573742062652067726561746572207468616E PUSH1 0x44 DUP3 ADD MSTORE PUSH5 0x207A65726F PUSH1 0xD8 SHL PUSH1 0x64 DUP3 ADD MSTORE PUSH1 0x84 SWAP1 REVERT JUMPDEST SWAP1 PUSH1 0xA0 PUSH1 0x5 SWAP2 DUP1 MLOAD DUP5 SSTORE PUSH1 0x20 DUP2 ADD MLOAD PUSH1 0x1 DUP6 ADD SSTORE PUSH1 0x40 DUP2 ADD MLOAD PUSH1 0x2 DUP6 ADD SSTORE PUSH2 0x2BFA PUSH1 0x60 DUP3 ADD MLOAD ISZERO ISZERO PUSH1 0x3 DUP7 ADD SWAP1 PUSH1 0xFF DUP1 NOT DUP4 SLOAD AND SWAP2 ISZERO ISZERO AND OR SWAP1 SSTORE JUMP JUMPDEST PUSH1 0x80 DUP2 ADD MLOAD PUSH1 0x4 DUP6 ADD SSTORE ADD MLOAD SWAP2 ADD SSTORE JUMP JUMPDEST ISZERO PUSH2 0x2C12 JUMPI JUMP JUMPDEST PUSH1 0x40 MLOAD PUSH3 0x461BCD PUSH1 0xE5 SHL DUP2 MSTORE PUSH1 0x20 PUSH1 0x4 DUP3 ADD MSTORE PUSH1 0x14 PUSH1 0x24 DUP3 ADD MSTORE PUSH20 0x105CDCD95D08191BD95CC81B9BDD08195E1A5CDD PUSH1 0x62 SHL PUSH1 0x44 DUP3 ADD MSTORE PUSH1 0x64 SWAP1 REVERT JUMPDEST ISZERO PUSH2 0x2C55 JUMPI JUMP JUMPDEST PUSH1 0x40 MLOAD PUSH3 0x461BCD PUSH1 0xE5 SHL DUP2 MSTORE PUSH1 0x20 PUSH1 0x4 DUP3 ADD MSTORE PUSH1 0x10 PUSH1 0x24 DUP3 ADD MSTORE PUSH16 0x155CD95C881B9BDD08185B1B1BDDD959 PUSH1 0x82 SHL PUSH1 0x44 DUP3 ADD MSTORE PUSH1 0x64 SWAP1 REVERT JUMPDEST ISZERO PUSH2 0x2C94 JUMPI JUMP JUMPDEST PUSH1 0x64 PUSH1 0x40 MLOAD PUSH3 0x461BCD PUSH1 0xE5 SHL DUP2 MSTORE PUSH1 0x20 PUSH1 0x4 DUP3 ADD MSTORE PUSH1 0x20 PUSH1 0x24 DUP3 ADD MSTORE PUSH32 0x416D6F756E74206D7573742062652067726561746572207468616E207A65726F PUSH1 0x44 DUP3 ADD MSTORE REVERT JUMPDEST ISZERO PUSH2 0x2CDF JUMPI JUMP JUMPDEST PUSH1 0x40 MLOAD PUSH3 0x461BCD PUSH1 0xE5 SHL DUP2 MSTORE PUSH1 0x20 PUSH1 0x4 DUP3 ADD MSTORE PUSH1 0x1D PUSH1 0x24 DUP3 ADD MSTORE PUSH32 0x496E73756666696369656E7420617661696C61626C6520737570706C79000000 PUSH1 0x44 DUP3 ADD MSTORE PUSH1 0x64 SWAP1 REVERT JUMPDEST DUP2 DUP2 MUL SWAP3 SWAP2 DUP2 ISZERO SWAP2 DUP5 DIV EQ OR ISZERO PUSH2 0x21CB JUMPI JUMP JUMPDEST ISZERO PUSH2 0x2D3E JUMPI JUMP JUMPDEST PUSH1 0x40 MLOAD PUSH3 0x461BCD PUSH1 0xE5 SHL DUP2 MSTORE PUSH1 0x20 PUSH1 0x4 DUP3 ADD MSTORE PUSH1 0x14 PUSH1 0x24 DUP3 ADD MSTORE PUSH20 0x1554D110C81D1C985B9CD9995C8819985A5B1959 PUSH1 0x62 SHL PUSH1 0x44 DUP3 ADD MSTORE PUSH1 0x64 SWAP1 REVERT JUMPDEST SWAP2 SWAP1 DUP3 SUB SWAP2 DUP3 GT PUSH2 0x21CB JUMPI JUMP JUMPDEST PUSH1 0x40 MLOAD SWAP1 PUSH1 0x40 DUP3 ADD DUP3 DUP2 LT PUSH8 0xFFFFFFFFFFFFFFFF DUP3 GT OR PUSH2 0xC99 JUMPI PUSH1 0x40 MSTORE PUSH1 0x1 DUP3 MSTORE PUSH1 0x20 DUP3 ADD PUSH1 0x20 CALLDATASIZE DUP3 CALLDATACOPY DUP3 MLOAD ISZERO PUSH2 0x21E4 JUMPI MSTORE SWAP1 JUMP JUMPDEST ISZERO PUSH2 0x2DC4 JUMPI JUMP JUMPDEST PUSH1 0x40 MLOAD PUSH3 0x461BCD PUSH1 0xE5 SHL DUP2 MSTORE PUSH1 0x20 PUSH1 0x4 DUP3 ADD MSTORE PUSH1 0x11 PUSH1 0x24 DUP3 ADD MSTORE PUSH17 0x109D5E595C881B9BDD08185B1B1BDDD959 PUSH1 0x7A SHL PUSH1 0x44 DUP3 ADD MSTORE PUSH1 0x64 SWAP1 REVERT JUMPDEST ISZERO PUSH2 0x2E04 JUMPI JUMP JUMPDEST PUSH1 0x40 MLOAD PUSH3 0x461BCD PUSH1 0xE5 SHL DUP2 MSTORE PUSH1 0x20 PUSH1 0x4 DUP3 ADD MSTORE PUSH1 0x12 PUSH1 0x24 DUP3 ADD MSTORE PUSH18 0x14D95B1B195C881B9BDD08185B1B1BDDD959 PUSH1 0x72 SHL PUSH1 0x44 DUP3 ADD MSTORE PUSH1 0x64 SWAP1 REVERT JUMPDEST ISZERO PUSH2 0x2E45 JUMPI JUMP JUMPDEST PUSH1 0x40 MLOAD PUSH3 0x461BCD PUSH1 0xE5 SHL DUP2 MSTORE PUSH1 0x20 PUSH1 0x4 DUP3 ADD MSTORE PUSH1 0x22 PUSH1 0x24 DUP3 ADD MSTORE PUSH32 0x54726164696E67206E6F7420656E61626C656420666F72207468697320617373 PUSH1 0x44 DUP3 ADD MSTORE PUSH2 0x195D PUSH1 0xF2 SHL PUSH1 0x64 DUP3 ADD MSTORE PUSH1 0x84 SWAP1 REVERT JUMPDEST ISZERO PUSH2 0x2E9C JUMPI JUMP JUMPDEST PUSH1 0x40 MLOAD PUSH3 0x461BCD PUSH1 0xE5 SHL DUP2 MSTORE PUSH1 0x20 PUSH1 0x4 DUP3 ADD MSTORE PUSH1 0x1A PUSH1 0x24 DUP3 ADD MSTORE PUSH32 0x43616E6E6F74207472616465207769746820796F757273656C66000000000000 PUSH1 0x44 DUP3 ADD MSTORE PUSH1 0x64 SWAP1 REVERT JUMPDEST ISZERO PUSH2 0x2EE8 JUMPI JUMP JUMPDEST PUSH1 0x40 MLOAD PUSH3 0x461BCD PUSH1 0xE5 SHL DUP2 MSTORE PUSH1 0x20 PUSH1 0x4 DUP3 ADD MSTORE PUSH1 0x1F PUSH1 0x24 DUP3 ADD MSTORE PUSH32 0x53656C6C65722068617320696E73756666696369656E742062616C616E636500 PUSH1 0x44 DUP3 ADD MSTORE PUSH1 0x64 SWAP1 REVERT JUMPDEST ISZERO PUSH2 0x2F34 JUMPI JUMP JUMPDEST PUSH1 0x40 MLOAD PUSH3 0x461BCD PUSH1 0xE5 SHL DUP2 MSTORE PUSH1 0x20 PUSH1 0x4 DUP3 ADD MSTORE PUSH1 0x1D PUSH1 0x24 DUP3 ADD MSTORE PUSH32 0x496E73756666696369656E7420756E66726F7A656E2062616C616E6365000000 PUSH1 0x44 DUP3 ADD MSTORE PUSH1 0x64 SWAP1 REVERT INVALID LOG2 PUSH5 0x6970667358 0x22 SLT KECCAK256 JUMPI PC 0x5E CALLDATACOPY 0xBD PC TIMESTAMP DUP12 PUSH6 0x61E6B8CDC6C9 EXP DIV SWAP2 0xC1 0xAF 0xE9 DUP10 0xD0 MUL JUMPDEST 0x1E 0xD 0xD3 SUB 0x2E 0xCD PUSH19 0x64736F6C634300081400332F8788117E7EFF1D DUP3 0xE9 0x26 0xEC PUSH26 0x4901D17C78024A50270940304540A733656F0D00000000000000 "},"methodIdentifiers":{"ASSET_MANAGER_ROLE()":"a4b32de8","COMPLIANCE_OFFICER_ROLE()":"198596b5","DEFAULT_ADMIN_ROLE()":"a217fddf","MINTER_ROLE()":"d5391393","PAUSER_ROLE()":"e63ab1e9","USDC()":"89a30271","assetVault()":"f61ebc36","balanceOf(address,uint256)":"00fdd58e","balanceOfBatch(address[],uint256[])":"4e1273f4","canTransact(address,uint256,uint256)":"6d720c06","canTransfer(address,address,uint256,uint256)":"a02ff685","createAssetShares(uint256,uint256,uint256)":"aeedb379","forcedTransfer(address,address,uint256,uint256)":"18d308d0","getAssetShares(uint256)":"bf59d29b","getFrozenTokens(address,uint256)":"ff6e708c","getRoleAdmin(bytes32)":"248a9ca3","getUserShares(address,uint256)":"ddd9d045","grantRole(bytes32,address)":"2f2ff15d","hasRole(bytes32,address)":"91d14854","isApprovedForAll(address,address)":"e985e9c5","isUserAllowed(address)":"a52ba4e8","onERC1155BatchReceived(address,address,uint256[],uint256[],bytes)":"bc197c81","onERC1155Received(address,address,uint256,uint256,bytes)":"f23a6e61","pause()":"8456cb59","paused()":"5c975abb","pauser()":"9fd0506d","purchaseAssetShares(uint256,uint256)":"b25d2d07","purchasePrice(address,uint256)":"6b5e796b","renounceRole(bytes32,address)":"36568abe","revokeRole(bytes32,address)":"d547741f","safeBatchTransferFrom(address,address,uint256[],uint256[],bytes)":"2eb2c2d6","safeTransferFrom(address,address,uint256,uint256,bytes)":"f242432a","setApprovalForAll(address,bool)":"a22cb465","setFrozenTokens(address,uint256,uint256)":"bd456f5c","setPauser(address)":"2d88af4a","setTradingEnabled(uint256,bool)":"b62100af","setUserAllowed(address,bool)":"d1a81a8d","shareInfo(uint256)":"adacd487","supportsInterface(bytes4)":"01ffc9a7","tradeShares(uint256,address,uint256,uint256)":"20fa6e06","unpause()":"3f4ba83a","updateSharePrice(uint256,uint256)":"1b1da1af","uri(uint256)":"0e89341c","userAllowList()":"0ad5b98c"}}}}}