{"contracts/mocks/AssetSharesTestHelper.sol":{"AssetSharesTestHelper":{"abi":[{"inputs":[{"internalType":"address","name":"_usdcAddress","type":"address"},{"internalType":"address","name":"_assetVault","type":"address"},{"internalType":"address","name":"_userAllowList","type":"address"},{"internalType":"string","name":"uri","type":"string"}],"stateMutability":"nonpayable","type":"constructor"},{"inputs":[],"name":"AccessControlBadConfirmation","type":"error"},{"inputs":[{"internalType":"address","name":"account","type":"address"},{"internalType":"bytes32","name":"neededRole","type":"bytes32"}],"name":"AccessControlUnauthorizedAccount","type":"error"},{"inputs":[{"internalType":"address","name":"sender","type":"address"},{"internalType":"uint256","name":"balance","type":"uint256"},{"internalType":"uint256","name":"needed","type":"uint256"},{"internalType":"uint256","name":"tokenId","type":"uint256"}],"name":"ERC1155InsufficientBalance","type":"error"},{"inputs":[{"internalType":"address","name":"approver","type":"address"}],"name":"ERC1155InvalidApprover","type":"error"},{"inputs":[{"internalType":"uint256","name":"idsLength","type":"uint256"},{"internalType":"uint256","name":"valuesLength","type":"uint256"}],"name":"ERC1155InvalidArrayLength","type":"error"},{"inputs":[{"internalType":"address","name":"operator","type":"address"}],"name":"ERC1155InvalidOperator","type":"error"},{"inputs":[{"internalType":"address","name":"receiver","type":"address"}],"name":"ERC1155InvalidReceiver","type":"error"},{"inputs":[{"internalType":"address","name":"sender","type":"address"}],"name":"ERC1155InvalidSender","type":"error"},{"inputs":[{"internalType":"address","name":"operator","type":"address"},{"internalType":"address","name":"owner","type":"address"}],"name":"ERC1155MissingApprovalForAll","type":"error"},{"inputs":[],"name":"EnforcedPause","type":"error"},{"inputs":[],"name":"ExpectedPause","type":"error"},{"inputs":[],"name":"ReentrancyGuardReentrantCall","type":"error"},{"anonymous":false,"inputs":[{"indexed":true,"internalType":"address","name":"account","type":"address"},{"indexed":true,"internalType":"address","name":"operator","type":"address"},{"indexed":false,"internalType":"bool","name":"approved","type":"bool"}],"name":"ApprovalForAll","type":"event"},{"anonymous":false,"inputs":[{"indexed":true,"internalType":"uint256","name":"assetId","type":"uint256"},{"indexed":false,"internalType":"uint256","name":"totalShares","type":"uint256"},{"indexed":false,"internalType":"uint256","name":"sharePrice","type":"uint256"},{"indexed":false,"internalType":"uint256","name":"createdAt","type":"uint256"}],"name":"AssetSharesCreated","type":"event"},{"anonymous":false,"inputs":[{"indexed":true,"internalType":"address","name":"from","type":"address"},{"indexed":true,"internalType":"address","name":"to","type":"address"},{"indexed":true,"internalType":"uint256","name":"tokenId","type":"uint256"},{"indexed":false,"internalType":"uint256","name":"amount","type":"uint256"}],"name":"ForcedTransfer","type":"event"},{"anonymous":false,"inputs":[{"indexed":true,"internalType":"address","name":"user","type":"address"},{"indexed":true,"internalType":"uint256","name":"tokenId","type":"uint256"},{"indexed":false,"internalType":"uint256","name":"amount","type":"uint256"}],"name":"Frozen","type":"event"},{"anonymous":false,"inputs":[{"indexed":false,"internalType":"address","name":"account","type":"address"}],"name":"Paused","type":"event"},{"anonymous":false,"inputs":[{"indexed":true,"internalType":"address","name":"pauser","type":"address"}],"name":"PauserSet","type":"event"},{"anonymous":false,"inputs":[{"indexed":true,"internalType":"bytes32","name":"role","type":"bytes32"},{"indexed":true,"internalType":"bytes32","name":"previousAdminRole","type":"bytes32"},{"indexed":true,"internalType":"bytes32","name":"newAdminRole","type":"bytes32"}],"name":"RoleAdminChanged","type":"event"},{"anonymous":false,"inputs":[{"indexed":true,"internalType":"bytes32","name":"role","type":"bytes32"},{"indexed":true,"internalType":"address","name":"account","type":"address"},{"indexed":true,"internalType":"address","name":"sender","type":"address"}],"name":"RoleGranted","type":"event"},{"anonymous":false,"inputs":[{"indexed":true,"internalType":"bytes32","name":"role","type":"bytes32"},{"indexed":true,"internalType":"address","name":"account","type":"address"},{"indexed":true,"internalType":"address","name":"sender","type":"address"}],"name":"RoleRevoked","type":"event"},{"anonymous":false,"inputs":[{"indexed":true,"internalType":"uint256","name":"assetId","type":"uint256"},{"indexed":false,"internalType":"uint256","name":"oldPrice","type":"uint256"},{"indexed":false,"internalType":"uint256","name":"newPrice","type":"uint256"},{"indexed":false,"internalType":"uint256","name":"updatedAt","type":"uint256"}],"name":"SharePriceUpdated","type":"event"},{"anonymous":false,"inputs":[{"indexed":true,"internalType":"address","name":"buyer","type":"address"},{"indexed":true,"internalType":"uint256","name":"assetId","type":"uint256"},{"indexed":false,"internalType":"uint256","name":"amount","type":"uint256"},{"indexed":false,"internalType":"uint256","name":"pricePerShare","type":"uint256"},{"indexed":false,"internalType":"uint256","name":"totalCost","type":"uint256"}],"name":"SharesPurchased","type":"event"},{"anonymous":false,"inputs":[{"indexed":true,"internalType":"address","name":"seller","type":"address"},{"indexed":true,"internalType":"address","name":"buyer","type":"address"},{"indexed":true,"internalType":"uint256","name":"assetId","type":"uint256"},{"indexed":false,"internalType":"uint256","name":"amount","type":"uint256"},{"indexed":false,"internalType":"uint256","name":"pricePerShare","type":"uint256"}],"name":"SharesTraded","type":"event"},{"anonymous":false,"inputs":[{"indexed":true,"internalType":"uint256","name":"assetId","type":"uint256"},{"indexed":false,"internalType":"bool","name":"enabled","type":"bool"}],"name":"TradingStatusChanged","type":"event"},{"anonymous":false,"inputs":[{"indexed":true,"internalType":"address","name":"operator","type":"address"},{"indexed":true,"internalType":"address","name":"from","type":"address"},{"indexed":true,"internalType":"address","name":"to","type":"address"},{"indexed":false,"internalType":"uint256[]","name":"ids","type":"uint256[]"},{"indexed":false,"internalType":"uint256[]","name":"values","type":"uint256[]"}],"name":"TransferBatch","type":"event"},{"anonymous":false,"inputs":[{"indexed":true,"internalType":"address","name":"operator","type":"address"},{"indexed":true,"internalType":"address","name":"from","type":"address"},{"indexed":true,"internalType":"address","name":"to","type":"address"},{"indexed":false,"internalType":"uint256","name":"id","type":"uint256"},{"indexed":false,"internalType":"uint256","name":"value","type":"uint256"}],"name":"TransferSingle","type":"event"},{"anonymous":false,"inputs":[{"indexed":false,"internalType":"string","name":"value","type":"string"},{"indexed":true,"internalType":"uint256","name":"id","type":"uint256"}],"name":"URI","type":"event"},{"anonymous":false,"inputs":[{"indexed":false,"internalType":"address","name":"account","type":"address"}],"name":"Unpaused","type":"event"},{"inputs":[],"name":"ASSET_MANAGER_ROLE","outputs":[{"internalType":"bytes32","name":"","type":"bytes32"}],"stateMutability":"view","type":"function"},{"inputs":[],"name":"COMPLIANCE_OFFICER_ROLE","outputs":[{"internalType":"bytes32","name":"","type":"bytes32"}],"stateMutability":"view","type":"function"},{"inputs":[],"name":"DEFAULT_ADMIN_ROLE","outputs":[{"internalType":"bytes32","name":"","type":"bytes32"}],"stateMutability":"view","type":"function"},{"inputs":[],"name":"MINTER_ROLE","outputs":[{"internalType":"bytes32","name":"","type":"bytes32"}],"stateMutability":"view","type":"function"},{"inputs":[],"name":"PAUSER_ROLE","outputs":[{"internalType":"bytes32","name":"","type":"bytes32"}],"stateMutability":"view","type":"function"},{"inputs":[],"name":"USDC","outputs":[{"internalType":"contract IERC20","name":"","type":"address"}],"stateMutability":"view","type":"function"},{"inputs":[],"name":"assetVault","outputs":[{"internalType":"address","name":"","type":"address"}],"stateMutability":"view","type":"function"},{"inputs":[{"internalType":"address","name":"account","type":"address"},{"internalType":"uint256","name":"id","type":"uint256"}],"name":"balanceOf","outputs":[{"internalType":"uint256","name":"","type":"uint256"}],"stateMutability":"view","type":"function"},{"inputs":[{"internalType":"address[]","name":"accounts","type":"address[]"},{"internalType":"uint256[]","name":"ids","type":"uint256[]"}],"name":"balanceOfBatch","outputs":[{"internalType":"uint256[]","name":"","type":"uint256[]"}],"stateMutability":"view","type":"function"},{"inputs":[{"internalType":"address","name":"user","type":"address"},{"internalType":"uint256","name":"tokenId","type":"uint256"},{"internalType":"uint256","name":"amount","type":"uint256"}],"name":"canTransact","outputs":[{"internalType":"bool","name":"","type":"bool"}],"stateMutability":"view","type":"function"},{"inputs":[{"internalType":"address","name":"from","type":"address"},{"internalType":"address","name":"to","type":"address"},{"internalType":"uint256","name":"tokenId","type":"uint256"},{"internalType":"uint256","name":"amount","type":"uint256"}],"name":"canTransfer","outputs":[{"internalType":"bool","name":"","type":"bool"}],"stateMutability":"view","type":"function"},{"inputs":[{"internalType":"uint256","name":"assetId","type":"uint256"},{"internalType":"uint256","name":"totalSupply_","type":"uint256"},{"internalType":"uint256","name":"sharePrice_","type":"uint256"}],"name":"createAssetShares","outputs":[],"stateMutability":"nonpayable","type":"function"},{"inputs":[{"internalType":"address","name":"from","type":"address"},{"internalType":"address","name":"to","type":"address"},{"internalType":"uint256","name":"tokenId","type":"uint256"},{"internalType":"uint256","name":"amount","type":"uint256"}],"name":"forcedTransfer","outputs":[],"stateMutability":"nonpayable","type":"function"},{"inputs":[{"internalType":"uint256","name":"assetId","type":"uint256"}],"name":"getAssetShares","outputs":[{"internalType":"uint256","name":"totalSupply_","type":"uint256"},{"internalType":"uint256","name":"availableSupply_","type":"uint256"},{"internalType":"uint256","name":"sharePrice_","type":"uint256"},{"internalType":"bool","name":"tradingEnabled_","type":"bool"}],"stateMutability":"view","type":"function"},{"inputs":[{"internalType":"address","name":"user","type":"address"},{"internalType":"uint256","name":"tokenId","type":"uint256"}],"name":"getFrozenTokens","outputs":[{"internalType":"uint256","name":"","type":"uint256"}],"stateMutability":"view","type":"function"},{"inputs":[{"internalType":"bytes32","name":"role","type":"bytes32"}],"name":"getRoleAdmin","outputs":[{"internalType":"bytes32","name":"","type":"bytes32"}],"stateMutability":"view","type":"function"},{"inputs":[{"internalType":"address","name":"user","type":"address"},{"internalType":"uint256","name":"assetId","type":"uint256"}],"name":"getUserShares","outputs":[{"internalType":"uint256","name":"totalSupply_","type":"uint256"},{"internalType":"uint256","name":"availableSupply_","type":"uint256"},{"internalType":"uint256","name":"sharePrice_","type":"uint256"},{"internalType":"bool","name":"tradingEnabled_","type":"bool"},{"internalType":"uint256","name":"balance_","type":"uint256"},{"internalType":"uint256","name":"frozen_","type":"uint256"},{"internalType":"uint256","name":"unfrozen_","type":"uint256"},{"internalType":"uint256","name":"recordedPurchasePrice_","type":"uint256"}],"stateMutability":"view","type":"function"},{"inputs":[{"internalType":"bytes32","name":"role","type":"bytes32"},{"internalType":"address","name":"account","type":"address"}],"name":"grantRole","outputs":[],"stateMutability":"nonpayable","type":"function"},{"inputs":[{"internalType":"bytes32","name":"role","type":"bytes32"},{"internalType":"address","name":"account","type":"address"}],"name":"hasRole","outputs":[{"internalType":"bool","name":"","type":"bool"}],"stateMutability":"view","type":"function"},{"inputs":[{"internalType":"address","name":"account","type":"address"},{"internalType":"address","name":"operator","type":"address"}],"name":"isApprovedForAll","outputs":[{"internalType":"bool","name":"","type":"bool"}],"stateMutability":"view","type":"function"},{"inputs":[{"internalType":"address","name":"user","type":"address"}],"name":"isUserAllowed","outputs":[{"internalType":"bool","name":"","type":"bool"}],"stateMutability":"view","type":"function"},{"inputs":[{"internalType":"address","name":"to","type":"address"},{"internalType":"uint256","name":"assetId","type":"uint256"},{"internalType":"uint256","name":"amount","type":"uint256"}],"name":"mintSharesForTest","outputs":[],"stateMutability":"nonpayable","type":"function"},{"inputs":[{"internalType":"address","name":"","type":"address"},{"internalType":"address","name":"","type":"address"},{"internalType":"uint256[]","name":"","type":"uint256[]"},{"internalType":"uint256[]","name":"","type":"uint256[]"},{"internalType":"bytes","name":"","type":"bytes"}],"name":"onERC1155BatchReceived","outputs":[{"internalType":"bytes4","name":"","type":"bytes4"}],"stateMutability":"pure","type":"function"},{"inputs":[{"internalType":"address","name":"","type":"address"},{"internalType":"address","name":"","type":"address"},{"internalType":"uint256","name":"","type":"uint256"},{"internalType":"uint256","name":"","type":"uint256"},{"internalType":"bytes","name":"","type":"bytes"}],"name":"onERC1155Received","outputs":[{"internalType":"bytes4","name":"","type":"bytes4"}],"stateMutability":"pure","type":"function"},{"inputs":[],"name":"pause","outputs":[],"stateMutability":"nonpayable","type":"function"},{"inputs":[],"name":"paused","outputs":[{"internalType":"bool","name":"","type":"bool"}],"stateMutability":"view","type":"function"},{"inputs":[],"name":"pauser","outputs":[{"internalType":"address","name":"","type":"address"}],"stateMutability":"view","type":"function"},{"inputs":[{"internalType":"uint256","name":"assetId","type":"uint256"},{"internalType":"uint256","name":"amount","type":"uint256"}],"name":"purchaseAssetShares","outputs":[],"stateMutability":"nonpayable","type":"function"},{"inputs":[{"internalType":"address","name":"","type":"address"},{"internalType":"uint256","name":"","type":"uint256"}],"name":"purchasePrice","outputs":[{"internalType":"uint256","name":"","type":"uint256"}],"stateMutability":"view","type":"function"},{"inputs":[{"internalType":"bytes32","name":"role","type":"bytes32"},{"internalType":"address","name":"callerConfirmation","type":"address"}],"name":"renounceRole","outputs":[],"stateMutability":"nonpayable","type":"function"},{"inputs":[{"internalType":"bytes32","name":"role","type":"bytes32"},{"internalType":"address","name":"account","type":"address"}],"name":"revokeRole","outputs":[],"stateMutability":"nonpayable","type":"function"},{"inputs":[{"internalType":"address","name":"from","type":"address"},{"internalType":"address","name":"to","type":"address"},{"internalType":"uint256[]","name":"ids","type":"uint256[]"},{"internalType":"uint256[]","name":"values","type":"uint256[]"},{"internalType":"bytes","name":"data","type":"bytes"}],"name":"safeBatchTransferFrom","outputs":[],"stateMutability":"nonpayable","type":"function"},{"inputs":[{"internalType":"address","name":"from","type":"address"},{"internalType":"address","name":"to","type":"address"},{"internalType":"uint256","name":"id","type":"uint256"},{"internalType":"uint256","name":"value","type":"uint256"},{"internalType":"bytes","name":"data","type":"bytes"}],"name":"safeTransferFrom","outputs":[],"stateMutability":"nonpayable","type":"function"},{"inputs":[{"internalType":"address","name":"operator","type":"address"},{"internalType":"bool","name":"approved","type":"bool"}],"name":"setApprovalForAll","outputs":[],"stateMutability":"nonpayable","type":"function"},{"inputs":[{"internalType":"address","name":"user","type":"address"},{"internalType":"uint256","name":"tokenId","type":"uint256"},{"internalType":"uint256","name":"amount","type":"uint256"}],"name":"setFrozenTokens","outputs":[],"stateMutability":"nonpayable","type":"function"},{"inputs":[{"internalType":"address","name":"_pauser","type":"address"}],"name":"setPauser","outputs":[],"stateMutability":"nonpayable","type":"function"},{"inputs":[{"internalType":"address","name":"user","type":"address"},{"internalType":"uint256","name":"assetId","type":"uint256"},{"internalType":"uint256","name":"price","type":"uint256"}],"name":"setPurchasePriceForTest","outputs":[],"stateMutability":"nonpayable","type":"function"},{"inputs":[{"internalType":"uint256","name":"assetId","type":"uint256"},{"internalType":"uint256","name":"totalSupply_","type":"uint256"},{"internalType":"uint256","name":"availableSupply_","type":"uint256"},{"internalType":"uint256","name":"sharePrice_","type":"uint256"},{"internalType":"bool","name":"tradingEnabled_","type":"bool"}],"name":"setShareInfoForTest","outputs":[],"stateMutability":"nonpayable","type":"function"},{"inputs":[{"internalType":"uint256","name":"assetId","type":"uint256"},{"internalType":"bool","name":"enabled","type":"bool"}],"name":"setTradingEnabled","outputs":[],"stateMutability":"nonpayable","type":"function"},{"inputs":[{"internalType":"address","name":"user","type":"address"},{"internalType":"bool","name":"allowed","type":"bool"}],"name":"setUserAllowed","outputs":[],"stateMutability":"nonpayable","type":"function"},{"inputs":[{"internalType":"uint256","name":"","type":"uint256"}],"name":"shareInfo","outputs":[{"internalType":"uint256","name":"totalSupply","type":"uint256"},{"internalType":"uint256","name":"availableSupply","type":"uint256"},{"internalType":"uint256","name":"sharePrice","type":"uint256"},{"internalType":"bool","name":"tradingEnabled","type":"bool"},{"internalType":"uint256","name":"createdAt","type":"uint256"},{"internalType":"uint256","name":"updatedAt","type":"uint256"}],"stateMutability":"view","type":"function"},{"inputs":[{"internalType":"bytes4","name":"interfaceId","type":"bytes4"}],"name":"supportsInterface","outputs":[{"internalType":"bool","name":"","type":"bool"}],"stateMutability":"view","type":"function"},{"inputs":[{"internalType":"uint256","name":"assetId","type":"uint256"},{"internalType":"address","name":"seller","type":"address"},{"internalType":"uint256","name":"amount","type":"uint256"},{"internalType":"uint256","name":"pricePerShare","type":"uint256"}],"name":"tradeShares","outputs":[],"stateMutability":"nonpayable","type":"function"},{"inputs":[],"name":"unpause","outputs":[],"stateMutability":"nonpayable","type":"function"},{"inputs":[{"internalType":"uint256","name":"assetId","type":"uint256"},{"internalType":"uint256","name":"newPrice","type":"uint256"}],"name":"updateSharePrice","outputs":[],"stateMutability":"nonpayable","type":"function"},{"inputs":[{"internalType":"uint256","name":"","type":"uint256"}],"name":"uri","outputs":[{"internalType":"string","name":"","type":"string"}],"stateMutability":"view","type":"function"},{"inputs":[],"name":"userAllowList","outputs":[{"internalType":"contract AssetUserAllowList","name":"","type":"address"}],"stateMutability":"view","type":"function"}],"evm":{"bytecode":{"linkReferences":{},"object":"604060e0815234620003d05762003a2890813803806200001f81620003d5565b9384398201608083820312620003d0576200003a83620003fb565b926020936200004b858301620003fb565b9262000059858401620003fb565b606084015190936001600160401b039190828211620003d0570191601f818185011215620003d057835193838511620003a657601f1994620000a183820187168c01620003d5565b938185528b8284010111620003d0578a9160005b828110620003bc57505090600091840101528151928311620003a657600254916001948584811c941680156200039b575b8b851014620003855783838695116200032a575b508a928411600114620002c35750600092620002b7575b5050600019600383901b1c191690821b176002555b6004556001600160a01b039081169182156200027357818416156200022f5716908115620001eb57620001899394506080528160a05260c0526200016a3362000410565b50620001763362000491565b50620001823362000534565b50620005d2565b50516133979081620006718239608051818181610a740152818161141b015261194a015260a05181612031015260c05181818161045d01528181610898015281816116430152818161187301528181611c9b01528181612cf90152612dda0152f35b835162461bcd60e51b815260048101869052601960248201527f496e76616c696420616c6c6f776c6973742061646472657373000000000000006044820152606490fd5b845162461bcd60e51b815260048101879052601960248201527f496e76616c69642070726f706572747920636f6e7472616374000000000000006044820152606490fd5b845162461bcd60e51b815260048101879052601460248201527f496e76616c6964205553444320616464726573730000000000000000000000006044820152606490fd5b01519050388062000111565b8594929192169160026000528a6000209260005b8c828210620003135750508411620002f9575b505050811b0160025562000126565b015160001960f88460031b161c19169055388080620002ea565b8385015186558897909501949384019301620002d7565b909192935060026000528a6000208480870160051c8201928d88106200037b575b9187968992969594930160051c01915b8281106200036b575050620000fa565b600081558796508891016200035b565b925081926200034b565b634e487b7160e01b600052602260045260246000fd5b93607f1693620000e6565b634e487b7160e01b600052604160045260246000fd5b8181018401518682018501528301620000b5565b600080fd5b6040519190601f01601f191682016001600160401b03811183821017620003a657604052565b51906001600160a01b0382168203620003d057565b6001600160a01b031660008181527f3617319a054d772f909f7c479a2cebe5066e836a939412e32403c99029b92eff602052604081205490919060ff166200048d5781805260036020526040822081835260205260408220600160ff19825416179055339160008051602062003a088339815191528180a4600190565b5090565b6001600160a01b031660008181527fd4f4ae7e0f1d6ef3e8290f298fbe252931b59dd183524e1af76274726da1e66360205260408120549091907fb1fadd3142ab2ad7f1337ea4d97112bcc8337fc11ce5b20cb04ad038adf998199060ff166200052f5780835260036020526040832082845260205260408320600160ff1982541617905560008051602062003a08833981519152339380a4600190565b505090565b6001600160a01b031660008181527ffca98a0144180c5ff9cc8eb43249ff58e5a9edc28ccc383a25775f69580acd2060205260408120549091907fb6f0283bd1ed00c6aa7e988a7516070240f3610a34d167391359b648eb37cefc9060ff166200052f5780835260036020526040832082845260205260408320600160ff1982541617905560008051602062003a08833981519152339380a4600190565b6001600160a01b031660008181527f5562e70da342db81569f3094d36be279beaca7ad8e08f434ea188e79d2bfe10c60205260408120549091907f9f2df0fed2c77648de5860a4cc508cd0818c85b8b8a1ab4ceeef8d981c8956a69060ff166200052f5780835260036020526040832082845260205260408320600160ff1982541617905560008051602062003a08833981519152339380a460019056fe6080604052600436101561001257600080fd5b60003560e01c8062fdd58e1461030657806301ffc9a7146103015780630ad5b98c146102fc5780630e89341c146102f757806318d308d0146102f2578063198596b5146102ed5780631b1da1af146102e857806320fa6e06146102e3578063248a9ca3146102de5780632d88af4a146102d95780632eb2c2d6146102d45780632f2ff15d146102cf57806336568abe146102ca5780633f4ba83a146102c55780634e1273f4146102c05780635ab3bf47146102bb5780635c975abb146102b65780636b5e796b146102b15780636d720c06146102ac5780638456cb59146102a757806389a30271146102a257806391d148541461029d5780639fd0506d14610298578063a02ff68514610293578063a217fddf1461028e578063a22cb46514610289578063a4b32de814610284578063a52ba4e81461027f578063adacd4871461027a578063aeedb37914610275578063b25d2d0714610270578063b62100af1461026b578063bc197c8114610266578063bd456f5c14610261578063bf59d29b1461025c578063cb6a012114610257578063d1a81a8d14610252578063d53913931461024d578063d547741f14610248578063ddd9d04514610243578063e63ab1e91461023e578063e985e9c514610239578063f23a6e6114610234578063f242432a1461022f578063f61ebc361461022a578063fbcec4b8146102255763ff6e708c1461022057600080fd5b61209b565b612060565b61201b565b611f99565b611f75565b611ece565b611e93565b611d81565b611d42565b611d07565b611c5f565b611bb1565b611b5e565b611af9565b611ad5565b611a42565b611826565b611710565b6116a8565b611602565b6115c7565b61150b565b6114e5565b6114c9565b61149c565b61144a565b611405565b6113ab565b611388565b611340565b61131d565b611165565b611081565b610fd2565b610f8b565b610f4c565b610e8f565b610bbc565b610b8d565b610846565b610745565b61070a565b61061f565b6104e0565b610447565b6103af565b610350565b600435906001600160a01b038216820361032157565b600080fd5b602435906001600160a01b038216820361032157565b35906001600160a01b038216820361032157565b3461032157604036600319011261032157602061039461036e61030b565b6024356000526000835260406000209060018060a01b0316600052602052604060002090565b54604051908152f35b6001600160e01b031981160361032157565b346103215760203660031901126103215760206004356103ce8161039d565b6001600160e01b031916636cdb3d1360e11b81148015610437575b8015610427575b80918115610405575b50506040519015158152f35b637965db0b60e01b149150811561041f575b5038806103f9565b905038610417565b506301ffc9a760e01b81146103f0565b506303a24d0760e21b81146103e9565b34610321576000366003190112610321576040517f00000000000000000000000000000000000000000000000000000000000000006001600160a01b03168152602090f35b919082519283825260005b8481106104b8575050826000602080949584010152601f8019910116010190565b602081830181015184830182015201610497565b9060206104dd92818152019061048c565b90565b3461032157602080600319360112610321576040519060009060025460019181831c928083169283156105dc575b82851084146105c85784875260208701939081156105a9575060011461054f575b61054b8661053f81880382610d06565b604051918291826104cc565b0390f35b6002600090815294509192917f405787fa12a823e0f2b7631cc41b3ba8828b3321ca811111fa75cd3aa3bb5ace5b838610610598575050509101905061053f8261054b3861052f565b80548587015294820194810161057d565b60ff1916845250505090151560051b01905061053f8261054b3861052f565b634e487b7160e01b86526022600452602486fd5b93607f169361050e565b6080906003190112610321576001600160a01b039060043582811681036103215791602435908116810361032157906044359060643590565b346103215761062d366105e6565b9092916106386120e3565b610640612ecd565b6000848152602081815260408083206001600160a01b03871684529091529020829054106106ce576106bf7fa7f01abbf5b7ec7bac7fb74feb5c1f54af9e430f18a33681c1b9149875339a45916106a1610698612845565b8588848961256e565b6040519384526001600160a01b039081169416929081906020820190565b0390a46106cc6001600455565b005b60405162461bcd60e51b8152602060048201526014602482015273496e73756666696369656e742062616c616e636560601b6044820152606490fd5b346103215760003660031901126103215760206040517fb6f0283bd1ed00c6aa7e988a7516070240f3610a34d167391359b648eb37cefc8152f35b346103215760403660031901126103215760243560043561076461215f565b600091818352600660205261077e60408420541515612ff3565b818352600660205260026040842001548082146107f057817f3180bc850607139589b517b4f1480820c2973c955706dcf81d3a20de03670ddc9260026107ce866000526006602052604060002090565b0155604080519283526020830191909152429082015280606081015b0390a280f35b60405162461bcd60e51b815260206004820152602860248201527f4e6577207072696365206d757374206469666665722066726f6d2063757272656044820152676e7420707269636560c01b6064820152608490fd5b3461032157608036600319011261032157600435610862610326565b6044359060643590610872612ecd565b61087a612b4a565b6040516314a5749d60e31b8082523360048301526001600160a01b037f000000000000000000000000000000000000000000000000000000000000000081169460209493909285826024818a5afa918215610b4e5786926108e391600091610b70575b506131a5565b6040519081526001600160a01b038516600482015295869060249082905afa948515610b4e57610a706000926109c0896109b8886109a18e6109316109919e8e9a8c91610b53575b506131e5565b610950610948826000526006602052604060002090565b541515612ff3565b610979610974600361096c846000526006602052604060002090565b015460ff1690565b613226565b610984851515613075565b8683169d8e33141561327d565b6000526000602052604060002090565b9060018060a01b0316600052602052604060002090565b5410156132c9565b610a1c8a610a158b610a0f6109e38b6109a1866000526000602052604060002090565b546001600160a01b038c1660009081526007602052604090209094905b90600052602052604060002090565b54612c87565b1115613315565b610a37610a29868b61310c565b670de0b6b3a7640000900490565b6040516323b872dd60e01b81523360048201526001600160a01b0388166024820152604481019190915293849283919082906064820190565b03927f0000000000000000000000000000000000000000000000000000000000000000165af1928315610b4e57610ad96106bf94610aeb937fed79e7d218bfdfe7b0612476b5e4ded4715d3a29544095b7692131998870add097600092610b21575b505061311f565b8688610ae3612845565b92339061256e565b3360009081526008602052604090208190610b07908890610a00565b556040805195865260208601919091523394918291820190565b610b409250803d10610b47575b610b388183610d06565b810190612cb9565b3880610ad2565b503d610b2e565b612839565b610b6a91508b3d8d11610b4757610b388183610d06565b3861092b565b610b879150843d8611610b4757610b388183610d06565b386108dd565b346103215760203660031901126103215760043560005260036020526020600160406000200154604051908152f35b3461032157602036600319011261032157610bd561030b565b610bdd6121b7565b60ff60055460a81c16610c65576001600160a01b03811690610c2a90610c04831515612b05565b60058054610100600160a81b031916600883901b610100600160a81b03161790556122e0565b506005805460ff60a81b1916600160a81b1790557fd11d57c2c7468878b1035df11c670bcd0091aa840bf8aa166365397622237bea600080a2005b60405162461bcd60e51b815260206004820152601260248201527114185d5cd95c88185b1c9958591e481cd95d60721b6044820152606490fd5b634e487b7160e01b600052604160045260246000fd5b60c0810190811067ffffffffffffffff821117610cd157604052565b610c9f565b67ffffffffffffffff8111610cd157604052565b6020810190811067ffffffffffffffff821117610cd157604052565b90601f8019910116810190811067ffffffffffffffff821117610cd157604052565b60405190610d3582610cb5565b565b67ffffffffffffffff8111610cd15760051b60200190565b81601f8201121561032157803591610d6683610d37565b92610d746040519485610d06565b808452602092838086019260051b820101928311610321578301905b828210610d9e575050505090565b81358152908301908301610d90565b67ffffffffffffffff8111610cd157601f01601f191660200190565b81601f8201121561032157803590610de082610dad565b92610dee6040519485610d06565b8284526020838301011161032157816000926020809301838601378301015290565b60a0600319820112610321576001600160a01b0391600435838116810361032157926024359081168103610321579167ffffffffffffffff916044358381116103215782610e6091600401610d4f565b926064358181116103215783610e7891600401610d4f565b92608435918211610321576104dd91600401610dc9565b3461032157610e9d36610e10565b929091906001600160a01b03858116903382141580610f28575b610f0157821615610ee85715610ed0576106cc946125b9565b604051626a0d4560e21b815260006004820152602490fd5b604051632bfa23e760e11b815260006004820152602490fd5b60405163711bec9160e11b81523360048201526001600160a01b0388166024820152604490fd5b50600082815260016020908152604080832033845290915290205460ff1615610eb7565b34610321576040366003190112610321576106cc600435610f6b610326565b90806000526003602052610f866001604060002001546122bf565b6123ab565b3461032157604036600319011261032157610fa4610326565b336001600160a01b03821603610fc0576106cc906004356123d7565b60405163334bd91960e11b8152600490fd5b3461032157600036600319011261032157610feb61220f565b60055460ff81161561102a5760ff19166005557f5db9ee0a495bf2e6ff9c91a7834c1ba4fdd244a5e8aa4e537bd38aeae4b073aa6020604051338152a1005b604051638dfc202b60e01b8152600490fd5b90815180825260208080930193019160005b82811061105c575050505090565b83518552938101939281019260010161104e565b9060206104dd92818152019061103c565b346103215760403660031901126103215760043567ffffffffffffffff80821161032157366023830112156103215781600401356110be81610d37565b926110cc6040519485610d06565b81845260209160248386019160051b8301019136831161032157602401905b82821061112457856024358681116103215761054b91611112611118923690600401610d4f565b906124ef565b60405191829182611070565b8380916111308461033c565b8152019101906110eb565b6060906003190112610321576004356001600160a01b038116810361032157906024359060443590565b34610321576111733661113b565b9161117c61215f565b6040519061118982610cea565b6000808352936001600160a01b03821693841561130457906111c860405192600184526020840152604083019160018352606084015260808301604052565b926111d1612b4a565b81518451908181036112e2575050855b825181101561122e57806112299160051b61122261121a876109a1602080868b010151958c010151946000526000602052604060002090565b918254612c87565b90556124b1565b6111e1565b5092919360018251146000146112a757602082810151848201516040805192835292820152879133917fc3d58168c5ae7397731d063d5bbf3d657854427343f4c083240f7aacaa2d0f629190a45b805160010361129d579060208061129a959301519101519133612888565b80f35b61129a9333612a99565b856040517f4a39dc06d4c0dbc64b70af90fd698a233a518aa5d07e595d983b8c0526c8f7fb3391806112da888883612c94565b0390a461127c565b604051635b05999160e01b815260048101919091526024810191909152604490fd5b604051632bfa23e760e11b815260048101879052602490fd5b3461032157600036600319011261032157602060ff600554166040519015158152f35b34610321576040366003190112610321576001600160a01b0361136161030b565b16600052600860205260406000206024356000526020526020604060002054604051908152f35b346103215760206113a161139b3661113b565b91612cce565b6040519015158152f35b34610321576000366003190112610321576113c461220f565b6113cc612b4a565b600160ff1960055416176005557f62e78cea01bee320cd4e420270b5ea74000d11b0c9f74754ebdbfc544b05a2586020604051338152a1005b34610321576000366003190112610321576040517f00000000000000000000000000000000000000000000000000000000000000006001600160a01b03168152602090f35b3461032157604036600319011261032157602060ff61149061146a610326565b6004356000526003845260406000209060018060a01b0316600052602052604060002090565b54166040519015158152f35b346103215760003660031901126103215760055460405160089190911c6001600160a01b03168152602090f35b346103215760206113a16114dc366105e6565b92919091612db5565b3461032157600036600319011261032157602060405160008152f35b8015150361032157565b346103215760403660031901126103215761152461030b565b60243561153081611501565b6001600160a01b0382169182156115af578161156e61157f9233600052600160205260406000209060018060a01b0316600052602052604060002090565b9060ff801983541691151516179055565b60405190151581527f17307eab39ab6107e8899845ad3d59bd9653f200f220920489ca2b5937696c3160203392a3005b60405162ced3e160e81b815260006004820152602490fd5b346103215760003660031901126103215760206040517fb1fadd3142ab2ad7f1337ea4d97112bcc8337fc11ce5b20cb04ad038adf998198152f35b34610321576020366003190112610321576024602061161f61030b565b6040516314a5749d60e31b81526001600160a01b03918216600482015292839182907f0000000000000000000000000000000000000000000000000000000000000000165afa8015610b4e5761054b9160009161168a575b5060405190151581529081906020820190565b6116a2915060203d8111610b4757610b388183610d06565b38611677565b3461032157602036600319011261032157600435600052600660205260c06040600020805490600181015490600281015460ff6003830154169060056004840154930154936040519586526020860152604085015215156060840152608083015260a0820152f35b3461032157606036600319011261032157602435600435604435611732612267565b600092828452600660205260408420546117e1577fb82c0453feace24ee6cfe34b821e767fcc527f2dba6c452e541f3e1ead521f0091611773821515612ef0565b61177e811515612f4b565b6117c3611789610d28565b8381528360208201528260408201528660608201524260808201528660a08201526117be866000526006602052604060002090565b612fa5565b604080519283526020830191909152429082015280606081016107ea565b60405162461bcd60e51b815260206004820152601a60248201527f41737365742073686172657320616c72656164792065786973740000000000006044820152606490fd5b3461032157604036600319011261032157600435602435611845612ecd565b61184d612b4a565b6040516314a5749d60e31b81523360048201526001600160a01b039060209081816024817f000000000000000000000000000000000000000000000000000000000000000087165afa8015610b4e576118ae91600091611a25575b50613036565b6118c5610948856000526006602052604060002090565b6118d0831515613075565b6118f38360016118ea876000526006602052604060002090565b015410156130c0565b6002611909856000526006602052604060002090565b0154611918610a29828661310c565b6040516323b872dd60e01b815233600482015230602482015260448101829052939092908190859060649082906000907f0000000000000000000000000000000000000000000000000000000000000000165af18015610b4e577f0d098aab4683aec3730d1b27a72fac136f51288c5ffc2586171a08fb568a6b3a946119a692600092610b2157505061311f565b6119c26119b28661316f565b6119bb8661316f565b9033612b68565b60016119d8866000526006602052604060002090565b016119e4858254613162565b90553360009081526008602052604090208190611a02908790610a00565b556040805194855260208501919091528301523391606090a36106cc6001600455565b611a3c9150833d8511610b4757610b388183610d06565b386118a8565b3461032157604036600319011261032157602435600435611a6282611501565b611a6a61215f565b7fb06427d72192ff6da61bdacc300260b0da7a3e456feeb9c376297a9f5bea1907602060009383855260068252611aa660408620541515612ff3565b83855260068252611ac981600360408820019060ff801983541691151516179055565b6040519015158152a280f35b3461032157611ae336610e10565b5050505050602060405163bc197c8160e01b8152f35b3461032157611b073661113b565b91611b106120e3565b60018060a01b03167f7b0c29e799ed468266b4d070c03070137a95cb869c5eb7c18063fb7b1a7a09c5602060009483865260078252604086208587528252806040872055604051908152a380f35b346103215760203660031901126103215760043560005260066020526080604060002080549060018101549060ff6003600283015492015416916040519384526020840152604083015215156060820152f35b346103215760a036600319011261032157608435611bce81611501565b611bd661215f565b600560405191611be583610cb5565b602435835260208301906044358252611c5360408501916064358352606086019015158152608086019242845260a0870194600086526004356000526006602052604060002097518855516001880155516002870155511515600386019060ff801983541691151516179055565b51600484015551910155005b346103215760006040366003190112611d0457611c7a61030b565b8160243591611c8883611501565b611c906120e3565b6001600160a01b03907f0000000000000000000000000000000000000000000000000000000000000000821690813b15611d005783604492604051968795869463d1a81a8d60e01b8652166004850152151560248401525af18015610b4e57611cf7575080f35b61129a90610cd6565b8380fd5b80fd5b346103215760003660031901126103215760206040517f9f2df0fed2c77648de5860a4cc508cd0818c85b8b8a1ab4ceeef8d981c8956a68152f35b34610321576040366003190112610321576106cc600435611d61610326565b90806000526003602052611d7c6001604060002001546122bf565b6123d7565b3461032157604036600319011261032157611d9a61030b565b6024359061054b60008381526006602052604081209080602052611dd384604083209060018060a01b0316600052602052604060002090565b546001600160a01b038516825260076020908152604080842060008981529252902054909181831115611e8d5750611e0b8183613162565b915b835495611e4b600186015498610a00611e2f600360028a015499015460ff1690565b6001600160a01b03909416600090815260086020526040902090565b54946040519889988994919260e0969399989794919961010087019a87526020870152604086015215156060850152608084015260a083015260c08201520152565b91611e0d565b346103215760003660031901126103215760206040517f65d7a28e3265b37a6474929f336521b332c1681b933f6cb9f3376673440d862a8152f35b3461032157604036600319011261032157602060ff611490611eee61030b565b611ef6610326565b6001600160a01b0391821660009081526001865260408082209290931681526020919091522090565b60a0600319820112610321576001600160a01b0391600435838116810361032157926024359081168103610321579160443591606435916084359067ffffffffffffffff8211610321576104dd91600401610dc9565b3461032157611f8336611f1f565b5050505050602060405163f23a6e6160e01b8152f35b3461032157611fa736611f1f565b929091906001600160a01b038516338114159081611ff5575b50611fce576106cc9461256e565b60405163711bec9160e11b81523360048201526001600160a01b0386166024820152604490fd5b6000908152600160209081526040808320338452909152902060ff915054161538611fc0565b34610321576000366003190112610321576040517f00000000000000000000000000000000000000000000000000000000000000006001600160a01b03168152602090f35b346103215761206e3661113b565b9061207761215f565b60009260018060a01b03168352600860205260408320908352602052604082205580f35b34610321576040366003190112610321576001600160a01b036120bc61030b565b16600052600760205260406000206024356000526020526020604060002054604051908152f35b3360009081527ffca98a0144180c5ff9cc8eb43249ff58e5a9edc28ccc383a25775f69580acd20602052604090207fb6f0283bd1ed00c6aa7e988a7516070240f3610a34d167391359b648eb37cefc9060ff905b5416156121415750565b6044906040519063e2517d3f60e01b82523360048301526024820152fd5b3360009081527fd4f4ae7e0f1d6ef3e8290f298fbe252931b59dd183524e1af76274726da1e663602052604090207fb1fadd3142ab2ad7f1337ea4d97112bcc8337fc11ce5b20cb04ad038adf998199060ff90612137565b3360009081527f3617319a054d772f909f7c479a2cebe5066e836a939412e32403c99029b92eff602052604090205460ff16156121f057565b60405163e2517d3f60e01b815233600482015260006024820152604490fd5b3360009081527f30adeb818ef77f204f5a603c30fa5332397b6e28fb3b7f9d937ae6a6914716de602052604090207f65d7a28e3265b37a6474929f336521b332c1681b933f6cb9f3376673440d862a9060ff90612137565b3360009081527f5562e70da342db81569f3094d36be279beaca7ad8e08f434ea188e79d2bfe10c602052604090207f9f2df0fed2c77648de5860a4cc508cd0818c85b8b8a1ab4ceeef8d981c8956a69060ff90612137565b6000818152600360209081526040808320338452909152902060ff90612137565b6001600160a01b03811660009081527f30adeb818ef77f204f5a603c30fa5332397b6e28fb3b7f9d937ae6a6914716de602052604081207f65d7a28e3265b37a6474929f336521b332c1681b933f6cb9f3376673440d862a9060ff905b54166123a5578082526003602090815260408084206001600160a01b038616600090815292529020805460ff1916600117905533926001600160a01b0316917f2f8788117e7eff1d82e926ec794901d17c78024a50270940304540a733656f0d9080a4600190565b50905090565b600090808252600360205260ff61233d84604085209060018060a01b0316600052602052604060002090565b600090808252600360205260ff61240384604085209060018060a01b0316600052602052604060002090565b5416156123a5578082526003602090815260408084206001600160a01b038616600090815292529020805460ff1916905533926001600160a01b0316917ff6391f5c32d9c69d2a47ea670b442974b53935d1edc7fd64eb21e047a839171b9080a4600190565b9061247382610d37565b6124806040519182610d06565b8281528092612491601f1991610d37565b0190602036910137565b634e487b7160e01b600052601160045260246000fd5b60001981146124c05760010190565b61249b565b80518210156124d95760209160051b010190565b634e487b7160e01b600052603260045260246000fd5b919091805183518082036112e25750506125098151612469565b90600090815b815181101561256657806125506125619260051b85602080808489010151938c010151825252604086209060018060a01b0316600052602052604060002090565b5461255b82876124c5565b526124b1565b61250f565b509193505050565b92939290916001600160a01b0380841615610ee857821615610ed057610d35946125b560405192600184526020840152604083019160018352606084015260808301604052565b9290915b949190916125c5612b4a565b81518451908181036112e257505060005b82518110156126ca57600581901b83810160209081015191870101516001600160a01b03929186908a8516612643575b61261994821661261e575b5050506124b1565b6125d6565b612639916109a161121a926000526000602052604060002090565b9055388581612611565b91929390506126608a6109a1846000526000602052604060002090565b5483811061269357918791846126199695940361268b8d6109a1856000526000602052604060002090565b559450612606565b6040516303dee4c560e01b81526001600160a01b038c16600482015260248101919091526044810184905260648101839052608490fd5b509491939290936001855114600014612775576020858101518382015160408051928352928201526001600160a01b03838116929086169133917fc3d58168c5ae7397731d063d5bbf3d657854427343f4c083240f7aacaa2d0f6291a45b6001600160a01b03811661273e575b5050505050565b84516001036127645760208061275a9601519201519233612982565b3880808080612737565b61277094919233612ace565b61275a565b6040516001600160a01b03828116919085169033907f4a39dc06d4c0dbc64b70af90fd698a233a518aa5d07e595d983b8c0526c8f7fb90806127b8888c83612c94565b0390a4612728565b9081602091031261032157516104dd8161039d565b909260a0926104dd9594600180861b031683526000602084015260408301526060820152816080820152019061048c565b91926104dd95949160a094600180871b03809216855216602084015260408301526060820152816080820152019061048c565b6040513d6000823e3d90fd5b6040519061285282610cea565b60008252565b3d15612883573d9061286982610dad565b916128776040519384610d06565b82523d6000602084013e565b606090565b9293919093843b61289a575050505050565b6020916128bd604051948593849363f23a6e6160e01b98898652600486016127d5565b038160006001600160a01b0388165af160009181612952575b5061291557826128e4612858565b805191908261290e57604051632bfa23e760e11b81526001600160a01b0383166004820152602490fd5b6020915001fd5b6001600160e01b0319160361292f57503880808080612737565b604051632bfa23e760e11b81526001600160a01b03919091166004820152602490fd5b61297491925060203d811161297b575b61296c8183610d06565b8101906127c0565b90386128d6565b503d612962565b939290949194853b612997575b505050505050565b6129ba602093604051958694859463f23a6e6160e01b998a875260048701612806565b038160006001600160a01b0388165af1600091816129fc575b506129e157826128e4612858565b6001600160e01b0319160361292f575038808080808061298f565b612a1591925060203d811161297b5761296c8183610d06565b90386129d3565b92612a4b6104dd9593612a599360018060a01b031686526000602087015260a0604087015260a086019061103c565b90848203606086015261103c565b91608081840391015261048c565b93906104dd9593612a4b91612a599460018060a01b03809216885216602087015260a0604087015260a086019061103c565b9293919093843b612aab575050505050565b6020916128bd604051948593849363bc197c8160e01b9889865260048601612a1c565b939290949194853b612ae257505050505050565b6129ba602093604051958694859463bc197c8160e01b998a875260048701612a67565b15612b0c57565b60405162461bcd60e51b8152602060048201526016602482015275496e76616c696420706175736572206164647265737360501b6044820152606490fd5b60ff60055416612b5657565b60405163d93c066560e01b8152600490fd5b919091612b73612b4a565b82518251908181036112e257505060005b8351811015612be757600581901b8481016020908101519185010151612bbd929184906001600160a01b038216612bc2575050506124b1565b612b84565b612bdd916109a161121a926000526000602052604060002090565b9055388381612611565b50916001815114600014612c48576020908101519181015160408051938452918301526001600160a01b039092169160009133917fc3d58168c5ae7397731d063d5bbf3d657854427343f4c083240f7aacaa2d0f629190819081015b0390a4565b7f4a39dc06d4c0dbc64b70af90fd698a233a518aa5d07e595d983b8c0526c8f7fb612c436000939460405191829160018060a01b031696339583612c94565b919082018092116124c057565b9091612cab6104dd9360408452604084019061103c565b91602081840391015261103c565b9081602091031261032157516104dd81611501565b6040516314a5749d60e31b81526001600160a01b0382166004820152909290602081806024810103817f00000000000000000000000000000000000000000000000000000000000000006001600160a01b03165afa908115610b4e57600091612d97575b50158015612d8b575b612d8357610a0f82610a00612d61866109a1612d7e976000526000602052604060002090565b546001600160a01b03909616600090815260076020526040902090565b111590565b505050600090565b5060055460ff16612d3b565b612daf915060203d8111610b4757610b388183610d06565b38612d32565b6040516314a5749d60e31b8082526001600160a01b03838116600484015292959390927f00000000000000000000000000000000000000000000000000000000000000001691602091908281602481875afa908115610b4e57600091612eb0575b5015928315612e52575b5050508091509015612d8b57612d8357610a0f82610a00612d61866109a1612d7e976000526000602052604060002090565b6040519485526001600160a01b03919091166004850152909291508290829060249082905afa918215610b4e57600092612e93575b50501580388080612e20565b612ea99250803d10610b4757610b388183610d06565b3880612e87565b612ec79150833d8511610b4757610b388183610d06565b38612e16565b600260045414612ede576002600455565b604051633ee5aeb560e01b8152600490fd5b15612ef757565b60405162461bcd60e51b815260206004820152602660248201527f546f74616c20737570706c79206d7573742062652067726561746572207468616044820152656e207a65726f60d01b6064820152608490fd5b15612f5257565b60405162461bcd60e51b815260206004820152602560248201527f5368617265207072696365206d7573742062652067726561746572207468616e604482015264207a65726f60d81b6064820152608490fd5b9060a0600591805184556020810151600185015560408101516002850155612fe260608201511515600386019060ff801983541691151516179055565b608081015160048501550151910155565b15612ffa57565b60405162461bcd60e51b8152602060048201526014602482015273105cdcd95d08191bd95cc81b9bdd08195e1a5cdd60621b6044820152606490fd5b1561303d57565b60405162461bcd60e51b815260206004820152601060248201526f155cd95c881b9bdd08185b1b1bddd95960821b6044820152606490fd5b1561307c57565b606460405162461bcd60e51b815260206004820152602060248201527f416d6f756e74206d7573742062652067726561746572207468616e207a65726f6044820152fd5b156130c757565b60405162461bcd60e51b815260206004820152601d60248201527f496e73756666696369656e7420617661696c61626c6520737570706c790000006044820152606490fd5b818102929181159184041417156124c057565b1561312657565b60405162461bcd60e51b81526020600482015260146024820152731554d110c81d1c985b9cd9995c8819985a5b195960621b6044820152606490fd5b919082039182116124c057565b604051906040820182811067ffffffffffffffff821117610cd157604052600182526020820160203682378251156124d9575290565b156131ac57565b60405162461bcd60e51b8152602060048201526011602482015270109d5e595c881b9bdd08185b1b1bddd959607a1b6044820152606490fd5b156131ec57565b60405162461bcd60e51b815260206004820152601260248201527114d95b1b195c881b9bdd08185b1b1bddd95960721b6044820152606490fd5b1561322d57565b60405162461bcd60e51b815260206004820152602260248201527f54726164696e67206e6f7420656e61626c656420666f72207468697320617373604482015261195d60f21b6064820152608490fd5b1561328457565b60405162461bcd60e51b815260206004820152601a60248201527f43616e6e6f74207472616465207769746820796f757273656c660000000000006044820152606490fd5b156132d057565b60405162461bcd60e51b815260206004820152601f60248201527f53656c6c65722068617320696e73756666696369656e742062616c616e6365006044820152606490fd5b1561331c57565b60405162461bcd60e51b815260206004820152601d60248201527f496e73756666696369656e7420756e66726f7a656e2062616c616e63650000006044820152606490fdfea2646970667358221220576efbeee696baecdebb06438e19e2be0e948f15f92ddaea713f7ec0b25cac9c64736f6c634300081400332f8788117e7eff1d82e926ec794901d17c78024a50270940304540a733656f0d","opcodes":"PUSH1 0x40 PUSH1 0xE0 DUP2 MSTORE CALLVALUE PUSH3 0x3D0 JUMPI PUSH3 0x3A28 SWAP1 DUP2 CODESIZE SUB DUP1 PUSH3 0x1F DUP2 PUSH3 0x3D5 JUMP JUMPDEST SWAP4 DUP5 CODECOPY DUP3 ADD PUSH1 0x80 DUP4 DUP3 SUB SLT PUSH3 0x3D0 JUMPI PUSH3 0x3A DUP4 PUSH3 0x3FB JUMP JUMPDEST SWAP3 PUSH1 0x20 SWAP4 PUSH3 0x4B DUP6 DUP4 ADD PUSH3 0x3FB JUMP JUMPDEST SWAP3 PUSH3 0x59 DUP6 DUP5 ADD PUSH3 0x3FB JUMP JUMPDEST PUSH1 0x60 DUP5 ADD MLOAD SWAP1 SWAP4 PUSH1 0x1 PUSH1 0x1 PUSH1 0x40 SHL SUB SWAP2 SWAP1 DUP3 DUP3 GT PUSH3 0x3D0 JUMPI ADD SWAP2 PUSH1 0x1F DUP2 DUP2 DUP6 ADD SLT ISZERO PUSH3 0x3D0 JUMPI DUP4 MLOAD SWAP4 DUP4 DUP6 GT PUSH3 0x3A6 JUMPI PUSH1 0x1F NOT SWAP5 PUSH3 0xA1 DUP4 DUP3 ADD DUP8 AND DUP13 ADD PUSH3 0x3D5 JUMP JUMPDEST SWAP4 DUP2 DUP6 MSTORE DUP12 DUP3 DUP5 ADD ADD GT PUSH3 0x3D0 JUMPI DUP11 SWAP2 PUSH1 0x0 JUMPDEST DUP3 DUP2 LT PUSH3 0x3BC JUMPI POP POP SWAP1 PUSH1 0x0 SWAP2 DUP5 ADD ADD MSTORE DUP2 MLOAD SWAP3 DUP4 GT PUSH3 0x3A6 JUMPI PUSH1 0x2 SLOAD SWAP2 PUSH1 0x1 SWAP5 DUP6 DUP5 DUP2 SHR SWAP5 AND DUP1 ISZERO PUSH3 0x39B JUMPI JUMPDEST DUP12 DUP6 LT EQ PUSH3 0x385 JUMPI DUP4 DUP4 DUP7 SWAP6 GT PUSH3 0x32A JUMPI JUMPDEST POP DUP11 SWAP3 DUP5 GT PUSH1 0x1 EQ PUSH3 0x2C3 JUMPI POP PUSH1 0x0 SWAP3 PUSH3 0x2B7 JUMPI JUMPDEST POP POP PUSH1 0x0 NOT PUSH1 0x3 DUP4 SWAP1 SHL SHR NOT AND SWAP1 DUP3 SHL OR PUSH1 0x2 SSTORE JUMPDEST PUSH1 0x4 SSTORE PUSH1 0x1 PUSH1 0x1 PUSH1 0xA0 SHL SUB SWAP1 DUP2 AND SWAP2 DUP3 ISZERO PUSH3 0x273 JUMPI DUP2 DUP5 AND ISZERO PUSH3 0x22F JUMPI AND SWAP1 DUP2 ISZERO PUSH3 0x1EB JUMPI PUSH3 0x189 SWAP4 SWAP5 POP PUSH1 0x80 MSTORE DUP2 PUSH1 0xA0 MSTORE PUSH1 0xC0 MSTORE PUSH3 0x16A CALLER PUSH3 0x410 JUMP JUMPDEST POP PUSH3 0x176 CALLER PUSH3 0x491 JUMP JUMPDEST POP PUSH3 0x182 CALLER PUSH3 0x534 JUMP JUMPDEST POP PUSH3 0x5D2 JUMP JUMPDEST POP MLOAD PUSH2 0x3397 SWAP1 DUP2 PUSH3 0x671 DUP3 CODECOPY PUSH1 0x80 MLOAD DUP2 DUP2 DUP2 PUSH2 0xA74 ADD MSTORE DUP2 DUP2 PUSH2 0x141B ADD MSTORE PUSH2 0x194A ADD MSTORE PUSH1 0xA0 MLOAD DUP2 PUSH2 0x2031 ADD MSTORE PUSH1 0xC0 MLOAD DUP2 DUP2 DUP2 PUSH2 0x45D ADD MSTORE DUP2 DUP2 PUSH2 0x898 ADD MSTORE DUP2 DUP2 PUSH2 0x1643 ADD MSTORE DUP2 DUP2 PUSH2 0x1873 ADD MSTORE DUP2 DUP2 PUSH2 0x1C9B ADD MSTORE DUP2 DUP2 PUSH2 0x2CF9 ADD MSTORE PUSH2 0x2DDA ADD MSTORE RETURN JUMPDEST DUP4 MLOAD PUSH3 0x461BCD PUSH1 0xE5 SHL DUP2 MSTORE PUSH1 0x4 DUP2 ADD DUP7 SWAP1 MSTORE PUSH1 0x19 PUSH1 0x24 DUP3 ADD MSTORE PUSH32 0x496E76616C696420616C6C6F776C697374206164647265737300000000000000 PUSH1 0x44 DUP3 ADD MSTORE PUSH1 0x64 SWAP1 REVERT JUMPDEST DUP5 MLOAD PUSH3 0x461BCD PUSH1 0xE5 SHL DUP2 MSTORE PUSH1 0x4 DUP2 ADD DUP8 SWAP1 MSTORE PUSH1 0x19 PUSH1 0x24 DUP3 ADD MSTORE PUSH32 0x496E76616C69642070726F706572747920636F6E747261637400000000000000 PUSH1 0x44 DUP3 ADD MSTORE PUSH1 0x64 SWAP1 REVERT JUMPDEST DUP5 MLOAD PUSH3 0x461BCD PUSH1 0xE5 SHL DUP2 MSTORE PUSH1 0x4 DUP2 ADD DUP8 SWAP1 MSTORE PUSH1 0x14 PUSH1 0x24 DUP3 ADD MSTORE PUSH32 0x496E76616C696420555344432061646472657373000000000000000000000000 PUSH1 0x44 DUP3 ADD MSTORE PUSH1 0x64 SWAP1 REVERT JUMPDEST ADD MLOAD SWAP1 POP CODESIZE DUP1 PUSH3 0x111 JUMP JUMPDEST DUP6 SWAP5 SWAP3 SWAP2 SWAP3 AND SWAP2 PUSH1 0x2 PUSH1 0x0 MSTORE DUP11 PUSH1 0x0 KECCAK256 SWAP3 PUSH1 0x0 JUMPDEST DUP13 DUP3 DUP3 LT PUSH3 0x313 JUMPI POP POP DUP5 GT PUSH3 0x2F9 JUMPI JUMPDEST POP POP POP DUP2 SHL ADD PUSH1 0x2 SSTORE PUSH3 0x126 JUMP JUMPDEST ADD MLOAD PUSH1 0x0 NOT PUSH1 0xF8 DUP5 PUSH1 0x3 SHL AND SHR NOT AND SWAP1 SSTORE CODESIZE DUP1 DUP1 PUSH3 0x2EA JUMP JUMPDEST DUP4 DUP6 ADD MLOAD DUP7 SSTORE DUP9 SWAP8 SWAP1 SWAP6 ADD SWAP5 SWAP4 DUP5 ADD SWAP4 ADD PUSH3 0x2D7 JUMP JUMPDEST SWAP1 SWAP2 SWAP3 SWAP4 POP PUSH1 0x2 PUSH1 0x0 MSTORE DUP11 PUSH1 0x0 KECCAK256 DUP5 DUP1 DUP8 ADD PUSH1 0x5 SHR DUP3 ADD SWAP3 DUP14 DUP9 LT PUSH3 0x37B JUMPI JUMPDEST SWAP2 DUP8 SWAP7 DUP10 SWAP3 SWAP7 SWAP6 SWAP5 SWAP4 ADD PUSH1 0x5 SHR ADD SWAP2 JUMPDEST DUP3 DUP2 LT PUSH3 0x36B JUMPI POP POP PUSH3 0xFA JUMP JUMPDEST PUSH1 0x0 DUP2 SSTORE DUP8 SWAP7 POP DUP9 SWAP2 ADD PUSH3 0x35B JUMP JUMPDEST SWAP3 POP DUP2 SWAP3 PUSH3 0x34B JUMP JUMPDEST PUSH4 0x4E487B71 PUSH1 0xE0 SHL PUSH1 0x0 MSTORE PUSH1 0x22 PUSH1 0x4 MSTORE PUSH1 0x24 PUSH1 0x0 REVERT JUMPDEST SWAP4 PUSH1 0x7F AND SWAP4 PUSH3 0xE6 JUMP JUMPDEST PUSH4 0x4E487B71 PUSH1 0xE0 SHL PUSH1 0x0 MSTORE PUSH1 0x41 PUSH1 0x4 MSTORE PUSH1 0x24 PUSH1 0x0 REVERT JUMPDEST DUP2 DUP2 ADD DUP5 ADD MLOAD DUP7 DUP3 ADD DUP6 ADD MSTORE DUP4 ADD PUSH3 0xB5 JUMP JUMPDEST PUSH1 0x0 DUP1 REVERT JUMPDEST PUSH1 0x40 MLOAD SWAP2 SWAP1 PUSH1 0x1F ADD PUSH1 0x1F NOT AND DUP3 ADD PUSH1 0x1 PUSH1 0x1 PUSH1 0x40 SHL SUB DUP2 GT DUP4 DUP3 LT OR PUSH3 0x3A6 JUMPI PUSH1 0x40 MSTORE JUMP JUMPDEST MLOAD SWAP1 PUSH1 0x1 PUSH1 0x1 PUSH1 0xA0 SHL SUB DUP3 AND DUP3 SUB PUSH3 0x3D0 JUMPI JUMP JUMPDEST PUSH1 0x1 PUSH1 0x1 PUSH1 0xA0 SHL SUB AND PUSH1 0x0 DUP2 DUP2 MSTORE PUSH32 0x3617319A054D772F909F7C479A2CEBE5066E836A939412E32403C99029B92EFF PUSH1 0x20 MSTORE PUSH1 0x40 DUP2 KECCAK256 SLOAD SWAP1 SWAP2 SWAP1 PUSH1 0xFF AND PUSH3 0x48D JUMPI DUP2 DUP1 MSTORE PUSH1 0x3 PUSH1 0x20 MSTORE PUSH1 0x40 DUP3 KECCAK256 DUP2 DUP4 MSTORE PUSH1 0x20 MSTORE PUSH1 0x40 DUP3 KECCAK256 PUSH1 0x1 PUSH1 0xFF NOT DUP3 SLOAD AND OR SWAP1 SSTORE CALLER SWAP2 PUSH1 0x0 DUP1 MLOAD PUSH1 0x20 PUSH3 0x3A08 DUP4 CODECOPY DUP2 MLOAD SWAP2 MSTORE DUP2 DUP1 LOG4 PUSH1 0x1 SWAP1 JUMP JUMPDEST POP SWAP1 JUMP JUMPDEST PUSH1 0x1 PUSH1 0x1 PUSH1 0xA0 SHL SUB AND PUSH1 0x0 DUP2 DUP2 MSTORE PUSH32 0xD4F4AE7E0F1D6EF3E8290F298FBE252931B59DD183524E1AF76274726DA1E663 PUSH1 0x20 MSTORE PUSH1 0x40 DUP2 KECCAK256 SLOAD SWAP1 SWAP2 SWAP1 PUSH32 0xB1FADD3142AB2AD7F1337EA4D97112BCC8337FC11CE5B20CB04AD038ADF99819 SWAP1 PUSH1 0xFF AND PUSH3 0x52F JUMPI DUP1 DUP4 MSTORE PUSH1 0x3 PUSH1 0x20 MSTORE PUSH1 0x40 DUP4 KECCAK256 DUP3 DUP5 MSTORE PUSH1 0x20 MSTORE PUSH1 0x40 DUP4 KECCAK256 PUSH1 0x1 PUSH1 0xFF NOT DUP3 SLOAD AND OR SWAP1 SSTORE PUSH1 0x0 DUP1 MLOAD PUSH1 0x20 PUSH3 0x3A08 DUP4 CODECOPY DUP2 MLOAD SWAP2 MSTORE CALLER SWAP4 DUP1 LOG4 PUSH1 0x1 SWAP1 JUMP JUMPDEST POP POP SWAP1 JUMP JUMPDEST PUSH1 0x1 PUSH1 0x1 PUSH1 0xA0 SHL SUB AND PUSH1 0x0 DUP2 DUP2 MSTORE PUSH32 0xFCA98A0144180C5FF9CC8EB43249FF58E5A9EDC28CCC383A25775F69580ACD20 PUSH1 0x20 MSTORE PUSH1 0x40 DUP2 KECCAK256 SLOAD SWAP1 SWAP2 SWAP1 PUSH32 0xB6F0283BD1ED00C6AA7E988A7516070240F3610A34D167391359B648EB37CEFC SWAP1 PUSH1 0xFF AND PUSH3 0x52F JUMPI DUP1 DUP4 MSTORE PUSH1 0x3 PUSH1 0x20 MSTORE PUSH1 0x40 DUP4 KECCAK256 DUP3 DUP5 MSTORE PUSH1 0x20 MSTORE PUSH1 0x40 DUP4 KECCAK256 PUSH1 0x1 PUSH1 0xFF NOT DUP3 SLOAD AND OR SWAP1 SSTORE PUSH1 0x0 DUP1 MLOAD PUSH1 0x20 PUSH3 0x3A08 DUP4 CODECOPY DUP2 MLOAD SWAP2 MSTORE CALLER SWAP4 DUP1 LOG4 PUSH1 0x1 SWAP1 JUMP JUMPDEST PUSH1 0x1 PUSH1 0x1 PUSH1 0xA0 SHL SUB AND PUSH1 0x0 DUP2 DUP2 MSTORE PUSH32 0x5562E70DA342DB81569F3094D36BE279BEACA7AD8E08F434EA188E79D2BFE10C PUSH1 0x20 MSTORE PUSH1 0x40 DUP2 KECCAK256 SLOAD SWAP1 SWAP2 SWAP1 PUSH32 0x9F2DF0FED2C77648DE5860A4CC508CD0818C85B8B8A1AB4CEEEF8D981C8956A6 SWAP1 PUSH1 0xFF AND PUSH3 0x52F JUMPI DUP1 DUP4 MSTORE PUSH1 0x3 PUSH1 0x20 MSTORE PUSH1 0x40 DUP4 KECCAK256 DUP3 DUP5 MSTORE PUSH1 0x20 MSTORE PUSH1 0x40 DUP4 KECCAK256 PUSH1 0x1 PUSH1 0xFF NOT DUP3 SLOAD AND OR SWAP1 SSTORE PUSH1 0x0 DUP1 MLOAD PUSH1 0x20 PUSH3 0x3A08 DUP4 CODECOPY DUP2 MLOAD SWAP2 MSTORE CALLER SWAP4 DUP1 LOG4 PUSH1 0x1 SWAP1 JUMP INVALID PUSH1 0x80 PUSH1 0x40 MSTORE PUSH1 0x4 CALLDATASIZE LT ISZERO PUSH2 0x12 JUMPI PUSH1 0x0 DUP1 REVERT JUMPDEST PUSH1 0x0 CALLDATALOAD PUSH1 0xE0 SHR DUP1 PUSH3 0xFDD58E EQ PUSH2 0x306 JUMPI DUP1 PUSH4 0x1FFC9A7 EQ PUSH2 0x301 JUMPI DUP1 PUSH4 0xAD5B98C EQ PUSH2 0x2FC JUMPI DUP1 PUSH4 0xE89341C EQ PUSH2 0x2F7 JUMPI DUP1 PUSH4 0x18D308D0 EQ PUSH2 0x2F2 JUMPI DUP1 PUSH4 0x198596B5 EQ PUSH2 0x2ED JUMPI DUP1 PUSH4 0x1B1DA1AF EQ PUSH2 0x2E8 JUMPI DUP1 PUSH4 0x20FA6E06 EQ PUSH2 0x2E3 JUMPI DUP1 PUSH4 0x248A9CA3 EQ PUSH2 0x2DE JUMPI DUP1 PUSH4 0x2D88AF4A EQ PUSH2 0x2D9 JUMPI DUP1 PUSH4 0x2EB2C2D6 EQ PUSH2 0x2D4 JUMPI DUP1 PUSH4 0x2F2FF15D EQ PUSH2 0x2CF JUMPI DUP1 PUSH4 0x36568ABE EQ PUSH2 0x2CA JUMPI DUP1 PUSH4 0x3F4BA83A EQ PUSH2 0x2C5 JUMPI DUP1 PUSH4 0x4E1273F4 EQ PUSH2 0x2C0 JUMPI DUP1 PUSH4 0x5AB3BF47 EQ PUSH2 0x2BB JUMPI DUP1 PUSH4 0x5C975ABB EQ PUSH2 0x2B6 JUMPI DUP1 PUSH4 0x6B5E796B EQ PUSH2 0x2B1 JUMPI DUP1 PUSH4 0x6D720C06 EQ PUSH2 0x2AC JUMPI DUP1 PUSH4 0x8456CB59 EQ PUSH2 0x2A7 JUMPI DUP1 PUSH4 0x89A30271 EQ PUSH2 0x2A2 JUMPI DUP1 PUSH4 0x91D14854 EQ PUSH2 0x29D JUMPI DUP1 PUSH4 0x9FD0506D EQ PUSH2 0x298 JUMPI DUP1 PUSH4 0xA02FF685 EQ PUSH2 0x293 JUMPI DUP1 PUSH4 0xA217FDDF EQ PUSH2 0x28E JUMPI DUP1 PUSH4 0xA22CB465 EQ PUSH2 0x289 JUMPI DUP1 PUSH4 0xA4B32DE8 EQ PUSH2 0x284 JUMPI DUP1 PUSH4 0xA52BA4E8 EQ PUSH2 0x27F JUMPI DUP1 PUSH4 0xADACD487 EQ PUSH2 0x27A JUMPI DUP1 PUSH4 0xAEEDB379 EQ PUSH2 0x275 JUMPI DUP1 PUSH4 0xB25D2D07 EQ PUSH2 0x270 JUMPI DUP1 PUSH4 0xB62100AF EQ PUSH2 0x26B JUMPI DUP1 PUSH4 0xBC197C81 EQ PUSH2 0x266 JUMPI DUP1 PUSH4 0xBD456F5C EQ PUSH2 0x261 JUMPI DUP1 PUSH4 0xBF59D29B EQ PUSH2 0x25C JUMPI DUP1 PUSH4 0xCB6A0121 EQ PUSH2 0x257 JUMPI DUP1 PUSH4 0xD1A81A8D EQ PUSH2 0x252 JUMPI DUP1 PUSH4 0xD5391393 EQ PUSH2 0x24D JUMPI DUP1 PUSH4 0xD547741F EQ PUSH2 0x248 JUMPI DUP1 PUSH4 0xDDD9D045 EQ PUSH2 0x243 JUMPI DUP1 PUSH4 0xE63AB1E9 EQ PUSH2 0x23E JUMPI DUP1 PUSH4 0xE985E9C5 EQ PUSH2 0x239 JUMPI DUP1 PUSH4 0xF23A6E61 EQ PUSH2 0x234 JUMPI DUP1 PUSH4 0xF242432A EQ PUSH2 0x22F JUMPI DUP1 PUSH4 0xF61EBC36 EQ PUSH2 0x22A JUMPI DUP1 PUSH4 0xFBCEC4B8 EQ PUSH2 0x225 JUMPI PUSH4 0xFF6E708C EQ PUSH2 0x220 JUMPI PUSH1 0x0 DUP1 REVERT JUMPDEST PUSH2 0x209B JUMP JUMPDEST PUSH2 0x2060 JUMP JUMPDEST PUSH2 0x201B JUMP JUMPDEST PUSH2 0x1F99 JUMP JUMPDEST PUSH2 0x1F75 JUMP JUMPDEST PUSH2 0x1ECE JUMP JUMPDEST PUSH2 0x1E93 JUMP JUMPDEST PUSH2 0x1D81 JUMP JUMPDEST PUSH2 0x1D42 JUMP JUMPDEST PUSH2 0x1D07 JUMP JUMPDEST PUSH2 0x1C5F JUMP JUMPDEST PUSH2 0x1BB1 JUMP JUMPDEST PUSH2 0x1B5E JUMP JUMPDEST PUSH2 0x1AF9 JUMP JUMPDEST PUSH2 0x1AD5 JUMP JUMPDEST PUSH2 0x1A42 JUMP JUMPDEST PUSH2 0x1826 JUMP JUMPDEST PUSH2 0x1710 JUMP JUMPDEST PUSH2 0x16A8 JUMP JUMPDEST PUSH2 0x1602 JUMP JUMPDEST PUSH2 0x15C7 JUMP JUMPDEST PUSH2 0x150B JUMP JUMPDEST PUSH2 0x14E5 JUMP JUMPDEST PUSH2 0x14C9 JUMP JUMPDEST PUSH2 0x149C JUMP JUMPDEST PUSH2 0x144A JUMP JUMPDEST PUSH2 0x1405 JUMP JUMPDEST PUSH2 0x13AB JUMP JUMPDEST PUSH2 0x1388 JUMP JUMPDEST PUSH2 0x1340 JUMP JUMPDEST PUSH2 0x131D JUMP JUMPDEST PUSH2 0x1165 JUMP JUMPDEST PUSH2 0x1081 JUMP JUMPDEST PUSH2 0xFD2 JUMP JUMPDEST PUSH2 0xF8B JUMP JUMPDEST PUSH2 0xF4C JUMP JUMPDEST PUSH2 0xE8F JUMP JUMPDEST PUSH2 0xBBC JUMP JUMPDEST PUSH2 0xB8D JUMP JUMPDEST PUSH2 0x846 JUMP JUMPDEST PUSH2 0x745 JUMP JUMPDEST PUSH2 0x70A JUMP JUMPDEST PUSH2 0x61F JUMP JUMPDEST PUSH2 0x4E0 JUMP JUMPDEST PUSH2 0x447 JUMP JUMPDEST PUSH2 0x3AF JUMP JUMPDEST PUSH2 0x350 JUMP JUMPDEST PUSH1 0x4 CALLDATALOAD SWAP1 PUSH1 0x1 PUSH1 0x1 PUSH1 0xA0 SHL SUB DUP3 AND DUP3 SUB PUSH2 0x321 JUMPI JUMP JUMPDEST PUSH1 0x0 DUP1 REVERT JUMPDEST PUSH1 0x24 CALLDATALOAD SWAP1 PUSH1 0x1 PUSH1 0x1 PUSH1 0xA0 SHL SUB DUP3 AND DUP3 SUB PUSH2 0x321 JUMPI JUMP JUMPDEST CALLDATALOAD SWAP1 PUSH1 0x1 PUSH1 0x1 PUSH1 0xA0 SHL SUB DUP3 AND DUP3 SUB PUSH2 0x321 JUMPI JUMP JUMPDEST CALLVALUE PUSH2 0x321 JUMPI PUSH1 0x40 CALLDATASIZE PUSH1 0x3 NOT ADD SLT PUSH2 0x321 JUMPI PUSH1 0x20 PUSH2 0x394 PUSH2 0x36E PUSH2 0x30B JUMP JUMPDEST PUSH1 0x24 CALLDATALOAD PUSH1 0x0 MSTORE PUSH1 0x0 DUP4 MSTORE PUSH1 0x40 PUSH1 0x0 KECCAK256 SWAP1 PUSH1 0x1 DUP1 PUSH1 0xA0 SHL SUB AND PUSH1 0x0 MSTORE PUSH1 0x20 MSTORE PUSH1 0x40 PUSH1 0x0 KECCAK256 SWAP1 JUMP JUMPDEST SLOAD PUSH1 0x40 MLOAD SWAP1 DUP2 MSTORE RETURN JUMPDEST PUSH1 0x1 PUSH1 0x1 PUSH1 0xE0 SHL SUB NOT DUP2 AND SUB PUSH2 0x321 JUMPI JUMP JUMPDEST CALLVALUE PUSH2 0x321 JUMPI PUSH1 0x20 CALLDATASIZE PUSH1 0x3 NOT ADD SLT PUSH2 0x321 JUMPI PUSH1 0x20 PUSH1 0x4 CALLDATALOAD PUSH2 0x3CE DUP2 PUSH2 0x39D JUMP JUMPDEST PUSH1 0x1 PUSH1 0x1 PUSH1 0xE0 SHL SUB NOT AND PUSH4 0x6CDB3D13 PUSH1 0xE1 SHL DUP2 EQ DUP1 ISZERO PUSH2 0x437 JUMPI JUMPDEST DUP1 ISZERO PUSH2 0x427 JUMPI JUMPDEST DUP1 SWAP2 DUP2 ISZERO PUSH2 0x405 JUMPI JUMPDEST POP POP PUSH1 0x40 MLOAD SWAP1 ISZERO ISZERO DUP2 MSTORE RETURN JUMPDEST PUSH4 0x7965DB0B PUSH1 0xE0 SHL EQ SWAP2 POP DUP2 ISZERO PUSH2 0x41F JUMPI JUMPDEST POP CODESIZE DUP1 PUSH2 0x3F9 JUMP JUMPDEST SWAP1 POP CODESIZE PUSH2 0x417 JUMP JUMPDEST POP PUSH4 0x1FFC9A7 PUSH1 0xE0 SHL DUP2 EQ PUSH2 0x3F0 JUMP JUMPDEST POP PUSH4 0x3A24D07 PUSH1 0xE2 SHL DUP2 EQ PUSH2 0x3E9 JUMP JUMPDEST CALLVALUE PUSH2 0x321 JUMPI PUSH1 0x0 CALLDATASIZE PUSH1 0x3 NOT ADD SLT PUSH2 0x321 JUMPI PUSH1 0x40 MLOAD PUSH32 0x0 PUSH1 0x1 PUSH1 0x1 PUSH1 0xA0 SHL SUB AND DUP2 MSTORE PUSH1 0x20 SWAP1 RETURN JUMPDEST SWAP2 SWAP1 DUP3 MLOAD SWAP3 DUP4 DUP3 MSTORE PUSH1 0x0 JUMPDEST DUP5 DUP2 LT PUSH2 0x4B8 JUMPI POP POP DUP3 PUSH1 0x0 PUSH1 0x20 DUP1 SWAP5 SWAP6 DUP5 ADD ADD MSTORE PUSH1 0x1F DUP1 NOT SWAP2 ADD AND ADD ADD SWAP1 JUMP JUMPDEST PUSH1 0x20 DUP2 DUP4 ADD DUP2 ADD MLOAD DUP5 DUP4 ADD DUP3 ADD MSTORE ADD PUSH2 0x497 JUMP JUMPDEST SWAP1 PUSH1 0x20 PUSH2 0x4DD SWAP3 DUP2 DUP2 MSTORE ADD SWAP1 PUSH2 0x48C JUMP JUMPDEST SWAP1 JUMP JUMPDEST CALLVALUE PUSH2 0x321 JUMPI PUSH1 0x20 DUP1 PUSH1 0x3 NOT CALLDATASIZE ADD SLT PUSH2 0x321 JUMPI PUSH1 0x40 MLOAD SWAP1 PUSH1 0x0 SWAP1 PUSH1 0x2 SLOAD PUSH1 0x1 SWAP2 DUP2 DUP4 SHR SWAP3 DUP1 DUP4 AND SWAP3 DUP4 ISZERO PUSH2 0x5DC JUMPI JUMPDEST DUP3 DUP6 LT DUP5 EQ PUSH2 0x5C8 JUMPI DUP5 DUP8 MSTORE PUSH1 0x20 DUP8 ADD SWAP4 SWAP1 DUP2 ISZERO PUSH2 0x5A9 JUMPI POP PUSH1 0x1 EQ PUSH2 0x54F JUMPI JUMPDEST PUSH2 0x54B DUP7 PUSH2 0x53F DUP2 DUP9 SUB DUP3 PUSH2 0xD06 JUMP JUMPDEST PUSH1 0x40 MLOAD SWAP2 DUP3 SWAP2 DUP3 PUSH2 0x4CC JUMP JUMPDEST SUB SWAP1 RETURN JUMPDEST PUSH1 0x2 PUSH1 0x0 SWAP1 DUP2 MSTORE SWAP5 POP SWAP2 SWAP3 SWAP2 PUSH32 0x405787FA12A823E0F2B7631CC41B3BA8828B3321CA811111FA75CD3AA3BB5ACE JUMPDEST DUP4 DUP7 LT PUSH2 0x598 JUMPI POP POP POP SWAP2 ADD SWAP1 POP PUSH2 0x53F DUP3 PUSH2 0x54B CODESIZE PUSH2 0x52F JUMP JUMPDEST DUP1 SLOAD DUP6 DUP8 ADD MSTORE SWAP5 DUP3 ADD SWAP5 DUP2 ADD PUSH2 0x57D JUMP JUMPDEST PUSH1 0xFF NOT AND DUP5 MSTORE POP POP POP SWAP1 ISZERO ISZERO PUSH1 0x5 SHL ADD SWAP1 POP PUSH2 0x53F DUP3 PUSH2 0x54B CODESIZE PUSH2 0x52F JUMP JUMPDEST PUSH4 0x4E487B71 PUSH1 0xE0 SHL DUP7 MSTORE PUSH1 0x22 PUSH1 0x4 MSTORE PUSH1 0x24 DUP7 REVERT JUMPDEST SWAP4 PUSH1 0x7F AND SWAP4 PUSH2 0x50E JUMP JUMPDEST PUSH1 0x80 SWAP1 PUSH1 0x3 NOT ADD SLT PUSH2 0x321 JUMPI PUSH1 0x1 PUSH1 0x1 PUSH1 0xA0 SHL SUB SWAP1 PUSH1 0x4 CALLDATALOAD DUP3 DUP2 AND DUP2 SUB PUSH2 0x321 JUMPI SWAP2 PUSH1 0x24 CALLDATALOAD SWAP1 DUP2 AND DUP2 SUB PUSH2 0x321 JUMPI SWAP1 PUSH1 0x44 CALLDATALOAD SWAP1 PUSH1 0x64 CALLDATALOAD SWAP1 JUMP JUMPDEST CALLVALUE PUSH2 0x321 JUMPI PUSH2 0x62D CALLDATASIZE PUSH2 0x5E6 JUMP JUMPDEST SWAP1 SWAP3 SWAP2 PUSH2 0x638 PUSH2 0x20E3 JUMP JUMPDEST PUSH2 0x640 PUSH2 0x2ECD JUMP JUMPDEST PUSH1 0x0 DUP5 DUP2 MSTORE PUSH1 0x20 DUP2 DUP2 MSTORE PUSH1 0x40 DUP1 DUP4 KECCAK256 PUSH1 0x1 PUSH1 0x1 PUSH1 0xA0 SHL SUB DUP8 AND DUP5 MSTORE SWAP1 SWAP2 MSTORE SWAP1 KECCAK256 DUP3 SWAP1 SLOAD LT PUSH2 0x6CE JUMPI PUSH2 0x6BF PUSH32 0xA7F01ABBF5B7EC7BAC7FB74FEB5C1F54AF9E430F18A33681C1B9149875339A45 SWAP2 PUSH2 0x6A1 PUSH2 0x698 PUSH2 0x2845 JUMP JUMPDEST DUP6 DUP9 DUP5 DUP10 PUSH2 0x256E JUMP JUMPDEST PUSH1 0x40 MLOAD SWAP4 DUP5 MSTORE PUSH1 0x1 PUSH1 0x1 PUSH1 0xA0 SHL SUB SWAP1 DUP2 AND SWAP5 AND SWAP3 SWAP1 DUP2 SWAP1 PUSH1 0x20 DUP3 ADD SWAP1 JUMP JUMPDEST SUB SWAP1 LOG4 PUSH2 0x6CC PUSH1 0x1 PUSH1 0x4 SSTORE JUMP JUMPDEST STOP JUMPDEST PUSH1 0x40 MLOAD PUSH3 0x461BCD PUSH1 0xE5 SHL DUP2 MSTORE PUSH1 0x20 PUSH1 0x4 DUP3 ADD MSTORE PUSH1 0x14 PUSH1 0x24 DUP3 ADD MSTORE PUSH20 0x496E73756666696369656E742062616C616E6365 PUSH1 0x60 SHL PUSH1 0x44 DUP3 ADD MSTORE PUSH1 0x64 SWAP1 REVERT JUMPDEST CALLVALUE PUSH2 0x321 JUMPI PUSH1 0x0 CALLDATASIZE PUSH1 0x3 NOT ADD SLT PUSH2 0x321 JUMPI PUSH1 0x20 PUSH1 0x40 MLOAD PUSH32 0xB6F0283BD1ED00C6AA7E988A7516070240F3610A34D167391359B648EB37CEFC DUP2 MSTORE RETURN JUMPDEST CALLVALUE PUSH2 0x321 JUMPI PUSH1 0x40 CALLDATASIZE PUSH1 0x3 NOT ADD SLT PUSH2 0x321 JUMPI PUSH1 0x24 CALLDATALOAD PUSH1 0x4 CALLDATALOAD PUSH2 0x764 PUSH2 0x215F JUMP JUMPDEST PUSH1 0x0 SWAP2 DUP2 DUP4 MSTORE PUSH1 0x6 PUSH1 0x20 MSTORE PUSH2 0x77E PUSH1 0x40 DUP5 KECCAK256 SLOAD ISZERO ISZERO PUSH2 0x2FF3 JUMP JUMPDEST DUP2 DUP4 MSTORE PUSH1 0x6 PUSH1 0x20 MSTORE PUSH1 0x2 PUSH1 0x40 DUP5 KECCAK256 ADD SLOAD DUP1 DUP3 EQ PUSH2 0x7F0 JUMPI DUP2 PUSH32 0x3180BC850607139589B517B4F1480820C2973C955706DCF81D3A20DE03670DDC SWAP3 PUSH1 0x2 PUSH2 0x7CE DUP7 PUSH1 0x0 MSTORE PUSH1 0x6 PUSH1 0x20 MSTORE PUSH1 0x40 PUSH1 0x0 KECCAK256 SWAP1 JUMP JUMPDEST ADD SSTORE PUSH1 0x40 DUP1 MLOAD SWAP3 DUP4 MSTORE PUSH1 0x20 DUP4 ADD SWAP2 SWAP1 SWAP2 MSTORE TIMESTAMP SWAP1 DUP3 ADD MSTORE DUP1 PUSH1 0x60 DUP2 ADD JUMPDEST SUB SWAP1 LOG2 DUP1 RETURN JUMPDEST PUSH1 0x40 MLOAD PUSH3 0x461BCD PUSH1 0xE5 SHL DUP2 MSTORE PUSH1 0x20 PUSH1 0x4 DUP3 ADD MSTORE PUSH1 0x28 PUSH1 0x24 DUP3 ADD MSTORE PUSH32 0x4E6577207072696365206D757374206469666665722066726F6D206375727265 PUSH1 0x44 DUP3 ADD MSTORE PUSH8 0x6E74207072696365 PUSH1 0xC0 SHL PUSH1 0x64 DUP3 ADD MSTORE PUSH1 0x84 SWAP1 REVERT JUMPDEST CALLVALUE PUSH2 0x321 JUMPI PUSH1 0x80 CALLDATASIZE PUSH1 0x3 NOT ADD SLT PUSH2 0x321 JUMPI PUSH1 0x4 CALLDATALOAD PUSH2 0x862 PUSH2 0x326 JUMP JUMPDEST PUSH1 0x44 CALLDATALOAD SWAP1 PUSH1 0x64 CALLDATALOAD SWAP1 PUSH2 0x872 PUSH2 0x2ECD JUMP JUMPDEST PUSH2 0x87A PUSH2 0x2B4A JUMP JUMPDEST PUSH1 0x40 MLOAD PUSH4 0x14A5749D PUSH1 0xE3 SHL DUP1 DUP3 MSTORE CALLER PUSH1 0x4 DUP4 ADD MSTORE PUSH1 0x1 PUSH1 0x1 PUSH1 0xA0 SHL SUB PUSH32 0x0 DUP2 AND SWAP5 PUSH1 0x20 SWAP5 SWAP4 SWAP1 SWAP3 DUP6 DUP3 PUSH1 0x24 DUP2 DUP11 GAS STATICCALL SWAP2 DUP3 ISZERO PUSH2 0xB4E JUMPI DUP7 SWAP3 PUSH2 0x8E3 SWAP2 PUSH1 0x0 SWAP2 PUSH2 0xB70 JUMPI JUMPDEST POP PUSH2 0x31A5 JUMP JUMPDEST PUSH1 0x40 MLOAD SWAP1 DUP2 MSTORE PUSH1 0x1 PUSH1 0x1 PUSH1 0xA0 SHL SUB DUP6 AND PUSH1 0x4 DUP3 ADD MSTORE SWAP6 DUP7 SWAP1 PUSH1 0x24 SWAP1 DUP3 SWAP1 GAS STATICCALL SWAP5 DUP6 ISZERO PUSH2 0xB4E JUMPI PUSH2 0xA70 PUSH1 0x0 SWAP3 PUSH2 0x9C0 DUP10 PUSH2 0x9B8 DUP9 PUSH2 0x9A1 DUP15 PUSH2 0x931 PUSH2 0x991 SWAP15 DUP15 SWAP11 DUP13 SWAP2 PUSH2 0xB53 JUMPI JUMPDEST POP PUSH2 0x31E5 JUMP JUMPDEST PUSH2 0x950 PUSH2 0x948 DUP3 PUSH1 0x0 MSTORE PUSH1 0x6 PUSH1 0x20 MSTORE PUSH1 0x40 PUSH1 0x0 KECCAK256 SWAP1 JUMP JUMPDEST SLOAD ISZERO ISZERO PUSH2 0x2FF3 JUMP JUMPDEST PUSH2 0x979 PUSH2 0x974 PUSH1 0x3 PUSH2 0x96C DUP5 PUSH1 0x0 MSTORE PUSH1 0x6 PUSH1 0x20 MSTORE PUSH1 0x40 PUSH1 0x0 KECCAK256 SWAP1 JUMP JUMPDEST ADD SLOAD PUSH1 0xFF AND SWAP1 JUMP JUMPDEST PUSH2 0x3226 JUMP JUMPDEST PUSH2 0x984 DUP6 ISZERO ISZERO PUSH2 0x3075 JUMP JUMPDEST DUP7 DUP4 AND SWAP14 DUP15 CALLER EQ ISZERO PUSH2 0x327D JUMP JUMPDEST PUSH1 0x0 MSTORE PUSH1 0x0 PUSH1 0x20 MSTORE PUSH1 0x40 PUSH1 0x0 KECCAK256 SWAP1 JUMP JUMPDEST SWAP1 PUSH1 0x1 DUP1 PUSH1 0xA0 SHL SUB AND PUSH1 0x0 MSTORE PUSH1 0x20 MSTORE PUSH1 0x40 PUSH1 0x0 KECCAK256 SWAP1 JUMP JUMPDEST SLOAD LT ISZERO PUSH2 0x32C9 JUMP JUMPDEST PUSH2 0xA1C DUP11 PUSH2 0xA15 DUP12 PUSH2 0xA0F PUSH2 0x9E3 DUP12 PUSH2 0x9A1 DUP7 PUSH1 0x0 MSTORE PUSH1 0x0 PUSH1 0x20 MSTORE PUSH1 0x40 PUSH1 0x0 KECCAK256 SWAP1 JUMP JUMPDEST SLOAD PUSH1 0x1 PUSH1 0x1 PUSH1 0xA0 SHL SUB DUP13 AND PUSH1 0x0 SWAP1 DUP2 MSTORE PUSH1 0x7 PUSH1 0x20 MSTORE PUSH1 0x40 SWAP1 KECCAK256 SWAP1 SWAP5 SWAP1 JUMPDEST SWAP1 PUSH1 0x0 MSTORE PUSH1 0x20 MSTORE PUSH1 0x40 PUSH1 0x0 KECCAK256 SWAP1 JUMP JUMPDEST SLOAD PUSH2 0x2C87 JUMP JUMPDEST GT ISZERO PUSH2 0x3315 JUMP JUMPDEST PUSH2 0xA37 PUSH2 0xA29 DUP7 DUP12 PUSH2 0x310C JUMP JUMPDEST PUSH8 0xDE0B6B3A7640000 SWAP1 DIV SWAP1 JUMP JUMPDEST PUSH1 0x40 MLOAD PUSH4 0x23B872DD PUSH1 0xE0 SHL DUP2 MSTORE CALLER PUSH1 0x4 DUP3 ADD MSTORE PUSH1 0x1 PUSH1 0x1 PUSH1 0xA0 SHL SUB DUP9 AND PUSH1 0x24 DUP3 ADD MSTORE PUSH1 0x44 DUP2 ADD SWAP2 SWAP1 SWAP2 MSTORE SWAP4 DUP5 SWAP3 DUP4 SWAP2 SWAP1 DUP3 SWAP1 PUSH1 0x64 DUP3 ADD SWAP1 JUMP JUMPDEST SUB SWAP3 PUSH32 0x0 AND GAS CALL SWAP3 DUP4 ISZERO PUSH2 0xB4E JUMPI PUSH2 0xAD9 PUSH2 0x6BF SWAP5 PUSH2 0xAEB SWAP4 PUSH32 0xED79E7D218BFDFE7B0612476B5E4DED4715D3A29544095B7692131998870ADD0 SWAP8 PUSH1 0x0 SWAP3 PUSH2 0xB21 JUMPI JUMPDEST POP POP PUSH2 0x311F JUMP JUMPDEST DUP7 DUP9 PUSH2 0xAE3 PUSH2 0x2845 JUMP JUMPDEST SWAP3 CALLER SWAP1 PUSH2 0x256E JUMP JUMPDEST CALLER PUSH1 0x0 SWAP1 DUP2 MSTORE PUSH1 0x8 PUSH1 0x20 MSTORE PUSH1 0x40 SWAP1 KECCAK256 DUP2 SWAP1 PUSH2 0xB07 SWAP1 DUP9 SWAP1 PUSH2 0xA00 JUMP JUMPDEST SSTORE PUSH1 0x40 DUP1 MLOAD SWAP6 DUP7 MSTORE PUSH1 0x20 DUP7 ADD SWAP2 SWAP1 SWAP2 MSTORE CALLER SWAP5 SWAP2 DUP3 SWAP2 DUP3 ADD SWAP1 JUMP JUMPDEST PUSH2 0xB40 SWAP3 POP DUP1 RETURNDATASIZE LT PUSH2 0xB47 JUMPI JUMPDEST PUSH2 0xB38 DUP2 DUP4 PUSH2 0xD06 JUMP JUMPDEST DUP2 ADD SWAP1 PUSH2 0x2CB9 JUMP JUMPDEST CODESIZE DUP1 PUSH2 0xAD2 JUMP JUMPDEST POP RETURNDATASIZE PUSH2 0xB2E JUMP JUMPDEST PUSH2 0x2839 JUMP JUMPDEST PUSH2 0xB6A SWAP2 POP DUP12 RETURNDATASIZE DUP14 GT PUSH2 0xB47 JUMPI PUSH2 0xB38 DUP2 DUP4 PUSH2 0xD06 JUMP JUMPDEST CODESIZE PUSH2 0x92B JUMP JUMPDEST PUSH2 0xB87 SWAP2 POP DUP5 RETURNDATASIZE DUP7 GT PUSH2 0xB47 JUMPI PUSH2 0xB38 DUP2 DUP4 PUSH2 0xD06 JUMP JUMPDEST CODESIZE PUSH2 0x8DD JUMP JUMPDEST CALLVALUE PUSH2 0x321 JUMPI PUSH1 0x20 CALLDATASIZE PUSH1 0x3 NOT ADD SLT PUSH2 0x321 JUMPI PUSH1 0x4 CALLDATALOAD PUSH1 0x0 MSTORE PUSH1 0x3 PUSH1 0x20 MSTORE PUSH1 0x20 PUSH1 0x1 PUSH1 0x40 PUSH1 0x0 KECCAK256 ADD SLOAD PUSH1 0x40 MLOAD SWAP1 DUP2 MSTORE RETURN JUMPDEST CALLVALUE PUSH2 0x321 JUMPI PUSH1 0x20 CALLDATASIZE PUSH1 0x3 NOT ADD SLT PUSH2 0x321 JUMPI PUSH2 0xBD5 PUSH2 0x30B JUMP JUMPDEST PUSH2 0xBDD PUSH2 0x21B7 JUMP JUMPDEST PUSH1 0xFF PUSH1 0x5 SLOAD PUSH1 0xA8 SHR AND PUSH2 0xC65 JUMPI PUSH1 0x1 PUSH1 0x1 PUSH1 0xA0 SHL SUB DUP2 AND SWAP1 PUSH2 0xC2A SWAP1 PUSH2 0xC04 DUP4 ISZERO ISZERO PUSH2 0x2B05 JUMP JUMPDEST PUSH1 0x5 DUP1 SLOAD PUSH2 0x100 PUSH1 0x1 PUSH1 0xA8 SHL SUB NOT AND PUSH1 0x8 DUP4 SWAP1 SHL PUSH2 0x100 PUSH1 0x1 PUSH1 0xA8 SHL SUB AND OR SWAP1 SSTORE PUSH2 0x22E0 JUMP JUMPDEST POP PUSH1 0x5 DUP1 SLOAD PUSH1 0xFF PUSH1 0xA8 SHL NOT AND PUSH1 0x1 PUSH1 0xA8 SHL OR SWAP1 SSTORE PUSH32 0xD11D57C2C7468878B1035DF11C670BCD0091AA840BF8AA166365397622237BEA PUSH1 0x0 DUP1 LOG2 STOP JUMPDEST PUSH1 0x40 MLOAD PUSH3 0x461BCD PUSH1 0xE5 SHL DUP2 MSTORE PUSH1 0x20 PUSH1 0x4 DUP3 ADD MSTORE PUSH1 0x12 PUSH1 0x24 DUP3 ADD MSTORE PUSH18 0x14185D5CD95C88185B1C9958591E481CD95D PUSH1 0x72 SHL PUSH1 0x44 DUP3 ADD MSTORE PUSH1 0x64 SWAP1 REVERT JUMPDEST PUSH4 0x4E487B71 PUSH1 0xE0 SHL PUSH1 0x0 MSTORE PUSH1 0x41 PUSH1 0x4 MSTORE PUSH1 0x24 PUSH1 0x0 REVERT JUMPDEST PUSH1 0xC0 DUP2 ADD SWAP1 DUP2 LT PUSH8 0xFFFFFFFFFFFFFFFF DUP3 GT OR PUSH2 0xCD1 JUMPI PUSH1 0x40 MSTORE JUMP JUMPDEST PUSH2 0xC9F JUMP JUMPDEST PUSH8 0xFFFFFFFFFFFFFFFF DUP2 GT PUSH2 0xCD1 JUMPI PUSH1 0x40 MSTORE JUMP JUMPDEST PUSH1 0x20 DUP2 ADD SWAP1 DUP2 LT PUSH8 0xFFFFFFFFFFFFFFFF DUP3 GT OR PUSH2 0xCD1 JUMPI PUSH1 0x40 MSTORE JUMP JUMPDEST SWAP1 PUSH1 0x1F DUP1 NOT SWAP2 ADD AND DUP2 ADD SWAP1 DUP2 LT PUSH8 0xFFFFFFFFFFFFFFFF DUP3 GT OR PUSH2 0xCD1 JUMPI PUSH1 0x40 MSTORE JUMP JUMPDEST PUSH1 0x40 MLOAD SWAP1 PUSH2 0xD35 DUP3 PUSH2 0xCB5 JUMP JUMPDEST JUMP JUMPDEST PUSH8 0xFFFFFFFFFFFFFFFF DUP2 GT PUSH2 0xCD1 JUMPI PUSH1 0x5 SHL PUSH1 0x20 ADD SWAP1 JUMP JUMPDEST DUP2 PUSH1 0x1F DUP3 ADD SLT ISZERO PUSH2 0x321 JUMPI DUP1 CALLDATALOAD SWAP2 PUSH2 0xD66 DUP4 PUSH2 0xD37 JUMP JUMPDEST SWAP3 PUSH2 0xD74 PUSH1 0x40 MLOAD SWAP5 DUP6 PUSH2 0xD06 JUMP JUMPDEST DUP1 DUP5 MSTORE PUSH1 0x20 SWAP3 DUP4 DUP1 DUP7 ADD SWAP3 PUSH1 0x5 SHL DUP3 ADD ADD SWAP3 DUP4 GT PUSH2 0x321 JUMPI DUP4 ADD SWAP1 JUMPDEST DUP3 DUP3 LT PUSH2 0xD9E JUMPI POP POP POP POP SWAP1 JUMP JUMPDEST DUP2 CALLDATALOAD DUP2 MSTORE SWAP1 DUP4 ADD SWAP1 DUP4 ADD PUSH2 0xD90 JUMP JUMPDEST PUSH8 0xFFFFFFFFFFFFFFFF DUP2 GT PUSH2 0xCD1 JUMPI PUSH1 0x1F ADD PUSH1 0x1F NOT AND PUSH1 0x20 ADD SWAP1 JUMP JUMPDEST DUP2 PUSH1 0x1F DUP3 ADD SLT ISZERO PUSH2 0x321 JUMPI DUP1 CALLDATALOAD SWAP1 PUSH2 0xDE0 DUP3 PUSH2 0xDAD JUMP JUMPDEST SWAP3 PUSH2 0xDEE PUSH1 0x40 MLOAD SWAP5 DUP6 PUSH2 0xD06 JUMP JUMPDEST DUP3 DUP5 MSTORE PUSH1 0x20 DUP4 DUP4 ADD ADD GT PUSH2 0x321 JUMPI DUP2 PUSH1 0x0 SWAP3 PUSH1 0x20 DUP1 SWAP4 ADD DUP4 DUP7 ADD CALLDATACOPY DUP4 ADD ADD MSTORE SWAP1 JUMP JUMPDEST PUSH1 0xA0 PUSH1 0x3 NOT DUP3 ADD SLT PUSH2 0x321 JUMPI PUSH1 0x1 PUSH1 0x1 PUSH1 0xA0 SHL SUB SWAP2 PUSH1 0x4 CALLDATALOAD DUP4 DUP2 AND DUP2 SUB PUSH2 0x321 JUMPI SWAP3 PUSH1 0x24 CALLDATALOAD SWAP1 DUP2 AND DUP2 SUB PUSH2 0x321 JUMPI SWAP2 PUSH8 0xFFFFFFFFFFFFFFFF SWAP2 PUSH1 0x44 CALLDATALOAD DUP4 DUP2 GT PUSH2 0x321 JUMPI DUP3 PUSH2 0xE60 SWAP2 PUSH1 0x4 ADD PUSH2 0xD4F JUMP JUMPDEST SWAP3 PUSH1 0x64 CALLDATALOAD DUP2 DUP2 GT PUSH2 0x321 JUMPI DUP4 PUSH2 0xE78 SWAP2 PUSH1 0x4 ADD PUSH2 0xD4F JUMP JUMPDEST SWAP3 PUSH1 0x84 CALLDATALOAD SWAP2 DUP3 GT PUSH2 0x321 JUMPI PUSH2 0x4DD SWAP2 PUSH1 0x4 ADD PUSH2 0xDC9 JUMP JUMPDEST CALLVALUE PUSH2 0x321 JUMPI PUSH2 0xE9D CALLDATASIZE PUSH2 0xE10 JUMP JUMPDEST SWAP3 SWAP1 SWAP2 SWAP1 PUSH1 0x1 PUSH1 0x1 PUSH1 0xA0 SHL SUB DUP6 DUP2 AND SWAP1 CALLER DUP3 EQ ISZERO DUP1 PUSH2 0xF28 JUMPI JUMPDEST PUSH2 0xF01 JUMPI DUP3 AND ISZERO PUSH2 0xEE8 JUMPI ISZERO PUSH2 0xED0 JUMPI PUSH2 0x6CC SWAP5 PUSH2 0x25B9 JUMP JUMPDEST PUSH1 0x40 MLOAD PUSH3 0x6A0D45 PUSH1 0xE2 SHL DUP2 MSTORE PUSH1 0x0 PUSH1 0x4 DUP3 ADD MSTORE PUSH1 0x24 SWAP1 REVERT JUMPDEST PUSH1 0x40 MLOAD PUSH4 0x2BFA23E7 PUSH1 0xE1 SHL DUP2 MSTORE PUSH1 0x0 PUSH1 0x4 DUP3 ADD MSTORE PUSH1 0x24 SWAP1 REVERT JUMPDEST PUSH1 0x40 MLOAD PUSH4 0x711BEC91 PUSH1 0xE1 SHL DUP2 MSTORE CALLER PUSH1 0x4 DUP3 ADD MSTORE PUSH1 0x1 PUSH1 0x1 PUSH1 0xA0 SHL SUB DUP9 AND PUSH1 0x24 DUP3 ADD MSTORE PUSH1 0x44 SWAP1 REVERT JUMPDEST POP PUSH1 0x0 DUP3 DUP2 MSTORE PUSH1 0x1 PUSH1 0x20 SWAP1 DUP2 MSTORE PUSH1 0x40 DUP1 DUP4 KECCAK256 CALLER DUP5 MSTORE SWAP1 SWAP2 MSTORE SWAP1 KECCAK256 SLOAD PUSH1 0xFF AND ISZERO PUSH2 0xEB7 JUMP JUMPDEST CALLVALUE PUSH2 0x321 JUMPI PUSH1 0x40 CALLDATASIZE PUSH1 0x3 NOT ADD SLT PUSH2 0x321 JUMPI PUSH2 0x6CC PUSH1 0x4 CALLDATALOAD PUSH2 0xF6B PUSH2 0x326 JUMP JUMPDEST SWAP1 DUP1 PUSH1 0x0 MSTORE PUSH1 0x3 PUSH1 0x20 MSTORE PUSH2 0xF86 PUSH1 0x1 PUSH1 0x40 PUSH1 0x0 KECCAK256 ADD SLOAD PUSH2 0x22BF JUMP JUMPDEST PUSH2 0x23AB JUMP JUMPDEST CALLVALUE PUSH2 0x321 JUMPI PUSH1 0x40 CALLDATASIZE PUSH1 0x3 NOT ADD SLT PUSH2 0x321 JUMPI PUSH2 0xFA4 PUSH2 0x326 JUMP JUMPDEST CALLER PUSH1 0x1 PUSH1 0x1 PUSH1 0xA0 SHL SUB DUP3 AND SUB PUSH2 0xFC0 JUMPI PUSH2 0x6CC SWAP1 PUSH1 0x4 CALLDATALOAD PUSH2 0x23D7 JUMP JUMPDEST PUSH1 0x40 MLOAD PUSH4 0x334BD919 PUSH1 0xE1 SHL DUP2 MSTORE PUSH1 0x4 SWAP1 REVERT JUMPDEST CALLVALUE PUSH2 0x321 JUMPI PUSH1 0x0 CALLDATASIZE PUSH1 0x3 NOT ADD SLT PUSH2 0x321 JUMPI PUSH2 0xFEB PUSH2 0x220F JUMP JUMPDEST PUSH1 0x5 SLOAD PUSH1 0xFF DUP2 AND ISZERO PUSH2 0x102A JUMPI PUSH1 0xFF NOT AND PUSH1 0x5 SSTORE PUSH32 0x5DB9EE0A495BF2E6FF9C91A7834C1BA4FDD244A5E8AA4E537BD38AEAE4B073AA PUSH1 0x20 PUSH1 0x40 MLOAD CALLER DUP2 MSTORE LOG1 STOP JUMPDEST PUSH1 0x40 MLOAD PUSH4 0x8DFC202B PUSH1 0xE0 SHL DUP2 MSTORE PUSH1 0x4 SWAP1 REVERT JUMPDEST SWAP1 DUP2 MLOAD DUP1 DUP3 MSTORE PUSH1 0x20 DUP1 DUP1 SWAP4 ADD SWAP4 ADD SWAP2 PUSH1 0x0 JUMPDEST DUP3 DUP2 LT PUSH2 0x105C JUMPI POP POP POP POP SWAP1 JUMP JUMPDEST DUP4 MLOAD DUP6 MSTORE SWAP4 DUP2 ADD SWAP4 SWAP3 DUP2 ADD SWAP3 PUSH1 0x1 ADD PUSH2 0x104E JUMP JUMPDEST SWAP1 PUSH1 0x20 PUSH2 0x4DD SWAP3 DUP2 DUP2 MSTORE ADD SWAP1 PUSH2 0x103C JUMP JUMPDEST CALLVALUE PUSH2 0x321 JUMPI PUSH1 0x40 CALLDATASIZE PUSH1 0x3 NOT ADD SLT PUSH2 0x321 JUMPI PUSH1 0x4 CALLDATALOAD PUSH8 0xFFFFFFFFFFFFFFFF DUP1 DUP3 GT PUSH2 0x321 JUMPI CALLDATASIZE PUSH1 0x23 DUP4 ADD SLT ISZERO PUSH2 0x321 JUMPI DUP2 PUSH1 0x4 ADD CALLDATALOAD PUSH2 0x10BE DUP2 PUSH2 0xD37 JUMP JUMPDEST SWAP3 PUSH2 0x10CC PUSH1 0x40 MLOAD SWAP5 DUP6 PUSH2 0xD06 JUMP JUMPDEST DUP2 DUP5 MSTORE PUSH1 0x20 SWAP2 PUSH1 0x24 DUP4 DUP7 ADD SWAP2 PUSH1 0x5 SHL DUP4 ADD ADD SWAP2 CALLDATASIZE DUP4 GT PUSH2 0x321 JUMPI PUSH1 0x24 ADD SWAP1 JUMPDEST DUP3 DUP3 LT PUSH2 0x1124 JUMPI DUP6 PUSH1 0x24 CALLDATALOAD DUP7 DUP2 GT PUSH2 0x321 JUMPI PUSH2 0x54B SWAP2 PUSH2 0x1112 PUSH2 0x1118 SWAP3 CALLDATASIZE SWAP1 PUSH1 0x4 ADD PUSH2 0xD4F JUMP JUMPDEST SWAP1 PUSH2 0x24EF JUMP JUMPDEST PUSH1 0x40 MLOAD SWAP2 DUP3 SWAP2 DUP3 PUSH2 0x1070 JUMP JUMPDEST DUP4 DUP1 SWAP2 PUSH2 0x1130 DUP5 PUSH2 0x33C JUMP JUMPDEST DUP2 MSTORE ADD SWAP2 ADD SWAP1 PUSH2 0x10EB JUMP JUMPDEST PUSH1 0x60 SWAP1 PUSH1 0x3 NOT ADD SLT PUSH2 0x321 JUMPI PUSH1 0x4 CALLDATALOAD PUSH1 0x1 PUSH1 0x1 PUSH1 0xA0 SHL SUB DUP2 AND DUP2 SUB PUSH2 0x321 JUMPI SWAP1 PUSH1 0x24 CALLDATALOAD SWAP1 PUSH1 0x44 CALLDATALOAD SWAP1 JUMP JUMPDEST CALLVALUE PUSH2 0x321 JUMPI PUSH2 0x1173 CALLDATASIZE PUSH2 0x113B JUMP JUMPDEST SWAP2 PUSH2 0x117C PUSH2 0x215F JUMP JUMPDEST PUSH1 0x40 MLOAD SWAP1 PUSH2 0x1189 DUP3 PUSH2 0xCEA JUMP JUMPDEST PUSH1 0x0 DUP1 DUP4 MSTORE SWAP4 PUSH1 0x1 PUSH1 0x1 PUSH1 0xA0 SHL SUB DUP3 AND SWAP4 DUP5 ISZERO PUSH2 0x1304 JUMPI SWAP1 PUSH2 0x11C8 PUSH1 0x40 MLOAD SWAP3 PUSH1 0x1 DUP5 MSTORE PUSH1 0x20 DUP5 ADD MSTORE PUSH1 0x40 DUP4 ADD SWAP2 PUSH1 0x1 DUP4 MSTORE PUSH1 0x60 DUP5 ADD MSTORE PUSH1 0x80 DUP4 ADD PUSH1 0x40 MSTORE JUMP JUMPDEST SWAP3 PUSH2 0x11D1 PUSH2 0x2B4A JUMP JUMPDEST DUP2 MLOAD DUP5 MLOAD SWAP1 DUP2 DUP2 SUB PUSH2 0x12E2 JUMPI POP POP DUP6 JUMPDEST DUP3 MLOAD DUP2 LT ISZERO PUSH2 0x122E JUMPI DUP1 PUSH2 0x1229 SWAP2 PUSH1 0x5 SHL PUSH2 0x1222 PUSH2 0x121A DUP8 PUSH2 0x9A1 PUSH1 0x20 DUP1 DUP7 DUP12 ADD ADD MLOAD SWAP6 DUP13 ADD ADD MLOAD SWAP5 PUSH1 0x0 MSTORE PUSH1 0x0 PUSH1 0x20 MSTORE PUSH1 0x40 PUSH1 0x0 KECCAK256 SWAP1 JUMP JUMPDEST SWAP2 DUP3 SLOAD PUSH2 0x2C87 JUMP JUMPDEST SWAP1 SSTORE PUSH2 0x24B1 JUMP JUMPDEST PUSH2 0x11E1 JUMP JUMPDEST POP SWAP3 SWAP2 SWAP4 PUSH1 0x1 DUP3 MLOAD EQ PUSH1 0x0 EQ PUSH2 0x12A7 JUMPI PUSH1 0x20 DUP3 DUP2 ADD MLOAD DUP5 DUP3 ADD MLOAD PUSH1 0x40 DUP1 MLOAD SWAP3 DUP4 MSTORE SWAP3 DUP3 ADD MSTORE DUP8 SWAP2 CALLER SWAP2 PUSH32 0xC3D58168C5AE7397731D063D5BBF3D657854427343F4C083240F7AACAA2D0F62 SWAP2 SWAP1 LOG4 JUMPDEST DUP1 MLOAD PUSH1 0x1 SUB PUSH2 0x129D JUMPI SWAP1 PUSH1 0x20 DUP1 PUSH2 0x129A SWAP6 SWAP4 ADD MLOAD SWAP2 ADD MLOAD SWAP2 CALLER PUSH2 0x2888 JUMP JUMPDEST DUP1 RETURN JUMPDEST PUSH2 0x129A SWAP4 CALLER PUSH2 0x2A99 JUMP JUMPDEST DUP6 PUSH1 0x40 MLOAD PUSH32 0x4A39DC06D4C0DBC64B70AF90FD698A233A518AA5D07E595D983B8C0526C8F7FB CALLER SWAP2 DUP1 PUSH2 0x12DA DUP9 DUP9 DUP4 PUSH2 0x2C94 JUMP JUMPDEST SUB SWAP1 LOG4 PUSH2 0x127C JUMP JUMPDEST PUSH1 0x40 MLOAD PUSH4 0x5B059991 PUSH1 0xE0 SHL DUP2 MSTORE PUSH1 0x4 DUP2 ADD SWAP2 SWAP1 SWAP2 MSTORE PUSH1 0x24 DUP2 ADD SWAP2 SWAP1 SWAP2 MSTORE PUSH1 0x44 SWAP1 REVERT JUMPDEST PUSH1 0x40 MLOAD PUSH4 0x2BFA23E7 PUSH1 0xE1 SHL DUP2 MSTORE PUSH1 0x4 DUP2 ADD DUP8 SWAP1 MSTORE PUSH1 0x24 SWAP1 REVERT JUMPDEST CALLVALUE PUSH2 0x321 JUMPI PUSH1 0x0 CALLDATASIZE PUSH1 0x3 NOT ADD SLT PUSH2 0x321 JUMPI PUSH1 0x20 PUSH1 0xFF PUSH1 0x5 SLOAD AND PUSH1 0x40 MLOAD SWAP1 ISZERO ISZERO DUP2 MSTORE RETURN JUMPDEST CALLVALUE PUSH2 0x321 JUMPI PUSH1 0x40 CALLDATASIZE PUSH1 0x3 NOT ADD SLT PUSH2 0x321 JUMPI PUSH1 0x1 PUSH1 0x1 PUSH1 0xA0 SHL SUB PUSH2 0x1361 PUSH2 0x30B JUMP JUMPDEST AND PUSH1 0x0 MSTORE PUSH1 0x8 PUSH1 0x20 MSTORE PUSH1 0x40 PUSH1 0x0 KECCAK256 PUSH1 0x24 CALLDATALOAD PUSH1 0x0 MSTORE PUSH1 0x20 MSTORE PUSH1 0x20 PUSH1 0x40 PUSH1 0x0 KECCAK256 SLOAD PUSH1 0x40 MLOAD SWAP1 DUP2 MSTORE RETURN JUMPDEST CALLVALUE PUSH2 0x321 JUMPI PUSH1 0x20 PUSH2 0x13A1 PUSH2 0x139B CALLDATASIZE PUSH2 0x113B JUMP JUMPDEST SWAP2 PUSH2 0x2CCE JUMP JUMPDEST PUSH1 0x40 MLOAD SWAP1 ISZERO ISZERO DUP2 MSTORE RETURN JUMPDEST CALLVALUE PUSH2 0x321 JUMPI PUSH1 0x0 CALLDATASIZE PUSH1 0x3 NOT ADD SLT PUSH2 0x321 JUMPI PUSH2 0x13C4 PUSH2 0x220F JUMP JUMPDEST PUSH2 0x13CC PUSH2 0x2B4A JUMP JUMPDEST PUSH1 0x1 PUSH1 0xFF NOT PUSH1 0x5 SLOAD AND OR PUSH1 0x5 SSTORE PUSH32 0x62E78CEA01BEE320CD4E420270B5EA74000D11B0C9F74754EBDBFC544B05A258 PUSH1 0x20 PUSH1 0x40 MLOAD CALLER DUP2 MSTORE LOG1 STOP JUMPDEST CALLVALUE PUSH2 0x321 JUMPI PUSH1 0x0 CALLDATASIZE PUSH1 0x3 NOT ADD SLT PUSH2 0x321 JUMPI PUSH1 0x40 MLOAD PUSH32 0x0 PUSH1 0x1 PUSH1 0x1 PUSH1 0xA0 SHL SUB AND DUP2 MSTORE PUSH1 0x20 SWAP1 RETURN JUMPDEST CALLVALUE PUSH2 0x321 JUMPI PUSH1 0x40 CALLDATASIZE PUSH1 0x3 NOT ADD SLT PUSH2 0x321 JUMPI PUSH1 0x20 PUSH1 0xFF PUSH2 0x1490 PUSH2 0x146A PUSH2 0x326 JUMP JUMPDEST PUSH1 0x4 CALLDATALOAD PUSH1 0x0 MSTORE PUSH1 0x3 DUP5 MSTORE PUSH1 0x40 PUSH1 0x0 KECCAK256 SWAP1 PUSH1 0x1 DUP1 PUSH1 0xA0 SHL SUB AND PUSH1 0x0 MSTORE PUSH1 0x20 MSTORE PUSH1 0x40 PUSH1 0x0 KECCAK256 SWAP1 JUMP JUMPDEST SLOAD AND PUSH1 0x40 MLOAD SWAP1 ISZERO ISZERO DUP2 MSTORE RETURN JUMPDEST CALLVALUE PUSH2 0x321 JUMPI PUSH1 0x0 CALLDATASIZE PUSH1 0x3 NOT ADD SLT PUSH2 0x321 JUMPI PUSH1 0x5 SLOAD PUSH1 0x40 MLOAD PUSH1 0x8 SWAP2 SWAP1 SWAP2 SHR PUSH1 0x1 PUSH1 0x1 PUSH1 0xA0 SHL SUB AND DUP2 MSTORE PUSH1 0x20 SWAP1 RETURN JUMPDEST CALLVALUE PUSH2 0x321 JUMPI PUSH1 0x20 PUSH2 0x13A1 PUSH2 0x14DC CALLDATASIZE PUSH2 0x5E6 JUMP JUMPDEST SWAP3 SWAP2 SWAP1 SWAP2 PUSH2 0x2DB5 JUMP JUMPDEST CALLVALUE PUSH2 0x321 JUMPI PUSH1 0x0 CALLDATASIZE PUSH1 0x3 NOT ADD SLT PUSH2 0x321 JUMPI PUSH1 0x20 PUSH1 0x40 MLOAD PUSH1 0x0 DUP2 MSTORE RETURN JUMPDEST DUP1 ISZERO ISZERO SUB PUSH2 0x321 JUMPI JUMP JUMPDEST CALLVALUE PUSH2 0x321 JUMPI PUSH1 0x40 CALLDATASIZE PUSH1 0x3 NOT ADD SLT PUSH2 0x321 JUMPI PUSH2 0x1524 PUSH2 0x30B JUMP JUMPDEST PUSH1 0x24 CALLDATALOAD PUSH2 0x1530 DUP2 PUSH2 0x1501 JUMP JUMPDEST PUSH1 0x1 PUSH1 0x1 PUSH1 0xA0 SHL SUB DUP3 AND SWAP2 DUP3 ISZERO PUSH2 0x15AF JUMPI DUP2 PUSH2 0x156E PUSH2 0x157F SWAP3 CALLER PUSH1 0x0 MSTORE PUSH1 0x1 PUSH1 0x20 MSTORE PUSH1 0x40 PUSH1 0x0 KECCAK256 SWAP1 PUSH1 0x1 DUP1 PUSH1 0xA0 SHL SUB AND PUSH1 0x0 MSTORE PUSH1 0x20 MSTORE PUSH1 0x40 PUSH1 0x0 KECCAK256 SWAP1 JUMP JUMPDEST SWAP1 PUSH1 0xFF DUP1 NOT DUP4 SLOAD AND SWAP2 ISZERO ISZERO AND OR SWAP1 SSTORE JUMP JUMPDEST PUSH1 0x40 MLOAD SWAP1 ISZERO ISZERO DUP2 MSTORE PUSH32 0x17307EAB39AB6107E8899845AD3D59BD9653F200F220920489CA2B5937696C31 PUSH1 0x20 CALLER SWAP3 LOG3 STOP JUMPDEST PUSH1 0x40 MLOAD PUSH3 0xCED3E1 PUSH1 0xE8 SHL DUP2 MSTORE PUSH1 0x0 PUSH1 0x4 DUP3 ADD MSTORE PUSH1 0x24 SWAP1 REVERT JUMPDEST CALLVALUE PUSH2 0x321 JUMPI PUSH1 0x0 CALLDATASIZE PUSH1 0x3 NOT ADD SLT PUSH2 0x321 JUMPI PUSH1 0x20 PUSH1 0x40 MLOAD PUSH32 0xB1FADD3142AB2AD7F1337EA4D97112BCC8337FC11CE5B20CB04AD038ADF99819 DUP2 MSTORE RETURN JUMPDEST CALLVALUE PUSH2 0x321 JUMPI PUSH1 0x20 CALLDATASIZE PUSH1 0x3 NOT ADD SLT PUSH2 0x321 JUMPI PUSH1 0x24 PUSH1 0x20 PUSH2 0x161F PUSH2 0x30B JUMP JUMPDEST PUSH1 0x40 MLOAD PUSH4 0x14A5749D PUSH1 0xE3 SHL DUP2 MSTORE PUSH1 0x1 PUSH1 0x1 PUSH1 0xA0 SHL SUB SWAP2 DUP3 AND PUSH1 0x4 DUP3 ADD MSTORE SWAP3 DUP4 SWAP2 DUP3 SWAP1 PUSH32 0x0 AND GAS STATICCALL DUP1 ISZERO PUSH2 0xB4E JUMPI PUSH2 0x54B SWAP2 PUSH1 0x0 SWAP2 PUSH2 0x168A JUMPI JUMPDEST POP PUSH1 0x40 MLOAD SWAP1 ISZERO ISZERO DUP2 MSTORE SWAP1 DUP2 SWAP1 PUSH1 0x20 DUP3 ADD SWAP1 JUMP JUMPDEST PUSH2 0x16A2 SWAP2 POP PUSH1 0x20 RETURNDATASIZE DUP2 GT PUSH2 0xB47 JUMPI PUSH2 0xB38 DUP2 DUP4 PUSH2 0xD06 JUMP JUMPDEST CODESIZE PUSH2 0x1677 JUMP JUMPDEST CALLVALUE PUSH2 0x321 JUMPI PUSH1 0x20 CALLDATASIZE PUSH1 0x3 NOT ADD SLT PUSH2 0x321 JUMPI PUSH1 0x4 CALLDATALOAD PUSH1 0x0 MSTORE PUSH1 0x6 PUSH1 0x20 MSTORE PUSH1 0xC0 PUSH1 0x40 PUSH1 0x0 KECCAK256 DUP1 SLOAD SWAP1 PUSH1 0x1 DUP2 ADD SLOAD SWAP1 PUSH1 0x2 DUP2 ADD SLOAD PUSH1 0xFF PUSH1 0x3 DUP4 ADD SLOAD AND SWAP1 PUSH1 0x5 PUSH1 0x4 DUP5 ADD SLOAD SWAP4 ADD SLOAD SWAP4 PUSH1 0x40 MLOAD SWAP6 DUP7 MSTORE PUSH1 0x20 DUP7 ADD MSTORE PUSH1 0x40 DUP6 ADD MSTORE ISZERO ISZERO PUSH1 0x60 DUP5 ADD MSTORE PUSH1 0x80 DUP4 ADD MSTORE PUSH1 0xA0 DUP3 ADD MSTORE RETURN JUMPDEST CALLVALUE PUSH2 0x321 JUMPI PUSH1 0x60 CALLDATASIZE PUSH1 0x3 NOT ADD SLT PUSH2 0x321 JUMPI PUSH1 0x24 CALLDATALOAD PUSH1 0x4 CALLDATALOAD PUSH1 0x44 CALLDATALOAD PUSH2 0x1732 PUSH2 0x2267 JUMP JUMPDEST PUSH1 0x0 SWAP3 DUP3 DUP5 MSTORE PUSH1 0x6 PUSH1 0x20 MSTORE PUSH1 0x40 DUP5 KECCAK256 SLOAD PUSH2 0x17E1 JUMPI PUSH32 0xB82C0453FEACE24EE6CFE34B821E767FCC527F2DBA6C452E541F3E1EAD521F00 SWAP2 PUSH2 0x1773 DUP3 ISZERO ISZERO PUSH2 0x2EF0 JUMP JUMPDEST PUSH2 0x177E DUP2 ISZERO ISZERO PUSH2 0x2F4B JUMP JUMPDEST PUSH2 0x17C3 PUSH2 0x1789 PUSH2 0xD28 JUMP JUMPDEST DUP4 DUP2 MSTORE DUP4 PUSH1 0x20 DUP3 ADD MSTORE DUP3 PUSH1 0x40 DUP3 ADD MSTORE DUP7 PUSH1 0x60 DUP3 ADD MSTORE TIMESTAMP PUSH1 0x80 DUP3 ADD MSTORE DUP7 PUSH1 0xA0 DUP3 ADD MSTORE PUSH2 0x17BE DUP7 PUSH1 0x0 MSTORE PUSH1 0x6 PUSH1 0x20 MSTORE PUSH1 0x40 PUSH1 0x0 KECCAK256 SWAP1 JUMP JUMPDEST PUSH2 0x2FA5 JUMP JUMPDEST PUSH1 0x40 DUP1 MLOAD SWAP3 DUP4 MSTORE PUSH1 0x20 DUP4 ADD SWAP2 SWAP1 SWAP2 MSTORE TIMESTAMP SWAP1 DUP3 ADD MSTORE DUP1 PUSH1 0x60 DUP2 ADD PUSH2 0x7EA JUMP JUMPDEST PUSH1 0x40 MLOAD PUSH3 0x461BCD PUSH1 0xE5 SHL DUP2 MSTORE PUSH1 0x20 PUSH1 0x4 DUP3 ADD MSTORE PUSH1 0x1A PUSH1 0x24 DUP3 ADD MSTORE PUSH32 0x41737365742073686172657320616C7265616479206578697374000000000000 PUSH1 0x44 DUP3 ADD MSTORE PUSH1 0x64 SWAP1 REVERT JUMPDEST CALLVALUE PUSH2 0x321 JUMPI PUSH1 0x40 CALLDATASIZE PUSH1 0x3 NOT ADD SLT PUSH2 0x321 JUMPI PUSH1 0x4 CALLDATALOAD PUSH1 0x24 CALLDATALOAD PUSH2 0x1845 PUSH2 0x2ECD JUMP JUMPDEST PUSH2 0x184D PUSH2 0x2B4A JUMP JUMPDEST PUSH1 0x40 MLOAD PUSH4 0x14A5749D PUSH1 0xE3 SHL DUP2 MSTORE CALLER PUSH1 0x4 DUP3 ADD MSTORE PUSH1 0x1 PUSH1 0x1 PUSH1 0xA0 SHL SUB SWAP1 PUSH1 0x20 SWAP1 DUP2 DUP2 PUSH1 0x24 DUP2 PUSH32 0x0 DUP8 AND GAS STATICCALL DUP1 ISZERO PUSH2 0xB4E JUMPI PUSH2 0x18AE SWAP2 PUSH1 0x0 SWAP2 PUSH2 0x1A25 JUMPI JUMPDEST POP PUSH2 0x3036 JUMP JUMPDEST PUSH2 0x18C5 PUSH2 0x948 DUP6 PUSH1 0x0 MSTORE PUSH1 0x6 PUSH1 0x20 MSTORE PUSH1 0x40 PUSH1 0x0 KECCAK256 SWAP1 JUMP JUMPDEST PUSH2 0x18D0 DUP4 ISZERO ISZERO PUSH2 0x3075 JUMP JUMPDEST PUSH2 0x18F3 DUP4 PUSH1 0x1 PUSH2 0x18EA DUP8 PUSH1 0x0 MSTORE PUSH1 0x6 PUSH1 0x20 MSTORE PUSH1 0x40 PUSH1 0x0 KECCAK256 SWAP1 JUMP JUMPDEST ADD SLOAD LT ISZERO PUSH2 0x30C0 JUMP JUMPDEST PUSH1 0x2 PUSH2 0x1909 DUP6 PUSH1 0x0 MSTORE PUSH1 0x6 PUSH1 0x20 MSTORE PUSH1 0x40 PUSH1 0x0 KECCAK256 SWAP1 JUMP JUMPDEST ADD SLOAD PUSH2 0x1918 PUSH2 0xA29 DUP3 DUP7 PUSH2 0x310C JUMP JUMPDEST PUSH1 0x40 MLOAD PUSH4 0x23B872DD PUSH1 0xE0 SHL DUP2 MSTORE CALLER PUSH1 0x4 DUP3 ADD MSTORE ADDRESS PUSH1 0x24 DUP3 ADD MSTORE PUSH1 0x44 DUP2 ADD DUP3 SWAP1 MSTORE SWAP4 SWAP1 SWAP3 SWAP1 DUP2 SWAP1 DUP6 SWAP1 PUSH1 0x64 SWAP1 DUP3 SWAP1 PUSH1 0x0 SWAP1 PUSH32 0x0 AND GAS CALL DUP1 ISZERO PUSH2 0xB4E JUMPI PUSH32 0xD098AAB4683AEC3730D1B27A72FAC136F51288C5FFC2586171A08FB568A6B3A SWAP5 PUSH2 0x19A6 SWAP3 PUSH1 0x0 SWAP3 PUSH2 0xB21 JUMPI POP POP PUSH2 0x311F JUMP JUMPDEST PUSH2 0x19C2 PUSH2 0x19B2 DUP7 PUSH2 0x316F JUMP JUMPDEST PUSH2 0x19BB DUP7 PUSH2 0x316F JUMP JUMPDEST SWAP1 CALLER PUSH2 0x2B68 JUMP JUMPDEST PUSH1 0x1 PUSH2 0x19D8 DUP7 PUSH1 0x0 MSTORE PUSH1 0x6 PUSH1 0x20 MSTORE PUSH1 0x40 PUSH1 0x0 KECCAK256 SWAP1 JUMP JUMPDEST ADD PUSH2 0x19E4 DUP6 DUP3 SLOAD PUSH2 0x3162 JUMP JUMPDEST SWAP1 SSTORE CALLER PUSH1 0x0 SWAP1 DUP2 MSTORE PUSH1 0x8 PUSH1 0x20 MSTORE PUSH1 0x40 SWAP1 KECCAK256 DUP2 SWAP1 PUSH2 0x1A02 SWAP1 DUP8 SWAP1 PUSH2 0xA00 JUMP JUMPDEST SSTORE PUSH1 0x40 DUP1 MLOAD SWAP5 DUP6 MSTORE PUSH1 0x20 DUP6 ADD SWAP2 SWAP1 SWAP2 MSTORE DUP4 ADD MSTORE CALLER SWAP2 PUSH1 0x60 SWAP1 LOG3 PUSH2 0x6CC PUSH1 0x1 PUSH1 0x4 SSTORE JUMP JUMPDEST PUSH2 0x1A3C SWAP2 POP DUP4 RETURNDATASIZE DUP6 GT PUSH2 0xB47 JUMPI PUSH2 0xB38 DUP2 DUP4 PUSH2 0xD06 JUMP JUMPDEST CODESIZE PUSH2 0x18A8 JUMP JUMPDEST CALLVALUE PUSH2 0x321 JUMPI PUSH1 0x40 CALLDATASIZE PUSH1 0x3 NOT ADD SLT PUSH2 0x321 JUMPI PUSH1 0x24 CALLDATALOAD PUSH1 0x4 CALLDATALOAD PUSH2 0x1A62 DUP3 PUSH2 0x1501 JUMP JUMPDEST PUSH2 0x1A6A PUSH2 0x215F JUMP JUMPDEST PUSH32 0xB06427D72192FF6DA61BDACC300260B0DA7A3E456FEEB9C376297A9F5BEA1907 PUSH1 0x20 PUSH1 0x0 SWAP4 DUP4 DUP6 MSTORE PUSH1 0x6 DUP3 MSTORE PUSH2 0x1AA6 PUSH1 0x40 DUP7 KECCAK256 SLOAD ISZERO ISZERO PUSH2 0x2FF3 JUMP JUMPDEST DUP4 DUP6 MSTORE PUSH1 0x6 DUP3 MSTORE PUSH2 0x1AC9 DUP2 PUSH1 0x3 PUSH1 0x40 DUP9 KECCAK256 ADD SWAP1 PUSH1 0xFF DUP1 NOT DUP4 SLOAD AND SWAP2 ISZERO ISZERO AND OR SWAP1 SSTORE JUMP JUMPDEST PUSH1 0x40 MLOAD SWAP1 ISZERO ISZERO DUP2 MSTORE LOG2 DUP1 RETURN JUMPDEST CALLVALUE PUSH2 0x321 JUMPI PUSH2 0x1AE3 CALLDATASIZE PUSH2 0xE10 JUMP JUMPDEST POP POP POP POP POP PUSH1 0x20 PUSH1 0x40 MLOAD PUSH4 0xBC197C81 PUSH1 0xE0 SHL DUP2 MSTORE RETURN JUMPDEST CALLVALUE PUSH2 0x321 JUMPI PUSH2 0x1B07 CALLDATASIZE PUSH2 0x113B JUMP JUMPDEST SWAP2 PUSH2 0x1B10 PUSH2 0x20E3 JUMP JUMPDEST PUSH1 0x1 DUP1 PUSH1 0xA0 SHL SUB AND PUSH32 0x7B0C29E799ED468266B4D070C03070137A95CB869C5EB7C18063FB7B1A7A09C5 PUSH1 0x20 PUSH1 0x0 SWAP5 DUP4 DUP7 MSTORE PUSH1 0x7 DUP3 MSTORE PUSH1 0x40 DUP7 KECCAK256 DUP6 DUP8 MSTORE DUP3 MSTORE DUP1 PUSH1 0x40 DUP8 KECCAK256 SSTORE PUSH1 0x40 MLOAD SWAP1 DUP2 MSTORE LOG3 DUP1 RETURN JUMPDEST CALLVALUE PUSH2 0x321 JUMPI PUSH1 0x20 CALLDATASIZE PUSH1 0x3 NOT ADD SLT PUSH2 0x321 JUMPI PUSH1 0x4 CALLDATALOAD PUSH1 0x0 MSTORE PUSH1 0x6 PUSH1 0x20 MSTORE PUSH1 0x80 PUSH1 0x40 PUSH1 0x0 KECCAK256 DUP1 SLOAD SWAP1 PUSH1 0x1 DUP2 ADD SLOAD SWAP1 PUSH1 0xFF PUSH1 0x3 PUSH1 0x2 DUP4 ADD SLOAD SWAP3 ADD SLOAD AND SWAP2 PUSH1 0x40 MLOAD SWAP4 DUP5 MSTORE PUSH1 0x20 DUP5 ADD MSTORE PUSH1 0x40 DUP4 ADD MSTORE ISZERO ISZERO PUSH1 0x60 DUP3 ADD MSTORE RETURN JUMPDEST CALLVALUE PUSH2 0x321 JUMPI PUSH1 0xA0 CALLDATASIZE PUSH1 0x3 NOT ADD SLT PUSH2 0x321 JUMPI PUSH1 0x84 CALLDATALOAD PUSH2 0x1BCE DUP2 PUSH2 0x1501 JUMP JUMPDEST PUSH2 0x1BD6 PUSH2 0x215F JUMP JUMPDEST PUSH1 0x5 PUSH1 0x40 MLOAD SWAP2 PUSH2 0x1BE5 DUP4 PUSH2 0xCB5 JUMP JUMPDEST PUSH1 0x24 CALLDATALOAD DUP4 MSTORE PUSH1 0x20 DUP4 ADD SWAP1 PUSH1 0x44 CALLDATALOAD DUP3 MSTORE PUSH2 0x1C53 PUSH1 0x40 DUP6 ADD SWAP2 PUSH1 0x64 CALLDATALOAD DUP4 MSTORE PUSH1 0x60 DUP7 ADD SWAP1 ISZERO ISZERO DUP2 MSTORE PUSH1 0x80 DUP7 ADD SWAP3 TIMESTAMP DUP5 MSTORE PUSH1 0xA0 DUP8 ADD SWAP5 PUSH1 0x0 DUP7 MSTORE PUSH1 0x4 CALLDATALOAD PUSH1 0x0 MSTORE PUSH1 0x6 PUSH1 0x20 MSTORE PUSH1 0x40 PUSH1 0x0 KECCAK256 SWAP8 MLOAD DUP9 SSTORE MLOAD PUSH1 0x1 DUP9 ADD SSTORE MLOAD PUSH1 0x2 DUP8 ADD SSTORE MLOAD ISZERO ISZERO PUSH1 0x3 DUP7 ADD SWAP1 PUSH1 0xFF DUP1 NOT DUP4 SLOAD AND SWAP2 ISZERO ISZERO AND OR SWAP1 SSTORE JUMP JUMPDEST MLOAD PUSH1 0x4 DUP5 ADD SSTORE MLOAD SWAP2 ADD SSTORE STOP JUMPDEST CALLVALUE PUSH2 0x321 JUMPI PUSH1 0x0 PUSH1 0x40 CALLDATASIZE PUSH1 0x3 NOT ADD SLT PUSH2 0x1D04 JUMPI PUSH2 0x1C7A PUSH2 0x30B JUMP JUMPDEST DUP2 PUSH1 0x24 CALLDATALOAD SWAP2 PUSH2 0x1C88 DUP4 PUSH2 0x1501 JUMP JUMPDEST PUSH2 0x1C90 PUSH2 0x20E3 JUMP JUMPDEST PUSH1 0x1 PUSH1 0x1 PUSH1 0xA0 SHL SUB SWAP1 PUSH32 0x0 DUP3 AND SWAP1 DUP2 EXTCODESIZE ISZERO PUSH2 0x1D00 JUMPI DUP4 PUSH1 0x44 SWAP3 PUSH1 0x40 MLOAD SWAP7 DUP8 SWAP6 DUP7 SWAP5 PUSH4 0xD1A81A8D PUSH1 0xE0 SHL DUP7 MSTORE AND PUSH1 0x4 DUP6 ADD MSTORE ISZERO ISZERO PUSH1 0x24 DUP5 ADD MSTORE GAS CALL DUP1 ISZERO PUSH2 0xB4E JUMPI PUSH2 0x1CF7 JUMPI POP DUP1 RETURN JUMPDEST PUSH2 0x129A SWAP1 PUSH2 0xCD6 JUMP JUMPDEST DUP4 DUP1 REVERT JUMPDEST DUP1 REVERT JUMPDEST CALLVALUE PUSH2 0x321 JUMPI PUSH1 0x0 CALLDATASIZE PUSH1 0x3 NOT ADD SLT PUSH2 0x321 JUMPI PUSH1 0x20 PUSH1 0x40 MLOAD PUSH32 0x9F2DF0FED2C77648DE5860A4CC508CD0818C85B8B8A1AB4CEEEF8D981C8956A6 DUP2 MSTORE RETURN JUMPDEST CALLVALUE PUSH2 0x321 JUMPI PUSH1 0x40 CALLDATASIZE PUSH1 0x3 NOT ADD SLT PUSH2 0x321 JUMPI PUSH2 0x6CC PUSH1 0x4 CALLDATALOAD PUSH2 0x1D61 PUSH2 0x326 JUMP JUMPDEST SWAP1 DUP1 PUSH1 0x0 MSTORE PUSH1 0x3 PUSH1 0x20 MSTORE PUSH2 0x1D7C PUSH1 0x1 PUSH1 0x40 PUSH1 0x0 KECCAK256 ADD SLOAD PUSH2 0x22BF JUMP JUMPDEST PUSH2 0x23D7 JUMP JUMPDEST CALLVALUE PUSH2 0x321 JUMPI PUSH1 0x40 CALLDATASIZE PUSH1 0x3 NOT ADD SLT PUSH2 0x321 JUMPI PUSH2 0x1D9A PUSH2 0x30B JUMP JUMPDEST PUSH1 0x24 CALLDATALOAD SWAP1 PUSH2 0x54B PUSH1 0x0 DUP4 DUP2 MSTORE PUSH1 0x6 PUSH1 0x20 MSTORE PUSH1 0x40 DUP2 KECCAK256 SWAP1 DUP1 PUSH1 0x20 MSTORE PUSH2 0x1DD3 DUP5 PUSH1 0x40 DUP4 KECCAK256 SWAP1 PUSH1 0x1 DUP1 PUSH1 0xA0 SHL SUB AND PUSH1 0x0 MSTORE PUSH1 0x20 MSTORE PUSH1 0x40 PUSH1 0x0 KECCAK256 SWAP1 JUMP JUMPDEST SLOAD PUSH1 0x1 PUSH1 0x1 PUSH1 0xA0 SHL SUB DUP6 AND DUP3 MSTORE PUSH1 0x7 PUSH1 0x20 SWAP1 DUP2 MSTORE PUSH1 0x40 DUP1 DUP5 KECCAK256 PUSH1 0x0 DUP10 DUP2 MSTORE SWAP3 MSTORE SWAP1 KECCAK256 SLOAD SWAP1 SWAP2 DUP2 DUP4 GT ISZERO PUSH2 0x1E8D JUMPI POP PUSH2 0x1E0B DUP2 DUP4 PUSH2 0x3162 JUMP JUMPDEST SWAP2 JUMPDEST DUP4 SLOAD SWAP6 PUSH2 0x1E4B PUSH1 0x1 DUP7 ADD SLOAD SWAP9 PUSH2 0xA00 PUSH2 0x1E2F PUSH1 0x3 PUSH1 0x2 DUP11 ADD SLOAD SWAP10 ADD SLOAD PUSH1 0xFF AND SWAP1 JUMP JUMPDEST PUSH1 0x1 PUSH1 0x1 PUSH1 0xA0 SHL SUB SWAP1 SWAP5 AND PUSH1 0x0 SWAP1 DUP2 MSTORE PUSH1 0x8 PUSH1 0x20 MSTORE PUSH1 0x40 SWAP1 KECCAK256 SWAP1 JUMP JUMPDEST SLOAD SWAP5 PUSH1 0x40 MLOAD SWAP9 DUP10 SWAP9 DUP10 SWAP5 SWAP2 SWAP3 PUSH1 0xE0 SWAP7 SWAP4 SWAP10 SWAP9 SWAP8 SWAP5 SWAP2 SWAP10 PUSH2 0x100 DUP8 ADD SWAP11 DUP8 MSTORE PUSH1 0x20 DUP8 ADD MSTORE PUSH1 0x40 DUP7 ADD MSTORE ISZERO ISZERO PUSH1 0x60 DUP6 ADD MSTORE PUSH1 0x80 DUP5 ADD MSTORE PUSH1 0xA0 DUP4 ADD MSTORE PUSH1 0xC0 DUP3 ADD MSTORE ADD MSTORE JUMP JUMPDEST SWAP2 PUSH2 0x1E0D JUMP JUMPDEST CALLVALUE PUSH2 0x321 JUMPI PUSH1 0x0 CALLDATASIZE PUSH1 0x3 NOT ADD SLT PUSH2 0x321 JUMPI PUSH1 0x20 PUSH1 0x40 MLOAD PUSH32 0x65D7A28E3265B37A6474929F336521B332C1681B933F6CB9F3376673440D862A DUP2 MSTORE RETURN JUMPDEST CALLVALUE PUSH2 0x321 JUMPI PUSH1 0x40 CALLDATASIZE PUSH1 0x3 NOT ADD SLT PUSH2 0x321 JUMPI PUSH1 0x20 PUSH1 0xFF PUSH2 0x1490 PUSH2 0x1EEE PUSH2 0x30B JUMP JUMPDEST PUSH2 0x1EF6 PUSH2 0x326 JUMP JUMPDEST PUSH1 0x1 PUSH1 0x1 PUSH1 0xA0 SHL SUB SWAP2 DUP3 AND PUSH1 0x0 SWAP1 DUP2 MSTORE PUSH1 0x1 DUP7 MSTORE PUSH1 0x40 DUP1 DUP3 KECCAK256 SWAP3 SWAP1 SWAP4 AND DUP2 MSTORE PUSH1 0x20 SWAP2 SWAP1 SWAP2 MSTORE KECCAK256 SWAP1 JUMP JUMPDEST PUSH1 0xA0 PUSH1 0x3 NOT DUP3 ADD SLT PUSH2 0x321 JUMPI PUSH1 0x1 PUSH1 0x1 PUSH1 0xA0 SHL SUB SWAP2 PUSH1 0x4 CALLDATALOAD DUP4 DUP2 AND DUP2 SUB PUSH2 0x321 JUMPI SWAP3 PUSH1 0x24 CALLDATALOAD SWAP1 DUP2 AND DUP2 SUB PUSH2 0x321 JUMPI SWAP2 PUSH1 0x44 CALLDATALOAD SWAP2 PUSH1 0x64 CALLDATALOAD SWAP2 PUSH1 0x84 CALLDATALOAD SWAP1 PUSH8 0xFFFFFFFFFFFFFFFF DUP3 GT PUSH2 0x321 JUMPI PUSH2 0x4DD SWAP2 PUSH1 0x4 ADD PUSH2 0xDC9 JUMP JUMPDEST CALLVALUE PUSH2 0x321 JUMPI PUSH2 0x1F83 CALLDATASIZE PUSH2 0x1F1F JUMP JUMPDEST POP POP POP POP POP PUSH1 0x20 PUSH1 0x40 MLOAD PUSH4 0xF23A6E61 PUSH1 0xE0 SHL DUP2 MSTORE RETURN JUMPDEST CALLVALUE PUSH2 0x321 JUMPI PUSH2 0x1FA7 CALLDATASIZE PUSH2 0x1F1F JUMP JUMPDEST SWAP3 SWAP1 SWAP2 SWAP1 PUSH1 0x1 PUSH1 0x1 PUSH1 0xA0 SHL SUB DUP6 AND CALLER DUP2 EQ ISZERO SWAP1 DUP2 PUSH2 0x1FF5 JUMPI JUMPDEST POP PUSH2 0x1FCE JUMPI PUSH2 0x6CC SWAP5 PUSH2 0x256E JUMP JUMPDEST PUSH1 0x40 MLOAD PUSH4 0x711BEC91 PUSH1 0xE1 SHL DUP2 MSTORE CALLER PUSH1 0x4 DUP3 ADD MSTORE PUSH1 0x1 PUSH1 0x1 PUSH1 0xA0 SHL SUB DUP7 AND PUSH1 0x24 DUP3 ADD MSTORE PUSH1 0x44 SWAP1 REVERT JUMPDEST PUSH1 0x0 SWAP1 DUP2 MSTORE PUSH1 0x1 PUSH1 0x20 SWAP1 DUP2 MSTORE PUSH1 0x40 DUP1 DUP4 KECCAK256 CALLER DUP5 MSTORE SWAP1 SWAP2 MSTORE SWAP1 KECCAK256 PUSH1 0xFF SWAP2 POP SLOAD AND ISZERO CODESIZE PUSH2 0x1FC0 JUMP JUMPDEST CALLVALUE PUSH2 0x321 JUMPI PUSH1 0x0 CALLDATASIZE PUSH1 0x3 NOT ADD SLT PUSH2 0x321 JUMPI PUSH1 0x40 MLOAD PUSH32 0x0 PUSH1 0x1 PUSH1 0x1 PUSH1 0xA0 SHL SUB AND DUP2 MSTORE PUSH1 0x20 SWAP1 RETURN JUMPDEST CALLVALUE PUSH2 0x321 JUMPI PUSH2 0x206E CALLDATASIZE PUSH2 0x113B JUMP JUMPDEST SWAP1 PUSH2 0x2077 PUSH2 0x215F JUMP JUMPDEST PUSH1 0x0 SWAP3 PUSH1 0x1 DUP1 PUSH1 0xA0 SHL SUB AND DUP4 MSTORE PUSH1 0x8 PUSH1 0x20 MSTORE PUSH1 0x40 DUP4 KECCAK256 SWAP1 DUP4 MSTORE PUSH1 0x20 MSTORE PUSH1 0x40 DUP3 KECCAK256 SSTORE DUP1 RETURN JUMPDEST CALLVALUE PUSH2 0x321 JUMPI PUSH1 0x40 CALLDATASIZE PUSH1 0x3 NOT ADD SLT PUSH2 0x321 JUMPI PUSH1 0x1 PUSH1 0x1 PUSH1 0xA0 SHL SUB PUSH2 0x20BC PUSH2 0x30B JUMP JUMPDEST AND PUSH1 0x0 MSTORE PUSH1 0x7 PUSH1 0x20 MSTORE PUSH1 0x40 PUSH1 0x0 KECCAK256 PUSH1 0x24 CALLDATALOAD PUSH1 0x0 MSTORE PUSH1 0x20 MSTORE PUSH1 0x20 PUSH1 0x40 PUSH1 0x0 KECCAK256 SLOAD PUSH1 0x40 MLOAD SWAP1 DUP2 MSTORE RETURN JUMPDEST CALLER PUSH1 0x0 SWAP1 DUP2 MSTORE PUSH32 0xFCA98A0144180C5FF9CC8EB43249FF58E5A9EDC28CCC383A25775F69580ACD20 PUSH1 0x20 MSTORE PUSH1 0x40 SWAP1 KECCAK256 PUSH32 0xB6F0283BD1ED00C6AA7E988A7516070240F3610A34D167391359B648EB37CEFC SWAP1 PUSH1 0xFF SWAP1 JUMPDEST SLOAD AND ISZERO PUSH2 0x2141 JUMPI POP JUMP JUMPDEST PUSH1 0x44 SWAP1 PUSH1 0x40 MLOAD SWAP1 PUSH4 0xE2517D3F PUSH1 0xE0 SHL DUP3 MSTORE CALLER PUSH1 0x4 DUP4 ADD MSTORE PUSH1 0x24 DUP3 ADD MSTORE REVERT JUMPDEST CALLER PUSH1 0x0 SWAP1 DUP2 MSTORE PUSH32 0xD4F4AE7E0F1D6EF3E8290F298FBE252931B59DD183524E1AF76274726DA1E663 PUSH1 0x20 MSTORE PUSH1 0x40 SWAP1 KECCAK256 PUSH32 0xB1FADD3142AB2AD7F1337EA4D97112BCC8337FC11CE5B20CB04AD038ADF99819 SWAP1 PUSH1 0xFF SWAP1 PUSH2 0x2137 JUMP JUMPDEST CALLER PUSH1 0x0 SWAP1 DUP2 MSTORE PUSH32 0x3617319A054D772F909F7C479A2CEBE5066E836A939412E32403C99029B92EFF PUSH1 0x20 MSTORE PUSH1 0x40 SWAP1 KECCAK256 SLOAD PUSH1 0xFF AND ISZERO PUSH2 0x21F0 JUMPI JUMP JUMPDEST PUSH1 0x40 MLOAD PUSH4 0xE2517D3F PUSH1 0xE0 SHL DUP2 MSTORE CALLER PUSH1 0x4 DUP3 ADD MSTORE PUSH1 0x0 PUSH1 0x24 DUP3 ADD MSTORE PUSH1 0x44 SWAP1 REVERT JUMPDEST CALLER PUSH1 0x0 SWAP1 DUP2 MSTORE PUSH32 0x30ADEB818EF77F204F5A603C30FA5332397B6E28FB3B7F9D937AE6A6914716DE PUSH1 0x20 MSTORE PUSH1 0x40 SWAP1 KECCAK256 PUSH32 0x65D7A28E3265B37A6474929F336521B332C1681B933F6CB9F3376673440D862A SWAP1 PUSH1 0xFF SWAP1 PUSH2 0x2137 JUMP JUMPDEST CALLER PUSH1 0x0 SWAP1 DUP2 MSTORE PUSH32 0x5562E70DA342DB81569F3094D36BE279BEACA7AD8E08F434EA188E79D2BFE10C PUSH1 0x20 MSTORE PUSH1 0x40 SWAP1 KECCAK256 PUSH32 0x9F2DF0FED2C77648DE5860A4CC508CD0818C85B8B8A1AB4CEEEF8D981C8956A6 SWAP1 PUSH1 0xFF SWAP1 PUSH2 0x2137 JUMP JUMPDEST PUSH1 0x0 DUP2 DUP2 MSTORE PUSH1 0x3 PUSH1 0x20 SWAP1 DUP2 MSTORE PUSH1 0x40 DUP1 DUP4 KECCAK256 CALLER DUP5 MSTORE SWAP1 SWAP2 MSTORE SWAP1 KECCAK256 PUSH1 0xFF SWAP1 PUSH2 0x2137 JUMP JUMPDEST PUSH1 0x1 PUSH1 0x1 PUSH1 0xA0 SHL SUB DUP2 AND PUSH1 0x0 SWAP1 DUP2 MSTORE PUSH32 0x30ADEB818EF77F204F5A603C30FA5332397B6E28FB3B7F9D937AE6A6914716DE PUSH1 0x20 MSTORE PUSH1 0x40 DUP2 KECCAK256 PUSH32 0x65D7A28E3265B37A6474929F336521B332C1681B933F6CB9F3376673440D862A SWAP1 PUSH1 0xFF SWAP1 JUMPDEST SLOAD AND PUSH2 0x23A5 JUMPI DUP1 DUP3 MSTORE PUSH1 0x3 PUSH1 0x20 SWAP1 DUP2 MSTORE PUSH1 0x40 DUP1 DUP5 KECCAK256 PUSH1 0x1 PUSH1 0x1 PUSH1 0xA0 SHL SUB DUP7 AND PUSH1 0x0 SWAP1 DUP2 MSTORE SWAP3 MSTORE SWAP1 KECCAK256 DUP1 SLOAD PUSH1 0xFF NOT AND PUSH1 0x1 OR SWAP1 SSTORE CALLER SWAP3 PUSH1 0x1 PUSH1 0x1 PUSH1 0xA0 SHL SUB AND SWAP2 PUSH32 0x2F8788117E7EFF1D82E926EC794901D17C78024A50270940304540A733656F0D SWAP1 DUP1 LOG4 PUSH1 0x1 SWAP1 JUMP JUMPDEST POP SWAP1 POP SWAP1 JUMP JUMPDEST PUSH1 0x0 SWAP1 DUP1 DUP3 MSTORE PUSH1 0x3 PUSH1 0x20 MSTORE PUSH1 0xFF PUSH2 0x233D DUP5 PUSH1 0x40 DUP6 KECCAK256 SWAP1 PUSH1 0x1 DUP1 PUSH1 0xA0 SHL SUB AND PUSH1 0x0 MSTORE PUSH1 0x20 MSTORE PUSH1 0x40 PUSH1 0x0 KECCAK256 SWAP1 JUMP JUMPDEST PUSH1 0x0 SWAP1 DUP1 DUP3 MSTORE PUSH1 0x3 PUSH1 0x20 MSTORE PUSH1 0xFF PUSH2 0x2403 DUP5 PUSH1 0x40 DUP6 KECCAK256 SWAP1 PUSH1 0x1 DUP1 PUSH1 0xA0 SHL SUB AND PUSH1 0x0 MSTORE PUSH1 0x20 MSTORE PUSH1 0x40 PUSH1 0x0 KECCAK256 SWAP1 JUMP JUMPDEST SLOAD AND ISZERO PUSH2 0x23A5 JUMPI DUP1 DUP3 MSTORE PUSH1 0x3 PUSH1 0x20 SWAP1 DUP2 MSTORE PUSH1 0x40 DUP1 DUP5 KECCAK256 PUSH1 0x1 PUSH1 0x1 PUSH1 0xA0 SHL SUB DUP7 AND PUSH1 0x0 SWAP1 DUP2 MSTORE SWAP3 MSTORE SWAP1 KECCAK256 DUP1 SLOAD PUSH1 0xFF NOT AND SWAP1 SSTORE CALLER SWAP3 PUSH1 0x1 PUSH1 0x1 PUSH1 0xA0 SHL SUB AND SWAP2 PUSH32 0xF6391F5C32D9C69D2A47EA670B442974B53935D1EDC7FD64EB21E047A839171B SWAP1 DUP1 LOG4 PUSH1 0x1 SWAP1 JUMP JUMPDEST SWAP1 PUSH2 0x2473 DUP3 PUSH2 0xD37 JUMP JUMPDEST PUSH2 0x2480 PUSH1 0x40 MLOAD SWAP2 DUP3 PUSH2 0xD06 JUMP JUMPDEST DUP3 DUP2 MSTORE DUP1 SWAP3 PUSH2 0x2491 PUSH1 0x1F NOT SWAP2 PUSH2 0xD37 JUMP JUMPDEST ADD SWAP1 PUSH1 0x20 CALLDATASIZE SWAP2 ADD CALLDATACOPY JUMP JUMPDEST PUSH4 0x4E487B71 PUSH1 0xE0 SHL PUSH1 0x0 MSTORE PUSH1 0x11 PUSH1 0x4 MSTORE PUSH1 0x24 PUSH1 0x0 REVERT JUMPDEST PUSH1 0x0 NOT DUP2 EQ PUSH2 0x24C0 JUMPI PUSH1 0x1 ADD SWAP1 JUMP JUMPDEST PUSH2 0x249B JUMP JUMPDEST DUP1 MLOAD DUP3 LT ISZERO PUSH2 0x24D9 JUMPI PUSH1 0x20 SWAP2 PUSH1 0x5 SHL ADD ADD SWAP1 JUMP JUMPDEST PUSH4 0x4E487B71 PUSH1 0xE0 SHL PUSH1 0x0 MSTORE PUSH1 0x32 PUSH1 0x4 MSTORE PUSH1 0x24 PUSH1 0x0 REVERT JUMPDEST SWAP2 SWAP1 SWAP2 DUP1 MLOAD DUP4 MLOAD DUP1 DUP3 SUB PUSH2 0x12E2 JUMPI POP POP PUSH2 0x2509 DUP2 MLOAD PUSH2 0x2469 JUMP JUMPDEST SWAP1 PUSH1 0x0 SWAP1 DUP2 JUMPDEST DUP2 MLOAD DUP2 LT ISZERO PUSH2 0x2566 JUMPI DUP1 PUSH2 0x2550 PUSH2 0x2561 SWAP3 PUSH1 0x5 SHL DUP6 PUSH1 0x20 DUP1 DUP1 DUP5 DUP10 ADD ADD MLOAD SWAP4 DUP13 ADD ADD MLOAD DUP3 MSTORE MSTORE PUSH1 0x40 DUP7 KECCAK256 SWAP1 PUSH1 0x1 DUP1 PUSH1 0xA0 SHL SUB AND PUSH1 0x0 MSTORE PUSH1 0x20 MSTORE PUSH1 0x40 PUSH1 0x0 KECCAK256 SWAP1 JUMP JUMPDEST SLOAD PUSH2 0x255B DUP3 DUP8 PUSH2 0x24C5 JUMP JUMPDEST MSTORE PUSH2 0x24B1 JUMP JUMPDEST PUSH2 0x250F JUMP JUMPDEST POP SWAP2 SWAP4 POP POP POP JUMP JUMPDEST SWAP3 SWAP4 SWAP3 SWAP1 SWAP2 PUSH1 0x1 PUSH1 0x1 PUSH1 0xA0 SHL SUB DUP1 DUP5 AND ISZERO PUSH2 0xEE8 JUMPI DUP3 AND ISZERO PUSH2 0xED0 JUMPI PUSH2 0xD35 SWAP5 PUSH2 0x25B5 PUSH1 0x40 MLOAD SWAP3 PUSH1 0x1 DUP5 MSTORE PUSH1 0x20 DUP5 ADD MSTORE PUSH1 0x40 DUP4 ADD SWAP2 PUSH1 0x1 DUP4 MSTORE PUSH1 0x60 DUP5 ADD MSTORE PUSH1 0x80 DUP4 ADD PUSH1 0x40 MSTORE JUMP JUMPDEST SWAP3 SWAP1 SWAP2 JUMPDEST SWAP5 SWAP2 SWAP1 SWAP2 PUSH2 0x25C5 PUSH2 0x2B4A JUMP JUMPDEST DUP2 MLOAD DUP5 MLOAD SWAP1 DUP2 DUP2 SUB PUSH2 0x12E2 JUMPI POP POP PUSH1 0x0 JUMPDEST DUP3 MLOAD DUP2 LT ISZERO PUSH2 0x26CA JUMPI PUSH1 0x5 DUP2 SWAP1 SHL DUP4 DUP2 ADD PUSH1 0x20 SWAP1 DUP2 ADD MLOAD SWAP2 DUP8 ADD ADD MLOAD PUSH1 0x1 PUSH1 0x1 PUSH1 0xA0 SHL SUB SWAP3 SWAP2 DUP7 SWAP1 DUP11 DUP6 AND PUSH2 0x2643 JUMPI JUMPDEST PUSH2 0x2619 SWAP5 DUP3 AND PUSH2 0x261E JUMPI JUMPDEST POP POP POP PUSH2 0x24B1 JUMP JUMPDEST PUSH2 0x25D6 JUMP JUMPDEST PUSH2 0x2639 SWAP2 PUSH2 0x9A1 PUSH2 0x121A SWAP3 PUSH1 0x0 MSTORE PUSH1 0x0 PUSH1 0x20 MSTORE PUSH1 0x40 PUSH1 0x0 KECCAK256 SWAP1 JUMP JUMPDEST SWAP1 SSTORE CODESIZE DUP6 DUP2 PUSH2 0x2611 JUMP JUMPDEST SWAP2 SWAP3 SWAP4 SWAP1 POP PUSH2 0x2660 DUP11 PUSH2 0x9A1 DUP5 PUSH1 0x0 MSTORE PUSH1 0x0 PUSH1 0x20 MSTORE PUSH1 0x40 PUSH1 0x0 KECCAK256 SWAP1 JUMP JUMPDEST SLOAD DUP4 DUP2 LT PUSH2 0x2693 JUMPI SWAP2 DUP8 SWAP2 DUP5 PUSH2 0x2619 SWAP7 SWAP6 SWAP5 SUB PUSH2 0x268B DUP14 PUSH2 0x9A1 DUP6 PUSH1 0x0 MSTORE PUSH1 0x0 PUSH1 0x20 MSTORE PUSH1 0x40 PUSH1 0x0 KECCAK256 SWAP1 JUMP JUMPDEST SSTORE SWAP5 POP PUSH2 0x2606 JUMP JUMPDEST PUSH1 0x40 MLOAD PUSH4 0x3DEE4C5 PUSH1 0xE0 SHL DUP2 MSTORE PUSH1 0x1 PUSH1 0x1 PUSH1 0xA0 SHL SUB DUP13 AND PUSH1 0x4 DUP3 ADD MSTORE PUSH1 0x24 DUP2 ADD SWAP2 SWAP1 SWAP2 MSTORE PUSH1 0x44 DUP2 ADD DUP5 SWAP1 MSTORE PUSH1 0x64 DUP2 ADD DUP4 SWAP1 MSTORE PUSH1 0x84 SWAP1 REVERT JUMPDEST POP SWAP5 SWAP2 SWAP4 SWAP3 SWAP1 SWAP4 PUSH1 0x1 DUP6 MLOAD EQ PUSH1 0x0 EQ PUSH2 0x2775 JUMPI PUSH1 0x20 DUP6 DUP2 ADD MLOAD DUP4 DUP3 ADD MLOAD PUSH1 0x40 DUP1 MLOAD SWAP3 DUP4 MSTORE SWAP3 DUP3 ADD MSTORE PUSH1 0x1 PUSH1 0x1 PUSH1 0xA0 SHL SUB DUP4 DUP2 AND SWAP3 SWAP1 DUP7 AND SWAP2 CALLER SWAP2 PUSH32 0xC3D58168C5AE7397731D063D5BBF3D657854427343F4C083240F7AACAA2D0F62 SWAP2 LOG4 JUMPDEST PUSH1 0x1 PUSH1 0x1 PUSH1 0xA0 SHL SUB DUP2 AND PUSH2 0x273E JUMPI JUMPDEST POP POP POP POP POP JUMP JUMPDEST DUP5 MLOAD PUSH1 0x1 SUB PUSH2 0x2764 JUMPI PUSH1 0x20 DUP1 PUSH2 0x275A SWAP7 ADD MLOAD SWAP3 ADD MLOAD SWAP3 CALLER PUSH2 0x2982 JUMP JUMPDEST CODESIZE DUP1 DUP1 DUP1 DUP1 PUSH2 0x2737 JUMP JUMPDEST PUSH2 0x2770 SWAP5 SWAP2 SWAP3 CALLER PUSH2 0x2ACE JUMP JUMPDEST PUSH2 0x275A JUMP JUMPDEST PUSH1 0x40 MLOAD PUSH1 0x1 PUSH1 0x1 PUSH1 0xA0 SHL SUB DUP3 DUP2 AND SWAP2 SWAP1 DUP6 AND SWAP1 CALLER SWAP1 PUSH32 0x4A39DC06D4C0DBC64B70AF90FD698A233A518AA5D07E595D983B8C0526C8F7FB SWAP1 DUP1 PUSH2 0x27B8 DUP9 DUP13 DUP4 PUSH2 0x2C94 JUMP JUMPDEST SUB SWAP1 LOG4 PUSH2 0x2728 JUMP JUMPDEST SWAP1 DUP2 PUSH1 0x20 SWAP2 SUB SLT PUSH2 0x321 JUMPI MLOAD PUSH2 0x4DD DUP2 PUSH2 0x39D JUMP JUMPDEST SWAP1 SWAP3 PUSH1 0xA0 SWAP3 PUSH2 0x4DD SWAP6 SWAP5 PUSH1 0x1 DUP1 DUP7 SHL SUB AND DUP4 MSTORE PUSH1 0x0 PUSH1 0x20 DUP5 ADD MSTORE PUSH1 0x40 DUP4 ADD MSTORE PUSH1 0x60 DUP3 ADD MSTORE DUP2 PUSH1 0x80 DUP3 ADD MSTORE ADD SWAP1 PUSH2 0x48C JUMP JUMPDEST SWAP2 SWAP3 PUSH2 0x4DD SWAP6 SWAP5 SWAP2 PUSH1 0xA0 SWAP5 PUSH1 0x1 DUP1 DUP8 SHL SUB DUP1 SWAP3 AND DUP6 MSTORE AND PUSH1 0x20 DUP5 ADD MSTORE PUSH1 0x40 DUP4 ADD MSTORE PUSH1 0x60 DUP3 ADD MSTORE DUP2 PUSH1 0x80 DUP3 ADD MSTORE ADD SWAP1 PUSH2 0x48C JUMP JUMPDEST PUSH1 0x40 MLOAD RETURNDATASIZE PUSH1 0x0 DUP3 RETURNDATACOPY RETURNDATASIZE SWAP1 REVERT JUMPDEST PUSH1 0x40 MLOAD SWAP1 PUSH2 0x2852 DUP3 PUSH2 0xCEA JUMP JUMPDEST PUSH1 0x0 DUP3 MSTORE JUMP JUMPDEST RETURNDATASIZE ISZERO PUSH2 0x2883 JUMPI RETURNDATASIZE SWAP1 PUSH2 0x2869 DUP3 PUSH2 0xDAD JUMP JUMPDEST SWAP2 PUSH2 0x2877 PUSH1 0x40 MLOAD SWAP4 DUP5 PUSH2 0xD06 JUMP JUMPDEST DUP3 MSTORE RETURNDATASIZE PUSH1 0x0 PUSH1 0x20 DUP5 ADD RETURNDATACOPY JUMP JUMPDEST PUSH1 0x60 SWAP1 JUMP JUMPDEST SWAP3 SWAP4 SWAP2 SWAP1 SWAP4 DUP5 EXTCODESIZE PUSH2 0x289A JUMPI POP POP POP POP POP JUMP JUMPDEST PUSH1 0x20 SWAP2 PUSH2 0x28BD PUSH1 0x40 MLOAD SWAP5 DUP6 SWAP4 DUP5 SWAP4 PUSH4 0xF23A6E61 PUSH1 0xE0 SHL SWAP9 DUP10 DUP7 MSTORE PUSH1 0x4 DUP7 ADD PUSH2 0x27D5 JUMP JUMPDEST SUB DUP2 PUSH1 0x0 PUSH1 0x1 PUSH1 0x1 PUSH1 0xA0 SHL SUB DUP9 AND GAS CALL PUSH1 0x0 SWAP2 DUP2 PUSH2 0x2952 JUMPI JUMPDEST POP PUSH2 0x2915 JUMPI DUP3 PUSH2 0x28E4 PUSH2 0x2858 JUMP JUMPDEST DUP1 MLOAD SWAP2 SWAP1 DUP3 PUSH2 0x290E JUMPI PUSH1 0x40 MLOAD PUSH4 0x2BFA23E7 PUSH1 0xE1 SHL DUP2 MSTORE PUSH1 0x1 PUSH1 0x1 PUSH1 0xA0 SHL SUB DUP4 AND PUSH1 0x4 DUP3 ADD MSTORE PUSH1 0x24 SWAP1 REVERT JUMPDEST PUSH1 0x20 SWAP2 POP ADD REVERT JUMPDEST PUSH1 0x1 PUSH1 0x1 PUSH1 0xE0 SHL SUB NOT AND SUB PUSH2 0x292F JUMPI POP CODESIZE DUP1 DUP1 DUP1 DUP1 PUSH2 0x2737 JUMP JUMPDEST PUSH1 0x40 MLOAD PUSH4 0x2BFA23E7 PUSH1 0xE1 SHL DUP2 MSTORE PUSH1 0x1 PUSH1 0x1 PUSH1 0xA0 SHL SUB SWAP2 SWAP1 SWAP2 AND PUSH1 0x4 DUP3 ADD MSTORE PUSH1 0x24 SWAP1 REVERT JUMPDEST PUSH2 0x2974 SWAP2 SWAP3 POP PUSH1 0x20 RETURNDATASIZE DUP2 GT PUSH2 0x297B JUMPI JUMPDEST PUSH2 0x296C DUP2 DUP4 PUSH2 0xD06 JUMP JUMPDEST DUP2 ADD SWAP1 PUSH2 0x27C0 JUMP JUMPDEST SWAP1 CODESIZE PUSH2 0x28D6 JUMP JUMPDEST POP RETURNDATASIZE PUSH2 0x2962 JUMP JUMPDEST SWAP4 SWAP3 SWAP1 SWAP5 SWAP2 SWAP5 DUP6 EXTCODESIZE PUSH2 0x2997 JUMPI JUMPDEST POP POP POP POP POP POP JUMP JUMPDEST PUSH2 0x29BA PUSH1 0x20 SWAP4 PUSH1 0x40 MLOAD SWAP6 DUP7 SWAP5 DUP6 SWAP5 PUSH4 0xF23A6E61 PUSH1 0xE0 SHL SWAP10 DUP11 DUP8 MSTORE PUSH1 0x4 DUP8 ADD PUSH2 0x2806 JUMP JUMPDEST SUB DUP2 PUSH1 0x0 PUSH1 0x1 PUSH1 0x1 PUSH1 0xA0 SHL SUB DUP9 AND GAS CALL PUSH1 0x0 SWAP2 DUP2 PUSH2 0x29FC JUMPI JUMPDEST POP PUSH2 0x29E1 JUMPI DUP3 PUSH2 0x28E4 PUSH2 0x2858 JUMP JUMPDEST PUSH1 0x1 PUSH1 0x1 PUSH1 0xE0 SHL SUB NOT AND SUB PUSH2 0x292F JUMPI POP CODESIZE DUP1 DUP1 DUP1 DUP1 DUP1 PUSH2 0x298F JUMP JUMPDEST PUSH2 0x2A15 SWAP2 SWAP3 POP PUSH1 0x20 RETURNDATASIZE DUP2 GT PUSH2 0x297B JUMPI PUSH2 0x296C DUP2 DUP4 PUSH2 0xD06 JUMP JUMPDEST SWAP1 CODESIZE PUSH2 0x29D3 JUMP JUMPDEST SWAP3 PUSH2 0x2A4B PUSH2 0x4DD SWAP6 SWAP4 PUSH2 0x2A59 SWAP4 PUSH1 0x1 DUP1 PUSH1 0xA0 SHL SUB AND DUP7 MSTORE PUSH1 0x0 PUSH1 0x20 DUP8 ADD MSTORE PUSH1 0xA0 PUSH1 0x40 DUP8 ADD MSTORE PUSH1 0xA0 DUP7 ADD SWAP1 PUSH2 0x103C JUMP JUMPDEST SWAP1 DUP5 DUP3 SUB PUSH1 0x60 DUP7 ADD MSTORE PUSH2 0x103C JUMP JUMPDEST SWAP2 PUSH1 0x80 DUP2 DUP5 SUB SWAP2 ADD MSTORE PUSH2 0x48C JUMP JUMPDEST SWAP4 SWAP1 PUSH2 0x4DD SWAP6 SWAP4 PUSH2 0x2A4B SWAP2 PUSH2 0x2A59 SWAP5 PUSH1 0x1 DUP1 PUSH1 0xA0 SHL SUB DUP1 SWAP3 AND DUP9 MSTORE AND PUSH1 0x20 DUP8 ADD MSTORE PUSH1 0xA0 PUSH1 0x40 DUP8 ADD MSTORE PUSH1 0xA0 DUP7 ADD SWAP1 PUSH2 0x103C JUMP JUMPDEST SWAP3 SWAP4 SWAP2 SWAP1 SWAP4 DUP5 EXTCODESIZE PUSH2 0x2AAB JUMPI POP POP POP POP POP JUMP JUMPDEST PUSH1 0x20 SWAP2 PUSH2 0x28BD PUSH1 0x40 MLOAD SWAP5 DUP6 SWAP4 DUP5 SWAP4 PUSH4 0xBC197C81 PUSH1 0xE0 SHL SWAP9 DUP10 DUP7 MSTORE PUSH1 0x4 DUP7 ADD PUSH2 0x2A1C JUMP JUMPDEST SWAP4 SWAP3 SWAP1 SWAP5 SWAP2 SWAP5 DUP6 EXTCODESIZE PUSH2 0x2AE2 JUMPI POP POP POP POP POP POP JUMP JUMPDEST PUSH2 0x29BA PUSH1 0x20 SWAP4 PUSH1 0x40 MLOAD SWAP6 DUP7 SWAP5 DUP6 SWAP5 PUSH4 0xBC197C81 PUSH1 0xE0 SHL SWAP10 DUP11 DUP8 MSTORE PUSH1 0x4 DUP8 ADD PUSH2 0x2A67 JUMP JUMPDEST ISZERO PUSH2 0x2B0C JUMPI JUMP JUMPDEST PUSH1 0x40 MLOAD PUSH3 0x461BCD PUSH1 0xE5 SHL DUP2 MSTORE PUSH1 0x20 PUSH1 0x4 DUP3 ADD MSTORE PUSH1 0x16 PUSH1 0x24 DUP3 ADD MSTORE PUSH22 0x496E76616C6964207061757365722061646472657373 PUSH1 0x50 SHL PUSH1 0x44 DUP3 ADD MSTORE PUSH1 0x64 SWAP1 REVERT JUMPDEST PUSH1 0xFF PUSH1 0x5 SLOAD AND PUSH2 0x2B56 JUMPI JUMP JUMPDEST PUSH1 0x40 MLOAD PUSH4 0xD93C0665 PUSH1 0xE0 SHL DUP2 MSTORE PUSH1 0x4 SWAP1 REVERT JUMPDEST SWAP2 SWAP1 SWAP2 PUSH2 0x2B73 PUSH2 0x2B4A JUMP JUMPDEST DUP3 MLOAD DUP3 MLOAD SWAP1 DUP2 DUP2 SUB PUSH2 0x12E2 JUMPI POP POP PUSH1 0x0 JUMPDEST DUP4 MLOAD DUP2 LT ISZERO PUSH2 0x2BE7 JUMPI PUSH1 0x5 DUP2 SWAP1 SHL DUP5 DUP2 ADD PUSH1 0x20 SWAP1 DUP2 ADD MLOAD SWAP2 DUP6 ADD ADD MLOAD PUSH2 0x2BBD SWAP3 SWAP2 DUP5 SWAP1 PUSH1 0x1 PUSH1 0x1 PUSH1 0xA0 SHL SUB DUP3 AND PUSH2 0x2BC2 JUMPI POP POP POP PUSH2 0x24B1 JUMP JUMPDEST PUSH2 0x2B84 JUMP JUMPDEST PUSH2 0x2BDD SWAP2 PUSH2 0x9A1 PUSH2 0x121A SWAP3 PUSH1 0x0 MSTORE PUSH1 0x0 PUSH1 0x20 MSTORE PUSH1 0x40 PUSH1 0x0 KECCAK256 SWAP1 JUMP JUMPDEST SWAP1 SSTORE CODESIZE DUP4 DUP2 PUSH2 0x2611 JUMP JUMPDEST POP SWAP2 PUSH1 0x1 DUP2 MLOAD EQ PUSH1 0x0 EQ PUSH2 0x2C48 JUMPI PUSH1 0x20 SWAP1 DUP2 ADD MLOAD SWAP2 DUP2 ADD MLOAD PUSH1 0x40 DUP1 MLOAD SWAP4 DUP5 MSTORE SWAP2 DUP4 ADD MSTORE PUSH1 0x1 PUSH1 0x1 PUSH1 0xA0 SHL SUB SWAP1 SWAP3 AND SWAP2 PUSH1 0x0 SWAP2 CALLER SWAP2 PUSH32 0xC3D58168C5AE7397731D063D5BBF3D657854427343F4C083240F7AACAA2D0F62 SWAP2 SWAP1 DUP2 SWAP1 DUP2 ADD JUMPDEST SUB SWAP1 LOG4 JUMP JUMPDEST PUSH32 0x4A39DC06D4C0DBC64B70AF90FD698A233A518AA5D07E595D983B8C0526C8F7FB PUSH2 0x2C43 PUSH1 0x0 SWAP4 SWAP5 PUSH1 0x40 MLOAD SWAP2 DUP3 SWAP2 PUSH1 0x1 DUP1 PUSH1 0xA0 SHL SUB AND SWAP7 CALLER SWAP6 DUP4 PUSH2 0x2C94 JUMP JUMPDEST SWAP2 SWAP1 DUP3 ADD DUP1 SWAP3 GT PUSH2 0x24C0 JUMPI JUMP JUMPDEST SWAP1 SWAP2 PUSH2 0x2CAB PUSH2 0x4DD SWAP4 PUSH1 0x40 DUP5 MSTORE PUSH1 0x40 DUP5 ADD SWAP1 PUSH2 0x103C JUMP JUMPDEST SWAP2 PUSH1 0x20 DUP2 DUP5 SUB SWAP2 ADD MSTORE PUSH2 0x103C JUMP JUMPDEST SWAP1 DUP2 PUSH1 0x20 SWAP2 SUB SLT PUSH2 0x321 JUMPI MLOAD PUSH2 0x4DD DUP2 PUSH2 0x1501 JUMP JUMPDEST PUSH1 0x40 MLOAD PUSH4 0x14A5749D PUSH1 0xE3 SHL DUP2 MSTORE PUSH1 0x1 PUSH1 0x1 PUSH1 0xA0 SHL SUB DUP3 AND PUSH1 0x4 DUP3 ADD MSTORE SWAP1 SWAP3 SWAP1 PUSH1 0x20 DUP2 DUP1 PUSH1 0x24 DUP2 ADD SUB DUP2 PUSH32 0x0 PUSH1 0x1 PUSH1 0x1 PUSH1 0xA0 SHL SUB AND GAS STATICCALL SWAP1 DUP2 ISZERO PUSH2 0xB4E JUMPI PUSH1 0x0 SWAP2 PUSH2 0x2D97 JUMPI JUMPDEST POP ISZERO DUP1 ISZERO PUSH2 0x2D8B JUMPI JUMPDEST PUSH2 0x2D83 JUMPI PUSH2 0xA0F DUP3 PUSH2 0xA00 PUSH2 0x2D61 DUP7 PUSH2 0x9A1 PUSH2 0x2D7E SWAP8 PUSH1 0x0 MSTORE PUSH1 0x0 PUSH1 0x20 MSTORE PUSH1 0x40 PUSH1 0x0 KECCAK256 SWAP1 JUMP JUMPDEST SLOAD PUSH1 0x1 PUSH1 0x1 PUSH1 0xA0 SHL SUB SWAP1 SWAP7 AND PUSH1 0x0 SWAP1 DUP2 MSTORE PUSH1 0x7 PUSH1 0x20 MSTORE PUSH1 0x40 SWAP1 KECCAK256 SWAP1 JUMP JUMPDEST GT ISZERO SWAP1 JUMP JUMPDEST POP POP POP PUSH1 0x0 SWAP1 JUMP JUMPDEST POP PUSH1 0x5 SLOAD PUSH1 0xFF AND PUSH2 0x2D3B JUMP JUMPDEST PUSH2 0x2DAF SWAP2 POP PUSH1 0x20 RETURNDATASIZE DUP2 GT PUSH2 0xB47 JUMPI PUSH2 0xB38 DUP2 DUP4 PUSH2 0xD06 JUMP JUMPDEST CODESIZE PUSH2 0x2D32 JUMP JUMPDEST PUSH1 0x40 MLOAD PUSH4 0x14A5749D PUSH1 0xE3 SHL DUP1 DUP3 MSTORE PUSH1 0x1 PUSH1 0x1 PUSH1 0xA0 SHL SUB DUP4 DUP2 AND PUSH1 0x4 DUP5 ADD MSTORE SWAP3 SWAP6 SWAP4 SWAP1 SWAP3 PUSH32 0x0 AND SWAP2 PUSH1 0x20 SWAP2 SWAP1 DUP3 DUP2 PUSH1 0x24 DUP2 DUP8 GAS STATICCALL SWAP1 DUP2 ISZERO PUSH2 0xB4E JUMPI PUSH1 0x0 SWAP2 PUSH2 0x2EB0 JUMPI JUMPDEST POP ISZERO SWAP3 DUP4 ISZERO PUSH2 0x2E52 JUMPI JUMPDEST POP POP POP DUP1 SWAP2 POP SWAP1 ISZERO PUSH2 0x2D8B JUMPI PUSH2 0x2D83 JUMPI PUSH2 0xA0F DUP3 PUSH2 0xA00 PUSH2 0x2D61 DUP7 PUSH2 0x9A1 PUSH2 0x2D7E SWAP8 PUSH1 0x0 MSTORE PUSH1 0x0 PUSH1 0x20 MSTORE PUSH1 0x40 PUSH1 0x0 KECCAK256 SWAP1 JUMP JUMPDEST PUSH1 0x40 MLOAD SWAP5 DUP6 MSTORE PUSH1 0x1 PUSH1 0x1 PUSH1 0xA0 SHL SUB SWAP2 SWAP1 SWAP2 AND PUSH1 0x4 DUP6 ADD MSTORE SWAP1 SWAP3 SWAP2 POP DUP3 SWAP1 DUP3 SWAP1 PUSH1 0x24 SWAP1 DUP3 SWAP1 GAS STATICCALL SWAP2 DUP3 ISZERO PUSH2 0xB4E JUMPI PUSH1 0x0 SWAP3 PUSH2 0x2E93 JUMPI JUMPDEST POP POP ISZERO DUP1 CODESIZE DUP1 DUP1 PUSH2 0x2E20 JUMP JUMPDEST PUSH2 0x2EA9 SWAP3 POP DUP1 RETURNDATASIZE LT PUSH2 0xB47 JUMPI PUSH2 0xB38 DUP2 DUP4 PUSH2 0xD06 JUMP JUMPDEST CODESIZE DUP1 PUSH2 0x2E87 JUMP JUMPDEST PUSH2 0x2EC7 SWAP2 POP DUP4 RETURNDATASIZE DUP6 GT PUSH2 0xB47 JUMPI PUSH2 0xB38 DUP2 DUP4 PUSH2 0xD06 JUMP JUMPDEST CODESIZE PUSH2 0x2E16 JUMP JUMPDEST PUSH1 0x2 PUSH1 0x4 SLOAD EQ PUSH2 0x2EDE JUMPI PUSH1 0x2 PUSH1 0x4 SSTORE JUMP JUMPDEST PUSH1 0x40 MLOAD PUSH4 0x3EE5AEB5 PUSH1 0xE0 SHL DUP2 MSTORE PUSH1 0x4 SWAP1 REVERT JUMPDEST ISZERO PUSH2 0x2EF7 JUMPI JUMP JUMPDEST PUSH1 0x40 MLOAD PUSH3 0x461BCD PUSH1 0xE5 SHL DUP2 MSTORE PUSH1 0x20 PUSH1 0x4 DUP3 ADD MSTORE PUSH1 0x26 PUSH1 0x24 DUP3 ADD MSTORE PUSH32 0x546F74616C20737570706C79206D757374206265206772656174657220746861 PUSH1 0x44 DUP3 ADD MSTORE PUSH6 0x6E207A65726F PUSH1 0xD0 SHL PUSH1 0x64 DUP3 ADD MSTORE PUSH1 0x84 SWAP1 REVERT JUMPDEST ISZERO PUSH2 0x2F52 JUMPI JUMP JUMPDEST PUSH1 0x40 MLOAD PUSH3 0x461BCD PUSH1 0xE5 SHL DUP2 MSTORE PUSH1 0x20 PUSH1 0x4 DUP3 ADD MSTORE PUSH1 0x25 PUSH1 0x24 DUP3 ADD MSTORE PUSH32 0x5368617265207072696365206D7573742062652067726561746572207468616E PUSH1 0x44 DUP3 ADD MSTORE PUSH5 0x207A65726F PUSH1 0xD8 SHL PUSH1 0x64 DUP3 ADD MSTORE PUSH1 0x84 SWAP1 REVERT JUMPDEST SWAP1 PUSH1 0xA0 PUSH1 0x5 SWAP2 DUP1 MLOAD DUP5 SSTORE PUSH1 0x20 DUP2 ADD MLOAD PUSH1 0x1 DUP6 ADD SSTORE PUSH1 0x40 DUP2 ADD MLOAD PUSH1 0x2 DUP6 ADD SSTORE PUSH2 0x2FE2 PUSH1 0x60 DUP3 ADD MLOAD ISZERO ISZERO PUSH1 0x3 DUP7 ADD SWAP1 PUSH1 0xFF DUP1 NOT DUP4 SLOAD AND SWAP2 ISZERO ISZERO AND OR SWAP1 SSTORE JUMP JUMPDEST PUSH1 0x80 DUP2 ADD MLOAD PUSH1 0x4 DUP6 ADD SSTORE ADD MLOAD SWAP2 ADD SSTORE JUMP JUMPDEST ISZERO PUSH2 0x2FFA JUMPI JUMP JUMPDEST PUSH1 0x40 MLOAD PUSH3 0x461BCD PUSH1 0xE5 SHL DUP2 MSTORE PUSH1 0x20 PUSH1 0x4 DUP3 ADD MSTORE PUSH1 0x14 PUSH1 0x24 DUP3 ADD MSTORE PUSH20 0x105CDCD95D08191BD95CC81B9BDD08195E1A5CDD PUSH1 0x62 SHL PUSH1 0x44 DUP3 ADD MSTORE PUSH1 0x64 SWAP1 REVERT JUMPDEST ISZERO PUSH2 0x303D JUMPI JUMP JUMPDEST PUSH1 0x40 MLOAD PUSH3 0x461BCD PUSH1 0xE5 SHL DUP2 MSTORE PUSH1 0x20 PUSH1 0x4 DUP3 ADD MSTORE PUSH1 0x10 PUSH1 0x24 DUP3 ADD MSTORE PUSH16 0x155CD95C881B9BDD08185B1B1BDDD959 PUSH1 0x82 SHL PUSH1 0x44 DUP3 ADD MSTORE PUSH1 0x64 SWAP1 REVERT JUMPDEST ISZERO PUSH2 0x307C JUMPI JUMP JUMPDEST PUSH1 0x64 PUSH1 0x40 MLOAD PUSH3 0x461BCD PUSH1 0xE5 SHL DUP2 MSTORE PUSH1 0x20 PUSH1 0x4 DUP3 ADD MSTORE PUSH1 0x20 PUSH1 0x24 DUP3 ADD MSTORE PUSH32 0x416D6F756E74206D7573742062652067726561746572207468616E207A65726F PUSH1 0x44 DUP3 ADD MSTORE REVERT JUMPDEST ISZERO PUSH2 0x30C7 JUMPI JUMP JUMPDEST PUSH1 0x40 MLOAD PUSH3 0x461BCD PUSH1 0xE5 SHL DUP2 MSTORE PUSH1 0x20 PUSH1 0x4 DUP3 ADD MSTORE PUSH1 0x1D PUSH1 0x24 DUP3 ADD MSTORE PUSH32 0x496E73756666696369656E7420617661696C61626C6520737570706C79000000 PUSH1 0x44 DUP3 ADD MSTORE PUSH1 0x64 SWAP1 REVERT JUMPDEST DUP2 DUP2 MUL SWAP3 SWAP2 DUP2 ISZERO SWAP2 DUP5 DIV EQ OR ISZERO PUSH2 0x24C0 JUMPI JUMP JUMPDEST ISZERO PUSH2 0x3126 JUMPI JUMP JUMPDEST PUSH1 0x40 MLOAD PUSH3 0x461BCD PUSH1 0xE5 SHL DUP2 MSTORE PUSH1 0x20 PUSH1 0x4 DUP3 ADD MSTORE PUSH1 0x14 PUSH1 0x24 DUP3 ADD MSTORE PUSH20 0x1554D110C81D1C985B9CD9995C8819985A5B1959 PUSH1 0x62 SHL PUSH1 0x44 DUP3 ADD MSTORE PUSH1 0x64 SWAP1 REVERT JUMPDEST SWAP2 SWAP1 DUP3 SUB SWAP2 DUP3 GT PUSH2 0x24C0 JUMPI JUMP JUMPDEST PUSH1 0x40 MLOAD SWAP1 PUSH1 0x40 DUP3 ADD DUP3 DUP2 LT PUSH8 0xFFFFFFFFFFFFFFFF DUP3 GT OR PUSH2 0xCD1 JUMPI PUSH1 0x40 MSTORE PUSH1 0x1 DUP3 MSTORE PUSH1 0x20 DUP3 ADD PUSH1 0x20 CALLDATASIZE DUP3 CALLDATACOPY DUP3 MLOAD ISZERO PUSH2 0x24D9 JUMPI MSTORE SWAP1 JUMP JUMPDEST ISZERO PUSH2 0x31AC JUMPI JUMP JUMPDEST PUSH1 0x40 MLOAD PUSH3 0x461BCD PUSH1 0xE5 SHL DUP2 MSTORE PUSH1 0x20 PUSH1 0x4 DUP3 ADD MSTORE PUSH1 0x11 PUSH1 0x24 DUP3 ADD MSTORE PUSH17 0x109D5E595C881B9BDD08185B1B1BDDD959 PUSH1 0x7A SHL PUSH1 0x44 DUP3 ADD MSTORE PUSH1 0x64 SWAP1 REVERT JUMPDEST ISZERO PUSH2 0x31EC JUMPI JUMP JUMPDEST PUSH1 0x40 MLOAD PUSH3 0x461BCD PUSH1 0xE5 SHL DUP2 MSTORE PUSH1 0x20 PUSH1 0x4 DUP3 ADD MSTORE PUSH1 0x12 PUSH1 0x24 DUP3 ADD MSTORE PUSH18 0x14D95B1B195C881B9BDD08185B1B1BDDD959 PUSH1 0x72 SHL PUSH1 0x44 DUP3 ADD MSTORE PUSH1 0x64 SWAP1 REVERT JUMPDEST ISZERO PUSH2 0x322D JUMPI JUMP JUMPDEST PUSH1 0x40 MLOAD PUSH3 0x461BCD PUSH1 0xE5 SHL DUP2 MSTORE PUSH1 0x20 PUSH1 0x4 DUP3 ADD MSTORE PUSH1 0x22 PUSH1 0x24 DUP3 ADD MSTORE PUSH32 0x54726164696E67206E6F7420656E61626C656420666F72207468697320617373 PUSH1 0x44 DUP3 ADD MSTORE PUSH2 0x195D PUSH1 0xF2 SHL PUSH1 0x64 DUP3 ADD MSTORE PUSH1 0x84 SWAP1 REVERT JUMPDEST ISZERO PUSH2 0x3284 JUMPI JUMP JUMPDEST PUSH1 0x40 MLOAD PUSH3 0x461BCD PUSH1 0xE5 SHL DUP2 MSTORE PUSH1 0x20 PUSH1 0x4 DUP3 ADD MSTORE PUSH1 0x1A PUSH1 0x24 DUP3 ADD MSTORE PUSH32 0x43616E6E6F74207472616465207769746820796F757273656C66000000000000 PUSH1 0x44 DUP3 ADD MSTORE PUSH1 0x64 SWAP1 REVERT JUMPDEST ISZERO PUSH2 0x32D0 JUMPI JUMP JUMPDEST PUSH1 0x40 MLOAD PUSH3 0x461BCD PUSH1 0xE5 SHL DUP2 MSTORE PUSH1 0x20 PUSH1 0x4 DUP3 ADD MSTORE PUSH1 0x1F PUSH1 0x24 DUP3 ADD MSTORE PUSH32 0x53656C6C65722068617320696E73756666696369656E742062616C616E636500 PUSH1 0x44 DUP3 ADD MSTORE PUSH1 0x64 SWAP1 REVERT JUMPDEST ISZERO PUSH2 0x331C JUMPI JUMP JUMPDEST PUSH1 0x40 MLOAD PUSH3 0x461BCD PUSH1 0xE5 SHL DUP2 MSTORE PUSH1 0x20 PUSH1 0x4 DUP3 ADD MSTORE PUSH1 0x1D PUSH1 0x24 DUP3 ADD MSTORE PUSH32 0x496E73756666696369656E7420756E66726F7A656E2062616C616E6365000000 PUSH1 0x44 DUP3 ADD MSTORE PUSH1 0x64 SWAP1 REVERT INVALID LOG2 PUSH5 0x6970667358 0x22 SLT KECCAK256 JUMPI PUSH15 0xFBEEE696BAECDEBB06438E19E2BE0E SWAP5 DUP16 ISZERO 0xF9 0x2D 0xDA 0xEA PUSH18 0x3F7EC0B25CAC9C64736F6C63430008140033 0x2F DUP8 DUP9 GT PUSH31 0x7EFF1D82E926EC794901D17C78024A50270940304540A733656F0D00000000 "},"methodIdentifiers":{"ASSET_MANAGER_ROLE()":"a4b32de8","COMPLIANCE_OFFICER_ROLE()":"198596b5","DEFAULT_ADMIN_ROLE()":"a217fddf","MINTER_ROLE()":"d5391393","PAUSER_ROLE()":"e63ab1e9","USDC()":"89a30271","assetVault()":"f61ebc36","balanceOf(address,uint256)":"00fdd58e","balanceOfBatch(address[],uint256[])":"4e1273f4","canTransact(address,uint256,uint256)":"6d720c06","canTransfer(address,address,uint256,uint256)":"a02ff685","createAssetShares(uint256,uint256,uint256)":"aeedb379","forcedTransfer(address,address,uint256,uint256)":"18d308d0","getAssetShares(uint256)":"bf59d29b","getFrozenTokens(address,uint256)":"ff6e708c","getRoleAdmin(bytes32)":"248a9ca3","getUserShares(address,uint256)":"ddd9d045","grantRole(bytes32,address)":"2f2ff15d","hasRole(bytes32,address)":"91d14854","isApprovedForAll(address,address)":"e985e9c5","isUserAllowed(address)":"a52ba4e8","mintSharesForTest(address,uint256,uint256)":"5ab3bf47","onERC1155BatchReceived(address,address,uint256[],uint256[],bytes)":"bc197c81","onERC1155Received(address,address,uint256,uint256,bytes)":"f23a6e61","pause()":"8456cb59","paused()":"5c975abb","pauser()":"9fd0506d","purchaseAssetShares(uint256,uint256)":"b25d2d07","purchasePrice(address,uint256)":"6b5e796b","renounceRole(bytes32,address)":"36568abe","revokeRole(bytes32,address)":"d547741f","safeBatchTransferFrom(address,address,uint256[],uint256[],bytes)":"2eb2c2d6","safeTransferFrom(address,address,uint256,uint256,bytes)":"f242432a","setApprovalForAll(address,bool)":"a22cb465","setFrozenTokens(address,uint256,uint256)":"bd456f5c","setPauser(address)":"2d88af4a","setPurchasePriceForTest(address,uint256,uint256)":"fbcec4b8","setShareInfoForTest(uint256,uint256,uint256,uint256,bool)":"cb6a0121","setTradingEnabled(uint256,bool)":"b62100af","setUserAllowed(address,bool)":"d1a81a8d","shareInfo(uint256)":"adacd487","supportsInterface(bytes4)":"01ffc9a7","tradeShares(uint256,address,uint256,uint256)":"20fa6e06","unpause()":"3f4ba83a","updateSharePrice(uint256,uint256)":"1b1da1af","uri(uint256)":"0e89341c","userAllowList()":"0ad5b98c"}}}}}