{"contracts/core/AssetVault.sol":{"AssetVault":{"abi":[{"inputs":[{"internalType":"address","name":"_userAllowList","type":"address"}],"stateMutability":"nonpayable","type":"constructor"},{"inputs":[],"name":"AccessControlBadConfirmation","type":"error"},{"inputs":[{"internalType":"address","name":"account","type":"address"},{"internalType":"bytes32","name":"neededRole","type":"bytes32"}],"name":"AccessControlUnauthorizedAccount","type":"error"},{"inputs":[{"internalType":"address","name":"sender","type":"address"},{"internalType":"uint256","name":"tokenId","type":"uint256"},{"internalType":"address","name":"owner","type":"address"}],"name":"ERC721IncorrectOwner","type":"error"},{"inputs":[{"internalType":"address","name":"operator","type":"address"},{"internalType":"uint256","name":"tokenId","type":"uint256"}],"name":"ERC721InsufficientApproval","type":"error"},{"inputs":[{"internalType":"address","name":"approver","type":"address"}],"name":"ERC721InvalidApprover","type":"error"},{"inputs":[{"internalType":"address","name":"operator","type":"address"}],"name":"ERC721InvalidOperator","type":"error"},{"inputs":[{"internalType":"address","name":"owner","type":"address"}],"name":"ERC721InvalidOwner","type":"error"},{"inputs":[{"internalType":"address","name":"receiver","type":"address"}],"name":"ERC721InvalidReceiver","type":"error"},{"inputs":[{"internalType":"address","name":"sender","type":"address"}],"name":"ERC721InvalidSender","type":"error"},{"inputs":[{"internalType":"uint256","name":"tokenId","type":"uint256"}],"name":"ERC721NonexistentToken","type":"error"},{"inputs":[],"name":"EnforcedPause","type":"error"},{"inputs":[],"name":"ExpectedPause","type":"error"},{"inputs":[],"name":"ReentrancyGuardReentrantCall","type":"error"},{"anonymous":false,"inputs":[{"indexed":true,"internalType":"address","name":"owner","type":"address"},{"indexed":true,"internalType":"address","name":"approved","type":"address"},{"indexed":true,"internalType":"uint256","name":"tokenId","type":"uint256"}],"name":"Approval","type":"event"},{"anonymous":false,"inputs":[{"indexed":true,"internalType":"address","name":"owner","type":"address"},{"indexed":true,"internalType":"address","name":"operator","type":"address"},{"indexed":false,"internalType":"bool","name":"approved","type":"bool"}],"name":"ApprovalForAll","type":"event"},{"anonymous":false,"inputs":[{"indexed":true,"internalType":"address","name":"assetShares","type":"address"}],"name":"AssetSharesSet","type":"event"},{"anonymous":false,"inputs":[{"indexed":true,"internalType":"uint256","name":"assetId","type":"uint256"},{"indexed":false,"internalType":"enum AssetVault.AssetStatus","name":"oldStatus","type":"uint8"},{"indexed":false,"internalType":"enum AssetVault.AssetStatus","name":"newStatus","type":"uint8"}],"name":"AssetStatusChanged","type":"event"},{"anonymous":false,"inputs":[{"indexed":true,"internalType":"uint256","name":"assetId","type":"uint256"},{"indexed":false,"internalType":"enum AssetVault.AssetStatus","name":"status","type":"uint8"},{"indexed":false,"internalType":"uint256","name":"capitalValue","type":"uint256"},{"indexed":false,"internalType":"uint256","name":"incomeValue","type":"uint256"},{"indexed":false,"internalType":"uint256","name":"timestamp","type":"uint256"}],"name":"AssetVaulted","type":"event"},{"anonymous":false,"inputs":[{"indexed":true,"internalType":"address","name":"from","type":"address"},{"indexed":true,"internalType":"address","name":"to","type":"address"},{"indexed":true,"internalType":"uint256","name":"tokenId","type":"uint256"}],"name":"ForcedTransfer","type":"event"},{"anonymous":false,"inputs":[{"indexed":true,"internalType":"address","name":"user","type":"address"},{"indexed":true,"internalType":"uint256","name":"tokenId","type":"uint256"}],"name":"Frozen","type":"event"},{"anonymous":false,"inputs":[{"indexed":false,"internalType":"address","name":"account","type":"address"}],"name":"Paused","type":"event"},{"anonymous":false,"inputs":[{"indexed":true,"internalType":"address","name":"pauser","type":"address"}],"name":"PauserSet","type":"event"},{"anonymous":false,"inputs":[{"indexed":true,"internalType":"bytes32","name":"role","type":"bytes32"},{"indexed":true,"internalType":"bytes32","name":"previousAdminRole","type":"bytes32"},{"indexed":true,"internalType":"bytes32","name":"newAdminRole","type":"bytes32"}],"name":"RoleAdminChanged","type":"event"},{"anonymous":false,"inputs":[{"indexed":true,"internalType":"bytes32","name":"role","type":"bytes32"},{"indexed":true,"internalType":"address","name":"account","type":"address"},{"indexed":true,"internalType":"address","name":"sender","type":"address"}],"name":"RoleGranted","type":"event"},{"anonymous":false,"inputs":[{"indexed":true,"internalType":"bytes32","name":"role","type":"bytes32"},{"indexed":true,"internalType":"address","name":"account","type":"address"},{"indexed":true,"internalType":"address","name":"sender","type":"address"}],"name":"RoleRevoked","type":"event"},{"anonymous":false,"inputs":[{"indexed":true,"internalType":"address","name":"from","type":"address"},{"indexed":true,"internalType":"address","name":"to","type":"address"},{"indexed":true,"internalType":"uint256","name":"tokenId","type":"uint256"}],"name":"Transfer","type":"event"},{"anonymous":false,"inputs":[{"indexed":false,"internalType":"address","name":"account","type":"address"}],"name":"Unpaused","type":"event"},{"inputs":[],"name":"ASSET_MANAGER_ROLE","outputs":[{"internalType":"bytes32","name":"","type":"bytes32"}],"stateMutability":"view","type":"function"},{"inputs":[],"name":"COMPLIANCE_OFFICER_ROLE","outputs":[{"internalType":"bytes32","name":"","type":"bytes32"}],"stateMutability":"view","type":"function"},{"inputs":[],"name":"DEFAULT_ADMIN_ROLE","outputs":[{"internalType":"bytes32","name":"","type":"bytes32"}],"stateMutability":"view","type":"function"},{"inputs":[],"name":"PAUSER_ROLE","outputs":[{"internalType":"bytes32","name":"","type":"bytes32"}],"stateMutability":"view","type":"function"},{"inputs":[{"internalType":"address","name":"to","type":"address"},{"internalType":"uint256","name":"tokenId","type":"uint256"}],"name":"approve","outputs":[],"stateMutability":"nonpayable","type":"function"},{"inputs":[],"name":"assetShares","outputs":[{"internalType":"address","name":"","type":"address"}],"stateMutability":"view","type":"function"},{"inputs":[{"internalType":"address","name":"owner","type":"address"}],"name":"balanceOf","outputs":[{"internalType":"uint256","name":"","type":"uint256"}],"stateMutability":"view","type":"function"},{"inputs":[{"internalType":"address","name":"user","type":"address"},{"internalType":"uint256","name":"tokenId","type":"uint256"}],"name":"canTransact","outputs":[{"internalType":"bool","name":"","type":"bool"}],"stateMutability":"view","type":"function"},{"inputs":[{"internalType":"address","name":"from","type":"address"},{"internalType":"address","name":"to","type":"address"},{"internalType":"uint256","name":"tokenId","type":"uint256"}],"name":"canTransfer","outputs":[{"internalType":"bool","name":"","type":"bool"}],"stateMutability":"view","type":"function"},{"inputs":[{"internalType":"enum AssetVault.AssetStatus","name":"status_","type":"uint8"},{"internalType":"uint256","name":"capitalValue_","type":"uint256"},{"internalType":"uint256","name":"incomeValue_","type":"uint256"},{"internalType":"string","name":"metadataURI_","type":"string"}],"name":"createAsset","outputs":[{"internalType":"uint256","name":"assetId","type":"uint256"}],"stateMutability":"nonpayable","type":"function"},{"inputs":[{"internalType":"address","name":"from","type":"address"},{"internalType":"address","name":"to","type":"address"},{"internalType":"uint256","name":"tokenId","type":"uint256"}],"name":"forcedTransfer","outputs":[],"stateMutability":"nonpayable","type":"function"},{"inputs":[{"internalType":"uint256[]","name":"assetIds","type":"uint256[]"}],"name":"getAllAssets","outputs":[{"components":[{"internalType":"enum AssetVault.AssetStatus","name":"status","type":"uint8"},{"internalType":"uint256","name":"capitalValue","type":"uint256"},{"internalType":"uint256","name":"incomeValue","type":"uint256"},{"internalType":"string","name":"metadataURI","type":"string"},{"internalType":"uint256","name":"createdAt","type":"uint256"},{"internalType":"uint256","name":"updatedAt","type":"uint256"}],"internalType":"struct AssetVault.Asset[]","name":"","type":"tuple[]"}],"stateMutability":"view","type":"function"},{"inputs":[{"internalType":"uint256","name":"tokenId","type":"uint256"}],"name":"getApproved","outputs":[{"internalType":"address","name":"","type":"address"}],"stateMutability":"view","type":"function"},{"inputs":[{"internalType":"uint256","name":"assetId","type":"uint256"}],"name":"getAsset","outputs":[{"components":[{"internalType":"enum AssetVault.AssetStatus","name":"status","type":"uint8"},{"internalType":"uint256","name":"capitalValue","type":"uint256"},{"internalType":"uint256","name":"incomeValue","type":"uint256"},{"internalType":"string","name":"metadataURI","type":"string"},{"internalType":"uint256","name":"createdAt","type":"uint256"},{"internalType":"uint256","name":"updatedAt","type":"uint256"}],"internalType":"struct AssetVault.Asset","name":"","type":"tuple"}],"stateMutability":"view","type":"function"},{"inputs":[{"internalType":"bytes32","name":"role","type":"bytes32"}],"name":"getRoleAdmin","outputs":[{"internalType":"bytes32","name":"","type":"bytes32"}],"stateMutability":"view","type":"function"},{"inputs":[{"internalType":"bytes32","name":"role","type":"bytes32"},{"internalType":"address","name":"account","type":"address"}],"name":"grantRole","outputs":[],"stateMutability":"nonpayable","type":"function"},{"inputs":[{"internalType":"bytes32","name":"role","type":"bytes32"},{"internalType":"address","name":"account","type":"address"}],"name":"hasRole","outputs":[{"internalType":"bool","name":"","type":"bool"}],"stateMutability":"view","type":"function"},{"inputs":[{"internalType":"address","name":"owner","type":"address"},{"internalType":"address","name":"operator","type":"address"}],"name":"isApprovedForAll","outputs":[{"internalType":"bool","name":"","type":"bool"}],"stateMutability":"view","type":"function"},{"inputs":[{"internalType":"uint256","name":"tokenId","type":"uint256"}],"name":"isFrozen","outputs":[{"internalType":"bool","name":"","type":"bool"}],"stateMutability":"view","type":"function"},{"inputs":[{"internalType":"address","name":"user","type":"address"}],"name":"isUserAllowed","outputs":[{"internalType":"bool","name":"","type":"bool"}],"stateMutability":"view","type":"function"},{"inputs":[],"name":"name","outputs":[{"internalType":"string","name":"","type":"string"}],"stateMutability":"view","type":"function"},{"inputs":[{"internalType":"uint256","name":"tokenId","type":"uint256"}],"name":"ownerOf","outputs":[{"internalType":"address","name":"","type":"address"}],"stateMutability":"view","type":"function"},{"inputs":[],"name":"pause","outputs":[],"stateMutability":"nonpayable","type":"function"},{"inputs":[],"name":"paused","outputs":[{"internalType":"bool","name":"","type":"bool"}],"stateMutability":"view","type":"function"},{"inputs":[],"name":"pauser","outputs":[{"internalType":"address","name":"","type":"address"}],"stateMutability":"view","type":"function"},{"inputs":[{"internalType":"bytes32","name":"role","type":"bytes32"},{"internalType":"address","name":"callerConfirmation","type":"address"}],"name":"renounceRole","outputs":[],"stateMutability":"nonpayable","type":"function"},{"inputs":[{"internalType":"bytes32","name":"role","type":"bytes32"},{"internalType":"address","name":"account","type":"address"}],"name":"revokeRole","outputs":[],"stateMutability":"nonpayable","type":"function"},{"inputs":[{"internalType":"address","name":"from","type":"address"},{"internalType":"address","name":"to","type":"address"},{"internalType":"uint256","name":"tokenId","type":"uint256"}],"name":"safeTransferFrom","outputs":[],"stateMutability":"nonpayable","type":"function"},{"inputs":[{"internalType":"address","name":"from","type":"address"},{"internalType":"address","name":"to","type":"address"},{"internalType":"uint256","name":"tokenId","type":"uint256"},{"internalType":"bytes","name":"data","type":"bytes"}],"name":"safeTransferFrom","outputs":[],"stateMutability":"nonpayable","type":"function"},{"inputs":[{"internalType":"address","name":"operator","type":"address"},{"internalType":"bool","name":"approved","type":"bool"}],"name":"setApprovalForAll","outputs":[],"stateMutability":"nonpayable","type":"function"},{"inputs":[{"internalType":"address","name":"_assetShares","type":"address"}],"name":"setAssetShares","outputs":[],"stateMutability":"nonpayable","type":"function"},{"inputs":[{"internalType":"uint256","name":"tokenId","type":"uint256"},{"internalType":"bool","name":"frozen","type":"bool"}],"name":"setFrozenToken","outputs":[],"stateMutability":"nonpayable","type":"function"},{"inputs":[{"internalType":"address","name":"_pauser","type":"address"}],"name":"setPauser","outputs":[],"stateMutability":"nonpayable","type":"function"},{"inputs":[{"internalType":"address","name":"user","type":"address"},{"internalType":"bool","name":"allowed","type":"bool"}],"name":"setUserAllowed","outputs":[],"stateMutability":"nonpayable","type":"function"},{"inputs":[{"internalType":"bytes4","name":"interfaceId","type":"bytes4"}],"name":"supportsInterface","outputs":[{"internalType":"bool","name":"","type":"bool"}],"stateMutability":"view","type":"function"},{"inputs":[],"name":"symbol","outputs":[{"internalType":"string","name":"","type":"string"}],"stateMutability":"view","type":"function"},{"inputs":[{"internalType":"uint256","name":"tokenId","type":"uint256"}],"name":"tokenURI","outputs":[{"internalType":"string","name":"","type":"string"}],"stateMutability":"view","type":"function"},{"inputs":[{"internalType":"address","name":"from","type":"address"},{"internalType":"address","name":"to","type":"address"},{"internalType":"uint256","name":"tokenId","type":"uint256"}],"name":"transferFrom","outputs":[],"stateMutability":"nonpayable","type":"function"},{"inputs":[],"name":"unpause","outputs":[],"stateMutability":"nonpayable","type":"function"},{"inputs":[],"name":"userAllowList","outputs":[{"internalType":"contract AssetUserAllowList","name":"","type":"address"}],"stateMutability":"view","type":"function"}],"evm":{"bytecode":{"linkReferences":{},"object":"60a034620003e057601f19906001600160401b0390601f62002907388190038281018616840185811185821017620003ca57849282916040528339602093849181010312620003e057516001600160a01b0381169390849003620003e05762000067620003e5565b91600b83526a105cdcd95d0815985d5b1d60aa1b8484015262000089620003e5565b6005815264159055531560da1b858201528351838111620003ca576000908154956001968781811c91168015620003bf575b89821014620003ab5790818684931162000358575b508890868311600114620002f7578492620002eb575b5050600019600383901b1c191690861b1781555b8151938411620002d75784548581811c91168015620002cc575b87821014620002b85783811162000270575b50859284116001146200020f578394959697509262000203575b5050600019600383901b1c191690821b1781555b80600755600a558115620001bf5750608052620001713362000405565b506200017d3362000486565b50620001893362000529565b5060405161231f9081620005c882396080518181816103f00152818161057d015281816114cf0152818161209d015261216f0152f35b6064906040519062461bcd60e51b82526004820152601960248201527f496e76616c696420616c6c6f776c6973742061646472657373000000000000006044820152fd5b01519050388062000140565b919096831696848352858320925b8881106200025a575083859697981062000240575b505050811b01815562000154565b015160001960f88460031b161c1916905538808062000232565b818301518455928501929186019186016200021d565b8582528682208480870160051c820192898810620002ae575b0160051c019086905b828110620002a257505062000126565b83815501869062000292565b9250819262000289565b634e487b7160e01b82526022600452602482fd5b90607f169062000114565b634e487b7160e01b81526041600452602490fd5b015190503880620000e6565b908b899416918580528a862092865b8c82821062000341575050841162000327575b505050811b018155620000fa565b015160001960f88460031b161c1916905538808062000319565b8385015186558c9790950194938401930162000306565b9091508380528884208680850160051c8201928b8610620003a1575b918a91869594930160051c01915b82811062000392575050620000d0565b8681558594508a910162000382565b9250819262000374565b634e487b7160e01b84526022600452602484fd5b90607f1690620000bb565b634e487b7160e01b600052604160045260246000fd5b600080fd5b60408051919082016001600160401b03811183821017620003ca57604052565b6001600160a01b031660008181527f54cdd369e4e8a8515e52ca72ec816c2101831ad1f18bf44102ed171459c9b4f8602052604081205490919060ff16620004825781805260066020526040822081835260205260408220600160ff198254161790553391600080516020620028e78339815191528180a4600190565b5090565b6001600160a01b031660008181527f6e891ea7db4d1633822af4f6a64073b5d7597c864a3dccee2ee6b7f25c837bbd60205260408120549091907fb1fadd3142ab2ad7f1337ea4d97112bcc8337fc11ce5b20cb04ad038adf998199060ff16620005245780835260066020526040832082845260205260408320600160ff19825416179055600080516020620028e7833981519152339380a4600190565b505090565b6001600160a01b031660008181527fd1a890bf818afa572802200688a7d376f87d9fcc58c522c6f18adfc2a844329160205260408120549091907fb6f0283bd1ed00c6aa7e988a7516070240f3610a34d167391359b648eb37cefc9060ff16620005245780835260066020526040832082845260205260408320600160ff19825416179055600080516020620028e7833981519152339380a460019056fe608080604052600436101561001357600080fd5b600090813560e01c90816301ffc9a7146116c25750806306fdde031461161e578063081812fc146115e1578063095ea7b3146114fe5780630ad5b98c146114b957806311a84e731461143b578063198596b51461140057806323b872dd146113e8578063248a9ca3146113bb57806328f5bc6a146112af5780632d88af4a1461119c5780632f2ff15d1461115e57806336568abe146111165780633f4ba83a146110ab57806342842e0e146110835780635c975abb146110605780635d7ec37d14610ce95780636352211e14610cb857806370a0823114610c605780638456cb5914610c0557806391d1485414610bbc5780639318603a14610a1657806395d89b41146109335780639fc1d0e71461073f5780639fd0506d14610716578063a0894799146106e7578063a217fddf146106cb578063a22cb46514610622578063a4b32de8146105e7578063a52ba4e81461053b578063b88d4fde146104d7578063c87b56dd14610484578063d1a81a8d146103b9578063d547741f14610377578063d5c03cc91461034f578063e1ff0f8714610325578063e46638e614610301578063e63ab1e9146102c6578063e985e9c5146102725763eac8f5b8146101d957600080fd5b3461026f57602036600319011261026f57604061026b916101f8612276565b506004358152600b602052206005604051916102138361187f565b61022160ff8254168461226a565b600181015460208401526002810154604084015261024160038201611c57565b606084015260048101546080840152015460a0820152604051918291602083526020830190611830565b0390f35b80fd5b503461026f57604036600319011261026f5761028c611798565b60406102966117b3565b9260018060a01b0380931681526005602052209116600052602052602060ff604060002054166040519015158152f35b503461026f578060031936011261026f5760206040517f65d7a28e3265b37a6474929f336521b332c1681b933f6cb9f3376673440d862a8152f35b503461026f57602061031b610315366117d8565b91612147565b6040519015158152f35b503461026f578060031936011261026f5760088054604051911c6001600160a01b03168152602090f35b503461026f57604036600319011261026f57602061031b61036e611798565b60243590612074565b503461026f57604036600319011261026f576103b56004356103976117b3565b9080845260066020526103b06001604086200154611a52565b611ba6565b5080f35b503461026f57604036600319011261026f576103d3611798565b816103dc6117c9565b916103e5611942565b6001600160a01b03907f0000000000000000000000000000000000000000000000000000000000000000821690813b156104805783604492604051968795869463d1a81a8d60e01b8652166004850152151560248401525af180156104755761044c575080f35b67ffffffffffffffff81116104615760405280f35b634e487b7160e01b82526041600452602482fd5b6040513d84823e3d90fd5b8380fd5b503461026f57602036600319011261026f5761026b906104a5600435612003565b50806040516104b3816118b1565b52604051906104c1826118b1565b8152604051918291602083526020830190611758565b503461026f57608036600319011261026f576104f1611798565b6104f96117b3565b6064359167ffffffffffffffff831161048057366023840112156104805761052e61053893369060248160040135910161190b565b9160443591611eae565b80f35b503461026f57602036600319011261026f5760246020610559611798565b6040516314a5749d60e31b81526001600160a01b03918216600482015292839182907f0000000000000000000000000000000000000000000000000000000000000000165afa90811561047557602092916105ba575b506040519015158152f35b6105da9150823d81116105e0575b6105d281836118cd565b81019061205c565b386105af565b503d6105c8565b503461026f578060031936011261026f5760206040517fb1fadd3142ab2ad7f1337ea4d97112bcc8337fc11ce5b20cb04ad038adf998198152f35b503461026f57604036600319011261026f5761063c611798565b6106446117c9565b6001600160a01b039091169081156106b25733835260056020526040832082845260205261068181604085209060ff801983541691151516179055565b60405190151581527f17307eab39ab6107e8899845ad3d59bd9653f200f220920489ca2b5937696c3160203392a380f35b604051630b61174360e31b815260048101839052602490fd5b503461026f578060031936011261026f57602090604051908152f35b503461026f57602036600319011261026f5760ff60406020926004358152600c84522054166040519015158152f35b503461026f578060031936011261026f576009546040516001600160a01b039091168152602090f35b503461026f5761074e366117d8565b91610757611942565b60026007541461092157600260075561076f83612003565b6001600160a01b0392838316929184168390036108dc5783169283156108c35761079761203e565b84865260026020526040862054168015801561088e575b84875260036020526040872060018154019055858752600260205260408720856bffffffffffffffffffffffff60a01b8254161790558585837fddf252ad1be2c89b69c2b068fc378daa952ba7f163c4a11628f55a4df523b3ef8a80a41561082957604051637e27328960e01b815260048101869052602490fd5b82810361085e5750507f7b3ce50c216d2ccf9919c6b9f1bfb33f0350a33010f188750b4af38e004481388480a4600160075580f35b6040516364283d7b60e01b81526001600160a01b0392831660048201526024810186905291166044820152606490fd5b600086815260046020526040902080546001600160a01b031916905581875260036020526040872080546000190190556107ae565b604051633250574960e11b815260048101879052602490fd5b60405162461bcd60e51b815260206004820152601760248201527f546f6b656e206e6f74206f776e65642062792066726f6d0000000000000000006044820152606490fd5b604051633ee5aeb560e01b8152600490fd5b503461026f578060031936011261026f576040519080600180549161095783611c1d565b808652928281169081156109ec5750600114610992575b61026b8561097e818703826118cd565b604051918291602083526020830190611758565b92508083527fb10e2d527612073b26eecdfd717e6a320cf44b4afac2b0732d9fcbe2b7fa0cf65b8284106109d457505050810160200161097e8261026b61096e565b805460208587018101919091529093019281016109b9565b86955061026b9693506020925061097e94915060ff191682840152151560051b820101929361096e565b503461026f57602080600319360112610bb85760043567ffffffffffffffff9283821161026f573660238301121561026f57816004013593841161026f576024600594368282881b86010111610bb457610a6f816122a7565b93610a7d60405195866118cd565b818552601f19610a8c836122a7565b0186855b828110610b9e57505050835b828110610b0157505050506040519280840190808552835180925280604083818801981b870101940192955b828710610ad55785850386f35b909192938280610af1600193603f198a82030186528851611830565b9601920196019592919092610ac8565b8381891b830101358552600b8752604085208860405191610b218361187f565b610b2f60ff8254168461226a565b60018101548a84015260028101546040840152610b4e60038201611c57565b606084015260048101546080840152015460a0820152610b6e82886122bf565b52610b7981876122bf565b506000198114610b8b57600101610a9c565b634e487b7160e01b855260116004528385fd5b610ba6612276565b82828a010152018790610a90565b8280fd5b5080fd5b503461026f57604036600319011261026f5760ff6040602092610bdd6117b3565b6004358252600685528282206001600160a01b03909116825284522054604051911615158152f35b503461026f578060031936011261026f57610c1e6119f6565b610c2661203e565b600160ff1960085416176008557f62e78cea01bee320cd4e420270b5ea74000d11b0c9f74754ebdbfc544b05a2586020604051338152a180f35b503461026f57602036600319011261026f576001600160a01b03610c82611798565b168015610c9f578160409160209352600383522054604051908152f35b6040516322718ad960e21b815260048101839052602490fd5b503461026f57602036600319011261026f576020610cd7600435612003565b6040516001600160a01b039091168152f35b503461026f57608036600319011261026f5760048035101561026f5767ffffffffffffffff606435818111610bb45736602382011215610bb45780600401359082821161048057602491828201918382369201011161105c577fb1fadd3142ab2ad7f1337ea4d97112bcc8337fc11ce5b20cb04ad038adf9981980865260066020526040862033875260205260ff6040872054161561103f5750610d8e36828461190b565b6020815191012093848652600d602052604086205461100457600a549460018601600a558652600d60205284604087205560405191610dcc8361187f565b610dd86004358461226a565b610df560208401948635865260408501926044358452369161190b565b90606084019182524260808501528760a0850152868852600b602052604088209484516004811015610ff15760ff80198854169116178655516001860155516002850155518051918211610fde57610e506003850154611c1d565b601f8111610f9a575b5060209686959493929188916001601f851114610f025793836080969460059460a0947f6d6ee7df9000ab7132faa3536cb39e9b6f061b2fb0480f34b3b38286416597259a9892610ef7575b50508160011b916000199060031b1c19161760038501555b858101516004850155015191015560405190610edb8260043561180d565b35868201526044356040820152426060820152a2604051908152f35b015190503880610ea5565b9190600386018352898320925b601f1985168110610f8057509360018460059460a0947f6d6ee7df9000ab7132faa3536cb39e9b6f061b2fb0480f34b3b38286416597259a9860809a98601f19811610610f67575b505050811b016003850155610ebd565b015160001960f88460031b161c19169055388080610f57565b818301518455899850600190930192918a01918a01610f0f565b60038501885260208820601f840160051c810160208510610fd7575b601f830160051c82018110610fcc575050610e59565b898155600101610fb6565b5080610fb6565b634e487b7160e01b875260416004528487fd5b634e487b7160e01b8a526021600452878afd5b60405162461bcd60e51b81526020600482015260148186015273417373657420616c72656164792065786973747360601b6044820152606490fd5b836044916040519163e2517d3f60e01b8352336004840152820152fd5b8480fd5b503461026f578060031936011261026f57602060ff600854166040519015158152f35b503461026f57610538611095366117d8565b90604051926110a3846118b1565b858452611eae565b503461026f578060031936011261026f576110c46119f6565b60085460ff8116156111045760ff19166008557f5db9ee0a495bf2e6ff9c91a7834c1ba4fdd244a5e8aa4e537bd38aeae4b073aa6020604051338152a180f35b604051638dfc202b60e01b8152600490fd5b503461026f57604036600319011261026f576111306117b3565b336001600160a01b0382160361114c576103b590600435611ba6565b60405163334bd91960e11b8152600490fd5b503461026f57604036600319011261026f576103b560043561117e6117b3565b9080845260066020526111976001604086200154611a52565b611b2b565b503461026f57602036600319011261026f576111b6611798565b6111be6119bc565b60095460ff8160a01c16611275576001600160a01b03821691821561123757826111fc926bffffffffffffffffffffffff60a01b1617600955611a78565b506009805460ff60a01b1916600160a01b1790557fd11d57c2c7468878b1035df11c670bcd0091aa840bf8aa166365397622237bea8280a280f35b60405162461bcd60e51b8152602060048201526016602482015275496e76616c696420706175736572206164647265737360501b6044820152606490fd5b60405162461bcd60e51b815260206004820152601260248201527114185d5cd95c88185b1c9958591e481cd95d60721b6044820152606490fd5b503461026f57602036600319011261026f576112c9611798565b6112d16119bc565b6008549060ff8260a81c16611376576001600160a01b03811691821561133b57610100600160b01b031916600891821b610100600160a81b031617600160a81b1790557fc25eecbda7b7f176285751ccb7a783ac11a7b5ca5d3365d0467246a564e188e18280a280f35b60405162461bcd60e51b815260206004820152601360248201527224b73b30b634b21039b430b932903a37b5b2b760691b6044820152606490fd5b60405162461bcd60e51b815260206004820152601760248201527f417373657453686172657320616c7265616479207365740000000000000000006044820152606490fd5b503461026f57602036600319011261026f5760016040602092600435815260068452200154604051908152f35b503461026f576105386113fa366117d8565b91611cfd565b503461026f578060031936011261026f5760206040517fb6f0283bd1ed00c6aa7e988a7516070240f3610a34d167391359b648eb37cefc8152f35b503461026f57604036600319011261026f5760043561148061145b6117c9565b611463611942565b828452600c602052604084209060ff801983541691151516179055565b6001600160a01b0361149182612003565b167f68e0d8c112165d0949ce87205b719ed7d98c7401866c34a159f7c67c6f5620e78380a380f35b503461026f578060031936011261026f576040517f00000000000000000000000000000000000000000000000000000000000000006001600160a01b03168152602090f35b503461026f57604036600319011261026f57611518611798565b60243561152481612003565b331515806115ce575b806115a3575b61158b576001600160a01b039283169282918491167f8c5be1e5ebec7d5bd14f71427d1e84f3dd0314c0f7b2291e5b200ac8c7c3b9258680a4825260046020526040822080546001600160a01b031916909117905580f35b60405163a9fbf51f60e01b8152336004820152602490fd5b506001600160a01b038116845260056020908152604080862033875290915284205460ff1615611533565b506001600160a01b03811633141561152d565b503461026f57602036600319011261026f5760209060043561160281612003565b50815260048252604060018060a01b0391205416604051908152f35b503461026f578060031936011261026f576040519080805461163f81611c1d565b808552916001918083169081156109ec57506001146116685761026b8561097e818703826118cd565b80809450527f290decd9548b62a8d60345a988386fc84ba6bc95484008f6362f93160ef3e5635b8284106116aa57505050810160200161097e8261026b61096e565b8054602085870181019190915290930192810161168f565b905034610bb8576020366003190112610bb85760043563ffffffff60e01b8116809103610bb457602092506380ac58cd60e01b81148015611748575b8015611738575b80918115611716575b505015158152f35b637965db0b60e01b1491508115611730575b50388061170e565b905038611728565b506301ffc9a760e01b8114611705565b50635b5e139f60e01b81146116fe565b919082519283825260005b848110611784575050826000602080949584010152601f8019910116010190565b602081830181015184830182015201611763565b600435906001600160a01b03821682036117ae57565b600080fd5b602435906001600160a01b03821682036117ae57565b6024359081151582036117ae57565b60609060031901126117ae576001600160a01b039060043582811681036117ae579160243590811681036117ae579060443590565b90600482101561181a5752565b634e487b7160e01b600052602160045260246000fd5b9061183c81835161180d565b602082015160208201526040820151604082015260a08061186c606085015160c0606086015260c0850190611758565b9360808101516080850152015191015290565b60c0810190811067ffffffffffffffff82111761189b57604052565b634e487b7160e01b600052604160045260246000fd5b6020810190811067ffffffffffffffff82111761189b57604052565b90601f8019910116810190811067ffffffffffffffff82111761189b57604052565b67ffffffffffffffff811161189b57601f01601f191660200190565b929192611917826118ef565b9161192560405193846118cd565b8294818452818301116117ae578281602093846000960137010152565b3360009081527fd1a890bf818afa572802200688a7d376f87d9fcc58c522c6f18adfc2a844329160205260409020547fb6f0283bd1ed00c6aa7e988a7516070240f3610a34d167391359b648eb37cefc9060ff161561199e5750565b6044906040519063e2517d3f60e01b82523360048301526024820152fd5b3360009081527f54cdd369e4e8a8515e52ca72ec816c2101831ad1f18bf44102ed171459c9b4f8602052604081205460ff161561199e5750565b3360009081527fe09f975e15f8f53f24cbbc282b13c40b84df485fcdb8d3997fa103dc5a4ef84160205260409020547f65d7a28e3265b37a6474929f336521b332c1681b933f6cb9f3376673440d862a9060ff161561199e5750565b80600052600660205260406000203360005260205260ff604060002054161561199e5750565b6001600160a01b031660008181527fe09f975e15f8f53f24cbbc282b13c40b84df485fcdb8d3997fa103dc5a4ef84160205260408120549091907f65d7a28e3265b37a6474929f336521b332c1681b933f6cb9f3376673440d862a9060ff16611b265780835260066020526040832082845260205260408320600160ff198254161790557f2f8788117e7eff1d82e926ec794901d17c78024a50270940304540a733656f0d339380a4600190565b505090565b906000918083526006602052604083209160018060a01b03169182845260205260ff60408420541615600014611b265780835260066020526040832082845260205260408320600160ff198254161790557f2f8788117e7eff1d82e926ec794901d17c78024a50270940304540a733656f0d339380a4600190565b906000918083526006602052604083209160018060a01b03169182845260205260ff604084205416600014611b26578083526006602052604083208284526020526040832060ff1981541690557ff6391f5c32d9c69d2a47ea670b442974b53935d1edc7fd64eb21e047a839171b339380a4600190565b90600182811c92168015611c4d575b6020831014611c3757565b634e487b7160e01b600052602260045260246000fd5b91607f1691611c2c565b9060405191826000825492611c6b84611c1d565b908184526001948581169081600014611cda5750600114611c97575b5050611c95925003836118cd565b565b9093915060005260209081600020936000915b818310611cc2575050611c9593508201013880611c87565b85548884018501529485019487945091830191611caa565b915050611c9594506020925060ff191682840152151560051b8201013880611c87565b906001600160a01b039081168015611e9557611d1761203e565b600091848352846020926002845260409383858720541695869133151580611dff575b509060027fddf252ad1be2c89b69c2b068fc378daa952ba7f163c4a11628f55a4df523b3ef9284611dcc575b85835260038152888320805460010190558683525286812080546001600160a01b0319168517905580a483168203611d9e5750505050565b516364283d7b60e01b81526001600160a01b0392831660048201526024810193909352166044820152606490fd5b600087815260046020526040902080546001600160a01b0319169055848352600381528883208054600019019055611d66565b91939450915080611e54575b15611e1b57879291869138611d3a565b848887611e38576024915190637e27328960e01b82526004820152fd5b604491519063177e802f60e01b82523360048301526024820152fd5b503386148015611e79575b80611e0b5750878252600481523384868420541614611e0b565b5085825260058152848220338352815260ff8583205416611e5f565b604051633250574960e11b815260006004820152602490fd5b929092611ebc838583611cfd565b833b611ec9575b50505050565b604051630a85bd0160e11b8082523360048301526001600160a01b0392831660248301526044820194909452608060648201529493169260209290918590611f15906084830190611758565b039483816000978189895af1869181611fbf575b50611f8a575050503d600014611f81573d611f43816118ef565b90611f5160405192836118cd565b81528093823d92013e5b82519283611f7c57604051633250574960e11b815260048101849052602490fd5b019050fd5b60609250611f5b565b919450915063ffffffff60e01b1603611fa7575038808080611ec3565b60249060405190633250574960e11b82526004820152fd5b9091508481813d8311611ffc575b611fd781836118cd565b81010312611ff857516001600160e01b031981168103611ff8579038611f29565b8680fd5b503d611fcd565b6000818152600260205260409020546001600160a01b0316908115612026575090565b60249060405190637e27328960e01b82526004820152fd5b60ff6008541661204a57565b60405163d93c066560e01b8152600490fd5b908160209103126117ae575180151581036117ae5790565b6040516314a5749d60e31b81526001600160a01b039182166004820181905292906020816024817f000000000000000000000000000000000000000000000000000000000000000087165afa90811561213b5760009161211d575b50158015612111575b80156120f9575b6120f1576120ec90612003565b161490565b505050600090565b5080600052600c60205260ff604060002054166120df565b5060ff600854166120d8565b612135915060203d81116105e0576105d281836118cd565b386120cf565b6040513d6000823e3d90fd5b6040516314a5749d60e31b8082526001600160a01b03928316600483018190529492936020927f00000000000000000000000000000000000000000000000000000000000000008616929091908483602481875afa801561213b57879360009161224d575b50159384156121fc575b505050509081156121ef575b81156121d7575b506120f1576120ec90612003565b600c9150826000525260ff60406000205416386121c9565b60085460ff1691506121c2565b8593945090602491604051958694859384521660048301525afa90811561213b57600091612230575b5015833880806121b6565b6122479150823d84116105e0576105d281836118cd565b38612225565b6122649150863d88116105e0576105d281836118cd565b386121ac565b600482101561181a5752565b604051906122838261187f565b600060a0838281528260208201528260408201526060808201528260808201520152565b67ffffffffffffffff811161189b5760051b60200190565b80518210156122d35760209160051b010190565b634e487b7160e01b600052603260045260246000fdfea26469706673582212208d979ee7846afb548317db4d957a1b56379a693110503bad8124259fd16f7a4e64736f6c634300081400332f8788117e7eff1d82e926ec794901d17c78024a50270940304540a733656f0d","opcodes":"PUSH1 0xA0 CALLVALUE PUSH3 0x3E0 JUMPI PUSH1 0x1F NOT SWAP1 PUSH1 0x1 PUSH1 0x1 PUSH1 0x40 SHL SUB SWAP1 PUSH1 0x1F PUSH3 0x2907 CODESIZE DUP2 SWAP1 SUB DUP3 DUP2 ADD DUP7 AND DUP5 ADD DUP6 DUP2 GT DUP6 DUP3 LT OR PUSH3 0x3CA JUMPI DUP5 SWAP3 DUP3 SWAP2 PUSH1 0x40 MSTORE DUP4 CODECOPY PUSH1 0x20 SWAP4 DUP5 SWAP2 DUP2 ADD SUB SLT PUSH3 0x3E0 JUMPI MLOAD PUSH1 0x1 PUSH1 0x1 PUSH1 0xA0 SHL SUB DUP2 AND SWAP4 SWAP1 DUP5 SWAP1 SUB PUSH3 0x3E0 JUMPI PUSH3 0x67 PUSH3 0x3E5 JUMP JUMPDEST SWAP2 PUSH1 0xB DUP4 MSTORE PUSH11 0x105CDCD95D0815985D5B1D PUSH1 0xAA SHL DUP5 DUP5 ADD MSTORE PUSH3 0x89 PUSH3 0x3E5 JUMP JUMPDEST PUSH1 0x5 DUP2 MSTORE PUSH5 0x1590555315 PUSH1 0xDA SHL DUP6 DUP3 ADD MSTORE DUP4 MLOAD DUP4 DUP2 GT PUSH3 0x3CA JUMPI PUSH1 0x0 SWAP1 DUP2 SLOAD SWAP6 PUSH1 0x1 SWAP7 DUP8 DUP2 DUP2 SHR SWAP2 AND DUP1 ISZERO PUSH3 0x3BF JUMPI JUMPDEST DUP10 DUP3 LT EQ PUSH3 0x3AB JUMPI SWAP1 DUP2 DUP7 DUP5 SWAP4 GT PUSH3 0x358 JUMPI JUMPDEST POP DUP9 SWAP1 DUP7 DUP4 GT PUSH1 0x1 EQ PUSH3 0x2F7 JUMPI DUP5 SWAP3 PUSH3 0x2EB JUMPI JUMPDEST POP POP PUSH1 0x0 NOT PUSH1 0x3 DUP4 SWAP1 SHL SHR NOT AND SWAP1 DUP7 SHL OR DUP2 SSTORE JUMPDEST DUP2 MLOAD SWAP4 DUP5 GT PUSH3 0x2D7 JUMPI DUP5 SLOAD DUP6 DUP2 DUP2 SHR SWAP2 AND DUP1 ISZERO PUSH3 0x2CC JUMPI JUMPDEST DUP8 DUP3 LT EQ PUSH3 0x2B8 JUMPI DUP4 DUP2 GT PUSH3 0x270 JUMPI JUMPDEST POP DUP6 SWAP3 DUP5 GT PUSH1 0x1 EQ PUSH3 0x20F JUMPI DUP4 SWAP5 SWAP6 SWAP7 SWAP8 POP SWAP3 PUSH3 0x203 JUMPI JUMPDEST POP POP PUSH1 0x0 NOT PUSH1 0x3 DUP4 SWAP1 SHL SHR NOT AND SWAP1 DUP3 SHL OR DUP2 SSTORE JUMPDEST DUP1 PUSH1 0x7 SSTORE PUSH1 0xA SSTORE DUP2 ISZERO PUSH3 0x1BF JUMPI POP PUSH1 0x80 MSTORE PUSH3 0x171 CALLER PUSH3 0x405 JUMP JUMPDEST POP PUSH3 0x17D CALLER PUSH3 0x486 JUMP JUMPDEST POP PUSH3 0x189 CALLER PUSH3 0x529 JUMP JUMPDEST POP PUSH1 0x40 MLOAD PUSH2 0x231F SWAP1 DUP2 PUSH3 0x5C8 DUP3 CODECOPY PUSH1 0x80 MLOAD DUP2 DUP2 DUP2 PUSH2 0x3F0 ADD MSTORE DUP2 DUP2 PUSH2 0x57D ADD MSTORE DUP2 DUP2 PUSH2 0x14CF ADD MSTORE DUP2 DUP2 PUSH2 0x209D ADD MSTORE PUSH2 0x216F ADD MSTORE RETURN JUMPDEST PUSH1 0x64 SWAP1 PUSH1 0x40 MLOAD SWAP1 PUSH3 0x461BCD PUSH1 0xE5 SHL DUP3 MSTORE PUSH1 0x4 DUP3 ADD MSTORE PUSH1 0x19 PUSH1 0x24 DUP3 ADD MSTORE PUSH32 0x496E76616C696420616C6C6F776C697374206164647265737300000000000000 PUSH1 0x44 DUP3 ADD MSTORE REVERT JUMPDEST ADD MLOAD SWAP1 POP CODESIZE DUP1 PUSH3 0x140 JUMP JUMPDEST SWAP2 SWAP1 SWAP7 DUP4 AND SWAP7 DUP5 DUP4 MSTORE DUP6 DUP4 KECCAK256 SWAP3 JUMPDEST DUP9 DUP2 LT PUSH3 0x25A JUMPI POP DUP4 DUP6 SWAP7 SWAP8 SWAP9 LT PUSH3 0x240 JUMPI JUMPDEST POP POP POP DUP2 SHL ADD DUP2 SSTORE PUSH3 0x154 JUMP JUMPDEST ADD MLOAD PUSH1 0x0 NOT PUSH1 0xF8 DUP5 PUSH1 0x3 SHL AND SHR NOT AND SWAP1 SSTORE CODESIZE DUP1 DUP1 PUSH3 0x232 JUMP JUMPDEST DUP2 DUP4 ADD MLOAD DUP5 SSTORE SWAP3 DUP6 ADD SWAP3 SWAP2 DUP7 ADD SWAP2 DUP7 ADD PUSH3 0x21D JUMP JUMPDEST DUP6 DUP3 MSTORE DUP7 DUP3 KECCAK256 DUP5 DUP1 DUP8 ADD PUSH1 0x5 SHR DUP3 ADD SWAP3 DUP10 DUP9 LT PUSH3 0x2AE JUMPI JUMPDEST ADD PUSH1 0x5 SHR ADD SWAP1 DUP7 SWAP1 JUMPDEST DUP3 DUP2 LT PUSH3 0x2A2 JUMPI POP POP PUSH3 0x126 JUMP JUMPDEST DUP4 DUP2 SSTORE ADD DUP7 SWAP1 PUSH3 0x292 JUMP JUMPDEST SWAP3 POP DUP2 SWAP3 PUSH3 0x289 JUMP JUMPDEST PUSH4 0x4E487B71 PUSH1 0xE0 SHL DUP3 MSTORE PUSH1 0x22 PUSH1 0x4 MSTORE PUSH1 0x24 DUP3 REVERT JUMPDEST SWAP1 PUSH1 0x7F AND SWAP1 PUSH3 0x114 JUMP JUMPDEST PUSH4 0x4E487B71 PUSH1 0xE0 SHL DUP2 MSTORE PUSH1 0x41 PUSH1 0x4 MSTORE PUSH1 0x24 SWAP1 REVERT JUMPDEST ADD MLOAD SWAP1 POP CODESIZE DUP1 PUSH3 0xE6 JUMP JUMPDEST SWAP1 DUP12 DUP10 SWAP5 AND SWAP2 DUP6 DUP1 MSTORE DUP11 DUP7 KECCAK256 SWAP3 DUP7 JUMPDEST DUP13 DUP3 DUP3 LT PUSH3 0x341 JUMPI POP POP DUP5 GT PUSH3 0x327 JUMPI JUMPDEST POP POP POP DUP2 SHL ADD DUP2 SSTORE PUSH3 0xFA JUMP JUMPDEST ADD MLOAD PUSH1 0x0 NOT PUSH1 0xF8 DUP5 PUSH1 0x3 SHL AND SHR NOT AND SWAP1 SSTORE CODESIZE DUP1 DUP1 PUSH3 0x319 JUMP JUMPDEST DUP4 DUP6 ADD MLOAD DUP7 SSTORE DUP13 SWAP8 SWAP1 SWAP6 ADD SWAP5 SWAP4 DUP5 ADD SWAP4 ADD PUSH3 0x306 JUMP JUMPDEST SWAP1 SWAP2 POP DUP4 DUP1 MSTORE DUP9 DUP5 KECCAK256 DUP7 DUP1 DUP6 ADD PUSH1 0x5 SHR DUP3 ADD SWAP3 DUP12 DUP7 LT PUSH3 0x3A1 JUMPI JUMPDEST SWAP2 DUP11 SWAP2 DUP7 SWAP6 SWAP5 SWAP4 ADD PUSH1 0x5 SHR ADD SWAP2 JUMPDEST DUP3 DUP2 LT PUSH3 0x392 JUMPI POP POP PUSH3 0xD0 JUMP JUMPDEST DUP7 DUP2 SSTORE DUP6 SWAP5 POP DUP11 SWAP2 ADD PUSH3 0x382 JUMP JUMPDEST SWAP3 POP DUP2 SWAP3 PUSH3 0x374 JUMP JUMPDEST PUSH4 0x4E487B71 PUSH1 0xE0 SHL DUP5 MSTORE PUSH1 0x22 PUSH1 0x4 MSTORE PUSH1 0x24 DUP5 REVERT JUMPDEST SWAP1 PUSH1 0x7F AND SWAP1 PUSH3 0xBB JUMP JUMPDEST PUSH4 0x4E487B71 PUSH1 0xE0 SHL PUSH1 0x0 MSTORE PUSH1 0x41 PUSH1 0x4 MSTORE PUSH1 0x24 PUSH1 0x0 REVERT JUMPDEST PUSH1 0x0 DUP1 REVERT JUMPDEST PUSH1 0x40 DUP1 MLOAD SWAP2 SWAP1 DUP3 ADD PUSH1 0x1 PUSH1 0x1 PUSH1 0x40 SHL SUB DUP2 GT DUP4 DUP3 LT OR PUSH3 0x3CA JUMPI PUSH1 0x40 MSTORE JUMP JUMPDEST PUSH1 0x1 PUSH1 0x1 PUSH1 0xA0 SHL SUB AND PUSH1 0x0 DUP2 DUP2 MSTORE PUSH32 0x54CDD369E4E8A8515E52CA72EC816C2101831AD1F18BF44102ED171459C9B4F8 PUSH1 0x20 MSTORE PUSH1 0x40 DUP2 KECCAK256 SLOAD SWAP1 SWAP2 SWAP1 PUSH1 0xFF AND PUSH3 0x482 JUMPI DUP2 DUP1 MSTORE PUSH1 0x6 PUSH1 0x20 MSTORE PUSH1 0x40 DUP3 KECCAK256 DUP2 DUP4 MSTORE PUSH1 0x20 MSTORE PUSH1 0x40 DUP3 KECCAK256 PUSH1 0x1 PUSH1 0xFF NOT DUP3 SLOAD AND OR SWAP1 SSTORE CALLER SWAP2 PUSH1 0x0 DUP1 MLOAD PUSH1 0x20 PUSH3 0x28E7 DUP4 CODECOPY DUP2 MLOAD SWAP2 MSTORE DUP2 DUP1 LOG4 PUSH1 0x1 SWAP1 JUMP JUMPDEST POP SWAP1 JUMP JUMPDEST PUSH1 0x1 PUSH1 0x1 PUSH1 0xA0 SHL SUB AND PUSH1 0x0 DUP2 DUP2 MSTORE PUSH32 0x6E891EA7DB4D1633822AF4F6A64073B5D7597C864A3DCCEE2EE6B7F25C837BBD PUSH1 0x20 MSTORE PUSH1 0x40 DUP2 KECCAK256 SLOAD SWAP1 SWAP2 SWAP1 PUSH32 0xB1FADD3142AB2AD7F1337EA4D97112BCC8337FC11CE5B20CB04AD038ADF99819 SWAP1 PUSH1 0xFF AND PUSH3 0x524 JUMPI DUP1 DUP4 MSTORE PUSH1 0x6 PUSH1 0x20 MSTORE PUSH1 0x40 DUP4 KECCAK256 DUP3 DUP5 MSTORE PUSH1 0x20 MSTORE PUSH1 0x40 DUP4 KECCAK256 PUSH1 0x1 PUSH1 0xFF NOT DUP3 SLOAD AND OR SWAP1 SSTORE PUSH1 0x0 DUP1 MLOAD PUSH1 0x20 PUSH3 0x28E7 DUP4 CODECOPY DUP2 MLOAD SWAP2 MSTORE CALLER SWAP4 DUP1 LOG4 PUSH1 0x1 SWAP1 JUMP JUMPDEST POP POP SWAP1 JUMP JUMPDEST PUSH1 0x1 PUSH1 0x1 PUSH1 0xA0 SHL SUB AND PUSH1 0x0 DUP2 DUP2 MSTORE PUSH32 0xD1A890BF818AFA572802200688A7D376F87D9FCC58C522C6F18ADFC2A8443291 PUSH1 0x20 MSTORE PUSH1 0x40 DUP2 KECCAK256 SLOAD SWAP1 SWAP2 SWAP1 PUSH32 0xB6F0283BD1ED00C6AA7E988A7516070240F3610A34D167391359B648EB37CEFC SWAP1 PUSH1 0xFF AND PUSH3 0x524 JUMPI DUP1 DUP4 MSTORE PUSH1 0x6 PUSH1 0x20 MSTORE PUSH1 0x40 DUP4 KECCAK256 DUP3 DUP5 MSTORE PUSH1 0x20 MSTORE PUSH1 0x40 DUP4 KECCAK256 PUSH1 0x1 PUSH1 0xFF NOT DUP3 SLOAD AND OR SWAP1 SSTORE PUSH1 0x0 DUP1 MLOAD PUSH1 0x20 PUSH3 0x28E7 DUP4 CODECOPY DUP2 MLOAD SWAP2 MSTORE CALLER SWAP4 DUP1 LOG4 PUSH1 0x1 SWAP1 JUMP INVALID PUSH1 0x80 DUP1 PUSH1 0x40 MSTORE PUSH1 0x4 CALLDATASIZE LT ISZERO PUSH2 0x13 JUMPI PUSH1 0x0 DUP1 REVERT JUMPDEST PUSH1 0x0 SWAP1 DUP2 CALLDATALOAD PUSH1 0xE0 SHR SWAP1 DUP2 PUSH4 0x1FFC9A7 EQ PUSH2 0x16C2 JUMPI POP DUP1 PUSH4 0x6FDDE03 EQ PUSH2 0x161E JUMPI DUP1 PUSH4 0x81812FC EQ PUSH2 0x15E1 JUMPI DUP1 PUSH4 0x95EA7B3 EQ PUSH2 0x14FE JUMPI DUP1 PUSH4 0xAD5B98C EQ PUSH2 0x14B9 JUMPI DUP1 PUSH4 0x11A84E73 EQ PUSH2 0x143B JUMPI DUP1 PUSH4 0x198596B5 EQ PUSH2 0x1400 JUMPI DUP1 PUSH4 0x23B872DD EQ PUSH2 0x13E8 JUMPI DUP1 PUSH4 0x248A9CA3 EQ PUSH2 0x13BB JUMPI DUP1 PUSH4 0x28F5BC6A EQ PUSH2 0x12AF JUMPI DUP1 PUSH4 0x2D88AF4A EQ PUSH2 0x119C JUMPI DUP1 PUSH4 0x2F2FF15D EQ PUSH2 0x115E JUMPI DUP1 PUSH4 0x36568ABE EQ PUSH2 0x1116 JUMPI DUP1 PUSH4 0x3F4BA83A EQ PUSH2 0x10AB JUMPI DUP1 PUSH4 0x42842E0E EQ PUSH2 0x1083 JUMPI DUP1 PUSH4 0x5C975ABB EQ PUSH2 0x1060 JUMPI DUP1 PUSH4 0x5D7EC37D EQ PUSH2 0xCE9 JUMPI DUP1 PUSH4 0x6352211E EQ PUSH2 0xCB8 JUMPI DUP1 PUSH4 0x70A08231 EQ PUSH2 0xC60 JUMPI DUP1 PUSH4 0x8456CB59 EQ PUSH2 0xC05 JUMPI DUP1 PUSH4 0x91D14854 EQ PUSH2 0xBBC JUMPI DUP1 PUSH4 0x9318603A EQ PUSH2 0xA16 JUMPI DUP1 PUSH4 0x95D89B41 EQ PUSH2 0x933 JUMPI DUP1 PUSH4 0x9FC1D0E7 EQ PUSH2 0x73F JUMPI DUP1 PUSH4 0x9FD0506D EQ PUSH2 0x716 JUMPI DUP1 PUSH4 0xA0894799 EQ PUSH2 0x6E7 JUMPI DUP1 PUSH4 0xA217FDDF EQ PUSH2 0x6CB JUMPI DUP1 PUSH4 0xA22CB465 EQ PUSH2 0x622 JUMPI DUP1 PUSH4 0xA4B32DE8 EQ PUSH2 0x5E7 JUMPI DUP1 PUSH4 0xA52BA4E8 EQ PUSH2 0x53B JUMPI DUP1 PUSH4 0xB88D4FDE EQ PUSH2 0x4D7 JUMPI DUP1 PUSH4 0xC87B56DD EQ PUSH2 0x484 JUMPI DUP1 PUSH4 0xD1A81A8D EQ PUSH2 0x3B9 JUMPI DUP1 PUSH4 0xD547741F EQ PUSH2 0x377 JUMPI DUP1 PUSH4 0xD5C03CC9 EQ PUSH2 0x34F JUMPI DUP1 PUSH4 0xE1FF0F87 EQ PUSH2 0x325 JUMPI DUP1 PUSH4 0xE46638E6 EQ PUSH2 0x301 JUMPI DUP1 PUSH4 0xE63AB1E9 EQ PUSH2 0x2C6 JUMPI DUP1 PUSH4 0xE985E9C5 EQ PUSH2 0x272 JUMPI PUSH4 0xEAC8F5B8 EQ PUSH2 0x1D9 JUMPI PUSH1 0x0 DUP1 REVERT JUMPDEST CALLVALUE PUSH2 0x26F JUMPI PUSH1 0x20 CALLDATASIZE PUSH1 0x3 NOT ADD SLT PUSH2 0x26F JUMPI PUSH1 0x40 PUSH2 0x26B SWAP2 PUSH2 0x1F8 PUSH2 0x2276 JUMP JUMPDEST POP PUSH1 0x4 CALLDATALOAD DUP2 MSTORE PUSH1 0xB PUSH1 0x20 MSTORE KECCAK256 PUSH1 0x5 PUSH1 0x40 MLOAD SWAP2 PUSH2 0x213 DUP4 PUSH2 0x187F JUMP JUMPDEST PUSH2 0x221 PUSH1 0xFF DUP3 SLOAD AND DUP5 PUSH2 0x226A JUMP JUMPDEST PUSH1 0x1 DUP2 ADD SLOAD PUSH1 0x20 DUP5 ADD MSTORE PUSH1 0x2 DUP2 ADD SLOAD PUSH1 0x40 DUP5 ADD MSTORE PUSH2 0x241 PUSH1 0x3 DUP3 ADD PUSH2 0x1C57 JUMP JUMPDEST PUSH1 0x60 DUP5 ADD MSTORE PUSH1 0x4 DUP2 ADD SLOAD PUSH1 0x80 DUP5 ADD MSTORE ADD SLOAD PUSH1 0xA0 DUP3 ADD MSTORE PUSH1 0x40 MLOAD SWAP2 DUP3 SWAP2 PUSH1 0x20 DUP4 MSTORE PUSH1 0x20 DUP4 ADD SWAP1 PUSH2 0x1830 JUMP JUMPDEST SUB SWAP1 RETURN JUMPDEST DUP1 REVERT JUMPDEST POP CALLVALUE PUSH2 0x26F JUMPI PUSH1 0x40 CALLDATASIZE PUSH1 0x3 NOT ADD SLT PUSH2 0x26F JUMPI PUSH2 0x28C PUSH2 0x1798 JUMP JUMPDEST PUSH1 0x40 PUSH2 0x296 PUSH2 0x17B3 JUMP JUMPDEST SWAP3 PUSH1 0x1 DUP1 PUSH1 0xA0 SHL SUB DUP1 SWAP4 AND DUP2 MSTORE PUSH1 0x5 PUSH1 0x20 MSTORE KECCAK256 SWAP2 AND PUSH1 0x0 MSTORE PUSH1 0x20 MSTORE PUSH1 0x20 PUSH1 0xFF PUSH1 0x40 PUSH1 0x0 KECCAK256 SLOAD AND PUSH1 0x40 MLOAD SWAP1 ISZERO ISZERO DUP2 MSTORE RETURN JUMPDEST POP CALLVALUE PUSH2 0x26F JUMPI DUP1 PUSH1 0x3 NOT CALLDATASIZE ADD SLT PUSH2 0x26F JUMPI PUSH1 0x20 PUSH1 0x40 MLOAD PUSH32 0x65D7A28E3265B37A6474929F336521B332C1681B933F6CB9F3376673440D862A DUP2 MSTORE RETURN JUMPDEST POP CALLVALUE PUSH2 0x26F JUMPI PUSH1 0x20 PUSH2 0x31B PUSH2 0x315 CALLDATASIZE PUSH2 0x17D8 JUMP JUMPDEST SWAP2 PUSH2 0x2147 JUMP JUMPDEST PUSH1 0x40 MLOAD SWAP1 ISZERO ISZERO DUP2 MSTORE RETURN JUMPDEST POP CALLVALUE PUSH2 0x26F JUMPI DUP1 PUSH1 0x3 NOT CALLDATASIZE ADD SLT PUSH2 0x26F JUMPI PUSH1 0x8 DUP1 SLOAD PUSH1 0x40 MLOAD SWAP2 SHR PUSH1 0x1 PUSH1 0x1 PUSH1 0xA0 SHL SUB AND DUP2 MSTORE PUSH1 0x20 SWAP1 RETURN JUMPDEST POP CALLVALUE PUSH2 0x26F JUMPI PUSH1 0x40 CALLDATASIZE PUSH1 0x3 NOT ADD SLT PUSH2 0x26F JUMPI PUSH1 0x20 PUSH2 0x31B PUSH2 0x36E PUSH2 0x1798 JUMP JUMPDEST PUSH1 0x24 CALLDATALOAD SWAP1 PUSH2 0x2074 JUMP JUMPDEST POP CALLVALUE PUSH2 0x26F JUMPI PUSH1 0x40 CALLDATASIZE PUSH1 0x3 NOT ADD SLT PUSH2 0x26F JUMPI PUSH2 0x3B5 PUSH1 0x4 CALLDATALOAD PUSH2 0x397 PUSH2 0x17B3 JUMP JUMPDEST SWAP1 DUP1 DUP5 MSTORE PUSH1 0x6 PUSH1 0x20 MSTORE PUSH2 0x3B0 PUSH1 0x1 PUSH1 0x40 DUP7 KECCAK256 ADD SLOAD PUSH2 0x1A52 JUMP JUMPDEST PUSH2 0x1BA6 JUMP JUMPDEST POP DUP1 RETURN JUMPDEST POP CALLVALUE PUSH2 0x26F JUMPI PUSH1 0x40 CALLDATASIZE PUSH1 0x3 NOT ADD SLT PUSH2 0x26F JUMPI PUSH2 0x3D3 PUSH2 0x1798 JUMP JUMPDEST DUP2 PUSH2 0x3DC PUSH2 0x17C9 JUMP JUMPDEST SWAP2 PUSH2 0x3E5 PUSH2 0x1942 JUMP JUMPDEST PUSH1 0x1 PUSH1 0x1 PUSH1 0xA0 SHL SUB SWAP1 PUSH32 0x0 DUP3 AND SWAP1 DUP2 EXTCODESIZE ISZERO PUSH2 0x480 JUMPI DUP4 PUSH1 0x44 SWAP3 PUSH1 0x40 MLOAD SWAP7 DUP8 SWAP6 DUP7 SWAP5 PUSH4 0xD1A81A8D PUSH1 0xE0 SHL DUP7 MSTORE AND PUSH1 0x4 DUP6 ADD MSTORE ISZERO ISZERO PUSH1 0x24 DUP5 ADD MSTORE GAS CALL DUP1 ISZERO PUSH2 0x475 JUMPI PUSH2 0x44C JUMPI POP DUP1 RETURN JUMPDEST PUSH8 0xFFFFFFFFFFFFFFFF DUP2 GT PUSH2 0x461 JUMPI PUSH1 0x40 MSTORE DUP1 RETURN JUMPDEST PUSH4 0x4E487B71 PUSH1 0xE0 SHL DUP3 MSTORE PUSH1 0x41 PUSH1 0x4 MSTORE PUSH1 0x24 DUP3 REVERT JUMPDEST PUSH1 0x40 MLOAD RETURNDATASIZE DUP5 DUP3 RETURNDATACOPY RETURNDATASIZE SWAP1 REVERT JUMPDEST DUP4 DUP1 REVERT JUMPDEST POP CALLVALUE PUSH2 0x26F JUMPI PUSH1 0x20 CALLDATASIZE PUSH1 0x3 NOT ADD SLT PUSH2 0x26F JUMPI PUSH2 0x26B SWAP1 PUSH2 0x4A5 PUSH1 0x4 CALLDATALOAD PUSH2 0x2003 JUMP JUMPDEST POP DUP1 PUSH1 0x40 MLOAD PUSH2 0x4B3 DUP2 PUSH2 0x18B1 JUMP JUMPDEST MSTORE PUSH1 0x40 MLOAD SWAP1 PUSH2 0x4C1 DUP3 PUSH2 0x18B1 JUMP JUMPDEST DUP2 MSTORE PUSH1 0x40 MLOAD SWAP2 DUP3 SWAP2 PUSH1 0x20 DUP4 MSTORE PUSH1 0x20 DUP4 ADD SWAP1 PUSH2 0x1758 JUMP JUMPDEST POP CALLVALUE PUSH2 0x26F JUMPI PUSH1 0x80 CALLDATASIZE PUSH1 0x3 NOT ADD SLT PUSH2 0x26F JUMPI PUSH2 0x4F1 PUSH2 0x1798 JUMP JUMPDEST PUSH2 0x4F9 PUSH2 0x17B3 JUMP JUMPDEST PUSH1 0x64 CALLDATALOAD SWAP2 PUSH8 0xFFFFFFFFFFFFFFFF DUP4 GT PUSH2 0x480 JUMPI CALLDATASIZE PUSH1 0x23 DUP5 ADD SLT ISZERO PUSH2 0x480 JUMPI PUSH2 0x52E PUSH2 0x538 SWAP4 CALLDATASIZE SWAP1 PUSH1 0x24 DUP2 PUSH1 0x4 ADD CALLDATALOAD SWAP2 ADD PUSH2 0x190B JUMP JUMPDEST SWAP2 PUSH1 0x44 CALLDATALOAD SWAP2 PUSH2 0x1EAE JUMP JUMPDEST DUP1 RETURN JUMPDEST POP CALLVALUE PUSH2 0x26F JUMPI PUSH1 0x20 CALLDATASIZE PUSH1 0x3 NOT ADD SLT PUSH2 0x26F JUMPI PUSH1 0x24 PUSH1 0x20 PUSH2 0x559 PUSH2 0x1798 JUMP JUMPDEST PUSH1 0x40 MLOAD PUSH4 0x14A5749D PUSH1 0xE3 SHL DUP2 MSTORE PUSH1 0x1 PUSH1 0x1 PUSH1 0xA0 SHL SUB SWAP2 DUP3 AND PUSH1 0x4 DUP3 ADD MSTORE SWAP3 DUP4 SWAP2 DUP3 SWAP1 PUSH32 0x0 AND GAS STATICCALL SWAP1 DUP2 ISZERO PUSH2 0x475 JUMPI PUSH1 0x20 SWAP3 SWAP2 PUSH2 0x5BA JUMPI JUMPDEST POP PUSH1 0x40 MLOAD SWAP1 ISZERO ISZERO DUP2 MSTORE RETURN JUMPDEST PUSH2 0x5DA SWAP2 POP DUP3 RETURNDATASIZE DUP2 GT PUSH2 0x5E0 JUMPI JUMPDEST PUSH2 0x5D2 DUP2 DUP4 PUSH2 0x18CD JUMP JUMPDEST DUP2 ADD SWAP1 PUSH2 0x205C JUMP JUMPDEST CODESIZE PUSH2 0x5AF JUMP JUMPDEST POP RETURNDATASIZE PUSH2 0x5C8 JUMP JUMPDEST POP CALLVALUE PUSH2 0x26F JUMPI DUP1 PUSH1 0x3 NOT CALLDATASIZE ADD SLT PUSH2 0x26F JUMPI PUSH1 0x20 PUSH1 0x40 MLOAD PUSH32 0xB1FADD3142AB2AD7F1337EA4D97112BCC8337FC11CE5B20CB04AD038ADF99819 DUP2 MSTORE RETURN JUMPDEST POP CALLVALUE PUSH2 0x26F JUMPI PUSH1 0x40 CALLDATASIZE PUSH1 0x3 NOT ADD SLT PUSH2 0x26F JUMPI PUSH2 0x63C PUSH2 0x1798 JUMP JUMPDEST PUSH2 0x644 PUSH2 0x17C9 JUMP JUMPDEST PUSH1 0x1 PUSH1 0x1 PUSH1 0xA0 SHL SUB SWAP1 SWAP2 AND SWAP1 DUP2 ISZERO PUSH2 0x6B2 JUMPI CALLER DUP4 MSTORE PUSH1 0x5 PUSH1 0x20 MSTORE PUSH1 0x40 DUP4 KECCAK256 DUP3 DUP5 MSTORE PUSH1 0x20 MSTORE PUSH2 0x681 DUP2 PUSH1 0x40 DUP6 KECCAK256 SWAP1 PUSH1 0xFF DUP1 NOT DUP4 SLOAD AND SWAP2 ISZERO ISZERO AND OR SWAP1 SSTORE JUMP JUMPDEST PUSH1 0x40 MLOAD SWAP1 ISZERO ISZERO DUP2 MSTORE PUSH32 0x17307EAB39AB6107E8899845AD3D59BD9653F200F220920489CA2B5937696C31 PUSH1 0x20 CALLER SWAP3 LOG3 DUP1 RETURN JUMPDEST PUSH1 0x40 MLOAD PUSH4 0xB611743 PUSH1 0xE3 SHL DUP2 MSTORE PUSH1 0x4 DUP2 ADD DUP4 SWAP1 MSTORE PUSH1 0x24 SWAP1 REVERT JUMPDEST POP CALLVALUE PUSH2 0x26F JUMPI DUP1 PUSH1 0x3 NOT CALLDATASIZE ADD SLT PUSH2 0x26F JUMPI PUSH1 0x20 SWAP1 PUSH1 0x40 MLOAD SWAP1 DUP2 MSTORE RETURN JUMPDEST POP CALLVALUE PUSH2 0x26F JUMPI PUSH1 0x20 CALLDATASIZE PUSH1 0x3 NOT ADD SLT PUSH2 0x26F JUMPI PUSH1 0xFF PUSH1 0x40 PUSH1 0x20 SWAP3 PUSH1 0x4 CALLDATALOAD DUP2 MSTORE PUSH1 0xC DUP5 MSTORE KECCAK256 SLOAD AND PUSH1 0x40 MLOAD SWAP1 ISZERO ISZERO DUP2 MSTORE RETURN JUMPDEST POP CALLVALUE PUSH2 0x26F JUMPI DUP1 PUSH1 0x3 NOT CALLDATASIZE ADD SLT PUSH2 0x26F JUMPI PUSH1 0x9 SLOAD PUSH1 0x40 MLOAD PUSH1 0x1 PUSH1 0x1 PUSH1 0xA0 SHL SUB SWAP1 SWAP2 AND DUP2 MSTORE PUSH1 0x20 SWAP1 RETURN JUMPDEST POP CALLVALUE PUSH2 0x26F JUMPI PUSH2 0x74E CALLDATASIZE PUSH2 0x17D8 JUMP JUMPDEST SWAP2 PUSH2 0x757 PUSH2 0x1942 JUMP JUMPDEST PUSH1 0x2 PUSH1 0x7 SLOAD EQ PUSH2 0x921 JUMPI PUSH1 0x2 PUSH1 0x7 SSTORE PUSH2 0x76F DUP4 PUSH2 0x2003 JUMP JUMPDEST PUSH1 0x1 PUSH1 0x1 PUSH1 0xA0 SHL SUB SWAP3 DUP4 DUP4 AND SWAP3 SWAP2 DUP5 AND DUP4 SWAP1 SUB PUSH2 0x8DC JUMPI DUP4 AND SWAP3 DUP4 ISZERO PUSH2 0x8C3 JUMPI PUSH2 0x797 PUSH2 0x203E JUMP JUMPDEST DUP5 DUP7 MSTORE PUSH1 0x2 PUSH1 0x20 MSTORE PUSH1 0x40 DUP7 KECCAK256 SLOAD AND DUP1 ISZERO DUP1 ISZERO PUSH2 0x88E JUMPI JUMPDEST DUP5 DUP8 MSTORE PUSH1 0x3 PUSH1 0x20 MSTORE PUSH1 0x40 DUP8 KECCAK256 PUSH1 0x1 DUP2 SLOAD ADD SWAP1 SSTORE DUP6 DUP8 MSTORE PUSH1 0x2 PUSH1 0x20 MSTORE PUSH1 0x40 DUP8 KECCAK256 DUP6 PUSH12 0xFFFFFFFFFFFFFFFFFFFFFFFF PUSH1 0xA0 SHL DUP3 SLOAD AND OR SWAP1 SSTORE DUP6 DUP6 DUP4 PUSH32 0xDDF252AD1BE2C89B69C2B068FC378DAA952BA7F163C4A11628F55A4DF523B3EF DUP11 DUP1 LOG4 ISZERO PUSH2 0x829 JUMPI PUSH1 0x40 MLOAD PUSH4 0x7E273289 PUSH1 0xE0 SHL DUP2 MSTORE PUSH1 0x4 DUP2 ADD DUP7 SWAP1 MSTORE PUSH1 0x24 SWAP1 REVERT JUMPDEST DUP3 DUP2 SUB PUSH2 0x85E JUMPI POP POP PUSH32 0x7B3CE50C216D2CCF9919C6B9F1BFB33F0350A33010F188750B4AF38E00448138 DUP5 DUP1 LOG4 PUSH1 0x1 PUSH1 0x7 SSTORE DUP1 RETURN JUMPDEST PUSH1 0x40 MLOAD PUSH4 0x64283D7B PUSH1 0xE0 SHL DUP2 MSTORE PUSH1 0x1 PUSH1 0x1 PUSH1 0xA0 SHL SUB SWAP3 DUP4 AND PUSH1 0x4 DUP3 ADD MSTORE PUSH1 0x24 DUP2 ADD DUP7 SWAP1 MSTORE SWAP2 AND PUSH1 0x44 DUP3 ADD MSTORE PUSH1 0x64 SWAP1 REVERT JUMPDEST PUSH1 0x0 DUP7 DUP2 MSTORE PUSH1 0x4 PUSH1 0x20 MSTORE PUSH1 0x40 SWAP1 KECCAK256 DUP1 SLOAD PUSH1 0x1 PUSH1 0x1 PUSH1 0xA0 SHL SUB NOT AND SWAP1 SSTORE DUP2 DUP8 MSTORE PUSH1 0x3 PUSH1 0x20 MSTORE PUSH1 0x40 DUP8 KECCAK256 DUP1 SLOAD PUSH1 0x0 NOT ADD SWAP1 SSTORE PUSH2 0x7AE JUMP JUMPDEST PUSH1 0x40 MLOAD PUSH4 0x32505749 PUSH1 0xE1 SHL DUP2 MSTORE PUSH1 0x4 DUP2 ADD DUP8 SWAP1 MSTORE PUSH1 0x24 SWAP1 REVERT JUMPDEST PUSH1 0x40 MLOAD PUSH3 0x461BCD PUSH1 0xE5 SHL DUP2 MSTORE PUSH1 0x20 PUSH1 0x4 DUP3 ADD MSTORE PUSH1 0x17 PUSH1 0x24 DUP3 ADD MSTORE PUSH32 0x546F6B656E206E6F74206F776E65642062792066726F6D000000000000000000 PUSH1 0x44 DUP3 ADD MSTORE PUSH1 0x64 SWAP1 REVERT JUMPDEST PUSH1 0x40 MLOAD PUSH4 0x3EE5AEB5 PUSH1 0xE0 SHL DUP2 MSTORE PUSH1 0x4 SWAP1 REVERT JUMPDEST POP CALLVALUE PUSH2 0x26F JUMPI DUP1 PUSH1 0x3 NOT CALLDATASIZE ADD SLT PUSH2 0x26F JUMPI PUSH1 0x40 MLOAD SWAP1 DUP1 PUSH1 0x1 DUP1 SLOAD SWAP2 PUSH2 0x957 DUP4 PUSH2 0x1C1D JUMP JUMPDEST DUP1 DUP7 MSTORE SWAP3 DUP3 DUP2 AND SWAP1 DUP2 ISZERO PUSH2 0x9EC JUMPI POP PUSH1 0x1 EQ PUSH2 0x992 JUMPI JUMPDEST PUSH2 0x26B DUP6 PUSH2 0x97E DUP2 DUP8 SUB DUP3 PUSH2 0x18CD JUMP JUMPDEST PUSH1 0x40 MLOAD SWAP2 DUP3 SWAP2 PUSH1 0x20 DUP4 MSTORE PUSH1 0x20 DUP4 ADD SWAP1 PUSH2 0x1758 JUMP JUMPDEST SWAP3 POP DUP1 DUP4 MSTORE PUSH32 0xB10E2D527612073B26EECDFD717E6A320CF44B4AFAC2B0732D9FCBE2B7FA0CF6 JUMPDEST DUP3 DUP5 LT PUSH2 0x9D4 JUMPI POP POP POP DUP2 ADD PUSH1 0x20 ADD PUSH2 0x97E DUP3 PUSH2 0x26B PUSH2 0x96E JUMP JUMPDEST DUP1 SLOAD PUSH1 0x20 DUP6 DUP8 ADD DUP2 ADD SWAP2 SWAP1 SWAP2 MSTORE SWAP1 SWAP4 ADD SWAP3 DUP2 ADD PUSH2 0x9B9 JUMP JUMPDEST DUP7 SWAP6 POP PUSH2 0x26B SWAP7 SWAP4 POP PUSH1 0x20 SWAP3 POP PUSH2 0x97E SWAP5 SWAP2 POP PUSH1 0xFF NOT AND DUP3 DUP5 ADD MSTORE ISZERO ISZERO PUSH1 0x5 SHL DUP3 ADD ADD SWAP3 SWAP4 PUSH2 0x96E JUMP JUMPDEST POP CALLVALUE PUSH2 0x26F JUMPI PUSH1 0x20 DUP1 PUSH1 0x3 NOT CALLDATASIZE ADD SLT PUSH2 0xBB8 JUMPI PUSH1 0x4 CALLDATALOAD PUSH8 0xFFFFFFFFFFFFFFFF SWAP3 DUP4 DUP3 GT PUSH2 0x26F JUMPI CALLDATASIZE PUSH1 0x23 DUP4 ADD SLT ISZERO PUSH2 0x26F JUMPI DUP2 PUSH1 0x4 ADD CALLDATALOAD SWAP4 DUP5 GT PUSH2 0x26F JUMPI PUSH1 0x24 PUSH1 0x5 SWAP5 CALLDATASIZE DUP3 DUP3 DUP9 SHL DUP7 ADD ADD GT PUSH2 0xBB4 JUMPI PUSH2 0xA6F DUP2 PUSH2 0x22A7 JUMP JUMPDEST SWAP4 PUSH2 0xA7D PUSH1 0x40 MLOAD SWAP6 DUP7 PUSH2 0x18CD JUMP JUMPDEST DUP2 DUP6 MSTORE PUSH1 0x1F NOT PUSH2 0xA8C DUP4 PUSH2 0x22A7 JUMP JUMPDEST ADD DUP7 DUP6 JUMPDEST DUP3 DUP2 LT PUSH2 0xB9E JUMPI POP POP POP DUP4 JUMPDEST DUP3 DUP2 LT PUSH2 0xB01 JUMPI POP POP POP POP PUSH1 0x40 MLOAD SWAP3 DUP1 DUP5 ADD SWAP1 DUP1 DUP6 MSTORE DUP4 MLOAD DUP1 SWAP3 MSTORE DUP1 PUSH1 0x40 DUP4 DUP2 DUP9 ADD SWAP9 SHL DUP8 ADD ADD SWAP5 ADD SWAP3 SWAP6 JUMPDEST DUP3 DUP8 LT PUSH2 0xAD5 JUMPI DUP6 DUP6 SUB DUP7 RETURN JUMPDEST SWAP1 SWAP2 SWAP3 SWAP4 DUP3 DUP1 PUSH2 0xAF1 PUSH1 0x1 SWAP4 PUSH1 0x3F NOT DUP11 DUP3 SUB ADD DUP7 MSTORE DUP9 MLOAD PUSH2 0x1830 JUMP JUMPDEST SWAP7 ADD SWAP3 ADD SWAP7 ADD SWAP6 SWAP3 SWAP2 SWAP1 SWAP3 PUSH2 0xAC8 JUMP JUMPDEST DUP4 DUP2 DUP10 SHL DUP4 ADD ADD CALLDATALOAD DUP6 MSTORE PUSH1 0xB DUP8 MSTORE PUSH1 0x40 DUP6 KECCAK256 DUP9 PUSH1 0x40 MLOAD SWAP2 PUSH2 0xB21 DUP4 PUSH2 0x187F JUMP JUMPDEST PUSH2 0xB2F PUSH1 0xFF DUP3 SLOAD AND DUP5 PUSH2 0x226A JUMP JUMPDEST PUSH1 0x1 DUP2 ADD SLOAD DUP11 DUP5 ADD MSTORE PUSH1 0x2 DUP2 ADD SLOAD PUSH1 0x40 DUP5 ADD MSTORE PUSH2 0xB4E PUSH1 0x3 DUP3 ADD PUSH2 0x1C57 JUMP JUMPDEST PUSH1 0x60 DUP5 ADD MSTORE PUSH1 0x4 DUP2 ADD SLOAD PUSH1 0x80 DUP5 ADD MSTORE ADD SLOAD PUSH1 0xA0 DUP3 ADD MSTORE PUSH2 0xB6E DUP3 DUP9 PUSH2 0x22BF JUMP JUMPDEST MSTORE PUSH2 0xB79 DUP2 DUP8 PUSH2 0x22BF JUMP JUMPDEST POP PUSH1 0x0 NOT DUP2 EQ PUSH2 0xB8B JUMPI PUSH1 0x1 ADD PUSH2 0xA9C JUMP JUMPDEST PUSH4 0x4E487B71 PUSH1 0xE0 SHL DUP6 MSTORE PUSH1 0x11 PUSH1 0x4 MSTORE DUP4 DUP6 REVERT JUMPDEST PUSH2 0xBA6 PUSH2 0x2276 JUMP JUMPDEST DUP3 DUP3 DUP11 ADD ADD MSTORE ADD DUP8 SWAP1 PUSH2 0xA90 JUMP JUMPDEST DUP3 DUP1 REVERT JUMPDEST POP DUP1 REVERT JUMPDEST POP CALLVALUE PUSH2 0x26F JUMPI PUSH1 0x40 CALLDATASIZE PUSH1 0x3 NOT ADD SLT PUSH2 0x26F JUMPI PUSH1 0xFF PUSH1 0x40 PUSH1 0x20 SWAP3 PUSH2 0xBDD PUSH2 0x17B3 JUMP JUMPDEST PUSH1 0x4 CALLDATALOAD DUP3 MSTORE PUSH1 0x6 DUP6 MSTORE DUP3 DUP3 KECCAK256 PUSH1 0x1 PUSH1 0x1 PUSH1 0xA0 SHL SUB SWAP1 SWAP2 AND DUP3 MSTORE DUP5 MSTORE KECCAK256 SLOAD PUSH1 0x40 MLOAD SWAP2 AND ISZERO ISZERO DUP2 MSTORE RETURN JUMPDEST POP CALLVALUE PUSH2 0x26F JUMPI DUP1 PUSH1 0x3 NOT CALLDATASIZE ADD SLT PUSH2 0x26F JUMPI PUSH2 0xC1E PUSH2 0x19F6 JUMP JUMPDEST PUSH2 0xC26 PUSH2 0x203E JUMP JUMPDEST PUSH1 0x1 PUSH1 0xFF NOT PUSH1 0x8 SLOAD AND OR PUSH1 0x8 SSTORE PUSH32 0x62E78CEA01BEE320CD4E420270B5EA74000D11B0C9F74754EBDBFC544B05A258 PUSH1 0x20 PUSH1 0x40 MLOAD CALLER DUP2 MSTORE LOG1 DUP1 RETURN JUMPDEST POP CALLVALUE PUSH2 0x26F JUMPI PUSH1 0x20 CALLDATASIZE PUSH1 0x3 NOT ADD SLT PUSH2 0x26F JUMPI PUSH1 0x1 PUSH1 0x1 PUSH1 0xA0 SHL SUB PUSH2 0xC82 PUSH2 0x1798 JUMP JUMPDEST AND DUP1 ISZERO PUSH2 0xC9F JUMPI DUP2 PUSH1 0x40 SWAP2 PUSH1 0x20 SWAP4 MSTORE PUSH1 0x3 DUP4 MSTORE KECCAK256 SLOAD PUSH1 0x40 MLOAD SWAP1 DUP2 MSTORE RETURN JUMPDEST PUSH1 0x40 MLOAD PUSH4 0x22718AD9 PUSH1 0xE2 SHL DUP2 MSTORE PUSH1 0x4 DUP2 ADD DUP4 SWAP1 MSTORE PUSH1 0x24 SWAP1 REVERT JUMPDEST POP CALLVALUE PUSH2 0x26F JUMPI PUSH1 0x20 CALLDATASIZE PUSH1 0x3 NOT ADD SLT PUSH2 0x26F JUMPI PUSH1 0x20 PUSH2 0xCD7 PUSH1 0x4 CALLDATALOAD PUSH2 0x2003 JUMP JUMPDEST PUSH1 0x40 MLOAD PUSH1 0x1 PUSH1 0x1 PUSH1 0xA0 SHL SUB SWAP1 SWAP2 AND DUP2 MSTORE RETURN JUMPDEST POP CALLVALUE PUSH2 0x26F JUMPI PUSH1 0x80 CALLDATASIZE PUSH1 0x3 NOT ADD SLT PUSH2 0x26F JUMPI PUSH1 0x4 DUP1 CALLDATALOAD LT ISZERO PUSH2 0x26F JUMPI PUSH8 0xFFFFFFFFFFFFFFFF PUSH1 0x64 CALLDATALOAD DUP2 DUP2 GT PUSH2 0xBB4 JUMPI CALLDATASIZE PUSH1 0x23 DUP3 ADD SLT ISZERO PUSH2 0xBB4 JUMPI DUP1 PUSH1 0x4 ADD CALLDATALOAD SWAP1 DUP3 DUP3 GT PUSH2 0x480 JUMPI PUSH1 0x24 SWAP2 DUP3 DUP3 ADD SWAP2 DUP4 DUP3 CALLDATASIZE SWAP3 ADD ADD GT PUSH2 0x105C JUMPI PUSH32 0xB1FADD3142AB2AD7F1337EA4D97112BCC8337FC11CE5B20CB04AD038ADF99819 DUP1 DUP7 MSTORE PUSH1 0x6 PUSH1 0x20 MSTORE PUSH1 0x40 DUP7 KECCAK256 CALLER DUP8 MSTORE PUSH1 0x20 MSTORE PUSH1 0xFF PUSH1 0x40 DUP8 KECCAK256 SLOAD AND ISZERO PUSH2 0x103F JUMPI POP PUSH2 0xD8E CALLDATASIZE DUP3 DUP5 PUSH2 0x190B JUMP JUMPDEST PUSH1 0x20 DUP2 MLOAD SWAP2 ADD KECCAK256 SWAP4 DUP5 DUP7 MSTORE PUSH1 0xD PUSH1 0x20 MSTORE PUSH1 0x40 DUP7 KECCAK256 SLOAD PUSH2 0x1004 JUMPI PUSH1 0xA SLOAD SWAP5 PUSH1 0x1 DUP7 ADD PUSH1 0xA SSTORE DUP7 MSTORE PUSH1 0xD PUSH1 0x20 MSTORE DUP5 PUSH1 0x40 DUP8 KECCAK256 SSTORE PUSH1 0x40 MLOAD SWAP2 PUSH2 0xDCC DUP4 PUSH2 0x187F JUMP JUMPDEST PUSH2 0xDD8 PUSH1 0x4 CALLDATALOAD DUP5 PUSH2 0x226A JUMP JUMPDEST PUSH2 0xDF5 PUSH1 0x20 DUP5 ADD SWAP5 DUP7 CALLDATALOAD DUP7 MSTORE PUSH1 0x40 DUP6 ADD SWAP3 PUSH1 0x44 CALLDATALOAD DUP5 MSTORE CALLDATASIZE SWAP2 PUSH2 0x190B JUMP JUMPDEST SWAP1 PUSH1 0x60 DUP5 ADD SWAP2 DUP3 MSTORE TIMESTAMP PUSH1 0x80 DUP6 ADD MSTORE DUP8 PUSH1 0xA0 DUP6 ADD MSTORE DUP7 DUP9 MSTORE PUSH1 0xB PUSH1 0x20 MSTORE PUSH1 0x40 DUP9 KECCAK256 SWAP5 DUP5 MLOAD PUSH1 0x4 DUP2 LT ISZERO PUSH2 0xFF1 JUMPI PUSH1 0xFF DUP1 NOT DUP9 SLOAD AND SWAP2 AND OR DUP7 SSTORE MLOAD PUSH1 0x1 DUP7 ADD SSTORE MLOAD PUSH1 0x2 DUP6 ADD SSTORE MLOAD DUP1 MLOAD SWAP2 DUP3 GT PUSH2 0xFDE JUMPI PUSH2 0xE50 PUSH1 0x3 DUP6 ADD SLOAD PUSH2 0x1C1D JUMP JUMPDEST PUSH1 0x1F DUP2 GT PUSH2 0xF9A JUMPI JUMPDEST POP PUSH1 0x20 SWAP7 DUP7 SWAP6 SWAP5 SWAP4 SWAP3 SWAP2 DUP9 SWAP2 PUSH1 0x1 PUSH1 0x1F DUP6 GT EQ PUSH2 0xF02 JUMPI SWAP4 DUP4 PUSH1 0x80 SWAP7 SWAP5 PUSH1 0x5 SWAP5 PUSH1 0xA0 SWAP5 PUSH32 0x6D6EE7DF9000AB7132FAA3536CB39E9B6F061B2FB0480F34B3B3828641659725 SWAP11 SWAP9 SWAP3 PUSH2 0xEF7 JUMPI JUMPDEST POP POP DUP2 PUSH1 0x1 SHL SWAP2 PUSH1 0x0 NOT SWAP1 PUSH1 0x3 SHL SHR NOT AND OR PUSH1 0x3 DUP6 ADD SSTORE JUMPDEST DUP6 DUP2 ADD MLOAD PUSH1 0x4 DUP6 ADD SSTORE ADD MLOAD SWAP2 ADD SSTORE PUSH1 0x40 MLOAD SWAP1 PUSH2 0xEDB DUP3 PUSH1 0x4 CALLDATALOAD PUSH2 0x180D JUMP JUMPDEST CALLDATALOAD DUP7 DUP3 ADD MSTORE PUSH1 0x44 CALLDATALOAD PUSH1 0x40 DUP3 ADD MSTORE TIMESTAMP PUSH1 0x60 DUP3 ADD MSTORE LOG2 PUSH1 0x40 MLOAD SWAP1 DUP2 MSTORE RETURN JUMPDEST ADD MLOAD SWAP1 POP CODESIZE DUP1 PUSH2 0xEA5 JUMP JUMPDEST SWAP2 SWAP1 PUSH1 0x3 DUP7 ADD DUP4 MSTORE DUP10 DUP4 KECCAK256 SWAP3 JUMPDEST PUSH1 0x1F NOT DUP6 AND DUP2 LT PUSH2 0xF80 JUMPI POP SWAP4 PUSH1 0x1 DUP5 PUSH1 0x5 SWAP5 PUSH1 0xA0 SWAP5 PUSH32 0x6D6EE7DF9000AB7132FAA3536CB39E9B6F061B2FB0480F34B3B3828641659725 SWAP11 SWAP9 PUSH1 0x80 SWAP11 SWAP9 PUSH1 0x1F NOT DUP2 AND LT PUSH2 0xF67 JUMPI JUMPDEST POP POP POP DUP2 SHL ADD PUSH1 0x3 DUP6 ADD SSTORE PUSH2 0xEBD JUMP JUMPDEST ADD MLOAD PUSH1 0x0 NOT PUSH1 0xF8 DUP5 PUSH1 0x3 SHL AND SHR NOT AND SWAP1 SSTORE CODESIZE DUP1 DUP1 PUSH2 0xF57 JUMP JUMPDEST DUP2 DUP4 ADD MLOAD DUP5 SSTORE DUP10 SWAP9 POP PUSH1 0x1 SWAP1 SWAP4 ADD SWAP3 SWAP2 DUP11 ADD SWAP2 DUP11 ADD PUSH2 0xF0F JUMP JUMPDEST PUSH1 0x3 DUP6 ADD DUP9 MSTORE PUSH1 0x20 DUP9 KECCAK256 PUSH1 0x1F DUP5 ADD PUSH1 0x5 SHR DUP2 ADD PUSH1 0x20 DUP6 LT PUSH2 0xFD7 JUMPI JUMPDEST PUSH1 0x1F DUP4 ADD PUSH1 0x5 SHR DUP3 ADD DUP2 LT PUSH2 0xFCC JUMPI POP POP PUSH2 0xE59 JUMP JUMPDEST DUP10 DUP2 SSTORE PUSH1 0x1 ADD PUSH2 0xFB6 JUMP JUMPDEST POP DUP1 PUSH2 0xFB6 JUMP JUMPDEST PUSH4 0x4E487B71 PUSH1 0xE0 SHL DUP8 MSTORE PUSH1 0x41 PUSH1 0x4 MSTORE DUP5 DUP8 REVERT JUMPDEST PUSH4 0x4E487B71 PUSH1 0xE0 SHL DUP11 MSTORE PUSH1 0x21 PUSH1 0x4 MSTORE DUP8 DUP11 REVERT JUMPDEST PUSH1 0x40 MLOAD PUSH3 0x461BCD PUSH1 0xE5 SHL DUP2 MSTORE PUSH1 0x20 PUSH1 0x4 DUP3 ADD MSTORE PUSH1 0x14 DUP2 DUP7 ADD MSTORE PUSH20 0x417373657420616C726561647920657869737473 PUSH1 0x60 SHL PUSH1 0x44 DUP3 ADD MSTORE PUSH1 0x64 SWAP1 REVERT JUMPDEST DUP4 PUSH1 0x44 SWAP2 PUSH1 0x40 MLOAD SWAP2 PUSH4 0xE2517D3F PUSH1 0xE0 SHL DUP4 MSTORE CALLER PUSH1 0x4 DUP5 ADD MSTORE DUP3 ADD MSTORE REVERT JUMPDEST DUP5 DUP1 REVERT JUMPDEST POP CALLVALUE PUSH2 0x26F JUMPI DUP1 PUSH1 0x3 NOT CALLDATASIZE ADD SLT PUSH2 0x26F JUMPI PUSH1 0x20 PUSH1 0xFF PUSH1 0x8 SLOAD AND PUSH1 0x40 MLOAD SWAP1 ISZERO ISZERO DUP2 MSTORE RETURN JUMPDEST POP CALLVALUE PUSH2 0x26F JUMPI PUSH2 0x538 PUSH2 0x1095 CALLDATASIZE PUSH2 0x17D8 JUMP JUMPDEST SWAP1 PUSH1 0x40 MLOAD SWAP3 PUSH2 0x10A3 DUP5 PUSH2 0x18B1 JUMP JUMPDEST DUP6 DUP5 MSTORE PUSH2 0x1EAE JUMP JUMPDEST POP CALLVALUE PUSH2 0x26F JUMPI DUP1 PUSH1 0x3 NOT CALLDATASIZE ADD SLT PUSH2 0x26F JUMPI PUSH2 0x10C4 PUSH2 0x19F6 JUMP JUMPDEST PUSH1 0x8 SLOAD PUSH1 0xFF DUP2 AND ISZERO PUSH2 0x1104 JUMPI PUSH1 0xFF NOT AND PUSH1 0x8 SSTORE PUSH32 0x5DB9EE0A495BF2E6FF9C91A7834C1BA4FDD244A5E8AA4E537BD38AEAE4B073AA PUSH1 0x20 PUSH1 0x40 MLOAD CALLER DUP2 MSTORE LOG1 DUP1 RETURN JUMPDEST PUSH1 0x40 MLOAD PUSH4 0x8DFC202B PUSH1 0xE0 SHL DUP2 MSTORE PUSH1 0x4 SWAP1 REVERT JUMPDEST POP CALLVALUE PUSH2 0x26F JUMPI PUSH1 0x40 CALLDATASIZE PUSH1 0x3 NOT ADD SLT PUSH2 0x26F JUMPI PUSH2 0x1130 PUSH2 0x17B3 JUMP JUMPDEST CALLER PUSH1 0x1 PUSH1 0x1 PUSH1 0xA0 SHL SUB DUP3 AND SUB PUSH2 0x114C JUMPI PUSH2 0x3B5 SWAP1 PUSH1 0x4 CALLDATALOAD PUSH2 0x1BA6 JUMP JUMPDEST PUSH1 0x40 MLOAD PUSH4 0x334BD919 PUSH1 0xE1 SHL DUP2 MSTORE PUSH1 0x4 SWAP1 REVERT JUMPDEST POP CALLVALUE PUSH2 0x26F JUMPI PUSH1 0x40 CALLDATASIZE PUSH1 0x3 NOT ADD SLT PUSH2 0x26F JUMPI PUSH2 0x3B5 PUSH1 0x4 CALLDATALOAD PUSH2 0x117E PUSH2 0x17B3 JUMP JUMPDEST SWAP1 DUP1 DUP5 MSTORE PUSH1 0x6 PUSH1 0x20 MSTORE PUSH2 0x1197 PUSH1 0x1 PUSH1 0x40 DUP7 KECCAK256 ADD SLOAD PUSH2 0x1A52 JUMP JUMPDEST PUSH2 0x1B2B JUMP JUMPDEST POP CALLVALUE PUSH2 0x26F JUMPI PUSH1 0x20 CALLDATASIZE PUSH1 0x3 NOT ADD SLT PUSH2 0x26F JUMPI PUSH2 0x11B6 PUSH2 0x1798 JUMP JUMPDEST PUSH2 0x11BE PUSH2 0x19BC JUMP JUMPDEST PUSH1 0x9 SLOAD PUSH1 0xFF DUP2 PUSH1 0xA0 SHR AND PUSH2 0x1275 JUMPI PUSH1 0x1 PUSH1 0x1 PUSH1 0xA0 SHL SUB DUP3 AND SWAP2 DUP3 ISZERO PUSH2 0x1237 JUMPI DUP3 PUSH2 0x11FC SWAP3 PUSH12 0xFFFFFFFFFFFFFFFFFFFFFFFF PUSH1 0xA0 SHL AND OR PUSH1 0x9 SSTORE PUSH2 0x1A78 JUMP JUMPDEST POP PUSH1 0x9 DUP1 SLOAD PUSH1 0xFF PUSH1 0xA0 SHL NOT AND PUSH1 0x1 PUSH1 0xA0 SHL OR SWAP1 SSTORE PUSH32 0xD11D57C2C7468878B1035DF11C670BCD0091AA840BF8AA166365397622237BEA DUP3 DUP1 LOG2 DUP1 RETURN JUMPDEST PUSH1 0x40 MLOAD PUSH3 0x461BCD PUSH1 0xE5 SHL DUP2 MSTORE PUSH1 0x20 PUSH1 0x4 DUP3 ADD MSTORE PUSH1 0x16 PUSH1 0x24 DUP3 ADD MSTORE PUSH22 0x496E76616C6964207061757365722061646472657373 PUSH1 0x50 SHL PUSH1 0x44 DUP3 ADD MSTORE PUSH1 0x64 SWAP1 REVERT JUMPDEST PUSH1 0x40 MLOAD PUSH3 0x461BCD PUSH1 0xE5 SHL DUP2 MSTORE PUSH1 0x20 PUSH1 0x4 DUP3 ADD MSTORE PUSH1 0x12 PUSH1 0x24 DUP3 ADD MSTORE PUSH18 0x14185D5CD95C88185B1C9958591E481CD95D PUSH1 0x72 SHL PUSH1 0x44 DUP3 ADD MSTORE PUSH1 0x64 SWAP1 REVERT JUMPDEST POP CALLVALUE PUSH2 0x26F JUMPI PUSH1 0x20 CALLDATASIZE PUSH1 0x3 NOT ADD SLT PUSH2 0x26F JUMPI PUSH2 0x12C9 PUSH2 0x1798 JUMP JUMPDEST PUSH2 0x12D1 PUSH2 0x19BC JUMP JUMPDEST PUSH1 0x8 SLOAD SWAP1 PUSH1 0xFF DUP3 PUSH1 0xA8 SHR AND PUSH2 0x1376 JUMPI PUSH1 0x1 PUSH1 0x1 PUSH1 0xA0 SHL SUB DUP2 AND SWAP2 DUP3 ISZERO PUSH2 0x133B JUMPI PUSH2 0x100 PUSH1 0x1 PUSH1 0xB0 SHL SUB NOT AND PUSH1 0x8 SWAP2 DUP3 SHL PUSH2 0x100 PUSH1 0x1 PUSH1 0xA8 SHL SUB AND OR PUSH1 0x1 PUSH1 0xA8 SHL OR SWAP1 SSTORE PUSH32 0xC25EECBDA7B7F176285751CCB7A783AC11A7B5CA5D3365D0467246A564E188E1 DUP3 DUP1 LOG2 DUP1 RETURN JUMPDEST PUSH1 0x40 MLOAD PUSH3 0x461BCD PUSH1 0xE5 SHL DUP2 MSTORE PUSH1 0x20 PUSH1 0x4 DUP3 ADD MSTORE PUSH1 0x13 PUSH1 0x24 DUP3 ADD MSTORE PUSH19 0x24B73B30B634B21039B430B932903A37B5B2B7 PUSH1 0x69 SHL PUSH1 0x44 DUP3 ADD MSTORE PUSH1 0x64 SWAP1 REVERT JUMPDEST PUSH1 0x40 MLOAD PUSH3 0x461BCD PUSH1 0xE5 SHL DUP2 MSTORE PUSH1 0x20 PUSH1 0x4 DUP3 ADD MSTORE PUSH1 0x17 PUSH1 0x24 DUP3 ADD MSTORE PUSH32 0x417373657453686172657320616C726561647920736574000000000000000000 PUSH1 0x44 DUP3 ADD MSTORE PUSH1 0x64 SWAP1 REVERT JUMPDEST POP CALLVALUE PUSH2 0x26F JUMPI PUSH1 0x20 CALLDATASIZE PUSH1 0x3 NOT ADD SLT PUSH2 0x26F JUMPI PUSH1 0x1 PUSH1 0x40 PUSH1 0x20 SWAP3 PUSH1 0x4 CALLDATALOAD DUP2 MSTORE PUSH1 0x6 DUP5 MSTORE KECCAK256 ADD SLOAD PUSH1 0x40 MLOAD SWAP1 DUP2 MSTORE RETURN JUMPDEST POP CALLVALUE PUSH2 0x26F JUMPI PUSH2 0x538 PUSH2 0x13FA CALLDATASIZE PUSH2 0x17D8 JUMP JUMPDEST SWAP2 PUSH2 0x1CFD JUMP JUMPDEST POP CALLVALUE PUSH2 0x26F JUMPI DUP1 PUSH1 0x3 NOT CALLDATASIZE ADD SLT PUSH2 0x26F JUMPI PUSH1 0x20 PUSH1 0x40 MLOAD PUSH32 0xB6F0283BD1ED00C6AA7E988A7516070240F3610A34D167391359B648EB37CEFC DUP2 MSTORE RETURN JUMPDEST POP CALLVALUE PUSH2 0x26F JUMPI PUSH1 0x40 CALLDATASIZE PUSH1 0x3 NOT ADD SLT PUSH2 0x26F JUMPI PUSH1 0x4 CALLDATALOAD PUSH2 0x1480 PUSH2 0x145B PUSH2 0x17C9 JUMP JUMPDEST PUSH2 0x1463 PUSH2 0x1942 JUMP JUMPDEST DUP3 DUP5 MSTORE PUSH1 0xC PUSH1 0x20 MSTORE PUSH1 0x40 DUP5 KECCAK256 SWAP1 PUSH1 0xFF DUP1 NOT DUP4 SLOAD AND SWAP2 ISZERO ISZERO AND OR SWAP1 SSTORE JUMP JUMPDEST PUSH1 0x1 PUSH1 0x1 PUSH1 0xA0 SHL SUB PUSH2 0x1491 DUP3 PUSH2 0x2003 JUMP JUMPDEST AND PUSH32 0x68E0D8C112165D0949CE87205B719ED7D98C7401866C34A159F7C67C6F5620E7 DUP4 DUP1 LOG3 DUP1 RETURN JUMPDEST POP CALLVALUE PUSH2 0x26F JUMPI DUP1 PUSH1 0x3 NOT CALLDATASIZE ADD SLT PUSH2 0x26F JUMPI PUSH1 0x40 MLOAD PUSH32 0x0 PUSH1 0x1 PUSH1 0x1 PUSH1 0xA0 SHL SUB AND DUP2 MSTORE PUSH1 0x20 SWAP1 RETURN JUMPDEST POP CALLVALUE PUSH2 0x26F JUMPI PUSH1 0x40 CALLDATASIZE PUSH1 0x3 NOT ADD SLT PUSH2 0x26F JUMPI PUSH2 0x1518 PUSH2 0x1798 JUMP JUMPDEST PUSH1 0x24 CALLDATALOAD PUSH2 0x1524 DUP2 PUSH2 0x2003 JUMP JUMPDEST CALLER ISZERO ISZERO DUP1 PUSH2 0x15CE JUMPI JUMPDEST DUP1 PUSH2 0x15A3 JUMPI JUMPDEST PUSH2 0x158B JUMPI PUSH1 0x1 PUSH1 0x1 PUSH1 0xA0 SHL SUB SWAP3 DUP4 AND SWAP3 DUP3 SWAP2 DUP5 SWAP2 AND PUSH32 0x8C5BE1E5EBEC7D5BD14F71427D1E84F3DD0314C0F7B2291E5B200AC8C7C3B925 DUP7 DUP1 LOG4 DUP3 MSTORE PUSH1 0x4 PUSH1 0x20 MSTORE PUSH1 0x40 DUP3 KECCAK256 DUP1 SLOAD PUSH1 0x1 PUSH1 0x1 PUSH1 0xA0 SHL SUB NOT AND SWAP1 SWAP2 OR SWAP1 SSTORE DUP1 RETURN JUMPDEST PUSH1 0x40 MLOAD PUSH4 0xA9FBF51F PUSH1 0xE0 SHL DUP2 MSTORE CALLER PUSH1 0x4 DUP3 ADD MSTORE PUSH1 0x24 SWAP1 REVERT JUMPDEST POP PUSH1 0x1 PUSH1 0x1 PUSH1 0xA0 SHL SUB DUP2 AND DUP5 MSTORE PUSH1 0x5 PUSH1 0x20 SWAP1 DUP2 MSTORE PUSH1 0x40 DUP1 DUP7 KECCAK256 CALLER DUP8 MSTORE SWAP1 SWAP2 MSTORE DUP5 KECCAK256 SLOAD PUSH1 0xFF AND ISZERO PUSH2 0x1533 JUMP JUMPDEST POP PUSH1 0x1 PUSH1 0x1 PUSH1 0xA0 SHL SUB DUP2 AND CALLER EQ ISZERO PUSH2 0x152D JUMP JUMPDEST POP CALLVALUE PUSH2 0x26F JUMPI PUSH1 0x20 CALLDATASIZE PUSH1 0x3 NOT ADD SLT PUSH2 0x26F JUMPI PUSH1 0x20 SWAP1 PUSH1 0x4 CALLDATALOAD PUSH2 0x1602 DUP2 PUSH2 0x2003 JUMP JUMPDEST POP DUP2 MSTORE PUSH1 0x4 DUP3 MSTORE PUSH1 0x40 PUSH1 0x1 DUP1 PUSH1 0xA0 SHL SUB SWAP2 KECCAK256 SLOAD AND PUSH1 0x40 MLOAD SWAP1 DUP2 MSTORE RETURN JUMPDEST POP CALLVALUE PUSH2 0x26F JUMPI DUP1 PUSH1 0x3 NOT CALLDATASIZE ADD SLT PUSH2 0x26F JUMPI PUSH1 0x40 MLOAD SWAP1 DUP1 DUP1 SLOAD PUSH2 0x163F DUP2 PUSH2 0x1C1D JUMP JUMPDEST DUP1 DUP6 MSTORE SWAP2 PUSH1 0x1 SWAP2 DUP1 DUP4 AND SWAP1 DUP2 ISZERO PUSH2 0x9EC JUMPI POP PUSH1 0x1 EQ PUSH2 0x1668 JUMPI PUSH2 0x26B DUP6 PUSH2 0x97E DUP2 DUP8 SUB DUP3 PUSH2 0x18CD JUMP JUMPDEST DUP1 DUP1 SWAP5 POP MSTORE PUSH32 0x290DECD9548B62A8D60345A988386FC84BA6BC95484008F6362F93160EF3E563 JUMPDEST DUP3 DUP5 LT PUSH2 0x16AA JUMPI POP POP POP DUP2 ADD PUSH1 0x20 ADD PUSH2 0x97E DUP3 PUSH2 0x26B PUSH2 0x96E JUMP JUMPDEST DUP1 SLOAD PUSH1 0x20 DUP6 DUP8 ADD DUP2 ADD SWAP2 SWAP1 SWAP2 MSTORE SWAP1 SWAP4 ADD SWAP3 DUP2 ADD PUSH2 0x168F JUMP JUMPDEST SWAP1 POP CALLVALUE PUSH2 0xBB8 JUMPI PUSH1 0x20 CALLDATASIZE PUSH1 0x3 NOT ADD SLT PUSH2 0xBB8 JUMPI PUSH1 0x4 CALLDATALOAD PUSH4 0xFFFFFFFF PUSH1 0xE0 SHL DUP2 AND DUP1 SWAP2 SUB PUSH2 0xBB4 JUMPI PUSH1 0x20 SWAP3 POP PUSH4 0x80AC58CD PUSH1 0xE0 SHL DUP2 EQ DUP1 ISZERO PUSH2 0x1748 JUMPI JUMPDEST DUP1 ISZERO PUSH2 0x1738 JUMPI JUMPDEST DUP1 SWAP2 DUP2 ISZERO PUSH2 0x1716 JUMPI JUMPDEST POP POP ISZERO ISZERO DUP2 MSTORE RETURN JUMPDEST PUSH4 0x7965DB0B PUSH1 0xE0 SHL EQ SWAP2 POP DUP2 ISZERO PUSH2 0x1730 JUMPI JUMPDEST POP CODESIZE DUP1 PUSH2 0x170E JUMP JUMPDEST SWAP1 POP CODESIZE PUSH2 0x1728 JUMP JUMPDEST POP PUSH4 0x1FFC9A7 PUSH1 0xE0 SHL DUP2 EQ PUSH2 0x1705 JUMP JUMPDEST POP PUSH4 0x5B5E139F PUSH1 0xE0 SHL DUP2 EQ PUSH2 0x16FE JUMP JUMPDEST SWAP2 SWAP1 DUP3 MLOAD SWAP3 DUP4 DUP3 MSTORE PUSH1 0x0 JUMPDEST DUP5 DUP2 LT PUSH2 0x1784 JUMPI POP POP DUP3 PUSH1 0x0 PUSH1 0x20 DUP1 SWAP5 SWAP6 DUP5 ADD ADD MSTORE PUSH1 0x1F DUP1 NOT SWAP2 ADD AND ADD ADD SWAP1 JUMP JUMPDEST PUSH1 0x20 DUP2 DUP4 ADD DUP2 ADD MLOAD DUP5 DUP4 ADD DUP3 ADD MSTORE ADD PUSH2 0x1763 JUMP JUMPDEST PUSH1 0x4 CALLDATALOAD SWAP1 PUSH1 0x1 PUSH1 0x1 PUSH1 0xA0 SHL SUB DUP3 AND DUP3 SUB PUSH2 0x17AE JUMPI JUMP JUMPDEST PUSH1 0x0 DUP1 REVERT JUMPDEST PUSH1 0x24 CALLDATALOAD SWAP1 PUSH1 0x1 PUSH1 0x1 PUSH1 0xA0 SHL SUB DUP3 AND DUP3 SUB PUSH2 0x17AE JUMPI JUMP JUMPDEST PUSH1 0x24 CALLDATALOAD SWAP1 DUP2 ISZERO ISZERO DUP3 SUB PUSH2 0x17AE JUMPI JUMP JUMPDEST PUSH1 0x60 SWAP1 PUSH1 0x3 NOT ADD SLT PUSH2 0x17AE JUMPI PUSH1 0x1 PUSH1 0x1 PUSH1 0xA0 SHL SUB SWAP1 PUSH1 0x4 CALLDATALOAD DUP3 DUP2 AND DUP2 SUB PUSH2 0x17AE JUMPI SWAP2 PUSH1 0x24 CALLDATALOAD SWAP1 DUP2 AND DUP2 SUB PUSH2 0x17AE JUMPI SWAP1 PUSH1 0x44 CALLDATALOAD SWAP1 JUMP JUMPDEST SWAP1 PUSH1 0x4 DUP3 LT ISZERO PUSH2 0x181A JUMPI MSTORE JUMP JUMPDEST PUSH4 0x4E487B71 PUSH1 0xE0 SHL PUSH1 0x0 MSTORE PUSH1 0x21 PUSH1 0x4 MSTORE PUSH1 0x24 PUSH1 0x0 REVERT JUMPDEST SWAP1 PUSH2 0x183C DUP2 DUP4 MLOAD PUSH2 0x180D JUMP JUMPDEST PUSH1 0x20 DUP3 ADD MLOAD PUSH1 0x20 DUP3 ADD MSTORE PUSH1 0x40 DUP3 ADD MLOAD PUSH1 0x40 DUP3 ADD MSTORE PUSH1 0xA0 DUP1 PUSH2 0x186C PUSH1 0x60 DUP6 ADD MLOAD PUSH1 0xC0 PUSH1 0x60 DUP7 ADD MSTORE PUSH1 0xC0 DUP6 ADD SWAP1 PUSH2 0x1758 JUMP JUMPDEST SWAP4 PUSH1 0x80 DUP2 ADD MLOAD PUSH1 0x80 DUP6 ADD MSTORE ADD MLOAD SWAP2 ADD MSTORE SWAP1 JUMP JUMPDEST PUSH1 0xC0 DUP2 ADD SWAP1 DUP2 LT PUSH8 0xFFFFFFFFFFFFFFFF DUP3 GT OR PUSH2 0x189B JUMPI PUSH1 0x40 MSTORE JUMP JUMPDEST PUSH4 0x4E487B71 PUSH1 0xE0 SHL PUSH1 0x0 MSTORE PUSH1 0x41 PUSH1 0x4 MSTORE PUSH1 0x24 PUSH1 0x0 REVERT JUMPDEST PUSH1 0x20 DUP2 ADD SWAP1 DUP2 LT PUSH8 0xFFFFFFFFFFFFFFFF DUP3 GT OR PUSH2 0x189B JUMPI PUSH1 0x40 MSTORE JUMP JUMPDEST SWAP1 PUSH1 0x1F DUP1 NOT SWAP2 ADD AND DUP2 ADD SWAP1 DUP2 LT PUSH8 0xFFFFFFFFFFFFFFFF DUP3 GT OR PUSH2 0x189B JUMPI PUSH1 0x40 MSTORE JUMP JUMPDEST PUSH8 0xFFFFFFFFFFFFFFFF DUP2 GT PUSH2 0x189B JUMPI PUSH1 0x1F ADD PUSH1 0x1F NOT AND PUSH1 0x20 ADD SWAP1 JUMP JUMPDEST SWAP3 SWAP2 SWAP3 PUSH2 0x1917 DUP3 PUSH2 0x18EF JUMP JUMPDEST SWAP2 PUSH2 0x1925 PUSH1 0x40 MLOAD SWAP4 DUP5 PUSH2 0x18CD JUMP JUMPDEST DUP3 SWAP5 DUP2 DUP5 MSTORE DUP2 DUP4 ADD GT PUSH2 0x17AE JUMPI DUP3 DUP2 PUSH1 0x20 SWAP4 DUP5 PUSH1 0x0 SWAP7 ADD CALLDATACOPY ADD ADD MSTORE JUMP JUMPDEST CALLER PUSH1 0x0 SWAP1 DUP2 MSTORE PUSH32 0xD1A890BF818AFA572802200688A7D376F87D9FCC58C522C6F18ADFC2A8443291 PUSH1 0x20 MSTORE PUSH1 0x40 SWAP1 KECCAK256 SLOAD PUSH32 0xB6F0283BD1ED00C6AA7E988A7516070240F3610A34D167391359B648EB37CEFC SWAP1 PUSH1 0xFF AND ISZERO PUSH2 0x199E JUMPI POP JUMP JUMPDEST PUSH1 0x44 SWAP1 PUSH1 0x40 MLOAD SWAP1 PUSH4 0xE2517D3F PUSH1 0xE0 SHL DUP3 MSTORE CALLER PUSH1 0x4 DUP4 ADD MSTORE PUSH1 0x24 DUP3 ADD MSTORE REVERT JUMPDEST CALLER PUSH1 0x0 SWAP1 DUP2 MSTORE PUSH32 0x54CDD369E4E8A8515E52CA72EC816C2101831AD1F18BF44102ED171459C9B4F8 PUSH1 0x20 MSTORE PUSH1 0x40 DUP2 KECCAK256 SLOAD PUSH1 0xFF AND ISZERO PUSH2 0x199E JUMPI POP JUMP JUMPDEST CALLER PUSH1 0x0 SWAP1 DUP2 MSTORE PUSH32 0xE09F975E15F8F53F24CBBC282B13C40B84DF485FCDB8D3997FA103DC5A4EF841 PUSH1 0x20 MSTORE PUSH1 0x40 SWAP1 KECCAK256 SLOAD PUSH32 0x65D7A28E3265B37A6474929F336521B332C1681B933F6CB9F3376673440D862A SWAP1 PUSH1 0xFF AND ISZERO PUSH2 0x199E JUMPI POP JUMP JUMPDEST DUP1 PUSH1 0x0 MSTORE PUSH1 0x6 PUSH1 0x20 MSTORE PUSH1 0x40 PUSH1 0x0 KECCAK256 CALLER PUSH1 0x0 MSTORE PUSH1 0x20 MSTORE PUSH1 0xFF PUSH1 0x40 PUSH1 0x0 KECCAK256 SLOAD AND ISZERO PUSH2 0x199E JUMPI POP JUMP JUMPDEST PUSH1 0x1 PUSH1 0x1 PUSH1 0xA0 SHL SUB AND PUSH1 0x0 DUP2 DUP2 MSTORE PUSH32 0xE09F975E15F8F53F24CBBC282B13C40B84DF485FCDB8D3997FA103DC5A4EF841 PUSH1 0x20 MSTORE PUSH1 0x40 DUP2 KECCAK256 SLOAD SWAP1 SWAP2 SWAP1 PUSH32 0x65D7A28E3265B37A6474929F336521B332C1681B933F6CB9F3376673440D862A SWAP1 PUSH1 0xFF AND PUSH2 0x1B26 JUMPI DUP1 DUP4 MSTORE PUSH1 0x6 PUSH1 0x20 MSTORE PUSH1 0x40 DUP4 KECCAK256 DUP3 DUP5 MSTORE PUSH1 0x20 MSTORE PUSH1 0x40 DUP4 KECCAK256 PUSH1 0x1 PUSH1 0xFF NOT DUP3 SLOAD AND OR SWAP1 SSTORE PUSH32 0x2F8788117E7EFF1D82E926EC794901D17C78024A50270940304540A733656F0D CALLER SWAP4 DUP1 LOG4 PUSH1 0x1 SWAP1 JUMP JUMPDEST POP POP SWAP1 JUMP JUMPDEST SWAP1 PUSH1 0x0 SWAP2 DUP1 DUP4 MSTORE PUSH1 0x6 PUSH1 0x20 MSTORE PUSH1 0x40 DUP4 KECCAK256 SWAP2 PUSH1 0x1 DUP1 PUSH1 0xA0 SHL SUB AND SWAP2 DUP3 DUP5 MSTORE PUSH1 0x20 MSTORE PUSH1 0xFF PUSH1 0x40 DUP5 KECCAK256 SLOAD AND ISZERO PUSH1 0x0 EQ PUSH2 0x1B26 JUMPI DUP1 DUP4 MSTORE PUSH1 0x6 PUSH1 0x20 MSTORE PUSH1 0x40 DUP4 KECCAK256 DUP3 DUP5 MSTORE PUSH1 0x20 MSTORE PUSH1 0x40 DUP4 KECCAK256 PUSH1 0x1 PUSH1 0xFF NOT DUP3 SLOAD AND OR SWAP1 SSTORE PUSH32 0x2F8788117E7EFF1D82E926EC794901D17C78024A50270940304540A733656F0D CALLER SWAP4 DUP1 LOG4 PUSH1 0x1 SWAP1 JUMP JUMPDEST SWAP1 PUSH1 0x0 SWAP2 DUP1 DUP4 MSTORE PUSH1 0x6 PUSH1 0x20 MSTORE PUSH1 0x40 DUP4 KECCAK256 SWAP2 PUSH1 0x1 DUP1 PUSH1 0xA0 SHL SUB AND SWAP2 DUP3 DUP5 MSTORE PUSH1 0x20 MSTORE PUSH1 0xFF PUSH1 0x40 DUP5 KECCAK256 SLOAD AND PUSH1 0x0 EQ PUSH2 0x1B26 JUMPI DUP1 DUP4 MSTORE PUSH1 0x6 PUSH1 0x20 MSTORE PUSH1 0x40 DUP4 KECCAK256 DUP3 DUP5 MSTORE PUSH1 0x20 MSTORE PUSH1 0x40 DUP4 KECCAK256 PUSH1 0xFF NOT DUP2 SLOAD AND SWAP1 SSTORE PUSH32 0xF6391F5C32D9C69D2A47EA670B442974B53935D1EDC7FD64EB21E047A839171B CALLER SWAP4 DUP1 LOG4 PUSH1 0x1 SWAP1 JUMP JUMPDEST SWAP1 PUSH1 0x1 DUP3 DUP2 SHR SWAP3 AND DUP1 ISZERO PUSH2 0x1C4D JUMPI JUMPDEST PUSH1 0x20 DUP4 LT EQ PUSH2 0x1C37 JUMPI JUMP JUMPDEST PUSH4 0x4E487B71 PUSH1 0xE0 SHL PUSH1 0x0 MSTORE PUSH1 0x22 PUSH1 0x4 MSTORE PUSH1 0x24 PUSH1 0x0 REVERT JUMPDEST SWAP2 PUSH1 0x7F AND SWAP2 PUSH2 0x1C2C JUMP JUMPDEST SWAP1 PUSH1 0x40 MLOAD SWAP2 DUP3 PUSH1 0x0 DUP3 SLOAD SWAP3 PUSH2 0x1C6B DUP5 PUSH2 0x1C1D JUMP JUMPDEST SWAP1 DUP2 DUP5 MSTORE PUSH1 0x1 SWAP5 DUP6 DUP2 AND SWAP1 DUP2 PUSH1 0x0 EQ PUSH2 0x1CDA JUMPI POP PUSH1 0x1 EQ PUSH2 0x1C97 JUMPI JUMPDEST POP POP PUSH2 0x1C95 SWAP3 POP SUB DUP4 PUSH2 0x18CD JUMP JUMPDEST JUMP JUMPDEST SWAP1 SWAP4 SWAP2 POP PUSH1 0x0 MSTORE PUSH1 0x20 SWAP1 DUP2 PUSH1 0x0 KECCAK256 SWAP4 PUSH1 0x0 SWAP2 JUMPDEST DUP2 DUP4 LT PUSH2 0x1CC2 JUMPI POP POP PUSH2 0x1C95 SWAP4 POP DUP3 ADD ADD CODESIZE DUP1 PUSH2 0x1C87 JUMP JUMPDEST DUP6 SLOAD DUP9 DUP5 ADD DUP6 ADD MSTORE SWAP5 DUP6 ADD SWAP5 DUP8 SWAP5 POP SWAP2 DUP4 ADD SWAP2 PUSH2 0x1CAA JUMP JUMPDEST SWAP2 POP POP PUSH2 0x1C95 SWAP5 POP PUSH1 0x20 SWAP3 POP PUSH1 0xFF NOT AND DUP3 DUP5 ADD MSTORE ISZERO ISZERO PUSH1 0x5 SHL DUP3 ADD ADD CODESIZE DUP1 PUSH2 0x1C87 JUMP JUMPDEST SWAP1 PUSH1 0x1 PUSH1 0x1 PUSH1 0xA0 SHL SUB SWAP1 DUP2 AND DUP1 ISZERO PUSH2 0x1E95 JUMPI PUSH2 0x1D17 PUSH2 0x203E JUMP JUMPDEST PUSH1 0x0 SWAP2 DUP5 DUP4 MSTORE DUP5 PUSH1 0x20 SWAP3 PUSH1 0x2 DUP5 MSTORE PUSH1 0x40 SWAP4 DUP4 DUP6 DUP8 KECCAK256 SLOAD AND SWAP6 DUP7 SWAP2 CALLER ISZERO ISZERO DUP1 PUSH2 0x1DFF JUMPI JUMPDEST POP SWAP1 PUSH1 0x2 PUSH32 0xDDF252AD1BE2C89B69C2B068FC378DAA952BA7F163C4A11628F55A4DF523B3EF SWAP3 DUP5 PUSH2 0x1DCC JUMPI JUMPDEST DUP6 DUP4 MSTORE PUSH1 0x3 DUP2 MSTORE DUP9 DUP4 KECCAK256 DUP1 SLOAD PUSH1 0x1 ADD SWAP1 SSTORE DUP7 DUP4 MSTORE MSTORE DUP7 DUP2 KECCAK256 DUP1 SLOAD PUSH1 0x1 PUSH1 0x1 PUSH1 0xA0 SHL SUB NOT AND DUP6 OR SWAP1 SSTORE DUP1 LOG4 DUP4 AND DUP3 SUB PUSH2 0x1D9E JUMPI POP POP POP POP JUMP JUMPDEST MLOAD PUSH4 0x64283D7B PUSH1 0xE0 SHL DUP2 MSTORE PUSH1 0x1 PUSH1 0x1 PUSH1 0xA0 SHL SUB SWAP3 DUP4 AND PUSH1 0x4 DUP3 ADD MSTORE PUSH1 0x24 DUP2 ADD SWAP4 SWAP1 SWAP4 MSTORE AND PUSH1 0x44 DUP3 ADD MSTORE PUSH1 0x64 SWAP1 REVERT JUMPDEST PUSH1 0x0 DUP8 DUP2 MSTORE PUSH1 0x4 PUSH1 0x20 MSTORE PUSH1 0x40 SWAP1 KECCAK256 DUP1 SLOAD PUSH1 0x1 PUSH1 0x1 PUSH1 0xA0 SHL SUB NOT AND SWAP1 SSTORE DUP5 DUP4 MSTORE PUSH1 0x3 DUP2 MSTORE DUP9 DUP4 KECCAK256 DUP1 SLOAD PUSH1 0x0 NOT ADD SWAP1 SSTORE PUSH2 0x1D66 JUMP JUMPDEST SWAP2 SWAP4 SWAP5 POP SWAP2 POP DUP1 PUSH2 0x1E54 JUMPI JUMPDEST ISZERO PUSH2 0x1E1B JUMPI DUP8 SWAP3 SWAP2 DUP7 SWAP2 CODESIZE PUSH2 0x1D3A JUMP JUMPDEST DUP5 DUP9 DUP8 PUSH2 0x1E38 JUMPI PUSH1 0x24 SWAP2 MLOAD SWAP1 PUSH4 0x7E273289 PUSH1 0xE0 SHL DUP3 MSTORE PUSH1 0x4 DUP3 ADD MSTORE REVERT JUMPDEST PUSH1 0x44 SWAP2 MLOAD SWAP1 PUSH4 0x177E802F PUSH1 0xE0 SHL DUP3 MSTORE CALLER PUSH1 0x4 DUP4 ADD MSTORE PUSH1 0x24 DUP3 ADD MSTORE REVERT JUMPDEST POP CALLER DUP7 EQ DUP1 ISZERO PUSH2 0x1E79 JUMPI JUMPDEST DUP1 PUSH2 0x1E0B JUMPI POP DUP8 DUP3 MSTORE PUSH1 0x4 DUP2 MSTORE CALLER DUP5 DUP7 DUP5 KECCAK256 SLOAD AND EQ PUSH2 0x1E0B JUMP JUMPDEST POP DUP6 DUP3 MSTORE PUSH1 0x5 DUP2 MSTORE DUP5 DUP3 KECCAK256 CALLER DUP4 MSTORE DUP2 MSTORE PUSH1 0xFF DUP6 DUP4 KECCAK256 SLOAD AND PUSH2 0x1E5F JUMP JUMPDEST PUSH1 0x40 MLOAD PUSH4 0x32505749 PUSH1 0xE1 SHL DUP2 MSTORE PUSH1 0x0 PUSH1 0x4 DUP3 ADD MSTORE PUSH1 0x24 SWAP1 REVERT JUMPDEST SWAP3 SWAP1 SWAP3 PUSH2 0x1EBC DUP4 DUP6 DUP4 PUSH2 0x1CFD JUMP JUMPDEST DUP4 EXTCODESIZE PUSH2 0x1EC9 JUMPI JUMPDEST POP POP POP POP JUMP JUMPDEST PUSH1 0x40 MLOAD PUSH4 0xA85BD01 PUSH1 0xE1 SHL DUP1 DUP3 MSTORE CALLER PUSH1 0x4 DUP4 ADD MSTORE PUSH1 0x1 PUSH1 0x1 PUSH1 0xA0 SHL SUB SWAP3 DUP4 AND PUSH1 0x24 DUP4 ADD MSTORE PUSH1 0x44 DUP3 ADD SWAP5 SWAP1 SWAP5 MSTORE PUSH1 0x80 PUSH1 0x64 DUP3 ADD MSTORE SWAP5 SWAP4 AND SWAP3 PUSH1 0x20 SWAP3 SWAP1 SWAP2 DUP6 SWAP1 PUSH2 0x1F15 SWAP1 PUSH1 0x84 DUP4 ADD SWAP1 PUSH2 0x1758 JUMP JUMPDEST SUB SWAP5 DUP4 DUP2 PUSH1 0x0 SWAP8 DUP2 DUP10 DUP10 GAS CALL DUP7 SWAP2 DUP2 PUSH2 0x1FBF JUMPI JUMPDEST POP PUSH2 0x1F8A JUMPI POP POP POP RETURNDATASIZE PUSH1 0x0 EQ PUSH2 0x1F81 JUMPI RETURNDATASIZE PUSH2 0x1F43 DUP2 PUSH2 0x18EF JUMP JUMPDEST SWAP1 PUSH2 0x1F51 PUSH1 0x40 MLOAD SWAP3 DUP4 PUSH2 0x18CD JUMP JUMPDEST DUP2 MSTORE DUP1 SWAP4 DUP3 RETURNDATASIZE SWAP3 ADD RETURNDATACOPY JUMPDEST DUP3 MLOAD SWAP3 DUP4 PUSH2 0x1F7C JUMPI PUSH1 0x40 MLOAD PUSH4 0x32505749 PUSH1 0xE1 SHL DUP2 MSTORE PUSH1 0x4 DUP2 ADD DUP5 SWAP1 MSTORE PUSH1 0x24 SWAP1 REVERT JUMPDEST ADD SWAP1 POP REVERT JUMPDEST PUSH1 0x60 SWAP3 POP PUSH2 0x1F5B JUMP JUMPDEST SWAP2 SWAP5 POP SWAP2 POP PUSH4 0xFFFFFFFF PUSH1 0xE0 SHL AND SUB PUSH2 0x1FA7 JUMPI POP CODESIZE DUP1 DUP1 DUP1 PUSH2 0x1EC3 JUMP JUMPDEST PUSH1 0x24 SWAP1 PUSH1 0x40 MLOAD SWAP1 PUSH4 0x32505749 PUSH1 0xE1 SHL DUP3 MSTORE PUSH1 0x4 DUP3 ADD MSTORE REVERT JUMPDEST SWAP1 SWAP2 POP DUP5 DUP2 DUP2 RETURNDATASIZE DUP4 GT PUSH2 0x1FFC JUMPI JUMPDEST PUSH2 0x1FD7 DUP2 DUP4 PUSH2 0x18CD JUMP JUMPDEST DUP2 ADD SUB SLT PUSH2 0x1FF8 JUMPI MLOAD PUSH1 0x1 PUSH1 0x1 PUSH1 0xE0 SHL SUB NOT DUP2 AND DUP2 SUB PUSH2 0x1FF8 JUMPI SWAP1 CODESIZE PUSH2 0x1F29 JUMP JUMPDEST DUP7 DUP1 REVERT JUMPDEST POP RETURNDATASIZE PUSH2 0x1FCD JUMP JUMPDEST PUSH1 0x0 DUP2 DUP2 MSTORE PUSH1 0x2 PUSH1 0x20 MSTORE PUSH1 0x40 SWAP1 KECCAK256 SLOAD PUSH1 0x1 PUSH1 0x1 PUSH1 0xA0 SHL SUB AND SWAP1 DUP2 ISZERO PUSH2 0x2026 JUMPI POP SWAP1 JUMP JUMPDEST PUSH1 0x24 SWAP1 PUSH1 0x40 MLOAD SWAP1 PUSH4 0x7E273289 PUSH1 0xE0 SHL DUP3 MSTORE PUSH1 0x4 DUP3 ADD MSTORE REVERT JUMPDEST PUSH1 0xFF PUSH1 0x8 SLOAD AND PUSH2 0x204A JUMPI JUMP JUMPDEST PUSH1 0x40 MLOAD PUSH4 0xD93C0665 PUSH1 0xE0 SHL DUP2 MSTORE PUSH1 0x4 SWAP1 REVERT JUMPDEST SWAP1 DUP2 PUSH1 0x20 SWAP2 SUB SLT PUSH2 0x17AE JUMPI MLOAD DUP1 ISZERO ISZERO DUP2 SUB PUSH2 0x17AE JUMPI SWAP1 JUMP JUMPDEST PUSH1 0x40 MLOAD PUSH4 0x14A5749D PUSH1 0xE3 SHL DUP2 MSTORE PUSH1 0x1 PUSH1 0x1 PUSH1 0xA0 SHL SUB SWAP2 DUP3 AND PUSH1 0x4 DUP3 ADD DUP2 SWAP1 MSTORE SWAP3 SWAP1 PUSH1 0x20 DUP2 PUSH1 0x24 DUP2 PUSH32 0x0 DUP8 AND GAS STATICCALL SWAP1 DUP2 ISZERO PUSH2 0x213B JUMPI PUSH1 0x0 SWAP2 PUSH2 0x211D JUMPI JUMPDEST POP ISZERO DUP1 ISZERO PUSH2 0x2111 JUMPI JUMPDEST DUP1 ISZERO PUSH2 0x20F9 JUMPI JUMPDEST PUSH2 0x20F1 JUMPI PUSH2 0x20EC SWAP1 PUSH2 0x2003 JUMP JUMPDEST AND EQ SWAP1 JUMP JUMPDEST POP POP POP PUSH1 0x0 SWAP1 JUMP JUMPDEST POP DUP1 PUSH1 0x0 MSTORE PUSH1 0xC PUSH1 0x20 MSTORE PUSH1 0xFF PUSH1 0x40 PUSH1 0x0 KECCAK256 SLOAD AND PUSH2 0x20DF JUMP JUMPDEST POP PUSH1 0xFF PUSH1 0x8 SLOAD AND PUSH2 0x20D8 JUMP JUMPDEST PUSH2 0x2135 SWAP2 POP PUSH1 0x20 RETURNDATASIZE DUP2 GT PUSH2 0x5E0 JUMPI PUSH2 0x5D2 DUP2 DUP4 PUSH2 0x18CD JUMP JUMPDEST CODESIZE PUSH2 0x20CF JUMP JUMPDEST PUSH1 0x40 MLOAD RETURNDATASIZE PUSH1 0x0 DUP3 RETURNDATACOPY RETURNDATASIZE SWAP1 REVERT JUMPDEST PUSH1 0x40 MLOAD PUSH4 0x14A5749D PUSH1 0xE3 SHL DUP1 DUP3 MSTORE PUSH1 0x1 PUSH1 0x1 PUSH1 0xA0 SHL SUB SWAP3 DUP4 AND PUSH1 0x4 DUP4 ADD DUP2 SWAP1 MSTORE SWAP5 SWAP3 SWAP4 PUSH1 0x20 SWAP3 PUSH32 0x0 DUP7 AND SWAP3 SWAP1 SWAP2 SWAP1 DUP5 DUP4 PUSH1 0x24 DUP2 DUP8 GAS STATICCALL DUP1 ISZERO PUSH2 0x213B JUMPI DUP8 SWAP4 PUSH1 0x0 SWAP2 PUSH2 0x224D JUMPI JUMPDEST POP ISZERO SWAP4 DUP5 ISZERO PUSH2 0x21FC JUMPI JUMPDEST POP POP POP POP SWAP1 DUP2 ISZERO PUSH2 0x21EF JUMPI JUMPDEST DUP2 ISZERO PUSH2 0x21D7 JUMPI JUMPDEST POP PUSH2 0x20F1 JUMPI PUSH2 0x20EC SWAP1 PUSH2 0x2003 JUMP JUMPDEST PUSH1 0xC SWAP2 POP DUP3 PUSH1 0x0 MSTORE MSTORE PUSH1 0xFF PUSH1 0x40 PUSH1 0x0 KECCAK256 SLOAD AND CODESIZE PUSH2 0x21C9 JUMP JUMPDEST PUSH1 0x8 SLOAD PUSH1 0xFF AND SWAP2 POP PUSH2 0x21C2 JUMP JUMPDEST DUP6 SWAP4 SWAP5 POP SWAP1 PUSH1 0x24 SWAP2 PUSH1 0x40 MLOAD SWAP6 DUP7 SWAP5 DUP6 SWAP4 DUP5 MSTORE AND PUSH1 0x4 DUP4 ADD MSTORE GAS STATICCALL SWAP1 DUP2 ISZERO PUSH2 0x213B JUMPI PUSH1 0x0 SWAP2 PUSH2 0x2230 JUMPI JUMPDEST POP ISZERO DUP4 CODESIZE DUP1 DUP1 PUSH2 0x21B6 JUMP JUMPDEST PUSH2 0x2247 SWAP2 POP DUP3 RETURNDATASIZE DUP5 GT PUSH2 0x5E0 JUMPI PUSH2 0x5D2 DUP2 DUP4 PUSH2 0x18CD JUMP JUMPDEST CODESIZE PUSH2 0x2225 JUMP JUMPDEST PUSH2 0x2264 SWAP2 POP DUP7 RETURNDATASIZE DUP9 GT PUSH2 0x5E0 JUMPI PUSH2 0x5D2 DUP2 DUP4 PUSH2 0x18CD JUMP JUMPDEST CODESIZE PUSH2 0x21AC JUMP JUMPDEST PUSH1 0x4 DUP3 LT ISZERO PUSH2 0x181A JUMPI MSTORE JUMP JUMPDEST PUSH1 0x40 MLOAD SWAP1 PUSH2 0x2283 DUP3 PUSH2 0x187F JUMP JUMPDEST PUSH1 0x0 PUSH1 0xA0 DUP4 DUP3 DUP2 MSTORE DUP3 PUSH1 0x20 DUP3 ADD MSTORE DUP3 PUSH1 0x40 DUP3 ADD MSTORE PUSH1 0x60 DUP1 DUP3 ADD MSTORE DUP3 PUSH1 0x80 DUP3 ADD MSTORE ADD MSTORE JUMP JUMPDEST PUSH8 0xFFFFFFFFFFFFFFFF DUP2 GT PUSH2 0x189B JUMPI PUSH1 0x5 SHL PUSH1 0x20 ADD SWAP1 JUMP JUMPDEST DUP1 MLOAD DUP3 LT ISZERO PUSH2 0x22D3 JUMPI PUSH1 0x20 SWAP2 PUSH1 0x5 SHL ADD ADD SWAP1 JUMP JUMPDEST PUSH4 0x4E487B71 PUSH1 0xE0 SHL PUSH1 0x0 MSTORE PUSH1 0x32 PUSH1 0x4 MSTORE PUSH1 0x24 PUSH1 0x0 REVERT INVALID LOG2 PUSH5 0x6970667358 0x22 SLT KECCAK256 DUP14 SWAP8 SWAP15 0xE7 DUP5 PUSH11 0xFB548317DB4D957A1B5637 SWAP11 PUSH10 0x3110503BAD8124259FD1 PUSH16 0x7A4E64736F6C634300081400332F8788 GT PUSH31 0x7EFF1D82E926EC794901D17C78024A50270940304540A733656F0D00000000 "},"methodIdentifiers":{"ASSET_MANAGER_ROLE()":"a4b32de8","COMPLIANCE_OFFICER_ROLE()":"198596b5","DEFAULT_ADMIN_ROLE()":"a217fddf","PAUSER_ROLE()":"e63ab1e9","approve(address,uint256)":"095ea7b3","assetShares()":"e1ff0f87","balanceOf(address)":"70a08231","canTransact(address,uint256)":"d5c03cc9","canTransfer(address,address,uint256)":"e46638e6","createAsset(uint8,uint256,uint256,string)":"5d7ec37d","forcedTransfer(address,address,uint256)":"9fc1d0e7","getAllAssets(uint256[])":"9318603a","getApproved(uint256)":"081812fc","getAsset(uint256)":"eac8f5b8","getRoleAdmin(bytes32)":"248a9ca3","grantRole(bytes32,address)":"2f2ff15d","hasRole(bytes32,address)":"91d14854","isApprovedForAll(address,address)":"e985e9c5","isFrozen(uint256)":"a0894799","isUserAllowed(address)":"a52ba4e8","name()":"06fdde03","ownerOf(uint256)":"6352211e","pause()":"8456cb59","paused()":"5c975abb","pauser()":"9fd0506d","renounceRole(bytes32,address)":"36568abe","revokeRole(bytes32,address)":"d547741f","safeTransferFrom(address,address,uint256)":"42842e0e","safeTransferFrom(address,address,uint256,bytes)":"b88d4fde","setApprovalForAll(address,bool)":"a22cb465","setAssetShares(address)":"28f5bc6a","setFrozenToken(uint256,bool)":"11a84e73","setPauser(address)":"2d88af4a","setUserAllowed(address,bool)":"d1a81a8d","supportsInterface(bytes4)":"01ffc9a7","symbol()":"95d89b41","tokenURI(uint256)":"c87b56dd","transferFrom(address,address,uint256)":"23b872dd","unpause()":"3f4ba83a","userAllowList()":"0ad5b98c"}}}}}