{"contracts/mocks/AssetVaultTestHelper.sol":{"AssetVaultTestHelper":{"abi":[{"inputs":[{"internalType":"address","name":"_userAllowList","type":"address"}],"stateMutability":"nonpayable","type":"constructor"},{"inputs":[],"name":"AccessControlBadConfirmation","type":"error"},{"inputs":[{"internalType":"address","name":"account","type":"address"},{"internalType":"bytes32","name":"neededRole","type":"bytes32"}],"name":"AccessControlUnauthorizedAccount","type":"error"},{"inputs":[{"internalType":"address","name":"sender","type":"address"},{"internalType":"uint256","name":"tokenId","type":"uint256"},{"internalType":"address","name":"owner","type":"address"}],"name":"ERC721IncorrectOwner","type":"error"},{"inputs":[{"internalType":"address","name":"operator","type":"address"},{"internalType":"uint256","name":"tokenId","type":"uint256"}],"name":"ERC721InsufficientApproval","type":"error"},{"inputs":[{"internalType":"address","name":"approver","type":"address"}],"name":"ERC721InvalidApprover","type":"error"},{"inputs":[{"internalType":"address","name":"operator","type":"address"}],"name":"ERC721InvalidOperator","type":"error"},{"inputs":[{"internalType":"address","name":"owner","type":"address"}],"name":"ERC721InvalidOwner","type":"error"},{"inputs":[{"internalType":"address","name":"receiver","type":"address"}],"name":"ERC721InvalidReceiver","type":"error"},{"inputs":[{"internalType":"address","name":"sender","type":"address"}],"name":"ERC721InvalidSender","type":"error"},{"inputs":[{"internalType":"uint256","name":"tokenId","type":"uint256"}],"name":"ERC721NonexistentToken","type":"error"},{"inputs":[],"name":"EnforcedPause","type":"error"},{"inputs":[],"name":"ExpectedPause","type":"error"},{"inputs":[],"name":"ReentrancyGuardReentrantCall","type":"error"},{"anonymous":false,"inputs":[{"indexed":true,"internalType":"address","name":"owner","type":"address"},{"indexed":true,"internalType":"address","name":"approved","type":"address"},{"indexed":true,"internalType":"uint256","name":"tokenId","type":"uint256"}],"name":"Approval","type":"event"},{"anonymous":false,"inputs":[{"indexed":true,"internalType":"address","name":"owner","type":"address"},{"indexed":true,"internalType":"address","name":"operator","type":"address"},{"indexed":false,"internalType":"bool","name":"approved","type":"bool"}],"name":"ApprovalForAll","type":"event"},{"anonymous":false,"inputs":[{"indexed":true,"internalType":"address","name":"assetShares","type":"address"}],"name":"AssetSharesSet","type":"event"},{"anonymous":false,"inputs":[{"indexed":true,"internalType":"uint256","name":"assetId","type":"uint256"},{"indexed":false,"internalType":"enum AssetVault.AssetStatus","name":"oldStatus","type":"uint8"},{"indexed":false,"internalType":"enum AssetVault.AssetStatus","name":"newStatus","type":"uint8"}],"name":"AssetStatusChanged","type":"event"},{"anonymous":false,"inputs":[{"indexed":true,"internalType":"uint256","name":"assetId","type":"uint256"},{"indexed":false,"internalType":"enum AssetVault.AssetStatus","name":"status","type":"uint8"},{"indexed":false,"internalType":"uint256","name":"capitalValue","type":"uint256"},{"indexed":false,"internalType":"uint256","name":"incomeValue","type":"uint256"},{"indexed":false,"internalType":"uint256","name":"timestamp","type":"uint256"}],"name":"AssetVaulted","type":"event"},{"anonymous":false,"inputs":[{"indexed":true,"internalType":"address","name":"from","type":"address"},{"indexed":true,"internalType":"address","name":"to","type":"address"},{"indexed":true,"internalType":"uint256","name":"tokenId","type":"uint256"}],"name":"ForcedTransfer","type":"event"},{"anonymous":false,"inputs":[{"indexed":true,"internalType":"address","name":"user","type":"address"},{"indexed":true,"internalType":"uint256","name":"tokenId","type":"uint256"}],"name":"Frozen","type":"event"},{"anonymous":false,"inputs":[{"indexed":false,"internalType":"address","name":"account","type":"address"}],"name":"Paused","type":"event"},{"anonymous":false,"inputs":[{"indexed":true,"internalType":"address","name":"pauser","type":"address"}],"name":"PauserSet","type":"event"},{"anonymous":false,"inputs":[{"indexed":true,"internalType":"bytes32","name":"role","type":"bytes32"},{"indexed":true,"internalType":"bytes32","name":"previousAdminRole","type":"bytes32"},{"indexed":true,"internalType":"bytes32","name":"newAdminRole","type":"bytes32"}],"name":"RoleAdminChanged","type":"event"},{"anonymous":false,"inputs":[{"indexed":true,"internalType":"bytes32","name":"role","type":"bytes32"},{"indexed":true,"internalType":"address","name":"account","type":"address"},{"indexed":true,"internalType":"address","name":"sender","type":"address"}],"name":"RoleGranted","type":"event"},{"anonymous":false,"inputs":[{"indexed":true,"internalType":"bytes32","name":"role","type":"bytes32"},{"indexed":true,"internalType":"address","name":"account","type":"address"},{"indexed":true,"internalType":"address","name":"sender","type":"address"}],"name":"RoleRevoked","type":"event"},{"anonymous":false,"inputs":[{"indexed":true,"internalType":"address","name":"from","type":"address"},{"indexed":true,"internalType":"address","name":"to","type":"address"},{"indexed":true,"internalType":"uint256","name":"tokenId","type":"uint256"}],"name":"Transfer","type":"event"},{"anonymous":false,"inputs":[{"indexed":false,"internalType":"address","name":"account","type":"address"}],"name":"Unpaused","type":"event"},{"inputs":[],"name":"ASSET_MANAGER_ROLE","outputs":[{"internalType":"bytes32","name":"","type":"bytes32"}],"stateMutability":"view","type":"function"},{"inputs":[],"name":"COMPLIANCE_OFFICER_ROLE","outputs":[{"internalType":"bytes32","name":"","type":"bytes32"}],"stateMutability":"view","type":"function"},{"inputs":[],"name":"DEFAULT_ADMIN_ROLE","outputs":[{"internalType":"bytes32","name":"","type":"bytes32"}],"stateMutability":"view","type":"function"},{"inputs":[],"name":"PAUSER_ROLE","outputs":[{"internalType":"bytes32","name":"","type":"bytes32"}],"stateMutability":"view","type":"function"},{"inputs":[{"internalType":"address","name":"to","type":"address"},{"internalType":"uint256","name":"tokenId","type":"uint256"}],"name":"approve","outputs":[],"stateMutability":"nonpayable","type":"function"},{"inputs":[],"name":"assetShares","outputs":[{"internalType":"address","name":"","type":"address"}],"stateMutability":"view","type":"function"},{"inputs":[{"internalType":"address","name":"owner","type":"address"}],"name":"balanceOf","outputs":[{"internalType":"uint256","name":"","type":"uint256"}],"stateMutability":"view","type":"function"},{"inputs":[{"internalType":"address","name":"user","type":"address"},{"internalType":"uint256","name":"tokenId","type":"uint256"}],"name":"canTransact","outputs":[{"internalType":"bool","name":"","type":"bool"}],"stateMutability":"view","type":"function"},{"inputs":[{"internalType":"address","name":"from","type":"address"},{"internalType":"address","name":"to","type":"address"},{"internalType":"uint256","name":"tokenId","type":"uint256"}],"name":"canTransfer","outputs":[{"internalType":"bool","name":"","type":"bool"}],"stateMutability":"view","type":"function"},{"inputs":[{"internalType":"enum AssetVault.AssetStatus","name":"status_","type":"uint8"},{"internalType":"uint256","name":"capitalValue_","type":"uint256"},{"internalType":"uint256","name":"incomeValue_","type":"uint256"},{"internalType":"string","name":"metadataURI_","type":"string"}],"name":"createAsset","outputs":[{"internalType":"uint256","name":"assetId","type":"uint256"}],"stateMutability":"nonpayable","type":"function"},{"inputs":[{"internalType":"address","name":"from","type":"address"},{"internalType":"address","name":"to","type":"address"},{"internalType":"uint256","name":"tokenId","type":"uint256"}],"name":"forcedTransfer","outputs":[],"stateMutability":"nonpayable","type":"function"},{"inputs":[{"internalType":"uint256[]","name":"assetIds","type":"uint256[]"}],"name":"getAllAssets","outputs":[{"components":[{"internalType":"enum AssetVault.AssetStatus","name":"status","type":"uint8"},{"internalType":"uint256","name":"capitalValue","type":"uint256"},{"internalType":"uint256","name":"incomeValue","type":"uint256"},{"internalType":"string","name":"metadataURI","type":"string"},{"internalType":"uint256","name":"createdAt","type":"uint256"},{"internalType":"uint256","name":"updatedAt","type":"uint256"}],"internalType":"struct AssetVault.Asset[]","name":"","type":"tuple[]"}],"stateMutability":"view","type":"function"},{"inputs":[{"internalType":"uint256","name":"tokenId","type":"uint256"}],"name":"getApproved","outputs":[{"internalType":"address","name":"","type":"address"}],"stateMutability":"view","type":"function"},{"inputs":[{"internalType":"uint256","name":"assetId","type":"uint256"}],"name":"getAsset","outputs":[{"components":[{"internalType":"enum AssetVault.AssetStatus","name":"status","type":"uint8"},{"internalType":"uint256","name":"capitalValue","type":"uint256"},{"internalType":"uint256","name":"incomeValue","type":"uint256"},{"internalType":"string","name":"metadataURI","type":"string"},{"internalType":"uint256","name":"createdAt","type":"uint256"},{"internalType":"uint256","name":"updatedAt","type":"uint256"}],"internalType":"struct AssetVault.Asset","name":"","type":"tuple"}],"stateMutability":"view","type":"function"},{"inputs":[{"internalType":"bytes32","name":"role","type":"bytes32"}],"name":"getRoleAdmin","outputs":[{"internalType":"bytes32","name":"","type":"bytes32"}],"stateMutability":"view","type":"function"},{"inputs":[{"internalType":"bytes32","name":"role","type":"bytes32"},{"internalType":"address","name":"account","type":"address"}],"name":"grantRole","outputs":[],"stateMutability":"nonpayable","type":"function"},{"inputs":[{"internalType":"bytes32","name":"role","type":"bytes32"},{"internalType":"address","name":"account","type":"address"}],"name":"hasRole","outputs":[{"internalType":"bool","name":"","type":"bool"}],"stateMutability":"view","type":"function"},{"inputs":[{"internalType":"address","name":"owner","type":"address"},{"internalType":"address","name":"operator","type":"address"}],"name":"isApprovedForAll","outputs":[{"internalType":"bool","name":"","type":"bool"}],"stateMutability":"view","type":"function"},{"inputs":[{"internalType":"uint256","name":"tokenId","type":"uint256"}],"name":"isFrozen","outputs":[{"internalType":"bool","name":"","type":"bool"}],"stateMutability":"view","type":"function"},{"inputs":[{"internalType":"address","name":"user","type":"address"}],"name":"isUserAllowed","outputs":[{"internalType":"bool","name":"","type":"bool"}],"stateMutability":"view","type":"function"},{"inputs":[],"name":"name","outputs":[{"internalType":"string","name":"","type":"string"}],"stateMutability":"view","type":"function"},{"inputs":[{"internalType":"uint256","name":"tokenId","type":"uint256"}],"name":"ownerOf","outputs":[{"internalType":"address","name":"","type":"address"}],"stateMutability":"view","type":"function"},{"inputs":[],"name":"pause","outputs":[],"stateMutability":"nonpayable","type":"function"},{"inputs":[],"name":"paused","outputs":[{"internalType":"bool","name":"","type":"bool"}],"stateMutability":"view","type":"function"},{"inputs":[],"name":"pauser","outputs":[{"internalType":"address","name":"","type":"address"}],"stateMutability":"view","type":"function"},{"inputs":[{"internalType":"bytes32","name":"role","type":"bytes32"},{"internalType":"address","name":"callerConfirmation","type":"address"}],"name":"renounceRole","outputs":[],"stateMutability":"nonpayable","type":"function"},{"inputs":[{"internalType":"bytes32","name":"role","type":"bytes32"},{"internalType":"address","name":"account","type":"address"}],"name":"revokeRole","outputs":[],"stateMutability":"nonpayable","type":"function"},{"inputs":[{"internalType":"address","name":"from","type":"address"},{"internalType":"address","name":"to","type":"address"},{"internalType":"uint256","name":"tokenId","type":"uint256"}],"name":"safeTransferFrom","outputs":[],"stateMutability":"nonpayable","type":"function"},{"inputs":[{"internalType":"address","name":"from","type":"address"},{"internalType":"address","name":"to","type":"address"},{"internalType":"uint256","name":"tokenId","type":"uint256"},{"internalType":"bytes","name":"data","type":"bytes"}],"name":"safeTransferFrom","outputs":[],"stateMutability":"nonpayable","type":"function"},{"inputs":[{"internalType":"address","name":"operator","type":"address"},{"internalType":"bool","name":"approved","type":"bool"}],"name":"setApprovalForAll","outputs":[],"stateMutability":"nonpayable","type":"function"},{"inputs":[{"internalType":"uint256","name":"assetId","type":"uint256"},{"internalType":"enum AssetVault.AssetStatus","name":"status_","type":"uint8"},{"internalType":"uint256","name":"capitalValue_","type":"uint256"},{"internalType":"uint256","name":"incomeValue_","type":"uint256"},{"internalType":"string","name":"metadataURI_","type":"string"}],"name":"setAssetForTest","outputs":[],"stateMutability":"nonpayable","type":"function"},{"inputs":[{"internalType":"address","name":"_assetShares","type":"address"}],"name":"setAssetShares","outputs":[],"stateMutability":"nonpayable","type":"function"},{"inputs":[{"internalType":"uint256","name":"tokenId","type":"uint256"},{"internalType":"bool","name":"frozen","type":"bool"}],"name":"setFrozenToken","outputs":[],"stateMutability":"nonpayable","type":"function"},{"inputs":[{"internalType":"address","name":"_pauser","type":"address"}],"name":"setPauser","outputs":[],"stateMutability":"nonpayable","type":"function"},{"inputs":[{"internalType":"address","name":"user","type":"address"},{"internalType":"bool","name":"allowed","type":"bool"}],"name":"setUserAllowed","outputs":[],"stateMutability":"nonpayable","type":"function"},{"inputs":[{"internalType":"bytes4","name":"interfaceId","type":"bytes4"}],"name":"supportsInterface","outputs":[{"internalType":"bool","name":"","type":"bool"}],"stateMutability":"view","type":"function"},{"inputs":[],"name":"symbol","outputs":[{"internalType":"string","name":"","type":"string"}],"stateMutability":"view","type":"function"},{"inputs":[{"internalType":"uint256","name":"tokenId","type":"uint256"}],"name":"tokenURI","outputs":[{"internalType":"string","name":"","type":"string"}],"stateMutability":"view","type":"function"},{"inputs":[{"internalType":"address","name":"from","type":"address"},{"internalType":"address","name":"to","type":"address"},{"internalType":"uint256","name":"tokenId","type":"uint256"}],"name":"transferFrom","outputs":[],"stateMutability":"nonpayable","type":"function"},{"inputs":[],"name":"unpause","outputs":[],"stateMutability":"nonpayable","type":"function"},{"inputs":[],"name":"userAllowList","outputs":[{"internalType":"contract AssetUserAllowList","name":"","type":"address"}],"stateMutability":"view","type":"function"}],"evm":{"bytecode":{"linkReferences":{},"object":"60a034620003e057601f19906001600160401b0390601f62002b14388190038281018616840185811185821017620003ca57849282916040528339602093849181010312620003e057516001600160a01b0381169390849003620003e05762000067620003e5565b91600b83526a105cdcd95d0815985d5b1d60aa1b8484015262000089620003e5565b6005815264159055531560da1b858201528351838111620003ca576000908154956001968781811c91168015620003bf575b89821014620003ab5790818684931162000358575b508890868311600114620002f7578492620002eb575b5050600019600383901b1c191690861b1781555b8151938411620002d75784548581811c91168015620002cc575b87821014620002b85783811162000270575b50859284116001146200020f578394959697509262000203575b5050600019600383901b1c191690821b1781555b80600755600a558115620001bf5750608052620001713362000405565b506200017d3362000486565b50620001893362000529565b5060405161252c9081620005c882396080518181816103fb0152818161058801528181611652015281816122aa015261237c0152f35b6064906040519062461bcd60e51b82526004820152601960248201527f496e76616c696420616c6c6f776c6973742061646472657373000000000000006044820152fd5b01519050388062000140565b919096831696848352858320925b8881106200025a575083859697981062000240575b505050811b01815562000154565b015160001960f88460031b161c1916905538808062000232565b818301518455928501929186019186016200021d565b8582528682208480870160051c820192898810620002ae575b0160051c019086905b828110620002a257505062000126565b83815501869062000292565b9250819262000289565b634e487b7160e01b82526022600452602482fd5b90607f169062000114565b634e487b7160e01b81526041600452602490fd5b015190503880620000e6565b908b899416918580528a862092865b8c82821062000341575050841162000327575b505050811b018155620000fa565b015160001960f88460031b161c1916905538808062000319565b8385015186558c9790950194938401930162000306565b9091508380528884208680850160051c8201928b8610620003a1575b918a91869594930160051c01915b82811062000392575050620000d0565b8681558594508a910162000382565b9250819262000374565b634e487b7160e01b84526022600452602484fd5b90607f1690620000bb565b634e487b7160e01b600052604160045260246000fd5b600080fd5b60408051919082016001600160401b03811183821017620003ca57604052565b6001600160a01b031660008181527f54cdd369e4e8a8515e52ca72ec816c2101831ad1f18bf44102ed171459c9b4f8602052604081205490919060ff16620004825781805260066020526040822081835260205260408220600160ff19825416179055339160008051602062002af48339815191528180a4600190565b5090565b6001600160a01b031660008181527f6e891ea7db4d1633822af4f6a64073b5d7597c864a3dccee2ee6b7f25c837bbd60205260408120549091907fb1fadd3142ab2ad7f1337ea4d97112bcc8337fc11ce5b20cb04ad038adf998199060ff16620005245780835260066020526040832082845260205260408320600160ff1982541617905560008051602062002af4833981519152339380a4600190565b505090565b6001600160a01b031660008181527fd1a890bf818afa572802200688a7d376f87d9fcc58c522c6f18adfc2a844329160205260408120549091907fb6f0283bd1ed00c6aa7e988a7516070240f3610a34d167391359b648eb37cefc9060ff16620005245780835260066020526040832082845260205260408320600160ff1982541617905560008051602062002af4833981519152339380a460019056fe608080604052600436101561001357600080fd5b600090813560e01c90816301ffc9a7146118455750806306fdde03146117a1578063081812fc14611764578063095ea7b3146116815780630ad5b98c1461163c57806311a84e73146115be578063198596b51461158357806323b872dd1461156b578063248a9ca31461153e57806328f5bc6a146114325780632d88af4a1461131f5780632f2ff15d146112e157806336568abe146112995780633f4ba83a1461122e57806342842e0e146112065780635c975abb146111e35780635d7ec37d14610efc5780636352211e14610ecb57806370a0823114610e7357806379d07a8a14610c6b5780638456cb5914610c1057806391d1485414610bc75780639318603a14610a2157806395d89b411461093e5780639fc1d0e71461074a5780639fd0506d14610721578063a0894799146106f2578063a217fddf146106d6578063a22cb4651461062d578063a4b32de8146105f2578063a52ba4e814610546578063b88d4fde146104e2578063c87b56dd1461048f578063d1a81a8d146103c4578063d547741f14610382578063d5c03cc91461035a578063e1ff0f8714610330578063e46638e61461030c578063e63ab1e9146102d1578063e985e9c51461027d5763eac8f5b8146101e457600080fd5b3461027a57602036600319011261027a57604061027691610203612483565b506004358152600b6020522060056040519161021e83611a30565b61022c60ff82541684612477565b600181015460208401526002810154604084015261024c60038201611e64565b606084015260048101546080840152015460a08201526040519182916020835260208301906119e1565b0390f35b80fd5b503461027a57604036600319011261027a5761029761191b565b60406102a1611936565b9260018060a01b0380931681526005602052209116600052602052602060ff604060002054166040519015158152f35b503461027a578060031936011261027a5760206040517f65d7a28e3265b37a6474929f336521b332c1681b933f6cb9f3376673440d862a8152f35b503461027a5760206103266103203661195b565b91612354565b6040519015158152f35b503461027a578060031936011261027a5760088054604051911c6001600160a01b03168152602090f35b503461027a57604036600319011261027a57602061032661037961191b565b60243590612281565b503461027a57604036600319011261027a576103c06004356103a2611936565b9080845260066020526103bb6001604086200154611c5f565b611db3565b5080f35b503461027a57604036600319011261027a576103de61191b565b816103e761194c565b916103f0611af3565b6001600160a01b03907f0000000000000000000000000000000000000000000000000000000000000000821690813b1561048b5783604492604051968795869463d1a81a8d60e01b8652166004850152151560248401525af1801561048057610457575080f35b67ffffffffffffffff811161046c5760405280f35b634e487b7160e01b82526041600452602482fd5b6040513d84823e3d90fd5b8380fd5b503461027a57602036600319011261027a57610276906104b0600435612210565b50806040516104be81611a62565b52604051906104cc82611a62565b81526040519182916020835260208301906118db565b503461027a57608036600319011261027a576104fc61191b565b610504611936565b6064359167ffffffffffffffff831161048b573660238401121561048b57610539610543933690602481600401359101611abc565b91604435916120bb565b80f35b503461027a57602036600319011261027a576024602061056461191b565b6040516314a5749d60e31b81526001600160a01b03918216600482015292839182907f0000000000000000000000000000000000000000000000000000000000000000165afa90811561048057602092916105c5575b506040519015158152f35b6105e59150823d81116105eb575b6105dd8183611a7e565b810190612269565b386105ba565b503d6105d3565b503461027a578060031936011261027a5760206040517fb1fadd3142ab2ad7f1337ea4d97112bcc8337fc11ce5b20cb04ad038adf998198152f35b503461027a57604036600319011261027a5761064761191b565b61064f61194c565b6001600160a01b039091169081156106bd5733835260056020526040832082845260205261068c81604085209060ff801983541691151516179055565b60405190151581527f17307eab39ab6107e8899845ad3d59bd9653f200f220920489ca2b5937696c3160203392a380f35b604051630b61174360e31b815260048101839052602490fd5b503461027a578060031936011261027a57602090604051908152f35b503461027a57602036600319011261027a5760ff60406020926004358152600c84522054166040519015158152f35b503461027a578060031936011261027a576009546040516001600160a01b039091168152602090f35b503461027a576107593661195b565b91610762611af3565b60026007541461092c57600260075561077a83612210565b6001600160a01b0392838316929184168390036108e75783169283156108ce576107a261224b565b848652600260205260408620541680158015610899575b84875260036020526040872060018154019055858752600260205260408720856bffffffffffffffffffffffff60a01b8254161790558585837fddf252ad1be2c89b69c2b068fc378daa952ba7f163c4a11628f55a4df523b3ef8a80a41561083457604051637e27328960e01b815260048101869052602490fd5b8281036108695750507f7b3ce50c216d2ccf9919c6b9f1bfb33f0350a33010f188750b4af38e004481388480a4600160075580f35b6040516364283d7b60e01b81526001600160a01b0392831660048201526024810186905291166044820152606490fd5b600086815260046020526040902080546001600160a01b031916905581875260036020526040872080546000190190556107b9565b604051633250574960e11b815260048101879052602490fd5b60405162461bcd60e51b815260206004820152601760248201527f546f6b656e206e6f74206f776e65642062792066726f6d0000000000000000006044820152606490fd5b604051633ee5aeb560e01b8152600490fd5b503461027a578060031936011261027a576040519080600180549161096283611e2a565b808652928281169081156109f7575060011461099d575b6102768561098981870382611a7e565b6040519182916020835260208301906118db565b92508083527fb10e2d527612073b26eecdfd717e6a320cf44b4afac2b0732d9fcbe2b7fa0cf65b8284106109df57505050810160200161098982610276610979565b805460208587018101919091529093019281016109c4565b8695506102769693506020925061098994915060ff191682840152151560051b8201019293610979565b503461027a57602080600319360112610bc35760043567ffffffffffffffff9283821161027a573660238301121561027a57816004013593841161027a576024600594368282881b86010111610bbf57610a7a816124b4565b93610a886040519586611a7e565b818552601f19610a97836124b4565b0186855b828110610ba957505050835b828110610b0c57505050506040519280840190808552835180925280604083818801981b870101940192955b828710610ae05785850386f35b909192938280610afc600193603f198a820301865288516119e1565b9601920196019592919092610ad3565b8381891b830101358552600b8752604085208860405191610b2c83611a30565b610b3a60ff82541684612477565b60018101548a84015260028101546040840152610b5960038201611e64565b606084015260048101546080840152015460a0820152610b7982886124cc565b52610b8481876124cc565b506000198114610b9657600101610aa7565b634e487b7160e01b855260116004528385fd5b610bb1612483565b82828a010152018790610a9b565b8280fd5b5080fd5b503461027a57604036600319011261027a5760ff6040602092610be8611936565b6004358252600685528282206001600160a01b03909116825284522054604051911615158152f35b503461027a578060031936011261027a57610c29611ba7565b610c3161224b565b600160ff1960085416176008557f62e78cea01bee320cd4e420270b5ea74000d11b0c9f74754ebdbfc544b05a2586020604051338152a180f35b503461027a5760a036600319011261027a5760243590600482101561027a5767ffffffffffffffff91608435838111610bbf57610cac903690600401611990565b610cb4611c03565b610cca60405193610cc485611a30565b84612477565b602090610cea828501936044358552604086019260643584523691611abc565b9060608501918252608085019242845260a08601948786526004358852600b82526040882096516004811015610e5f5760ff801989541691161787555191600192838801555160028701556003860192518051988911610e4b57610d4e8454611e2a565b601f8111610e05575b5081601f8a11600114610da057509780928192899a6005999a94610d95575b50501b916000199060031b1c19161790555b5160048401555191015580f35b015192503880610d76565b909891601f19831699858a52828a20928a905b8c8210610dee575050836005999a9b10610dd5575b505050811b019055610d88565b015160001960f88460031b161c19169055388080610dc8565b808785968294968601518155019501930190610db3565b848952828920601f8b0160051c810191848c10610e41575b601f0160051c019084905b828110610e36575050610d57565b8a8155018490610e28565b9091508190610e1d565b634e487b7160e01b88526041600452602488fd5b634e487b7160e01b89526021600452602489fd5b503461027a57602036600319011261027a576001600160a01b03610e9561191b565b168015610eb2578160409160209352600383522054604051908152f35b6040516322718ad960e21b815260048101839052602490fd5b503461027a57602036600319011261027a576020610eea600435612210565b6040516001600160a01b039091168152f35b503461027a57608036600319011261027a5760048035101561027a5760643567ffffffffffffffff8111610bc357610f38903690600401611990565b610f40611c03565b610f4b368284611abc565b6020815191012091828452600d60205260408420546111a757610fb090600a549360018501600a558552600d60205283604086205560405192610f8d84611a30565b610f9960043585612477565b602435602085015260443560408501523691611abc565b60608201524260808201528260a0820152818352600b6020526040832090805160048110156111935760ff801984541691161782556020810151600183015560408101516002830155606081015180519067ffffffffffffffff821161117f5761101d6003850154611e2a565b601f811161113b575b50946020958691601f84116001146110cb579260059492819260a095926110c0575b50508160011b916000199060031b1c19161760038501555b608081015160048501550151910155807f6d6ee7df9000ab7132faa3536cb39e9b6f061b2fb0480f34b3b382864165972560806040516110a2816004356119be565b602435868201526044356040820152426060820152a2604051908152f35b015190503880611048565b9190600386018352878320925b601f19851681106111245750926005949260019260a09583601f1981161061110b575b505050811b016003850155611060565b015160001960f88460031b161c191690553880806110fb565b9192886001819286850151815501940192016110d8565b60038501875260208720601f840160051c810160208510611178575b601f830160051c8201811061116d575050611026565b888155600101611157565b5080611157565b634e487b7160e01b86526041600452602486fd5b634e487b7160e01b85526021600452602485fd5b60405162461bcd60e51b8152602060048201526014602482015273417373657420616c72656164792065786973747360601b6044820152606490fd5b503461027a578060031936011261027a57602060ff600854166040519015158152f35b503461027a576105436112183661195b565b906040519261122684611a62565b8584526120bb565b503461027a578060031936011261027a57611247611ba7565b60085460ff8116156112875760ff19166008557f5db9ee0a495bf2e6ff9c91a7834c1ba4fdd244a5e8aa4e537bd38aeae4b073aa6020604051338152a180f35b604051638dfc202b60e01b8152600490fd5b503461027a57604036600319011261027a576112b3611936565b336001600160a01b038216036112cf576103c090600435611db3565b60405163334bd91960e11b8152600490fd5b503461027a57604036600319011261027a576103c0600435611301611936565b90808452600660205261131a6001604086200154611c5f565b611d38565b503461027a57602036600319011261027a5761133961191b565b611341611b6d565b60095460ff8160a01c166113f8576001600160a01b0382169182156113ba578261137f926bffffffffffffffffffffffff60a01b1617600955611c85565b506009805460ff60a01b1916600160a01b1790557fd11d57c2c7468878b1035df11c670bcd0091aa840bf8aa166365397622237bea8280a280f35b60405162461bcd60e51b8152602060048201526016602482015275496e76616c696420706175736572206164647265737360501b6044820152606490fd5b60405162461bcd60e51b815260206004820152601260248201527114185d5cd95c88185b1c9958591e481cd95d60721b6044820152606490fd5b503461027a57602036600319011261027a5761144c61191b565b611454611b6d565b6008549060ff8260a81c166114f9576001600160a01b0381169182156114be57610100600160b01b031916600891821b610100600160a81b031617600160a81b1790557fc25eecbda7b7f176285751ccb7a783ac11a7b5ca5d3365d0467246a564e188e18280a280f35b60405162461bcd60e51b815260206004820152601360248201527224b73b30b634b21039b430b932903a37b5b2b760691b6044820152606490fd5b60405162461bcd60e51b815260206004820152601760248201527f417373657453686172657320616c7265616479207365740000000000000000006044820152606490fd5b503461027a57602036600319011261027a5760016040602092600435815260068452200154604051908152f35b503461027a5761054361157d3661195b565b91611f0a565b503461027a578060031936011261027a5760206040517fb6f0283bd1ed00c6aa7e988a7516070240f3610a34d167391359b648eb37cefc8152f35b503461027a57604036600319011261027a576004356116036115de61194c565b6115e6611af3565b828452600c602052604084209060ff801983541691151516179055565b6001600160a01b0361161482612210565b167f68e0d8c112165d0949ce87205b719ed7d98c7401866c34a159f7c67c6f5620e78380a380f35b503461027a578060031936011261027a576040517f00000000000000000000000000000000000000000000000000000000000000006001600160a01b03168152602090f35b503461027a57604036600319011261027a5761169b61191b565b6024356116a781612210565b33151580611751575b80611726575b61170e576001600160a01b039283169282918491167f8c5be1e5ebec7d5bd14f71427d1e84f3dd0314c0f7b2291e5b200ac8c7c3b9258680a4825260046020526040822080546001600160a01b031916909117905580f35b60405163a9fbf51f60e01b8152336004820152602490fd5b506001600160a01b038116845260056020908152604080862033875290915284205460ff16156116b6565b506001600160a01b0381163314156116b0565b503461027a57602036600319011261027a5760209060043561178581612210565b50815260048252604060018060a01b0391205416604051908152f35b503461027a578060031936011261027a57604051908080546117c281611e2a565b808552916001918083169081156109f757506001146117eb576102768561098981870382611a7e565b80809450527f290decd9548b62a8d60345a988386fc84ba6bc95484008f6362f93160ef3e5635b82841061182d57505050810160200161098982610276610979565b80546020858701810191909152909301928101611812565b905034610bc3576020366003190112610bc35760043563ffffffff60e01b8116809103610bbf57602092506380ac58cd60e01b811480156118cb575b80156118bb575b80918115611899575b505015158152f35b637965db0b60e01b14915081156118b3575b503880611891565b9050386118ab565b506301ffc9a760e01b8114611888565b50635b5e139f60e01b8114611881565b919082519283825260005b848110611907575050826000602080949584010152601f8019910116010190565b6020818301810151848301820152016118e6565b600435906001600160a01b038216820361193157565b600080fd5b602435906001600160a01b038216820361193157565b60243590811515820361193157565b6060906003190112611931576001600160a01b0390600435828116810361193157916024359081168103611931579060443590565b9181601f840112156119315782359167ffffffffffffffff8311611931576020838186019501011161193157565b9060048210156119cb5752565b634e487b7160e01b600052602160045260246000fd5b906119ed8183516119be565b602082015160208201526040820151604082015260a080611a1d606085015160c0606086015260c08501906118db565b9360808101516080850152015191015290565b60c0810190811067ffffffffffffffff821117611a4c57604052565b634e487b7160e01b600052604160045260246000fd5b6020810190811067ffffffffffffffff821117611a4c57604052565b90601f8019910116810190811067ffffffffffffffff821117611a4c57604052565b67ffffffffffffffff8111611a4c57601f01601f191660200190565b929192611ac882611aa0565b91611ad66040519384611a7e565b829481845281830111611931578281602093846000960137010152565b3360009081527fd1a890bf818afa572802200688a7d376f87d9fcc58c522c6f18adfc2a844329160205260409020547fb6f0283bd1ed00c6aa7e988a7516070240f3610a34d167391359b648eb37cefc9060ff1615611b4f5750565b6044906040519063e2517d3f60e01b82523360048301526024820152fd5b3360009081527f54cdd369e4e8a8515e52ca72ec816c2101831ad1f18bf44102ed171459c9b4f8602052604081205460ff1615611b4f5750565b3360009081527fe09f975e15f8f53f24cbbc282b13c40b84df485fcdb8d3997fa103dc5a4ef84160205260409020547f65d7a28e3265b37a6474929f336521b332c1681b933f6cb9f3376673440d862a9060ff1615611b4f5750565b3360009081527f6e891ea7db4d1633822af4f6a64073b5d7597c864a3dccee2ee6b7f25c837bbd60205260409020547fb1fadd3142ab2ad7f1337ea4d97112bcc8337fc11ce5b20cb04ad038adf998199060ff1615611b4f5750565b80600052600660205260406000203360005260205260ff6040600020541615611b4f5750565b6001600160a01b031660008181527fe09f975e15f8f53f24cbbc282b13c40b84df485fcdb8d3997fa103dc5a4ef84160205260408120549091907f65d7a28e3265b37a6474929f336521b332c1681b933f6cb9f3376673440d862a9060ff16611d335780835260066020526040832082845260205260408320600160ff198254161790557f2f8788117e7eff1d82e926ec794901d17c78024a50270940304540a733656f0d339380a4600190565b505090565b906000918083526006602052604083209160018060a01b03169182845260205260ff60408420541615600014611d335780835260066020526040832082845260205260408320600160ff198254161790557f2f8788117e7eff1d82e926ec794901d17c78024a50270940304540a733656f0d339380a4600190565b906000918083526006602052604083209160018060a01b03169182845260205260ff604084205416600014611d33578083526006602052604083208284526020526040832060ff1981541690557ff6391f5c32d9c69d2a47ea670b442974b53935d1edc7fd64eb21e047a839171b339380a4600190565b90600182811c92168015611e5a575b6020831014611e4457565b634e487b7160e01b600052602260045260246000fd5b91607f1691611e39565b9060405191826000825492611e7884611e2a565b908184526001948581169081600014611ee75750600114611ea4575b5050611ea292500383611a7e565b565b9093915060005260209081600020936000915b818310611ecf575050611ea293508201013880611e94565b85548884018501529485019487945091830191611eb7565b915050611ea294506020925060ff191682840152151560051b8201013880611e94565b906001600160a01b0390811680156120a257611f2461224b565b60009184835284602092600284526040938385872054169586913315158061200c575b509060027fddf252ad1be2c89b69c2b068fc378daa952ba7f163c4a11628f55a4df523b3ef9284611fd9575b85835260038152888320805460010190558683525286812080546001600160a01b0319168517905580a483168203611fab5750505050565b516364283d7b60e01b81526001600160a01b0392831660048201526024810193909352166044820152606490fd5b600087815260046020526040902080546001600160a01b0319169055848352600381528883208054600019019055611f73565b91939450915080612061575b1561202857879291869138611f47565b848887612045576024915190637e27328960e01b82526004820152fd5b604491519063177e802f60e01b82523360048301526024820152fd5b503386148015612086575b806120185750878252600481523384868420541614612018565b5085825260058152848220338352815260ff858320541661206c565b604051633250574960e11b815260006004820152602490fd5b9290926120c9838583611f0a565b833b6120d6575b50505050565b604051630a85bd0160e11b8082523360048301526001600160a01b03928316602483015260448201949094526080606482015294931692602092909185906121229060848301906118db565b039483816000978189895af18691816121cc575b50612197575050503d60001461218e573d61215081611aa0565b9061215e6040519283611a7e565b81528093823d92013e5b8251928361218957604051633250574960e11b815260048101849052602490fd5b019050fd5b60609250612168565b919450915063ffffffff60e01b16036121b45750388080806120d0565b60249060405190633250574960e11b82526004820152fd5b9091508481813d8311612209575b6121e48183611a7e565b8101031261220557516001600160e01b031981168103612205579038612136565b8680fd5b503d6121da565b6000818152600260205260409020546001600160a01b0316908115612233575090565b60249060405190637e27328960e01b82526004820152fd5b60ff6008541661225757565b60405163d93c066560e01b8152600490fd5b90816020910312611931575180151581036119315790565b6040516314a5749d60e31b81526001600160a01b039182166004820181905292906020816024817f000000000000000000000000000000000000000000000000000000000000000087165afa9081156123485760009161232a575b5015801561231e575b8015612306575b6122fe576122f990612210565b161490565b505050600090565b5080600052600c60205260ff604060002054166122ec565b5060ff600854166122e5565b612342915060203d81116105eb576105dd8183611a7e565b386122dc565b6040513d6000823e3d90fd5b6040516314a5749d60e31b8082526001600160a01b03928316600483018190529492936020927f00000000000000000000000000000000000000000000000000000000000000008616929091908483602481875afa801561234857879360009161245a575b5015938415612409575b505050509081156123fc575b81156123e4575b506122fe576122f990612210565b600c9150826000525260ff60406000205416386123d6565b60085460ff1691506123cf565b8593945090602491604051958694859384521660048301525afa9081156123485760009161243d575b5015833880806123c3565b6124549150823d84116105eb576105dd8183611a7e565b38612432565b6124719150863d88116105eb576105dd8183611a7e565b386123b9565b60048210156119cb5752565b6040519061249082611a30565b600060a0838281528260208201528260408201526060808201528260808201520152565b67ffffffffffffffff8111611a4c5760051b60200190565b80518210156124e05760209160051b010190565b634e487b7160e01b600052603260045260246000fdfea2646970667358221220eb5b4c899b20d2ba564bffd3c04f096b7467cade766c4a64d90d0d5631e5463364736f6c634300081400332f8788117e7eff1d82e926ec794901d17c78024a50270940304540a733656f0d","opcodes":"PUSH1 0xA0 CALLVALUE PUSH3 0x3E0 JUMPI PUSH1 0x1F NOT SWAP1 PUSH1 0x1 PUSH1 0x1 PUSH1 0x40 SHL SUB SWAP1 PUSH1 0x1F PUSH3 0x2B14 CODESIZE DUP2 SWAP1 SUB DUP3 DUP2 ADD DUP7 AND DUP5 ADD DUP6 DUP2 GT DUP6 DUP3 LT OR PUSH3 0x3CA JUMPI DUP5 SWAP3 DUP3 SWAP2 PUSH1 0x40 MSTORE DUP4 CODECOPY PUSH1 0x20 SWAP4 DUP5 SWAP2 DUP2 ADD SUB SLT PUSH3 0x3E0 JUMPI MLOAD PUSH1 0x1 PUSH1 0x1 PUSH1 0xA0 SHL SUB DUP2 AND SWAP4 SWAP1 DUP5 SWAP1 SUB PUSH3 0x3E0 JUMPI PUSH3 0x67 PUSH3 0x3E5 JUMP JUMPDEST SWAP2 PUSH1 0xB DUP4 MSTORE PUSH11 0x105CDCD95D0815985D5B1D PUSH1 0xAA SHL DUP5 DUP5 ADD MSTORE PUSH3 0x89 PUSH3 0x3E5 JUMP JUMPDEST PUSH1 0x5 DUP2 MSTORE PUSH5 0x1590555315 PUSH1 0xDA SHL DUP6 DUP3 ADD MSTORE DUP4 MLOAD DUP4 DUP2 GT PUSH3 0x3CA JUMPI PUSH1 0x0 SWAP1 DUP2 SLOAD SWAP6 PUSH1 0x1 SWAP7 DUP8 DUP2 DUP2 SHR SWAP2 AND DUP1 ISZERO PUSH3 0x3BF JUMPI JUMPDEST DUP10 DUP3 LT EQ PUSH3 0x3AB JUMPI SWAP1 DUP2 DUP7 DUP5 SWAP4 GT PUSH3 0x358 JUMPI JUMPDEST POP DUP9 SWAP1 DUP7 DUP4 GT PUSH1 0x1 EQ PUSH3 0x2F7 JUMPI DUP5 SWAP3 PUSH3 0x2EB JUMPI JUMPDEST POP POP PUSH1 0x0 NOT PUSH1 0x3 DUP4 SWAP1 SHL SHR NOT AND SWAP1 DUP7 SHL OR DUP2 SSTORE JUMPDEST DUP2 MLOAD SWAP4 DUP5 GT PUSH3 0x2D7 JUMPI DUP5 SLOAD DUP6 DUP2 DUP2 SHR SWAP2 AND DUP1 ISZERO PUSH3 0x2CC JUMPI JUMPDEST DUP8 DUP3 LT EQ PUSH3 0x2B8 JUMPI DUP4 DUP2 GT PUSH3 0x270 JUMPI JUMPDEST POP DUP6 SWAP3 DUP5 GT PUSH1 0x1 EQ PUSH3 0x20F JUMPI DUP4 SWAP5 SWAP6 SWAP7 SWAP8 POP SWAP3 PUSH3 0x203 JUMPI JUMPDEST POP POP PUSH1 0x0 NOT PUSH1 0x3 DUP4 SWAP1 SHL SHR NOT AND SWAP1 DUP3 SHL OR DUP2 SSTORE JUMPDEST DUP1 PUSH1 0x7 SSTORE PUSH1 0xA SSTORE DUP2 ISZERO PUSH3 0x1BF JUMPI POP PUSH1 0x80 MSTORE PUSH3 0x171 CALLER PUSH3 0x405 JUMP JUMPDEST POP PUSH3 0x17D CALLER PUSH3 0x486 JUMP JUMPDEST POP PUSH3 0x189 CALLER PUSH3 0x529 JUMP JUMPDEST POP PUSH1 0x40 MLOAD PUSH2 0x252C SWAP1 DUP2 PUSH3 0x5C8 DUP3 CODECOPY PUSH1 0x80 MLOAD DUP2 DUP2 DUP2 PUSH2 0x3FB ADD MSTORE DUP2 DUP2 PUSH2 0x588 ADD MSTORE DUP2 DUP2 PUSH2 0x1652 ADD MSTORE DUP2 DUP2 PUSH2 0x22AA ADD MSTORE PUSH2 0x237C ADD MSTORE RETURN JUMPDEST PUSH1 0x64 SWAP1 PUSH1 0x40 MLOAD SWAP1 PUSH3 0x461BCD PUSH1 0xE5 SHL DUP3 MSTORE PUSH1 0x4 DUP3 ADD MSTORE PUSH1 0x19 PUSH1 0x24 DUP3 ADD MSTORE PUSH32 0x496E76616C696420616C6C6F776C697374206164647265737300000000000000 PUSH1 0x44 DUP3 ADD MSTORE REVERT JUMPDEST ADD MLOAD SWAP1 POP CODESIZE DUP1 PUSH3 0x140 JUMP JUMPDEST SWAP2 SWAP1 SWAP7 DUP4 AND SWAP7 DUP5 DUP4 MSTORE DUP6 DUP4 KECCAK256 SWAP3 JUMPDEST DUP9 DUP2 LT PUSH3 0x25A JUMPI POP DUP4 DUP6 SWAP7 SWAP8 SWAP9 LT PUSH3 0x240 JUMPI JUMPDEST POP POP POP DUP2 SHL ADD DUP2 SSTORE PUSH3 0x154 JUMP JUMPDEST ADD MLOAD PUSH1 0x0 NOT PUSH1 0xF8 DUP5 PUSH1 0x3 SHL AND SHR NOT AND SWAP1 SSTORE CODESIZE DUP1 DUP1 PUSH3 0x232 JUMP JUMPDEST DUP2 DUP4 ADD MLOAD DUP5 SSTORE SWAP3 DUP6 ADD SWAP3 SWAP2 DUP7 ADD SWAP2 DUP7 ADD PUSH3 0x21D JUMP JUMPDEST DUP6 DUP3 MSTORE DUP7 DUP3 KECCAK256 DUP5 DUP1 DUP8 ADD PUSH1 0x5 SHR DUP3 ADD SWAP3 DUP10 DUP9 LT PUSH3 0x2AE JUMPI JUMPDEST ADD PUSH1 0x5 SHR ADD SWAP1 DUP7 SWAP1 JUMPDEST DUP3 DUP2 LT PUSH3 0x2A2 JUMPI POP POP PUSH3 0x126 JUMP JUMPDEST DUP4 DUP2 SSTORE ADD DUP7 SWAP1 PUSH3 0x292 JUMP JUMPDEST SWAP3 POP DUP2 SWAP3 PUSH3 0x289 JUMP JUMPDEST PUSH4 0x4E487B71 PUSH1 0xE0 SHL DUP3 MSTORE PUSH1 0x22 PUSH1 0x4 MSTORE PUSH1 0x24 DUP3 REVERT JUMPDEST SWAP1 PUSH1 0x7F AND SWAP1 PUSH3 0x114 JUMP JUMPDEST PUSH4 0x4E487B71 PUSH1 0xE0 SHL DUP2 MSTORE PUSH1 0x41 PUSH1 0x4 MSTORE PUSH1 0x24 SWAP1 REVERT JUMPDEST ADD MLOAD SWAP1 POP CODESIZE DUP1 PUSH3 0xE6 JUMP JUMPDEST SWAP1 DUP12 DUP10 SWAP5 AND SWAP2 DUP6 DUP1 MSTORE DUP11 DUP7 KECCAK256 SWAP3 DUP7 JUMPDEST DUP13 DUP3 DUP3 LT PUSH3 0x341 JUMPI POP POP DUP5 GT PUSH3 0x327 JUMPI JUMPDEST POP POP POP DUP2 SHL ADD DUP2 SSTORE PUSH3 0xFA JUMP JUMPDEST ADD MLOAD PUSH1 0x0 NOT PUSH1 0xF8 DUP5 PUSH1 0x3 SHL AND SHR NOT AND SWAP1 SSTORE CODESIZE DUP1 DUP1 PUSH3 0x319 JUMP JUMPDEST DUP4 DUP6 ADD MLOAD DUP7 SSTORE DUP13 SWAP8 SWAP1 SWAP6 ADD SWAP5 SWAP4 DUP5 ADD SWAP4 ADD PUSH3 0x306 JUMP JUMPDEST SWAP1 SWAP2 POP DUP4 DUP1 MSTORE DUP9 DUP5 KECCAK256 DUP7 DUP1 DUP6 ADD PUSH1 0x5 SHR DUP3 ADD SWAP3 DUP12 DUP7 LT PUSH3 0x3A1 JUMPI JUMPDEST SWAP2 DUP11 SWAP2 DUP7 SWAP6 SWAP5 SWAP4 ADD PUSH1 0x5 SHR ADD SWAP2 JUMPDEST DUP3 DUP2 LT PUSH3 0x392 JUMPI POP POP PUSH3 0xD0 JUMP JUMPDEST DUP7 DUP2 SSTORE DUP6 SWAP5 POP DUP11 SWAP2 ADD PUSH3 0x382 JUMP JUMPDEST SWAP3 POP DUP2 SWAP3 PUSH3 0x374 JUMP JUMPDEST PUSH4 0x4E487B71 PUSH1 0xE0 SHL DUP5 MSTORE PUSH1 0x22 PUSH1 0x4 MSTORE PUSH1 0x24 DUP5 REVERT JUMPDEST SWAP1 PUSH1 0x7F AND SWAP1 PUSH3 0xBB JUMP JUMPDEST PUSH4 0x4E487B71 PUSH1 0xE0 SHL PUSH1 0x0 MSTORE PUSH1 0x41 PUSH1 0x4 MSTORE PUSH1 0x24 PUSH1 0x0 REVERT JUMPDEST PUSH1 0x0 DUP1 REVERT JUMPDEST PUSH1 0x40 DUP1 MLOAD SWAP2 SWAP1 DUP3 ADD PUSH1 0x1 PUSH1 0x1 PUSH1 0x40 SHL SUB DUP2 GT DUP4 DUP3 LT OR PUSH3 0x3CA JUMPI PUSH1 0x40 MSTORE JUMP JUMPDEST PUSH1 0x1 PUSH1 0x1 PUSH1 0xA0 SHL SUB AND PUSH1 0x0 DUP2 DUP2 MSTORE PUSH32 0x54CDD369E4E8A8515E52CA72EC816C2101831AD1F18BF44102ED171459C9B4F8 PUSH1 0x20 MSTORE PUSH1 0x40 DUP2 KECCAK256 SLOAD SWAP1 SWAP2 SWAP1 PUSH1 0xFF AND PUSH3 0x482 JUMPI DUP2 DUP1 MSTORE PUSH1 0x6 PUSH1 0x20 MSTORE PUSH1 0x40 DUP3 KECCAK256 DUP2 DUP4 MSTORE PUSH1 0x20 MSTORE PUSH1 0x40 DUP3 KECCAK256 PUSH1 0x1 PUSH1 0xFF NOT DUP3 SLOAD AND OR SWAP1 SSTORE CALLER SWAP2 PUSH1 0x0 DUP1 MLOAD PUSH1 0x20 PUSH3 0x2AF4 DUP4 CODECOPY DUP2 MLOAD SWAP2 MSTORE DUP2 DUP1 LOG4 PUSH1 0x1 SWAP1 JUMP JUMPDEST POP SWAP1 JUMP JUMPDEST PUSH1 0x1 PUSH1 0x1 PUSH1 0xA0 SHL SUB AND PUSH1 0x0 DUP2 DUP2 MSTORE PUSH32 0x6E891EA7DB4D1633822AF4F6A64073B5D7597C864A3DCCEE2EE6B7F25C837BBD PUSH1 0x20 MSTORE PUSH1 0x40 DUP2 KECCAK256 SLOAD SWAP1 SWAP2 SWAP1 PUSH32 0xB1FADD3142AB2AD7F1337EA4D97112BCC8337FC11CE5B20CB04AD038ADF99819 SWAP1 PUSH1 0xFF AND PUSH3 0x524 JUMPI DUP1 DUP4 MSTORE PUSH1 0x6 PUSH1 0x20 MSTORE PUSH1 0x40 DUP4 KECCAK256 DUP3 DUP5 MSTORE PUSH1 0x20 MSTORE PUSH1 0x40 DUP4 KECCAK256 PUSH1 0x1 PUSH1 0xFF NOT DUP3 SLOAD AND OR SWAP1 SSTORE PUSH1 0x0 DUP1 MLOAD PUSH1 0x20 PUSH3 0x2AF4 DUP4 CODECOPY DUP2 MLOAD SWAP2 MSTORE CALLER SWAP4 DUP1 LOG4 PUSH1 0x1 SWAP1 JUMP JUMPDEST POP POP SWAP1 JUMP JUMPDEST PUSH1 0x1 PUSH1 0x1 PUSH1 0xA0 SHL SUB AND PUSH1 0x0 DUP2 DUP2 MSTORE PUSH32 0xD1A890BF818AFA572802200688A7D376F87D9FCC58C522C6F18ADFC2A8443291 PUSH1 0x20 MSTORE PUSH1 0x40 DUP2 KECCAK256 SLOAD SWAP1 SWAP2 SWAP1 PUSH32 0xB6F0283BD1ED00C6AA7E988A7516070240F3610A34D167391359B648EB37CEFC SWAP1 PUSH1 0xFF AND PUSH3 0x524 JUMPI DUP1 DUP4 MSTORE PUSH1 0x6 PUSH1 0x20 MSTORE PUSH1 0x40 DUP4 KECCAK256 DUP3 DUP5 MSTORE PUSH1 0x20 MSTORE PUSH1 0x40 DUP4 KECCAK256 PUSH1 0x1 PUSH1 0xFF NOT DUP3 SLOAD AND OR SWAP1 SSTORE PUSH1 0x0 DUP1 MLOAD PUSH1 0x20 PUSH3 0x2AF4 DUP4 CODECOPY DUP2 MLOAD SWAP2 MSTORE CALLER SWAP4 DUP1 LOG4 PUSH1 0x1 SWAP1 JUMP INVALID PUSH1 0x80 DUP1 PUSH1 0x40 MSTORE PUSH1 0x4 CALLDATASIZE LT ISZERO PUSH2 0x13 JUMPI PUSH1 0x0 DUP1 REVERT JUMPDEST PUSH1 0x0 SWAP1 DUP2 CALLDATALOAD PUSH1 0xE0 SHR SWAP1 DUP2 PUSH4 0x1FFC9A7 EQ PUSH2 0x1845 JUMPI POP DUP1 PUSH4 0x6FDDE03 EQ PUSH2 0x17A1 JUMPI DUP1 PUSH4 0x81812FC EQ PUSH2 0x1764 JUMPI DUP1 PUSH4 0x95EA7B3 EQ PUSH2 0x1681 JUMPI DUP1 PUSH4 0xAD5B98C EQ PUSH2 0x163C JUMPI DUP1 PUSH4 0x11A84E73 EQ PUSH2 0x15BE JUMPI DUP1 PUSH4 0x198596B5 EQ PUSH2 0x1583 JUMPI DUP1 PUSH4 0x23B872DD EQ PUSH2 0x156B JUMPI DUP1 PUSH4 0x248A9CA3 EQ PUSH2 0x153E JUMPI DUP1 PUSH4 0x28F5BC6A EQ PUSH2 0x1432 JUMPI DUP1 PUSH4 0x2D88AF4A EQ PUSH2 0x131F JUMPI DUP1 PUSH4 0x2F2FF15D EQ PUSH2 0x12E1 JUMPI DUP1 PUSH4 0x36568ABE EQ PUSH2 0x1299 JUMPI DUP1 PUSH4 0x3F4BA83A EQ PUSH2 0x122E JUMPI DUP1 PUSH4 0x42842E0E EQ PUSH2 0x1206 JUMPI DUP1 PUSH4 0x5C975ABB EQ PUSH2 0x11E3 JUMPI DUP1 PUSH4 0x5D7EC37D EQ PUSH2 0xEFC JUMPI DUP1 PUSH4 0x6352211E EQ PUSH2 0xECB JUMPI DUP1 PUSH4 0x70A08231 EQ PUSH2 0xE73 JUMPI DUP1 PUSH4 0x79D07A8A EQ PUSH2 0xC6B JUMPI DUP1 PUSH4 0x8456CB59 EQ PUSH2 0xC10 JUMPI DUP1 PUSH4 0x91D14854 EQ PUSH2 0xBC7 JUMPI DUP1 PUSH4 0x9318603A EQ PUSH2 0xA21 JUMPI DUP1 PUSH4 0x95D89B41 EQ PUSH2 0x93E JUMPI DUP1 PUSH4 0x9FC1D0E7 EQ PUSH2 0x74A JUMPI DUP1 PUSH4 0x9FD0506D EQ PUSH2 0x721 JUMPI DUP1 PUSH4 0xA0894799 EQ PUSH2 0x6F2 JUMPI DUP1 PUSH4 0xA217FDDF EQ PUSH2 0x6D6 JUMPI DUP1 PUSH4 0xA22CB465 EQ PUSH2 0x62D JUMPI DUP1 PUSH4 0xA4B32DE8 EQ PUSH2 0x5F2 JUMPI DUP1 PUSH4 0xA52BA4E8 EQ PUSH2 0x546 JUMPI DUP1 PUSH4 0xB88D4FDE EQ PUSH2 0x4E2 JUMPI DUP1 PUSH4 0xC87B56DD EQ PUSH2 0x48F JUMPI DUP1 PUSH4 0xD1A81A8D EQ PUSH2 0x3C4 JUMPI DUP1 PUSH4 0xD547741F EQ PUSH2 0x382 JUMPI DUP1 PUSH4 0xD5C03CC9 EQ PUSH2 0x35A JUMPI DUP1 PUSH4 0xE1FF0F87 EQ PUSH2 0x330 JUMPI DUP1 PUSH4 0xE46638E6 EQ PUSH2 0x30C JUMPI DUP1 PUSH4 0xE63AB1E9 EQ PUSH2 0x2D1 JUMPI DUP1 PUSH4 0xE985E9C5 EQ PUSH2 0x27D JUMPI PUSH4 0xEAC8F5B8 EQ PUSH2 0x1E4 JUMPI PUSH1 0x0 DUP1 REVERT JUMPDEST CALLVALUE PUSH2 0x27A JUMPI PUSH1 0x20 CALLDATASIZE PUSH1 0x3 NOT ADD SLT PUSH2 0x27A JUMPI PUSH1 0x40 PUSH2 0x276 SWAP2 PUSH2 0x203 PUSH2 0x2483 JUMP JUMPDEST POP PUSH1 0x4 CALLDATALOAD DUP2 MSTORE PUSH1 0xB PUSH1 0x20 MSTORE KECCAK256 PUSH1 0x5 PUSH1 0x40 MLOAD SWAP2 PUSH2 0x21E DUP4 PUSH2 0x1A30 JUMP JUMPDEST PUSH2 0x22C PUSH1 0xFF DUP3 SLOAD AND DUP5 PUSH2 0x2477 JUMP JUMPDEST PUSH1 0x1 DUP2 ADD SLOAD PUSH1 0x20 DUP5 ADD MSTORE PUSH1 0x2 DUP2 ADD SLOAD PUSH1 0x40 DUP5 ADD MSTORE PUSH2 0x24C PUSH1 0x3 DUP3 ADD PUSH2 0x1E64 JUMP JUMPDEST PUSH1 0x60 DUP5 ADD MSTORE PUSH1 0x4 DUP2 ADD SLOAD PUSH1 0x80 DUP5 ADD MSTORE ADD SLOAD PUSH1 0xA0 DUP3 ADD MSTORE PUSH1 0x40 MLOAD SWAP2 DUP3 SWAP2 PUSH1 0x20 DUP4 MSTORE PUSH1 0x20 DUP4 ADD SWAP1 PUSH2 0x19E1 JUMP JUMPDEST SUB SWAP1 RETURN JUMPDEST DUP1 REVERT JUMPDEST POP CALLVALUE PUSH2 0x27A JUMPI PUSH1 0x40 CALLDATASIZE PUSH1 0x3 NOT ADD SLT PUSH2 0x27A JUMPI PUSH2 0x297 PUSH2 0x191B JUMP JUMPDEST PUSH1 0x40 PUSH2 0x2A1 PUSH2 0x1936 JUMP JUMPDEST SWAP3 PUSH1 0x1 DUP1 PUSH1 0xA0 SHL SUB DUP1 SWAP4 AND DUP2 MSTORE PUSH1 0x5 PUSH1 0x20 MSTORE KECCAK256 SWAP2 AND PUSH1 0x0 MSTORE PUSH1 0x20 MSTORE PUSH1 0x20 PUSH1 0xFF PUSH1 0x40 PUSH1 0x0 KECCAK256 SLOAD AND PUSH1 0x40 MLOAD SWAP1 ISZERO ISZERO DUP2 MSTORE RETURN JUMPDEST POP CALLVALUE PUSH2 0x27A JUMPI DUP1 PUSH1 0x3 NOT CALLDATASIZE ADD SLT PUSH2 0x27A JUMPI PUSH1 0x20 PUSH1 0x40 MLOAD PUSH32 0x65D7A28E3265B37A6474929F336521B332C1681B933F6CB9F3376673440D862A DUP2 MSTORE RETURN JUMPDEST POP CALLVALUE PUSH2 0x27A JUMPI PUSH1 0x20 PUSH2 0x326 PUSH2 0x320 CALLDATASIZE PUSH2 0x195B JUMP JUMPDEST SWAP2 PUSH2 0x2354 JUMP JUMPDEST PUSH1 0x40 MLOAD SWAP1 ISZERO ISZERO DUP2 MSTORE RETURN JUMPDEST POP CALLVALUE PUSH2 0x27A JUMPI DUP1 PUSH1 0x3 NOT CALLDATASIZE ADD SLT PUSH2 0x27A JUMPI PUSH1 0x8 DUP1 SLOAD PUSH1 0x40 MLOAD SWAP2 SHR PUSH1 0x1 PUSH1 0x1 PUSH1 0xA0 SHL SUB AND DUP2 MSTORE PUSH1 0x20 SWAP1 RETURN JUMPDEST POP CALLVALUE PUSH2 0x27A JUMPI PUSH1 0x40 CALLDATASIZE PUSH1 0x3 NOT ADD SLT PUSH2 0x27A JUMPI PUSH1 0x20 PUSH2 0x326 PUSH2 0x379 PUSH2 0x191B JUMP JUMPDEST PUSH1 0x24 CALLDATALOAD SWAP1 PUSH2 0x2281 JUMP JUMPDEST POP CALLVALUE PUSH2 0x27A JUMPI PUSH1 0x40 CALLDATASIZE PUSH1 0x3 NOT ADD SLT PUSH2 0x27A JUMPI PUSH2 0x3C0 PUSH1 0x4 CALLDATALOAD PUSH2 0x3A2 PUSH2 0x1936 JUMP JUMPDEST SWAP1 DUP1 DUP5 MSTORE PUSH1 0x6 PUSH1 0x20 MSTORE PUSH2 0x3BB PUSH1 0x1 PUSH1 0x40 DUP7 KECCAK256 ADD SLOAD PUSH2 0x1C5F JUMP JUMPDEST PUSH2 0x1DB3 JUMP JUMPDEST POP DUP1 RETURN JUMPDEST POP CALLVALUE PUSH2 0x27A JUMPI PUSH1 0x40 CALLDATASIZE PUSH1 0x3 NOT ADD SLT PUSH2 0x27A JUMPI PUSH2 0x3DE PUSH2 0x191B JUMP JUMPDEST DUP2 PUSH2 0x3E7 PUSH2 0x194C JUMP JUMPDEST SWAP2 PUSH2 0x3F0 PUSH2 0x1AF3 JUMP JUMPDEST PUSH1 0x1 PUSH1 0x1 PUSH1 0xA0 SHL SUB SWAP1 PUSH32 0x0 DUP3 AND SWAP1 DUP2 EXTCODESIZE ISZERO PUSH2 0x48B JUMPI DUP4 PUSH1 0x44 SWAP3 PUSH1 0x40 MLOAD SWAP7 DUP8 SWAP6 DUP7 SWAP5 PUSH4 0xD1A81A8D PUSH1 0xE0 SHL DUP7 MSTORE AND PUSH1 0x4 DUP6 ADD MSTORE ISZERO ISZERO PUSH1 0x24 DUP5 ADD MSTORE GAS CALL DUP1 ISZERO PUSH2 0x480 JUMPI PUSH2 0x457 JUMPI POP DUP1 RETURN JUMPDEST PUSH8 0xFFFFFFFFFFFFFFFF DUP2 GT PUSH2 0x46C JUMPI PUSH1 0x40 MSTORE DUP1 RETURN JUMPDEST PUSH4 0x4E487B71 PUSH1 0xE0 SHL DUP3 MSTORE PUSH1 0x41 PUSH1 0x4 MSTORE PUSH1 0x24 DUP3 REVERT JUMPDEST PUSH1 0x40 MLOAD RETURNDATASIZE DUP5 DUP3 RETURNDATACOPY RETURNDATASIZE SWAP1 REVERT JUMPDEST DUP4 DUP1 REVERT JUMPDEST POP CALLVALUE PUSH2 0x27A JUMPI PUSH1 0x20 CALLDATASIZE PUSH1 0x3 NOT ADD SLT PUSH2 0x27A JUMPI PUSH2 0x276 SWAP1 PUSH2 0x4B0 PUSH1 0x4 CALLDATALOAD PUSH2 0x2210 JUMP JUMPDEST POP DUP1 PUSH1 0x40 MLOAD PUSH2 0x4BE DUP2 PUSH2 0x1A62 JUMP JUMPDEST MSTORE PUSH1 0x40 MLOAD SWAP1 PUSH2 0x4CC DUP3 PUSH2 0x1A62 JUMP JUMPDEST DUP2 MSTORE PUSH1 0x40 MLOAD SWAP2 DUP3 SWAP2 PUSH1 0x20 DUP4 MSTORE PUSH1 0x20 DUP4 ADD SWAP1 PUSH2 0x18DB JUMP JUMPDEST POP CALLVALUE PUSH2 0x27A JUMPI PUSH1 0x80 CALLDATASIZE PUSH1 0x3 NOT ADD SLT PUSH2 0x27A JUMPI PUSH2 0x4FC PUSH2 0x191B JUMP JUMPDEST PUSH2 0x504 PUSH2 0x1936 JUMP JUMPDEST PUSH1 0x64 CALLDATALOAD SWAP2 PUSH8 0xFFFFFFFFFFFFFFFF DUP4 GT PUSH2 0x48B JUMPI CALLDATASIZE PUSH1 0x23 DUP5 ADD SLT ISZERO PUSH2 0x48B JUMPI PUSH2 0x539 PUSH2 0x543 SWAP4 CALLDATASIZE SWAP1 PUSH1 0x24 DUP2 PUSH1 0x4 ADD CALLDATALOAD SWAP2 ADD PUSH2 0x1ABC JUMP JUMPDEST SWAP2 PUSH1 0x44 CALLDATALOAD SWAP2 PUSH2 0x20BB JUMP JUMPDEST DUP1 RETURN JUMPDEST POP CALLVALUE PUSH2 0x27A JUMPI PUSH1 0x20 CALLDATASIZE PUSH1 0x3 NOT ADD SLT PUSH2 0x27A JUMPI PUSH1 0x24 PUSH1 0x20 PUSH2 0x564 PUSH2 0x191B JUMP JUMPDEST PUSH1 0x40 MLOAD PUSH4 0x14A5749D PUSH1 0xE3 SHL DUP2 MSTORE PUSH1 0x1 PUSH1 0x1 PUSH1 0xA0 SHL SUB SWAP2 DUP3 AND PUSH1 0x4 DUP3 ADD MSTORE SWAP3 DUP4 SWAP2 DUP3 SWAP1 PUSH32 0x0 AND GAS STATICCALL SWAP1 DUP2 ISZERO PUSH2 0x480 JUMPI PUSH1 0x20 SWAP3 SWAP2 PUSH2 0x5C5 JUMPI JUMPDEST POP PUSH1 0x40 MLOAD SWAP1 ISZERO ISZERO DUP2 MSTORE RETURN JUMPDEST PUSH2 0x5E5 SWAP2 POP DUP3 RETURNDATASIZE DUP2 GT PUSH2 0x5EB JUMPI JUMPDEST PUSH2 0x5DD DUP2 DUP4 PUSH2 0x1A7E JUMP JUMPDEST DUP2 ADD SWAP1 PUSH2 0x2269 JUMP JUMPDEST CODESIZE PUSH2 0x5BA JUMP JUMPDEST POP RETURNDATASIZE PUSH2 0x5D3 JUMP JUMPDEST POP CALLVALUE PUSH2 0x27A JUMPI DUP1 PUSH1 0x3 NOT CALLDATASIZE ADD SLT PUSH2 0x27A JUMPI PUSH1 0x20 PUSH1 0x40 MLOAD PUSH32 0xB1FADD3142AB2AD7F1337EA4D97112BCC8337FC11CE5B20CB04AD038ADF99819 DUP2 MSTORE RETURN JUMPDEST POP CALLVALUE PUSH2 0x27A JUMPI PUSH1 0x40 CALLDATASIZE PUSH1 0x3 NOT ADD SLT PUSH2 0x27A JUMPI PUSH2 0x647 PUSH2 0x191B JUMP JUMPDEST PUSH2 0x64F PUSH2 0x194C JUMP JUMPDEST PUSH1 0x1 PUSH1 0x1 PUSH1 0xA0 SHL SUB SWAP1 SWAP2 AND SWAP1 DUP2 ISZERO PUSH2 0x6BD JUMPI CALLER DUP4 MSTORE PUSH1 0x5 PUSH1 0x20 MSTORE PUSH1 0x40 DUP4 KECCAK256 DUP3 DUP5 MSTORE PUSH1 0x20 MSTORE PUSH2 0x68C DUP2 PUSH1 0x40 DUP6 KECCAK256 SWAP1 PUSH1 0xFF DUP1 NOT DUP4 SLOAD AND SWAP2 ISZERO ISZERO AND OR SWAP1 SSTORE JUMP JUMPDEST PUSH1 0x40 MLOAD SWAP1 ISZERO ISZERO DUP2 MSTORE PUSH32 0x17307EAB39AB6107E8899845AD3D59BD9653F200F220920489CA2B5937696C31 PUSH1 0x20 CALLER SWAP3 LOG3 DUP1 RETURN JUMPDEST PUSH1 0x40 MLOAD PUSH4 0xB611743 PUSH1 0xE3 SHL DUP2 MSTORE PUSH1 0x4 DUP2 ADD DUP4 SWAP1 MSTORE PUSH1 0x24 SWAP1 REVERT JUMPDEST POP CALLVALUE PUSH2 0x27A JUMPI DUP1 PUSH1 0x3 NOT CALLDATASIZE ADD SLT PUSH2 0x27A JUMPI PUSH1 0x20 SWAP1 PUSH1 0x40 MLOAD SWAP1 DUP2 MSTORE RETURN JUMPDEST POP CALLVALUE PUSH2 0x27A JUMPI PUSH1 0x20 CALLDATASIZE PUSH1 0x3 NOT ADD SLT PUSH2 0x27A JUMPI PUSH1 0xFF PUSH1 0x40 PUSH1 0x20 SWAP3 PUSH1 0x4 CALLDATALOAD DUP2 MSTORE PUSH1 0xC DUP5 MSTORE KECCAK256 SLOAD AND PUSH1 0x40 MLOAD SWAP1 ISZERO ISZERO DUP2 MSTORE RETURN JUMPDEST POP CALLVALUE PUSH2 0x27A JUMPI DUP1 PUSH1 0x3 NOT CALLDATASIZE ADD SLT PUSH2 0x27A JUMPI PUSH1 0x9 SLOAD PUSH1 0x40 MLOAD PUSH1 0x1 PUSH1 0x1 PUSH1 0xA0 SHL SUB SWAP1 SWAP2 AND DUP2 MSTORE PUSH1 0x20 SWAP1 RETURN JUMPDEST POP CALLVALUE PUSH2 0x27A JUMPI PUSH2 0x759 CALLDATASIZE PUSH2 0x195B JUMP JUMPDEST SWAP2 PUSH2 0x762 PUSH2 0x1AF3 JUMP JUMPDEST PUSH1 0x2 PUSH1 0x7 SLOAD EQ PUSH2 0x92C JUMPI PUSH1 0x2 PUSH1 0x7 SSTORE PUSH2 0x77A DUP4 PUSH2 0x2210 JUMP JUMPDEST PUSH1 0x1 PUSH1 0x1 PUSH1 0xA0 SHL SUB SWAP3 DUP4 DUP4 AND SWAP3 SWAP2 DUP5 AND DUP4 SWAP1 SUB PUSH2 0x8E7 JUMPI DUP4 AND SWAP3 DUP4 ISZERO PUSH2 0x8CE JUMPI PUSH2 0x7A2 PUSH2 0x224B JUMP JUMPDEST DUP5 DUP7 MSTORE PUSH1 0x2 PUSH1 0x20 MSTORE PUSH1 0x40 DUP7 KECCAK256 SLOAD AND DUP1 ISZERO DUP1 ISZERO PUSH2 0x899 JUMPI JUMPDEST DUP5 DUP8 MSTORE PUSH1 0x3 PUSH1 0x20 MSTORE PUSH1 0x40 DUP8 KECCAK256 PUSH1 0x1 DUP2 SLOAD ADD SWAP1 SSTORE DUP6 DUP8 MSTORE PUSH1 0x2 PUSH1 0x20 MSTORE PUSH1 0x40 DUP8 KECCAK256 DUP6 PUSH12 0xFFFFFFFFFFFFFFFFFFFFFFFF PUSH1 0xA0 SHL DUP3 SLOAD AND OR SWAP1 SSTORE DUP6 DUP6 DUP4 PUSH32 0xDDF252AD1BE2C89B69C2B068FC378DAA952BA7F163C4A11628F55A4DF523B3EF DUP11 DUP1 LOG4 ISZERO PUSH2 0x834 JUMPI PUSH1 0x40 MLOAD PUSH4 0x7E273289 PUSH1 0xE0 SHL DUP2 MSTORE PUSH1 0x4 DUP2 ADD DUP7 SWAP1 MSTORE PUSH1 0x24 SWAP1 REVERT JUMPDEST DUP3 DUP2 SUB PUSH2 0x869 JUMPI POP POP PUSH32 0x7B3CE50C216D2CCF9919C6B9F1BFB33F0350A33010F188750B4AF38E00448138 DUP5 DUP1 LOG4 PUSH1 0x1 PUSH1 0x7 SSTORE DUP1 RETURN JUMPDEST PUSH1 0x40 MLOAD PUSH4 0x64283D7B PUSH1 0xE0 SHL DUP2 MSTORE PUSH1 0x1 PUSH1 0x1 PUSH1 0xA0 SHL SUB SWAP3 DUP4 AND PUSH1 0x4 DUP3 ADD MSTORE PUSH1 0x24 DUP2 ADD DUP7 SWAP1 MSTORE SWAP2 AND PUSH1 0x44 DUP3 ADD MSTORE PUSH1 0x64 SWAP1 REVERT JUMPDEST PUSH1 0x0 DUP7 DUP2 MSTORE PUSH1 0x4 PUSH1 0x20 MSTORE PUSH1 0x40 SWAP1 KECCAK256 DUP1 SLOAD PUSH1 0x1 PUSH1 0x1 PUSH1 0xA0 SHL SUB NOT AND SWAP1 SSTORE DUP2 DUP8 MSTORE PUSH1 0x3 PUSH1 0x20 MSTORE PUSH1 0x40 DUP8 KECCAK256 DUP1 SLOAD PUSH1 0x0 NOT ADD SWAP1 SSTORE PUSH2 0x7B9 JUMP JUMPDEST PUSH1 0x40 MLOAD PUSH4 0x32505749 PUSH1 0xE1 SHL DUP2 MSTORE PUSH1 0x4 DUP2 ADD DUP8 SWAP1 MSTORE PUSH1 0x24 SWAP1 REVERT JUMPDEST PUSH1 0x40 MLOAD PUSH3 0x461BCD PUSH1 0xE5 SHL DUP2 MSTORE PUSH1 0x20 PUSH1 0x4 DUP3 ADD MSTORE PUSH1 0x17 PUSH1 0x24 DUP3 ADD MSTORE PUSH32 0x546F6B656E206E6F74206F776E65642062792066726F6D000000000000000000 PUSH1 0x44 DUP3 ADD MSTORE PUSH1 0x64 SWAP1 REVERT JUMPDEST PUSH1 0x40 MLOAD PUSH4 0x3EE5AEB5 PUSH1 0xE0 SHL DUP2 MSTORE PUSH1 0x4 SWAP1 REVERT JUMPDEST POP CALLVALUE PUSH2 0x27A JUMPI DUP1 PUSH1 0x3 NOT CALLDATASIZE ADD SLT PUSH2 0x27A JUMPI PUSH1 0x40 MLOAD SWAP1 DUP1 PUSH1 0x1 DUP1 SLOAD SWAP2 PUSH2 0x962 DUP4 PUSH2 0x1E2A JUMP JUMPDEST DUP1 DUP7 MSTORE SWAP3 DUP3 DUP2 AND SWAP1 DUP2 ISZERO PUSH2 0x9F7 JUMPI POP PUSH1 0x1 EQ PUSH2 0x99D JUMPI JUMPDEST PUSH2 0x276 DUP6 PUSH2 0x989 DUP2 DUP8 SUB DUP3 PUSH2 0x1A7E JUMP JUMPDEST PUSH1 0x40 MLOAD SWAP2 DUP3 SWAP2 PUSH1 0x20 DUP4 MSTORE PUSH1 0x20 DUP4 ADD SWAP1 PUSH2 0x18DB JUMP JUMPDEST SWAP3 POP DUP1 DUP4 MSTORE PUSH32 0xB10E2D527612073B26EECDFD717E6A320CF44B4AFAC2B0732D9FCBE2B7FA0CF6 JUMPDEST DUP3 DUP5 LT PUSH2 0x9DF JUMPI POP POP POP DUP2 ADD PUSH1 0x20 ADD PUSH2 0x989 DUP3 PUSH2 0x276 PUSH2 0x979 JUMP JUMPDEST DUP1 SLOAD PUSH1 0x20 DUP6 DUP8 ADD DUP2 ADD SWAP2 SWAP1 SWAP2 MSTORE SWAP1 SWAP4 ADD SWAP3 DUP2 ADD PUSH2 0x9C4 JUMP JUMPDEST DUP7 SWAP6 POP PUSH2 0x276 SWAP7 SWAP4 POP PUSH1 0x20 SWAP3 POP PUSH2 0x989 SWAP5 SWAP2 POP PUSH1 0xFF NOT AND DUP3 DUP5 ADD MSTORE ISZERO ISZERO PUSH1 0x5 SHL DUP3 ADD ADD SWAP3 SWAP4 PUSH2 0x979 JUMP JUMPDEST POP CALLVALUE PUSH2 0x27A JUMPI PUSH1 0x20 DUP1 PUSH1 0x3 NOT CALLDATASIZE ADD SLT PUSH2 0xBC3 JUMPI PUSH1 0x4 CALLDATALOAD PUSH8 0xFFFFFFFFFFFFFFFF SWAP3 DUP4 DUP3 GT PUSH2 0x27A JUMPI CALLDATASIZE PUSH1 0x23 DUP4 ADD SLT ISZERO PUSH2 0x27A JUMPI DUP2 PUSH1 0x4 ADD CALLDATALOAD SWAP4 DUP5 GT PUSH2 0x27A JUMPI PUSH1 0x24 PUSH1 0x5 SWAP5 CALLDATASIZE DUP3 DUP3 DUP9 SHL DUP7 ADD ADD GT PUSH2 0xBBF JUMPI PUSH2 0xA7A DUP2 PUSH2 0x24B4 JUMP JUMPDEST SWAP4 PUSH2 0xA88 PUSH1 0x40 MLOAD SWAP6 DUP7 PUSH2 0x1A7E JUMP JUMPDEST DUP2 DUP6 MSTORE PUSH1 0x1F NOT PUSH2 0xA97 DUP4 PUSH2 0x24B4 JUMP JUMPDEST ADD DUP7 DUP6 JUMPDEST DUP3 DUP2 LT PUSH2 0xBA9 JUMPI POP POP POP DUP4 JUMPDEST DUP3 DUP2 LT PUSH2 0xB0C JUMPI POP POP POP POP PUSH1 0x40 MLOAD SWAP3 DUP1 DUP5 ADD SWAP1 DUP1 DUP6 MSTORE DUP4 MLOAD DUP1 SWAP3 MSTORE DUP1 PUSH1 0x40 DUP4 DUP2 DUP9 ADD SWAP9 SHL DUP8 ADD ADD SWAP5 ADD SWAP3 SWAP6 JUMPDEST DUP3 DUP8 LT PUSH2 0xAE0 JUMPI DUP6 DUP6 SUB DUP7 RETURN JUMPDEST SWAP1 SWAP2 SWAP3 SWAP4 DUP3 DUP1 PUSH2 0xAFC PUSH1 0x1 SWAP4 PUSH1 0x3F NOT DUP11 DUP3 SUB ADD DUP7 MSTORE DUP9 MLOAD PUSH2 0x19E1 JUMP JUMPDEST SWAP7 ADD SWAP3 ADD SWAP7 ADD SWAP6 SWAP3 SWAP2 SWAP1 SWAP3 PUSH2 0xAD3 JUMP JUMPDEST DUP4 DUP2 DUP10 SHL DUP4 ADD ADD CALLDATALOAD DUP6 MSTORE PUSH1 0xB DUP8 MSTORE PUSH1 0x40 DUP6 KECCAK256 DUP9 PUSH1 0x40 MLOAD SWAP2 PUSH2 0xB2C DUP4 PUSH2 0x1A30 JUMP JUMPDEST PUSH2 0xB3A PUSH1 0xFF DUP3 SLOAD AND DUP5 PUSH2 0x2477 JUMP JUMPDEST PUSH1 0x1 DUP2 ADD SLOAD DUP11 DUP5 ADD MSTORE PUSH1 0x2 DUP2 ADD SLOAD PUSH1 0x40 DUP5 ADD MSTORE PUSH2 0xB59 PUSH1 0x3 DUP3 ADD PUSH2 0x1E64 JUMP JUMPDEST PUSH1 0x60 DUP5 ADD MSTORE PUSH1 0x4 DUP2 ADD SLOAD PUSH1 0x80 DUP5 ADD MSTORE ADD SLOAD PUSH1 0xA0 DUP3 ADD MSTORE PUSH2 0xB79 DUP3 DUP9 PUSH2 0x24CC JUMP JUMPDEST MSTORE PUSH2 0xB84 DUP2 DUP8 PUSH2 0x24CC JUMP JUMPDEST POP PUSH1 0x0 NOT DUP2 EQ PUSH2 0xB96 JUMPI PUSH1 0x1 ADD PUSH2 0xAA7 JUMP JUMPDEST PUSH4 0x4E487B71 PUSH1 0xE0 SHL DUP6 MSTORE PUSH1 0x11 PUSH1 0x4 MSTORE DUP4 DUP6 REVERT JUMPDEST PUSH2 0xBB1 PUSH2 0x2483 JUMP JUMPDEST DUP3 DUP3 DUP11 ADD ADD MSTORE ADD DUP8 SWAP1 PUSH2 0xA9B JUMP JUMPDEST DUP3 DUP1 REVERT JUMPDEST POP DUP1 REVERT JUMPDEST POP CALLVALUE PUSH2 0x27A JUMPI PUSH1 0x40 CALLDATASIZE PUSH1 0x3 NOT ADD SLT PUSH2 0x27A JUMPI PUSH1 0xFF PUSH1 0x40 PUSH1 0x20 SWAP3 PUSH2 0xBE8 PUSH2 0x1936 JUMP JUMPDEST PUSH1 0x4 CALLDATALOAD DUP3 MSTORE PUSH1 0x6 DUP6 MSTORE DUP3 DUP3 KECCAK256 PUSH1 0x1 PUSH1 0x1 PUSH1 0xA0 SHL SUB SWAP1 SWAP2 AND DUP3 MSTORE DUP5 MSTORE KECCAK256 SLOAD PUSH1 0x40 MLOAD SWAP2 AND ISZERO ISZERO DUP2 MSTORE RETURN JUMPDEST POP CALLVALUE PUSH2 0x27A JUMPI DUP1 PUSH1 0x3 NOT CALLDATASIZE ADD SLT PUSH2 0x27A JUMPI PUSH2 0xC29 PUSH2 0x1BA7 JUMP JUMPDEST PUSH2 0xC31 PUSH2 0x224B JUMP JUMPDEST PUSH1 0x1 PUSH1 0xFF NOT PUSH1 0x8 SLOAD AND OR PUSH1 0x8 SSTORE PUSH32 0x62E78CEA01BEE320CD4E420270B5EA74000D11B0C9F74754EBDBFC544B05A258 PUSH1 0x20 PUSH1 0x40 MLOAD CALLER DUP2 MSTORE LOG1 DUP1 RETURN JUMPDEST POP CALLVALUE PUSH2 0x27A JUMPI PUSH1 0xA0 CALLDATASIZE PUSH1 0x3 NOT ADD SLT PUSH2 0x27A JUMPI PUSH1 0x24 CALLDATALOAD SWAP1 PUSH1 0x4 DUP3 LT ISZERO PUSH2 0x27A JUMPI PUSH8 0xFFFFFFFFFFFFFFFF SWAP2 PUSH1 0x84 CALLDATALOAD DUP4 DUP2 GT PUSH2 0xBBF JUMPI PUSH2 0xCAC SWAP1 CALLDATASIZE SWAP1 PUSH1 0x4 ADD PUSH2 0x1990 JUMP JUMPDEST PUSH2 0xCB4 PUSH2 0x1C03 JUMP JUMPDEST PUSH2 0xCCA PUSH1 0x40 MLOAD SWAP4 PUSH2 0xCC4 DUP6 PUSH2 0x1A30 JUMP JUMPDEST DUP5 PUSH2 0x2477 JUMP JUMPDEST PUSH1 0x20 SWAP1 PUSH2 0xCEA DUP3 DUP6 ADD SWAP4 PUSH1 0x44 CALLDATALOAD DUP6 MSTORE PUSH1 0x40 DUP7 ADD SWAP3 PUSH1 0x64 CALLDATALOAD DUP5 MSTORE CALLDATASIZE SWAP2 PUSH2 0x1ABC JUMP JUMPDEST SWAP1 PUSH1 0x60 DUP6 ADD SWAP2 DUP3 MSTORE PUSH1 0x80 DUP6 ADD SWAP3 TIMESTAMP DUP5 MSTORE PUSH1 0xA0 DUP7 ADD SWAP5 DUP8 DUP7 MSTORE PUSH1 0x4 CALLDATALOAD DUP9 MSTORE PUSH1 0xB DUP3 MSTORE PUSH1 0x40 DUP9 KECCAK256 SWAP7 MLOAD PUSH1 0x4 DUP2 LT ISZERO PUSH2 0xE5F JUMPI PUSH1 0xFF DUP1 NOT DUP10 SLOAD AND SWAP2 AND OR DUP8 SSTORE MLOAD SWAP2 PUSH1 0x1 SWAP3 DUP4 DUP9 ADD SSTORE MLOAD PUSH1 0x2 DUP8 ADD SSTORE PUSH1 0x3 DUP7 ADD SWAP3 MLOAD DUP1 MLOAD SWAP9 DUP10 GT PUSH2 0xE4B JUMPI PUSH2 0xD4E DUP5 SLOAD PUSH2 0x1E2A JUMP JUMPDEST PUSH1 0x1F DUP2 GT PUSH2 0xE05 JUMPI JUMPDEST POP DUP2 PUSH1 0x1F DUP11 GT PUSH1 0x1 EQ PUSH2 0xDA0 JUMPI POP SWAP8 DUP1 SWAP3 DUP2 SWAP3 DUP10 SWAP11 PUSH1 0x5 SWAP10 SWAP11 SWAP5 PUSH2 0xD95 JUMPI JUMPDEST POP POP SHL SWAP2 PUSH1 0x0 NOT SWAP1 PUSH1 0x3 SHL SHR NOT AND OR SWAP1 SSTORE JUMPDEST MLOAD PUSH1 0x4 DUP5 ADD SSTORE MLOAD SWAP2 ADD SSTORE DUP1 RETURN JUMPDEST ADD MLOAD SWAP3 POP CODESIZE DUP1 PUSH2 0xD76 JUMP JUMPDEST SWAP1 SWAP9 SWAP2 PUSH1 0x1F NOT DUP4 AND SWAP10 DUP6 DUP11 MSTORE DUP3 DUP11 KECCAK256 SWAP3 DUP11 SWAP1 JUMPDEST DUP13 DUP3 LT PUSH2 0xDEE JUMPI POP POP DUP4 PUSH1 0x5 SWAP10 SWAP11 SWAP12 LT PUSH2 0xDD5 JUMPI JUMPDEST POP POP POP DUP2 SHL ADD SWAP1 SSTORE PUSH2 0xD88 JUMP JUMPDEST ADD MLOAD PUSH1 0x0 NOT PUSH1 0xF8 DUP5 PUSH1 0x3 SHL AND SHR NOT AND SWAP1 SSTORE CODESIZE DUP1 DUP1 PUSH2 0xDC8 JUMP JUMPDEST DUP1 DUP8 DUP6 SWAP7 DUP3 SWAP5 SWAP7 DUP7 ADD MLOAD DUP2 SSTORE ADD SWAP6 ADD SWAP4 ADD SWAP1 PUSH2 0xDB3 JUMP JUMPDEST DUP5 DUP10 MSTORE DUP3 DUP10 KECCAK256 PUSH1 0x1F DUP12 ADD PUSH1 0x5 SHR DUP2 ADD SWAP2 DUP5 DUP13 LT PUSH2 0xE41 JUMPI JUMPDEST PUSH1 0x1F ADD PUSH1 0x5 SHR ADD SWAP1 DUP5 SWAP1 JUMPDEST DUP3 DUP2 LT PUSH2 0xE36 JUMPI POP POP PUSH2 0xD57 JUMP JUMPDEST DUP11 DUP2 SSTORE ADD DUP5 SWAP1 PUSH2 0xE28 JUMP JUMPDEST SWAP1 SWAP2 POP DUP2 SWAP1 PUSH2 0xE1D JUMP JUMPDEST PUSH4 0x4E487B71 PUSH1 0xE0 SHL DUP9 MSTORE PUSH1 0x41 PUSH1 0x4 MSTORE PUSH1 0x24 DUP9 REVERT JUMPDEST PUSH4 0x4E487B71 PUSH1 0xE0 SHL DUP10 MSTORE PUSH1 0x21 PUSH1 0x4 MSTORE PUSH1 0x24 DUP10 REVERT JUMPDEST POP CALLVALUE PUSH2 0x27A JUMPI PUSH1 0x20 CALLDATASIZE PUSH1 0x3 NOT ADD SLT PUSH2 0x27A JUMPI PUSH1 0x1 PUSH1 0x1 PUSH1 0xA0 SHL SUB PUSH2 0xE95 PUSH2 0x191B JUMP JUMPDEST AND DUP1 ISZERO PUSH2 0xEB2 JUMPI DUP2 PUSH1 0x40 SWAP2 PUSH1 0x20 SWAP4 MSTORE PUSH1 0x3 DUP4 MSTORE KECCAK256 SLOAD PUSH1 0x40 MLOAD SWAP1 DUP2 MSTORE RETURN JUMPDEST PUSH1 0x40 MLOAD PUSH4 0x22718AD9 PUSH1 0xE2 SHL DUP2 MSTORE PUSH1 0x4 DUP2 ADD DUP4 SWAP1 MSTORE PUSH1 0x24 SWAP1 REVERT JUMPDEST POP CALLVALUE PUSH2 0x27A JUMPI PUSH1 0x20 CALLDATASIZE PUSH1 0x3 NOT ADD SLT PUSH2 0x27A JUMPI PUSH1 0x20 PUSH2 0xEEA PUSH1 0x4 CALLDATALOAD PUSH2 0x2210 JUMP JUMPDEST PUSH1 0x40 MLOAD PUSH1 0x1 PUSH1 0x1 PUSH1 0xA0 SHL SUB SWAP1 SWAP2 AND DUP2 MSTORE RETURN JUMPDEST POP CALLVALUE PUSH2 0x27A JUMPI PUSH1 0x80 CALLDATASIZE PUSH1 0x3 NOT ADD SLT PUSH2 0x27A JUMPI PUSH1 0x4 DUP1 CALLDATALOAD LT ISZERO PUSH2 0x27A JUMPI PUSH1 0x64 CALLDATALOAD PUSH8 0xFFFFFFFFFFFFFFFF DUP2 GT PUSH2 0xBC3 JUMPI PUSH2 0xF38 SWAP1 CALLDATASIZE SWAP1 PUSH1 0x4 ADD PUSH2 0x1990 JUMP JUMPDEST PUSH2 0xF40 PUSH2 0x1C03 JUMP JUMPDEST PUSH2 0xF4B CALLDATASIZE DUP3 DUP5 PUSH2 0x1ABC JUMP JUMPDEST PUSH1 0x20 DUP2 MLOAD SWAP2 ADD KECCAK256 SWAP2 DUP3 DUP5 MSTORE PUSH1 0xD PUSH1 0x20 MSTORE PUSH1 0x40 DUP5 KECCAK256 SLOAD PUSH2 0x11A7 JUMPI PUSH2 0xFB0 SWAP1 PUSH1 0xA SLOAD SWAP4 PUSH1 0x1 DUP6 ADD PUSH1 0xA SSTORE DUP6 MSTORE PUSH1 0xD PUSH1 0x20 MSTORE DUP4 PUSH1 0x40 DUP7 KECCAK256 SSTORE PUSH1 0x40 MLOAD SWAP3 PUSH2 0xF8D DUP5 PUSH2 0x1A30 JUMP JUMPDEST PUSH2 0xF99 PUSH1 0x4 CALLDATALOAD DUP6 PUSH2 0x2477 JUMP JUMPDEST PUSH1 0x24 CALLDATALOAD PUSH1 0x20 DUP6 ADD MSTORE PUSH1 0x44 CALLDATALOAD PUSH1 0x40 DUP6 ADD MSTORE CALLDATASIZE SWAP2 PUSH2 0x1ABC JUMP JUMPDEST PUSH1 0x60 DUP3 ADD MSTORE TIMESTAMP PUSH1 0x80 DUP3 ADD MSTORE DUP3 PUSH1 0xA0 DUP3 ADD MSTORE DUP2 DUP4 MSTORE PUSH1 0xB PUSH1 0x20 MSTORE PUSH1 0x40 DUP4 KECCAK256 SWAP1 DUP1 MLOAD PUSH1 0x4 DUP2 LT ISZERO PUSH2 0x1193 JUMPI PUSH1 0xFF DUP1 NOT DUP5 SLOAD AND SWAP2 AND OR DUP3 SSTORE PUSH1 0x20 DUP2 ADD MLOAD PUSH1 0x1 DUP4 ADD SSTORE PUSH1 0x40 DUP2 ADD MLOAD PUSH1 0x2 DUP4 ADD SSTORE PUSH1 0x60 DUP2 ADD MLOAD DUP1 MLOAD SWAP1 PUSH8 0xFFFFFFFFFFFFFFFF DUP3 GT PUSH2 0x117F JUMPI PUSH2 0x101D PUSH1 0x3 DUP6 ADD SLOAD PUSH2 0x1E2A JUMP JUMPDEST PUSH1 0x1F DUP2 GT PUSH2 0x113B JUMPI JUMPDEST POP SWAP5 PUSH1 0x20 SWAP6 DUP7 SWAP2 PUSH1 0x1F DUP5 GT PUSH1 0x1 EQ PUSH2 0x10CB JUMPI SWAP3 PUSH1 0x5 SWAP5 SWAP3 DUP2 SWAP3 PUSH1 0xA0 SWAP6 SWAP3 PUSH2 0x10C0 JUMPI JUMPDEST POP POP DUP2 PUSH1 0x1 SHL SWAP2 PUSH1 0x0 NOT SWAP1 PUSH1 0x3 SHL SHR NOT AND OR PUSH1 0x3 DUP6 ADD SSTORE JUMPDEST PUSH1 0x80 DUP2 ADD MLOAD PUSH1 0x4 DUP6 ADD SSTORE ADD MLOAD SWAP2 ADD SSTORE DUP1 PUSH32 0x6D6EE7DF9000AB7132FAA3536CB39E9B6F061B2FB0480F34B3B3828641659725 PUSH1 0x80 PUSH1 0x40 MLOAD PUSH2 0x10A2 DUP2 PUSH1 0x4 CALLDATALOAD PUSH2 0x19BE JUMP JUMPDEST PUSH1 0x24 CALLDATALOAD DUP7 DUP3 ADD MSTORE PUSH1 0x44 CALLDATALOAD PUSH1 0x40 DUP3 ADD MSTORE TIMESTAMP PUSH1 0x60 DUP3 ADD MSTORE LOG2 PUSH1 0x40 MLOAD SWAP1 DUP2 MSTORE RETURN JUMPDEST ADD MLOAD SWAP1 POP CODESIZE DUP1 PUSH2 0x1048 JUMP JUMPDEST SWAP2 SWAP1 PUSH1 0x3 DUP7 ADD DUP4 MSTORE DUP8 DUP4 KECCAK256 SWAP3 JUMPDEST PUSH1 0x1F NOT DUP6 AND DUP2 LT PUSH2 0x1124 JUMPI POP SWAP3 PUSH1 0x5 SWAP5 SWAP3 PUSH1 0x1 SWAP3 PUSH1 0xA0 SWAP6 DUP4 PUSH1 0x1F NOT DUP2 AND LT PUSH2 0x110B JUMPI JUMPDEST POP POP POP DUP2 SHL ADD PUSH1 0x3 DUP6 ADD SSTORE PUSH2 0x1060 JUMP JUMPDEST ADD MLOAD PUSH1 0x0 NOT PUSH1 0xF8 DUP5 PUSH1 0x3 SHL AND SHR NOT AND SWAP1 SSTORE CODESIZE DUP1 DUP1 PUSH2 0x10FB JUMP JUMPDEST SWAP2 SWAP3 DUP9 PUSH1 0x1 DUP2 SWAP3 DUP7 DUP6 ADD MLOAD DUP2 SSTORE ADD SWAP5 ADD SWAP3 ADD PUSH2 0x10D8 JUMP JUMPDEST PUSH1 0x3 DUP6 ADD DUP8 MSTORE PUSH1 0x20 DUP8 KECCAK256 PUSH1 0x1F DUP5 ADD PUSH1 0x5 SHR DUP2 ADD PUSH1 0x20 DUP6 LT PUSH2 0x1178 JUMPI JUMPDEST PUSH1 0x1F DUP4 ADD PUSH1 0x5 SHR DUP3 ADD DUP2 LT PUSH2 0x116D JUMPI POP POP PUSH2 0x1026 JUMP JUMPDEST DUP9 DUP2 SSTORE PUSH1 0x1 ADD PUSH2 0x1157 JUMP JUMPDEST POP DUP1 PUSH2 0x1157 JUMP JUMPDEST PUSH4 0x4E487B71 PUSH1 0xE0 SHL DUP7 MSTORE PUSH1 0x41 PUSH1 0x4 MSTORE PUSH1 0x24 DUP7 REVERT JUMPDEST PUSH4 0x4E487B71 PUSH1 0xE0 SHL DUP6 MSTORE PUSH1 0x21 PUSH1 0x4 MSTORE PUSH1 0x24 DUP6 REVERT JUMPDEST PUSH1 0x40 MLOAD PUSH3 0x461BCD PUSH1 0xE5 SHL DUP2 MSTORE PUSH1 0x20 PUSH1 0x4 DUP3 ADD MSTORE PUSH1 0x14 PUSH1 0x24 DUP3 ADD MSTORE PUSH20 0x417373657420616C726561647920657869737473 PUSH1 0x60 SHL PUSH1 0x44 DUP3 ADD MSTORE PUSH1 0x64 SWAP1 REVERT JUMPDEST POP CALLVALUE PUSH2 0x27A JUMPI DUP1 PUSH1 0x3 NOT CALLDATASIZE ADD SLT PUSH2 0x27A JUMPI PUSH1 0x20 PUSH1 0xFF PUSH1 0x8 SLOAD AND PUSH1 0x40 MLOAD SWAP1 ISZERO ISZERO DUP2 MSTORE RETURN JUMPDEST POP CALLVALUE PUSH2 0x27A JUMPI PUSH2 0x543 PUSH2 0x1218 CALLDATASIZE PUSH2 0x195B JUMP JUMPDEST SWAP1 PUSH1 0x40 MLOAD SWAP3 PUSH2 0x1226 DUP5 PUSH2 0x1A62 JUMP JUMPDEST DUP6 DUP5 MSTORE PUSH2 0x20BB JUMP JUMPDEST POP CALLVALUE PUSH2 0x27A JUMPI DUP1 PUSH1 0x3 NOT CALLDATASIZE ADD SLT PUSH2 0x27A JUMPI PUSH2 0x1247 PUSH2 0x1BA7 JUMP JUMPDEST PUSH1 0x8 SLOAD PUSH1 0xFF DUP2 AND ISZERO PUSH2 0x1287 JUMPI PUSH1 0xFF NOT AND PUSH1 0x8 SSTORE PUSH32 0x5DB9EE0A495BF2E6FF9C91A7834C1BA4FDD244A5E8AA4E537BD38AEAE4B073AA PUSH1 0x20 PUSH1 0x40 MLOAD CALLER DUP2 MSTORE LOG1 DUP1 RETURN JUMPDEST PUSH1 0x40 MLOAD PUSH4 0x8DFC202B PUSH1 0xE0 SHL DUP2 MSTORE PUSH1 0x4 SWAP1 REVERT JUMPDEST POP CALLVALUE PUSH2 0x27A JUMPI PUSH1 0x40 CALLDATASIZE PUSH1 0x3 NOT ADD SLT PUSH2 0x27A JUMPI PUSH2 0x12B3 PUSH2 0x1936 JUMP JUMPDEST CALLER PUSH1 0x1 PUSH1 0x1 PUSH1 0xA0 SHL SUB DUP3 AND SUB PUSH2 0x12CF JUMPI PUSH2 0x3C0 SWAP1 PUSH1 0x4 CALLDATALOAD PUSH2 0x1DB3 JUMP JUMPDEST PUSH1 0x40 MLOAD PUSH4 0x334BD919 PUSH1 0xE1 SHL DUP2 MSTORE PUSH1 0x4 SWAP1 REVERT JUMPDEST POP CALLVALUE PUSH2 0x27A JUMPI PUSH1 0x40 CALLDATASIZE PUSH1 0x3 NOT ADD SLT PUSH2 0x27A JUMPI PUSH2 0x3C0 PUSH1 0x4 CALLDATALOAD PUSH2 0x1301 PUSH2 0x1936 JUMP JUMPDEST SWAP1 DUP1 DUP5 MSTORE PUSH1 0x6 PUSH1 0x20 MSTORE PUSH2 0x131A PUSH1 0x1 PUSH1 0x40 DUP7 KECCAK256 ADD SLOAD PUSH2 0x1C5F JUMP JUMPDEST PUSH2 0x1D38 JUMP JUMPDEST POP CALLVALUE PUSH2 0x27A JUMPI PUSH1 0x20 CALLDATASIZE PUSH1 0x3 NOT ADD SLT PUSH2 0x27A JUMPI PUSH2 0x1339 PUSH2 0x191B JUMP JUMPDEST PUSH2 0x1341 PUSH2 0x1B6D JUMP JUMPDEST PUSH1 0x9 SLOAD PUSH1 0xFF DUP2 PUSH1 0xA0 SHR AND PUSH2 0x13F8 JUMPI PUSH1 0x1 PUSH1 0x1 PUSH1 0xA0 SHL SUB DUP3 AND SWAP2 DUP3 ISZERO PUSH2 0x13BA JUMPI DUP3 PUSH2 0x137F SWAP3 PUSH12 0xFFFFFFFFFFFFFFFFFFFFFFFF PUSH1 0xA0 SHL AND OR PUSH1 0x9 SSTORE PUSH2 0x1C85 JUMP JUMPDEST POP PUSH1 0x9 DUP1 SLOAD PUSH1 0xFF PUSH1 0xA0 SHL NOT AND PUSH1 0x1 PUSH1 0xA0 SHL OR SWAP1 SSTORE PUSH32 0xD11D57C2C7468878B1035DF11C670BCD0091AA840BF8AA166365397622237BEA DUP3 DUP1 LOG2 DUP1 RETURN JUMPDEST PUSH1 0x40 MLOAD PUSH3 0x461BCD PUSH1 0xE5 SHL DUP2 MSTORE PUSH1 0x20 PUSH1 0x4 DUP3 ADD MSTORE PUSH1 0x16 PUSH1 0x24 DUP3 ADD MSTORE PUSH22 0x496E76616C6964207061757365722061646472657373 PUSH1 0x50 SHL PUSH1 0x44 DUP3 ADD MSTORE PUSH1 0x64 SWAP1 REVERT JUMPDEST PUSH1 0x40 MLOAD PUSH3 0x461BCD PUSH1 0xE5 SHL DUP2 MSTORE PUSH1 0x20 PUSH1 0x4 DUP3 ADD MSTORE PUSH1 0x12 PUSH1 0x24 DUP3 ADD MSTORE PUSH18 0x14185D5CD95C88185B1C9958591E481CD95D PUSH1 0x72 SHL PUSH1 0x44 DUP3 ADD MSTORE PUSH1 0x64 SWAP1 REVERT JUMPDEST POP CALLVALUE PUSH2 0x27A JUMPI PUSH1 0x20 CALLDATASIZE PUSH1 0x3 NOT ADD SLT PUSH2 0x27A JUMPI PUSH2 0x144C PUSH2 0x191B JUMP JUMPDEST PUSH2 0x1454 PUSH2 0x1B6D JUMP JUMPDEST PUSH1 0x8 SLOAD SWAP1 PUSH1 0xFF DUP3 PUSH1 0xA8 SHR AND PUSH2 0x14F9 JUMPI PUSH1 0x1 PUSH1 0x1 PUSH1 0xA0 SHL SUB DUP2 AND SWAP2 DUP3 ISZERO PUSH2 0x14BE JUMPI PUSH2 0x100 PUSH1 0x1 PUSH1 0xB0 SHL SUB NOT AND PUSH1 0x8 SWAP2 DUP3 SHL PUSH2 0x100 PUSH1 0x1 PUSH1 0xA8 SHL SUB AND OR PUSH1 0x1 PUSH1 0xA8 SHL OR SWAP1 SSTORE PUSH32 0xC25EECBDA7B7F176285751CCB7A783AC11A7B5CA5D3365D0467246A564E188E1 DUP3 DUP1 LOG2 DUP1 RETURN JUMPDEST PUSH1 0x40 MLOAD PUSH3 0x461BCD PUSH1 0xE5 SHL DUP2 MSTORE PUSH1 0x20 PUSH1 0x4 DUP3 ADD MSTORE PUSH1 0x13 PUSH1 0x24 DUP3 ADD MSTORE PUSH19 0x24B73B30B634B21039B430B932903A37B5B2B7 PUSH1 0x69 SHL PUSH1 0x44 DUP3 ADD MSTORE PUSH1 0x64 SWAP1 REVERT JUMPDEST PUSH1 0x40 MLOAD PUSH3 0x461BCD PUSH1 0xE5 SHL DUP2 MSTORE PUSH1 0x20 PUSH1 0x4 DUP3 ADD MSTORE PUSH1 0x17 PUSH1 0x24 DUP3 ADD MSTORE PUSH32 0x417373657453686172657320616C726561647920736574000000000000000000 PUSH1 0x44 DUP3 ADD MSTORE PUSH1 0x64 SWAP1 REVERT JUMPDEST POP CALLVALUE PUSH2 0x27A JUMPI PUSH1 0x20 CALLDATASIZE PUSH1 0x3 NOT ADD SLT PUSH2 0x27A JUMPI PUSH1 0x1 PUSH1 0x40 PUSH1 0x20 SWAP3 PUSH1 0x4 CALLDATALOAD DUP2 MSTORE PUSH1 0x6 DUP5 MSTORE KECCAK256 ADD SLOAD PUSH1 0x40 MLOAD SWAP1 DUP2 MSTORE RETURN JUMPDEST POP CALLVALUE PUSH2 0x27A JUMPI PUSH2 0x543 PUSH2 0x157D CALLDATASIZE PUSH2 0x195B JUMP JUMPDEST SWAP2 PUSH2 0x1F0A JUMP JUMPDEST POP CALLVALUE PUSH2 0x27A JUMPI DUP1 PUSH1 0x3 NOT CALLDATASIZE ADD SLT PUSH2 0x27A JUMPI PUSH1 0x20 PUSH1 0x40 MLOAD PUSH32 0xB6F0283BD1ED00C6AA7E988A7516070240F3610A34D167391359B648EB37CEFC DUP2 MSTORE RETURN JUMPDEST POP CALLVALUE PUSH2 0x27A JUMPI PUSH1 0x40 CALLDATASIZE PUSH1 0x3 NOT ADD SLT PUSH2 0x27A JUMPI PUSH1 0x4 CALLDATALOAD PUSH2 0x1603 PUSH2 0x15DE PUSH2 0x194C JUMP JUMPDEST PUSH2 0x15E6 PUSH2 0x1AF3 JUMP JUMPDEST DUP3 DUP5 MSTORE PUSH1 0xC PUSH1 0x20 MSTORE PUSH1 0x40 DUP5 KECCAK256 SWAP1 PUSH1 0xFF DUP1 NOT DUP4 SLOAD AND SWAP2 ISZERO ISZERO AND OR SWAP1 SSTORE JUMP JUMPDEST PUSH1 0x1 PUSH1 0x1 PUSH1 0xA0 SHL SUB PUSH2 0x1614 DUP3 PUSH2 0x2210 JUMP JUMPDEST AND PUSH32 0x68E0D8C112165D0949CE87205B719ED7D98C7401866C34A159F7C67C6F5620E7 DUP4 DUP1 LOG3 DUP1 RETURN JUMPDEST POP CALLVALUE PUSH2 0x27A JUMPI DUP1 PUSH1 0x3 NOT CALLDATASIZE ADD SLT PUSH2 0x27A JUMPI PUSH1 0x40 MLOAD PUSH32 0x0 PUSH1 0x1 PUSH1 0x1 PUSH1 0xA0 SHL SUB AND DUP2 MSTORE PUSH1 0x20 SWAP1 RETURN JUMPDEST POP CALLVALUE PUSH2 0x27A JUMPI PUSH1 0x40 CALLDATASIZE PUSH1 0x3 NOT ADD SLT PUSH2 0x27A JUMPI PUSH2 0x169B PUSH2 0x191B JUMP JUMPDEST PUSH1 0x24 CALLDATALOAD PUSH2 0x16A7 DUP2 PUSH2 0x2210 JUMP JUMPDEST CALLER ISZERO ISZERO DUP1 PUSH2 0x1751 JUMPI JUMPDEST DUP1 PUSH2 0x1726 JUMPI JUMPDEST PUSH2 0x170E JUMPI PUSH1 0x1 PUSH1 0x1 PUSH1 0xA0 SHL SUB SWAP3 DUP4 AND SWAP3 DUP3 SWAP2 DUP5 SWAP2 AND PUSH32 0x8C5BE1E5EBEC7D5BD14F71427D1E84F3DD0314C0F7B2291E5B200AC8C7C3B925 DUP7 DUP1 LOG4 DUP3 MSTORE PUSH1 0x4 PUSH1 0x20 MSTORE PUSH1 0x40 DUP3 KECCAK256 DUP1 SLOAD PUSH1 0x1 PUSH1 0x1 PUSH1 0xA0 SHL SUB NOT AND SWAP1 SWAP2 OR SWAP1 SSTORE DUP1 RETURN JUMPDEST PUSH1 0x40 MLOAD PUSH4 0xA9FBF51F PUSH1 0xE0 SHL DUP2 MSTORE CALLER PUSH1 0x4 DUP3 ADD MSTORE PUSH1 0x24 SWAP1 REVERT JUMPDEST POP PUSH1 0x1 PUSH1 0x1 PUSH1 0xA0 SHL SUB DUP2 AND DUP5 MSTORE PUSH1 0x5 PUSH1 0x20 SWAP1 DUP2 MSTORE PUSH1 0x40 DUP1 DUP7 KECCAK256 CALLER DUP8 MSTORE SWAP1 SWAP2 MSTORE DUP5 KECCAK256 SLOAD PUSH1 0xFF AND ISZERO PUSH2 0x16B6 JUMP JUMPDEST POP PUSH1 0x1 PUSH1 0x1 PUSH1 0xA0 SHL SUB DUP2 AND CALLER EQ ISZERO PUSH2 0x16B0 JUMP JUMPDEST POP CALLVALUE PUSH2 0x27A JUMPI PUSH1 0x20 CALLDATASIZE PUSH1 0x3 NOT ADD SLT PUSH2 0x27A JUMPI PUSH1 0x20 SWAP1 PUSH1 0x4 CALLDATALOAD PUSH2 0x1785 DUP2 PUSH2 0x2210 JUMP JUMPDEST POP DUP2 MSTORE PUSH1 0x4 DUP3 MSTORE PUSH1 0x40 PUSH1 0x1 DUP1 PUSH1 0xA0 SHL SUB SWAP2 KECCAK256 SLOAD AND PUSH1 0x40 MLOAD SWAP1 DUP2 MSTORE RETURN JUMPDEST POP CALLVALUE PUSH2 0x27A JUMPI DUP1 PUSH1 0x3 NOT CALLDATASIZE ADD SLT PUSH2 0x27A JUMPI PUSH1 0x40 MLOAD SWAP1 DUP1 DUP1 SLOAD PUSH2 0x17C2 DUP2 PUSH2 0x1E2A JUMP JUMPDEST DUP1 DUP6 MSTORE SWAP2 PUSH1 0x1 SWAP2 DUP1 DUP4 AND SWAP1 DUP2 ISZERO PUSH2 0x9F7 JUMPI POP PUSH1 0x1 EQ PUSH2 0x17EB JUMPI PUSH2 0x276 DUP6 PUSH2 0x989 DUP2 DUP8 SUB DUP3 PUSH2 0x1A7E JUMP JUMPDEST DUP1 DUP1 SWAP5 POP MSTORE PUSH32 0x290DECD9548B62A8D60345A988386FC84BA6BC95484008F6362F93160EF3E563 JUMPDEST DUP3 DUP5 LT PUSH2 0x182D JUMPI POP POP POP DUP2 ADD PUSH1 0x20 ADD PUSH2 0x989 DUP3 PUSH2 0x276 PUSH2 0x979 JUMP JUMPDEST DUP1 SLOAD PUSH1 0x20 DUP6 DUP8 ADD DUP2 ADD SWAP2 SWAP1 SWAP2 MSTORE SWAP1 SWAP4 ADD SWAP3 DUP2 ADD PUSH2 0x1812 JUMP JUMPDEST SWAP1 POP CALLVALUE PUSH2 0xBC3 JUMPI PUSH1 0x20 CALLDATASIZE PUSH1 0x3 NOT ADD SLT PUSH2 0xBC3 JUMPI PUSH1 0x4 CALLDATALOAD PUSH4 0xFFFFFFFF PUSH1 0xE0 SHL DUP2 AND DUP1 SWAP2 SUB PUSH2 0xBBF JUMPI PUSH1 0x20 SWAP3 POP PUSH4 0x80AC58CD PUSH1 0xE0 SHL DUP2 EQ DUP1 ISZERO PUSH2 0x18CB JUMPI JUMPDEST DUP1 ISZERO PUSH2 0x18BB JUMPI JUMPDEST DUP1 SWAP2 DUP2 ISZERO PUSH2 0x1899 JUMPI JUMPDEST POP POP ISZERO ISZERO DUP2 MSTORE RETURN JUMPDEST PUSH4 0x7965DB0B PUSH1 0xE0 SHL EQ SWAP2 POP DUP2 ISZERO PUSH2 0x18B3 JUMPI JUMPDEST POP CODESIZE DUP1 PUSH2 0x1891 JUMP JUMPDEST SWAP1 POP CODESIZE PUSH2 0x18AB JUMP JUMPDEST POP PUSH4 0x1FFC9A7 PUSH1 0xE0 SHL DUP2 EQ PUSH2 0x1888 JUMP JUMPDEST POP PUSH4 0x5B5E139F PUSH1 0xE0 SHL DUP2 EQ PUSH2 0x1881 JUMP JUMPDEST SWAP2 SWAP1 DUP3 MLOAD SWAP3 DUP4 DUP3 MSTORE PUSH1 0x0 JUMPDEST DUP5 DUP2 LT PUSH2 0x1907 JUMPI POP POP DUP3 PUSH1 0x0 PUSH1 0x20 DUP1 SWAP5 SWAP6 DUP5 ADD ADD MSTORE PUSH1 0x1F DUP1 NOT SWAP2 ADD AND ADD ADD SWAP1 JUMP JUMPDEST PUSH1 0x20 DUP2 DUP4 ADD DUP2 ADD MLOAD DUP5 DUP4 ADD DUP3 ADD MSTORE ADD PUSH2 0x18E6 JUMP JUMPDEST PUSH1 0x4 CALLDATALOAD SWAP1 PUSH1 0x1 PUSH1 0x1 PUSH1 0xA0 SHL SUB DUP3 AND DUP3 SUB PUSH2 0x1931 JUMPI JUMP JUMPDEST PUSH1 0x0 DUP1 REVERT JUMPDEST PUSH1 0x24 CALLDATALOAD SWAP1 PUSH1 0x1 PUSH1 0x1 PUSH1 0xA0 SHL SUB DUP3 AND DUP3 SUB PUSH2 0x1931 JUMPI JUMP JUMPDEST PUSH1 0x24 CALLDATALOAD SWAP1 DUP2 ISZERO ISZERO DUP3 SUB PUSH2 0x1931 JUMPI JUMP JUMPDEST PUSH1 0x60 SWAP1 PUSH1 0x3 NOT ADD SLT PUSH2 0x1931 JUMPI PUSH1 0x1 PUSH1 0x1 PUSH1 0xA0 SHL SUB SWAP1 PUSH1 0x4 CALLDATALOAD DUP3 DUP2 AND DUP2 SUB PUSH2 0x1931 JUMPI SWAP2 PUSH1 0x24 CALLDATALOAD SWAP1 DUP2 AND DUP2 SUB PUSH2 0x1931 JUMPI SWAP1 PUSH1 0x44 CALLDATALOAD SWAP1 JUMP JUMPDEST SWAP2 DUP2 PUSH1 0x1F DUP5 ADD SLT ISZERO PUSH2 0x1931 JUMPI DUP3 CALLDATALOAD SWAP2 PUSH8 0xFFFFFFFFFFFFFFFF DUP4 GT PUSH2 0x1931 JUMPI PUSH1 0x20 DUP4 DUP2 DUP7 ADD SWAP6 ADD ADD GT PUSH2 0x1931 JUMPI JUMP JUMPDEST SWAP1 PUSH1 0x4 DUP3 LT ISZERO PUSH2 0x19CB JUMPI MSTORE JUMP JUMPDEST PUSH4 0x4E487B71 PUSH1 0xE0 SHL PUSH1 0x0 MSTORE PUSH1 0x21 PUSH1 0x4 MSTORE PUSH1 0x24 PUSH1 0x0 REVERT JUMPDEST SWAP1 PUSH2 0x19ED DUP2 DUP4 MLOAD PUSH2 0x19BE JUMP JUMPDEST PUSH1 0x20 DUP3 ADD MLOAD PUSH1 0x20 DUP3 ADD MSTORE PUSH1 0x40 DUP3 ADD MLOAD PUSH1 0x40 DUP3 ADD MSTORE PUSH1 0xA0 DUP1 PUSH2 0x1A1D PUSH1 0x60 DUP6 ADD MLOAD PUSH1 0xC0 PUSH1 0x60 DUP7 ADD MSTORE PUSH1 0xC0 DUP6 ADD SWAP1 PUSH2 0x18DB JUMP JUMPDEST SWAP4 PUSH1 0x80 DUP2 ADD MLOAD PUSH1 0x80 DUP6 ADD MSTORE ADD MLOAD SWAP2 ADD MSTORE SWAP1 JUMP JUMPDEST PUSH1 0xC0 DUP2 ADD SWAP1 DUP2 LT PUSH8 0xFFFFFFFFFFFFFFFF DUP3 GT OR PUSH2 0x1A4C JUMPI PUSH1 0x40 MSTORE JUMP JUMPDEST PUSH4 0x4E487B71 PUSH1 0xE0 SHL PUSH1 0x0 MSTORE PUSH1 0x41 PUSH1 0x4 MSTORE PUSH1 0x24 PUSH1 0x0 REVERT JUMPDEST PUSH1 0x20 DUP2 ADD SWAP1 DUP2 LT PUSH8 0xFFFFFFFFFFFFFFFF DUP3 GT OR PUSH2 0x1A4C JUMPI PUSH1 0x40 MSTORE JUMP JUMPDEST SWAP1 PUSH1 0x1F DUP1 NOT SWAP2 ADD AND DUP2 ADD SWAP1 DUP2 LT PUSH8 0xFFFFFFFFFFFFFFFF DUP3 GT OR PUSH2 0x1A4C JUMPI PUSH1 0x40 MSTORE JUMP JUMPDEST PUSH8 0xFFFFFFFFFFFFFFFF DUP2 GT PUSH2 0x1A4C JUMPI PUSH1 0x1F ADD PUSH1 0x1F NOT AND PUSH1 0x20 ADD SWAP1 JUMP JUMPDEST SWAP3 SWAP2 SWAP3 PUSH2 0x1AC8 DUP3 PUSH2 0x1AA0 JUMP JUMPDEST SWAP2 PUSH2 0x1AD6 PUSH1 0x40 MLOAD SWAP4 DUP5 PUSH2 0x1A7E JUMP JUMPDEST DUP3 SWAP5 DUP2 DUP5 MSTORE DUP2 DUP4 ADD GT PUSH2 0x1931 JUMPI DUP3 DUP2 PUSH1 0x20 SWAP4 DUP5 PUSH1 0x0 SWAP7 ADD CALLDATACOPY ADD ADD MSTORE JUMP JUMPDEST CALLER PUSH1 0x0 SWAP1 DUP2 MSTORE PUSH32 0xD1A890BF818AFA572802200688A7D376F87D9FCC58C522C6F18ADFC2A8443291 PUSH1 0x20 MSTORE PUSH1 0x40 SWAP1 KECCAK256 SLOAD PUSH32 0xB6F0283BD1ED00C6AA7E988A7516070240F3610A34D167391359B648EB37CEFC SWAP1 PUSH1 0xFF AND ISZERO PUSH2 0x1B4F JUMPI POP JUMP JUMPDEST PUSH1 0x44 SWAP1 PUSH1 0x40 MLOAD SWAP1 PUSH4 0xE2517D3F PUSH1 0xE0 SHL DUP3 MSTORE CALLER PUSH1 0x4 DUP4 ADD MSTORE PUSH1 0x24 DUP3 ADD MSTORE REVERT JUMPDEST CALLER PUSH1 0x0 SWAP1 DUP2 MSTORE PUSH32 0x54CDD369E4E8A8515E52CA72EC816C2101831AD1F18BF44102ED171459C9B4F8 PUSH1 0x20 MSTORE PUSH1 0x40 DUP2 KECCAK256 SLOAD PUSH1 0xFF AND ISZERO PUSH2 0x1B4F JUMPI POP JUMP JUMPDEST CALLER PUSH1 0x0 SWAP1 DUP2 MSTORE PUSH32 0xE09F975E15F8F53F24CBBC282B13C40B84DF485FCDB8D3997FA103DC5A4EF841 PUSH1 0x20 MSTORE PUSH1 0x40 SWAP1 KECCAK256 SLOAD PUSH32 0x65D7A28E3265B37A6474929F336521B332C1681B933F6CB9F3376673440D862A SWAP1 PUSH1 0xFF AND ISZERO PUSH2 0x1B4F JUMPI POP JUMP JUMPDEST CALLER PUSH1 0x0 SWAP1 DUP2 MSTORE PUSH32 0x6E891EA7DB4D1633822AF4F6A64073B5D7597C864A3DCCEE2EE6B7F25C837BBD PUSH1 0x20 MSTORE PUSH1 0x40 SWAP1 KECCAK256 SLOAD PUSH32 0xB1FADD3142AB2AD7F1337EA4D97112BCC8337FC11CE5B20CB04AD038ADF99819 SWAP1 PUSH1 0xFF AND ISZERO PUSH2 0x1B4F JUMPI POP JUMP JUMPDEST DUP1 PUSH1 0x0 MSTORE PUSH1 0x6 PUSH1 0x20 MSTORE PUSH1 0x40 PUSH1 0x0 KECCAK256 CALLER PUSH1 0x0 MSTORE PUSH1 0x20 MSTORE PUSH1 0xFF PUSH1 0x40 PUSH1 0x0 KECCAK256 SLOAD AND ISZERO PUSH2 0x1B4F JUMPI POP JUMP JUMPDEST PUSH1 0x1 PUSH1 0x1 PUSH1 0xA0 SHL SUB AND PUSH1 0x0 DUP2 DUP2 MSTORE PUSH32 0xE09F975E15F8F53F24CBBC282B13C40B84DF485FCDB8D3997FA103DC5A4EF841 PUSH1 0x20 MSTORE PUSH1 0x40 DUP2 KECCAK256 SLOAD SWAP1 SWAP2 SWAP1 PUSH32 0x65D7A28E3265B37A6474929F336521B332C1681B933F6CB9F3376673440D862A SWAP1 PUSH1 0xFF AND PUSH2 0x1D33 JUMPI DUP1 DUP4 MSTORE PUSH1 0x6 PUSH1 0x20 MSTORE PUSH1 0x40 DUP4 KECCAK256 DUP3 DUP5 MSTORE PUSH1 0x20 MSTORE PUSH1 0x40 DUP4 KECCAK256 PUSH1 0x1 PUSH1 0xFF NOT DUP3 SLOAD AND OR SWAP1 SSTORE PUSH32 0x2F8788117E7EFF1D82E926EC794901D17C78024A50270940304540A733656F0D CALLER SWAP4 DUP1 LOG4 PUSH1 0x1 SWAP1 JUMP JUMPDEST POP POP SWAP1 JUMP JUMPDEST SWAP1 PUSH1 0x0 SWAP2 DUP1 DUP4 MSTORE PUSH1 0x6 PUSH1 0x20 MSTORE PUSH1 0x40 DUP4 KECCAK256 SWAP2 PUSH1 0x1 DUP1 PUSH1 0xA0 SHL SUB AND SWAP2 DUP3 DUP5 MSTORE PUSH1 0x20 MSTORE PUSH1 0xFF PUSH1 0x40 DUP5 KECCAK256 SLOAD AND ISZERO PUSH1 0x0 EQ PUSH2 0x1D33 JUMPI DUP1 DUP4 MSTORE PUSH1 0x6 PUSH1 0x20 MSTORE PUSH1 0x40 DUP4 KECCAK256 DUP3 DUP5 MSTORE PUSH1 0x20 MSTORE PUSH1 0x40 DUP4 KECCAK256 PUSH1 0x1 PUSH1 0xFF NOT DUP3 SLOAD AND OR SWAP1 SSTORE PUSH32 0x2F8788117E7EFF1D82E926EC794901D17C78024A50270940304540A733656F0D CALLER SWAP4 DUP1 LOG4 PUSH1 0x1 SWAP1 JUMP JUMPDEST SWAP1 PUSH1 0x0 SWAP2 DUP1 DUP4 MSTORE PUSH1 0x6 PUSH1 0x20 MSTORE PUSH1 0x40 DUP4 KECCAK256 SWAP2 PUSH1 0x1 DUP1 PUSH1 0xA0 SHL SUB AND SWAP2 DUP3 DUP5 MSTORE PUSH1 0x20 MSTORE PUSH1 0xFF PUSH1 0x40 DUP5 KECCAK256 SLOAD AND PUSH1 0x0 EQ PUSH2 0x1D33 JUMPI DUP1 DUP4 MSTORE PUSH1 0x6 PUSH1 0x20 MSTORE PUSH1 0x40 DUP4 KECCAK256 DUP3 DUP5 MSTORE PUSH1 0x20 MSTORE PUSH1 0x40 DUP4 KECCAK256 PUSH1 0xFF NOT DUP2 SLOAD AND SWAP1 SSTORE PUSH32 0xF6391F5C32D9C69D2A47EA670B442974B53935D1EDC7FD64EB21E047A839171B CALLER SWAP4 DUP1 LOG4 PUSH1 0x1 SWAP1 JUMP JUMPDEST SWAP1 PUSH1 0x1 DUP3 DUP2 SHR SWAP3 AND DUP1 ISZERO PUSH2 0x1E5A JUMPI JUMPDEST PUSH1 0x20 DUP4 LT EQ PUSH2 0x1E44 JUMPI JUMP JUMPDEST PUSH4 0x4E487B71 PUSH1 0xE0 SHL PUSH1 0x0 MSTORE PUSH1 0x22 PUSH1 0x4 MSTORE PUSH1 0x24 PUSH1 0x0 REVERT JUMPDEST SWAP2 PUSH1 0x7F AND SWAP2 PUSH2 0x1E39 JUMP JUMPDEST SWAP1 PUSH1 0x40 MLOAD SWAP2 DUP3 PUSH1 0x0 DUP3 SLOAD SWAP3 PUSH2 0x1E78 DUP5 PUSH2 0x1E2A JUMP JUMPDEST SWAP1 DUP2 DUP5 MSTORE PUSH1 0x1 SWAP5 DUP6 DUP2 AND SWAP1 DUP2 PUSH1 0x0 EQ PUSH2 0x1EE7 JUMPI POP PUSH1 0x1 EQ PUSH2 0x1EA4 JUMPI JUMPDEST POP POP PUSH2 0x1EA2 SWAP3 POP SUB DUP4 PUSH2 0x1A7E JUMP JUMPDEST JUMP JUMPDEST SWAP1 SWAP4 SWAP2 POP PUSH1 0x0 MSTORE PUSH1 0x20 SWAP1 DUP2 PUSH1 0x0 KECCAK256 SWAP4 PUSH1 0x0 SWAP2 JUMPDEST DUP2 DUP4 LT PUSH2 0x1ECF JUMPI POP POP PUSH2 0x1EA2 SWAP4 POP DUP3 ADD ADD CODESIZE DUP1 PUSH2 0x1E94 JUMP JUMPDEST DUP6 SLOAD DUP9 DUP5 ADD DUP6 ADD MSTORE SWAP5 DUP6 ADD SWAP5 DUP8 SWAP5 POP SWAP2 DUP4 ADD SWAP2 PUSH2 0x1EB7 JUMP JUMPDEST SWAP2 POP POP PUSH2 0x1EA2 SWAP5 POP PUSH1 0x20 SWAP3 POP PUSH1 0xFF NOT AND DUP3 DUP5 ADD MSTORE ISZERO ISZERO PUSH1 0x5 SHL DUP3 ADD ADD CODESIZE DUP1 PUSH2 0x1E94 JUMP JUMPDEST SWAP1 PUSH1 0x1 PUSH1 0x1 PUSH1 0xA0 SHL SUB SWAP1 DUP2 AND DUP1 ISZERO PUSH2 0x20A2 JUMPI PUSH2 0x1F24 PUSH2 0x224B JUMP JUMPDEST PUSH1 0x0 SWAP2 DUP5 DUP4 MSTORE DUP5 PUSH1 0x20 SWAP3 PUSH1 0x2 DUP5 MSTORE PUSH1 0x40 SWAP4 DUP4 DUP6 DUP8 KECCAK256 SLOAD AND SWAP6 DUP7 SWAP2 CALLER ISZERO ISZERO DUP1 PUSH2 0x200C JUMPI JUMPDEST POP SWAP1 PUSH1 0x2 PUSH32 0xDDF252AD1BE2C89B69C2B068FC378DAA952BA7F163C4A11628F55A4DF523B3EF SWAP3 DUP5 PUSH2 0x1FD9 JUMPI JUMPDEST DUP6 DUP4 MSTORE PUSH1 0x3 DUP2 MSTORE DUP9 DUP4 KECCAK256 DUP1 SLOAD PUSH1 0x1 ADD SWAP1 SSTORE DUP7 DUP4 MSTORE MSTORE DUP7 DUP2 KECCAK256 DUP1 SLOAD PUSH1 0x1 PUSH1 0x1 PUSH1 0xA0 SHL SUB NOT AND DUP6 OR SWAP1 SSTORE DUP1 LOG4 DUP4 AND DUP3 SUB PUSH2 0x1FAB JUMPI POP POP POP POP JUMP JUMPDEST MLOAD PUSH4 0x64283D7B PUSH1 0xE0 SHL DUP2 MSTORE PUSH1 0x1 PUSH1 0x1 PUSH1 0xA0 SHL SUB SWAP3 DUP4 AND PUSH1 0x4 DUP3 ADD MSTORE PUSH1 0x24 DUP2 ADD SWAP4 SWAP1 SWAP4 MSTORE AND PUSH1 0x44 DUP3 ADD MSTORE PUSH1 0x64 SWAP1 REVERT JUMPDEST PUSH1 0x0 DUP8 DUP2 MSTORE PUSH1 0x4 PUSH1 0x20 MSTORE PUSH1 0x40 SWAP1 KECCAK256 DUP1 SLOAD PUSH1 0x1 PUSH1 0x1 PUSH1 0xA0 SHL SUB NOT AND SWAP1 SSTORE DUP5 DUP4 MSTORE PUSH1 0x3 DUP2 MSTORE DUP9 DUP4 KECCAK256 DUP1 SLOAD PUSH1 0x0 NOT ADD SWAP1 SSTORE PUSH2 0x1F73 JUMP JUMPDEST SWAP2 SWAP4 SWAP5 POP SWAP2 POP DUP1 PUSH2 0x2061 JUMPI JUMPDEST ISZERO PUSH2 0x2028 JUMPI DUP8 SWAP3 SWAP2 DUP7 SWAP2 CODESIZE PUSH2 0x1F47 JUMP JUMPDEST DUP5 DUP9 DUP8 PUSH2 0x2045 JUMPI PUSH1 0x24 SWAP2 MLOAD SWAP1 PUSH4 0x7E273289 PUSH1 0xE0 SHL DUP3 MSTORE PUSH1 0x4 DUP3 ADD MSTORE REVERT JUMPDEST PUSH1 0x44 SWAP2 MLOAD SWAP1 PUSH4 0x177E802F PUSH1 0xE0 SHL DUP3 MSTORE CALLER PUSH1 0x4 DUP4 ADD MSTORE PUSH1 0x24 DUP3 ADD MSTORE REVERT JUMPDEST POP CALLER DUP7 EQ DUP1 ISZERO PUSH2 0x2086 JUMPI JUMPDEST DUP1 PUSH2 0x2018 JUMPI POP DUP8 DUP3 MSTORE PUSH1 0x4 DUP2 MSTORE CALLER DUP5 DUP7 DUP5 KECCAK256 SLOAD AND EQ PUSH2 0x2018 JUMP JUMPDEST POP DUP6 DUP3 MSTORE PUSH1 0x5 DUP2 MSTORE DUP5 DUP3 KECCAK256 CALLER DUP4 MSTORE DUP2 MSTORE PUSH1 0xFF DUP6 DUP4 KECCAK256 SLOAD AND PUSH2 0x206C JUMP JUMPDEST PUSH1 0x40 MLOAD PUSH4 0x32505749 PUSH1 0xE1 SHL DUP2 MSTORE PUSH1 0x0 PUSH1 0x4 DUP3 ADD MSTORE PUSH1 0x24 SWAP1 REVERT JUMPDEST SWAP3 SWAP1 SWAP3 PUSH2 0x20C9 DUP4 DUP6 DUP4 PUSH2 0x1F0A JUMP JUMPDEST DUP4 EXTCODESIZE PUSH2 0x20D6 JUMPI JUMPDEST POP POP POP POP JUMP JUMPDEST PUSH1 0x40 MLOAD PUSH4 0xA85BD01 PUSH1 0xE1 SHL DUP1 DUP3 MSTORE CALLER PUSH1 0x4 DUP4 ADD MSTORE PUSH1 0x1 PUSH1 0x1 PUSH1 0xA0 SHL SUB SWAP3 DUP4 AND PUSH1 0x24 DUP4 ADD MSTORE PUSH1 0x44 DUP3 ADD SWAP5 SWAP1 SWAP5 MSTORE PUSH1 0x80 PUSH1 0x64 DUP3 ADD MSTORE SWAP5 SWAP4 AND SWAP3 PUSH1 0x20 SWAP3 SWAP1 SWAP2 DUP6 SWAP1 PUSH2 0x2122 SWAP1 PUSH1 0x84 DUP4 ADD SWAP1 PUSH2 0x18DB JUMP JUMPDEST SUB SWAP5 DUP4 DUP2 PUSH1 0x0 SWAP8 DUP2 DUP10 DUP10 GAS CALL DUP7 SWAP2 DUP2 PUSH2 0x21CC JUMPI JUMPDEST POP PUSH2 0x2197 JUMPI POP POP POP RETURNDATASIZE PUSH1 0x0 EQ PUSH2 0x218E JUMPI RETURNDATASIZE PUSH2 0x2150 DUP2 PUSH2 0x1AA0 JUMP JUMPDEST SWAP1 PUSH2 0x215E PUSH1 0x40 MLOAD SWAP3 DUP4 PUSH2 0x1A7E JUMP JUMPDEST DUP2 MSTORE DUP1 SWAP4 DUP3 RETURNDATASIZE SWAP3 ADD RETURNDATACOPY JUMPDEST DUP3 MLOAD SWAP3 DUP4 PUSH2 0x2189 JUMPI PUSH1 0x40 MLOAD PUSH4 0x32505749 PUSH1 0xE1 SHL DUP2 MSTORE PUSH1 0x4 DUP2 ADD DUP5 SWAP1 MSTORE PUSH1 0x24 SWAP1 REVERT JUMPDEST ADD SWAP1 POP REVERT JUMPDEST PUSH1 0x60 SWAP3 POP PUSH2 0x2168 JUMP JUMPDEST SWAP2 SWAP5 POP SWAP2 POP PUSH4 0xFFFFFFFF PUSH1 0xE0 SHL AND SUB PUSH2 0x21B4 JUMPI POP CODESIZE DUP1 DUP1 DUP1 PUSH2 0x20D0 JUMP JUMPDEST PUSH1 0x24 SWAP1 PUSH1 0x40 MLOAD SWAP1 PUSH4 0x32505749 PUSH1 0xE1 SHL DUP3 MSTORE PUSH1 0x4 DUP3 ADD MSTORE REVERT JUMPDEST SWAP1 SWAP2 POP DUP5 DUP2 DUP2 RETURNDATASIZE DUP4 GT PUSH2 0x2209 JUMPI JUMPDEST PUSH2 0x21E4 DUP2 DUP4 PUSH2 0x1A7E JUMP JUMPDEST DUP2 ADD SUB SLT PUSH2 0x2205 JUMPI MLOAD PUSH1 0x1 PUSH1 0x1 PUSH1 0xE0 SHL SUB NOT DUP2 AND DUP2 SUB PUSH2 0x2205 JUMPI SWAP1 CODESIZE PUSH2 0x2136 JUMP JUMPDEST DUP7 DUP1 REVERT JUMPDEST POP RETURNDATASIZE PUSH2 0x21DA JUMP JUMPDEST PUSH1 0x0 DUP2 DUP2 MSTORE PUSH1 0x2 PUSH1 0x20 MSTORE PUSH1 0x40 SWAP1 KECCAK256 SLOAD PUSH1 0x1 PUSH1 0x1 PUSH1 0xA0 SHL SUB AND SWAP1 DUP2 ISZERO PUSH2 0x2233 JUMPI POP SWAP1 JUMP JUMPDEST PUSH1 0x24 SWAP1 PUSH1 0x40 MLOAD SWAP1 PUSH4 0x7E273289 PUSH1 0xE0 SHL DUP3 MSTORE PUSH1 0x4 DUP3 ADD MSTORE REVERT JUMPDEST PUSH1 0xFF PUSH1 0x8 SLOAD AND PUSH2 0x2257 JUMPI JUMP JUMPDEST PUSH1 0x40 MLOAD PUSH4 0xD93C0665 PUSH1 0xE0 SHL DUP2 MSTORE PUSH1 0x4 SWAP1 REVERT JUMPDEST SWAP1 DUP2 PUSH1 0x20 SWAP2 SUB SLT PUSH2 0x1931 JUMPI MLOAD DUP1 ISZERO ISZERO DUP2 SUB PUSH2 0x1931 JUMPI SWAP1 JUMP JUMPDEST PUSH1 0x40 MLOAD PUSH4 0x14A5749D PUSH1 0xE3 SHL DUP2 MSTORE PUSH1 0x1 PUSH1 0x1 PUSH1 0xA0 SHL SUB SWAP2 DUP3 AND PUSH1 0x4 DUP3 ADD DUP2 SWAP1 MSTORE SWAP3 SWAP1 PUSH1 0x20 DUP2 PUSH1 0x24 DUP2 PUSH32 0x0 DUP8 AND GAS STATICCALL SWAP1 DUP2 ISZERO PUSH2 0x2348 JUMPI PUSH1 0x0 SWAP2 PUSH2 0x232A JUMPI JUMPDEST POP ISZERO DUP1 ISZERO PUSH2 0x231E JUMPI JUMPDEST DUP1 ISZERO PUSH2 0x2306 JUMPI JUMPDEST PUSH2 0x22FE JUMPI PUSH2 0x22F9 SWAP1 PUSH2 0x2210 JUMP JUMPDEST AND EQ SWAP1 JUMP JUMPDEST POP POP POP PUSH1 0x0 SWAP1 JUMP JUMPDEST POP DUP1 PUSH1 0x0 MSTORE PUSH1 0xC PUSH1 0x20 MSTORE PUSH1 0xFF PUSH1 0x40 PUSH1 0x0 KECCAK256 SLOAD AND PUSH2 0x22EC JUMP JUMPDEST POP PUSH1 0xFF PUSH1 0x8 SLOAD AND PUSH2 0x22E5 JUMP JUMPDEST PUSH2 0x2342 SWAP2 POP PUSH1 0x20 RETURNDATASIZE DUP2 GT PUSH2 0x5EB JUMPI PUSH2 0x5DD DUP2 DUP4 PUSH2 0x1A7E JUMP JUMPDEST CODESIZE PUSH2 0x22DC JUMP JUMPDEST PUSH1 0x40 MLOAD RETURNDATASIZE PUSH1 0x0 DUP3 RETURNDATACOPY RETURNDATASIZE SWAP1 REVERT JUMPDEST PUSH1 0x40 MLOAD PUSH4 0x14A5749D PUSH1 0xE3 SHL DUP1 DUP3 MSTORE PUSH1 0x1 PUSH1 0x1 PUSH1 0xA0 SHL SUB SWAP3 DUP4 AND PUSH1 0x4 DUP4 ADD DUP2 SWAP1 MSTORE SWAP5 SWAP3 SWAP4 PUSH1 0x20 SWAP3 PUSH32 0x0 DUP7 AND SWAP3 SWAP1 SWAP2 SWAP1 DUP5 DUP4 PUSH1 0x24 DUP2 DUP8 GAS STATICCALL DUP1 ISZERO PUSH2 0x2348 JUMPI DUP8 SWAP4 PUSH1 0x0 SWAP2 PUSH2 0x245A JUMPI JUMPDEST POP ISZERO SWAP4 DUP5 ISZERO PUSH2 0x2409 JUMPI JUMPDEST POP POP POP POP SWAP1 DUP2 ISZERO PUSH2 0x23FC JUMPI JUMPDEST DUP2 ISZERO PUSH2 0x23E4 JUMPI JUMPDEST POP PUSH2 0x22FE JUMPI PUSH2 0x22F9 SWAP1 PUSH2 0x2210 JUMP JUMPDEST PUSH1 0xC SWAP2 POP DUP3 PUSH1 0x0 MSTORE MSTORE PUSH1 0xFF PUSH1 0x40 PUSH1 0x0 KECCAK256 SLOAD AND CODESIZE PUSH2 0x23D6 JUMP JUMPDEST PUSH1 0x8 SLOAD PUSH1 0xFF AND SWAP2 POP PUSH2 0x23CF JUMP JUMPDEST DUP6 SWAP4 SWAP5 POP SWAP1 PUSH1 0x24 SWAP2 PUSH1 0x40 MLOAD SWAP6 DUP7 SWAP5 DUP6 SWAP4 DUP5 MSTORE AND PUSH1 0x4 DUP4 ADD MSTORE GAS STATICCALL SWAP1 DUP2 ISZERO PUSH2 0x2348 JUMPI PUSH1 0x0 SWAP2 PUSH2 0x243D JUMPI JUMPDEST POP ISZERO DUP4 CODESIZE DUP1 DUP1 PUSH2 0x23C3 JUMP JUMPDEST PUSH2 0x2454 SWAP2 POP DUP3 RETURNDATASIZE DUP5 GT PUSH2 0x5EB JUMPI PUSH2 0x5DD DUP2 DUP4 PUSH2 0x1A7E JUMP JUMPDEST CODESIZE PUSH2 0x2432 JUMP JUMPDEST PUSH2 0x2471 SWAP2 POP DUP7 RETURNDATASIZE DUP9 GT PUSH2 0x5EB JUMPI PUSH2 0x5DD DUP2 DUP4 PUSH2 0x1A7E JUMP JUMPDEST CODESIZE PUSH2 0x23B9 JUMP JUMPDEST PUSH1 0x4 DUP3 LT ISZERO PUSH2 0x19CB JUMPI MSTORE JUMP JUMPDEST PUSH1 0x40 MLOAD SWAP1 PUSH2 0x2490 DUP3 PUSH2 0x1A30 JUMP JUMPDEST PUSH1 0x0 PUSH1 0xA0 DUP4 DUP3 DUP2 MSTORE DUP3 PUSH1 0x20 DUP3 ADD MSTORE DUP3 PUSH1 0x40 DUP3 ADD MSTORE PUSH1 0x60 DUP1 DUP3 ADD MSTORE DUP3 PUSH1 0x80 DUP3 ADD MSTORE ADD MSTORE JUMP JUMPDEST PUSH8 0xFFFFFFFFFFFFFFFF DUP2 GT PUSH2 0x1A4C JUMPI PUSH1 0x5 SHL PUSH1 0x20 ADD SWAP1 JUMP JUMPDEST DUP1 MLOAD DUP3 LT ISZERO PUSH2 0x24E0 JUMPI PUSH1 0x20 SWAP2 PUSH1 0x5 SHL ADD ADD SWAP1 JUMP JUMPDEST PUSH4 0x4E487B71 PUSH1 0xE0 SHL PUSH1 0x0 MSTORE PUSH1 0x32 PUSH1 0x4 MSTORE PUSH1 0x24 PUSH1 0x0 REVERT INVALID LOG2 PUSH5 0x6970667358 0x22 SLT KECCAK256 0xEB JUMPDEST 0x4C DUP10 SWAP12 KECCAK256 0xD2 0xBA JUMP 0x4B SELFDESTRUCT 0xD3 0xC0 0x4F MULMOD PUSH12 0x7467CADE766C4A64D90D0D56 BALANCE 0xE5 CHAINID CALLER PUSH5 0x736F6C6343 STOP ADDMOD EQ STOP CALLER 0x2F DUP8 DUP9 GT PUSH31 0x7EFF1D82E926EC794901D17C78024A50270940304540A733656F0D00000000 "},"methodIdentifiers":{"ASSET_MANAGER_ROLE()":"a4b32de8","COMPLIANCE_OFFICER_ROLE()":"198596b5","DEFAULT_ADMIN_ROLE()":"a217fddf","PAUSER_ROLE()":"e63ab1e9","approve(address,uint256)":"095ea7b3","assetShares()":"e1ff0f87","balanceOf(address)":"70a08231","canTransact(address,uint256)":"d5c03cc9","canTransfer(address,address,uint256)":"e46638e6","createAsset(uint8,uint256,uint256,string)":"5d7ec37d","forcedTransfer(address,address,uint256)":"9fc1d0e7","getAllAssets(uint256[])":"9318603a","getApproved(uint256)":"081812fc","getAsset(uint256)":"eac8f5b8","getRoleAdmin(bytes32)":"248a9ca3","grantRole(bytes32,address)":"2f2ff15d","hasRole(bytes32,address)":"91d14854","isApprovedForAll(address,address)":"e985e9c5","isFrozen(uint256)":"a0894799","isUserAllowed(address)":"a52ba4e8","name()":"06fdde03","ownerOf(uint256)":"6352211e","pause()":"8456cb59","paused()":"5c975abb","pauser()":"9fd0506d","renounceRole(bytes32,address)":"36568abe","revokeRole(bytes32,address)":"d547741f","safeTransferFrom(address,address,uint256)":"42842e0e","safeTransferFrom(address,address,uint256,bytes)":"b88d4fde","setApprovalForAll(address,bool)":"a22cb465","setAssetForTest(uint256,uint8,uint256,uint256,string)":"79d07a8a","setAssetShares(address)":"28f5bc6a","setFrozenToken(uint256,bool)":"11a84e73","setPauser(address)":"2d88af4a","setUserAllowed(address,bool)":"d1a81a8d","supportsInterface(bytes4)":"01ffc9a7","symbol()":"95d89b41","tokenURI(uint256)":"c87b56dd","transferFrom(address,address,uint256)":"23b872dd","unpause()":"3f4ba83a","userAllowList()":"0ad5b98c"}}}}}