{"contracts/core/AssetUserAllowList.sol":{"AssetUserAllowList":{"abi":[{"inputs":[],"stateMutability":"nonpayable","type":"constructor"},{"inputs":[],"name":"AccessControlBadConfirmation","type":"error"},{"inputs":[{"internalType":"address","name":"account","type":"address"},{"internalType":"bytes32","name":"neededRole","type":"bytes32"}],"name":"AccessControlUnauthorizedAccount","type":"error"},{"inputs":[{"internalType":"address","name":"caller","type":"address"}],"name":"OnlyAuthorizedCaller","type":"error"},{"anonymous":false,"inputs":[{"indexed":true,"internalType":"address","name":"caller","type":"address"},{"indexed":false,"internalType":"bool","name":"authorized","type":"bool"}],"name":"AuthorizedCallerUpdated","type":"event"},{"anonymous":false,"inputs":[{"indexed":true,"internalType":"bytes32","name":"role","type":"bytes32"},{"indexed":true,"internalType":"bytes32","name":"previousAdminRole","type":"bytes32"},{"indexed":true,"internalType":"bytes32","name":"newAdminRole","type":"bytes32"}],"name":"RoleAdminChanged","type":"event"},{"anonymous":false,"inputs":[{"indexed":true,"internalType":"bytes32","name":"role","type":"bytes32"},{"indexed":true,"internalType":"address","name":"account","type":"address"},{"indexed":true,"internalType":"address","name":"sender","type":"address"}],"name":"RoleGranted","type":"event"},{"anonymous":false,"inputs":[{"indexed":true,"internalType":"bytes32","name":"role","type":"bytes32"},{"indexed":true,"internalType":"address","name":"account","type":"address"},{"indexed":true,"internalType":"address","name":"sender","type":"address"}],"name":"RoleRevoked","type":"event"},{"anonymous":false,"inputs":[{"indexed":true,"internalType":"address","name":"user","type":"address"},{"indexed":false,"internalType":"bool","name":"allowed","type":"bool"}],"name":"UserAllowlistUpdated","type":"event"},{"inputs":[],"name":"DEFAULT_ADMIN_ROLE","outputs":[{"internalType":"bytes32","name":"","type":"bytes32"}],"stateMutability":"view","type":"function"},{"inputs":[{"internalType":"bytes32","name":"role","type":"bytes32"}],"name":"getRoleAdmin","outputs":[{"internalType":"bytes32","name":"","type":"bytes32"}],"stateMutability":"view","type":"function"},{"inputs":[{"internalType":"bytes32","name":"role","type":"bytes32"},{"internalType":"address","name":"account","type":"address"}],"name":"grantRole","outputs":[],"stateMutability":"nonpayable","type":"function"},{"inputs":[{"internalType":"bytes32","name":"role","type":"bytes32"},{"internalType":"address","name":"account","type":"address"}],"name":"hasRole","outputs":[{"internalType":"bool","name":"","type":"bool"}],"stateMutability":"view","type":"function"},{"inputs":[{"internalType":"address","name":"caller","type":"address"}],"name":"isAuthorizedCaller","outputs":[{"internalType":"bool","name":"","type":"bool"}],"stateMutability":"view","type":"function"},{"inputs":[{"internalType":"address","name":"user","type":"address"}],"name":"isUserAllowed","outputs":[{"internalType":"bool","name":"","type":"bool"}],"stateMutability":"view","type":"function"},{"inputs":[{"internalType":"bytes32","name":"role","type":"bytes32"},{"internalType":"address","name":"callerConfirmation","type":"address"}],"name":"renounceRole","outputs":[],"stateMutability":"nonpayable","type":"function"},{"inputs":[{"internalType":"bytes32","name":"role","type":"bytes32"},{"internalType":"address","name":"account","type":"address"}],"name":"revokeRole","outputs":[],"stateMutability":"nonpayable","type":"function"},{"inputs":[{"internalType":"address","name":"caller","type":"address"},{"internalType":"bool","name":"authorized","type":"bool"}],"name":"setAuthorizedCaller","outputs":[],"stateMutability":"nonpayable","type":"function"},{"inputs":[{"internalType":"address","name":"user","type":"address"},{"internalType":"bool","name":"allowed","type":"bool"}],"name":"setUserAllowed","outputs":[],"stateMutability":"nonpayable","type":"function"},{"inputs":[{"internalType":"address[]","name":"users","type":"address[]"},{"internalType":"bool[]","name":"allowed","type":"bool[]"}],"name":"setUsersAllowed","outputs":[],"stateMutability":"nonpayable","type":"function"},{"inputs":[{"internalType":"bytes4","name":"interfaceId","type":"bytes4"}],"name":"supportsInterface","outputs":[{"internalType":"bool","name":"","type":"bool"}],"stateMutability":"view","type":"function"}],"evm":{"bytecode":{"linkReferences":{},"object":"6080604052346100225761001233610027565b5060405161080c90816100b88239f35b600080fd5b6001600160a01b031660008181527fad3228b676f7d3cd4284a5443f17f1962b36e491b30a40b2405849e597ba5fb5602052604081205490919060ff166100b357818052816020526040822081835260205260408220600160ff1982541617905533917f2f8788117e7eff1d82e926ec794901d17c78024a50270940304540a733656f0d8180a4600190565b509056fe608060408181526004908136101561001657600080fd5b600092833560e01c90816301ffc9a71461057357508063248a9ca3146105495780632f2ff15d1461052157806336568abe146104da5780633a47c26b1461034c578063454bbd291461027257806359d14b411461023457806391d14854146101ee578063a217fddf146101d3578063a52ba4e81461017a578063d1a81a8d146100e85763d547741f146100a857600080fd5b346100e457806003193601126100e4576100e091356100db60016100ca6105c7565b938387528660205286200154610658565b61071a565b5080f35b8280fd5b5090346100e4576100f836610629565b91338552600260205260ff84862054161561016357506001600160a01b031680845260016020908152838520805460ff191660ff8515151617905590927fea2c57f30100fac2e0e343554923481a9e3da2adeaa81495b6ff46feeb216ead92905b519015158152a280f35b602490845190635fd2804d60e01b82523390820152fd5b509190346101cf5760203660031901126101cf576101966105e2565b90338352600260205260ff848420541615610163576001600160a01b03821683526001602090815284842054855160ff90911615158152f35b5080fd5b8382346101cf57816003193601126101cf5751908152602090f35b5090346100e457816003193601126100e4578160209360ff9261020f6105c7565b903582528186528282206001600160a01b039091168252855220549151911615158152f35b8382346101cf5760203660031901126101cf5760209160ff9082906001600160a01b0361025f6105e2565b1681526002855220541690519015158152f35b50346100e45761028136610629565b91908480528460205281852033865260205260ff82862054161561032f576001600160a01b03169283156102f457507fad857fa38c9319cb80848f1ef2f924383b90297eb5d71755738ff037d100faa19160209184865260028352610159828288209060ff801983541691151516179055565b6020606492519162461bcd60e51b83528201526016602482015275496e76616c69642063616c6c6572206164647265737360501b6044820152fd5b815163e2517d3f60e01b8152338186015260248101869052604490fd5b50346100e457806003193601126100e45767ffffffffffffffff9180358381116104d65761037d90369083016105f8565b909260249485359081116104d25761039890369085016105f8565b9290923388526020936002855260ff848a205416156104bd5781830361048257885b898482106103c55780f35b7fea2c57f30100fac2e0e343554923481a9e3da2adeaa81495b6ff46feeb216ead8761044561042285898e6104408d610407610402868f8f61078f565b6107b5565b6001600160a01b039a9091908b61042761042289898961078f565b6107c2565b16815260018a52209060ff801983541691151516179055565b61078f565b9261045461040286898961078f565b93895194151585521692a26000198114610470576001016103ba565b634e487b7160e01b8a5260118752888afd5b835162461bcd60e51b81528087018690526016818a015275082e4e4c2f2e640d8cadccee8d040dad2e6dac2e8c6d60531b6044820152606490fd5b8351635fd2804d60e01b815233818801528890fd5b8680fd5b8480fd5b508290346101cf57806003193601126101cf576104f56105c7565b90336001600160a01b0383160361051257506100e091923561071a565b5163334bd91960e11b81528390fd5b50346100e457806003193601126100e4576100e0913561054460016100ca6105c7565b61069c565b5090346100e45760203660031901126100e457816020936001923581528085522001549051908152f35b849084346100e45760203660031901126100e4573563ffffffff60e01b81168091036100e45760209250637965db0b60e01b81149081156105b6575b5015158152f35b6301ffc9a760e01b149050836105af565b602435906001600160a01b03821682036105dd57565b600080fd5b600435906001600160a01b03821682036105dd57565b9181601f840112156105dd5782359167ffffffffffffffff83116105dd576020808501948460051b0101116105dd57565b60409060031901126105dd576004356001600160a01b03811681036105dd579060243580151581036105dd5790565b80600052600060205260406000203360005260205260ff604060002054161561067e5750565b6044906040519063e2517d3f60e01b82523360048301526024820152fd5b9060009180835282602052604083209160018060a01b03169182845260205260ff6040842054161560001461071557808352826020526040832082845260205260408320600160ff198254161790557f2f8788117e7eff1d82e926ec794901d17c78024a50270940304540a733656f0d339380a4600190565b505090565b9060009180835282602052604083209160018060a01b03169182845260205260ff6040842054166000146107155780835282602052604083208284526020526040832060ff1981541690557ff6391f5c32d9c69d2a47ea670b442974b53935d1edc7fd64eb21e047a839171b339380a4600190565b919081101561079f5760051b0190565b634e487b7160e01b600052603260045260246000fd5b3580151581036105dd5790565b356001600160a01b03811681036105dd579056fea2646970667358221220bd416329eb4069b47a0f5f515abcc9a470be2a51cd0ec5443eb7fc05e5a917d664736f6c63430008140033","opcodes":"PUSH1 0x80 PUSH1 0x40 MSTORE CALLVALUE PUSH2 0x22 JUMPI PUSH2 0x12 CALLER PUSH2 0x27 JUMP JUMPDEST POP PUSH1 0x40 MLOAD PUSH2 0x80C SWAP1 DUP2 PUSH2 0xB8 DUP3 CODECOPY RETURN JUMPDEST PUSH1 0x0 DUP1 REVERT JUMPDEST PUSH1 0x1 PUSH1 0x1 PUSH1 0xA0 SHL SUB AND PUSH1 0x0 DUP2 DUP2 MSTORE PUSH32 0xAD3228B676F7D3CD4284A5443F17F1962B36E491B30A40B2405849E597BA5FB5 PUSH1 0x20 MSTORE PUSH1 0x40 DUP2 KECCAK256 SLOAD SWAP1 SWAP2 SWAP1 PUSH1 0xFF AND PUSH2 0xB3 JUMPI DUP2 DUP1 MSTORE DUP2 PUSH1 0x20 MSTORE PUSH1 0x40 DUP3 KECCAK256 DUP2 DUP4 MSTORE PUSH1 0x20 MSTORE PUSH1 0x40 DUP3 KECCAK256 PUSH1 0x1 PUSH1 0xFF NOT DUP3 SLOAD AND OR SWAP1 SSTORE CALLER SWAP2 PUSH32 0x2F8788117E7EFF1D82E926EC794901D17C78024A50270940304540A733656F0D DUP2 DUP1 LOG4 PUSH1 0x1 SWAP1 JUMP JUMPDEST POP SWAP1 JUMP INVALID PUSH1 0x80 PUSH1 0x40 DUP2 DUP2 MSTORE PUSH1 0x4 SWAP1 DUP2 CALLDATASIZE LT ISZERO PUSH2 0x16 JUMPI PUSH1 0x0 DUP1 REVERT JUMPDEST PUSH1 0x0 SWAP3 DUP4 CALLDATALOAD PUSH1 0xE0 SHR SWAP1 DUP2 PUSH4 0x1FFC9A7 EQ PUSH2 0x573 JUMPI POP DUP1 PUSH4 0x248A9CA3 EQ PUSH2 0x549 JUMPI DUP1 PUSH4 0x2F2FF15D EQ PUSH2 0x521 JUMPI DUP1 PUSH4 0x36568ABE EQ PUSH2 0x4DA JUMPI DUP1 PUSH4 0x3A47C26B EQ PUSH2 0x34C JUMPI DUP1 PUSH4 0x454BBD29 EQ PUSH2 0x272 JUMPI DUP1 PUSH4 0x59D14B41 EQ PUSH2 0x234 JUMPI DUP1 PUSH4 0x91D14854 EQ PUSH2 0x1EE JUMPI DUP1 PUSH4 0xA217FDDF EQ PUSH2 0x1D3 JUMPI DUP1 PUSH4 0xA52BA4E8 EQ PUSH2 0x17A JUMPI DUP1 PUSH4 0xD1A81A8D EQ PUSH2 0xE8 JUMPI PUSH4 0xD547741F EQ PUSH2 0xA8 JUMPI PUSH1 0x0 DUP1 REVERT JUMPDEST CALLVALUE PUSH2 0xE4 JUMPI DUP1 PUSH1 0x3 NOT CALLDATASIZE ADD SLT PUSH2 0xE4 JUMPI PUSH2 0xE0 SWAP2 CALLDATALOAD PUSH2 0xDB PUSH1 0x1 PUSH2 0xCA PUSH2 0x5C7 JUMP JUMPDEST SWAP4 DUP4 DUP8 MSTORE DUP7 PUSH1 0x20 MSTORE DUP7 KECCAK256 ADD SLOAD PUSH2 0x658 JUMP JUMPDEST PUSH2 0x71A JUMP JUMPDEST POP DUP1 RETURN JUMPDEST DUP3 DUP1 REVERT JUMPDEST POP SWAP1 CALLVALUE PUSH2 0xE4 JUMPI PUSH2 0xF8 CALLDATASIZE PUSH2 0x629 JUMP JUMPDEST SWAP2 CALLER DUP6 MSTORE PUSH1 0x2 PUSH1 0x20 MSTORE PUSH1 0xFF DUP5 DUP7 KECCAK256 SLOAD AND ISZERO PUSH2 0x163 JUMPI POP PUSH1 0x1 PUSH1 0x1 PUSH1 0xA0 SHL SUB AND DUP1 DUP5 MSTORE PUSH1 0x1 PUSH1 0x20 SWAP1 DUP2 MSTORE DUP4 DUP6 KECCAK256 DUP1 SLOAD PUSH1 0xFF NOT AND PUSH1 0xFF DUP6 ISZERO ISZERO AND OR SWAP1 SSTORE SWAP1 SWAP3 PUSH32 0xEA2C57F30100FAC2E0E343554923481A9E3DA2ADEAA81495B6FF46FEEB216EAD SWAP3 SWAP1 JUMPDEST MLOAD SWAP1 ISZERO ISZERO DUP2 MSTORE LOG2 DUP1 RETURN JUMPDEST PUSH1 0x24 SWAP1 DUP5 MLOAD SWAP1 PUSH4 0x5FD2804D PUSH1 0xE0 SHL DUP3 MSTORE CALLER SWAP1 DUP3 ADD MSTORE REVERT JUMPDEST POP SWAP2 SWAP1 CALLVALUE PUSH2 0x1CF JUMPI PUSH1 0x20 CALLDATASIZE PUSH1 0x3 NOT ADD SLT PUSH2 0x1CF JUMPI PUSH2 0x196 PUSH2 0x5E2 JUMP JUMPDEST SWAP1 CALLER DUP4 MSTORE PUSH1 0x2 PUSH1 0x20 MSTORE PUSH1 0xFF DUP5 DUP5 KECCAK256 SLOAD AND ISZERO PUSH2 0x163 JUMPI PUSH1 0x1 PUSH1 0x1 PUSH1 0xA0 SHL SUB DUP3 AND DUP4 MSTORE PUSH1 0x1 PUSH1 0x20 SWAP1 DUP2 MSTORE DUP5 DUP5 KECCAK256 SLOAD DUP6 MLOAD PUSH1 0xFF SWAP1 SWAP2 AND ISZERO ISZERO DUP2 MSTORE RETURN JUMPDEST POP DUP1 REVERT JUMPDEST DUP4 DUP3 CALLVALUE PUSH2 0x1CF JUMPI DUP2 PUSH1 0x3 NOT CALLDATASIZE ADD SLT PUSH2 0x1CF JUMPI MLOAD SWAP1 DUP2 MSTORE PUSH1 0x20 SWAP1 RETURN JUMPDEST POP SWAP1 CALLVALUE PUSH2 0xE4 JUMPI DUP2 PUSH1 0x3 NOT CALLDATASIZE ADD SLT PUSH2 0xE4 JUMPI DUP2 PUSH1 0x20 SWAP4 PUSH1 0xFF SWAP3 PUSH2 0x20F PUSH2 0x5C7 JUMP JUMPDEST SWAP1 CALLDATALOAD DUP3 MSTORE DUP2 DUP7 MSTORE DUP3 DUP3 KECCAK256 PUSH1 0x1 PUSH1 0x1 PUSH1 0xA0 SHL SUB SWAP1 SWAP2 AND DUP3 MSTORE DUP6 MSTORE KECCAK256 SLOAD SWAP2 MLOAD SWAP2 AND ISZERO ISZERO DUP2 MSTORE RETURN JUMPDEST DUP4 DUP3 CALLVALUE PUSH2 0x1CF JUMPI PUSH1 0x20 CALLDATASIZE PUSH1 0x3 NOT ADD SLT PUSH2 0x1CF JUMPI PUSH1 0x20 SWAP2 PUSH1 0xFF SWAP1 DUP3 SWAP1 PUSH1 0x1 PUSH1 0x1 PUSH1 0xA0 SHL SUB PUSH2 0x25F PUSH2 0x5E2 JUMP JUMPDEST AND DUP2 MSTORE PUSH1 0x2 DUP6 MSTORE KECCAK256 SLOAD AND SWAP1 MLOAD SWAP1 ISZERO ISZERO DUP2 MSTORE RETURN JUMPDEST POP CALLVALUE PUSH2 0xE4 JUMPI PUSH2 0x281 CALLDATASIZE PUSH2 0x629 JUMP JUMPDEST SWAP2 SWAP1 DUP5 DUP1 MSTORE DUP5 PUSH1 0x20 MSTORE DUP2 DUP6 KECCAK256 CALLER DUP7 MSTORE PUSH1 0x20 MSTORE PUSH1 0xFF DUP3 DUP7 KECCAK256 SLOAD AND ISZERO PUSH2 0x32F JUMPI PUSH1 0x1 PUSH1 0x1 PUSH1 0xA0 SHL SUB AND SWAP3 DUP4 ISZERO PUSH2 0x2F4 JUMPI POP PUSH32 0xAD857FA38C9319CB80848F1EF2F924383B90297EB5D71755738FF037D100FAA1 SWAP2 PUSH1 0x20 SWAP2 DUP5 DUP7 MSTORE PUSH1 0x2 DUP4 MSTORE PUSH2 0x159 DUP3 DUP3 DUP9 KECCAK256 SWAP1 PUSH1 0xFF DUP1 NOT DUP4 SLOAD AND SWAP2 ISZERO ISZERO AND OR SWAP1 SSTORE JUMP JUMPDEST PUSH1 0x20 PUSH1 0x64 SWAP3 MLOAD SWAP2 PUSH3 0x461BCD PUSH1 0xE5 SHL DUP4 MSTORE DUP3 ADD MSTORE PUSH1 0x16 PUSH1 0x24 DUP3 ADD MSTORE PUSH22 0x496E76616C69642063616C6C65722061646472657373 PUSH1 0x50 SHL PUSH1 0x44 DUP3 ADD MSTORE REVERT JUMPDEST DUP2 MLOAD PUSH4 0xE2517D3F PUSH1 0xE0 SHL DUP2 MSTORE CALLER DUP2 DUP7 ADD MSTORE PUSH1 0x24 DUP2 ADD DUP7 SWAP1 MSTORE PUSH1 0x44 SWAP1 REVERT JUMPDEST POP CALLVALUE PUSH2 0xE4 JUMPI DUP1 PUSH1 0x3 NOT CALLDATASIZE ADD SLT PUSH2 0xE4 JUMPI PUSH8 0xFFFFFFFFFFFFFFFF SWAP2 DUP1 CALLDATALOAD DUP4 DUP2 GT PUSH2 0x4D6 JUMPI PUSH2 0x37D SWAP1 CALLDATASIZE SWAP1 DUP4 ADD PUSH2 0x5F8 JUMP JUMPDEST SWAP1 SWAP3 PUSH1 0x24 SWAP5 DUP6 CALLDATALOAD SWAP1 DUP2 GT PUSH2 0x4D2 JUMPI PUSH2 0x398 SWAP1 CALLDATASIZE SWAP1 DUP6 ADD PUSH2 0x5F8 JUMP JUMPDEST SWAP3 SWAP1 SWAP3 CALLER DUP9 MSTORE PUSH1 0x20 SWAP4 PUSH1 0x2 DUP6 MSTORE PUSH1 0xFF DUP5 DUP11 KECCAK256 SLOAD AND ISZERO PUSH2 0x4BD JUMPI DUP2 DUP4 SUB PUSH2 0x482 JUMPI DUP9 JUMPDEST DUP10 DUP5 DUP3 LT PUSH2 0x3C5 JUMPI DUP1 RETURN JUMPDEST PUSH32 0xEA2C57F30100FAC2E0E343554923481A9E3DA2ADEAA81495B6FF46FEEB216EAD DUP8 PUSH2 0x445 PUSH2 0x422 DUP6 DUP10 DUP15 PUSH2 0x440 DUP14 PUSH2 0x407 PUSH2 0x402 DUP7 DUP16 DUP16 PUSH2 0x78F JUMP JUMPDEST PUSH2 0x7B5 JUMP JUMPDEST PUSH1 0x1 PUSH1 0x1 PUSH1 0xA0 SHL SUB SWAP11 SWAP1 SWAP2 SWAP1 DUP12 PUSH2 0x427 PUSH2 0x422 DUP10 DUP10 DUP10 PUSH2 0x78F JUMP JUMPDEST PUSH2 0x7C2 JUMP JUMPDEST AND DUP2 MSTORE PUSH1 0x1 DUP11 MSTORE KECCAK256 SWAP1 PUSH1 0xFF DUP1 NOT DUP4 SLOAD AND SWAP2 ISZERO ISZERO AND OR SWAP1 SSTORE JUMP JUMPDEST PUSH2 0x78F JUMP JUMPDEST SWAP3 PUSH2 0x454 PUSH2 0x402 DUP7 DUP10 DUP10 PUSH2 0x78F JUMP JUMPDEST SWAP4 DUP10 MLOAD SWAP5 ISZERO ISZERO DUP6 MSTORE AND SWAP3 LOG2 PUSH1 0x0 NOT DUP2 EQ PUSH2 0x470 JUMPI PUSH1 0x1 ADD PUSH2 0x3BA JUMP JUMPDEST PUSH4 0x4E487B71 PUSH1 0xE0 SHL DUP11 MSTORE PUSH1 0x11 DUP8 MSTORE DUP9 DUP11 REVERT JUMPDEST DUP4 MLOAD PUSH3 0x461BCD PUSH1 0xE5 SHL DUP2 MSTORE DUP1 DUP8 ADD DUP7 SWAP1 MSTORE PUSH1 0x16 DUP2 DUP11 ADD MSTORE PUSH22 0x82E4E4C2F2E640D8CADCCEE8D040DAD2E6DAC2E8C6D PUSH1 0x53 SHL PUSH1 0x44 DUP3 ADD MSTORE PUSH1 0x64 SWAP1 REVERT JUMPDEST DUP4 MLOAD PUSH4 0x5FD2804D PUSH1 0xE0 SHL DUP2 MSTORE CALLER DUP2 DUP9 ADD MSTORE DUP9 SWAP1 REVERT JUMPDEST DUP7 DUP1 REVERT JUMPDEST DUP5 DUP1 REVERT JUMPDEST POP DUP3 SWAP1 CALLVALUE PUSH2 0x1CF JUMPI DUP1 PUSH1 0x3 NOT CALLDATASIZE ADD SLT PUSH2 0x1CF JUMPI PUSH2 0x4F5 PUSH2 0x5C7 JUMP JUMPDEST SWAP1 CALLER PUSH1 0x1 PUSH1 0x1 PUSH1 0xA0 SHL SUB DUP4 AND SUB PUSH2 0x512 JUMPI POP PUSH2 0xE0 SWAP2 SWAP3 CALLDATALOAD PUSH2 0x71A JUMP JUMPDEST MLOAD PUSH4 0x334BD919 PUSH1 0xE1 SHL DUP2 MSTORE DUP4 SWAP1 REVERT JUMPDEST POP CALLVALUE PUSH2 0xE4 JUMPI DUP1 PUSH1 0x3 NOT CALLDATASIZE ADD SLT PUSH2 0xE4 JUMPI PUSH2 0xE0 SWAP2 CALLDATALOAD PUSH2 0x544 PUSH1 0x1 PUSH2 0xCA PUSH2 0x5C7 JUMP JUMPDEST PUSH2 0x69C JUMP JUMPDEST POP SWAP1 CALLVALUE PUSH2 0xE4 JUMPI PUSH1 0x20 CALLDATASIZE PUSH1 0x3 NOT ADD SLT PUSH2 0xE4 JUMPI DUP2 PUSH1 0x20 SWAP4 PUSH1 0x1 SWAP3 CALLDATALOAD DUP2 MSTORE DUP1 DUP6 MSTORE KECCAK256 ADD SLOAD SWAP1 MLOAD SWAP1 DUP2 MSTORE RETURN JUMPDEST DUP5 SWAP1 DUP5 CALLVALUE PUSH2 0xE4 JUMPI PUSH1 0x20 CALLDATASIZE PUSH1 0x3 NOT ADD SLT PUSH2 0xE4 JUMPI CALLDATALOAD PUSH4 0xFFFFFFFF PUSH1 0xE0 SHL DUP2 AND DUP1 SWAP2 SUB PUSH2 0xE4 JUMPI PUSH1 0x20 SWAP3 POP PUSH4 0x7965DB0B PUSH1 0xE0 SHL DUP2 EQ SWAP1 DUP2 ISZERO PUSH2 0x5B6 JUMPI JUMPDEST POP ISZERO ISZERO DUP2 MSTORE RETURN JUMPDEST PUSH4 0x1FFC9A7 PUSH1 0xE0 SHL EQ SWAP1 POP DUP4 PUSH2 0x5AF JUMP JUMPDEST PUSH1 0x24 CALLDATALOAD SWAP1 PUSH1 0x1 PUSH1 0x1 PUSH1 0xA0 SHL SUB DUP3 AND DUP3 SUB PUSH2 0x5DD JUMPI JUMP JUMPDEST PUSH1 0x0 DUP1 REVERT JUMPDEST PUSH1 0x4 CALLDATALOAD SWAP1 PUSH1 0x1 PUSH1 0x1 PUSH1 0xA0 SHL SUB DUP3 AND DUP3 SUB PUSH2 0x5DD JUMPI JUMP JUMPDEST SWAP2 DUP2 PUSH1 0x1F DUP5 ADD SLT ISZERO PUSH2 0x5DD JUMPI DUP3 CALLDATALOAD SWAP2 PUSH8 0xFFFFFFFFFFFFFFFF DUP4 GT PUSH2 0x5DD JUMPI PUSH1 0x20 DUP1 DUP6 ADD SWAP5 DUP5 PUSH1 0x5 SHL ADD ADD GT PUSH2 0x5DD JUMPI JUMP JUMPDEST PUSH1 0x40 SWAP1 PUSH1 0x3 NOT ADD SLT PUSH2 0x5DD JUMPI PUSH1 0x4 CALLDATALOAD PUSH1 0x1 PUSH1 0x1 PUSH1 0xA0 SHL SUB DUP2 AND DUP2 SUB PUSH2 0x5DD JUMPI SWAP1 PUSH1 0x24 CALLDATALOAD DUP1 ISZERO ISZERO DUP2 SUB PUSH2 0x5DD JUMPI SWAP1 JUMP JUMPDEST DUP1 PUSH1 0x0 MSTORE PUSH1 0x0 PUSH1 0x20 MSTORE PUSH1 0x40 PUSH1 0x0 KECCAK256 CALLER PUSH1 0x0 MSTORE PUSH1 0x20 MSTORE PUSH1 0xFF PUSH1 0x40 PUSH1 0x0 KECCAK256 SLOAD AND ISZERO PUSH2 0x67E JUMPI POP JUMP JUMPDEST PUSH1 0x44 SWAP1 PUSH1 0x40 MLOAD SWAP1 PUSH4 0xE2517D3F PUSH1 0xE0 SHL DUP3 MSTORE CALLER PUSH1 0x4 DUP4 ADD MSTORE PUSH1 0x24 DUP3 ADD MSTORE REVERT JUMPDEST SWAP1 PUSH1 0x0 SWAP2 DUP1 DUP4 MSTORE DUP3 PUSH1 0x20 MSTORE PUSH1 0x40 DUP4 KECCAK256 SWAP2 PUSH1 0x1 DUP1 PUSH1 0xA0 SHL SUB AND SWAP2 DUP3 DUP5 MSTORE PUSH1 0x20 MSTORE PUSH1 0xFF PUSH1 0x40 DUP5 KECCAK256 SLOAD AND ISZERO PUSH1 0x0 EQ PUSH2 0x715 JUMPI DUP1 DUP4 MSTORE DUP3 PUSH1 0x20 MSTORE PUSH1 0x40 DUP4 KECCAK256 DUP3 DUP5 MSTORE PUSH1 0x20 MSTORE PUSH1 0x40 DUP4 KECCAK256 PUSH1 0x1 PUSH1 0xFF NOT DUP3 SLOAD AND OR SWAP1 SSTORE PUSH32 0x2F8788117E7EFF1D82E926EC794901D17C78024A50270940304540A733656F0D CALLER SWAP4 DUP1 LOG4 PUSH1 0x1 SWAP1 JUMP JUMPDEST POP POP SWAP1 JUMP JUMPDEST SWAP1 PUSH1 0x0 SWAP2 DUP1 DUP4 MSTORE DUP3 PUSH1 0x20 MSTORE PUSH1 0x40 DUP4 KECCAK256 SWAP2 PUSH1 0x1 DUP1 PUSH1 0xA0 SHL SUB AND SWAP2 DUP3 DUP5 MSTORE PUSH1 0x20 MSTORE PUSH1 0xFF PUSH1 0x40 DUP5 KECCAK256 SLOAD AND PUSH1 0x0 EQ PUSH2 0x715 JUMPI DUP1 DUP4 MSTORE DUP3 PUSH1 0x20 MSTORE PUSH1 0x40 DUP4 KECCAK256 DUP3 DUP5 MSTORE PUSH1 0x20 MSTORE PUSH1 0x40 DUP4 KECCAK256 PUSH1 0xFF NOT DUP2 SLOAD AND SWAP1 SSTORE PUSH32 0xF6391F5C32D9C69D2A47EA670B442974B53935D1EDC7FD64EB21E047A839171B CALLER SWAP4 DUP1 LOG4 PUSH1 0x1 SWAP1 JUMP JUMPDEST SWAP2 SWAP1 DUP2 LT ISZERO PUSH2 0x79F JUMPI PUSH1 0x5 SHL ADD SWAP1 JUMP JUMPDEST PUSH4 0x4E487B71 PUSH1 0xE0 SHL PUSH1 0x0 MSTORE PUSH1 0x32 PUSH1 0x4 MSTORE PUSH1 0x24 PUSH1 0x0 REVERT JUMPDEST CALLDATALOAD DUP1 ISZERO ISZERO DUP2 SUB PUSH2 0x5DD JUMPI SWAP1 JUMP JUMPDEST CALLDATALOAD PUSH1 0x1 PUSH1 0x1 PUSH1 0xA0 SHL SUB DUP2 AND DUP2 SUB PUSH2 0x5DD JUMPI SWAP1 JUMP INVALID LOG2 PUSH5 0x6970667358 0x22 SLT KECCAK256 0xBD COINBASE PUSH4 0x29EB4069 0xB4 PUSH27 0xF5F515ABCC9A470BE2A51CD0EC5443EB7FC05E5A917D664736F6C PUSH4 0x43000814 STOP CALLER "},"methodIdentifiers":{"DEFAULT_ADMIN_ROLE()":"a217fddf","getRoleAdmin(bytes32)":"248a9ca3","grantRole(bytes32,address)":"2f2ff15d","hasRole(bytes32,address)":"91d14854","isAuthorizedCaller(address)":"59d14b41","isUserAllowed(address)":"a52ba4e8","renounceRole(bytes32,address)":"36568abe","revokeRole(bytes32,address)":"d547741f","setAuthorizedCaller(address,bool)":"454bbd29","setUserAllowed(address,bool)":"d1a81a8d","setUsersAllowed(address[],bool[])":"3a47c26b","supportsInterface(bytes4)":"01ffc9a7"}}}}}