{
  "_format": "hh-sol-artifact-1",
  "contractName": "OracleRouter",
  "sourceName": "contracts/periphery/OracleRouter.sol",
  "abi": [
    {
      "inputs": [
        {
          "internalType": "address",
          "name": "_ethUsdFeed",
          "type": "address"
        },
        {
          "internalType": "address",
          "name": "_gbpUsdFeed",
          "type": "address"
        },
        {
          "internalType": "address",
          "name": "_goldUsdFeed",
          "type": "address"
        },
        {
          "internalType": "address",
          "name": "_ftse100Feed",
          "type": "address"
        }
      ],
      "stateMutability": "nonpayable",
      "type": "constructor"
    },
    {
      "inputs": [],
      "name": "ethUsdFeed",
      "outputs": [
        {
          "internalType": "contract AggregatorV3Interface",
          "name": "",
          "type": "address"
        }
      ],
      "stateMutability": "view",
      "type": "function"
    },
    {
      "inputs": [],
      "name": "ftse100Feed",
      "outputs": [
        {
          "internalType": "contract AggregatorV3Interface",
          "name": "",
          "type": "address"
        }
      ],
      "stateMutability": "view",
      "type": "function"
    },
    {
      "inputs": [],
      "name": "gbpUsdFeed",
      "outputs": [
        {
          "internalType": "contract AggregatorV3Interface",
          "name": "",
          "type": "address"
        }
      ],
      "stateMutability": "view",
      "type": "function"
    },
    {
      "inputs": [],
      "name": "getEthUsdPrice",
      "outputs": [
        {
          "internalType": "int256",
          "name": "price",
          "type": "int256"
        },
        {
          "internalType": "uint256",
          "name": "updatedAt",
          "type": "uint256"
        }
      ],
      "stateMutability": "view",
      "type": "function"
    },
    {
      "inputs": [],
      "name": "getFtse100Value",
      "outputs": [
        {
          "internalType": "int256",
          "name": "value",
          "type": "int256"
        },
        {
          "internalType": "uint256",
          "name": "updatedAt",
          "type": "uint256"
        }
      ],
      "stateMutability": "view",
      "type": "function"
    },
    {
      "inputs": [],
      "name": "getGbpUsdPrice",
      "outputs": [
        {
          "internalType": "int256",
          "name": "price",
          "type": "int256"
        },
        {
          "internalType": "uint256",
          "name": "updatedAt",
          "type": "uint256"
        }
      ],
      "stateMutability": "view",
      "type": "function"
    },
    {
      "inputs": [],
      "name": "getGoldUsdPrice",
      "outputs": [
        {
          "internalType": "int256",
          "name": "price",
          "type": "int256"
        },
        {
          "internalType": "uint256",
          "name": "updatedAt",
          "type": "uint256"
        }
      ],
      "stateMutability": "view",
      "type": "function"
    },
    {
      "inputs": [],
      "name": "goldUsdFeed",
      "outputs": [
        {
          "internalType": "contract AggregatorV3Interface",
          "name": "",
          "type": "address"
        }
      ],
      "stateMutability": "view",
      "type": "function"
    }
  ],
  "bytecode": "0x61010060405234801561001157600080fd5b50604051610655380380610655833981016040819052610030916101cb565b6001600160a01b03841661008b5760405162461bcd60e51b815260206004820152601460248201527f496e76616c6964204554482f555344206665656400000000000000000000000060448201526064015b60405180910390fd5b6001600160a01b0383166100e15760405162461bcd60e51b815260206004820152601460248201527f496e76616c6964204742502f55534420666565640000000000000000000000006044820152606401610082565b6001600160a01b0382166101375760405162461bcd60e51b815260206004820152601560248201527f496e76616c696420476f6c642f555344206665656400000000000000000000006044820152606401610082565b6001600160a01b03811661018d5760405162461bcd60e51b815260206004820152601560248201527f496e76616c6964204654534520313030206665656400000000000000000000006044820152606401610082565b6001600160a01b0393841660805291831660a052821660c0521660e05261021f565b80516001600160a01b03811681146101c657600080fd5b919050565b600080600080608085870312156101e157600080fd5b6101ea856101af565b93506101f8602086016101af565b9250610206604086016101af565b9150610214606086016101af565b905092959194509250565b60805160a05160c05160e0516103e36102726000396000818160b4015261018301526000818160f301526102e201526000818161011a015261021a015260008181610141015261027e01526103e36000f3fe608060405234801561001057600080fd5b50600436106100885760003560e01c80638009b7bd1161005b5780638009b7bd1461013c57806398c5065514610163578063a0a8045e1461016b578063f23c7ad41461017357600080fd5b806319036e441461008d578063453cc13d146100af5780636e601176146100ee5780637c11588314610115575b600080fd5b61009561017b565b604080519283526020830191909152015b60405180910390f35b6100d67f000000000000000000000000000000000000000000000000000000000000000081565b6040516001600160a01b0390911681526020016100a6565b6100d67f000000000000000000000000000000000000000000000000000000000000000081565b6100d67f000000000000000000000000000000000000000000000000000000000000000081565b6100d67f000000000000000000000000000000000000000000000000000000000000000081565b610095610212565b610095610276565b6100956102da565b6000806000807f00000000000000000000000000000000000000000000000000000000000000006001600160a01b031663feaf968c6040518163ffffffff1660e01b815260040160a060405180830381865afa1580156101df573d6000803e3d6000fd5b505050506040513d601f19601f82011682018060405250810190610203919061035d565b50919791965090945050505050565b6000806000807f00000000000000000000000000000000000000000000000000000000000000006001600160a01b031663feaf968c6040518163ffffffff1660e01b815260040160a060405180830381865afa1580156101df573d6000803e3d6000fd5b6000806000807f00000000000000000000000000000000000000000000000000000000000000006001600160a01b031663feaf968c6040518163ffffffff1660e01b815260040160a060405180830381865afa1580156101df573d6000803e3d6000fd5b6000806000807f00000000000000000000000000000000000000000000000000000000000000006001600160a01b031663feaf968c6040518163ffffffff1660e01b815260040160a060405180830381865afa1580156101df573d6000803e3d6000fd5b805169ffffffffffffffffffff8116811461035857600080fd5b919050565b600080600080600060a0868803121561037557600080fd5b61037e8661033e565b94506020860151935060408601519250606086015191506103a16080870161033e565b9050929550929590935056fea264697066735822122022674f454b440c10276564ef39f730d94a6a727cb16fe133b6f19e165019da6764736f6c63430008140033",
  "linkReferences": {},
  "deployedLinkReferences": {}
}