{
  "_format": "hh-sol-artifact-1",
  "contractName": "AssetVault",
  "sourceName": "contracts/core/AssetVault.sol",
  "abi": [
    {
      "inputs": [
        {
          "internalType": "address",
          "name": "_userAllowList",
          "type": "address"
        }
      ],
      "stateMutability": "nonpayable",
      "type": "constructor"
    },
    {
      "inputs": [],
      "name": "AccessControlBadConfirmation",
      "type": "error"
    },
    {
      "inputs": [
        {
          "internalType": "address",
          "name": "account",
          "type": "address"
        },
        {
          "internalType": "bytes32",
          "name": "neededRole",
          "type": "bytes32"
        }
      ],
      "name": "AccessControlUnauthorizedAccount",
      "type": "error"
    },
    {
      "inputs": [
        {
          "internalType": "address",
          "name": "sender",
          "type": "address"
        },
        {
          "internalType": "uint256",
          "name": "tokenId",
          "type": "uint256"
        },
        {
          "internalType": "address",
          "name": "owner",
          "type": "address"
        }
      ],
      "name": "ERC721IncorrectOwner",
      "type": "error"
    },
    {
      "inputs": [
        {
          "internalType": "address",
          "name": "operator",
          "type": "address"
        },
        {
          "internalType": "uint256",
          "name": "tokenId",
          "type": "uint256"
        }
      ],
      "name": "ERC721InsufficientApproval",
      "type": "error"
    },
    {
      "inputs": [
        {
          "internalType": "address",
          "name": "approver",
          "type": "address"
        }
      ],
      "name": "ERC721InvalidApprover",
      "type": "error"
    },
    {
      "inputs": [
        {
          "internalType": "address",
          "name": "operator",
          "type": "address"
        }
      ],
      "name": "ERC721InvalidOperator",
      "type": "error"
    },
    {
      "inputs": [
        {
          "internalType": "address",
          "name": "owner",
          "type": "address"
        }
      ],
      "name": "ERC721InvalidOwner",
      "type": "error"
    },
    {
      "inputs": [
        {
          "internalType": "address",
          "name": "receiver",
          "type": "address"
        }
      ],
      "name": "ERC721InvalidReceiver",
      "type": "error"
    },
    {
      "inputs": [
        {
          "internalType": "address",
          "name": "sender",
          "type": "address"
        }
      ],
      "name": "ERC721InvalidSender",
      "type": "error"
    },
    {
      "inputs": [
        {
          "internalType": "uint256",
          "name": "tokenId",
          "type": "uint256"
        }
      ],
      "name": "ERC721NonexistentToken",
      "type": "error"
    },
    {
      "inputs": [],
      "name": "EnforcedPause",
      "type": "error"
    },
    {
      "inputs": [],
      "name": "ExpectedPause",
      "type": "error"
    },
    {
      "inputs": [],
      "name": "ReentrancyGuardReentrantCall",
      "type": "error"
    },
    {
      "anonymous": false,
      "inputs": [
        {
          "indexed": true,
          "internalType": "address",
          "name": "owner",
          "type": "address"
        },
        {
          "indexed": true,
          "internalType": "address",
          "name": "approved",
          "type": "address"
        },
        {
          "indexed": true,
          "internalType": "uint256",
          "name": "tokenId",
          "type": "uint256"
        }
      ],
      "name": "Approval",
      "type": "event"
    },
    {
      "anonymous": false,
      "inputs": [
        {
          "indexed": true,
          "internalType": "address",
          "name": "owner",
          "type": "address"
        },
        {
          "indexed": true,
          "internalType": "address",
          "name": "operator",
          "type": "address"
        },
        {
          "indexed": false,
          "internalType": "bool",
          "name": "approved",
          "type": "bool"
        }
      ],
      "name": "ApprovalForAll",
      "type": "event"
    },
    {
      "anonymous": false,
      "inputs": [
        {
          "indexed": true,
          "internalType": "address",
          "name": "assetShares",
          "type": "address"
        }
      ],
      "name": "AssetSharesSet",
      "type": "event"
    },
    {
      "anonymous": false,
      "inputs": [
        {
          "indexed": true,
          "internalType": "uint256",
          "name": "assetId",
          "type": "uint256"
        },
        {
          "indexed": false,
          "internalType": "enum AssetVault.AssetStatus",
          "name": "oldStatus",
          "type": "uint8"
        },
        {
          "indexed": false,
          "internalType": "enum AssetVault.AssetStatus",
          "name": "newStatus",
          "type": "uint8"
        }
      ],
      "name": "AssetStatusChanged",
      "type": "event"
    },
    {
      "anonymous": false,
      "inputs": [
        {
          "indexed": true,
          "internalType": "uint256",
          "name": "assetId",
          "type": "uint256"
        },
        {
          "indexed": false,
          "internalType": "enum AssetVault.AssetStatus",
          "name": "status",
          "type": "uint8"
        },
        {
          "indexed": false,
          "internalType": "uint256",
          "name": "capitalValue",
          "type": "uint256"
        },
        {
          "indexed": false,
          "internalType": "uint256",
          "name": "incomeValue",
          "type": "uint256"
        },
        {
          "indexed": false,
          "internalType": "uint256",
          "name": "timestamp",
          "type": "uint256"
        }
      ],
      "name": "AssetVaulted",
      "type": "event"
    },
    {
      "anonymous": false,
      "inputs": [
        {
          "indexed": true,
          "internalType": "address",
          "name": "from",
          "type": "address"
        },
        {
          "indexed": true,
          "internalType": "address",
          "name": "to",
          "type": "address"
        },
        {
          "indexed": true,
          "internalType": "uint256",
          "name": "tokenId",
          "type": "uint256"
        }
      ],
      "name": "ForcedTransfer",
      "type": "event"
    },
    {
      "anonymous": false,
      "inputs": [
        {
          "indexed": true,
          "internalType": "address",
          "name": "user",
          "type": "address"
        },
        {
          "indexed": true,
          "internalType": "uint256",
          "name": "tokenId",
          "type": "uint256"
        }
      ],
      "name": "Frozen",
      "type": "event"
    },
    {
      "anonymous": false,
      "inputs": [
        {
          "indexed": false,
          "internalType": "address",
          "name": "account",
          "type": "address"
        }
      ],
      "name": "Paused",
      "type": "event"
    },
    {
      "anonymous": false,
      "inputs": [
        {
          "indexed": true,
          "internalType": "address",
          "name": "pauser",
          "type": "address"
        }
      ],
      "name": "PauserSet",
      "type": "event"
    },
    {
      "anonymous": false,
      "inputs": [
        {
          "indexed": true,
          "internalType": "bytes32",
          "name": "role",
          "type": "bytes32"
        },
        {
          "indexed": true,
          "internalType": "bytes32",
          "name": "previousAdminRole",
          "type": "bytes32"
        },
        {
          "indexed": true,
          "internalType": "bytes32",
          "name": "newAdminRole",
          "type": "bytes32"
        }
      ],
      "name": "RoleAdminChanged",
      "type": "event"
    },
    {
      "anonymous": false,
      "inputs": [
        {
          "indexed": true,
          "internalType": "bytes32",
          "name": "role",
          "type": "bytes32"
        },
        {
          "indexed": true,
          "internalType": "address",
          "name": "account",
          "type": "address"
        },
        {
          "indexed": true,
          "internalType": "address",
          "name": "sender",
          "type": "address"
        }
      ],
      "name": "RoleGranted",
      "type": "event"
    },
    {
      "anonymous": false,
      "inputs": [
        {
          "indexed": true,
          "internalType": "bytes32",
          "name": "role",
          "type": "bytes32"
        },
        {
          "indexed": true,
          "internalType": "address",
          "name": "account",
          "type": "address"
        },
        {
          "indexed": true,
          "internalType": "address",
          "name": "sender",
          "type": "address"
        }
      ],
      "name": "RoleRevoked",
      "type": "event"
    },
    {
      "anonymous": false,
      "inputs": [
        {
          "indexed": true,
          "internalType": "address",
          "name": "from",
          "type": "address"
        },
        {
          "indexed": true,
          "internalType": "address",
          "name": "to",
          "type": "address"
        },
        {
          "indexed": true,
          "internalType": "uint256",
          "name": "tokenId",
          "type": "uint256"
        }
      ],
      "name": "Transfer",
      "type": "event"
    },
    {
      "anonymous": false,
      "inputs": [
        {
          "indexed": false,
          "internalType": "address",
          "name": "account",
          "type": "address"
        }
      ],
      "name": "Unpaused",
      "type": "event"
    },
    {
      "inputs": [],
      "name": "ASSET_MANAGER_ROLE",
      "outputs": [
        {
          "internalType": "bytes32",
          "name": "",
          "type": "bytes32"
        }
      ],
      "stateMutability": "view",
      "type": "function"
    },
    {
      "inputs": [],
      "name": "COMPLIANCE_OFFICER_ROLE",
      "outputs": [
        {
          "internalType": "bytes32",
          "name": "",
          "type": "bytes32"
        }
      ],
      "stateMutability": "view",
      "type": "function"
    },
    {
      "inputs": [],
      "name": "DEFAULT_ADMIN_ROLE",
      "outputs": [
        {
          "internalType": "bytes32",
          "name": "",
          "type": "bytes32"
        }
      ],
      "stateMutability": "view",
      "type": "function"
    },
    {
      "inputs": [],
      "name": "PAUSER_ROLE",
      "outputs": [
        {
          "internalType": "bytes32",
          "name": "",
          "type": "bytes32"
        }
      ],
      "stateMutability": "view",
      "type": "function"
    },
    {
      "inputs": [
        {
          "internalType": "address",
          "name": "to",
          "type": "address"
        },
        {
          "internalType": "uint256",
          "name": "tokenId",
          "type": "uint256"
        }
      ],
      "name": "approve",
      "outputs": [],
      "stateMutability": "nonpayable",
      "type": "function"
    },
    {
      "inputs": [],
      "name": "assetShares",
      "outputs": [
        {
          "internalType": "address",
          "name": "",
          "type": "address"
        }
      ],
      "stateMutability": "view",
      "type": "function"
    },
    {
      "inputs": [
        {
          "internalType": "address",
          "name": "owner",
          "type": "address"
        }
      ],
      "name": "balanceOf",
      "outputs": [
        {
          "internalType": "uint256",
          "name": "",
          "type": "uint256"
        }
      ],
      "stateMutability": "view",
      "type": "function"
    },
    {
      "inputs": [
        {
          "internalType": "address",
          "name": "user",
          "type": "address"
        },
        {
          "internalType": "uint256",
          "name": "tokenId",
          "type": "uint256"
        }
      ],
      "name": "canTransact",
      "outputs": [
        {
          "internalType": "bool",
          "name": "",
          "type": "bool"
        }
      ],
      "stateMutability": "view",
      "type": "function"
    },
    {
      "inputs": [
        {
          "internalType": "address",
          "name": "from",
          "type": "address"
        },
        {
          "internalType": "address",
          "name": "to",
          "type": "address"
        },
        {
          "internalType": "uint256",
          "name": "tokenId",
          "type": "uint256"
        }
      ],
      "name": "canTransfer",
      "outputs": [
        {
          "internalType": "bool",
          "name": "",
          "type": "bool"
        }
      ],
      "stateMutability": "view",
      "type": "function"
    },
    {
      "inputs": [
        {
          "internalType": "uint256",
          "name": "assetId",
          "type": "uint256"
        },
        {
          "internalType": "enum AssetVault.AssetStatus",
          "name": "status_",
          "type": "uint8"
        },
        {
          "internalType": "uint256",
          "name": "capitalValue_",
          "type": "uint256"
        },
        {
          "internalType": "uint256",
          "name": "incomeValue_",
          "type": "uint256"
        },
        {
          "internalType": "string",
          "name": "metadataURI_",
          "type": "string"
        }
      ],
      "name": "createAsset",
      "outputs": [],
      "stateMutability": "nonpayable",
      "type": "function"
    },
    {
      "inputs": [
        {
          "internalType": "address",
          "name": "from",
          "type": "address"
        },
        {
          "internalType": "address",
          "name": "to",
          "type": "address"
        },
        {
          "internalType": "uint256",
          "name": "tokenId",
          "type": "uint256"
        }
      ],
      "name": "forcedTransfer",
      "outputs": [],
      "stateMutability": "nonpayable",
      "type": "function"
    },
    {
      "inputs": [
        {
          "internalType": "uint256[]",
          "name": "assetIds",
          "type": "uint256[]"
        }
      ],
      "name": "getAllAssets",
      "outputs": [
        {
          "components": [
            {
              "internalType": "enum AssetVault.AssetStatus",
              "name": "status",
              "type": "uint8"
            },
            {
              "internalType": "uint256",
              "name": "capitalValue",
              "type": "uint256"
            },
            {
              "internalType": "uint256",
              "name": "incomeValue",
              "type": "uint256"
            },
            {
              "internalType": "string",
              "name": "metadataURI",
              "type": "string"
            },
            {
              "internalType": "uint256",
              "name": "createdAt",
              "type": "uint256"
            },
            {
              "internalType": "uint256",
              "name": "updatedAt",
              "type": "uint256"
            }
          ],
          "internalType": "struct AssetVault.Asset[]",
          "name": "",
          "type": "tuple[]"
        }
      ],
      "stateMutability": "view",
      "type": "function"
    },
    {
      "inputs": [
        {
          "internalType": "uint256",
          "name": "tokenId",
          "type": "uint256"
        }
      ],
      "name": "getApproved",
      "outputs": [
        {
          "internalType": "address",
          "name": "",
          "type": "address"
        }
      ],
      "stateMutability": "view",
      "type": "function"
    },
    {
      "inputs": [
        {
          "internalType": "uint256",
          "name": "assetId",
          "type": "uint256"
        }
      ],
      "name": "getAsset",
      "outputs": [
        {
          "components": [
            {
              "internalType": "enum AssetVault.AssetStatus",
              "name": "status",
              "type": "uint8"
            },
            {
              "internalType": "uint256",
              "name": "capitalValue",
              "type": "uint256"
            },
            {
              "internalType": "uint256",
              "name": "incomeValue",
              "type": "uint256"
            },
            {
              "internalType": "string",
              "name": "metadataURI",
              "type": "string"
            },
            {
              "internalType": "uint256",
              "name": "createdAt",
              "type": "uint256"
            },
            {
              "internalType": "uint256",
              "name": "updatedAt",
              "type": "uint256"
            }
          ],
          "internalType": "struct AssetVault.Asset",
          "name": "",
          "type": "tuple"
        }
      ],
      "stateMutability": "view",
      "type": "function"
    },
    {
      "inputs": [
        {
          "internalType": "bytes32",
          "name": "role",
          "type": "bytes32"
        }
      ],
      "name": "getRoleAdmin",
      "outputs": [
        {
          "internalType": "bytes32",
          "name": "",
          "type": "bytes32"
        }
      ],
      "stateMutability": "view",
      "type": "function"
    },
    {
      "inputs": [
        {
          "internalType": "bytes32",
          "name": "role",
          "type": "bytes32"
        },
        {
          "internalType": "address",
          "name": "account",
          "type": "address"
        }
      ],
      "name": "grantRole",
      "outputs": [],
      "stateMutability": "nonpayable",
      "type": "function"
    },
    {
      "inputs": [
        {
          "internalType": "bytes32",
          "name": "role",
          "type": "bytes32"
        },
        {
          "internalType": "address",
          "name": "account",
          "type": "address"
        }
      ],
      "name": "hasRole",
      "outputs": [
        {
          "internalType": "bool",
          "name": "",
          "type": "bool"
        }
      ],
      "stateMutability": "view",
      "type": "function"
    },
    {
      "inputs": [
        {
          "internalType": "address",
          "name": "owner",
          "type": "address"
        },
        {
          "internalType": "address",
          "name": "operator",
          "type": "address"
        }
      ],
      "name": "isApprovedForAll",
      "outputs": [
        {
          "internalType": "bool",
          "name": "",
          "type": "bool"
        }
      ],
      "stateMutability": "view",
      "type": "function"
    },
    {
      "inputs": [
        {
          "internalType": "uint256",
          "name": "tokenId",
          "type": "uint256"
        }
      ],
      "name": "isFrozen",
      "outputs": [
        {
          "internalType": "bool",
          "name": "",
          "type": "bool"
        }
      ],
      "stateMutability": "view",
      "type": "function"
    },
    {
      "inputs": [
        {
          "internalType": "address",
          "name": "user",
          "type": "address"
        }
      ],
      "name": "isUserAllowed",
      "outputs": [
        {
          "internalType": "bool",
          "name": "",
          "type": "bool"
        }
      ],
      "stateMutability": "view",
      "type": "function"
    },
    {
      "inputs": [],
      "name": "name",
      "outputs": [
        {
          "internalType": "string",
          "name": "",
          "type": "string"
        }
      ],
      "stateMutability": "view",
      "type": "function"
    },
    {
      "inputs": [
        {
          "internalType": "uint256",
          "name": "tokenId",
          "type": "uint256"
        }
      ],
      "name": "ownerOf",
      "outputs": [
        {
          "internalType": "address",
          "name": "",
          "type": "address"
        }
      ],
      "stateMutability": "view",
      "type": "function"
    },
    {
      "inputs": [],
      "name": "pause",
      "outputs": [],
      "stateMutability": "nonpayable",
      "type": "function"
    },
    {
      "inputs": [],
      "name": "paused",
      "outputs": [
        {
          "internalType": "bool",
          "name": "",
          "type": "bool"
        }
      ],
      "stateMutability": "view",
      "type": "function"
    },
    {
      "inputs": [],
      "name": "pauser",
      "outputs": [
        {
          "internalType": "address",
          "name": "",
          "type": "address"
        }
      ],
      "stateMutability": "view",
      "type": "function"
    },
    {
      "inputs": [
        {
          "internalType": "bytes32",
          "name": "role",
          "type": "bytes32"
        },
        {
          "internalType": "address",
          "name": "callerConfirmation",
          "type": "address"
        }
      ],
      "name": "renounceRole",
      "outputs": [],
      "stateMutability": "nonpayable",
      "type": "function"
    },
    {
      "inputs": [
        {
          "internalType": "bytes32",
          "name": "role",
          "type": "bytes32"
        },
        {
          "internalType": "address",
          "name": "account",
          "type": "address"
        }
      ],
      "name": "revokeRole",
      "outputs": [],
      "stateMutability": "nonpayable",
      "type": "function"
    },
    {
      "inputs": [
        {
          "internalType": "address",
          "name": "from",
          "type": "address"
        },
        {
          "internalType": "address",
          "name": "to",
          "type": "address"
        },
        {
          "internalType": "uint256",
          "name": "tokenId",
          "type": "uint256"
        }
      ],
      "name": "safeTransferFrom",
      "outputs": [],
      "stateMutability": "nonpayable",
      "type": "function"
    },
    {
      "inputs": [
        {
          "internalType": "address",
          "name": "from",
          "type": "address"
        },
        {
          "internalType": "address",
          "name": "to",
          "type": "address"
        },
        {
          "internalType": "uint256",
          "name": "tokenId",
          "type": "uint256"
        },
        {
          "internalType": "bytes",
          "name": "data",
          "type": "bytes"
        }
      ],
      "name": "safeTransferFrom",
      "outputs": [],
      "stateMutability": "nonpayable",
      "type": "function"
    },
    {
      "inputs": [
        {
          "internalType": "address",
          "name": "operator",
          "type": "address"
        },
        {
          "internalType": "bool",
          "name": "approved",
          "type": "bool"
        }
      ],
      "name": "setApprovalForAll",
      "outputs": [],
      "stateMutability": "nonpayable",
      "type": "function"
    },
    {
      "inputs": [
        {
          "internalType": "address",
          "name": "_assetShares",
          "type": "address"
        }
      ],
      "name": "setAssetShares",
      "outputs": [],
      "stateMutability": "nonpayable",
      "type": "function"
    },
    {
      "inputs": [
        {
          "internalType": "uint256",
          "name": "tokenId",
          "type": "uint256"
        },
        {
          "internalType": "bool",
          "name": "frozen",
          "type": "bool"
        }
      ],
      "name": "setFrozenToken",
      "outputs": [],
      "stateMutability": "nonpayable",
      "type": "function"
    },
    {
      "inputs": [
        {
          "internalType": "address",
          "name": "_pauser",
          "type": "address"
        }
      ],
      "name": "setPauser",
      "outputs": [],
      "stateMutability": "nonpayable",
      "type": "function"
    },
    {
      "inputs": [
        {
          "internalType": "address",
          "name": "user",
          "type": "address"
        },
        {
          "internalType": "bool",
          "name": "allowed",
          "type": "bool"
        }
      ],
      "name": "setUserAllowed",
      "outputs": [],
      "stateMutability": "nonpayable",
      "type": "function"
    },
    {
      "inputs": [
        {
          "internalType": "bytes4",
          "name": "interfaceId",
          "type": "bytes4"
        }
      ],
      "name": "supportsInterface",
      "outputs": [
        {
          "internalType": "bool",
          "name": "",
          "type": "bool"
        }
      ],
      "stateMutability": "view",
      "type": "function"
    },
    {
      "inputs": [],
      "name": "symbol",
      "outputs": [
        {
          "internalType": "string",
          "name": "",
          "type": "string"
        }
      ],
      "stateMutability": "view",
      "type": "function"
    },
    {
      "inputs": [
        {
          "internalType": "uint256",
          "name": "tokenId",
          "type": "uint256"
        }
      ],
      "name": "tokenURI",
      "outputs": [
        {
          "internalType": "string",
          "name": "",
          "type": "string"
        }
      ],
      "stateMutability": "view",
      "type": "function"
    },
    {
      "inputs": [
        {
          "internalType": "address",
          "name": "from",
          "type": "address"
        },
        {
          "internalType": "address",
          "name": "to",
          "type": "address"
        },
        {
          "internalType": "uint256",
          "name": "tokenId",
          "type": "uint256"
        }
      ],
      "name": "transferFrom",
      "outputs": [],
      "stateMutability": "nonpayable",
      "type": "function"
    },
    {
      "inputs": [],
      "name": "unpause",
      "outputs": [],
      "stateMutability": "nonpayable",
      "type": "function"
    },
    {
      "inputs": [],
      "name": "userAllowList",
      "outputs": [
        {
          "internalType": "contract AssetUserAllowList",
          "name": "",
          "type": "address"
        }
      ],
      "stateMutability": "view",
      "type": "function"
    }
  ],
  "bytecode": "0x60a06040526001600a553480156200001657600080fd5b5060405162002b1f38038062002b1f83398101604081905262000039916200022d565b6040518060400160405280600b81526020016a105cdcd95d0815985d5b1d60aa1b81525060405180604001604052806005815260200164159055531560da1b81525081600090816200008c919062000304565b5060016200009b828262000304565b50506001600755506001600160a01b038116620000fe5760405162461bcd60e51b815260206004820152601960248201527f496e76616c696420616c6c6f776c697374206164647265737300000000000000604482015260640160405180910390fd5b6001600160a01b038116608052620001186000336200017a565b50620001457fb1fadd3142ab2ad7f1337ea4d97112bcc8337fc11ce5b20cb04ad038adf99819336200017a565b50620001727fb6f0283bd1ed00c6aa7e988a7516070240f3610a34d167391359b648eb37cefc336200017a565b5050620003d0565b60008281526006602090815260408083206001600160a01b038516845290915281205460ff16620002235760008381526006602090815260408083206001600160a01b03861684529091529020805460ff19166001179055620001da3390565b6001600160a01b0316826001600160a01b0316847f2f8788117e7eff1d82e926ec794901d17c78024a50270940304540a733656f0d60405160405180910390a450600162000227565b5060005b92915050565b6000602082840312156200024057600080fd5b81516001600160a01b03811681146200025857600080fd5b9392505050565b634e487b7160e01b600052604160045260246000fd5b600181811c908216806200028a57607f821691505b602082108103620002ab57634e487b7160e01b600052602260045260246000fd5b50919050565b601f821115620002ff57600081815260208120601f850160051c81016020861015620002da5750805b601f850160051c820191505b81811015620002fb57828155600101620002e6565b5050505b505050565b81516001600160401b038111156200032057620003206200025f565b620003388162000331845462000275565b84620002b1565b602080601f831160018114620003705760008415620003575750858301515b600019600386901b1c1916600185901b178555620002fb565b600085815260208120601f198616915b82811015620003a15788860151825594840194600190910190840162000380565b5085821015620003c05787850151600019600388901b60f8161c191681555b5050505050600190811b01905550565b6080516127106200040f600039600081816102cf01528181610fd901528181611112015281816111ba015281816112a1015261133401526127106000f3fe608060405234801561001057600080fd5b50600436106102485760003560e01c806391d148541161013b578063b88d4fde116100b8578063e1ff0f871161007c578063e1ff0f8714610548578063e46638e614610560578063e63ab1e914610573578063e985e9c514610588578063eac8f5b81461059b57600080fd5b8063b88d4fde146104e9578063c87b56dd146104fc578063d1a81a8d1461050f578063d547741f14610522578063d5c03cc91461053557600080fd5b8063a0894799116100ff578063a089479914610471578063a217fddf14610494578063a22cb4651461049c578063a4b32de8146104af578063a52ba4e8146104d657600080fd5b806391d14854146104105780639318603a1461042357806395d89b41146104435780639fc1d0e71461044b5780639fd0506d1461045e57600080fd5b80632d88af4a116101c957806346dd52721161018d57806346dd5272146103c45780635c975abb146103d75780636352211e146103e257806370a08231146103f55780638456cb591461040857600080fd5b80632d88af4a146103705780632f2ff15d1461038357806336568abe146103965780633f4ba83a146103a957806342842e0e146103b157600080fd5b806311a84e731161021057806311a84e73146102f1578063198596b51461030457806323b872dd14610327578063248a9ca31461033a57806328f5bc6a1461035d57600080fd5b806301ffc9a71461024d57806306fdde0314610275578063081812fc1461028a578063095ea7b3146102b55780630ad5b98c146102ca575b600080fd5b61026061025b366004611f45565b6105bb565b60405190151581526020015b60405180910390f35b61027d6105db565b60405161026c9190611fb2565b61029d610298366004611fc5565b61066d565b6040516001600160a01b03909116815260200161026c565b6102c86102c3366004611ffa565b610696565b005b61029d7f000000000000000000000000000000000000000000000000000000000000000081565b6102c86102ff366004612032565b6106a5565b61031960008051602061269b83398151915281565b60405190815260200161026c565b6102c8610335366004612062565b61071f565b610319610348366004611fc5565b60009081526006602052604090206001015490565b6102c861036b36600461209e565b6107af565b6102c861037e36600461209e565b6108c4565b6102c86103913660046120b9565b6109ec565b6102c86103a43660046120b9565b610a11565b6102c8610a49565b6102c86103bf366004612062565b610a6c565b6102c86103d23660046120e5565b610a87565b60085460ff16610260565b61029d6103f0366004611fc5565b610c31565b61031961040336600461209e565b610c3c565b6102c8610c84565b61026061041e3660046120b9565b610ca4565b61043661043136600461218a565b610ccf565b60405161026c9190612291565b61027d610ebe565b6102c8610459366004612062565b610ecd565b60095461029d906001600160a01b031681565b61026061047f366004611fc5565b6000908152600c602052604090205460ff1690565b610319600081565b6102c86104aa3660046122f3565b610fac565b6103197fb1fadd3142ab2ad7f1337ea4d97112bcc8337fc11ce5b20cb04ad038adf9981981565b6102606104e436600461209e565b610fb7565b6102c86104f7366004612335565b611046565b61027d61050a366004611fc5565b61105e565b6102c861051d3660046122f3565b6110d3565b6102c86105303660046120b9565b611173565b610260610543366004611ffa565b611198565b60085461029d9061010090046001600160a01b031681565b61026061056e366004612062565b61127f565b6103196000805160206126bb83398151915281565b610260610596366004612411565b6113f9565b6105ae6105a9366004611fc5565b611427565b60405161026c919061243b565b60006105c682611568565b806105d557506105d5826115b8565b92915050565b6060600080546105ea9061244e565b80601f01602080910402602001604051908101604052809291908181526020018280546106169061244e565b80156106635780601f1061063857610100808354040283529160200191610663565b820191906000526020600020905b81548152906001019060200180831161064657829003601f168201915b5050505050905090565b6000610678826115dd565b506000828152600460205260409020546001600160a01b03166105d5565b6106a1828233611616565b5050565b60008051602061269b8339815191526106bd81611623565b6000838152600c60205260408120805460ff19168415151790556106e084610c31565b905083816001600160a01b03167f68e0d8c112165d0949ce87205b719ed7d98c7401866c34a159f7c67c6f5620e760405160405180910390a350505050565b6001600160a01b03821661074e57604051633250574960e11b8152600060048201526024015b60405180910390fd5b600061075b83833361162d565b9050836001600160a01b0316816001600160a01b0316146107a9576040516364283d7b60e01b81526001600160a01b0380861660048301526024820184905282166044820152606401610745565b50505050565b60006107ba81611623565b600854600160a81b900460ff16156108145760405162461bcd60e51b815260206004820152601760248201527f417373657453686172657320616c7265616479207365740000000000000000006044820152606401610745565b6001600160a01b0382166108605760405162461bcd60e51b815260206004820152601360248201527224b73b30b634b21039b430b932903a37b5b2b760691b6044820152606401610745565b6008805460ff60a81b196001600160a01b038516610100810291909116610100600160b01b031990921691909117600160a81b179091556040517fc25eecbda7b7f176285751ccb7a783ac11a7b5ca5d3365d0467246a564e188e190600090a25050565b60006108cf81611623565b600954600160a01b900460ff161561091e5760405162461bcd60e51b815260206004820152601260248201527114185d5cd95c88185b1c9958591e481cd95d60721b6044820152606401610745565b6001600160a01b03821661096d5760405162461bcd60e51b8152602060048201526016602482015275496e76616c696420706175736572206164647265737360501b6044820152606401610745565b600980546001600160a01b0319166001600160a01b0384161790556109a06000805160206126bb8339815191528361164a565b506009805460ff60a01b1916600160a01b1790556040516001600160a01b038316907fd11d57c2c7468878b1035df11c670bcd0091aa840bf8aa166365397622237bea90600090a25050565b600082815260066020526040902060010154610a0781611623565b6107a9838361164a565b6001600160a01b0381163314610a3a5760405163334bd91960e11b815260040160405180910390fd5b610a4482826116de565b505050565b6000805160206126bb833981519152610a6181611623565b610a6961174b565b50565b610a4483838360405180602001604052806000815250611046565b7fb1fadd3142ab2ad7f1337ea4d97112bcc8337fc11ce5b20cb04ad038adf99819610ab181611623565b6000878152600b602052604090206004015415610b075760405162461bcd60e51b8152602060048201526014602482015273417373657420616c72656164792065786973747360601b6044820152606401610745565b6040518060c00160405280876003811115610b2457610b246121ff565b815260200186815260200185815260200184848080601f016020809104026020016040519081016040528093929190818152602001838380828437600092018290525093855250504260208085019190915260409384018390528b8352600b9052502081518154829060ff19166001836003811115610ba557610ba56121ff565b0217905550602082015160018201556040820151600282015560608201516003820190610bd290826124ce565b506080820151816004015560a08201518160050155905050867f6d6ee7df9000ab7132faa3536cb39e9b6f061b2fb0480f34b3b382864165972587878742604051610c20949392919061258e565b60405180910390a250505050505050565b60006105d5826115dd565b60006001600160a01b038216610c68576040516322718ad960e21b815260006004820152602401610745565b506001600160a01b031660009081526003602052604090205490565b6000805160206126bb833981519152610c9c81611623565b610a6961179d565b60009182526006602090815260408084206001600160a01b0393909316845291905290205460ff1690565b606060008267ffffffffffffffff811115610cec57610cec61231f565b604051908082528060200260200182016040528015610d5757816020015b610d446040805160c08101909152806000815260200160008152602001600081526020016060815260200160008152602001600081525090565b815260200190600190039081610d0a5790505b50905060005b83811015610eb657600b6000868684818110610d7b57610d7b6125b7565b602090810292909201358352508101919091526040908101600020815160c081019092528054829060ff166003811115610db757610db76121ff565b6003811115610dc857610dc86121ff565b81526020016001820154815260200160028201548152602001600382018054610df09061244e565b80601f0160208091040260200160405190810160405280929190818152602001828054610e1c9061244e565b8015610e695780601f10610e3e57610100808354040283529160200191610e69565b820191906000526020600020905b815481529060010190602001808311610e4c57829003601f168201915b5050505050815260200160048201548152602001600582015481525050828281518110610e9857610e986125b7565b60200260200101819052508080610eae906125cd565b915050610d5d565b509392505050565b6060600180546105ea9061244e565b60008051602061269b833981519152610ee581611623565b610eed6117da565b836001600160a01b0316610f0083610c31565b6001600160a01b031614610f565760405162461bcd60e51b815260206004820152601760248201527f546f6b656e206e6f74206f776e65642062792066726f6d0000000000000000006044820152606401610745565b610f61848484611804565b81836001600160a01b0316856001600160a01b03167f7b3ce50c216d2ccf9919c6b9f1bfb33f0350a33010f188750b4af38e0044813860405160405180910390a46107a96001600755565b6106a13383836118b4565b6040516314a5749d60e31b81526001600160a01b0382811660048301526000917f00000000000000000000000000000000000000000000000000000000000000009091169063a52ba4e890602401602060405180830381865afa158015611022573d6000803e3d6000fd5b505050506040513d601f19601f820116820180604052508101906105d591906125f4565b61105184848461071f565b6107a93385858585611953565b6060611069826115dd565b50600061108160408051602081019091526000815290565b905060008151116110a157604051806020016040528060008152506110cc565b806110ab84611a7e565b6040516020016110bc929190612611565b6040516020818303038152906040525b9392505050565b60008051602061269b8339815191526110eb81611623565b60405163d1a81a8d60e01b81526001600160a01b03848116600483015283151560248301527f0000000000000000000000000000000000000000000000000000000000000000169063d1a81a8d90604401600060405180830381600087803b15801561115657600080fd5b505af115801561116a573d6000803e3d6000fd5b50505050505050565b60008281526006602052604090206001015461118e81611623565b6107a983836116de565b6040516314a5749d60e31b81526001600160a01b0383811660048301526000917f00000000000000000000000000000000000000000000000000000000000000009091169063a52ba4e890602401602060405180830381865afa158015611203573d6000803e3d6000fd5b505050506040513d601f19601f8201168201806040525081019061122791906125f4565b1580611235575060085460ff165b8061124e57506000828152600c602052604090205460ff165b1561125b575060006105d5565b826001600160a01b031661126e83610c31565b6001600160a01b0316149392505050565b6040516314a5749d60e31b81526001600160a01b0384811660048301526000917f00000000000000000000000000000000000000000000000000000000000000009091169063a52ba4e890602401602060405180830381865afa1580156112ea573d6000803e3d6000fd5b505050506040513d601f19601f8201168201806040525081019061130e91906125f4565b15806113a157506040516314a5749d60e31b81526001600160a01b0384811660048301527f0000000000000000000000000000000000000000000000000000000000000000169063a52ba4e890602401602060405180830381865afa15801561137b573d6000803e3d6000fd5b505050506040513d601f19601f8201168201806040525081019061139f91906125f4565b155b806113ae575060085460ff165b806113c757506000828152600c602052604090205460ff165b156113d4575060006110cc565b836001600160a01b03166113e783610c31565b6001600160a01b031614949350505050565b6001600160a01b03918216600090815260056020908152604080832093909416825291909152205460ff1690565b6114616040805160c08101909152806000815260200160008152602001600081526020016060815260200160008152602001600081525090565b6000828152600b602052604090819020815160c081019092528054829060ff166003811115611492576114926121ff565b60038111156114a3576114a36121ff565b815260200160018201548152602001600282015481526020016003820180546114cb9061244e565b80601f01602080910402602001604051908101604052809291908181526020018280546114f79061244e565b80156115445780601f1061151957610100808354040283529160200191611544565b820191906000526020600020905b81548152906001019060200180831161152757829003601f168201915b50505050508152602001600482015481526020016005820154815250509050919050565b60006001600160e01b031982166380ac58cd60e01b148061159957506001600160e01b03198216635b5e139f60e01b145b806105d557506301ffc9a760e01b6001600160e01b03198316146105d5565b60006001600160e01b03198216637965db0b60e01b14806105d557506105d582611568565b6000818152600260205260408120546001600160a01b0316806105d557604051637e27328960e01b815260048101849052602401610745565b610a448383836001611b11565b610a698133611c17565b6000611637611c50565b611642848484611c76565b949350505050565b60006116568383610ca4565b6116d65760008381526006602090815260408083206001600160a01b03861684529091529020805460ff1916600117905561168e3390565b6001600160a01b0316826001600160a01b0316847f2f8788117e7eff1d82e926ec794901d17c78024a50270940304540a733656f0d60405160405180910390a45060016105d5565b5060006105d5565b60006116ea8383610ca4565b156116d65760008381526006602090815260408083206001600160a01b0386168085529252808320805460ff1916905551339286917ff6391f5c32d9c69d2a47ea670b442974b53935d1edc7fd64eb21e047a839171b9190a45060016105d5565b611753611d6f565b6008805460ff191690557f5db9ee0a495bf2e6ff9c91a7834c1ba4fdd244a5e8aa4e537bd38aeae4b073aa335b6040516001600160a01b03909116815260200160405180910390a1565b6117a5611c50565b6008805460ff191660011790557f62e78cea01bee320cd4e420270b5ea74000d11b0c9f74754ebdbfc544b05a2586117803390565b6002600754036117fd57604051633ee5aeb560e01b815260040160405180910390fd5b6002600755565b6001600160a01b03821661182e57604051633250574960e11b815260006004820152602401610745565b600061183c8383600061162d565b90506001600160a01b03811661186857604051637e27328960e01b815260048101839052602401610745565b836001600160a01b0316816001600160a01b0316146107a9576040516364283d7b60e01b81526001600160a01b0380861660048301526024820184905282166044820152606401610745565b6001600160a01b0382166118e657604051630b61174360e31b81526001600160a01b0383166004820152602401610745565b6001600160a01b03838116600081815260056020908152604080832094871680845294825291829020805460ff191686151590811790915591519182527f17307eab39ab6107e8899845ad3d59bd9653f200f220920489ca2b5937696c31910160405180910390a3505050565b6001600160a01b0383163b15611a7757604051630a85bd0160e11b81526001600160a01b0384169063150b7a0290611995908890889087908790600401612640565b6020604051808303816000875af19250505080156119d0575060408051601f3d908101601f191682019092526119cd9181019061267d565b60015b611a39573d8080156119fe576040519150601f19603f3d011682016040523d82523d6000602084013e611a03565b606091505b508051600003611a3157604051633250574960e11b81526001600160a01b0385166004820152602401610745565b805160208201fd5b6001600160e01b03198116630a85bd0160e11b14611a7557604051633250574960e11b81526001600160a01b0385166004820152602401610745565b505b5050505050565b60606000611a8b83611d92565b600101905060008167ffffffffffffffff811115611aab57611aab61231f565b6040519080825280601f01601f191660200182016040528015611ad5576020820181803683370190505b5090508181016020015b600019016f181899199a1a9b1b9c1cb0b131b232b360811b600a86061a8153600a8504945084611adf57509392505050565b8080611b2557506001600160a01b03821615155b15611be7576000611b35846115dd565b90506001600160a01b03831615801590611b615750826001600160a01b0316816001600160a01b031614155b8015611b745750611b7281846113f9565b155b15611b9d5760405163a9fbf51f60e01b81526001600160a01b0384166004820152602401610745565b8115611be55783856001600160a01b0316826001600160a01b03167f8c5be1e5ebec7d5bd14f71427d1e84f3dd0314c0f7b2291e5b200ac8c7c3b92560405160405180910390a45b505b5050600090815260046020526040902080546001600160a01b0319166001600160a01b0392909216919091179055565b611c218282610ca4565b6106a15760405163e2517d3f60e01b81526001600160a01b038216600482015260248101839052604401610745565b60085460ff1615611c745760405163d93c066560e01b815260040160405180910390fd5b565b6000828152600260205260408120546001600160a01b0390811690831615611ca357611ca3818486611e6a565b6001600160a01b03811615611ce157611cc0600085600080611b11565b6001600160a01b038116600090815260036020526040902080546000190190555b6001600160a01b03851615611d10576001600160a01b0385166000908152600360205260409020805460010190555b60008481526002602052604080822080546001600160a01b0319166001600160a01b0389811691821790925591518793918516917fddf252ad1be2c89b69c2b068fc378daa952ba7f163c4a11628f55a4df523b3ef91a4949350505050565b60085460ff16611c7457604051638dfc202b60e01b815260040160405180910390fd5b60008072184f03e93ff9f4daa797ed6e38ed64bf6a1f0160401b8310611dd15772184f03e93ff9f4daa797ed6e38ed64bf6a1f0160401b830492506040015b6d04ee2d6d415b85acef81000000008310611dfd576d04ee2d6d415b85acef8100000000830492506020015b662386f26fc100008310611e1b57662386f26fc10000830492506010015b6305f5e1008310611e33576305f5e100830492506008015b6127108310611e4757612710830492506004015b60648310611e59576064830492506002015b600a83106105d55760010192915050565b611e75838383611ece565b610a44576001600160a01b038316611ea357604051637e27328960e01b815260048101829052602401610745565b60405163177e802f60e01b81526001600160a01b038316600482015260248101829052604401610745565b60006001600160a01b038316158015906116425750826001600160a01b0316846001600160a01b03161480611f085750611f0884846113f9565b8061164257506000828152600460205260409020546001600160a01b0380851691166113e7565b6001600160e01b031981168114610a6957600080fd5b600060208284031215611f5757600080fd5b81356110cc81611f2f565b60005b83811015611f7d578181015183820152602001611f65565b50506000910152565b60008151808452611f9e816020860160208601611f62565b601f01601f19169290920160200192915050565b6020815260006110cc6020830184611f86565b600060208284031215611fd757600080fd5b5035919050565b80356001600160a01b0381168114611ff557600080fd5b919050565b6000806040838503121561200d57600080fd5b61201683611fde565b946020939093013593505050565b8015158114610a6957600080fd5b6000806040838503121561204557600080fd5b82359150602083013561205781612024565b809150509250929050565b60008060006060848603121561207757600080fd5b61208084611fde565b925061208e60208501611fde565b9150604084013590509250925092565b6000602082840312156120b057600080fd5b6110cc82611fde565b600080604083850312156120cc57600080fd5b823591506120dc60208401611fde565b90509250929050565b60008060008060008060a087890312156120fe57600080fd5b8635955060208701356004811061211457600080fd5b94506040870135935060608701359250608087013567ffffffffffffffff8082111561213f57600080fd5b818901915089601f83011261215357600080fd5b81358181111561216257600080fd5b8a602082850101111561217457600080fd5b6020830194508093505050509295509295509295565b6000806020838503121561219d57600080fd5b823567ffffffffffffffff808211156121b557600080fd5b818501915085601f8301126121c957600080fd5b8135818111156121d857600080fd5b8660208260051b85010111156121ed57600080fd5b60209290920196919550909350505050565b634e487b7160e01b600052602160045260246000fd5b6004811061223357634e487b7160e01b600052602160045260246000fd5b9052565b612242828251612215565b60208101516020830152604081015160408301526000606082015160c0606085015261227160c0850182611f86565b90506080830151608085015260a083015160a08501528091505092915050565b6000602080830181845280855180835260408601915060408160051b870101925083870160005b828110156122e657603f198886030184526122d4858351612237565b945092850192908501906001016122b8565b5092979650505050505050565b6000806040838503121561230657600080fd5b61230f83611fde565b9150602083013561205781612024565b634e487b7160e01b600052604160045260246000fd5b6000806000806080858703121561234b57600080fd5b61235485611fde565b935061236260208601611fde565b925060408501359150606085013567ffffffffffffffff8082111561238657600080fd5b818701915087601f83011261239a57600080fd5b8135818111156123ac576123ac61231f565b604051601f8201601f19908116603f011681019083821181831017156123d4576123d461231f565b816040528281528a60208487010111156123ed57600080fd5b82602086016020830137600060208483010152809550505050505092959194509250565b6000806040838503121561242457600080fd5b61242d83611fde565b91506120dc60208401611fde565b6020815260006110cc6020830184612237565b600181811c9082168061246257607f821691505b60208210810361248257634e487b7160e01b600052602260045260246000fd5b50919050565b601f821115610a4457600081815260208120601f850160051c810160208610156124af5750805b601f850160051c820191505b81811015611a75578281556001016124bb565b815167ffffffffffffffff8111156124e8576124e861231f565b6124fc816124f6845461244e565b84612488565b602080601f83116001811461253157600084156125195750858301515b600019600386901b1c1916600185901b178555611a75565b600085815260208120601f198616915b8281101561256057888601518255948401946001909101908401612541565b508582101561257e5787850151600019600388901b60f8161c191681555b5050505050600190811b01905550565b6080810161259c8287612215565b84602083015283604083015282606083015295945050505050565b634e487b7160e01b600052603260045260246000fd5b6000600182016125ed57634e487b7160e01b600052601160045260246000fd5b5060010190565b60006020828403121561260657600080fd5b81516110cc81612024565b60008351612623818460208801611f62565b835190830190612637818360208801611f62565b01949350505050565b6001600160a01b038581168252841660208201526040810183905260806060820181905260009061267390830184611f86565b9695505050505050565b60006020828403121561268f57600080fd5b81516110cc81611f2f56feb6f0283bd1ed00c6aa7e988a7516070240f3610a34d167391359b648eb37cefc65d7a28e3265b37a6474929f336521b332c1681b933f6cb9f3376673440d862aa2646970667358221220c88c29ef6922c530b33a67911234bf2f7d515b48bebf0073b457b4da742c4c8e64736f6c63430008140033",
  "linkReferences": {},
  "deployedLinkReferences": {}
}