{
  "_format": "hh-sol-artifact-1",
  "contractName": "AssetVault",
  "sourceName": "contracts/core/AssetVault.sol",
  "abi": [
    {
      "inputs": [
        {
          "internalType": "address",
          "name": "_userAllowList",
          "type": "address"
        }
      ],
      "stateMutability": "nonpayable",
      "type": "constructor"
    },
    {
      "inputs": [],
      "name": "AccessControlBadConfirmation",
      "type": "error"
    },
    {
      "inputs": [
        {
          "internalType": "address",
          "name": "account",
          "type": "address"
        },
        {
          "internalType": "bytes32",
          "name": "neededRole",
          "type": "bytes32"
        }
      ],
      "name": "AccessControlUnauthorizedAccount",
      "type": "error"
    },
    {
      "inputs": [
        {
          "internalType": "address",
          "name": "sender",
          "type": "address"
        },
        {
          "internalType": "uint256",
          "name": "tokenId",
          "type": "uint256"
        },
        {
          "internalType": "address",
          "name": "owner",
          "type": "address"
        }
      ],
      "name": "ERC721IncorrectOwner",
      "type": "error"
    },
    {
      "inputs": [
        {
          "internalType": "address",
          "name": "operator",
          "type": "address"
        },
        {
          "internalType": "uint256",
          "name": "tokenId",
          "type": "uint256"
        }
      ],
      "name": "ERC721InsufficientApproval",
      "type": "error"
    },
    {
      "inputs": [
        {
          "internalType": "address",
          "name": "approver",
          "type": "address"
        }
      ],
      "name": "ERC721InvalidApprover",
      "type": "error"
    },
    {
      "inputs": [
        {
          "internalType": "address",
          "name": "operator",
          "type": "address"
        }
      ],
      "name": "ERC721InvalidOperator",
      "type": "error"
    },
    {
      "inputs": [
        {
          "internalType": "address",
          "name": "owner",
          "type": "address"
        }
      ],
      "name": "ERC721InvalidOwner",
      "type": "error"
    },
    {
      "inputs": [
        {
          "internalType": "address",
          "name": "receiver",
          "type": "address"
        }
      ],
      "name": "ERC721InvalidReceiver",
      "type": "error"
    },
    {
      "inputs": [
        {
          "internalType": "address",
          "name": "sender",
          "type": "address"
        }
      ],
      "name": "ERC721InvalidSender",
      "type": "error"
    },
    {
      "inputs": [
        {
          "internalType": "uint256",
          "name": "tokenId",
          "type": "uint256"
        }
      ],
      "name": "ERC721NonexistentToken",
      "type": "error"
    },
    {
      "inputs": [],
      "name": "EnforcedPause",
      "type": "error"
    },
    {
      "inputs": [],
      "name": "ExpectedPause",
      "type": "error"
    },
    {
      "inputs": [],
      "name": "ReentrancyGuardReentrantCall",
      "type": "error"
    },
    {
      "anonymous": false,
      "inputs": [
        {
          "indexed": true,
          "internalType": "address",
          "name": "owner",
          "type": "address"
        },
        {
          "indexed": true,
          "internalType": "address",
          "name": "approved",
          "type": "address"
        },
        {
          "indexed": true,
          "internalType": "uint256",
          "name": "tokenId",
          "type": "uint256"
        }
      ],
      "name": "Approval",
      "type": "event"
    },
    {
      "anonymous": false,
      "inputs": [
        {
          "indexed": true,
          "internalType": "address",
          "name": "owner",
          "type": "address"
        },
        {
          "indexed": true,
          "internalType": "address",
          "name": "operator",
          "type": "address"
        },
        {
          "indexed": false,
          "internalType": "bool",
          "name": "approved",
          "type": "bool"
        }
      ],
      "name": "ApprovalForAll",
      "type": "event"
    },
    {
      "anonymous": false,
      "inputs": [
        {
          "indexed": true,
          "internalType": "address",
          "name": "assetShares",
          "type": "address"
        }
      ],
      "name": "AssetSharesSet",
      "type": "event"
    },
    {
      "anonymous": false,
      "inputs": [
        {
          "indexed": true,
          "internalType": "uint256",
          "name": "assetId",
          "type": "uint256"
        },
        {
          "indexed": false,
          "internalType": "enum AssetVault.AssetStatus",
          "name": "oldStatus",
          "type": "uint8"
        },
        {
          "indexed": false,
          "internalType": "enum AssetVault.AssetStatus",
          "name": "newStatus",
          "type": "uint8"
        }
      ],
      "name": "AssetStatusChanged",
      "type": "event"
    },
    {
      "anonymous": false,
      "inputs": [
        {
          "indexed": true,
          "internalType": "uint256",
          "name": "assetId",
          "type": "uint256"
        },
        {
          "indexed": false,
          "internalType": "enum AssetVault.AssetStatus",
          "name": "status",
          "type": "uint8"
        },
        {
          "indexed": false,
          "internalType": "uint256",
          "name": "capitalValue",
          "type": "uint256"
        },
        {
          "indexed": false,
          "internalType": "uint256",
          "name": "incomeValue",
          "type": "uint256"
        },
        {
          "indexed": false,
          "internalType": "uint256",
          "name": "timestamp",
          "type": "uint256"
        }
      ],
      "name": "AssetVaulted",
      "type": "event"
    },
    {
      "anonymous": false,
      "inputs": [
        {
          "indexed": true,
          "internalType": "address",
          "name": "from",
          "type": "address"
        },
        {
          "indexed": true,
          "internalType": "address",
          "name": "to",
          "type": "address"
        },
        {
          "indexed": true,
          "internalType": "uint256",
          "name": "tokenId",
          "type": "uint256"
        }
      ],
      "name": "ForcedTransfer",
      "type": "event"
    },
    {
      "anonymous": false,
      "inputs": [
        {
          "indexed": true,
          "internalType": "address",
          "name": "user",
          "type": "address"
        },
        {
          "indexed": true,
          "internalType": "uint256",
          "name": "tokenId",
          "type": "uint256"
        }
      ],
      "name": "Frozen",
      "type": "event"
    },
    {
      "anonymous": false,
      "inputs": [
        {
          "indexed": false,
          "internalType": "address",
          "name": "account",
          "type": "address"
        }
      ],
      "name": "Paused",
      "type": "event"
    },
    {
      "anonymous": false,
      "inputs": [
        {
          "indexed": true,
          "internalType": "address",
          "name": "pauser",
          "type": "address"
        }
      ],
      "name": "PauserSet",
      "type": "event"
    },
    {
      "anonymous": false,
      "inputs": [
        {
          "indexed": true,
          "internalType": "bytes32",
          "name": "role",
          "type": "bytes32"
        },
        {
          "indexed": true,
          "internalType": "bytes32",
          "name": "previousAdminRole",
          "type": "bytes32"
        },
        {
          "indexed": true,
          "internalType": "bytes32",
          "name": "newAdminRole",
          "type": "bytes32"
        }
      ],
      "name": "RoleAdminChanged",
      "type": "event"
    },
    {
      "anonymous": false,
      "inputs": [
        {
          "indexed": true,
          "internalType": "bytes32",
          "name": "role",
          "type": "bytes32"
        },
        {
          "indexed": true,
          "internalType": "address",
          "name": "account",
          "type": "address"
        },
        {
          "indexed": true,
          "internalType": "address",
          "name": "sender",
          "type": "address"
        }
      ],
      "name": "RoleGranted",
      "type": "event"
    },
    {
      "anonymous": false,
      "inputs": [
        {
          "indexed": true,
          "internalType": "bytes32",
          "name": "role",
          "type": "bytes32"
        },
        {
          "indexed": true,
          "internalType": "address",
          "name": "account",
          "type": "address"
        },
        {
          "indexed": true,
          "internalType": "address",
          "name": "sender",
          "type": "address"
        }
      ],
      "name": "RoleRevoked",
      "type": "event"
    },
    {
      "anonymous": false,
      "inputs": [
        {
          "indexed": true,
          "internalType": "address",
          "name": "from",
          "type": "address"
        },
        {
          "indexed": true,
          "internalType": "address",
          "name": "to",
          "type": "address"
        },
        {
          "indexed": true,
          "internalType": "uint256",
          "name": "tokenId",
          "type": "uint256"
        }
      ],
      "name": "Transfer",
      "type": "event"
    },
    {
      "anonymous": false,
      "inputs": [
        {
          "indexed": false,
          "internalType": "address",
          "name": "account",
          "type": "address"
        }
      ],
      "name": "Unpaused",
      "type": "event"
    },
    {
      "inputs": [],
      "name": "ASSET_MANAGER_ROLE",
      "outputs": [
        {
          "internalType": "bytes32",
          "name": "",
          "type": "bytes32"
        }
      ],
      "stateMutability": "view",
      "type": "function"
    },
    {
      "inputs": [],
      "name": "COMPLIANCE_OFFICER_ROLE",
      "outputs": [
        {
          "internalType": "bytes32",
          "name": "",
          "type": "bytes32"
        }
      ],
      "stateMutability": "view",
      "type": "function"
    },
    {
      "inputs": [],
      "name": "DEFAULT_ADMIN_ROLE",
      "outputs": [
        {
          "internalType": "bytes32",
          "name": "",
          "type": "bytes32"
        }
      ],
      "stateMutability": "view",
      "type": "function"
    },
    {
      "inputs": [],
      "name": "PAUSER_ROLE",
      "outputs": [
        {
          "internalType": "bytes32",
          "name": "",
          "type": "bytes32"
        }
      ],
      "stateMutability": "view",
      "type": "function"
    },
    {
      "inputs": [
        {
          "internalType": "address",
          "name": "to",
          "type": "address"
        },
        {
          "internalType": "uint256",
          "name": "tokenId",
          "type": "uint256"
        }
      ],
      "name": "approve",
      "outputs": [],
      "stateMutability": "nonpayable",
      "type": "function"
    },
    {
      "inputs": [],
      "name": "assetShares",
      "outputs": [
        {
          "internalType": "address",
          "name": "",
          "type": "address"
        }
      ],
      "stateMutability": "view",
      "type": "function"
    },
    {
      "inputs": [
        {
          "internalType": "address",
          "name": "owner",
          "type": "address"
        }
      ],
      "name": "balanceOf",
      "outputs": [
        {
          "internalType": "uint256",
          "name": "",
          "type": "uint256"
        }
      ],
      "stateMutability": "view",
      "type": "function"
    },
    {
      "inputs": [
        {
          "internalType": "address",
          "name": "user",
          "type": "address"
        },
        {
          "internalType": "uint256",
          "name": "tokenId",
          "type": "uint256"
        }
      ],
      "name": "canTransact",
      "outputs": [
        {
          "internalType": "bool",
          "name": "",
          "type": "bool"
        }
      ],
      "stateMutability": "view",
      "type": "function"
    },
    {
      "inputs": [
        {
          "internalType": "address",
          "name": "from",
          "type": "address"
        },
        {
          "internalType": "address",
          "name": "to",
          "type": "address"
        },
        {
          "internalType": "uint256",
          "name": "tokenId",
          "type": "uint256"
        }
      ],
      "name": "canTransfer",
      "outputs": [
        {
          "internalType": "bool",
          "name": "",
          "type": "bool"
        }
      ],
      "stateMutability": "view",
      "type": "function"
    },
    {
      "inputs": [
        {
          "internalType": "enum AssetVault.AssetStatus",
          "name": "status_",
          "type": "uint8"
        },
        {
          "internalType": "uint256",
          "name": "capitalValue_",
          "type": "uint256"
        },
        {
          "internalType": "uint256",
          "name": "incomeValue_",
          "type": "uint256"
        },
        {
          "internalType": "string",
          "name": "metadataURI_",
          "type": "string"
        }
      ],
      "name": "createAsset",
      "outputs": [
        {
          "internalType": "uint256",
          "name": "assetId",
          "type": "uint256"
        }
      ],
      "stateMutability": "nonpayable",
      "type": "function"
    },
    {
      "inputs": [
        {
          "internalType": "address",
          "name": "from",
          "type": "address"
        },
        {
          "internalType": "address",
          "name": "to",
          "type": "address"
        },
        {
          "internalType": "uint256",
          "name": "tokenId",
          "type": "uint256"
        }
      ],
      "name": "forcedTransfer",
      "outputs": [],
      "stateMutability": "nonpayable",
      "type": "function"
    },
    {
      "inputs": [
        {
          "internalType": "uint256[]",
          "name": "assetIds",
          "type": "uint256[]"
        }
      ],
      "name": "getAllAssets",
      "outputs": [
        {
          "components": [
            {
              "internalType": "enum AssetVault.AssetStatus",
              "name": "status",
              "type": "uint8"
            },
            {
              "internalType": "uint256",
              "name": "capitalValue",
              "type": "uint256"
            },
            {
              "internalType": "uint256",
              "name": "incomeValue",
              "type": "uint256"
            },
            {
              "internalType": "string",
              "name": "metadataURI",
              "type": "string"
            },
            {
              "internalType": "uint256",
              "name": "createdAt",
              "type": "uint256"
            },
            {
              "internalType": "uint256",
              "name": "updatedAt",
              "type": "uint256"
            }
          ],
          "internalType": "struct AssetVault.Asset[]",
          "name": "",
          "type": "tuple[]"
        }
      ],
      "stateMutability": "view",
      "type": "function"
    },
    {
      "inputs": [
        {
          "internalType": "uint256",
          "name": "tokenId",
          "type": "uint256"
        }
      ],
      "name": "getApproved",
      "outputs": [
        {
          "internalType": "address",
          "name": "",
          "type": "address"
        }
      ],
      "stateMutability": "view",
      "type": "function"
    },
    {
      "inputs": [
        {
          "internalType": "uint256",
          "name": "assetId",
          "type": "uint256"
        }
      ],
      "name": "getAsset",
      "outputs": [
        {
          "components": [
            {
              "internalType": "enum AssetVault.AssetStatus",
              "name": "status",
              "type": "uint8"
            },
            {
              "internalType": "uint256",
              "name": "capitalValue",
              "type": "uint256"
            },
            {
              "internalType": "uint256",
              "name": "incomeValue",
              "type": "uint256"
            },
            {
              "internalType": "string",
              "name": "metadataURI",
              "type": "string"
            },
            {
              "internalType": "uint256",
              "name": "createdAt",
              "type": "uint256"
            },
            {
              "internalType": "uint256",
              "name": "updatedAt",
              "type": "uint256"
            }
          ],
          "internalType": "struct AssetVault.Asset",
          "name": "",
          "type": "tuple"
        }
      ],
      "stateMutability": "view",
      "type": "function"
    },
    {
      "inputs": [
        {
          "internalType": "bytes32",
          "name": "role",
          "type": "bytes32"
        }
      ],
      "name": "getRoleAdmin",
      "outputs": [
        {
          "internalType": "bytes32",
          "name": "",
          "type": "bytes32"
        }
      ],
      "stateMutability": "view",
      "type": "function"
    },
    {
      "inputs": [
        {
          "internalType": "bytes32",
          "name": "role",
          "type": "bytes32"
        },
        {
          "internalType": "address",
          "name": "account",
          "type": "address"
        }
      ],
      "name": "grantRole",
      "outputs": [],
      "stateMutability": "nonpayable",
      "type": "function"
    },
    {
      "inputs": [
        {
          "internalType": "bytes32",
          "name": "role",
          "type": "bytes32"
        },
        {
          "internalType": "address",
          "name": "account",
          "type": "address"
        }
      ],
      "name": "hasRole",
      "outputs": [
        {
          "internalType": "bool",
          "name": "",
          "type": "bool"
        }
      ],
      "stateMutability": "view",
      "type": "function"
    },
    {
      "inputs": [
        {
          "internalType": "address",
          "name": "owner",
          "type": "address"
        },
        {
          "internalType": "address",
          "name": "operator",
          "type": "address"
        }
      ],
      "name": "isApprovedForAll",
      "outputs": [
        {
          "internalType": "bool",
          "name": "",
          "type": "bool"
        }
      ],
      "stateMutability": "view",
      "type": "function"
    },
    {
      "inputs": [
        {
          "internalType": "uint256",
          "name": "tokenId",
          "type": "uint256"
        }
      ],
      "name": "isFrozen",
      "outputs": [
        {
          "internalType": "bool",
          "name": "",
          "type": "bool"
        }
      ],
      "stateMutability": "view",
      "type": "function"
    },
    {
      "inputs": [
        {
          "internalType": "address",
          "name": "user",
          "type": "address"
        }
      ],
      "name": "isUserAllowed",
      "outputs": [
        {
          "internalType": "bool",
          "name": "",
          "type": "bool"
        }
      ],
      "stateMutability": "view",
      "type": "function"
    },
    {
      "inputs": [],
      "name": "name",
      "outputs": [
        {
          "internalType": "string",
          "name": "",
          "type": "string"
        }
      ],
      "stateMutability": "view",
      "type": "function"
    },
    {
      "inputs": [
        {
          "internalType": "uint256",
          "name": "tokenId",
          "type": "uint256"
        }
      ],
      "name": "ownerOf",
      "outputs": [
        {
          "internalType": "address",
          "name": "",
          "type": "address"
        }
      ],
      "stateMutability": "view",
      "type": "function"
    },
    {
      "inputs": [],
      "name": "pause",
      "outputs": [],
      "stateMutability": "nonpayable",
      "type": "function"
    },
    {
      "inputs": [],
      "name": "paused",
      "outputs": [
        {
          "internalType": "bool",
          "name": "",
          "type": "bool"
        }
      ],
      "stateMutability": "view",
      "type": "function"
    },
    {
      "inputs": [],
      "name": "pauser",
      "outputs": [
        {
          "internalType": "address",
          "name": "",
          "type": "address"
        }
      ],
      "stateMutability": "view",
      "type": "function"
    },
    {
      "inputs": [
        {
          "internalType": "bytes32",
          "name": "role",
          "type": "bytes32"
        },
        {
          "internalType": "address",
          "name": "callerConfirmation",
          "type": "address"
        }
      ],
      "name": "renounceRole",
      "outputs": [],
      "stateMutability": "nonpayable",
      "type": "function"
    },
    {
      "inputs": [
        {
          "internalType": "bytes32",
          "name": "role",
          "type": "bytes32"
        },
        {
          "internalType": "address",
          "name": "account",
          "type": "address"
        }
      ],
      "name": "revokeRole",
      "outputs": [],
      "stateMutability": "nonpayable",
      "type": "function"
    },
    {
      "inputs": [
        {
          "internalType": "address",
          "name": "from",
          "type": "address"
        },
        {
          "internalType": "address",
          "name": "to",
          "type": "address"
        },
        {
          "internalType": "uint256",
          "name": "tokenId",
          "type": "uint256"
        }
      ],
      "name": "safeTransferFrom",
      "outputs": [],
      "stateMutability": "nonpayable",
      "type": "function"
    },
    {
      "inputs": [
        {
          "internalType": "address",
          "name": "from",
          "type": "address"
        },
        {
          "internalType": "address",
          "name": "to",
          "type": "address"
        },
        {
          "internalType": "uint256",
          "name": "tokenId",
          "type": "uint256"
        },
        {
          "internalType": "bytes",
          "name": "data",
          "type": "bytes"
        }
      ],
      "name": "safeTransferFrom",
      "outputs": [],
      "stateMutability": "nonpayable",
      "type": "function"
    },
    {
      "inputs": [
        {
          "internalType": "address",
          "name": "operator",
          "type": "address"
        },
        {
          "internalType": "bool",
          "name": "approved",
          "type": "bool"
        }
      ],
      "name": "setApprovalForAll",
      "outputs": [],
      "stateMutability": "nonpayable",
      "type": "function"
    },
    {
      "inputs": [
        {
          "internalType": "address",
          "name": "_assetShares",
          "type": "address"
        }
      ],
      "name": "setAssetShares",
      "outputs": [],
      "stateMutability": "nonpayable",
      "type": "function"
    },
    {
      "inputs": [
        {
          "internalType": "uint256",
          "name": "tokenId",
          "type": "uint256"
        },
        {
          "internalType": "bool",
          "name": "frozen",
          "type": "bool"
        }
      ],
      "name": "setFrozenToken",
      "outputs": [],
      "stateMutability": "nonpayable",
      "type": "function"
    },
    {
      "inputs": [
        {
          "internalType": "address",
          "name": "_pauser",
          "type": "address"
        }
      ],
      "name": "setPauser",
      "outputs": [],
      "stateMutability": "nonpayable",
      "type": "function"
    },
    {
      "inputs": [
        {
          "internalType": "address",
          "name": "user",
          "type": "address"
        },
        {
          "internalType": "bool",
          "name": "allowed",
          "type": "bool"
        }
      ],
      "name": "setUserAllowed",
      "outputs": [],
      "stateMutability": "nonpayable",
      "type": "function"
    },
    {
      "inputs": [
        {
          "internalType": "bytes4",
          "name": "interfaceId",
          "type": "bytes4"
        }
      ],
      "name": "supportsInterface",
      "outputs": [
        {
          "internalType": "bool",
          "name": "",
          "type": "bool"
        }
      ],
      "stateMutability": "view",
      "type": "function"
    },
    {
      "inputs": [],
      "name": "symbol",
      "outputs": [
        {
          "internalType": "string",
          "name": "",
          "type": "string"
        }
      ],
      "stateMutability": "view",
      "type": "function"
    },
    {
      "inputs": [
        {
          "internalType": "uint256",
          "name": "tokenId",
          "type": "uint256"
        }
      ],
      "name": "tokenURI",
      "outputs": [
        {
          "internalType": "string",
          "name": "",
          "type": "string"
        }
      ],
      "stateMutability": "view",
      "type": "function"
    },
    {
      "inputs": [
        {
          "internalType": "address",
          "name": "from",
          "type": "address"
        },
        {
          "internalType": "address",
          "name": "to",
          "type": "address"
        },
        {
          "internalType": "uint256",
          "name": "tokenId",
          "type": "uint256"
        }
      ],
      "name": "transferFrom",
      "outputs": [],
      "stateMutability": "nonpayable",
      "type": "function"
    },
    {
      "inputs": [],
      "name": "unpause",
      "outputs": [],
      "stateMutability": "nonpayable",
      "type": "function"
    },
    {
      "inputs": [],
      "name": "userAllowList",
      "outputs": [
        {
          "internalType": "contract AssetUserAllowList",
          "name": "",
          "type": "address"
        }
      ],
      "stateMutability": "view",
      "type": "function"
    }
  ],
  "bytecode": "0x60a034620003e057601f19906001600160401b0390601f62002907388190038281018616840185811185821017620003ca57849282916040528339602093849181010312620003e057516001600160a01b0381169390849003620003e05762000067620003e5565b91600b83526a105cdcd95d0815985d5b1d60aa1b8484015262000089620003e5565b6005815264159055531560da1b858201528351838111620003ca576000908154956001968781811c91168015620003bf575b89821014620003ab5790818684931162000358575b508890868311600114620002f7578492620002eb575b5050600019600383901b1c191690861b1781555b8151938411620002d75784548581811c91168015620002cc575b87821014620002b85783811162000270575b50859284116001146200020f578394959697509262000203575b5050600019600383901b1c191690821b1781555b80600755600a558115620001bf5750608052620001713362000405565b506200017d3362000486565b50620001893362000529565b5060405161231f9081620005c882396080518181816103f00152818161057d015281816114cf0152818161209d015261216f0152f35b6064906040519062461bcd60e51b82526004820152601960248201527f496e76616c696420616c6c6f776c6973742061646472657373000000000000006044820152fd5b01519050388062000140565b919096831696848352858320925b8881106200025a575083859697981062000240575b505050811b01815562000154565b015160001960f88460031b161c1916905538808062000232565b818301518455928501929186019186016200021d565b8582528682208480870160051c820192898810620002ae575b0160051c019086905b828110620002a257505062000126565b83815501869062000292565b9250819262000289565b634e487b7160e01b82526022600452602482fd5b90607f169062000114565b634e487b7160e01b81526041600452602490fd5b015190503880620000e6565b908b899416918580528a862092865b8c82821062000341575050841162000327575b505050811b018155620000fa565b015160001960f88460031b161c1916905538808062000319565b8385015186558c9790950194938401930162000306565b9091508380528884208680850160051c8201928b8610620003a1575b918a91869594930160051c01915b82811062000392575050620000d0565b8681558594508a910162000382565b9250819262000374565b634e487b7160e01b84526022600452602484fd5b90607f1690620000bb565b634e487b7160e01b600052604160045260246000fd5b600080fd5b60408051919082016001600160401b03811183821017620003ca57604052565b6001600160a01b031660008181527f54cdd369e4e8a8515e52ca72ec816c2101831ad1f18bf44102ed171459c9b4f8602052604081205490919060ff16620004825781805260066020526040822081835260205260408220600160ff198254161790553391600080516020620028e78339815191528180a4600190565b5090565b6001600160a01b031660008181527f6e891ea7db4d1633822af4f6a64073b5d7597c864a3dccee2ee6b7f25c837bbd60205260408120549091907fb1fadd3142ab2ad7f1337ea4d97112bcc8337fc11ce5b20cb04ad038adf998199060ff16620005245780835260066020526040832082845260205260408320600160ff19825416179055600080516020620028e7833981519152339380a4600190565b505090565b6001600160a01b031660008181527fd1a890bf818afa572802200688a7d376f87d9fcc58c522c6f18adfc2a844329160205260408120549091907fb6f0283bd1ed00c6aa7e988a7516070240f3610a34d167391359b648eb37cefc9060ff16620005245780835260066020526040832082845260205260408320600160ff19825416179055600080516020620028e7833981519152339380a460019056fe608080604052600436101561001357600080fd5b600090813560e01c90816301ffc9a7146116c25750806306fdde031461161e578063081812fc146115e1578063095ea7b3146114fe5780630ad5b98c146114b957806311a84e731461143b578063198596b51461140057806323b872dd146113e8578063248a9ca3146113bb57806328f5bc6a146112af5780632d88af4a1461119c5780632f2ff15d1461115e57806336568abe146111165780633f4ba83a146110ab57806342842e0e146110835780635c975abb146110605780635d7ec37d14610ce95780636352211e14610cb857806370a0823114610c605780638456cb5914610c0557806391d1485414610bbc5780639318603a14610a1657806395d89b41146109335780639fc1d0e71461073f5780639fd0506d14610716578063a0894799146106e7578063a217fddf146106cb578063a22cb46514610622578063a4b32de8146105e7578063a52ba4e81461053b578063b88d4fde146104d7578063c87b56dd14610484578063d1a81a8d146103b9578063d547741f14610377578063d5c03cc91461034f578063e1ff0f8714610325578063e46638e614610301578063e63ab1e9146102c6578063e985e9c5146102725763eac8f5b8146101d957600080fd5b3461026f57602036600319011261026f57604061026b916101f8612276565b506004358152600b602052206005604051916102138361187f565b61022160ff8254168461226a565b600181015460208401526002810154604084015261024160038201611c57565b606084015260048101546080840152015460a0820152604051918291602083526020830190611830565b0390f35b80fd5b503461026f57604036600319011261026f5761028c611798565b60406102966117b3565b9260018060a01b0380931681526005602052209116600052602052602060ff604060002054166040519015158152f35b503461026f578060031936011261026f5760206040517f65d7a28e3265b37a6474929f336521b332c1681b933f6cb9f3376673440d862a8152f35b503461026f57602061031b610315366117d8565b91612147565b6040519015158152f35b503461026f578060031936011261026f5760088054604051911c6001600160a01b03168152602090f35b503461026f57604036600319011261026f57602061031b61036e611798565b60243590612074565b503461026f57604036600319011261026f576103b56004356103976117b3565b9080845260066020526103b06001604086200154611a52565b611ba6565b5080f35b503461026f57604036600319011261026f576103d3611798565b816103dc6117c9565b916103e5611942565b6001600160a01b03907f0000000000000000000000000000000000000000000000000000000000000000821690813b156104805783604492604051968795869463d1a81a8d60e01b8652166004850152151560248401525af180156104755761044c575080f35b67ffffffffffffffff81116104615760405280f35b634e487b7160e01b82526041600452602482fd5b6040513d84823e3d90fd5b8380fd5b503461026f57602036600319011261026f5761026b906104a5600435612003565b50806040516104b3816118b1565b52604051906104c1826118b1565b8152604051918291602083526020830190611758565b503461026f57608036600319011261026f576104f1611798565b6104f96117b3565b6064359167ffffffffffffffff831161048057366023840112156104805761052e61053893369060248160040135910161190b565b9160443591611eae565b80f35b503461026f57602036600319011261026f5760246020610559611798565b6040516314a5749d60e31b81526001600160a01b03918216600482015292839182907f0000000000000000000000000000000000000000000000000000000000000000165afa90811561047557602092916105ba575b506040519015158152f35b6105da9150823d81116105e0575b6105d281836118cd565b81019061205c565b386105af565b503d6105c8565b503461026f578060031936011261026f5760206040517fb1fadd3142ab2ad7f1337ea4d97112bcc8337fc11ce5b20cb04ad038adf998198152f35b503461026f57604036600319011261026f5761063c611798565b6106446117c9565b6001600160a01b039091169081156106b25733835260056020526040832082845260205261068181604085209060ff801983541691151516179055565b60405190151581527f17307eab39ab6107e8899845ad3d59bd9653f200f220920489ca2b5937696c3160203392a380f35b604051630b61174360e31b815260048101839052602490fd5b503461026f578060031936011261026f57602090604051908152f35b503461026f57602036600319011261026f5760ff60406020926004358152600c84522054166040519015158152f35b503461026f578060031936011261026f576009546040516001600160a01b039091168152602090f35b503461026f5761074e366117d8565b91610757611942565b60026007541461092157600260075561076f83612003565b6001600160a01b0392838316929184168390036108dc5783169283156108c35761079761203e565b84865260026020526040862054168015801561088e575b84875260036020526040872060018154019055858752600260205260408720856bffffffffffffffffffffffff60a01b8254161790558585837fddf252ad1be2c89b69c2b068fc378daa952ba7f163c4a11628f55a4df523b3ef8a80a41561082957604051637e27328960e01b815260048101869052602490fd5b82810361085e5750507f7b3ce50c216d2ccf9919c6b9f1bfb33f0350a33010f188750b4af38e004481388480a4600160075580f35b6040516364283d7b60e01b81526001600160a01b0392831660048201526024810186905291166044820152606490fd5b600086815260046020526040902080546001600160a01b031916905581875260036020526040872080546000190190556107ae565b604051633250574960e11b815260048101879052602490fd5b60405162461bcd60e51b815260206004820152601760248201527f546f6b656e206e6f74206f776e65642062792066726f6d0000000000000000006044820152606490fd5b604051633ee5aeb560e01b8152600490fd5b503461026f578060031936011261026f576040519080600180549161095783611c1d565b808652928281169081156109ec5750600114610992575b61026b8561097e818703826118cd565b604051918291602083526020830190611758565b92508083527fb10e2d527612073b26eecdfd717e6a320cf44b4afac2b0732d9fcbe2b7fa0cf65b8284106109d457505050810160200161097e8261026b61096e565b805460208587018101919091529093019281016109b9565b86955061026b9693506020925061097e94915060ff191682840152151560051b820101929361096e565b503461026f57602080600319360112610bb85760043567ffffffffffffffff9283821161026f573660238301121561026f57816004013593841161026f576024600594368282881b86010111610bb457610a6f816122a7565b93610a7d60405195866118cd565b818552601f19610a8c836122a7565b0186855b828110610b9e57505050835b828110610b0157505050506040519280840190808552835180925280604083818801981b870101940192955b828710610ad55785850386f35b909192938280610af1600193603f198a82030186528851611830565b9601920196019592919092610ac8565b8381891b830101358552600b8752604085208860405191610b218361187f565b610b2f60ff8254168461226a565b60018101548a84015260028101546040840152610b4e60038201611c57565b606084015260048101546080840152015460a0820152610b6e82886122bf565b52610b7981876122bf565b506000198114610b8b57600101610a9c565b634e487b7160e01b855260116004528385fd5b610ba6612276565b82828a010152018790610a90565b8280fd5b5080fd5b503461026f57604036600319011261026f5760ff6040602092610bdd6117b3565b6004358252600685528282206001600160a01b03909116825284522054604051911615158152f35b503461026f578060031936011261026f57610c1e6119f6565b610c2661203e565b600160ff1960085416176008557f62e78cea01bee320cd4e420270b5ea74000d11b0c9f74754ebdbfc544b05a2586020604051338152a180f35b503461026f57602036600319011261026f576001600160a01b03610c82611798565b168015610c9f578160409160209352600383522054604051908152f35b6040516322718ad960e21b815260048101839052602490fd5b503461026f57602036600319011261026f576020610cd7600435612003565b6040516001600160a01b039091168152f35b503461026f57608036600319011261026f5760048035101561026f5767ffffffffffffffff606435818111610bb45736602382011215610bb45780600401359082821161048057602491828201918382369201011161105c577fb1fadd3142ab2ad7f1337ea4d97112bcc8337fc11ce5b20cb04ad038adf9981980865260066020526040862033875260205260ff6040872054161561103f5750610d8e36828461190b565b6020815191012093848652600d602052604086205461100457600a549460018601600a558652600d60205284604087205560405191610dcc8361187f565b610dd86004358461226a565b610df560208401948635865260408501926044358452369161190b565b90606084019182524260808501528760a0850152868852600b602052604088209484516004811015610ff15760ff80198854169116178655516001860155516002850155518051918211610fde57610e506003850154611c1d565b601f8111610f9a575b5060209686959493929188916001601f851114610f025793836080969460059460a0947f6d6ee7df9000ab7132faa3536cb39e9b6f061b2fb0480f34b3b38286416597259a9892610ef7575b50508160011b916000199060031b1c19161760038501555b858101516004850155015191015560405190610edb8260043561180d565b35868201526044356040820152426060820152a2604051908152f35b015190503880610ea5565b9190600386018352898320925b601f1985168110610f8057509360018460059460a0947f6d6ee7df9000ab7132faa3536cb39e9b6f061b2fb0480f34b3b38286416597259a9860809a98601f19811610610f67575b505050811b016003850155610ebd565b015160001960f88460031b161c19169055388080610f57565b818301518455899850600190930192918a01918a01610f0f565b60038501885260208820601f840160051c810160208510610fd7575b601f830160051c82018110610fcc575050610e59565b898155600101610fb6565b5080610fb6565b634e487b7160e01b875260416004528487fd5b634e487b7160e01b8a526021600452878afd5b60405162461bcd60e51b81526020600482015260148186015273417373657420616c72656164792065786973747360601b6044820152606490fd5b836044916040519163e2517d3f60e01b8352336004840152820152fd5b8480fd5b503461026f578060031936011261026f57602060ff600854166040519015158152f35b503461026f57610538611095366117d8565b90604051926110a3846118b1565b858452611eae565b503461026f578060031936011261026f576110c46119f6565b60085460ff8116156111045760ff19166008557f5db9ee0a495bf2e6ff9c91a7834c1ba4fdd244a5e8aa4e537bd38aeae4b073aa6020604051338152a180f35b604051638dfc202b60e01b8152600490fd5b503461026f57604036600319011261026f576111306117b3565b336001600160a01b0382160361114c576103b590600435611ba6565b60405163334bd91960e11b8152600490fd5b503461026f57604036600319011261026f576103b560043561117e6117b3565b9080845260066020526111976001604086200154611a52565b611b2b565b503461026f57602036600319011261026f576111b6611798565b6111be6119bc565b60095460ff8160a01c16611275576001600160a01b03821691821561123757826111fc926bffffffffffffffffffffffff60a01b1617600955611a78565b506009805460ff60a01b1916600160a01b1790557fd11d57c2c7468878b1035df11c670bcd0091aa840bf8aa166365397622237bea8280a280f35b60405162461bcd60e51b8152602060048201526016602482015275496e76616c696420706175736572206164647265737360501b6044820152606490fd5b60405162461bcd60e51b815260206004820152601260248201527114185d5cd95c88185b1c9958591e481cd95d60721b6044820152606490fd5b503461026f57602036600319011261026f576112c9611798565b6112d16119bc565b6008549060ff8260a81c16611376576001600160a01b03811691821561133b57610100600160b01b031916600891821b610100600160a81b031617600160a81b1790557fc25eecbda7b7f176285751ccb7a783ac11a7b5ca5d3365d0467246a564e188e18280a280f35b60405162461bcd60e51b815260206004820152601360248201527224b73b30b634b21039b430b932903a37b5b2b760691b6044820152606490fd5b60405162461bcd60e51b815260206004820152601760248201527f417373657453686172657320616c7265616479207365740000000000000000006044820152606490fd5b503461026f57602036600319011261026f5760016040602092600435815260068452200154604051908152f35b503461026f576105386113fa366117d8565b91611cfd565b503461026f578060031936011261026f5760206040517fb6f0283bd1ed00c6aa7e988a7516070240f3610a34d167391359b648eb37cefc8152f35b503461026f57604036600319011261026f5760043561148061145b6117c9565b611463611942565b828452600c602052604084209060ff801983541691151516179055565b6001600160a01b0361149182612003565b167f68e0d8c112165d0949ce87205b719ed7d98c7401866c34a159f7c67c6f5620e78380a380f35b503461026f578060031936011261026f576040517f00000000000000000000000000000000000000000000000000000000000000006001600160a01b03168152602090f35b503461026f57604036600319011261026f57611518611798565b60243561152481612003565b331515806115ce575b806115a3575b61158b576001600160a01b039283169282918491167f8c5be1e5ebec7d5bd14f71427d1e84f3dd0314c0f7b2291e5b200ac8c7c3b9258680a4825260046020526040822080546001600160a01b031916909117905580f35b60405163a9fbf51f60e01b8152336004820152602490fd5b506001600160a01b038116845260056020908152604080862033875290915284205460ff1615611533565b506001600160a01b03811633141561152d565b503461026f57602036600319011261026f5760209060043561160281612003565b50815260048252604060018060a01b0391205416604051908152f35b503461026f578060031936011261026f576040519080805461163f81611c1d565b808552916001918083169081156109ec57506001146116685761026b8561097e818703826118cd565b80809450527f290decd9548b62a8d60345a988386fc84ba6bc95484008f6362f93160ef3e5635b8284106116aa57505050810160200161097e8261026b61096e565b8054602085870181019190915290930192810161168f565b905034610bb8576020366003190112610bb85760043563ffffffff60e01b8116809103610bb457602092506380ac58cd60e01b81148015611748575b8015611738575b80918115611716575b505015158152f35b637965db0b60e01b1491508115611730575b50388061170e565b905038611728565b506301ffc9a760e01b8114611705565b50635b5e139f60e01b81146116fe565b919082519283825260005b848110611784575050826000602080949584010152601f8019910116010190565b602081830181015184830182015201611763565b600435906001600160a01b03821682036117ae57565b600080fd5b602435906001600160a01b03821682036117ae57565b6024359081151582036117ae57565b60609060031901126117ae576001600160a01b039060043582811681036117ae579160243590811681036117ae579060443590565b90600482101561181a5752565b634e487b7160e01b600052602160045260246000fd5b9061183c81835161180d565b602082015160208201526040820151604082015260a08061186c606085015160c0606086015260c0850190611758565b9360808101516080850152015191015290565b60c0810190811067ffffffffffffffff82111761189b57604052565b634e487b7160e01b600052604160045260246000fd5b6020810190811067ffffffffffffffff82111761189b57604052565b90601f8019910116810190811067ffffffffffffffff82111761189b57604052565b67ffffffffffffffff811161189b57601f01601f191660200190565b929192611917826118ef565b9161192560405193846118cd565b8294818452818301116117ae578281602093846000960137010152565b3360009081527fd1a890bf818afa572802200688a7d376f87d9fcc58c522c6f18adfc2a844329160205260409020547fb6f0283bd1ed00c6aa7e988a7516070240f3610a34d167391359b648eb37cefc9060ff161561199e5750565b6044906040519063e2517d3f60e01b82523360048301526024820152fd5b3360009081527f54cdd369e4e8a8515e52ca72ec816c2101831ad1f18bf44102ed171459c9b4f8602052604081205460ff161561199e5750565b3360009081527fe09f975e15f8f53f24cbbc282b13c40b84df485fcdb8d3997fa103dc5a4ef84160205260409020547f65d7a28e3265b37a6474929f336521b332c1681b933f6cb9f3376673440d862a9060ff161561199e5750565b80600052600660205260406000203360005260205260ff604060002054161561199e5750565b6001600160a01b031660008181527fe09f975e15f8f53f24cbbc282b13c40b84df485fcdb8d3997fa103dc5a4ef84160205260408120549091907f65d7a28e3265b37a6474929f336521b332c1681b933f6cb9f3376673440d862a9060ff16611b265780835260066020526040832082845260205260408320600160ff198254161790557f2f8788117e7eff1d82e926ec794901d17c78024a50270940304540a733656f0d339380a4600190565b505090565b906000918083526006602052604083209160018060a01b03169182845260205260ff60408420541615600014611b265780835260066020526040832082845260205260408320600160ff198254161790557f2f8788117e7eff1d82e926ec794901d17c78024a50270940304540a733656f0d339380a4600190565b906000918083526006602052604083209160018060a01b03169182845260205260ff604084205416600014611b26578083526006602052604083208284526020526040832060ff1981541690557ff6391f5c32d9c69d2a47ea670b442974b53935d1edc7fd64eb21e047a839171b339380a4600190565b90600182811c92168015611c4d575b6020831014611c3757565b634e487b7160e01b600052602260045260246000fd5b91607f1691611c2c565b9060405191826000825492611c6b84611c1d565b908184526001948581169081600014611cda5750600114611c97575b5050611c95925003836118cd565b565b9093915060005260209081600020936000915b818310611cc2575050611c9593508201013880611c87565b85548884018501529485019487945091830191611caa565b915050611c9594506020925060ff191682840152151560051b8201013880611c87565b906001600160a01b039081168015611e9557611d1761203e565b600091848352846020926002845260409383858720541695869133151580611dff575b509060027fddf252ad1be2c89b69c2b068fc378daa952ba7f163c4a11628f55a4df523b3ef9284611dcc575b85835260038152888320805460010190558683525286812080546001600160a01b0319168517905580a483168203611d9e5750505050565b516364283d7b60e01b81526001600160a01b0392831660048201526024810193909352166044820152606490fd5b600087815260046020526040902080546001600160a01b0319169055848352600381528883208054600019019055611d66565b91939450915080611e54575b15611e1b57879291869138611d3a565b848887611e38576024915190637e27328960e01b82526004820152fd5b604491519063177e802f60e01b82523360048301526024820152fd5b503386148015611e79575b80611e0b5750878252600481523384868420541614611e0b565b5085825260058152848220338352815260ff8583205416611e5f565b604051633250574960e11b815260006004820152602490fd5b929092611ebc838583611cfd565b833b611ec9575b50505050565b604051630a85bd0160e11b8082523360048301526001600160a01b0392831660248301526044820194909452608060648201529493169260209290918590611f15906084830190611758565b039483816000978189895af1869181611fbf575b50611f8a575050503d600014611f81573d611f43816118ef565b90611f5160405192836118cd565b81528093823d92013e5b82519283611f7c57604051633250574960e11b815260048101849052602490fd5b019050fd5b60609250611f5b565b919450915063ffffffff60e01b1603611fa7575038808080611ec3565b60249060405190633250574960e11b82526004820152fd5b9091508481813d8311611ffc575b611fd781836118cd565b81010312611ff857516001600160e01b031981168103611ff8579038611f29565b8680fd5b503d611fcd565b6000818152600260205260409020546001600160a01b0316908115612026575090565b60249060405190637e27328960e01b82526004820152fd5b60ff6008541661204a57565b60405163d93c066560e01b8152600490fd5b908160209103126117ae575180151581036117ae5790565b6040516314a5749d60e31b81526001600160a01b039182166004820181905292906020816024817f000000000000000000000000000000000000000000000000000000000000000087165afa90811561213b5760009161211d575b50158015612111575b80156120f9575b6120f1576120ec90612003565b161490565b505050600090565b5080600052600c60205260ff604060002054166120df565b5060ff600854166120d8565b612135915060203d81116105e0576105d281836118cd565b386120cf565b6040513d6000823e3d90fd5b6040516314a5749d60e31b8082526001600160a01b03928316600483018190529492936020927f00000000000000000000000000000000000000000000000000000000000000008616929091908483602481875afa801561213b57879360009161224d575b50159384156121fc575b505050509081156121ef575b81156121d7575b506120f1576120ec90612003565b600c9150826000525260ff60406000205416386121c9565b60085460ff1691506121c2565b8593945090602491604051958694859384521660048301525afa90811561213b57600091612230575b5015833880806121b6565b6122479150823d84116105e0576105d281836118cd565b38612225565b6122649150863d88116105e0576105d281836118cd565b386121ac565b600482101561181a5752565b604051906122838261187f565b600060a0838281528260208201528260408201526060808201528260808201520152565b67ffffffffffffffff811161189b5760051b60200190565b80518210156122d35760209160051b010190565b634e487b7160e01b600052603260045260246000fdfea26469706673582212208d979ee7846afb548317db4d957a1b56379a693110503bad8124259fd16f7a4e64736f6c634300081400332f8788117e7eff1d82e926ec794901d17c78024a50270940304540a733656f0d",
  "linkReferences": {},
  "deployedLinkReferences": {}
}