{
  "_format": "hh-sol-artifact-1",
  "contractName": "AssetShares",
  "sourceName": "contracts/core/AssetShares.sol",
  "abi": [
    {
      "inputs": [
        {
          "internalType": "address",
          "name": "_usdcAddress",
          "type": "address"
        },
        {
          "internalType": "address",
          "name": "_assetVault",
          "type": "address"
        },
        {
          "internalType": "address",
          "name": "_userAllowList",
          "type": "address"
        },
        {
          "internalType": "string",
          "name": "uri",
          "type": "string"
        }
      ],
      "stateMutability": "nonpayable",
      "type": "constructor"
    },
    {
      "inputs": [],
      "name": "AccessControlBadConfirmation",
      "type": "error"
    },
    {
      "inputs": [
        {
          "internalType": "address",
          "name": "account",
          "type": "address"
        },
        {
          "internalType": "bytes32",
          "name": "neededRole",
          "type": "bytes32"
        }
      ],
      "name": "AccessControlUnauthorizedAccount",
      "type": "error"
    },
    {
      "inputs": [
        {
          "internalType": "address",
          "name": "sender",
          "type": "address"
        },
        {
          "internalType": "uint256",
          "name": "balance",
          "type": "uint256"
        },
        {
          "internalType": "uint256",
          "name": "needed",
          "type": "uint256"
        },
        {
          "internalType": "uint256",
          "name": "tokenId",
          "type": "uint256"
        }
      ],
      "name": "ERC1155InsufficientBalance",
      "type": "error"
    },
    {
      "inputs": [
        {
          "internalType": "address",
          "name": "approver",
          "type": "address"
        }
      ],
      "name": "ERC1155InvalidApprover",
      "type": "error"
    },
    {
      "inputs": [
        {
          "internalType": "uint256",
          "name": "idsLength",
          "type": "uint256"
        },
        {
          "internalType": "uint256",
          "name": "valuesLength",
          "type": "uint256"
        }
      ],
      "name": "ERC1155InvalidArrayLength",
      "type": "error"
    },
    {
      "inputs": [
        {
          "internalType": "address",
          "name": "operator",
          "type": "address"
        }
      ],
      "name": "ERC1155InvalidOperator",
      "type": "error"
    },
    {
      "inputs": [
        {
          "internalType": "address",
          "name": "receiver",
          "type": "address"
        }
      ],
      "name": "ERC1155InvalidReceiver",
      "type": "error"
    },
    {
      "inputs": [
        {
          "internalType": "address",
          "name": "sender",
          "type": "address"
        }
      ],
      "name": "ERC1155InvalidSender",
      "type": "error"
    },
    {
      "inputs": [
        {
          "internalType": "address",
          "name": "operator",
          "type": "address"
        },
        {
          "internalType": "address",
          "name": "owner",
          "type": "address"
        }
      ],
      "name": "ERC1155MissingApprovalForAll",
      "type": "error"
    },
    {
      "inputs": [],
      "name": "EnforcedPause",
      "type": "error"
    },
    {
      "inputs": [],
      "name": "ExpectedPause",
      "type": "error"
    },
    {
      "inputs": [],
      "name": "ReentrancyGuardReentrantCall",
      "type": "error"
    },
    {
      "anonymous": false,
      "inputs": [
        {
          "indexed": true,
          "internalType": "address",
          "name": "account",
          "type": "address"
        },
        {
          "indexed": true,
          "internalType": "address",
          "name": "operator",
          "type": "address"
        },
        {
          "indexed": false,
          "internalType": "bool",
          "name": "approved",
          "type": "bool"
        }
      ],
      "name": "ApprovalForAll",
      "type": "event"
    },
    {
      "anonymous": false,
      "inputs": [
        {
          "indexed": true,
          "internalType": "uint256",
          "name": "assetId",
          "type": "uint256"
        },
        {
          "indexed": false,
          "internalType": "uint256",
          "name": "totalShares",
          "type": "uint256"
        },
        {
          "indexed": false,
          "internalType": "uint256",
          "name": "sharePrice",
          "type": "uint256"
        },
        {
          "indexed": false,
          "internalType": "uint256",
          "name": "createdAt",
          "type": "uint256"
        }
      ],
      "name": "AssetSharesCreated",
      "type": "event"
    },
    {
      "anonymous": false,
      "inputs": [
        {
          "indexed": true,
          "internalType": "address",
          "name": "from",
          "type": "address"
        },
        {
          "indexed": true,
          "internalType": "address",
          "name": "to",
          "type": "address"
        },
        {
          "indexed": true,
          "internalType": "uint256",
          "name": "tokenId",
          "type": "uint256"
        },
        {
          "indexed": false,
          "internalType": "uint256",
          "name": "amount",
          "type": "uint256"
        }
      ],
      "name": "ForcedTransfer",
      "type": "event"
    },
    {
      "anonymous": false,
      "inputs": [
        {
          "indexed": true,
          "internalType": "address",
          "name": "user",
          "type": "address"
        },
        {
          "indexed": true,
          "internalType": "uint256",
          "name": "tokenId",
          "type": "uint256"
        },
        {
          "indexed": false,
          "internalType": "uint256",
          "name": "amount",
          "type": "uint256"
        }
      ],
      "name": "Frozen",
      "type": "event"
    },
    {
      "anonymous": false,
      "inputs": [
        {
          "indexed": false,
          "internalType": "address",
          "name": "account",
          "type": "address"
        }
      ],
      "name": "Paused",
      "type": "event"
    },
    {
      "anonymous": false,
      "inputs": [
        {
          "indexed": true,
          "internalType": "address",
          "name": "pauser",
          "type": "address"
        }
      ],
      "name": "PauserSet",
      "type": "event"
    },
    {
      "anonymous": false,
      "inputs": [
        {
          "indexed": true,
          "internalType": "bytes32",
          "name": "role",
          "type": "bytes32"
        },
        {
          "indexed": true,
          "internalType": "bytes32",
          "name": "previousAdminRole",
          "type": "bytes32"
        },
        {
          "indexed": true,
          "internalType": "bytes32",
          "name": "newAdminRole",
          "type": "bytes32"
        }
      ],
      "name": "RoleAdminChanged",
      "type": "event"
    },
    {
      "anonymous": false,
      "inputs": [
        {
          "indexed": true,
          "internalType": "bytes32",
          "name": "role",
          "type": "bytes32"
        },
        {
          "indexed": true,
          "internalType": "address",
          "name": "account",
          "type": "address"
        },
        {
          "indexed": true,
          "internalType": "address",
          "name": "sender",
          "type": "address"
        }
      ],
      "name": "RoleGranted",
      "type": "event"
    },
    {
      "anonymous": false,
      "inputs": [
        {
          "indexed": true,
          "internalType": "bytes32",
          "name": "role",
          "type": "bytes32"
        },
        {
          "indexed": true,
          "internalType": "address",
          "name": "account",
          "type": "address"
        },
        {
          "indexed": true,
          "internalType": "address",
          "name": "sender",
          "type": "address"
        }
      ],
      "name": "RoleRevoked",
      "type": "event"
    },
    {
      "anonymous": false,
      "inputs": [
        {
          "indexed": true,
          "internalType": "uint256",
          "name": "assetId",
          "type": "uint256"
        },
        {
          "indexed": false,
          "internalType": "uint256",
          "name": "oldPrice",
          "type": "uint256"
        },
        {
          "indexed": false,
          "internalType": "uint256",
          "name": "newPrice",
          "type": "uint256"
        },
        {
          "indexed": false,
          "internalType": "uint256",
          "name": "updatedAt",
          "type": "uint256"
        }
      ],
      "name": "SharePriceUpdated",
      "type": "event"
    },
    {
      "anonymous": false,
      "inputs": [
        {
          "indexed": true,
          "internalType": "address",
          "name": "buyer",
          "type": "address"
        },
        {
          "indexed": true,
          "internalType": "uint256",
          "name": "assetId",
          "type": "uint256"
        },
        {
          "indexed": false,
          "internalType": "uint256",
          "name": "amount",
          "type": "uint256"
        },
        {
          "indexed": false,
          "internalType": "uint256",
          "name": "pricePerShare",
          "type": "uint256"
        },
        {
          "indexed": false,
          "internalType": "uint256",
          "name": "totalCost",
          "type": "uint256"
        }
      ],
      "name": "SharesPurchased",
      "type": "event"
    },
    {
      "anonymous": false,
      "inputs": [
        {
          "indexed": true,
          "internalType": "address",
          "name": "seller",
          "type": "address"
        },
        {
          "indexed": true,
          "internalType": "address",
          "name": "buyer",
          "type": "address"
        },
        {
          "indexed": true,
          "internalType": "uint256",
          "name": "assetId",
          "type": "uint256"
        },
        {
          "indexed": false,
          "internalType": "uint256",
          "name": "amount",
          "type": "uint256"
        },
        {
          "indexed": false,
          "internalType": "uint256",
          "name": "pricePerShare",
          "type": "uint256"
        }
      ],
      "name": "SharesTraded",
      "type": "event"
    },
    {
      "anonymous": false,
      "inputs": [
        {
          "indexed": true,
          "internalType": "uint256",
          "name": "assetId",
          "type": "uint256"
        },
        {
          "indexed": false,
          "internalType": "bool",
          "name": "enabled",
          "type": "bool"
        }
      ],
      "name": "TradingStatusChanged",
      "type": "event"
    },
    {
      "anonymous": false,
      "inputs": [
        {
          "indexed": true,
          "internalType": "address",
          "name": "operator",
          "type": "address"
        },
        {
          "indexed": true,
          "internalType": "address",
          "name": "from",
          "type": "address"
        },
        {
          "indexed": true,
          "internalType": "address",
          "name": "to",
          "type": "address"
        },
        {
          "indexed": false,
          "internalType": "uint256[]",
          "name": "ids",
          "type": "uint256[]"
        },
        {
          "indexed": false,
          "internalType": "uint256[]",
          "name": "values",
          "type": "uint256[]"
        }
      ],
      "name": "TransferBatch",
      "type": "event"
    },
    {
      "anonymous": false,
      "inputs": [
        {
          "indexed": true,
          "internalType": "address",
          "name": "operator",
          "type": "address"
        },
        {
          "indexed": true,
          "internalType": "address",
          "name": "from",
          "type": "address"
        },
        {
          "indexed": true,
          "internalType": "address",
          "name": "to",
          "type": "address"
        },
        {
          "indexed": false,
          "internalType": "uint256",
          "name": "id",
          "type": "uint256"
        },
        {
          "indexed": false,
          "internalType": "uint256",
          "name": "value",
          "type": "uint256"
        }
      ],
      "name": "TransferSingle",
      "type": "event"
    },
    {
      "anonymous": false,
      "inputs": [
        {
          "indexed": false,
          "internalType": "string",
          "name": "value",
          "type": "string"
        },
        {
          "indexed": true,
          "internalType": "uint256",
          "name": "id",
          "type": "uint256"
        }
      ],
      "name": "URI",
      "type": "event"
    },
    {
      "anonymous": false,
      "inputs": [
        {
          "indexed": false,
          "internalType": "address",
          "name": "account",
          "type": "address"
        }
      ],
      "name": "Unpaused",
      "type": "event"
    },
    {
      "inputs": [],
      "name": "ASSET_MANAGER_ROLE",
      "outputs": [
        {
          "internalType": "bytes32",
          "name": "",
          "type": "bytes32"
        }
      ],
      "stateMutability": "view",
      "type": "function"
    },
    {
      "inputs": [],
      "name": "COMPLIANCE_OFFICER_ROLE",
      "outputs": [
        {
          "internalType": "bytes32",
          "name": "",
          "type": "bytes32"
        }
      ],
      "stateMutability": "view",
      "type": "function"
    },
    {
      "inputs": [],
      "name": "DEFAULT_ADMIN_ROLE",
      "outputs": [
        {
          "internalType": "bytes32",
          "name": "",
          "type": "bytes32"
        }
      ],
      "stateMutability": "view",
      "type": "function"
    },
    {
      "inputs": [],
      "name": "MINTER_ROLE",
      "outputs": [
        {
          "internalType": "bytes32",
          "name": "",
          "type": "bytes32"
        }
      ],
      "stateMutability": "view",
      "type": "function"
    },
    {
      "inputs": [],
      "name": "PAUSER_ROLE",
      "outputs": [
        {
          "internalType": "bytes32",
          "name": "",
          "type": "bytes32"
        }
      ],
      "stateMutability": "view",
      "type": "function"
    },
    {
      "inputs": [],
      "name": "USDC",
      "outputs": [
        {
          "internalType": "contract IERC20",
          "name": "",
          "type": "address"
        }
      ],
      "stateMutability": "view",
      "type": "function"
    },
    {
      "inputs": [],
      "name": "assetVault",
      "outputs": [
        {
          "internalType": "address",
          "name": "",
          "type": "address"
        }
      ],
      "stateMutability": "view",
      "type": "function"
    },
    {
      "inputs": [
        {
          "internalType": "address",
          "name": "account",
          "type": "address"
        },
        {
          "internalType": "uint256",
          "name": "id",
          "type": "uint256"
        }
      ],
      "name": "balanceOf",
      "outputs": [
        {
          "internalType": "uint256",
          "name": "",
          "type": "uint256"
        }
      ],
      "stateMutability": "view",
      "type": "function"
    },
    {
      "inputs": [
        {
          "internalType": "address[]",
          "name": "accounts",
          "type": "address[]"
        },
        {
          "internalType": "uint256[]",
          "name": "ids",
          "type": "uint256[]"
        }
      ],
      "name": "balanceOfBatch",
      "outputs": [
        {
          "internalType": "uint256[]",
          "name": "",
          "type": "uint256[]"
        }
      ],
      "stateMutability": "view",
      "type": "function"
    },
    {
      "inputs": [
        {
          "internalType": "address",
          "name": "user",
          "type": "address"
        },
        {
          "internalType": "uint256",
          "name": "tokenId",
          "type": "uint256"
        },
        {
          "internalType": "uint256",
          "name": "amount",
          "type": "uint256"
        }
      ],
      "name": "canTransact",
      "outputs": [
        {
          "internalType": "bool",
          "name": "",
          "type": "bool"
        }
      ],
      "stateMutability": "view",
      "type": "function"
    },
    {
      "inputs": [
        {
          "internalType": "address",
          "name": "from",
          "type": "address"
        },
        {
          "internalType": "address",
          "name": "to",
          "type": "address"
        },
        {
          "internalType": "uint256",
          "name": "tokenId",
          "type": "uint256"
        },
        {
          "internalType": "uint256",
          "name": "amount",
          "type": "uint256"
        }
      ],
      "name": "canTransfer",
      "outputs": [
        {
          "internalType": "bool",
          "name": "",
          "type": "bool"
        }
      ],
      "stateMutability": "view",
      "type": "function"
    },
    {
      "inputs": [
        {
          "internalType": "uint256",
          "name": "assetId",
          "type": "uint256"
        },
        {
          "internalType": "uint256",
          "name": "totalSupply_",
          "type": "uint256"
        },
        {
          "internalType": "uint256",
          "name": "sharePrice_",
          "type": "uint256"
        }
      ],
      "name": "createAssetShares",
      "outputs": [],
      "stateMutability": "nonpayable",
      "type": "function"
    },
    {
      "inputs": [
        {
          "internalType": "address",
          "name": "from",
          "type": "address"
        },
        {
          "internalType": "address",
          "name": "to",
          "type": "address"
        },
        {
          "internalType": "uint256",
          "name": "tokenId",
          "type": "uint256"
        },
        {
          "internalType": "uint256",
          "name": "amount",
          "type": "uint256"
        }
      ],
      "name": "forcedTransfer",
      "outputs": [],
      "stateMutability": "nonpayable",
      "type": "function"
    },
    {
      "inputs": [
        {
          "internalType": "uint256",
          "name": "assetId",
          "type": "uint256"
        }
      ],
      "name": "getAssetShares",
      "outputs": [
        {
          "internalType": "uint256",
          "name": "totalSupply_",
          "type": "uint256"
        },
        {
          "internalType": "uint256",
          "name": "availableSupply_",
          "type": "uint256"
        },
        {
          "internalType": "uint256",
          "name": "sharePrice_",
          "type": "uint256"
        },
        {
          "internalType": "bool",
          "name": "tradingEnabled_",
          "type": "bool"
        }
      ],
      "stateMutability": "view",
      "type": "function"
    },
    {
      "inputs": [
        {
          "internalType": "address",
          "name": "user",
          "type": "address"
        },
        {
          "internalType": "uint256",
          "name": "tokenId",
          "type": "uint256"
        }
      ],
      "name": "getFrozenTokens",
      "outputs": [
        {
          "internalType": "uint256",
          "name": "",
          "type": "uint256"
        }
      ],
      "stateMutability": "view",
      "type": "function"
    },
    {
      "inputs": [
        {
          "internalType": "bytes32",
          "name": "role",
          "type": "bytes32"
        }
      ],
      "name": "getRoleAdmin",
      "outputs": [
        {
          "internalType": "bytes32",
          "name": "",
          "type": "bytes32"
        }
      ],
      "stateMutability": "view",
      "type": "function"
    },
    {
      "inputs": [
        {
          "internalType": "address",
          "name": "user",
          "type": "address"
        },
        {
          "internalType": "uint256",
          "name": "assetId",
          "type": "uint256"
        }
      ],
      "name": "getUserShares",
      "outputs": [
        {
          "internalType": "uint256",
          "name": "totalSupply_",
          "type": "uint256"
        },
        {
          "internalType": "uint256",
          "name": "availableSupply_",
          "type": "uint256"
        },
        {
          "internalType": "uint256",
          "name": "sharePrice_",
          "type": "uint256"
        },
        {
          "internalType": "bool",
          "name": "tradingEnabled_",
          "type": "bool"
        },
        {
          "internalType": "uint256",
          "name": "balance_",
          "type": "uint256"
        },
        {
          "internalType": "uint256",
          "name": "frozen_",
          "type": "uint256"
        },
        {
          "internalType": "uint256",
          "name": "unfrozen_",
          "type": "uint256"
        },
        {
          "internalType": "uint256",
          "name": "recordedPurchasePrice_",
          "type": "uint256"
        }
      ],
      "stateMutability": "view",
      "type": "function"
    },
    {
      "inputs": [
        {
          "internalType": "bytes32",
          "name": "role",
          "type": "bytes32"
        },
        {
          "internalType": "address",
          "name": "account",
          "type": "address"
        }
      ],
      "name": "grantRole",
      "outputs": [],
      "stateMutability": "nonpayable",
      "type": "function"
    },
    {
      "inputs": [
        {
          "internalType": "bytes32",
          "name": "role",
          "type": "bytes32"
        },
        {
          "internalType": "address",
          "name": "account",
          "type": "address"
        }
      ],
      "name": "hasRole",
      "outputs": [
        {
          "internalType": "bool",
          "name": "",
          "type": "bool"
        }
      ],
      "stateMutability": "view",
      "type": "function"
    },
    {
      "inputs": [
        {
          "internalType": "address",
          "name": "account",
          "type": "address"
        },
        {
          "internalType": "address",
          "name": "operator",
          "type": "address"
        }
      ],
      "name": "isApprovedForAll",
      "outputs": [
        {
          "internalType": "bool",
          "name": "",
          "type": "bool"
        }
      ],
      "stateMutability": "view",
      "type": "function"
    },
    {
      "inputs": [
        {
          "internalType": "address",
          "name": "user",
          "type": "address"
        }
      ],
      "name": "isUserAllowed",
      "outputs": [
        {
          "internalType": "bool",
          "name": "",
          "type": "bool"
        }
      ],
      "stateMutability": "view",
      "type": "function"
    },
    {
      "inputs": [
        {
          "internalType": "address",
          "name": "",
          "type": "address"
        },
        {
          "internalType": "address",
          "name": "",
          "type": "address"
        },
        {
          "internalType": "uint256[]",
          "name": "",
          "type": "uint256[]"
        },
        {
          "internalType": "uint256[]",
          "name": "",
          "type": "uint256[]"
        },
        {
          "internalType": "bytes",
          "name": "",
          "type": "bytes"
        }
      ],
      "name": "onERC1155BatchReceived",
      "outputs": [
        {
          "internalType": "bytes4",
          "name": "",
          "type": "bytes4"
        }
      ],
      "stateMutability": "pure",
      "type": "function"
    },
    {
      "inputs": [
        {
          "internalType": "address",
          "name": "",
          "type": "address"
        },
        {
          "internalType": "address",
          "name": "",
          "type": "address"
        },
        {
          "internalType": "uint256",
          "name": "",
          "type": "uint256"
        },
        {
          "internalType": "uint256",
          "name": "",
          "type": "uint256"
        },
        {
          "internalType": "bytes",
          "name": "",
          "type": "bytes"
        }
      ],
      "name": "onERC1155Received",
      "outputs": [
        {
          "internalType": "bytes4",
          "name": "",
          "type": "bytes4"
        }
      ],
      "stateMutability": "pure",
      "type": "function"
    },
    {
      "inputs": [],
      "name": "pause",
      "outputs": [],
      "stateMutability": "nonpayable",
      "type": "function"
    },
    {
      "inputs": [],
      "name": "paused",
      "outputs": [
        {
          "internalType": "bool",
          "name": "",
          "type": "bool"
        }
      ],
      "stateMutability": "view",
      "type": "function"
    },
    {
      "inputs": [],
      "name": "pauser",
      "outputs": [
        {
          "internalType": "address",
          "name": "",
          "type": "address"
        }
      ],
      "stateMutability": "view",
      "type": "function"
    },
    {
      "inputs": [
        {
          "internalType": "uint256",
          "name": "assetId",
          "type": "uint256"
        },
        {
          "internalType": "uint256",
          "name": "amount",
          "type": "uint256"
        }
      ],
      "name": "purchaseAssetShares",
      "outputs": [],
      "stateMutability": "nonpayable",
      "type": "function"
    },
    {
      "inputs": [
        {
          "internalType": "address",
          "name": "",
          "type": "address"
        },
        {
          "internalType": "uint256",
          "name": "",
          "type": "uint256"
        }
      ],
      "name": "purchasePrice",
      "outputs": [
        {
          "internalType": "uint256",
          "name": "",
          "type": "uint256"
        }
      ],
      "stateMutability": "view",
      "type": "function"
    },
    {
      "inputs": [
        {
          "internalType": "bytes32",
          "name": "role",
          "type": "bytes32"
        },
        {
          "internalType": "address",
          "name": "callerConfirmation",
          "type": "address"
        }
      ],
      "name": "renounceRole",
      "outputs": [],
      "stateMutability": "nonpayable",
      "type": "function"
    },
    {
      "inputs": [
        {
          "internalType": "bytes32",
          "name": "role",
          "type": "bytes32"
        },
        {
          "internalType": "address",
          "name": "account",
          "type": "address"
        }
      ],
      "name": "revokeRole",
      "outputs": [],
      "stateMutability": "nonpayable",
      "type": "function"
    },
    {
      "inputs": [
        {
          "internalType": "address",
          "name": "from",
          "type": "address"
        },
        {
          "internalType": "address",
          "name": "to",
          "type": "address"
        },
        {
          "internalType": "uint256[]",
          "name": "ids",
          "type": "uint256[]"
        },
        {
          "internalType": "uint256[]",
          "name": "values",
          "type": "uint256[]"
        },
        {
          "internalType": "bytes",
          "name": "data",
          "type": "bytes"
        }
      ],
      "name": "safeBatchTransferFrom",
      "outputs": [],
      "stateMutability": "nonpayable",
      "type": "function"
    },
    {
      "inputs": [
        {
          "internalType": "address",
          "name": "from",
          "type": "address"
        },
        {
          "internalType": "address",
          "name": "to",
          "type": "address"
        },
        {
          "internalType": "uint256",
          "name": "id",
          "type": "uint256"
        },
        {
          "internalType": "uint256",
          "name": "value",
          "type": "uint256"
        },
        {
          "internalType": "bytes",
          "name": "data",
          "type": "bytes"
        }
      ],
      "name": "safeTransferFrom",
      "outputs": [],
      "stateMutability": "nonpayable",
      "type": "function"
    },
    {
      "inputs": [
        {
          "internalType": "address",
          "name": "operator",
          "type": "address"
        },
        {
          "internalType": "bool",
          "name": "approved",
          "type": "bool"
        }
      ],
      "name": "setApprovalForAll",
      "outputs": [],
      "stateMutability": "nonpayable",
      "type": "function"
    },
    {
      "inputs": [
        {
          "internalType": "address",
          "name": "user",
          "type": "address"
        },
        {
          "internalType": "uint256",
          "name": "tokenId",
          "type": "uint256"
        },
        {
          "internalType": "uint256",
          "name": "amount",
          "type": "uint256"
        }
      ],
      "name": "setFrozenTokens",
      "outputs": [],
      "stateMutability": "nonpayable",
      "type": "function"
    },
    {
      "inputs": [
        {
          "internalType": "address",
          "name": "_pauser",
          "type": "address"
        }
      ],
      "name": "setPauser",
      "outputs": [],
      "stateMutability": "nonpayable",
      "type": "function"
    },
    {
      "inputs": [
        {
          "internalType": "uint256",
          "name": "assetId",
          "type": "uint256"
        },
        {
          "internalType": "bool",
          "name": "enabled",
          "type": "bool"
        }
      ],
      "name": "setTradingEnabled",
      "outputs": [],
      "stateMutability": "nonpayable",
      "type": "function"
    },
    {
      "inputs": [
        {
          "internalType": "address",
          "name": "user",
          "type": "address"
        },
        {
          "internalType": "bool",
          "name": "allowed",
          "type": "bool"
        }
      ],
      "name": "setUserAllowed",
      "outputs": [],
      "stateMutability": "nonpayable",
      "type": "function"
    },
    {
      "inputs": [
        {
          "internalType": "uint256",
          "name": "",
          "type": "uint256"
        }
      ],
      "name": "shareInfo",
      "outputs": [
        {
          "internalType": "uint256",
          "name": "totalSupply",
          "type": "uint256"
        },
        {
          "internalType": "uint256",
          "name": "availableSupply",
          "type": "uint256"
        },
        {
          "internalType": "uint256",
          "name": "sharePrice",
          "type": "uint256"
        },
        {
          "internalType": "bool",
          "name": "tradingEnabled",
          "type": "bool"
        },
        {
          "internalType": "uint256",
          "name": "createdAt",
          "type": "uint256"
        },
        {
          "internalType": "uint256",
          "name": "updatedAt",
          "type": "uint256"
        }
      ],
      "stateMutability": "view",
      "type": "function"
    },
    {
      "inputs": [
        {
          "internalType": "bytes4",
          "name": "interfaceId",
          "type": "bytes4"
        }
      ],
      "name": "supportsInterface",
      "outputs": [
        {
          "internalType": "bool",
          "name": "",
          "type": "bool"
        }
      ],
      "stateMutability": "view",
      "type": "function"
    },
    {
      "inputs": [
        {
          "internalType": "uint256",
          "name": "assetId",
          "type": "uint256"
        },
        {
          "internalType": "address",
          "name": "seller",
          "type": "address"
        },
        {
          "internalType": "uint256",
          "name": "amount",
          "type": "uint256"
        },
        {
          "internalType": "uint256",
          "name": "pricePerShare",
          "type": "uint256"
        }
      ],
      "name": "tradeShares",
      "outputs": [],
      "stateMutability": "nonpayable",
      "type": "function"
    },
    {
      "inputs": [],
      "name": "unpause",
      "outputs": [],
      "stateMutability": "nonpayable",
      "type": "function"
    },
    {
      "inputs": [
        {
          "internalType": "uint256",
          "name": "assetId",
          "type": "uint256"
        },
        {
          "internalType": "uint256",
          "name": "newPrice",
          "type": "uint256"
        }
      ],
      "name": "updateSharePrice",
      "outputs": [],
      "stateMutability": "nonpayable",
      "type": "function"
    },
    {
      "inputs": [
        {
          "internalType": "uint256",
          "name": "",
          "type": "uint256"
        }
      ],
      "name": "uri",
      "outputs": [
        {
          "internalType": "string",
          "name": "",
          "type": "string"
        }
      ],
      "stateMutability": "view",
      "type": "function"
    },
    {
      "inputs": [],
      "name": "userAllowList",
      "outputs": [
        {
          "internalType": "contract AssetUserAllowList",
          "name": "",
          "type": "address"
        }
      ],
      "stateMutability": "view",
      "type": "function"
    }
  ],
  "bytecode": "0x604060e0815234620003d0576200364090813803806200001f81620003d5565b9384398201608083820312620003d0576200003a83620003fb565b926020936200004b858301620003fb565b9262000059858401620003fb565b606084015190936001600160401b039190828211620003d0570191601f818185011215620003d057835193838511620003a657601f1994620000a183820187168c01620003d5565b938185528b8284010111620003d0578a9160005b828110620003bc57505090600091840101528151928311620003a657600254916001948584811c941680156200039b575b8b851014620003855783838695116200032a575b508a928411600114620002c35750600092620002b7575b5050600019600383901b1c191690821b176002555b6004556001600160a01b039081169182156200027357818416156200022f5716908115620001eb57620001899394506080528160a05260c0526200016a3362000410565b50620001763362000491565b50620001823362000534565b50620005d2565b5051612faf9081620006718239608051818181610a440152818161120c015261173b015260a05181611d77015260c05181818161042d015281816108680152818161143401528181611664015281816119de0152818161291101526129f20152f35b835162461bcd60e51b815260048101869052601960248201527f496e76616c696420616c6c6f776c6973742061646472657373000000000000006044820152606490fd5b845162461bcd60e51b815260048101879052601960248201527f496e76616c69642070726f706572747920636f6e7472616374000000000000006044820152606490fd5b845162461bcd60e51b815260048101879052601460248201527f496e76616c6964205553444320616464726573730000000000000000000000006044820152606490fd5b01519050388062000111565b8594929192169160026000528a6000209260005b8c828210620003135750508411620002f9575b505050811b0160025562000126565b015160001960f88460031b161c19169055388080620002ea565b8385015186558897909501949384019301620002d7565b909192935060026000528a6000208480870160051c8201928d88106200037b575b9187968992969594930160051c01915b8281106200036b575050620000fa565b600081558796508891016200035b565b925081926200034b565b634e487b7160e01b600052602260045260246000fd5b93607f1693620000e6565b634e487b7160e01b600052604160045260246000fd5b8181018401518682018501528301620000b5565b600080fd5b6040519190601f01601f191682016001600160401b03811183821017620003a657604052565b51906001600160a01b0382168203620003d057565b6001600160a01b031660008181527f3617319a054d772f909f7c479a2cebe5066e836a939412e32403c99029b92eff602052604081205490919060ff166200048d5781805260036020526040822081835260205260408220600160ff198254161790553391600080516020620036208339815191528180a4600190565b5090565b6001600160a01b031660008181527fd4f4ae7e0f1d6ef3e8290f298fbe252931b59dd183524e1af76274726da1e66360205260408120549091907fb1fadd3142ab2ad7f1337ea4d97112bcc8337fc11ce5b20cb04ad038adf998199060ff166200052f5780835260036020526040832082845260205260408320600160ff1982541617905560008051602062003620833981519152339380a4600190565b505090565b6001600160a01b031660008181527ffca98a0144180c5ff9cc8eb43249ff58e5a9edc28ccc383a25775f69580acd2060205260408120549091907fb6f0283bd1ed00c6aa7e988a7516070240f3610a34d167391359b648eb37cefc9060ff166200052f5780835260036020526040832082845260205260408320600160ff1982541617905560008051602062003620833981519152339380a4600190565b6001600160a01b031660008181527f5562e70da342db81569f3094d36be279beaca7ad8e08f434ea188e79d2bfe10c60205260408120549091907f9f2df0fed2c77648de5860a4cc508cd0818c85b8b8a1ab4ceeef8d981c8956a69060ff166200052f5780835260036020526040832082845260205260408320600160ff1982541617905560008051602062003620833981519152339380a460019056fe6080604052600436101561001257600080fd5b60003560e01c8062fdd58e146102d657806301ffc9a7146102d15780630ad5b98c146102cc5780630e89341c146102c757806318d308d0146102c2578063198596b5146102bd5780631b1da1af146102b857806320fa6e06146102b3578063248a9ca3146102ae5780632d88af4a146102a95780632eb2c2d6146102a45780632f2ff15d1461029f57806336568abe1461029a5780633f4ba83a146102955780634e1273f4146102905780635c975abb1461028b5780636b5e796b146102865780636d720c06146102815780638456cb591461027c57806389a302711461027757806391d14854146102725780639fd0506d1461026d578063a02ff68514610268578063a217fddf14610263578063a22cb4651461025e578063a4b32de814610259578063a52ba4e814610254578063adacd4871461024f578063aeedb3791461024a578063b25d2d0714610245578063b62100af14610240578063bc197c811461023b578063bd456f5c14610236578063bf59d29b14610231578063d1a81a8d1461022c578063d539139314610227578063d547741f14610222578063ddd9d0451461021d578063e63ab1e914610218578063e985e9c514610213578063f23a6e611461020e578063f242432a14610209578063f61ebc36146102045763ff6e708c146101ff57600080fd5b611da6565b611d61565b611cdf565b611cbb565b611c14565b611bd9565b611ac7565b611a88565b611a4d565b6119a2565b61194f565b6118ea565b6118c6565b611833565b611617565b611501565b611499565b6113f3565b6113b8565b6112fc565b6112d6565b6112ba565b61128d565b61123b565b6111f6565b61119c565b611179565b611107565b6110e4565b61102a565b610f7b565b610f34565b610ef5565b610e38565b610b8c565b610b5d565b610816565b610715565b6106da565b6105ef565b6104b0565b610417565b61037f565b610320565b600435906001600160a01b03821682036102f157565b600080fd5b602435906001600160a01b03821682036102f157565b35906001600160a01b03821682036102f157565b346102f15760403660031901126102f157602061036461033e6102db565b6024356000526000835260406000209060018060a01b0316600052602052604060002090565b54604051908152f35b6001600160e01b03198116036102f157565b346102f15760203660031901126102f157602060043561039e8161036d565b6001600160e01b031916636cdb3d1360e11b81148015610407575b80156103f7575b809181156103d5575b50506040519015158152f35b637965db0b60e01b14915081156103ef575b5038806103c9565b9050386103e7565b506301ffc9a760e01b81146103c0565b506303a24d0760e21b81146103b9565b346102f15760003660031901126102f1576040517f00000000000000000000000000000000000000000000000000000000000000006001600160a01b03168152602090f35b919082519283825260005b848110610488575050826000602080949584010152601f8019910116010190565b602081830181015184830182015201610467565b9060206104ad92818152019061045c565b90565b346102f1576020806003193601126102f1576040519060009060025460019181831c928083169283156105ac575b8285108414610598578487526020870193908115610579575060011461051f575b61051b8661050f81880382610c9e565b6040519182918261049c565b0390f35b6002600090815294509192917f405787fa12a823e0f2b7631cc41b3ba8828b3321ca811111fa75cd3aa3bb5ace5b838610610568575050509101905061050f8261051b386104ff565b80548587015294820194810161054d565b60ff1916845250505090151560051b01905061050f8261051b386104ff565b634e487b7160e01b86526022600452602486fd5b93607f16936104de565b60809060031901126102f1576001600160a01b039060043582811681036102f1579160243590811681036102f157906044359060643590565b346102f1576105fd366105b6565b909291610608611dee565b610610612ae5565b6000848152602081815260408083206001600160a01b038716845290915290208290541061069e5761068f7fa7f01abbf5b7ec7bac7fb74feb5c1f54af9e430f18a33681c1b9149875339a4591610671610668612546565b8588848961229b565b6040519384526001600160a01b039081169416929081906020820190565b0390a461069c6001600455565b005b60405162461bcd60e51b8152602060048201526014602482015273496e73756666696369656e742062616c616e636560601b6044820152606490fd5b346102f15760003660031901126102f15760206040517fb6f0283bd1ed00c6aa7e988a7516070240f3610a34d167391359b648eb37cefc8152f35b346102f15760403660031901126102f157602435600435610734611e6a565b600091818352600660205261074e60408420541515612c0b565b818352600660205260026040842001548082146107c057817f3180bc850607139589b517b4f1480820c2973c955706dcf81d3a20de03670ddc92600261079e866000526006602052604060002090565b0155604080519283526020830191909152429082015280606081015b0390a280f35b60405162461bcd60e51b815260206004820152602860248201527f4e6577207072696365206d757374206469666665722066726f6d2063757272656044820152676e7420707269636560c01b6064820152608490fd5b346102f15760803660031901126102f1576004356108326102f6565b6044359060643590610842612ae5565b61084a612762565b6040516314a5749d60e31b8082523360048301526001600160a01b037f000000000000000000000000000000000000000000000000000000000000000081169460209493909285826024818a5afa918215610b1e5786926108b391600091610b40575b50612dbd565b6040519081526001600160a01b038516600482015295869060249082905afa948515610b1e57610a4060009261099089610988886109718e6109016109619e8e9a8c91610b23575b50612dfd565b610920610918826000526006602052604060002090565b541515612c0b565b610949610944600361093c846000526006602052604060002090565b015460ff1690565b612e3e565b610954851515612c8d565b8683169d8e331415612e95565b6000526000602052604060002090565b9060018060a01b0316600052602052604060002090565b541015612ee1565b6109ec8a6109e58b6109df6109b38b610971866000526000602052604060002090565b546001600160a01b038c1660009081526007602052604090209094905b90600052602052604060002090565b5461289f565b1115612f2d565b610a076109f9868b612d24565b670de0b6b3a7640000900490565b6040516323b872dd60e01b81523360048201526001600160a01b0388166024820152604481019190915293849283919082906064820190565b03927f0000000000000000000000000000000000000000000000000000000000000000165af1928315610b1e57610aa961068f94610abb937fed79e7d218bfdfe7b0612476b5e4ded4715d3a29544095b7692131998870add097600092610af1575b5050612d37565b8688610ab3612546565b92339061229b565b3360009081526008602052604090208190610ad79088906109d0565b556040805195865260208601919091523394918291820190565b610b109250803d10610b17575b610b088183610c9e565b8101906128d1565b3880610aa2565b503d610afe565b61253a565b610b3a91508b3d8d11610b1757610b088183610c9e565b386108fb565b610b579150843d8611610b1757610b088183610c9e565b386108ad565b346102f15760203660031901126102f15760043560005260036020526020600160406000200154604051908152f35b346102f15760203660031901126102f157610ba56102db565b610bad611ec2565b60ff60055460a81c16610c35576001600160a01b03811690610bfa90610bd483151561271d565b60058054610100600160a81b031916600883901b610100600160a81b0316179055611feb565b506005805460ff60a81b1916600160a81b1790557fd11d57c2c7468878b1035df11c670bcd0091aa840bf8aa166365397622237bea600080a2005b60405162461bcd60e51b815260206004820152601260248201527114185d5cd95c88185b1c9958591e481cd95d60721b6044820152606490fd5b634e487b7160e01b600052604160045260246000fd5b67ffffffffffffffff8111610c9957604052565b610c6f565b90601f8019910116810190811067ffffffffffffffff821117610c9957604052565b6040519060c0820182811067ffffffffffffffff821117610c9957604052565b67ffffffffffffffff8111610c995760051b60200190565b81601f820112156102f157803591610d0f83610ce0565b92610d1d6040519485610c9e565b808452602092838086019260051b8201019283116102f1578301905b828210610d47575050505090565b81358152908301908301610d39565b67ffffffffffffffff8111610c9957601f01601f191660200190565b81601f820112156102f157803590610d8982610d56565b92610d976040519485610c9e565b828452602083830101116102f157816000926020809301838601378301015290565b60a06003198201126102f1576001600160a01b039160043583811681036102f1579260243590811681036102f1579167ffffffffffffffff916044358381116102f15782610e0991600401610cf8565b926064358181116102f15783610e2191600401610cf8565b926084359182116102f1576104ad91600401610d72565b346102f157610e4636610db9565b929091906001600160a01b03858116903382141580610ed1575b610eaa57821615610e915715610e795761069c946122e3565b604051626a0d4560e21b815260006004820152602490fd5b604051632bfa23e760e11b815260006004820152602490fd5b60405163711bec9160e11b81523360048201526001600160a01b0388166024820152604490fd5b50600082815260016020908152604080832033845290915290205460ff1615610e60565b346102f15760403660031901126102f15761069c600435610f146102f6565b90806000526003602052610f2f600160406000200154611fca565b6120b6565b346102f15760403660031901126102f157610f4d6102f6565b336001600160a01b03821603610f695761069c906004356120e2565b60405163334bd91960e11b8152600490fd5b346102f15760003660031901126102f157610f94611f1a565b60055460ff811615610fd35760ff19166005557f5db9ee0a495bf2e6ff9c91a7834c1ba4fdd244a5e8aa4e537bd38aeae4b073aa6020604051338152a1005b604051638dfc202b60e01b8152600490fd5b90815180825260208080930193019160005b828110611005575050505090565b835185529381019392810192600101610ff7565b9060206104ad928181520190610fe5565b346102f15760403660031901126102f15760043567ffffffffffffffff8082116102f157366023830112156102f157816004013561106781610ce0565b926110756040519485610c9e565b81845260209160248386019160051b830101913683116102f157602401905b8282106110cd57856024358681116102f15761051b916110bb6110c1923690600401610cf8565b906121fa565b60405191829182611019565b8380916110d98461030c565b815201910190611094565b346102f15760003660031901126102f157602060ff600554166040519015158152f35b346102f15760403660031901126102f1576001600160a01b036111286102db565b16600052600860205260406000206024356000526020526020604060002054604051908152f35b60609060031901126102f1576004356001600160a01b03811681036102f157906024359060443590565b346102f157602061119261118c3661114f565b916128e6565b6040519015158152f35b346102f15760003660031901126102f1576111b5611f1a565b6111bd612762565b600160ff1960055416176005557f62e78cea01bee320cd4e420270b5ea74000d11b0c9f74754ebdbfc544b05a2586020604051338152a1005b346102f15760003660031901126102f1576040517f00000000000000000000000000000000000000000000000000000000000000006001600160a01b03168152602090f35b346102f15760403660031901126102f157602060ff61128161125b6102f6565b6004356000526003845260406000209060018060a01b0316600052602052604060002090565b54166040519015158152f35b346102f15760003660031901126102f15760055460405160089190911c6001600160a01b03168152602090f35b346102f15760206111926112cd366105b6565b929190916129cd565b346102f15760003660031901126102f157602060405160008152f35b801515036102f157565b346102f15760403660031901126102f1576113156102db565b602435611321816112f2565b6001600160a01b0382169182156113a0578161135f6113709233600052600160205260406000209060018060a01b0316600052602052604060002090565b9060ff801983541691151516179055565b60405190151581527f17307eab39ab6107e8899845ad3d59bd9653f200f220920489ca2b5937696c3160203392a3005b60405162ced3e160e81b815260006004820152602490fd5b346102f15760003660031901126102f15760206040517fb1fadd3142ab2ad7f1337ea4d97112bcc8337fc11ce5b20cb04ad038adf998198152f35b346102f15760203660031901126102f157602460206114106102db565b6040516314a5749d60e31b81526001600160a01b03918216600482015292839182907f0000000000000000000000000000000000000000000000000000000000000000165afa8015610b1e5761051b9160009161147b575b5060405190151581529081906020820190565b611493915060203d8111610b1757610b088183610c9e565b38611468565b346102f15760203660031901126102f157600435600052600660205260c06040600020805490600181015490600281015460ff6003830154169060056004840154930154936040519586526020860152604085015215156060840152608083015260a0820152f35b346102f15760603660031901126102f157602435600435604435611523611f72565b600092828452600660205260408420546115d2577fb82c0453feace24ee6cfe34b821e767fcc527f2dba6c452e541f3e1ead521f0091611564821515612b08565b61156f811515612b63565b6115b461157a610cc0565b8381528360208201528260408201528660608201524260808201528660a08201526115af866000526006602052604060002090565b612bbd565b604080519283526020830191909152429082015280606081016107ba565b60405162461bcd60e51b815260206004820152601a60248201527f41737365742073686172657320616c72656164792065786973740000000000006044820152606490fd5b346102f15760403660031901126102f157600435602435611636612ae5565b61163e612762565b6040516314a5749d60e31b81523360048201526001600160a01b039060209081816024817f000000000000000000000000000000000000000000000000000000000000000087165afa8015610b1e5761169f91600091611816575b50612c4e565b6116b6610918856000526006602052604060002090565b6116c1831515612c8d565b6116e48360016116db876000526006602052604060002090565b01541015612cd8565b60026116fa856000526006602052604060002090565b01546117096109f98286612d24565b6040516323b872dd60e01b815233600482015230602482015260448101829052939092908190859060649082906000907f0000000000000000000000000000000000000000000000000000000000000000165af18015610b1e577f0d098aab4683aec3730d1b27a72fac136f51288c5ffc2586171a08fb568a6b3a9461179792600092610af1575050612d37565b6117b36117a386612d87565b6117ac86612d87565b9033612780565b60016117c9866000526006602052604060002090565b016117d5858254612d7a565b905533600090815260086020526040902081906117f39087906109d0565b556040805194855260208501919091528301523391606090a361069c6001600455565b61182d9150833d8511610b1757610b088183610c9e565b38611699565b346102f15760403660031901126102f157602435600435611853826112f2565b61185b611e6a565b7fb06427d72192ff6da61bdacc300260b0da7a3e456feeb9c376297a9f5bea190760206000938385526006825261189760408620541515612c0b565b838552600682526118ba81600360408820019060ff801983541691151516179055565b6040519015158152a280f35b346102f1576118d436610db9565b5050505050602060405163bc197c8160e01b8152f35b346102f1576118f83661114f565b91611901611dee565b60018060a01b03167f7b0c29e799ed468266b4d070c03070137a95cb869c5eb7c18063fb7b1a7a09c5602060009483865260078252604086208587528252806040872055604051908152a380f35b346102f15760203660031901126102f15760043560005260066020526080604060002080549060018101549060ff6003600283015492015416916040519384526020840152604083015215156060820152f35b346102f15760006040366003190112611a4a576119bd6102db565b81602435916119cb836112f2565b6119d3611dee565b6001600160a01b03907f0000000000000000000000000000000000000000000000000000000000000000821690813b15611a465783604492604051968795869463d1a81a8d60e01b8652166004850152151560248401525af18015610b1e57611a3a575080f35b611a4390610c85565b80f35b8380fd5b80fd5b346102f15760003660031901126102f15760206040517f9f2df0fed2c77648de5860a4cc508cd0818c85b8b8a1ab4ceeef8d981c8956a68152f35b346102f15760403660031901126102f15761069c600435611aa76102f6565b90806000526003602052611ac2600160406000200154611fca565b6120e2565b346102f15760403660031901126102f157611ae06102db565b6024359061051b60008381526006602052604081209080602052611b1984604083209060018060a01b0316600052602052604060002090565b546001600160a01b038516825260076020908152604080842060008981529252902054909181831115611bd35750611b518183612d7a565b915b835495611b916001860154986109d0611b75600360028a015499015460ff1690565b6001600160a01b03909416600090815260086020526040902090565b54946040519889988994919260e0969399989794919961010087019a87526020870152604086015215156060850152608084015260a083015260c08201520152565b91611b53565b346102f15760003660031901126102f15760206040517f65d7a28e3265b37a6474929f336521b332c1681b933f6cb9f3376673440d862a8152f35b346102f15760403660031901126102f157602060ff611281611c346102db565b611c3c6102f6565b6001600160a01b0391821660009081526001865260408082209290931681526020919091522090565b60a06003198201126102f1576001600160a01b039160043583811681036102f1579260243590811681036102f1579160443591606435916084359067ffffffffffffffff82116102f1576104ad91600401610d72565b346102f157611cc936611c65565b5050505050602060405163f23a6e6160e01b8152f35b346102f157611ced36611c65565b929091906001600160a01b038516338114159081611d3b575b50611d145761069c9461229b565b60405163711bec9160e11b81523360048201526001600160a01b0386166024820152604490fd5b6000908152600160209081526040808320338452909152902060ff915054161538611d06565b346102f15760003660031901126102f1576040517f00000000000000000000000000000000000000000000000000000000000000006001600160a01b03168152602090f35b346102f15760403660031901126102f1576001600160a01b03611dc76102db565b16600052600760205260406000206024356000526020526020604060002054604051908152f35b3360009081527ffca98a0144180c5ff9cc8eb43249ff58e5a9edc28ccc383a25775f69580acd20602052604090207fb6f0283bd1ed00c6aa7e988a7516070240f3610a34d167391359b648eb37cefc9060ff905b541615611e4c5750565b6044906040519063e2517d3f60e01b82523360048301526024820152fd5b3360009081527fd4f4ae7e0f1d6ef3e8290f298fbe252931b59dd183524e1af76274726da1e663602052604090207fb1fadd3142ab2ad7f1337ea4d97112bcc8337fc11ce5b20cb04ad038adf998199060ff90611e42565b3360009081527f3617319a054d772f909f7c479a2cebe5066e836a939412e32403c99029b92eff602052604090205460ff1615611efb57565b60405163e2517d3f60e01b815233600482015260006024820152604490fd5b3360009081527f30adeb818ef77f204f5a603c30fa5332397b6e28fb3b7f9d937ae6a6914716de602052604090207f65d7a28e3265b37a6474929f336521b332c1681b933f6cb9f3376673440d862a9060ff90611e42565b3360009081527f5562e70da342db81569f3094d36be279beaca7ad8e08f434ea188e79d2bfe10c602052604090207f9f2df0fed2c77648de5860a4cc508cd0818c85b8b8a1ab4ceeef8d981c8956a69060ff90611e42565b6000818152600360209081526040808320338452909152902060ff90611e42565b6001600160a01b03811660009081527f30adeb818ef77f204f5a603c30fa5332397b6e28fb3b7f9d937ae6a6914716de602052604081207f65d7a28e3265b37a6474929f336521b332c1681b933f6cb9f3376673440d862a9060ff905b54166120b0578082526003602090815260408084206001600160a01b038616600090815292529020805460ff1916600117905533926001600160a01b0316917f2f8788117e7eff1d82e926ec794901d17c78024a50270940304540a733656f0d9080a4600190565b50905090565b600090808252600360205260ff61204884604085209060018060a01b0316600052602052604060002090565b600090808252600360205260ff61210e84604085209060018060a01b0316600052602052604060002090565b5416156120b0578082526003602090815260408084206001600160a01b038616600090815292529020805460ff1916905533926001600160a01b0316917ff6391f5c32d9c69d2a47ea670b442974b53935d1edc7fd64eb21e047a839171b9080a4600190565b9061217e82610ce0565b61218b6040519182610c9e565b828152809261219c601f1991610ce0565b0190602036910137565b634e487b7160e01b600052601160045260246000fd5b60001981146121cb5760010190565b6121a6565b80518210156121e45760209160051b010190565b634e487b7160e01b600052603260045260246000fd5b919091805183518082036122795750506122148151612174565b90600090815b8151811015612271578061225b61226c9260051b85602080808489010151938c010151825252604086209060018060a01b0316600052602052604060002090565b5461226682876121d0565b526121bc565b61221a565b509193505050565b604051635b05999160e01b815260048101919091526024810191909152604490fd5b939291906001600160a01b0380821615610e9157851615610e79576122e194604051926001845260208401526040830193600185526060840152608083016040526122e3565b565b949190916122ef612762565b815184519081810361227957505060005b82518110156123fc57600581901b83810160209081015191870101516001600160a01b03929186908a8516612375575b612343948216612348575b5050506121bc565b612300565b61236b91610971612363926000526000602052604060002090565b91825461289f565b905538858161233b565b91929390506123928a610971846000526000602052604060002090565b548381106123c55791879184612343969594036123bd8d610971856000526000602052604060002090565b559450612330565b6040516303dee4c560e01b81526001600160a01b038c16600482015260248101919091526044810184905260648101839052608490fd5b5094919392909360018551146000146124a7576020858101518382015160408051928352928201526001600160a01b03838116929086169133917fc3d58168c5ae7397731d063d5bbf3d657854427343f4c083240f7aacaa2d0f6291a45b6001600160a01b038116612470575b5050505050565b84516001036124965760208061248c960151920151923361259a565b3880808080612469565b6124a2949192336126e6565b61248c565b6040516001600160a01b03828116919085169033907f4a39dc06d4c0dbc64b70af90fd698a233a518aa5d07e595d983b8c0526c8f7fb90806124ea888c836128ac565b0390a461245a565b908160209103126102f157516104ad8161036d565b91926104ad95949160a094600180871b03809216855216602084015260408301526060820152816080820152019061045c565b6040513d6000823e3d90fd5b604051906020820182811067ffffffffffffffff821117610c995760405260008252565b3d15612595573d9061257b82610d56565b916125896040519384610c9e565b82523d6000602084013e565b606090565b939290949194853b6125af575b505050505050565b6125d2602093604051958694859463f23a6e6160e01b998a875260048701612507565b038160006001600160a01b0388165af160009181612668575b5061262a57826125f961256a565b805191908261262357604051632bfa23e760e11b81526001600160a01b0383166004820152602490fd5b6020915001fd5b6001600160e01b0319160361264557503880808080806125a7565b604051632bfa23e760e11b81526001600160a01b03919091166004820152602490fd5b61268a91925060203d8111612691575b6126828183610c9e565b8101906124f2565b90386125eb565b503d612678565b93906104ad95936126ca916126d89460018060a01b03809216885216602087015260a0604087015260a0860190610fe5565b908482036060860152610fe5565b91608081840391015261045c565b939290949194853b6126fa57505050505050565b6125d2602093604051958694859463bc197c8160e01b998a875260048701612698565b1561272457565b60405162461bcd60e51b8152602060048201526016602482015275496e76616c696420706175736572206164647265737360501b6044820152606490fd5b60ff6005541661276e57565b60405163d93c066560e01b8152600490fd5b91909161278b612762565b825182519081810361227957505060005b83518110156127ff57600581901b84810160209081015191850101516127d5929184906001600160a01b0382166127da575050506121bc565b61279c565b6127f591610971612363926000526000602052604060002090565b905538838161233b565b50916001815114600014612860576020908101519181015160408051938452918301526001600160a01b039092169160009133917fc3d58168c5ae7397731d063d5bbf3d657854427343f4c083240f7aacaa2d0f629190819081015b0390a4565b7f4a39dc06d4c0dbc64b70af90fd698a233a518aa5d07e595d983b8c0526c8f7fb61285b6000939460405191829160018060a01b0316963395836128ac565b919082018092116121cb57565b90916128c36104ad93604084526040840190610fe5565b916020818403910152610fe5565b908160209103126102f157516104ad816112f2565b6040516314a5749d60e31b81526001600160a01b0382166004820152909290602081806024810103817f00000000000000000000000000000000000000000000000000000000000000006001600160a01b03165afa908115610b1e576000916129af575b501580156129a3575b61299b576109df826109d061297986610971612996976000526000602052604060002090565b546001600160a01b03909616600090815260076020526040902090565b111590565b505050600090565b5060055460ff16612953565b6129c7915060203d8111610b1757610b088183610c9e565b3861294a565b6040516314a5749d60e31b8082526001600160a01b03838116600484015292959390927f00000000000000000000000000000000000000000000000000000000000000001691602091908281602481875afa908115610b1e57600091612ac8575b5015928315612a6a575b50505080915090156129a35761299b576109df826109d061297986610971612996976000526000602052604060002090565b6040519485526001600160a01b03919091166004850152909291508290829060249082905afa918215610b1e57600092612aab575b50501580388080612a38565b612ac19250803d10610b1757610b088183610c9e565b3880612a9f565b612adf9150833d8511610b1757610b088183610c9e565b38612a2e565b600260045414612af6576002600455565b604051633ee5aeb560e01b8152600490fd5b15612b0f57565b60405162461bcd60e51b815260206004820152602660248201527f546f74616c20737570706c79206d7573742062652067726561746572207468616044820152656e207a65726f60d01b6064820152608490fd5b15612b6a57565b60405162461bcd60e51b815260206004820152602560248201527f5368617265207072696365206d7573742062652067726561746572207468616e604482015264207a65726f60d81b6064820152608490fd5b9060a0600591805184556020810151600185015560408101516002850155612bfa60608201511515600386019060ff801983541691151516179055565b608081015160048501550151910155565b15612c1257565b60405162461bcd60e51b8152602060048201526014602482015273105cdcd95d08191bd95cc81b9bdd08195e1a5cdd60621b6044820152606490fd5b15612c5557565b60405162461bcd60e51b815260206004820152601060248201526f155cd95c881b9bdd08185b1b1bddd95960821b6044820152606490fd5b15612c9457565b606460405162461bcd60e51b815260206004820152602060248201527f416d6f756e74206d7573742062652067726561746572207468616e207a65726f6044820152fd5b15612cdf57565b60405162461bcd60e51b815260206004820152601d60248201527f496e73756666696369656e7420617661696c61626c6520737570706c790000006044820152606490fd5b818102929181159184041417156121cb57565b15612d3e57565b60405162461bcd60e51b81526020600482015260146024820152731554d110c81d1c985b9cd9995c8819985a5b195960621b6044820152606490fd5b919082039182116121cb57565b604051906040820182811067ffffffffffffffff821117610c9957604052600182526020820160203682378251156121e4575290565b15612dc457565b60405162461bcd60e51b8152602060048201526011602482015270109d5e595c881b9bdd08185b1b1bddd959607a1b6044820152606490fd5b15612e0457565b60405162461bcd60e51b815260206004820152601260248201527114d95b1b195c881b9bdd08185b1b1bddd95960721b6044820152606490fd5b15612e4557565b60405162461bcd60e51b815260206004820152602260248201527f54726164696e67206e6f7420656e61626c656420666f72207468697320617373604482015261195d60f21b6064820152608490fd5b15612e9c57565b60405162461bcd60e51b815260206004820152601a60248201527f43616e6e6f74207472616465207769746820796f757273656c660000000000006044820152606490fd5b15612ee857565b60405162461bcd60e51b815260206004820152601f60248201527f53656c6c65722068617320696e73756666696369656e742062616c616e6365006044820152606490fd5b15612f3457565b60405162461bcd60e51b815260206004820152601d60248201527f496e73756666696369656e7420756e66726f7a656e2062616c616e63650000006044820152606490fdfea264697066735822122057585e37bd58428b6561e6b8cdc6c90a0491c1afe989d0025b1e0dd3032ecd7264736f6c634300081400332f8788117e7eff1d82e926ec794901d17c78024a50270940304540a733656f0d",
  "linkReferences": {},
  "deployedLinkReferences": {}
}