{
  "_format": "hh-sol-artifact-1",
  "contractName": "OracleRouter",
  "sourceName": "contracts/periphery/OracleRouter.sol",
  "abi": [
    {
      "inputs": [
        {
          "internalType": "address",
          "name": "_ethUsdFeed",
          "type": "address"
        },
        {
          "internalType": "address",
          "name": "_gbpUsdFeed",
          "type": "address"
        },
        {
          "internalType": "address",
          "name": "_goldUsdFeed",
          "type": "address"
        },
        {
          "internalType": "address",
          "name": "_ftse100Feed",
          "type": "address"
        }
      ],
      "stateMutability": "nonpayable",
      "type": "constructor"
    },
    {
      "inputs": [],
      "name": "ethUsdFeed",
      "outputs": [
        {
          "internalType": "contract AggregatorV3Interface",
          "name": "",
          "type": "address"
        }
      ],
      "stateMutability": "view",
      "type": "function"
    },
    {
      "inputs": [],
      "name": "ftse100Feed",
      "outputs": [
        {
          "internalType": "contract AggregatorV3Interface",
          "name": "",
          "type": "address"
        }
      ],
      "stateMutability": "view",
      "type": "function"
    },
    {
      "inputs": [],
      "name": "gbpUsdFeed",
      "outputs": [
        {
          "internalType": "contract AggregatorV3Interface",
          "name": "",
          "type": "address"
        }
      ],
      "stateMutability": "view",
      "type": "function"
    },
    {
      "inputs": [],
      "name": "getEthUsdPrice",
      "outputs": [
        {
          "internalType": "int256",
          "name": "price",
          "type": "int256"
        },
        {
          "internalType": "uint256",
          "name": "updatedAt",
          "type": "uint256"
        }
      ],
      "stateMutability": "view",
      "type": "function"
    },
    {
      "inputs": [],
      "name": "getFtse100Value",
      "outputs": [
        {
          "internalType": "int256",
          "name": "value",
          "type": "int256"
        },
        {
          "internalType": "uint256",
          "name": "updatedAt",
          "type": "uint256"
        }
      ],
      "stateMutability": "view",
      "type": "function"
    },
    {
      "inputs": [],
      "name": "getGbpUsdPrice",
      "outputs": [
        {
          "internalType": "int256",
          "name": "price",
          "type": "int256"
        },
        {
          "internalType": "uint256",
          "name": "updatedAt",
          "type": "uint256"
        }
      ],
      "stateMutability": "view",
      "type": "function"
    },
    {
      "inputs": [],
      "name": "getGoldUsdPrice",
      "outputs": [
        {
          "internalType": "int256",
          "name": "price",
          "type": "int256"
        },
        {
          "internalType": "uint256",
          "name": "updatedAt",
          "type": "uint256"
        }
      ],
      "stateMutability": "view",
      "type": "function"
    },
    {
      "inputs": [],
      "name": "goldUsdFeed",
      "outputs": [
        {
          "internalType": "contract AggregatorV3Interface",
          "name": "",
          "type": "address"
        }
      ],
      "stateMutability": "view",
      "type": "function"
    }
  ],
  "bytecode": "0x6101003461020757601f61066a38819003918201601f191683019291906001600160401b0384118385101761020c5781608092849260409687528339810103126102075761004c81610222565b61005860208301610222565b916100706060610069868401610222565b9201610222565b6001600160a01b039283169390929084156101c357811691821561017f57811692831561013b57169283156100f75760805260a05260c05260e052516104339081610237823960805181818161014b015261020d015260a0518181816101b40152610255015260c051818181609f0152610299015260e0518181816102dd01526103300152f35b845162461bcd60e51b815260206004820152601560248201527f496e76616c6964204654534520313030206665656400000000000000000000006044820152606490fd5b855162461bcd60e51b815260206004820152601560248201527f496e76616c696420476f6c642f555344206665656400000000000000000000006044820152606490fd5b855162461bcd60e51b815260206004820152601460248201527f496e76616c6964204742502f55534420666565640000000000000000000000006044820152606490fd5b855162461bcd60e51b815260206004820152601460248201527f496e76616c6964204554482f55534420666565640000000000000000000000006044820152606490fd5b600080fd5b634e487b7160e01b600052604160045260246000fd5b51906001600160a01b03821682036102075756fe6080604090808252600436101561001557600080fd5b600090813560e01c90816319036e441461030c57508063453cc13d146102c85780636e601176146102845780637c115883146102405780638009b7bd146101f857806398c506551461018f578063a0a8045e146101265763f23c7ad41461007b57600080fd5b346101235780600319360112610123578151633fabe5a360e21b815260a0816004817f00000000000000000000000000000000000000000000000000000000000000006001600160a01b03165afa9081156101195782916100e4575b5082519182526020820152f35b9050610107915060a03d8111610112575b6100ff8183610374565b8101906103c8565b5092505090386100d7565b503d6100f5565b83513d84823e3d90fd5b80fd5b50346101235780600319360112610123578151633fabe5a360e21b815260a0816004817f00000000000000000000000000000000000000000000000000000000000000006001600160a01b03165afa9081156101195782916100e4575082519182526020820152f35b50346101235780600319360112610123578151633fabe5a360e21b815260a0816004817f00000000000000000000000000000000000000000000000000000000000000006001600160a01b03165afa9081156101195782916100e4575082519182526020820152f35b50903461023c578160031936011261023c57517f00000000000000000000000000000000000000000000000000000000000000006001600160a01b03168152602090f35b5080fd5b50903461023c578160031936011261023c57517f00000000000000000000000000000000000000000000000000000000000000006001600160a01b03168152602090f35b50903461023c578160031936011261023c57517f00000000000000000000000000000000000000000000000000000000000000006001600160a01b03168152602090f35b50903461023c578160031936011261023c57517f00000000000000000000000000000000000000000000000000000000000000006001600160a01b03168152602090f35b90503461023c578160031936011261023c57633fabe5a360e21b815260a0816004817f00000000000000000000000000000000000000000000000000000000000000006001600160a01b03165afa9081156101195782916100e4575082519182526020820152f35b90601f8019910116810190811067ffffffffffffffff82111761039657604052565b634e487b7160e01b600052604160045260246000fd5b519069ffffffffffffffffffff821682036103c357565b600080fd5b908160a09103126103c3576103dc816103ac565b916020820151916040810151916103fa6080606084015193016103ac565b9056fea2646970667358221220fce990f2c9bd102c607ba0eadd913968ac5e6a4daca61fb81fd941223bc15adb64736f6c63430008140033",
  "linkReferences": {},
  "deployedLinkReferences": {}
}