{
  "_format": "hh-sol-artifact-1",
  "contractName": "AssetVaultTestHelper",
  "sourceName": "contracts/mocks/AssetVaultTestHelper.sol",
  "abi": [
    {
      "inputs": [
        {
          "internalType": "address",
          "name": "_userAllowList",
          "type": "address"
        }
      ],
      "stateMutability": "nonpayable",
      "type": "constructor"
    },
    {
      "inputs": [],
      "name": "AccessControlBadConfirmation",
      "type": "error"
    },
    {
      "inputs": [
        {
          "internalType": "address",
          "name": "account",
          "type": "address"
        },
        {
          "internalType": "bytes32",
          "name": "neededRole",
          "type": "bytes32"
        }
      ],
      "name": "AccessControlUnauthorizedAccount",
      "type": "error"
    },
    {
      "inputs": [
        {
          "internalType": "address",
          "name": "sender",
          "type": "address"
        },
        {
          "internalType": "uint256",
          "name": "tokenId",
          "type": "uint256"
        },
        {
          "internalType": "address",
          "name": "owner",
          "type": "address"
        }
      ],
      "name": "ERC721IncorrectOwner",
      "type": "error"
    },
    {
      "inputs": [
        {
          "internalType": "address",
          "name": "operator",
          "type": "address"
        },
        {
          "internalType": "uint256",
          "name": "tokenId",
          "type": "uint256"
        }
      ],
      "name": "ERC721InsufficientApproval",
      "type": "error"
    },
    {
      "inputs": [
        {
          "internalType": "address",
          "name": "approver",
          "type": "address"
        }
      ],
      "name": "ERC721InvalidApprover",
      "type": "error"
    },
    {
      "inputs": [
        {
          "internalType": "address",
          "name": "operator",
          "type": "address"
        }
      ],
      "name": "ERC721InvalidOperator",
      "type": "error"
    },
    {
      "inputs": [
        {
          "internalType": "address",
          "name": "owner",
          "type": "address"
        }
      ],
      "name": "ERC721InvalidOwner",
      "type": "error"
    },
    {
      "inputs": [
        {
          "internalType": "address",
          "name": "receiver",
          "type": "address"
        }
      ],
      "name": "ERC721InvalidReceiver",
      "type": "error"
    },
    {
      "inputs": [
        {
          "internalType": "address",
          "name": "sender",
          "type": "address"
        }
      ],
      "name": "ERC721InvalidSender",
      "type": "error"
    },
    {
      "inputs": [
        {
          "internalType": "uint256",
          "name": "tokenId",
          "type": "uint256"
        }
      ],
      "name": "ERC721NonexistentToken",
      "type": "error"
    },
    {
      "inputs": [],
      "name": "EnforcedPause",
      "type": "error"
    },
    {
      "inputs": [],
      "name": "ExpectedPause",
      "type": "error"
    },
    {
      "inputs": [],
      "name": "ReentrancyGuardReentrantCall",
      "type": "error"
    },
    {
      "anonymous": false,
      "inputs": [
        {
          "indexed": true,
          "internalType": "address",
          "name": "owner",
          "type": "address"
        },
        {
          "indexed": true,
          "internalType": "address",
          "name": "approved",
          "type": "address"
        },
        {
          "indexed": true,
          "internalType": "uint256",
          "name": "tokenId",
          "type": "uint256"
        }
      ],
      "name": "Approval",
      "type": "event"
    },
    {
      "anonymous": false,
      "inputs": [
        {
          "indexed": true,
          "internalType": "address",
          "name": "owner",
          "type": "address"
        },
        {
          "indexed": true,
          "internalType": "address",
          "name": "operator",
          "type": "address"
        },
        {
          "indexed": false,
          "internalType": "bool",
          "name": "approved",
          "type": "bool"
        }
      ],
      "name": "ApprovalForAll",
      "type": "event"
    },
    {
      "anonymous": false,
      "inputs": [
        {
          "indexed": true,
          "internalType": "address",
          "name": "assetShares",
          "type": "address"
        }
      ],
      "name": "AssetSharesSet",
      "type": "event"
    },
    {
      "anonymous": false,
      "inputs": [
        {
          "indexed": true,
          "internalType": "uint256",
          "name": "assetId",
          "type": "uint256"
        },
        {
          "indexed": false,
          "internalType": "enum AssetVault.AssetStatus",
          "name": "oldStatus",
          "type": "uint8"
        },
        {
          "indexed": false,
          "internalType": "enum AssetVault.AssetStatus",
          "name": "newStatus",
          "type": "uint8"
        }
      ],
      "name": "AssetStatusChanged",
      "type": "event"
    },
    {
      "anonymous": false,
      "inputs": [
        {
          "indexed": true,
          "internalType": "uint256",
          "name": "assetId",
          "type": "uint256"
        },
        {
          "indexed": false,
          "internalType": "enum AssetVault.AssetStatus",
          "name": "status",
          "type": "uint8"
        },
        {
          "indexed": false,
          "internalType": "uint256",
          "name": "capitalValue",
          "type": "uint256"
        },
        {
          "indexed": false,
          "internalType": "uint256",
          "name": "incomeValue",
          "type": "uint256"
        },
        {
          "indexed": false,
          "internalType": "uint256",
          "name": "timestamp",
          "type": "uint256"
        }
      ],
      "name": "AssetVaulted",
      "type": "event"
    },
    {
      "anonymous": false,
      "inputs": [
        {
          "indexed": true,
          "internalType": "address",
          "name": "from",
          "type": "address"
        },
        {
          "indexed": true,
          "internalType": "address",
          "name": "to",
          "type": "address"
        },
        {
          "indexed": true,
          "internalType": "uint256",
          "name": "tokenId",
          "type": "uint256"
        }
      ],
      "name": "ForcedTransfer",
      "type": "event"
    },
    {
      "anonymous": false,
      "inputs": [
        {
          "indexed": true,
          "internalType": "address",
          "name": "user",
          "type": "address"
        },
        {
          "indexed": true,
          "internalType": "uint256",
          "name": "tokenId",
          "type": "uint256"
        }
      ],
      "name": "Frozen",
      "type": "event"
    },
    {
      "anonymous": false,
      "inputs": [
        {
          "indexed": false,
          "internalType": "address",
          "name": "account",
          "type": "address"
        }
      ],
      "name": "Paused",
      "type": "event"
    },
    {
      "anonymous": false,
      "inputs": [
        {
          "indexed": true,
          "internalType": "address",
          "name": "pauser",
          "type": "address"
        }
      ],
      "name": "PauserSet",
      "type": "event"
    },
    {
      "anonymous": false,
      "inputs": [
        {
          "indexed": true,
          "internalType": "bytes32",
          "name": "role",
          "type": "bytes32"
        },
        {
          "indexed": true,
          "internalType": "bytes32",
          "name": "previousAdminRole",
          "type": "bytes32"
        },
        {
          "indexed": true,
          "internalType": "bytes32",
          "name": "newAdminRole",
          "type": "bytes32"
        }
      ],
      "name": "RoleAdminChanged",
      "type": "event"
    },
    {
      "anonymous": false,
      "inputs": [
        {
          "indexed": true,
          "internalType": "bytes32",
          "name": "role",
          "type": "bytes32"
        },
        {
          "indexed": true,
          "internalType": "address",
          "name": "account",
          "type": "address"
        },
        {
          "indexed": true,
          "internalType": "address",
          "name": "sender",
          "type": "address"
        }
      ],
      "name": "RoleGranted",
      "type": "event"
    },
    {
      "anonymous": false,
      "inputs": [
        {
          "indexed": true,
          "internalType": "bytes32",
          "name": "role",
          "type": "bytes32"
        },
        {
          "indexed": true,
          "internalType": "address",
          "name": "account",
          "type": "address"
        },
        {
          "indexed": true,
          "internalType": "address",
          "name": "sender",
          "type": "address"
        }
      ],
      "name": "RoleRevoked",
      "type": "event"
    },
    {
      "anonymous": false,
      "inputs": [
        {
          "indexed": true,
          "internalType": "address",
          "name": "from",
          "type": "address"
        },
        {
          "indexed": true,
          "internalType": "address",
          "name": "to",
          "type": "address"
        },
        {
          "indexed": true,
          "internalType": "uint256",
          "name": "tokenId",
          "type": "uint256"
        }
      ],
      "name": "Transfer",
      "type": "event"
    },
    {
      "anonymous": false,
      "inputs": [
        {
          "indexed": false,
          "internalType": "address",
          "name": "account",
          "type": "address"
        }
      ],
      "name": "Unpaused",
      "type": "event"
    },
    {
      "inputs": [],
      "name": "ASSET_MANAGER_ROLE",
      "outputs": [
        {
          "internalType": "bytes32",
          "name": "",
          "type": "bytes32"
        }
      ],
      "stateMutability": "view",
      "type": "function"
    },
    {
      "inputs": [],
      "name": "COMPLIANCE_OFFICER_ROLE",
      "outputs": [
        {
          "internalType": "bytes32",
          "name": "",
          "type": "bytes32"
        }
      ],
      "stateMutability": "view",
      "type": "function"
    },
    {
      "inputs": [],
      "name": "DEFAULT_ADMIN_ROLE",
      "outputs": [
        {
          "internalType": "bytes32",
          "name": "",
          "type": "bytes32"
        }
      ],
      "stateMutability": "view",
      "type": "function"
    },
    {
      "inputs": [],
      "name": "PAUSER_ROLE",
      "outputs": [
        {
          "internalType": "bytes32",
          "name": "",
          "type": "bytes32"
        }
      ],
      "stateMutability": "view",
      "type": "function"
    },
    {
      "inputs": [
        {
          "internalType": "address",
          "name": "to",
          "type": "address"
        },
        {
          "internalType": "uint256",
          "name": "tokenId",
          "type": "uint256"
        }
      ],
      "name": "approve",
      "outputs": [],
      "stateMutability": "nonpayable",
      "type": "function"
    },
    {
      "inputs": [],
      "name": "assetShares",
      "outputs": [
        {
          "internalType": "address",
          "name": "",
          "type": "address"
        }
      ],
      "stateMutability": "view",
      "type": "function"
    },
    {
      "inputs": [
        {
          "internalType": "address",
          "name": "owner",
          "type": "address"
        }
      ],
      "name": "balanceOf",
      "outputs": [
        {
          "internalType": "uint256",
          "name": "",
          "type": "uint256"
        }
      ],
      "stateMutability": "view",
      "type": "function"
    },
    {
      "inputs": [
        {
          "internalType": "address",
          "name": "user",
          "type": "address"
        },
        {
          "internalType": "uint256",
          "name": "tokenId",
          "type": "uint256"
        }
      ],
      "name": "canTransact",
      "outputs": [
        {
          "internalType": "bool",
          "name": "",
          "type": "bool"
        }
      ],
      "stateMutability": "view",
      "type": "function"
    },
    {
      "inputs": [
        {
          "internalType": "address",
          "name": "from",
          "type": "address"
        },
        {
          "internalType": "address",
          "name": "to",
          "type": "address"
        },
        {
          "internalType": "uint256",
          "name": "tokenId",
          "type": "uint256"
        }
      ],
      "name": "canTransfer",
      "outputs": [
        {
          "internalType": "bool",
          "name": "",
          "type": "bool"
        }
      ],
      "stateMutability": "view",
      "type": "function"
    },
    {
      "inputs": [
        {
          "internalType": "enum AssetVault.AssetStatus",
          "name": "status_",
          "type": "uint8"
        },
        {
          "internalType": "uint256",
          "name": "capitalValue_",
          "type": "uint256"
        },
        {
          "internalType": "uint256",
          "name": "incomeValue_",
          "type": "uint256"
        },
        {
          "internalType": "string",
          "name": "metadataURI_",
          "type": "string"
        }
      ],
      "name": "createAsset",
      "outputs": [
        {
          "internalType": "uint256",
          "name": "assetId",
          "type": "uint256"
        }
      ],
      "stateMutability": "nonpayable",
      "type": "function"
    },
    {
      "inputs": [
        {
          "internalType": "address",
          "name": "from",
          "type": "address"
        },
        {
          "internalType": "address",
          "name": "to",
          "type": "address"
        },
        {
          "internalType": "uint256",
          "name": "tokenId",
          "type": "uint256"
        }
      ],
      "name": "forcedTransfer",
      "outputs": [],
      "stateMutability": "nonpayable",
      "type": "function"
    },
    {
      "inputs": [
        {
          "internalType": "uint256[]",
          "name": "assetIds",
          "type": "uint256[]"
        }
      ],
      "name": "getAllAssets",
      "outputs": [
        {
          "components": [
            {
              "internalType": "enum AssetVault.AssetStatus",
              "name": "status",
              "type": "uint8"
            },
            {
              "internalType": "uint256",
              "name": "capitalValue",
              "type": "uint256"
            },
            {
              "internalType": "uint256",
              "name": "incomeValue",
              "type": "uint256"
            },
            {
              "internalType": "string",
              "name": "metadataURI",
              "type": "string"
            },
            {
              "internalType": "uint256",
              "name": "createdAt",
              "type": "uint256"
            },
            {
              "internalType": "uint256",
              "name": "updatedAt",
              "type": "uint256"
            }
          ],
          "internalType": "struct AssetVault.Asset[]",
          "name": "",
          "type": "tuple[]"
        }
      ],
      "stateMutability": "view",
      "type": "function"
    },
    {
      "inputs": [
        {
          "internalType": "uint256",
          "name": "tokenId",
          "type": "uint256"
        }
      ],
      "name": "getApproved",
      "outputs": [
        {
          "internalType": "address",
          "name": "",
          "type": "address"
        }
      ],
      "stateMutability": "view",
      "type": "function"
    },
    {
      "inputs": [
        {
          "internalType": "uint256",
          "name": "assetId",
          "type": "uint256"
        }
      ],
      "name": "getAsset",
      "outputs": [
        {
          "components": [
            {
              "internalType": "enum AssetVault.AssetStatus",
              "name": "status",
              "type": "uint8"
            },
            {
              "internalType": "uint256",
              "name": "capitalValue",
              "type": "uint256"
            },
            {
              "internalType": "uint256",
              "name": "incomeValue",
              "type": "uint256"
            },
            {
              "internalType": "string",
              "name": "metadataURI",
              "type": "string"
            },
            {
              "internalType": "uint256",
              "name": "createdAt",
              "type": "uint256"
            },
            {
              "internalType": "uint256",
              "name": "updatedAt",
              "type": "uint256"
            }
          ],
          "internalType": "struct AssetVault.Asset",
          "name": "",
          "type": "tuple"
        }
      ],
      "stateMutability": "view",
      "type": "function"
    },
    {
      "inputs": [
        {
          "internalType": "bytes32",
          "name": "role",
          "type": "bytes32"
        }
      ],
      "name": "getRoleAdmin",
      "outputs": [
        {
          "internalType": "bytes32",
          "name": "",
          "type": "bytes32"
        }
      ],
      "stateMutability": "view",
      "type": "function"
    },
    {
      "inputs": [
        {
          "internalType": "bytes32",
          "name": "role",
          "type": "bytes32"
        },
        {
          "internalType": "address",
          "name": "account",
          "type": "address"
        }
      ],
      "name": "grantRole",
      "outputs": [],
      "stateMutability": "nonpayable",
      "type": "function"
    },
    {
      "inputs": [
        {
          "internalType": "bytes32",
          "name": "role",
          "type": "bytes32"
        },
        {
          "internalType": "address",
          "name": "account",
          "type": "address"
        }
      ],
      "name": "hasRole",
      "outputs": [
        {
          "internalType": "bool",
          "name": "",
          "type": "bool"
        }
      ],
      "stateMutability": "view",
      "type": "function"
    },
    {
      "inputs": [
        {
          "internalType": "address",
          "name": "owner",
          "type": "address"
        },
        {
          "internalType": "address",
          "name": "operator",
          "type": "address"
        }
      ],
      "name": "isApprovedForAll",
      "outputs": [
        {
          "internalType": "bool",
          "name": "",
          "type": "bool"
        }
      ],
      "stateMutability": "view",
      "type": "function"
    },
    {
      "inputs": [
        {
          "internalType": "uint256",
          "name": "tokenId",
          "type": "uint256"
        }
      ],
      "name": "isFrozen",
      "outputs": [
        {
          "internalType": "bool",
          "name": "",
          "type": "bool"
        }
      ],
      "stateMutability": "view",
      "type": "function"
    },
    {
      "inputs": [
        {
          "internalType": "address",
          "name": "user",
          "type": "address"
        }
      ],
      "name": "isUserAllowed",
      "outputs": [
        {
          "internalType": "bool",
          "name": "",
          "type": "bool"
        }
      ],
      "stateMutability": "view",
      "type": "function"
    },
    {
      "inputs": [],
      "name": "name",
      "outputs": [
        {
          "internalType": "string",
          "name": "",
          "type": "string"
        }
      ],
      "stateMutability": "view",
      "type": "function"
    },
    {
      "inputs": [
        {
          "internalType": "uint256",
          "name": "tokenId",
          "type": "uint256"
        }
      ],
      "name": "ownerOf",
      "outputs": [
        {
          "internalType": "address",
          "name": "",
          "type": "address"
        }
      ],
      "stateMutability": "view",
      "type": "function"
    },
    {
      "inputs": [],
      "name": "pause",
      "outputs": [],
      "stateMutability": "nonpayable",
      "type": "function"
    },
    {
      "inputs": [],
      "name": "paused",
      "outputs": [
        {
          "internalType": "bool",
          "name": "",
          "type": "bool"
        }
      ],
      "stateMutability": "view",
      "type": "function"
    },
    {
      "inputs": [],
      "name": "pauser",
      "outputs": [
        {
          "internalType": "address",
          "name": "",
          "type": "address"
        }
      ],
      "stateMutability": "view",
      "type": "function"
    },
    {
      "inputs": [
        {
          "internalType": "bytes32",
          "name": "role",
          "type": "bytes32"
        },
        {
          "internalType": "address",
          "name": "callerConfirmation",
          "type": "address"
        }
      ],
      "name": "renounceRole",
      "outputs": [],
      "stateMutability": "nonpayable",
      "type": "function"
    },
    {
      "inputs": [
        {
          "internalType": "bytes32",
          "name": "role",
          "type": "bytes32"
        },
        {
          "internalType": "address",
          "name": "account",
          "type": "address"
        }
      ],
      "name": "revokeRole",
      "outputs": [],
      "stateMutability": "nonpayable",
      "type": "function"
    },
    {
      "inputs": [
        {
          "internalType": "address",
          "name": "from",
          "type": "address"
        },
        {
          "internalType": "address",
          "name": "to",
          "type": "address"
        },
        {
          "internalType": "uint256",
          "name": "tokenId",
          "type": "uint256"
        }
      ],
      "name": "safeTransferFrom",
      "outputs": [],
      "stateMutability": "nonpayable",
      "type": "function"
    },
    {
      "inputs": [
        {
          "internalType": "address",
          "name": "from",
          "type": "address"
        },
        {
          "internalType": "address",
          "name": "to",
          "type": "address"
        },
        {
          "internalType": "uint256",
          "name": "tokenId",
          "type": "uint256"
        },
        {
          "internalType": "bytes",
          "name": "data",
          "type": "bytes"
        }
      ],
      "name": "safeTransferFrom",
      "outputs": [],
      "stateMutability": "nonpayable",
      "type": "function"
    },
    {
      "inputs": [
        {
          "internalType": "address",
          "name": "operator",
          "type": "address"
        },
        {
          "internalType": "bool",
          "name": "approved",
          "type": "bool"
        }
      ],
      "name": "setApprovalForAll",
      "outputs": [],
      "stateMutability": "nonpayable",
      "type": "function"
    },
    {
      "inputs": [
        {
          "internalType": "uint256",
          "name": "assetId",
          "type": "uint256"
        },
        {
          "internalType": "enum AssetVault.AssetStatus",
          "name": "status_",
          "type": "uint8"
        },
        {
          "internalType": "uint256",
          "name": "capitalValue_",
          "type": "uint256"
        },
        {
          "internalType": "uint256",
          "name": "incomeValue_",
          "type": "uint256"
        },
        {
          "internalType": "string",
          "name": "metadataURI_",
          "type": "string"
        }
      ],
      "name": "setAssetForTest",
      "outputs": [],
      "stateMutability": "nonpayable",
      "type": "function"
    },
    {
      "inputs": [
        {
          "internalType": "address",
          "name": "_assetShares",
          "type": "address"
        }
      ],
      "name": "setAssetShares",
      "outputs": [],
      "stateMutability": "nonpayable",
      "type": "function"
    },
    {
      "inputs": [
        {
          "internalType": "uint256",
          "name": "tokenId",
          "type": "uint256"
        },
        {
          "internalType": "bool",
          "name": "frozen",
          "type": "bool"
        }
      ],
      "name": "setFrozenToken",
      "outputs": [],
      "stateMutability": "nonpayable",
      "type": "function"
    },
    {
      "inputs": [
        {
          "internalType": "address",
          "name": "_pauser",
          "type": "address"
        }
      ],
      "name": "setPauser",
      "outputs": [],
      "stateMutability": "nonpayable",
      "type": "function"
    },
    {
      "inputs": [
        {
          "internalType": "address",
          "name": "user",
          "type": "address"
        },
        {
          "internalType": "bool",
          "name": "allowed",
          "type": "bool"
        }
      ],
      "name": "setUserAllowed",
      "outputs": [],
      "stateMutability": "nonpayable",
      "type": "function"
    },
    {
      "inputs": [
        {
          "internalType": "bytes4",
          "name": "interfaceId",
          "type": "bytes4"
        }
      ],
      "name": "supportsInterface",
      "outputs": [
        {
          "internalType": "bool",
          "name": "",
          "type": "bool"
        }
      ],
      "stateMutability": "view",
      "type": "function"
    },
    {
      "inputs": [],
      "name": "symbol",
      "outputs": [
        {
          "internalType": "string",
          "name": "",
          "type": "string"
        }
      ],
      "stateMutability": "view",
      "type": "function"
    },
    {
      "inputs": [
        {
          "internalType": "uint256",
          "name": "tokenId",
          "type": "uint256"
        }
      ],
      "name": "tokenURI",
      "outputs": [
        {
          "internalType": "string",
          "name": "",
          "type": "string"
        }
      ],
      "stateMutability": "view",
      "type": "function"
    },
    {
      "inputs": [
        {
          "internalType": "address",
          "name": "from",
          "type": "address"
        },
        {
          "internalType": "address",
          "name": "to",
          "type": "address"
        },
        {
          "internalType": "uint256",
          "name": "tokenId",
          "type": "uint256"
        }
      ],
      "name": "transferFrom",
      "outputs": [],
      "stateMutability": "nonpayable",
      "type": "function"
    },
    {
      "inputs": [],
      "name": "unpause",
      "outputs": [],
      "stateMutability": "nonpayable",
      "type": "function"
    },
    {
      "inputs": [],
      "name": "userAllowList",
      "outputs": [
        {
          "internalType": "contract AssetUserAllowList",
          "name": "",
          "type": "address"
        }
      ],
      "stateMutability": "view",
      "type": "function"
    }
  ],
  "bytecode": "0x60a034620003e057601f19906001600160401b0390601f62002b14388190038281018616840185811185821017620003ca57849282916040528339602093849181010312620003e057516001600160a01b0381169390849003620003e05762000067620003e5565b91600b83526a105cdcd95d0815985d5b1d60aa1b8484015262000089620003e5565b6005815264159055531560da1b858201528351838111620003ca576000908154956001968781811c91168015620003bf575b89821014620003ab5790818684931162000358575b508890868311600114620002f7578492620002eb575b5050600019600383901b1c191690861b1781555b8151938411620002d75784548581811c91168015620002cc575b87821014620002b85783811162000270575b50859284116001146200020f578394959697509262000203575b5050600019600383901b1c191690821b1781555b80600755600a558115620001bf5750608052620001713362000405565b506200017d3362000486565b50620001893362000529565b5060405161252c9081620005c882396080518181816103fb0152818161058801528181611652015281816122aa015261237c0152f35b6064906040519062461bcd60e51b82526004820152601960248201527f496e76616c696420616c6c6f776c6973742061646472657373000000000000006044820152fd5b01519050388062000140565b919096831696848352858320925b8881106200025a575083859697981062000240575b505050811b01815562000154565b015160001960f88460031b161c1916905538808062000232565b818301518455928501929186019186016200021d565b8582528682208480870160051c820192898810620002ae575b0160051c019086905b828110620002a257505062000126565b83815501869062000292565b9250819262000289565b634e487b7160e01b82526022600452602482fd5b90607f169062000114565b634e487b7160e01b81526041600452602490fd5b015190503880620000e6565b908b899416918580528a862092865b8c82821062000341575050841162000327575b505050811b018155620000fa565b015160001960f88460031b161c1916905538808062000319565b8385015186558c9790950194938401930162000306565b9091508380528884208680850160051c8201928b8610620003a1575b918a91869594930160051c01915b82811062000392575050620000d0565b8681558594508a910162000382565b9250819262000374565b634e487b7160e01b84526022600452602484fd5b90607f1690620000bb565b634e487b7160e01b600052604160045260246000fd5b600080fd5b60408051919082016001600160401b03811183821017620003ca57604052565b6001600160a01b031660008181527f54cdd369e4e8a8515e52ca72ec816c2101831ad1f18bf44102ed171459c9b4f8602052604081205490919060ff16620004825781805260066020526040822081835260205260408220600160ff19825416179055339160008051602062002af48339815191528180a4600190565b5090565b6001600160a01b031660008181527f6e891ea7db4d1633822af4f6a64073b5d7597c864a3dccee2ee6b7f25c837bbd60205260408120549091907fb1fadd3142ab2ad7f1337ea4d97112bcc8337fc11ce5b20cb04ad038adf998199060ff16620005245780835260066020526040832082845260205260408320600160ff1982541617905560008051602062002af4833981519152339380a4600190565b505090565b6001600160a01b031660008181527fd1a890bf818afa572802200688a7d376f87d9fcc58c522c6f18adfc2a844329160205260408120549091907fb6f0283bd1ed00c6aa7e988a7516070240f3610a34d167391359b648eb37cefc9060ff16620005245780835260066020526040832082845260205260408320600160ff1982541617905560008051602062002af4833981519152339380a460019056fe608080604052600436101561001357600080fd5b600090813560e01c90816301ffc9a7146118455750806306fdde03146117a1578063081812fc14611764578063095ea7b3146116815780630ad5b98c1461163c57806311a84e73146115be578063198596b51461158357806323b872dd1461156b578063248a9ca31461153e57806328f5bc6a146114325780632d88af4a1461131f5780632f2ff15d146112e157806336568abe146112995780633f4ba83a1461122e57806342842e0e146112065780635c975abb146111e35780635d7ec37d14610efc5780636352211e14610ecb57806370a0823114610e7357806379d07a8a14610c6b5780638456cb5914610c1057806391d1485414610bc75780639318603a14610a2157806395d89b411461093e5780639fc1d0e71461074a5780639fd0506d14610721578063a0894799146106f2578063a217fddf146106d6578063a22cb4651461062d578063a4b32de8146105f2578063a52ba4e814610546578063b88d4fde146104e2578063c87b56dd1461048f578063d1a81a8d146103c4578063d547741f14610382578063d5c03cc91461035a578063e1ff0f8714610330578063e46638e61461030c578063e63ab1e9146102d1578063e985e9c51461027d5763eac8f5b8146101e457600080fd5b3461027a57602036600319011261027a57604061027691610203612483565b506004358152600b6020522060056040519161021e83611a30565b61022c60ff82541684612477565b600181015460208401526002810154604084015261024c60038201611e64565b606084015260048101546080840152015460a08201526040519182916020835260208301906119e1565b0390f35b80fd5b503461027a57604036600319011261027a5761029761191b565b60406102a1611936565b9260018060a01b0380931681526005602052209116600052602052602060ff604060002054166040519015158152f35b503461027a578060031936011261027a5760206040517f65d7a28e3265b37a6474929f336521b332c1681b933f6cb9f3376673440d862a8152f35b503461027a5760206103266103203661195b565b91612354565b6040519015158152f35b503461027a578060031936011261027a5760088054604051911c6001600160a01b03168152602090f35b503461027a57604036600319011261027a57602061032661037961191b565b60243590612281565b503461027a57604036600319011261027a576103c06004356103a2611936565b9080845260066020526103bb6001604086200154611c5f565b611db3565b5080f35b503461027a57604036600319011261027a576103de61191b565b816103e761194c565b916103f0611af3565b6001600160a01b03907f0000000000000000000000000000000000000000000000000000000000000000821690813b1561048b5783604492604051968795869463d1a81a8d60e01b8652166004850152151560248401525af1801561048057610457575080f35b67ffffffffffffffff811161046c5760405280f35b634e487b7160e01b82526041600452602482fd5b6040513d84823e3d90fd5b8380fd5b503461027a57602036600319011261027a57610276906104b0600435612210565b50806040516104be81611a62565b52604051906104cc82611a62565b81526040519182916020835260208301906118db565b503461027a57608036600319011261027a576104fc61191b565b610504611936565b6064359167ffffffffffffffff831161048b573660238401121561048b57610539610543933690602481600401359101611abc565b91604435916120bb565b80f35b503461027a57602036600319011261027a576024602061056461191b565b6040516314a5749d60e31b81526001600160a01b03918216600482015292839182907f0000000000000000000000000000000000000000000000000000000000000000165afa90811561048057602092916105c5575b506040519015158152f35b6105e59150823d81116105eb575b6105dd8183611a7e565b810190612269565b386105ba565b503d6105d3565b503461027a578060031936011261027a5760206040517fb1fadd3142ab2ad7f1337ea4d97112bcc8337fc11ce5b20cb04ad038adf998198152f35b503461027a57604036600319011261027a5761064761191b565b61064f61194c565b6001600160a01b039091169081156106bd5733835260056020526040832082845260205261068c81604085209060ff801983541691151516179055565b60405190151581527f17307eab39ab6107e8899845ad3d59bd9653f200f220920489ca2b5937696c3160203392a380f35b604051630b61174360e31b815260048101839052602490fd5b503461027a578060031936011261027a57602090604051908152f35b503461027a57602036600319011261027a5760ff60406020926004358152600c84522054166040519015158152f35b503461027a578060031936011261027a576009546040516001600160a01b039091168152602090f35b503461027a576107593661195b565b91610762611af3565b60026007541461092c57600260075561077a83612210565b6001600160a01b0392838316929184168390036108e75783169283156108ce576107a261224b565b848652600260205260408620541680158015610899575b84875260036020526040872060018154019055858752600260205260408720856bffffffffffffffffffffffff60a01b8254161790558585837fddf252ad1be2c89b69c2b068fc378daa952ba7f163c4a11628f55a4df523b3ef8a80a41561083457604051637e27328960e01b815260048101869052602490fd5b8281036108695750507f7b3ce50c216d2ccf9919c6b9f1bfb33f0350a33010f188750b4af38e004481388480a4600160075580f35b6040516364283d7b60e01b81526001600160a01b0392831660048201526024810186905291166044820152606490fd5b600086815260046020526040902080546001600160a01b031916905581875260036020526040872080546000190190556107b9565b604051633250574960e11b815260048101879052602490fd5b60405162461bcd60e51b815260206004820152601760248201527f546f6b656e206e6f74206f776e65642062792066726f6d0000000000000000006044820152606490fd5b604051633ee5aeb560e01b8152600490fd5b503461027a578060031936011261027a576040519080600180549161096283611e2a565b808652928281169081156109f7575060011461099d575b6102768561098981870382611a7e565b6040519182916020835260208301906118db565b92508083527fb10e2d527612073b26eecdfd717e6a320cf44b4afac2b0732d9fcbe2b7fa0cf65b8284106109df57505050810160200161098982610276610979565b805460208587018101919091529093019281016109c4565b8695506102769693506020925061098994915060ff191682840152151560051b8201019293610979565b503461027a57602080600319360112610bc35760043567ffffffffffffffff9283821161027a573660238301121561027a57816004013593841161027a576024600594368282881b86010111610bbf57610a7a816124b4565b93610a886040519586611a7e565b818552601f19610a97836124b4565b0186855b828110610ba957505050835b828110610b0c57505050506040519280840190808552835180925280604083818801981b870101940192955b828710610ae05785850386f35b909192938280610afc600193603f198a820301865288516119e1565b9601920196019592919092610ad3565b8381891b830101358552600b8752604085208860405191610b2c83611a30565b610b3a60ff82541684612477565b60018101548a84015260028101546040840152610b5960038201611e64565b606084015260048101546080840152015460a0820152610b7982886124cc565b52610b8481876124cc565b506000198114610b9657600101610aa7565b634e487b7160e01b855260116004528385fd5b610bb1612483565b82828a010152018790610a9b565b8280fd5b5080fd5b503461027a57604036600319011261027a5760ff6040602092610be8611936565b6004358252600685528282206001600160a01b03909116825284522054604051911615158152f35b503461027a578060031936011261027a57610c29611ba7565b610c3161224b565b600160ff1960085416176008557f62e78cea01bee320cd4e420270b5ea74000d11b0c9f74754ebdbfc544b05a2586020604051338152a180f35b503461027a5760a036600319011261027a5760243590600482101561027a5767ffffffffffffffff91608435838111610bbf57610cac903690600401611990565b610cb4611c03565b610cca60405193610cc485611a30565b84612477565b602090610cea828501936044358552604086019260643584523691611abc565b9060608501918252608085019242845260a08601948786526004358852600b82526040882096516004811015610e5f5760ff801989541691161787555191600192838801555160028701556003860192518051988911610e4b57610d4e8454611e2a565b601f8111610e05575b5081601f8a11600114610da057509780928192899a6005999a94610d95575b50501b916000199060031b1c19161790555b5160048401555191015580f35b015192503880610d76565b909891601f19831699858a52828a20928a905b8c8210610dee575050836005999a9b10610dd5575b505050811b019055610d88565b015160001960f88460031b161c19169055388080610dc8565b808785968294968601518155019501930190610db3565b848952828920601f8b0160051c810191848c10610e41575b601f0160051c019084905b828110610e36575050610d57565b8a8155018490610e28565b9091508190610e1d565b634e487b7160e01b88526041600452602488fd5b634e487b7160e01b89526021600452602489fd5b503461027a57602036600319011261027a576001600160a01b03610e9561191b565b168015610eb2578160409160209352600383522054604051908152f35b6040516322718ad960e21b815260048101839052602490fd5b503461027a57602036600319011261027a576020610eea600435612210565b6040516001600160a01b039091168152f35b503461027a57608036600319011261027a5760048035101561027a5760643567ffffffffffffffff8111610bc357610f38903690600401611990565b610f40611c03565b610f4b368284611abc565b6020815191012091828452600d60205260408420546111a757610fb090600a549360018501600a558552600d60205283604086205560405192610f8d84611a30565b610f9960043585612477565b602435602085015260443560408501523691611abc565b60608201524260808201528260a0820152818352600b6020526040832090805160048110156111935760ff801984541691161782556020810151600183015560408101516002830155606081015180519067ffffffffffffffff821161117f5761101d6003850154611e2a565b601f811161113b575b50946020958691601f84116001146110cb579260059492819260a095926110c0575b50508160011b916000199060031b1c19161760038501555b608081015160048501550151910155807f6d6ee7df9000ab7132faa3536cb39e9b6f061b2fb0480f34b3b382864165972560806040516110a2816004356119be565b602435868201526044356040820152426060820152a2604051908152f35b015190503880611048565b9190600386018352878320925b601f19851681106111245750926005949260019260a09583601f1981161061110b575b505050811b016003850155611060565b015160001960f88460031b161c191690553880806110fb565b9192886001819286850151815501940192016110d8565b60038501875260208720601f840160051c810160208510611178575b601f830160051c8201811061116d575050611026565b888155600101611157565b5080611157565b634e487b7160e01b86526041600452602486fd5b634e487b7160e01b85526021600452602485fd5b60405162461bcd60e51b8152602060048201526014602482015273417373657420616c72656164792065786973747360601b6044820152606490fd5b503461027a578060031936011261027a57602060ff600854166040519015158152f35b503461027a576105436112183661195b565b906040519261122684611a62565b8584526120bb565b503461027a578060031936011261027a57611247611ba7565b60085460ff8116156112875760ff19166008557f5db9ee0a495bf2e6ff9c91a7834c1ba4fdd244a5e8aa4e537bd38aeae4b073aa6020604051338152a180f35b604051638dfc202b60e01b8152600490fd5b503461027a57604036600319011261027a576112b3611936565b336001600160a01b038216036112cf576103c090600435611db3565b60405163334bd91960e11b8152600490fd5b503461027a57604036600319011261027a576103c0600435611301611936565b90808452600660205261131a6001604086200154611c5f565b611d38565b503461027a57602036600319011261027a5761133961191b565b611341611b6d565b60095460ff8160a01c166113f8576001600160a01b0382169182156113ba578261137f926bffffffffffffffffffffffff60a01b1617600955611c85565b506009805460ff60a01b1916600160a01b1790557fd11d57c2c7468878b1035df11c670bcd0091aa840bf8aa166365397622237bea8280a280f35b60405162461bcd60e51b8152602060048201526016602482015275496e76616c696420706175736572206164647265737360501b6044820152606490fd5b60405162461bcd60e51b815260206004820152601260248201527114185d5cd95c88185b1c9958591e481cd95d60721b6044820152606490fd5b503461027a57602036600319011261027a5761144c61191b565b611454611b6d565b6008549060ff8260a81c166114f9576001600160a01b0381169182156114be57610100600160b01b031916600891821b610100600160a81b031617600160a81b1790557fc25eecbda7b7f176285751ccb7a783ac11a7b5ca5d3365d0467246a564e188e18280a280f35b60405162461bcd60e51b815260206004820152601360248201527224b73b30b634b21039b430b932903a37b5b2b760691b6044820152606490fd5b60405162461bcd60e51b815260206004820152601760248201527f417373657453686172657320616c7265616479207365740000000000000000006044820152606490fd5b503461027a57602036600319011261027a5760016040602092600435815260068452200154604051908152f35b503461027a5761054361157d3661195b565b91611f0a565b503461027a578060031936011261027a5760206040517fb6f0283bd1ed00c6aa7e988a7516070240f3610a34d167391359b648eb37cefc8152f35b503461027a57604036600319011261027a576004356116036115de61194c565b6115e6611af3565b828452600c602052604084209060ff801983541691151516179055565b6001600160a01b0361161482612210565b167f68e0d8c112165d0949ce87205b719ed7d98c7401866c34a159f7c67c6f5620e78380a380f35b503461027a578060031936011261027a576040517f00000000000000000000000000000000000000000000000000000000000000006001600160a01b03168152602090f35b503461027a57604036600319011261027a5761169b61191b565b6024356116a781612210565b33151580611751575b80611726575b61170e576001600160a01b039283169282918491167f8c5be1e5ebec7d5bd14f71427d1e84f3dd0314c0f7b2291e5b200ac8c7c3b9258680a4825260046020526040822080546001600160a01b031916909117905580f35b60405163a9fbf51f60e01b8152336004820152602490fd5b506001600160a01b038116845260056020908152604080862033875290915284205460ff16156116b6565b506001600160a01b0381163314156116b0565b503461027a57602036600319011261027a5760209060043561178581612210565b50815260048252604060018060a01b0391205416604051908152f35b503461027a578060031936011261027a57604051908080546117c281611e2a565b808552916001918083169081156109f757506001146117eb576102768561098981870382611a7e565b80809450527f290decd9548b62a8d60345a988386fc84ba6bc95484008f6362f93160ef3e5635b82841061182d57505050810160200161098982610276610979565b80546020858701810191909152909301928101611812565b905034610bc3576020366003190112610bc35760043563ffffffff60e01b8116809103610bbf57602092506380ac58cd60e01b811480156118cb575b80156118bb575b80918115611899575b505015158152f35b637965db0b60e01b14915081156118b3575b503880611891565b9050386118ab565b506301ffc9a760e01b8114611888565b50635b5e139f60e01b8114611881565b919082519283825260005b848110611907575050826000602080949584010152601f8019910116010190565b6020818301810151848301820152016118e6565b600435906001600160a01b038216820361193157565b600080fd5b602435906001600160a01b038216820361193157565b60243590811515820361193157565b6060906003190112611931576001600160a01b0390600435828116810361193157916024359081168103611931579060443590565b9181601f840112156119315782359167ffffffffffffffff8311611931576020838186019501011161193157565b9060048210156119cb5752565b634e487b7160e01b600052602160045260246000fd5b906119ed8183516119be565b602082015160208201526040820151604082015260a080611a1d606085015160c0606086015260c08501906118db565b9360808101516080850152015191015290565b60c0810190811067ffffffffffffffff821117611a4c57604052565b634e487b7160e01b600052604160045260246000fd5b6020810190811067ffffffffffffffff821117611a4c57604052565b90601f8019910116810190811067ffffffffffffffff821117611a4c57604052565b67ffffffffffffffff8111611a4c57601f01601f191660200190565b929192611ac882611aa0565b91611ad66040519384611a7e565b829481845281830111611931578281602093846000960137010152565b3360009081527fd1a890bf818afa572802200688a7d376f87d9fcc58c522c6f18adfc2a844329160205260409020547fb6f0283bd1ed00c6aa7e988a7516070240f3610a34d167391359b648eb37cefc9060ff1615611b4f5750565b6044906040519063e2517d3f60e01b82523360048301526024820152fd5b3360009081527f54cdd369e4e8a8515e52ca72ec816c2101831ad1f18bf44102ed171459c9b4f8602052604081205460ff1615611b4f5750565b3360009081527fe09f975e15f8f53f24cbbc282b13c40b84df485fcdb8d3997fa103dc5a4ef84160205260409020547f65d7a28e3265b37a6474929f336521b332c1681b933f6cb9f3376673440d862a9060ff1615611b4f5750565b3360009081527f6e891ea7db4d1633822af4f6a64073b5d7597c864a3dccee2ee6b7f25c837bbd60205260409020547fb1fadd3142ab2ad7f1337ea4d97112bcc8337fc11ce5b20cb04ad038adf998199060ff1615611b4f5750565b80600052600660205260406000203360005260205260ff6040600020541615611b4f5750565b6001600160a01b031660008181527fe09f975e15f8f53f24cbbc282b13c40b84df485fcdb8d3997fa103dc5a4ef84160205260408120549091907f65d7a28e3265b37a6474929f336521b332c1681b933f6cb9f3376673440d862a9060ff16611d335780835260066020526040832082845260205260408320600160ff198254161790557f2f8788117e7eff1d82e926ec794901d17c78024a50270940304540a733656f0d339380a4600190565b505090565b906000918083526006602052604083209160018060a01b03169182845260205260ff60408420541615600014611d335780835260066020526040832082845260205260408320600160ff198254161790557f2f8788117e7eff1d82e926ec794901d17c78024a50270940304540a733656f0d339380a4600190565b906000918083526006602052604083209160018060a01b03169182845260205260ff604084205416600014611d33578083526006602052604083208284526020526040832060ff1981541690557ff6391f5c32d9c69d2a47ea670b442974b53935d1edc7fd64eb21e047a839171b339380a4600190565b90600182811c92168015611e5a575b6020831014611e4457565b634e487b7160e01b600052602260045260246000fd5b91607f1691611e39565b9060405191826000825492611e7884611e2a565b908184526001948581169081600014611ee75750600114611ea4575b5050611ea292500383611a7e565b565b9093915060005260209081600020936000915b818310611ecf575050611ea293508201013880611e94565b85548884018501529485019487945091830191611eb7565b915050611ea294506020925060ff191682840152151560051b8201013880611e94565b906001600160a01b0390811680156120a257611f2461224b565b60009184835284602092600284526040938385872054169586913315158061200c575b509060027fddf252ad1be2c89b69c2b068fc378daa952ba7f163c4a11628f55a4df523b3ef9284611fd9575b85835260038152888320805460010190558683525286812080546001600160a01b0319168517905580a483168203611fab5750505050565b516364283d7b60e01b81526001600160a01b0392831660048201526024810193909352166044820152606490fd5b600087815260046020526040902080546001600160a01b0319169055848352600381528883208054600019019055611f73565b91939450915080612061575b1561202857879291869138611f47565b848887612045576024915190637e27328960e01b82526004820152fd5b604491519063177e802f60e01b82523360048301526024820152fd5b503386148015612086575b806120185750878252600481523384868420541614612018565b5085825260058152848220338352815260ff858320541661206c565b604051633250574960e11b815260006004820152602490fd5b9290926120c9838583611f0a565b833b6120d6575b50505050565b604051630a85bd0160e11b8082523360048301526001600160a01b03928316602483015260448201949094526080606482015294931692602092909185906121229060848301906118db565b039483816000978189895af18691816121cc575b50612197575050503d60001461218e573d61215081611aa0565b9061215e6040519283611a7e565b81528093823d92013e5b8251928361218957604051633250574960e11b815260048101849052602490fd5b019050fd5b60609250612168565b919450915063ffffffff60e01b16036121b45750388080806120d0565b60249060405190633250574960e11b82526004820152fd5b9091508481813d8311612209575b6121e48183611a7e565b8101031261220557516001600160e01b031981168103612205579038612136565b8680fd5b503d6121da565b6000818152600260205260409020546001600160a01b0316908115612233575090565b60249060405190637e27328960e01b82526004820152fd5b60ff6008541661225757565b60405163d93c066560e01b8152600490fd5b90816020910312611931575180151581036119315790565b6040516314a5749d60e31b81526001600160a01b039182166004820181905292906020816024817f000000000000000000000000000000000000000000000000000000000000000087165afa9081156123485760009161232a575b5015801561231e575b8015612306575b6122fe576122f990612210565b161490565b505050600090565b5080600052600c60205260ff604060002054166122ec565b5060ff600854166122e5565b612342915060203d81116105eb576105dd8183611a7e565b386122dc565b6040513d6000823e3d90fd5b6040516314a5749d60e31b8082526001600160a01b03928316600483018190529492936020927f00000000000000000000000000000000000000000000000000000000000000008616929091908483602481875afa801561234857879360009161245a575b5015938415612409575b505050509081156123fc575b81156123e4575b506122fe576122f990612210565b600c9150826000525260ff60406000205416386123d6565b60085460ff1691506123cf565b8593945090602491604051958694859384521660048301525afa9081156123485760009161243d575b5015833880806123c3565b6124549150823d84116105eb576105dd8183611a7e565b38612432565b6124719150863d88116105eb576105dd8183611a7e565b386123b9565b60048210156119cb5752565b6040519061249082611a30565b600060a0838281528260208201528260408201526060808201528260808201520152565b67ffffffffffffffff8111611a4c5760051b60200190565b80518210156124e05760209160051b010190565b634e487b7160e01b600052603260045260246000fdfea2646970667358221220eb5b4c899b20d2ba564bffd3c04f096b7467cade766c4a64d90d0d5631e5463364736f6c634300081400332f8788117e7eff1d82e926ec794901d17c78024a50270940304540a733656f0d",
  "linkReferences": {},
  "deployedLinkReferences": {}
}