{
  "_format": "hh-sol-artifact-1",
  "contractName": "AssetVaultTestHelper",
  "sourceName": "contracts/mocks/AssetVaultTestHelper.sol",
  "abi": [
    {
      "inputs": [
        {
          "internalType": "address",
          "name": "_userAllowList",
          "type": "address"
        }
      ],
      "stateMutability": "nonpayable",
      "type": "constructor"
    },
    {
      "inputs": [],
      "name": "AccessControlBadConfirmation",
      "type": "error"
    },
    {
      "inputs": [
        {
          "internalType": "address",
          "name": "account",
          "type": "address"
        },
        {
          "internalType": "bytes32",
          "name": "neededRole",
          "type": "bytes32"
        }
      ],
      "name": "AccessControlUnauthorizedAccount",
      "type": "error"
    },
    {
      "inputs": [
        {
          "internalType": "address",
          "name": "sender",
          "type": "address"
        },
        {
          "internalType": "uint256",
          "name": "tokenId",
          "type": "uint256"
        },
        {
          "internalType": "address",
          "name": "owner",
          "type": "address"
        }
      ],
      "name": "ERC721IncorrectOwner",
      "type": "error"
    },
    {
      "inputs": [
        {
          "internalType": "address",
          "name": "operator",
          "type": "address"
        },
        {
          "internalType": "uint256",
          "name": "tokenId",
          "type": "uint256"
        }
      ],
      "name": "ERC721InsufficientApproval",
      "type": "error"
    },
    {
      "inputs": [
        {
          "internalType": "address",
          "name": "approver",
          "type": "address"
        }
      ],
      "name": "ERC721InvalidApprover",
      "type": "error"
    },
    {
      "inputs": [
        {
          "internalType": "address",
          "name": "operator",
          "type": "address"
        }
      ],
      "name": "ERC721InvalidOperator",
      "type": "error"
    },
    {
      "inputs": [
        {
          "internalType": "address",
          "name": "owner",
          "type": "address"
        }
      ],
      "name": "ERC721InvalidOwner",
      "type": "error"
    },
    {
      "inputs": [
        {
          "internalType": "address",
          "name": "receiver",
          "type": "address"
        }
      ],
      "name": "ERC721InvalidReceiver",
      "type": "error"
    },
    {
      "inputs": [
        {
          "internalType": "address",
          "name": "sender",
          "type": "address"
        }
      ],
      "name": "ERC721InvalidSender",
      "type": "error"
    },
    {
      "inputs": [
        {
          "internalType": "uint256",
          "name": "tokenId",
          "type": "uint256"
        }
      ],
      "name": "ERC721NonexistentToken",
      "type": "error"
    },
    {
      "inputs": [],
      "name": "EnforcedPause",
      "type": "error"
    },
    {
      "inputs": [],
      "name": "ExpectedPause",
      "type": "error"
    },
    {
      "inputs": [],
      "name": "ReentrancyGuardReentrantCall",
      "type": "error"
    },
    {
      "anonymous": false,
      "inputs": [
        {
          "indexed": true,
          "internalType": "address",
          "name": "owner",
          "type": "address"
        },
        {
          "indexed": true,
          "internalType": "address",
          "name": "approved",
          "type": "address"
        },
        {
          "indexed": true,
          "internalType": "uint256",
          "name": "tokenId",
          "type": "uint256"
        }
      ],
      "name": "Approval",
      "type": "event"
    },
    {
      "anonymous": false,
      "inputs": [
        {
          "indexed": true,
          "internalType": "address",
          "name": "owner",
          "type": "address"
        },
        {
          "indexed": true,
          "internalType": "address",
          "name": "operator",
          "type": "address"
        },
        {
          "indexed": false,
          "internalType": "bool",
          "name": "approved",
          "type": "bool"
        }
      ],
      "name": "ApprovalForAll",
      "type": "event"
    },
    {
      "anonymous": false,
      "inputs": [
        {
          "indexed": true,
          "internalType": "address",
          "name": "assetShares",
          "type": "address"
        }
      ],
      "name": "AssetSharesSet",
      "type": "event"
    },
    {
      "anonymous": false,
      "inputs": [
        {
          "indexed": true,
          "internalType": "uint256",
          "name": "assetId",
          "type": "uint256"
        },
        {
          "indexed": false,
          "internalType": "enum AssetVault.AssetStatus",
          "name": "oldStatus",
          "type": "uint8"
        },
        {
          "indexed": false,
          "internalType": "enum AssetVault.AssetStatus",
          "name": "newStatus",
          "type": "uint8"
        }
      ],
      "name": "AssetStatusChanged",
      "type": "event"
    },
    {
      "anonymous": false,
      "inputs": [
        {
          "indexed": true,
          "internalType": "uint256",
          "name": "assetId",
          "type": "uint256"
        },
        {
          "indexed": false,
          "internalType": "enum AssetVault.AssetStatus",
          "name": "status",
          "type": "uint8"
        },
        {
          "indexed": false,
          "internalType": "uint256",
          "name": "capitalValue",
          "type": "uint256"
        },
        {
          "indexed": false,
          "internalType": "uint256",
          "name": "incomeValue",
          "type": "uint256"
        },
        {
          "indexed": false,
          "internalType": "uint256",
          "name": "timestamp",
          "type": "uint256"
        }
      ],
      "name": "AssetVaulted",
      "type": "event"
    },
    {
      "anonymous": false,
      "inputs": [
        {
          "indexed": true,
          "internalType": "address",
          "name": "from",
          "type": "address"
        },
        {
          "indexed": true,
          "internalType": "address",
          "name": "to",
          "type": "address"
        },
        {
          "indexed": true,
          "internalType": "uint256",
          "name": "tokenId",
          "type": "uint256"
        }
      ],
      "name": "ForcedTransfer",
      "type": "event"
    },
    {
      "anonymous": false,
      "inputs": [
        {
          "indexed": true,
          "internalType": "address",
          "name": "user",
          "type": "address"
        },
        {
          "indexed": true,
          "internalType": "uint256",
          "name": "tokenId",
          "type": "uint256"
        }
      ],
      "name": "Frozen",
      "type": "event"
    },
    {
      "anonymous": false,
      "inputs": [
        {
          "indexed": false,
          "internalType": "address",
          "name": "account",
          "type": "address"
        }
      ],
      "name": "Paused",
      "type": "event"
    },
    {
      "anonymous": false,
      "inputs": [
        {
          "indexed": true,
          "internalType": "address",
          "name": "pauser",
          "type": "address"
        }
      ],
      "name": "PauserSet",
      "type": "event"
    },
    {
      "anonymous": false,
      "inputs": [
        {
          "indexed": true,
          "internalType": "bytes32",
          "name": "role",
          "type": "bytes32"
        },
        {
          "indexed": true,
          "internalType": "bytes32",
          "name": "previousAdminRole",
          "type": "bytes32"
        },
        {
          "indexed": true,
          "internalType": "bytes32",
          "name": "newAdminRole",
          "type": "bytes32"
        }
      ],
      "name": "RoleAdminChanged",
      "type": "event"
    },
    {
      "anonymous": false,
      "inputs": [
        {
          "indexed": true,
          "internalType": "bytes32",
          "name": "role",
          "type": "bytes32"
        },
        {
          "indexed": true,
          "internalType": "address",
          "name": "account",
          "type": "address"
        },
        {
          "indexed": true,
          "internalType": "address",
          "name": "sender",
          "type": "address"
        }
      ],
      "name": "RoleGranted",
      "type": "event"
    },
    {
      "anonymous": false,
      "inputs": [
        {
          "indexed": true,
          "internalType": "bytes32",
          "name": "role",
          "type": "bytes32"
        },
        {
          "indexed": true,
          "internalType": "address",
          "name": "account",
          "type": "address"
        },
        {
          "indexed": true,
          "internalType": "address",
          "name": "sender",
          "type": "address"
        }
      ],
      "name": "RoleRevoked",
      "type": "event"
    },
    {
      "anonymous": false,
      "inputs": [
        {
          "indexed": true,
          "internalType": "address",
          "name": "from",
          "type": "address"
        },
        {
          "indexed": true,
          "internalType": "address",
          "name": "to",
          "type": "address"
        },
        {
          "indexed": true,
          "internalType": "uint256",
          "name": "tokenId",
          "type": "uint256"
        }
      ],
      "name": "Transfer",
      "type": "event"
    },
    {
      "anonymous": false,
      "inputs": [
        {
          "indexed": false,
          "internalType": "address",
          "name": "account",
          "type": "address"
        }
      ],
      "name": "Unpaused",
      "type": "event"
    },
    {
      "inputs": [],
      "name": "ASSET_MANAGER_ROLE",
      "outputs": [
        {
          "internalType": "bytes32",
          "name": "",
          "type": "bytes32"
        }
      ],
      "stateMutability": "view",
      "type": "function"
    },
    {
      "inputs": [],
      "name": "COMPLIANCE_OFFICER_ROLE",
      "outputs": [
        {
          "internalType": "bytes32",
          "name": "",
          "type": "bytes32"
        }
      ],
      "stateMutability": "view",
      "type": "function"
    },
    {
      "inputs": [],
      "name": "DEFAULT_ADMIN_ROLE",
      "outputs": [
        {
          "internalType": "bytes32",
          "name": "",
          "type": "bytes32"
        }
      ],
      "stateMutability": "view",
      "type": "function"
    },
    {
      "inputs": [],
      "name": "PAUSER_ROLE",
      "outputs": [
        {
          "internalType": "bytes32",
          "name": "",
          "type": "bytes32"
        }
      ],
      "stateMutability": "view",
      "type": "function"
    },
    {
      "inputs": [
        {
          "internalType": "address",
          "name": "to",
          "type": "address"
        },
        {
          "internalType": "uint256",
          "name": "tokenId",
          "type": "uint256"
        }
      ],
      "name": "approve",
      "outputs": [],
      "stateMutability": "nonpayable",
      "type": "function"
    },
    {
      "inputs": [],
      "name": "assetShares",
      "outputs": [
        {
          "internalType": "address",
          "name": "",
          "type": "address"
        }
      ],
      "stateMutability": "view",
      "type": "function"
    },
    {
      "inputs": [
        {
          "internalType": "address",
          "name": "owner",
          "type": "address"
        }
      ],
      "name": "balanceOf",
      "outputs": [
        {
          "internalType": "uint256",
          "name": "",
          "type": "uint256"
        }
      ],
      "stateMutability": "view",
      "type": "function"
    },
    {
      "inputs": [
        {
          "internalType": "address",
          "name": "user",
          "type": "address"
        },
        {
          "internalType": "uint256",
          "name": "tokenId",
          "type": "uint256"
        }
      ],
      "name": "canTransact",
      "outputs": [
        {
          "internalType": "bool",
          "name": "",
          "type": "bool"
        }
      ],
      "stateMutability": "view",
      "type": "function"
    },
    {
      "inputs": [
        {
          "internalType": "address",
          "name": "from",
          "type": "address"
        },
        {
          "internalType": "address",
          "name": "to",
          "type": "address"
        },
        {
          "internalType": "uint256",
          "name": "tokenId",
          "type": "uint256"
        }
      ],
      "name": "canTransfer",
      "outputs": [
        {
          "internalType": "bool",
          "name": "",
          "type": "bool"
        }
      ],
      "stateMutability": "view",
      "type": "function"
    },
    {
      "inputs": [
        {
          "internalType": "uint256",
          "name": "assetId",
          "type": "uint256"
        },
        {
          "internalType": "enum AssetVault.AssetStatus",
          "name": "status_",
          "type": "uint8"
        },
        {
          "internalType": "uint256",
          "name": "capitalValue_",
          "type": "uint256"
        },
        {
          "internalType": "uint256",
          "name": "incomeValue_",
          "type": "uint256"
        },
        {
          "internalType": "string",
          "name": "metadataURI_",
          "type": "string"
        }
      ],
      "name": "createAsset",
      "outputs": [],
      "stateMutability": "nonpayable",
      "type": "function"
    },
    {
      "inputs": [
        {
          "internalType": "address",
          "name": "from",
          "type": "address"
        },
        {
          "internalType": "address",
          "name": "to",
          "type": "address"
        },
        {
          "internalType": "uint256",
          "name": "tokenId",
          "type": "uint256"
        }
      ],
      "name": "forcedTransfer",
      "outputs": [],
      "stateMutability": "nonpayable",
      "type": "function"
    },
    {
      "inputs": [
        {
          "internalType": "uint256[]",
          "name": "assetIds",
          "type": "uint256[]"
        }
      ],
      "name": "getAllAssets",
      "outputs": [
        {
          "components": [
            {
              "internalType": "enum AssetVault.AssetStatus",
              "name": "status",
              "type": "uint8"
            },
            {
              "internalType": "uint256",
              "name": "capitalValue",
              "type": "uint256"
            },
            {
              "internalType": "uint256",
              "name": "incomeValue",
              "type": "uint256"
            },
            {
              "internalType": "string",
              "name": "metadataURI",
              "type": "string"
            },
            {
              "internalType": "uint256",
              "name": "createdAt",
              "type": "uint256"
            },
            {
              "internalType": "uint256",
              "name": "updatedAt",
              "type": "uint256"
            }
          ],
          "internalType": "struct AssetVault.Asset[]",
          "name": "",
          "type": "tuple[]"
        }
      ],
      "stateMutability": "view",
      "type": "function"
    },
    {
      "inputs": [
        {
          "internalType": "uint256",
          "name": "tokenId",
          "type": "uint256"
        }
      ],
      "name": "getApproved",
      "outputs": [
        {
          "internalType": "address",
          "name": "",
          "type": "address"
        }
      ],
      "stateMutability": "view",
      "type": "function"
    },
    {
      "inputs": [
        {
          "internalType": "uint256",
          "name": "assetId",
          "type": "uint256"
        }
      ],
      "name": "getAsset",
      "outputs": [
        {
          "components": [
            {
              "internalType": "enum AssetVault.AssetStatus",
              "name": "status",
              "type": "uint8"
            },
            {
              "internalType": "uint256",
              "name": "capitalValue",
              "type": "uint256"
            },
            {
              "internalType": "uint256",
              "name": "incomeValue",
              "type": "uint256"
            },
            {
              "internalType": "string",
              "name": "metadataURI",
              "type": "string"
            },
            {
              "internalType": "uint256",
              "name": "createdAt",
              "type": "uint256"
            },
            {
              "internalType": "uint256",
              "name": "updatedAt",
              "type": "uint256"
            }
          ],
          "internalType": "struct AssetVault.Asset",
          "name": "",
          "type": "tuple"
        }
      ],
      "stateMutability": "view",
      "type": "function"
    },
    {
      "inputs": [
        {
          "internalType": "bytes32",
          "name": "role",
          "type": "bytes32"
        }
      ],
      "name": "getRoleAdmin",
      "outputs": [
        {
          "internalType": "bytes32",
          "name": "",
          "type": "bytes32"
        }
      ],
      "stateMutability": "view",
      "type": "function"
    },
    {
      "inputs": [
        {
          "internalType": "bytes32",
          "name": "role",
          "type": "bytes32"
        },
        {
          "internalType": "address",
          "name": "account",
          "type": "address"
        }
      ],
      "name": "grantRole",
      "outputs": [],
      "stateMutability": "nonpayable",
      "type": "function"
    },
    {
      "inputs": [
        {
          "internalType": "bytes32",
          "name": "role",
          "type": "bytes32"
        },
        {
          "internalType": "address",
          "name": "account",
          "type": "address"
        }
      ],
      "name": "hasRole",
      "outputs": [
        {
          "internalType": "bool",
          "name": "",
          "type": "bool"
        }
      ],
      "stateMutability": "view",
      "type": "function"
    },
    {
      "inputs": [
        {
          "internalType": "address",
          "name": "owner",
          "type": "address"
        },
        {
          "internalType": "address",
          "name": "operator",
          "type": "address"
        }
      ],
      "name": "isApprovedForAll",
      "outputs": [
        {
          "internalType": "bool",
          "name": "",
          "type": "bool"
        }
      ],
      "stateMutability": "view",
      "type": "function"
    },
    {
      "inputs": [
        {
          "internalType": "uint256",
          "name": "tokenId",
          "type": "uint256"
        }
      ],
      "name": "isFrozen",
      "outputs": [
        {
          "internalType": "bool",
          "name": "",
          "type": "bool"
        }
      ],
      "stateMutability": "view",
      "type": "function"
    },
    {
      "inputs": [
        {
          "internalType": "address",
          "name": "user",
          "type": "address"
        }
      ],
      "name": "isUserAllowed",
      "outputs": [
        {
          "internalType": "bool",
          "name": "",
          "type": "bool"
        }
      ],
      "stateMutability": "view",
      "type": "function"
    },
    {
      "inputs": [],
      "name": "name",
      "outputs": [
        {
          "internalType": "string",
          "name": "",
          "type": "string"
        }
      ],
      "stateMutability": "view",
      "type": "function"
    },
    {
      "inputs": [
        {
          "internalType": "uint256",
          "name": "tokenId",
          "type": "uint256"
        }
      ],
      "name": "ownerOf",
      "outputs": [
        {
          "internalType": "address",
          "name": "",
          "type": "address"
        }
      ],
      "stateMutability": "view",
      "type": "function"
    },
    {
      "inputs": [],
      "name": "pause",
      "outputs": [],
      "stateMutability": "nonpayable",
      "type": "function"
    },
    {
      "inputs": [],
      "name": "paused",
      "outputs": [
        {
          "internalType": "bool",
          "name": "",
          "type": "bool"
        }
      ],
      "stateMutability": "view",
      "type": "function"
    },
    {
      "inputs": [],
      "name": "pauser",
      "outputs": [
        {
          "internalType": "address",
          "name": "",
          "type": "address"
        }
      ],
      "stateMutability": "view",
      "type": "function"
    },
    {
      "inputs": [
        {
          "internalType": "bytes32",
          "name": "role",
          "type": "bytes32"
        },
        {
          "internalType": "address",
          "name": "callerConfirmation",
          "type": "address"
        }
      ],
      "name": "renounceRole",
      "outputs": [],
      "stateMutability": "nonpayable",
      "type": "function"
    },
    {
      "inputs": [
        {
          "internalType": "bytes32",
          "name": "role",
          "type": "bytes32"
        },
        {
          "internalType": "address",
          "name": "account",
          "type": "address"
        }
      ],
      "name": "revokeRole",
      "outputs": [],
      "stateMutability": "nonpayable",
      "type": "function"
    },
    {
      "inputs": [
        {
          "internalType": "address",
          "name": "from",
          "type": "address"
        },
        {
          "internalType": "address",
          "name": "to",
          "type": "address"
        },
        {
          "internalType": "uint256",
          "name": "tokenId",
          "type": "uint256"
        }
      ],
      "name": "safeTransferFrom",
      "outputs": [],
      "stateMutability": "nonpayable",
      "type": "function"
    },
    {
      "inputs": [
        {
          "internalType": "address",
          "name": "from",
          "type": "address"
        },
        {
          "internalType": "address",
          "name": "to",
          "type": "address"
        },
        {
          "internalType": "uint256",
          "name": "tokenId",
          "type": "uint256"
        },
        {
          "internalType": "bytes",
          "name": "data",
          "type": "bytes"
        }
      ],
      "name": "safeTransferFrom",
      "outputs": [],
      "stateMutability": "nonpayable",
      "type": "function"
    },
    {
      "inputs": [
        {
          "internalType": "address",
          "name": "operator",
          "type": "address"
        },
        {
          "internalType": "bool",
          "name": "approved",
          "type": "bool"
        }
      ],
      "name": "setApprovalForAll",
      "outputs": [],
      "stateMutability": "nonpayable",
      "type": "function"
    },
    {
      "inputs": [
        {
          "internalType": "uint256",
          "name": "assetId",
          "type": "uint256"
        },
        {
          "internalType": "enum AssetVault.AssetStatus",
          "name": "status_",
          "type": "uint8"
        },
        {
          "internalType": "uint256",
          "name": "capitalValue_",
          "type": "uint256"
        },
        {
          "internalType": "uint256",
          "name": "incomeValue_",
          "type": "uint256"
        },
        {
          "internalType": "string",
          "name": "metadataURI_",
          "type": "string"
        }
      ],
      "name": "setAssetForTest",
      "outputs": [],
      "stateMutability": "nonpayable",
      "type": "function"
    },
    {
      "inputs": [
        {
          "internalType": "address",
          "name": "_assetShares",
          "type": "address"
        }
      ],
      "name": "setAssetShares",
      "outputs": [],
      "stateMutability": "nonpayable",
      "type": "function"
    },
    {
      "inputs": [
        {
          "internalType": "uint256",
          "name": "tokenId",
          "type": "uint256"
        },
        {
          "internalType": "bool",
          "name": "frozen",
          "type": "bool"
        }
      ],
      "name": "setFrozenToken",
      "outputs": [],
      "stateMutability": "nonpayable",
      "type": "function"
    },
    {
      "inputs": [
        {
          "internalType": "address",
          "name": "_pauser",
          "type": "address"
        }
      ],
      "name": "setPauser",
      "outputs": [],
      "stateMutability": "nonpayable",
      "type": "function"
    },
    {
      "inputs": [
        {
          "internalType": "address",
          "name": "user",
          "type": "address"
        },
        {
          "internalType": "bool",
          "name": "allowed",
          "type": "bool"
        }
      ],
      "name": "setUserAllowed",
      "outputs": [],
      "stateMutability": "nonpayable",
      "type": "function"
    },
    {
      "inputs": [
        {
          "internalType": "bytes4",
          "name": "interfaceId",
          "type": "bytes4"
        }
      ],
      "name": "supportsInterface",
      "outputs": [
        {
          "internalType": "bool",
          "name": "",
          "type": "bool"
        }
      ],
      "stateMutability": "view",
      "type": "function"
    },
    {
      "inputs": [],
      "name": "symbol",
      "outputs": [
        {
          "internalType": "string",
          "name": "",
          "type": "string"
        }
      ],
      "stateMutability": "view",
      "type": "function"
    },
    {
      "inputs": [
        {
          "internalType": "uint256",
          "name": "tokenId",
          "type": "uint256"
        }
      ],
      "name": "tokenURI",
      "outputs": [
        {
          "internalType": "string",
          "name": "",
          "type": "string"
        }
      ],
      "stateMutability": "view",
      "type": "function"
    },
    {
      "inputs": [
        {
          "internalType": "address",
          "name": "from",
          "type": "address"
        },
        {
          "internalType": "address",
          "name": "to",
          "type": "address"
        },
        {
          "internalType": "uint256",
          "name": "tokenId",
          "type": "uint256"
        }
      ],
      "name": "transferFrom",
      "outputs": [],
      "stateMutability": "nonpayable",
      "type": "function"
    },
    {
      "inputs": [],
      "name": "unpause",
      "outputs": [],
      "stateMutability": "nonpayable",
      "type": "function"
    },
    {
      "inputs": [],
      "name": "userAllowList",
      "outputs": [
        {
          "internalType": "contract AssetUserAllowList",
          "name": "",
          "type": "address"
        }
      ],
      "stateMutability": "view",
      "type": "function"
    }
  ],
  "bytecode": "0x60a06040526001600a553480156200001657600080fd5b5060405162002c5438038062002c5483398101604081905262000039916200022f565b806040518060400160405280600b81526020016a105cdcd95d0815985d5b1d60aa1b81525060405180604001604052806005815260200164159055531560da1b81525081600090816200008d919062000306565b5060016200009c828262000306565b50506001600755506001600160a01b038116620000ff5760405162461bcd60e51b815260206004820152601960248201527f496e76616c696420616c6c6f776c697374206164647265737300000000000000604482015260640160405180910390fd5b6001600160a01b038116608052620001196000336200017c565b50620001467fb1fadd3142ab2ad7f1337ea4d97112bcc8337fc11ce5b20cb04ad038adf99819336200017c565b50620001737fb6f0283bd1ed00c6aa7e988a7516070240f3610a34d167391359b648eb37cefc336200017c565b505050620003d2565b60008281526006602090815260408083206001600160a01b038516845290915281205460ff16620002255760008381526006602090815260408083206001600160a01b03861684529091529020805460ff19166001179055620001dc3390565b6001600160a01b0316826001600160a01b0316847f2f8788117e7eff1d82e926ec794901d17c78024a50270940304540a733656f0d60405160405180910390a450600162000229565b5060005b92915050565b6000602082840312156200024257600080fd5b81516001600160a01b03811681146200025a57600080fd5b9392505050565b634e487b7160e01b600052604160045260246000fd5b600181811c908216806200028c57607f821691505b602082108103620002ad57634e487b7160e01b600052602260045260246000fd5b50919050565b601f8211156200030157600081815260208120601f850160051c81016020861015620002dc5750805b601f850160051c820191505b81811015620002fd57828155600101620002e8565b5050505b505050565b81516001600160401b0381111562000322576200032262000261565b6200033a8162000333845462000277565b84620002b3565b602080601f831160018114620003725760008415620003595750858301515b600019600386901b1c1916600185901b178555620002fd565b600085815260208120601f198616915b82811015620003a35788860151825594840194600190910190840162000382565b5085821015620003c25787850151600019600388901b60f8161c191681555b5050505050600190811b01905550565b60805161284362000411600039600081816102da0152818161110c01528181611245015281816112ed015281816113d4015261146701526128436000f3fe608060405234801561001057600080fd5b50600436106102535760003560e01c80638456cb5911610146578063a52ba4e8116100c3578063d5c03cc911610087578063d5c03cc914610553578063e1ff0f8714610566578063e46638e61461057e578063e63ab1e914610591578063e985e9c5146105a6578063eac8f5b8146105b957600080fd5b8063a52ba4e8146104f4578063b88d4fde14610507578063c87b56dd1461051a578063d1a81a8d1461052d578063d547741f1461054057600080fd5b80639fd0506d1161010a5780639fd0506d1461047c578063a08947991461048f578063a217fddf146104b2578063a22cb465146104ba578063a4b32de8146104cd57600080fd5b80638456cb591461042657806391d148541461042e5780639318603a1461044157806395d89b41146104615780639fc1d0e71461046957600080fd5b80632d88af4a116101d457806346dd52721161019857806346dd5272146103cf5780635c975abb146103e25780636352211e146103ed57806370a082311461040057806379d07a8a1461041357600080fd5b80632d88af4a1461037b5780632f2ff15d1461038e57806336568abe146103a15780633f4ba83a146103b457806342842e0e146103bc57600080fd5b806311a84e731161021b57806311a84e73146102fc578063198596b51461030f57806323b872dd14610332578063248a9ca31461034557806328f5bc6a1461036857600080fd5b806301ffc9a71461025857806306fdde0314610280578063081812fc14610295578063095ea7b3146102c05780630ad5b98c146102d5575b600080fd5b61026b610266366004612078565b6105d9565b60405190151581526020015b60405180910390f35b6102886105f9565b60405161027791906120e5565b6102a86102a33660046120f8565b61068b565b6040516001600160a01b039091168152602001610277565b6102d36102ce36600461212d565b6106b4565b005b6102a87f000000000000000000000000000000000000000000000000000000000000000081565b6102d361030a366004612165565b6106c3565b6103246000805160206127ce83398151915281565b604051908152602001610277565b6102d3610340366004612195565b61073d565b6103246103533660046120f8565b60009081526006602052604090206001015490565b6102d36103763660046121d1565b6107cd565b6102d36103893660046121d1565b6108e2565b6102d361039c3660046121ec565b610a0a565b6102d36103af3660046121ec565b610a2f565b6102d3610a67565b6102d36103ca366004612195565b610a8a565b6102d36103dd366004612218565b610aa5565b60085460ff1661026b565b6102a86103fb3660046120f8565b610c4f565b61032461040e3660046121d1565b610c5a565b6102d3610421366004612218565b610ca2565b6102d3610db7565b61026b61043c3660046121ec565b610dd7565b61045461044f3660046122bd565b610e02565b60405161027791906123c4565b610288610ff1565b6102d3610477366004612195565b611000565b6009546102a8906001600160a01b031681565b61026b61049d3660046120f8565b6000908152600c602052604090205460ff1690565b610324600081565b6102d36104c8366004612426565b6110df565b6103247fb1fadd3142ab2ad7f1337ea4d97112bcc8337fc11ce5b20cb04ad038adf9981981565b61026b6105023660046121d1565b6110ea565b6102d3610515366004612468565b611179565b6102886105283660046120f8565b611191565b6102d361053b366004612426565b611206565b6102d361054e3660046121ec565b6112a6565b61026b61056136600461212d565b6112cb565b6008546102a89061010090046001600160a01b031681565b61026b61058c366004612195565b6113b2565b6103246000805160206127ee83398151915281565b61026b6105b4366004612544565b61152c565b6105cc6105c73660046120f8565b61155a565b604051610277919061256e565b60006105e48261169b565b806105f357506105f3826116eb565b92915050565b60606000805461060890612581565b80601f016020809104026020016040519081016040528092919081815260200182805461063490612581565b80156106815780601f1061065657610100808354040283529160200191610681565b820191906000526020600020905b81548152906001019060200180831161066457829003601f168201915b5050505050905090565b600061069682611710565b506000828152600460205260409020546001600160a01b03166105f3565b6106bf828233611749565b5050565b6000805160206127ce8339815191526106db81611756565b6000838152600c60205260408120805460ff19168415151790556106fe84610c4f565b905083816001600160a01b03167f68e0d8c112165d0949ce87205b719ed7d98c7401866c34a159f7c67c6f5620e760405160405180910390a350505050565b6001600160a01b03821661076c57604051633250574960e11b8152600060048201526024015b60405180910390fd5b6000610779838333611760565b9050836001600160a01b0316816001600160a01b0316146107c7576040516364283d7b60e01b81526001600160a01b0380861660048301526024820184905282166044820152606401610763565b50505050565b60006107d881611756565b600854600160a81b900460ff16156108325760405162461bcd60e51b815260206004820152601760248201527f417373657453686172657320616c7265616479207365740000000000000000006044820152606401610763565b6001600160a01b03821661087e5760405162461bcd60e51b815260206004820152601360248201527224b73b30b634b21039b430b932903a37b5b2b760691b6044820152606401610763565b6008805460ff60a81b196001600160a01b038516610100810291909116610100600160b01b031990921691909117600160a81b179091556040517fc25eecbda7b7f176285751ccb7a783ac11a7b5ca5d3365d0467246a564e188e190600090a25050565b60006108ed81611756565b600954600160a01b900460ff161561093c5760405162461bcd60e51b815260206004820152601260248201527114185d5cd95c88185b1c9958591e481cd95d60721b6044820152606401610763565b6001600160a01b03821661098b5760405162461bcd60e51b8152602060048201526016602482015275496e76616c696420706175736572206164647265737360501b6044820152606401610763565b600980546001600160a01b0319166001600160a01b0384161790556109be6000805160206127ee8339815191528361177d565b506009805460ff60a01b1916600160a01b1790556040516001600160a01b038316907fd11d57c2c7468878b1035df11c670bcd0091aa840bf8aa166365397622237bea90600090a25050565b600082815260066020526040902060010154610a2581611756565b6107c7838361177d565b6001600160a01b0381163314610a585760405163334bd91960e11b815260040160405180910390fd5b610a628282611811565b505050565b6000805160206127ee833981519152610a7f81611756565b610a8761187e565b50565b610a6283838360405180602001604052806000815250611179565b7fb1fadd3142ab2ad7f1337ea4d97112bcc8337fc11ce5b20cb04ad038adf99819610acf81611756565b6000878152600b602052604090206004015415610b255760405162461bcd60e51b8152602060048201526014602482015273417373657420616c72656164792065786973747360601b6044820152606401610763565b6040518060c00160405280876003811115610b4257610b42612332565b815260200186815260200185815260200184848080601f016020809104026020016040519081016040528093929190818152602001838380828437600092018290525093855250504260208085019190915260409384018390528b8352600b9052502081518154829060ff19166001836003811115610bc357610bc3612332565b0217905550602082015160018201556040820151600282015560608201516003820190610bf09082612601565b506080820151816004015560a08201518160050155905050867f6d6ee7df9000ab7132faa3536cb39e9b6f061b2fb0480f34b3b382864165972587878742604051610c3e94939291906126c1565b60405180910390a250505050505050565b60006105f382611710565b60006001600160a01b038216610c86576040516322718ad960e21b815260006004820152602401610763565b506001600160a01b031660009081526003602052604090205490565b7fb1fadd3142ab2ad7f1337ea4d97112bcc8337fc11ce5b20cb04ad038adf99819610ccc81611756565b6040518060c00160405280876003811115610ce957610ce9612332565b815260200186815260200185815260200184848080601f016020809104026020016040519081016040528093929190818152602001838380828437600092018290525093855250504260208085019190915260409384018390528b8352600b9052502081518154829060ff19166001836003811115610d6a57610d6a612332565b0217905550602082015160018201556040820151600282015560608201516003820190610d979082612601565b506080820151600482015560a09091015160059091015550505050505050565b6000805160206127ee833981519152610dcf81611756565b610a876118d0565b60009182526006602090815260408084206001600160a01b0393909316845291905290205460ff1690565b606060008267ffffffffffffffff811115610e1f57610e1f612452565b604051908082528060200260200182016040528015610e8a57816020015b610e776040805160c08101909152806000815260200160008152602001600081526020016060815260200160008152602001600081525090565b815260200190600190039081610e3d5790505b50905060005b83811015610fe957600b6000868684818110610eae57610eae6126ea565b602090810292909201358352508101919091526040908101600020815160c081019092528054829060ff166003811115610eea57610eea612332565b6003811115610efb57610efb612332565b81526020016001820154815260200160028201548152602001600382018054610f2390612581565b80601f0160208091040260200160405190810160405280929190818152602001828054610f4f90612581565b8015610f9c5780601f10610f7157610100808354040283529160200191610f9c565b820191906000526020600020905b815481529060010190602001808311610f7f57829003601f168201915b5050505050815260200160048201548152602001600582015481525050828281518110610fcb57610fcb6126ea565b60200260200101819052508080610fe190612700565b915050610e90565b509392505050565b60606001805461060890612581565b6000805160206127ce83398151915261101881611756565b61102061190d565b836001600160a01b031661103383610c4f565b6001600160a01b0316146110895760405162461bcd60e51b815260206004820152601760248201527f546f6b656e206e6f74206f776e65642062792066726f6d0000000000000000006044820152606401610763565b611094848484611937565b81836001600160a01b0316856001600160a01b03167f7b3ce50c216d2ccf9919c6b9f1bfb33f0350a33010f188750b4af38e0044813860405160405180910390a46107c76001600755565b6106bf3383836119e7565b6040516314a5749d60e31b81526001600160a01b0382811660048301526000917f00000000000000000000000000000000000000000000000000000000000000009091169063a52ba4e890602401602060405180830381865afa158015611155573d6000803e3d6000fd5b505050506040513d601f19601f820116820180604052508101906105f39190612727565b61118484848461073d565b6107c73385858585611a86565b606061119c82611710565b5060006111b460408051602081019091526000815290565b905060008151116111d457604051806020016040528060008152506111ff565b806111de84611bb1565b6040516020016111ef929190612744565b6040516020818303038152906040525b9392505050565b6000805160206127ce83398151915261121e81611756565b60405163d1a81a8d60e01b81526001600160a01b03848116600483015283151560248301527f0000000000000000000000000000000000000000000000000000000000000000169063d1a81a8d90604401600060405180830381600087803b15801561128957600080fd5b505af115801561129d573d6000803e3d6000fd5b50505050505050565b6000828152600660205260409020600101546112c181611756565b6107c78383611811565b6040516314a5749d60e31b81526001600160a01b0383811660048301526000917f00000000000000000000000000000000000000000000000000000000000000009091169063a52ba4e890602401602060405180830381865afa158015611336573d6000803e3d6000fd5b505050506040513d601f19601f8201168201806040525081019061135a9190612727565b1580611368575060085460ff165b8061138157506000828152600c602052604090205460ff165b1561138e575060006105f3565b826001600160a01b03166113a183610c4f565b6001600160a01b0316149392505050565b6040516314a5749d60e31b81526001600160a01b0384811660048301526000917f00000000000000000000000000000000000000000000000000000000000000009091169063a52ba4e890602401602060405180830381865afa15801561141d573d6000803e3d6000fd5b505050506040513d601f19601f820116820180604052508101906114419190612727565b15806114d457506040516314a5749d60e31b81526001600160a01b0384811660048301527f0000000000000000000000000000000000000000000000000000000000000000169063a52ba4e890602401602060405180830381865afa1580156114ae573d6000803e3d6000fd5b505050506040513d601f19601f820116820180604052508101906114d29190612727565b155b806114e1575060085460ff165b806114fa57506000828152600c602052604090205460ff165b15611507575060006111ff565b836001600160a01b031661151a83610c4f565b6001600160a01b031614949350505050565b6001600160a01b03918216600090815260056020908152604080832093909416825291909152205460ff1690565b6115946040805160c08101909152806000815260200160008152602001600081526020016060815260200160008152602001600081525090565b6000828152600b602052604090819020815160c081019092528054829060ff1660038111156115c5576115c5612332565b60038111156115d6576115d6612332565b815260200160018201548152602001600282015481526020016003820180546115fe90612581565b80601f016020809104026020016040519081016040528092919081815260200182805461162a90612581565b80156116775780601f1061164c57610100808354040283529160200191611677565b820191906000526020600020905b81548152906001019060200180831161165a57829003601f168201915b50505050508152602001600482015481526020016005820154815250509050919050565b60006001600160e01b031982166380ac58cd60e01b14806116cc57506001600160e01b03198216635b5e139f60e01b145b806105f357506301ffc9a760e01b6001600160e01b03198316146105f3565b60006001600160e01b03198216637965db0b60e01b14806105f357506105f38261169b565b6000818152600260205260408120546001600160a01b0316806105f357604051637e27328960e01b815260048101849052602401610763565b610a628383836001611c44565b610a878133611d4a565b600061176a611d83565b611775848484611da9565b949350505050565b60006117898383610dd7565b6118095760008381526006602090815260408083206001600160a01b03861684529091529020805460ff191660011790556117c13390565b6001600160a01b0316826001600160a01b0316847f2f8788117e7eff1d82e926ec794901d17c78024a50270940304540a733656f0d60405160405180910390a45060016105f3565b5060006105f3565b600061181d8383610dd7565b156118095760008381526006602090815260408083206001600160a01b0386168085529252808320805460ff1916905551339286917ff6391f5c32d9c69d2a47ea670b442974b53935d1edc7fd64eb21e047a839171b9190a45060016105f3565b611886611ea2565b6008805460ff191690557f5db9ee0a495bf2e6ff9c91a7834c1ba4fdd244a5e8aa4e537bd38aeae4b073aa335b6040516001600160a01b03909116815260200160405180910390a1565b6118d8611d83565b6008805460ff191660011790557f62e78cea01bee320cd4e420270b5ea74000d11b0c9f74754ebdbfc544b05a2586118b33390565b60026007540361193057604051633ee5aeb560e01b815260040160405180910390fd5b6002600755565b6001600160a01b03821661196157604051633250574960e11b815260006004820152602401610763565b600061196f83836000611760565b90506001600160a01b03811661199b57604051637e27328960e01b815260048101839052602401610763565b836001600160a01b0316816001600160a01b0316146107c7576040516364283d7b60e01b81526001600160a01b0380861660048301526024820184905282166044820152606401610763565b6001600160a01b038216611a1957604051630b61174360e31b81526001600160a01b0383166004820152602401610763565b6001600160a01b03838116600081815260056020908152604080832094871680845294825291829020805460ff191686151590811790915591519182527f17307eab39ab6107e8899845ad3d59bd9653f200f220920489ca2b5937696c31910160405180910390a3505050565b6001600160a01b0383163b15611baa57604051630a85bd0160e11b81526001600160a01b0384169063150b7a0290611ac8908890889087908790600401612773565b6020604051808303816000875af1925050508015611b03575060408051601f3d908101601f19168201909252611b00918101906127b0565b60015b611b6c573d808015611b31576040519150601f19603f3d011682016040523d82523d6000602084013e611b36565b606091505b508051600003611b6457604051633250574960e11b81526001600160a01b0385166004820152602401610763565b805160208201fd5b6001600160e01b03198116630a85bd0160e11b14611ba857604051633250574960e11b81526001600160a01b0385166004820152602401610763565b505b5050505050565b60606000611bbe83611ec5565b600101905060008167ffffffffffffffff811115611bde57611bde612452565b6040519080825280601f01601f191660200182016040528015611c08576020820181803683370190505b5090508181016020015b600019016f181899199a1a9b1b9c1cb0b131b232b360811b600a86061a8153600a8504945084611c1257509392505050565b8080611c5857506001600160a01b03821615155b15611d1a576000611c6884611710565b90506001600160a01b03831615801590611c945750826001600160a01b0316816001600160a01b031614155b8015611ca75750611ca5818461152c565b155b15611cd05760405163a9fbf51f60e01b81526001600160a01b0384166004820152602401610763565b8115611d185783856001600160a01b0316826001600160a01b03167f8c5be1e5ebec7d5bd14f71427d1e84f3dd0314c0f7b2291e5b200ac8c7c3b92560405160405180910390a45b505b5050600090815260046020526040902080546001600160a01b0319166001600160a01b0392909216919091179055565b611d548282610dd7565b6106bf5760405163e2517d3f60e01b81526001600160a01b038216600482015260248101839052604401610763565b60085460ff1615611da75760405163d93c066560e01b815260040160405180910390fd5b565b6000828152600260205260408120546001600160a01b0390811690831615611dd657611dd6818486611f9d565b6001600160a01b03811615611e1457611df3600085600080611c44565b6001600160a01b038116600090815260036020526040902080546000190190555b6001600160a01b03851615611e43576001600160a01b0385166000908152600360205260409020805460010190555b60008481526002602052604080822080546001600160a01b0319166001600160a01b0389811691821790925591518793918516917fddf252ad1be2c89b69c2b068fc378daa952ba7f163c4a11628f55a4df523b3ef91a4949350505050565b60085460ff16611da757604051638dfc202b60e01b815260040160405180910390fd5b60008072184f03e93ff9f4daa797ed6e38ed64bf6a1f0160401b8310611f045772184f03e93ff9f4daa797ed6e38ed64bf6a1f0160401b830492506040015b6d04ee2d6d415b85acef81000000008310611f30576d04ee2d6d415b85acef8100000000830492506020015b662386f26fc100008310611f4e57662386f26fc10000830492506010015b6305f5e1008310611f66576305f5e100830492506008015b6127108310611f7a57612710830492506004015b60648310611f8c576064830492506002015b600a83106105f35760010192915050565b611fa8838383612001565b610a62576001600160a01b038316611fd657604051637e27328960e01b815260048101829052602401610763565b60405163177e802f60e01b81526001600160a01b038316600482015260248101829052604401610763565b60006001600160a01b038316158015906117755750826001600160a01b0316846001600160a01b0316148061203b575061203b848461152c565b8061177557506000828152600460205260409020546001600160a01b03808516911661151a565b6001600160e01b031981168114610a8757600080fd5b60006020828403121561208a57600080fd5b81356111ff81612062565b60005b838110156120b0578181015183820152602001612098565b50506000910152565b600081518084526120d1816020860160208601612095565b601f01601f19169290920160200192915050565b6020815260006111ff60208301846120b9565b60006020828403121561210a57600080fd5b5035919050565b80356001600160a01b038116811461212857600080fd5b919050565b6000806040838503121561214057600080fd5b61214983612111565b946020939093013593505050565b8015158114610a8757600080fd5b6000806040838503121561217857600080fd5b82359150602083013561218a81612157565b809150509250929050565b6000806000606084860312156121aa57600080fd5b6121b384612111565b92506121c160208501612111565b9150604084013590509250925092565b6000602082840312156121e357600080fd5b6111ff82612111565b600080604083850312156121ff57600080fd5b8235915061220f60208401612111565b90509250929050565b60008060008060008060a0878903121561223157600080fd5b8635955060208701356004811061224757600080fd5b94506040870135935060608701359250608087013567ffffffffffffffff8082111561227257600080fd5b818901915089601f83011261228657600080fd5b81358181111561229557600080fd5b8a60208285010111156122a757600080fd5b6020830194508093505050509295509295509295565b600080602083850312156122d057600080fd5b823567ffffffffffffffff808211156122e857600080fd5b818501915085601f8301126122fc57600080fd5b81358181111561230b57600080fd5b8660208260051b850101111561232057600080fd5b60209290920196919550909350505050565b634e487b7160e01b600052602160045260246000fd5b6004811061236657634e487b7160e01b600052602160045260246000fd5b9052565b612375828251612348565b60208101516020830152604081015160408301526000606082015160c060608501526123a460c08501826120b9565b90506080830151608085015260a083015160a08501528091505092915050565b6000602080830181845280855180835260408601915060408160051b870101925083870160005b8281101561241957603f1988860301845261240785835161236a565b945092850192908501906001016123eb565b5092979650505050505050565b6000806040838503121561243957600080fd5b61244283612111565b9150602083013561218a81612157565b634e487b7160e01b600052604160045260246000fd5b6000806000806080858703121561247e57600080fd5b61248785612111565b935061249560208601612111565b925060408501359150606085013567ffffffffffffffff808211156124b957600080fd5b818701915087601f8301126124cd57600080fd5b8135818111156124df576124df612452565b604051601f8201601f19908116603f0116810190838211818310171561250757612507612452565b816040528281528a602084870101111561252057600080fd5b82602086016020830137600060208483010152809550505050505092959194509250565b6000806040838503121561255757600080fd5b61256083612111565b915061220f60208401612111565b6020815260006111ff602083018461236a565b600181811c9082168061259557607f821691505b6020821081036125b557634e487b7160e01b600052602260045260246000fd5b50919050565b601f821115610a6257600081815260208120601f850160051c810160208610156125e25750805b601f850160051c820191505b81811015611ba8578281556001016125ee565b815167ffffffffffffffff81111561261b5761261b612452565b61262f816126298454612581565b846125bb565b602080601f831160018114612664576000841561264c5750858301515b600019600386901b1c1916600185901b178555611ba8565b600085815260208120601f198616915b8281101561269357888601518255948401946001909101908401612674565b50858210156126b15787850151600019600388901b60f8161c191681555b5050505050600190811b01905550565b608081016126cf8287612348565b84602083015283604083015282606083015295945050505050565b634e487b7160e01b600052603260045260246000fd5b60006001820161272057634e487b7160e01b600052601160045260246000fd5b5060010190565b60006020828403121561273957600080fd5b81516111ff81612157565b60008351612756818460208801612095565b83519083019061276a818360208801612095565b01949350505050565b6001600160a01b03858116825284166020820152604081018390526080606082018190526000906127a6908301846120b9565b9695505050505050565b6000602082840312156127c257600080fd5b81516111ff8161206256feb6f0283bd1ed00c6aa7e988a7516070240f3610a34d167391359b648eb37cefc65d7a28e3265b37a6474929f336521b332c1681b933f6cb9f3376673440d862aa26469706673582212207d9ae3a6b9bdc00fab4731e89916994a58841cee49e698f5f8fb5ab3f3bbe03164736f6c63430008140033",
  "linkReferences": {},
  "deployedLinkReferences": {}
}